ARM GAS  C:\Users\kcdasilv\AppData\Local\Temp\ccoUUPVU.s 			page 1


   1              		.syntax unified
   2              		.cpu cortex-m3
   3              		.fpu softvfp
   4              		.eabi_attribute 20, 1
   5              		.eabi_attribute 21, 1
   6              		.eabi_attribute 23, 3
   7              		.eabi_attribute 24, 1
   8              		.eabi_attribute 25, 1
   9              		.eabi_attribute 26, 1
  10              		.eabi_attribute 30, 1
  11              		.eabi_attribute 34, 1
  12              		.eabi_attribute 18, 4
  13              		.thumb
  14              		.file	"cyfitter_cfg.c"
  15              		.text
  16              	.Ltext0:
  17              		.cfi_sections	.debug_frame
  18              		.section	.text.CyClockStartupError,"ax",%progbits
  19              		.align	2
  20              		.thumb
  21              		.thumb_func
  22              		.type	CyClockStartupError, %function
  23              	CyClockStartupError:
  24              	.LFB3:
  25              		.file 1 "Generated_Source\\PSoC5\\cyfitter_cfg.c"
   1:Generated_Source\PSoC5/cyfitter_cfg.c **** /*******************************************************************************
   2:Generated_Source\PSoC5/cyfitter_cfg.c **** * File Name: cyfitter_cfg.c
   3:Generated_Source\PSoC5/cyfitter_cfg.c **** * 
   4:Generated_Source\PSoC5/cyfitter_cfg.c **** * PSoC Creator  4.0 Update 1
   5:Generated_Source\PSoC5/cyfitter_cfg.c **** *
   6:Generated_Source\PSoC5/cyfitter_cfg.c **** * Description:
   7:Generated_Source\PSoC5/cyfitter_cfg.c **** * This file contains device initialization code.
   8:Generated_Source\PSoC5/cyfitter_cfg.c **** * Except for the user defined sections in CyClockStartupError(), this file should not be modified.
   9:Generated_Source\PSoC5/cyfitter_cfg.c **** * This file is automatically generated by PSoC Creator.
  10:Generated_Source\PSoC5/cyfitter_cfg.c **** *
  11:Generated_Source\PSoC5/cyfitter_cfg.c **** ********************************************************************************
  12:Generated_Source\PSoC5/cyfitter_cfg.c **** * Copyright (c) 2007-2016 Cypress Semiconductor.  All rights reserved.
  13:Generated_Source\PSoC5/cyfitter_cfg.c **** * You may use this file only in accordance with the license, terms, conditions, 
  14:Generated_Source\PSoC5/cyfitter_cfg.c **** * disclaimers, and limitations in the end user license agreement accompanying 
  15:Generated_Source\PSoC5/cyfitter_cfg.c **** * the software package with which this file was provided.
  16:Generated_Source\PSoC5/cyfitter_cfg.c **** ********************************************************************************/
  17:Generated_Source\PSoC5/cyfitter_cfg.c **** 
  18:Generated_Source\PSoC5/cyfitter_cfg.c **** #include <string.h>
  19:Generated_Source\PSoC5/cyfitter_cfg.c **** #include "cytypes.h"
  20:Generated_Source\PSoC5/cyfitter_cfg.c **** #include "cydevice_trm.h"
  21:Generated_Source\PSoC5/cyfitter_cfg.c **** #include "cyfitter.h"
  22:Generated_Source\PSoC5/cyfitter_cfg.c **** #include "CyLib.h"
  23:Generated_Source\PSoC5/cyfitter_cfg.c **** #include "cyfitter_cfg.h"
  24:Generated_Source\PSoC5/cyfitter_cfg.c **** #include "cyapicallbacks.h"
  25:Generated_Source\PSoC5/cyfitter_cfg.c **** 
  26:Generated_Source\PSoC5/cyfitter_cfg.c **** #define CY_NEED_CYCLOCKSTARTUPERROR 1
  27:Generated_Source\PSoC5/cyfitter_cfg.c **** 
  28:Generated_Source\PSoC5/cyfitter_cfg.c **** 
  29:Generated_Source\PSoC5/cyfitter_cfg.c **** #if defined(__GNUC__) || defined(__ARMCC_VERSION)
  30:Generated_Source\PSoC5/cyfitter_cfg.c ****     #define CYPACKED 
  31:Generated_Source\PSoC5/cyfitter_cfg.c ****     #define CYPACKED_ATTR __attribute__ ((packed))
  32:Generated_Source\PSoC5/cyfitter_cfg.c ****     #define CYALIGNED __attribute__ ((aligned))
ARM GAS  C:\Users\kcdasilv\AppData\Local\Temp\ccoUUPVU.s 			page 2


  33:Generated_Source\PSoC5/cyfitter_cfg.c ****     #define CY_CFG_UNUSED __attribute__ ((unused))
  34:Generated_Source\PSoC5/cyfitter_cfg.c ****     #ifndef CY_CFG_SECTION
  35:Generated_Source\PSoC5/cyfitter_cfg.c ****         #define CY_CFG_SECTION __attribute__ ((section(".psocinit")))
  36:Generated_Source\PSoC5/cyfitter_cfg.c ****     #endif
  37:Generated_Source\PSoC5/cyfitter_cfg.c ****     
  38:Generated_Source\PSoC5/cyfitter_cfg.c ****     #if defined(__ARMCC_VERSION)
  39:Generated_Source\PSoC5/cyfitter_cfg.c ****         #define CY_CFG_MEMORY_BARRIER() __memory_changed()
  40:Generated_Source\PSoC5/cyfitter_cfg.c ****     #else
  41:Generated_Source\PSoC5/cyfitter_cfg.c ****         #define CY_CFG_MEMORY_BARRIER() __sync_synchronize()
  42:Generated_Source\PSoC5/cyfitter_cfg.c ****     #endif
  43:Generated_Source\PSoC5/cyfitter_cfg.c ****     
  44:Generated_Source\PSoC5/cyfitter_cfg.c **** #elif defined(__ICCARM__)
  45:Generated_Source\PSoC5/cyfitter_cfg.c ****     #include <intrinsics.h>
  46:Generated_Source\PSoC5/cyfitter_cfg.c **** 
  47:Generated_Source\PSoC5/cyfitter_cfg.c ****     #define CYPACKED __packed
  48:Generated_Source\PSoC5/cyfitter_cfg.c ****     #define CYPACKED_ATTR 
  49:Generated_Source\PSoC5/cyfitter_cfg.c ****     #define CYALIGNED _Pragma("data_alignment=4")
  50:Generated_Source\PSoC5/cyfitter_cfg.c ****     #define CY_CFG_UNUSED _Pragma("diag_suppress=Pe177")
  51:Generated_Source\PSoC5/cyfitter_cfg.c ****     #define CY_CFG_SECTION _Pragma("location=\".psocinit\"")
  52:Generated_Source\PSoC5/cyfitter_cfg.c ****     
  53:Generated_Source\PSoC5/cyfitter_cfg.c ****     #define CY_CFG_MEMORY_BARRIER() __DMB()
  54:Generated_Source\PSoC5/cyfitter_cfg.c ****     
  55:Generated_Source\PSoC5/cyfitter_cfg.c **** #else
  56:Generated_Source\PSoC5/cyfitter_cfg.c ****     #error Unsupported toolchain
  57:Generated_Source\PSoC5/cyfitter_cfg.c **** #endif
  58:Generated_Source\PSoC5/cyfitter_cfg.c **** 
  59:Generated_Source\PSoC5/cyfitter_cfg.c **** 
  60:Generated_Source\PSoC5/cyfitter_cfg.c **** CY_CFG_UNUSED
  61:Generated_Source\PSoC5/cyfitter_cfg.c **** static void CYMEMZERO(void *s, size_t n);
  62:Generated_Source\PSoC5/cyfitter_cfg.c **** CY_CFG_UNUSED
  63:Generated_Source\PSoC5/cyfitter_cfg.c **** static void CYMEMZERO(void *s, size_t n)
  64:Generated_Source\PSoC5/cyfitter_cfg.c **** {
  65:Generated_Source\PSoC5/cyfitter_cfg.c **** 	(void)memset(s, 0, n);
  66:Generated_Source\PSoC5/cyfitter_cfg.c **** }
  67:Generated_Source\PSoC5/cyfitter_cfg.c **** CY_CFG_UNUSED
  68:Generated_Source\PSoC5/cyfitter_cfg.c **** static void CYCONFIGCPY(void *dest, const void *src, size_t n);
  69:Generated_Source\PSoC5/cyfitter_cfg.c **** CY_CFG_UNUSED
  70:Generated_Source\PSoC5/cyfitter_cfg.c **** static void CYCONFIGCPY(void *dest, const void *src, size_t n)
  71:Generated_Source\PSoC5/cyfitter_cfg.c **** {
  72:Generated_Source\PSoC5/cyfitter_cfg.c **** 	(void)memcpy(dest, src, n);
  73:Generated_Source\PSoC5/cyfitter_cfg.c **** }
  74:Generated_Source\PSoC5/cyfitter_cfg.c **** CY_CFG_UNUSED
  75:Generated_Source\PSoC5/cyfitter_cfg.c **** static void CYCONFIGCPYCODE(void *dest, const void *src, size_t n);
  76:Generated_Source\PSoC5/cyfitter_cfg.c **** CY_CFG_UNUSED
  77:Generated_Source\PSoC5/cyfitter_cfg.c **** static void CYCONFIGCPYCODE(void *dest, const void *src, size_t n)
  78:Generated_Source\PSoC5/cyfitter_cfg.c **** {
  79:Generated_Source\PSoC5/cyfitter_cfg.c **** 	(void)memcpy(dest, src, n);
  80:Generated_Source\PSoC5/cyfitter_cfg.c **** }
  81:Generated_Source\PSoC5/cyfitter_cfg.c **** 
  82:Generated_Source\PSoC5/cyfitter_cfg.c **** 
  83:Generated_Source\PSoC5/cyfitter_cfg.c **** 
  84:Generated_Source\PSoC5/cyfitter_cfg.c **** 
  85:Generated_Source\PSoC5/cyfitter_cfg.c **** /* Clock startup error codes                                                   */
  86:Generated_Source\PSoC5/cyfitter_cfg.c **** #define CYCLOCKSTART_NO_ERROR    0u
  87:Generated_Source\PSoC5/cyfitter_cfg.c **** #define CYCLOCKSTART_XTAL_ERROR  1u
  88:Generated_Source\PSoC5/cyfitter_cfg.c **** #define CYCLOCKSTART_32KHZ_ERROR 2u
  89:Generated_Source\PSoC5/cyfitter_cfg.c **** #define CYCLOCKSTART_PLL_ERROR   3u
ARM GAS  C:\Users\kcdasilv\AppData\Local\Temp\ccoUUPVU.s 			page 3


  90:Generated_Source\PSoC5/cyfitter_cfg.c **** 
  91:Generated_Source\PSoC5/cyfitter_cfg.c **** 
  92:Generated_Source\PSoC5/cyfitter_cfg.c **** #ifdef CY_NEED_CYCLOCKSTARTUPERROR
  93:Generated_Source\PSoC5/cyfitter_cfg.c **** /*******************************************************************************
  94:Generated_Source\PSoC5/cyfitter_cfg.c **** * Function Name: CyClockStartupError
  95:Generated_Source\PSoC5/cyfitter_cfg.c **** ********************************************************************************
  96:Generated_Source\PSoC5/cyfitter_cfg.c **** * Summary:
  97:Generated_Source\PSoC5/cyfitter_cfg.c **** *  If an error is encountered during clock configuration (crystal startup error,
  98:Generated_Source\PSoC5/cyfitter_cfg.c **** *  PLL lock error, etc.), the system will end up here.  Unless reimplemented by
  99:Generated_Source\PSoC5/cyfitter_cfg.c **** *  the customer, this function will stop in an infinite loop.
 100:Generated_Source\PSoC5/cyfitter_cfg.c **** *
 101:Generated_Source\PSoC5/cyfitter_cfg.c **** * Parameters:
 102:Generated_Source\PSoC5/cyfitter_cfg.c **** *   void
 103:Generated_Source\PSoC5/cyfitter_cfg.c **** *
 104:Generated_Source\PSoC5/cyfitter_cfg.c **** * Return:
 105:Generated_Source\PSoC5/cyfitter_cfg.c **** *   void
 106:Generated_Source\PSoC5/cyfitter_cfg.c **** *
 107:Generated_Source\PSoC5/cyfitter_cfg.c **** *******************************************************************************/
 108:Generated_Source\PSoC5/cyfitter_cfg.c **** CY_CFG_UNUSED
 109:Generated_Source\PSoC5/cyfitter_cfg.c **** static void CyClockStartupError(uint8 errorCode);
 110:Generated_Source\PSoC5/cyfitter_cfg.c **** CY_CFG_UNUSED
 111:Generated_Source\PSoC5/cyfitter_cfg.c **** static void CyClockStartupError(uint8 errorCode)
 112:Generated_Source\PSoC5/cyfitter_cfg.c **** {
  26              		.loc 1 112 0
  27              		.cfi_startproc
  28              		@ Volatile: function does not return.
  29              		@ args = 0, pretend = 0, frame = 0
  30              		@ frame_needed = 0, uses_anonymous_args = 0
  31              		@ link register save eliminated.
  32              	.LVL0:
  33              	.L2:
 113:Generated_Source\PSoC5/cyfitter_cfg.c ****     /* To remove the compiler warning if errorCode not used.                */
 114:Generated_Source\PSoC5/cyfitter_cfg.c ****     errorCode = errorCode;
 115:Generated_Source\PSoC5/cyfitter_cfg.c **** 
 116:Generated_Source\PSoC5/cyfitter_cfg.c ****     /* If we have a clock startup error (bad MHz crystal, PLL lock, etc.),  */
 117:Generated_Source\PSoC5/cyfitter_cfg.c ****     /* we will end up here to allow the customer to implement something to  */
 118:Generated_Source\PSoC5/cyfitter_cfg.c ****     /* deal with the clock condition.                                       */
 119:Generated_Source\PSoC5/cyfitter_cfg.c **** 
 120:Generated_Source\PSoC5/cyfitter_cfg.c **** #ifdef CY_CFG_CLOCK_STARTUP_ERROR_CALLBACK
 121:Generated_Source\PSoC5/cyfitter_cfg.c **** 	CY_CFG_Clock_Startup_ErrorCallback();
 122:Generated_Source\PSoC5/cyfitter_cfg.c **** #else
 123:Generated_Source\PSoC5/cyfitter_cfg.c **** 	/*  If not using CY_CFG_CLOCK_STARTUP_ERROR_CALLBACK, place your clock startup code here. */
 124:Generated_Source\PSoC5/cyfitter_cfg.c ****     /* `#START CyClockStartupError` */
 125:Generated_Source\PSoC5/cyfitter_cfg.c **** 
 126:Generated_Source\PSoC5/cyfitter_cfg.c **** 
 127:Generated_Source\PSoC5/cyfitter_cfg.c **** 
 128:Generated_Source\PSoC5/cyfitter_cfg.c ****     /* `#END` */
 129:Generated_Source\PSoC5/cyfitter_cfg.c **** 
 130:Generated_Source\PSoC5/cyfitter_cfg.c ****     /* If nothing else, stop here since the clocks have not started         */
 131:Generated_Source\PSoC5/cyfitter_cfg.c ****     /* correctly.                                                           */
 132:Generated_Source\PSoC5/cyfitter_cfg.c ****     while(1) {}
  34              		.loc 1 132 0 discriminator 1
  35 0000 FEE7     		b	.L2
  36              		.cfi_endproc
  37              	.LFE3:
  38              		.size	CyClockStartupError, .-CyClockStartupError
  39 0002 00BF     		.section	.text.cfg_write_bytes32,"ax",%progbits
ARM GAS  C:\Users\kcdasilv\AppData\Local\Temp\ccoUUPVU.s 			page 4


  40              		.align	2
  41              		.thumb
  42              		.thumb_func
  43              		.type	cfg_write_bytes32, %function
  44              	cfg_write_bytes32:
  45              	.LFB4:
 133:Generated_Source\PSoC5/cyfitter_cfg.c **** #endif /* CY_CFG_CLOCK_STARTUP_ERROR_CALLBACK */ 
 134:Generated_Source\PSoC5/cyfitter_cfg.c **** }
 135:Generated_Source\PSoC5/cyfitter_cfg.c **** #endif
 136:Generated_Source\PSoC5/cyfitter_cfg.c **** 
 137:Generated_Source\PSoC5/cyfitter_cfg.c **** #define CY_CFG_BASE_ADDR_COUNT 16u
 138:Generated_Source\PSoC5/cyfitter_cfg.c **** CYPACKED typedef struct
 139:Generated_Source\PSoC5/cyfitter_cfg.c **** {
 140:Generated_Source\PSoC5/cyfitter_cfg.c **** 	uint8 offset;
 141:Generated_Source\PSoC5/cyfitter_cfg.c **** 	uint8 value;
 142:Generated_Source\PSoC5/cyfitter_cfg.c **** } CYPACKED_ATTR cy_cfg_addrvalue_t;
 143:Generated_Source\PSoC5/cyfitter_cfg.c **** 
 144:Generated_Source\PSoC5/cyfitter_cfg.c **** #define cy_cfg_addr_table ((const uint32 CYFAR *)0x48000000u)
 145:Generated_Source\PSoC5/cyfitter_cfg.c **** #define cy_cfg_data_table ((const cy_cfg_addrvalue_t CYFAR *)0x48000040u)
 146:Generated_Source\PSoC5/cyfitter_cfg.c **** 
 147:Generated_Source\PSoC5/cyfitter_cfg.c **** /* IOPINS0_0 Address: CYREG_PRT0_DM0 Size (bytes): 8 */
 148:Generated_Source\PSoC5/cyfitter_cfg.c **** #define BS_IOPINS0_0_VAL ((const uint8 CYFAR *)0x48000138u)
 149:Generated_Source\PSoC5/cyfitter_cfg.c **** 
 150:Generated_Source\PSoC5/cyfitter_cfg.c **** /* IOPINS0_1 Address: CYREG_PRT1_DM0 Size (bytes): 8 */
 151:Generated_Source\PSoC5/cyfitter_cfg.c **** #define BS_IOPINS0_1_VAL ((const uint8 CYFAR *)0x48000140u)
 152:Generated_Source\PSoC5/cyfitter_cfg.c **** 
 153:Generated_Source\PSoC5/cyfitter_cfg.c **** /* CYDEV_CLKDIST_ACFG0_CFG0 Address: CYREG_CLKDIST_ACFG0_CFG0 Size (bytes): 4 */
 154:Generated_Source\PSoC5/cyfitter_cfg.c **** #define BS_CYDEV_CLKDIST_ACFG0_CFG0_VAL ((const uint8 CYFAR *)0x48000148u)
 155:Generated_Source\PSoC5/cyfitter_cfg.c **** 
 156:Generated_Source\PSoC5/cyfitter_cfg.c **** 
 157:Generated_Source\PSoC5/cyfitter_cfg.c **** /*******************************************************************************
 158:Generated_Source\PSoC5/cyfitter_cfg.c **** * Function Name: cfg_write_bytes32
 159:Generated_Source\PSoC5/cyfitter_cfg.c **** ********************************************************************************
 160:Generated_Source\PSoC5/cyfitter_cfg.c **** * Summary:
 161:Generated_Source\PSoC5/cyfitter_cfg.c **** *  This function is used for setting up the chip configuration areas that
 162:Generated_Source\PSoC5/cyfitter_cfg.c **** *  contain relatively sparse data.
 163:Generated_Source\PSoC5/cyfitter_cfg.c **** *
 164:Generated_Source\PSoC5/cyfitter_cfg.c **** * Parameters:
 165:Generated_Source\PSoC5/cyfitter_cfg.c **** *   void
 166:Generated_Source\PSoC5/cyfitter_cfg.c **** *
 167:Generated_Source\PSoC5/cyfitter_cfg.c **** * Return:
 168:Generated_Source\PSoC5/cyfitter_cfg.c **** *   void
 169:Generated_Source\PSoC5/cyfitter_cfg.c **** *
 170:Generated_Source\PSoC5/cyfitter_cfg.c **** *******************************************************************************/
 171:Generated_Source\PSoC5/cyfitter_cfg.c **** static void cfg_write_bytes32(const uint32 addr_table[], const cy_cfg_addrvalue_t data_table[]);
 172:Generated_Source\PSoC5/cyfitter_cfg.c **** static void cfg_write_bytes32(const uint32 addr_table[], const cy_cfg_addrvalue_t data_table[])
 173:Generated_Source\PSoC5/cyfitter_cfg.c **** {
  46              		.loc 1 173 0
  47              		.cfi_startproc
  48              		@ args = 0, pretend = 0, frame = 0
  49              		@ frame_needed = 0, uses_anonymous_args = 0
  50              		@ link register save eliminated.
  51              	.LVL1:
  52 0000 F0B4     		push	{r4, r5, r6, r7}
  53              		.cfi_def_cfa_offset 16
  54              		.cfi_offset 4, -16
  55              		.cfi_offset 5, -12
ARM GAS  C:\Users\kcdasilv\AppData\Local\Temp\ccoUUPVU.s 			page 5


  56              		.cfi_offset 6, -8
  57              		.cfi_offset 7, -4
  58              	.LVL2:
 174:Generated_Source\PSoC5/cyfitter_cfg.c **** 	/* For 32-bit little-endian architectures */
 175:Generated_Source\PSoC5/cyfitter_cfg.c **** 	uint32 i, j = 0u;
  59              		.loc 1 175 0
  60 0002 0022     		movs	r2, #0
 176:Generated_Source\PSoC5/cyfitter_cfg.c **** 	for (i = 0u; i < CY_CFG_BASE_ADDR_COUNT; i++)
  61              		.loc 1 176 0
  62 0004 1746     		mov	r7, r2
  63 0006 11E0     		b	.L4
  64              	.LVL3:
  65              	.L7:
  66              	.LBB2:
 177:Generated_Source\PSoC5/cyfitter_cfg.c **** 	{
 178:Generated_Source\PSoC5/cyfitter_cfg.c **** 		uint32 baseAddr = addr_table[i];
  67              		.loc 1 178 0
  68 0008 50F82760 		ldr	r6, [r0, r7, lsl #2]
  69              	.LVL4:
 179:Generated_Source\PSoC5/cyfitter_cfg.c **** 		uint8 count = (uint8)baseAddr;
  70              		.loc 1 179 0
  71 000c F3B2     		uxtb	r3, r6
  72              	.LVL5:
 180:Generated_Source\PSoC5/cyfitter_cfg.c **** 		baseAddr &= 0xFFFFFF00u;
  73              		.loc 1 180 0
  74 000e 26F0FF06 		bic	r6, r6, #255
  75              	.LVL6:
 181:Generated_Source\PSoC5/cyfitter_cfg.c **** 		while (count != 0u)
  76              		.loc 1 181 0
  77 0012 08E0     		b	.L5
  78              	.L6:
 182:Generated_Source\PSoC5/cyfitter_cfg.c **** 		{
 183:Generated_Source\PSoC5/cyfitter_cfg.c **** 			CY_SET_XTND_REG8((void CYFAR *)(baseAddr + data_table[j].offset), data_table[j].value);
  79              		.loc 1 183 0
  80 0014 01EB4205 		add	r5, r1, r2, lsl #1
  81 0018 11F81240 		ldrb	r4, [r1, r2, lsl #1]	@ zero_extendqisi2
  82 001c 6D78     		ldrb	r5, [r5, #1]	@ zero_extendqisi2
  83 001e A555     		strb	r5, [r4, r6]
 184:Generated_Source\PSoC5/cyfitter_cfg.c **** 			j++;
  84              		.loc 1 184 0
  85 0020 0132     		adds	r2, r2, #1
  86              	.LVL7:
 185:Generated_Source\PSoC5/cyfitter_cfg.c **** 			count--;
  87              		.loc 1 185 0
  88 0022 013B     		subs	r3, r3, #1
  89              	.LVL8:
  90 0024 DBB2     		uxtb	r3, r3
  91              	.LVL9:
  92              	.L5:
 181:Generated_Source\PSoC5/cyfitter_cfg.c **** 		{
  93              		.loc 1 181 0
  94 0026 002B     		cmp	r3, #0
  95 0028 F4D1     		bne	.L6
  96              	.LBE2:
 176:Generated_Source\PSoC5/cyfitter_cfg.c **** 	{
  97              		.loc 1 176 0 discriminator 2
  98 002a 0137     		adds	r7, r7, #1
ARM GAS  C:\Users\kcdasilv\AppData\Local\Temp\ccoUUPVU.s 			page 6


  99              	.LVL10:
 100              	.L4:
 176:Generated_Source\PSoC5/cyfitter_cfg.c **** 	{
 101              		.loc 1 176 0 is_stmt 0 discriminator 1
 102 002c 0F2F     		cmp	r7, #15
 103 002e EBD9     		bls	.L7
 186:Generated_Source\PSoC5/cyfitter_cfg.c **** 		}
 187:Generated_Source\PSoC5/cyfitter_cfg.c **** 	}
 188:Generated_Source\PSoC5/cyfitter_cfg.c **** }
 104              		.loc 1 188 0 is_stmt 1
 105 0030 F0BC     		pop	{r4, r5, r6, r7}
 106              		.cfi_restore 7
 107              		.cfi_restore 6
 108              		.cfi_restore 5
 109              		.cfi_restore 4
 110              		.cfi_def_cfa_offset 0
 111              	.LVL11:
 112 0032 7047     		bx	lr
 113              		.cfi_endproc
 114              	.LFE4:
 115              		.size	cfg_write_bytes32, .-cfg_write_bytes32
 116              		.section	.text.AnalogSetDefault,"ax",%progbits
 117              		.align	2
 118              		.thumb
 119              		.thumb_func
 120              		.type	AnalogSetDefault, %function
 121              	AnalogSetDefault:
 122              	.LFB6:
 189:Generated_Source\PSoC5/cyfitter_cfg.c **** 
 190:Generated_Source\PSoC5/cyfitter_cfg.c **** /*******************************************************************************
 191:Generated_Source\PSoC5/cyfitter_cfg.c **** * Function Name: ClockSetup
 192:Generated_Source\PSoC5/cyfitter_cfg.c **** ********************************************************************************
 193:Generated_Source\PSoC5/cyfitter_cfg.c **** *
 194:Generated_Source\PSoC5/cyfitter_cfg.c **** * Summary:
 195:Generated_Source\PSoC5/cyfitter_cfg.c **** *  Performs the initialization of all of the clocks in the device based on the
 196:Generated_Source\PSoC5/cyfitter_cfg.c **** *  settings in the Clock tab of the DWR.  This includes enabling the requested
 197:Generated_Source\PSoC5/cyfitter_cfg.c **** *  clocks and setting the necessary dividers to produce the desired frequency. 
 198:Generated_Source\PSoC5/cyfitter_cfg.c **** *
 199:Generated_Source\PSoC5/cyfitter_cfg.c **** * Parameters:
 200:Generated_Source\PSoC5/cyfitter_cfg.c **** *  void
 201:Generated_Source\PSoC5/cyfitter_cfg.c **** *
 202:Generated_Source\PSoC5/cyfitter_cfg.c **** * Return:
 203:Generated_Source\PSoC5/cyfitter_cfg.c **** *  void
 204:Generated_Source\PSoC5/cyfitter_cfg.c **** *
 205:Generated_Source\PSoC5/cyfitter_cfg.c **** *******************************************************************************/
 206:Generated_Source\PSoC5/cyfitter_cfg.c **** static void ClockSetup(void);
 207:Generated_Source\PSoC5/cyfitter_cfg.c **** static void ClockSetup(void)
 208:Generated_Source\PSoC5/cyfitter_cfg.c **** {
 209:Generated_Source\PSoC5/cyfitter_cfg.c **** 	uint32 timeout;
 210:Generated_Source\PSoC5/cyfitter_cfg.c **** 	uint8 pllLock;
 211:Generated_Source\PSoC5/cyfitter_cfg.c **** 
 212:Generated_Source\PSoC5/cyfitter_cfg.c **** 
 213:Generated_Source\PSoC5/cyfitter_cfg.c **** 	/* Configure Digital Clocks based on settings from Clock DWR */
 214:Generated_Source\PSoC5/cyfitter_cfg.c **** 	CY_SET_XTND_REG16((void CYFAR *)(CYREG_CLKDIST_DCFG0_CFG0), 0x0000u);
 215:Generated_Source\PSoC5/cyfitter_cfg.c **** 	CY_SET_XTND_REG8((void CYFAR *)(CYREG_CLKDIST_DCFG0_CFG0 + 0x2u), 0x50u);
 216:Generated_Source\PSoC5/cyfitter_cfg.c **** 	CY_SET_XTND_REG16((void CYFAR *)(CYREG_CLKDIST_DCFG1_CFG0), 0x0017u);
 217:Generated_Source\PSoC5/cyfitter_cfg.c **** 	CY_SET_XTND_REG8((void CYFAR *)(CYREG_CLKDIST_DCFG1_CFG0 + 0x2u), 0x18u);
ARM GAS  C:\Users\kcdasilv\AppData\Local\Temp\ccoUUPVU.s 			page 7


 218:Generated_Source\PSoC5/cyfitter_cfg.c **** 
 219:Generated_Source\PSoC5/cyfitter_cfg.c **** 	/* Configure Analog Clocks based on settings from Clock DWR */
 220:Generated_Source\PSoC5/cyfitter_cfg.c **** 	CYCONFIGCPY((void CYFAR *)(CYREG_CLKDIST_ACFG0_CFG0), (const void CYFAR *)(BS_CYDEV_CLKDIST_ACFG0_
 221:Generated_Source\PSoC5/cyfitter_cfg.c **** 
 222:Generated_Source\PSoC5/cyfitter_cfg.c **** 	/* Configure ILO based on settings from Clock DWR */
 223:Generated_Source\PSoC5/cyfitter_cfg.c **** 	CY_SET_XTND_REG8((void CYFAR *)(CYREG_SLOWCLK_ILO_CR0), 0x02u);
 224:Generated_Source\PSoC5/cyfitter_cfg.c **** 	CY_SET_XTND_REG8((void CYFAR *)(CYREG_CLKDIST_CR), 0x08u);
 225:Generated_Source\PSoC5/cyfitter_cfg.c **** 
 226:Generated_Source\PSoC5/cyfitter_cfg.c **** 	/* Configure IMO based on settings from Clock DWR */
 227:Generated_Source\PSoC5/cyfitter_cfg.c **** 	CY_SET_XTND_REG8((void CYFAR *)(CYREG_FASTCLK_IMO_CR), 0x03u);
 228:Generated_Source\PSoC5/cyfitter_cfg.c **** 	CY_SET_XTND_REG8((void CYFAR *)(CYREG_IMO_TR1), (CY_GET_XTND_REG8((void CYFAR *)CYREG_FLSHID_CUST_
 229:Generated_Source\PSoC5/cyfitter_cfg.c **** 
 230:Generated_Source\PSoC5/cyfitter_cfg.c **** 	/* Configure PLL based on settings from Clock DWR */
 231:Generated_Source\PSoC5/cyfitter_cfg.c **** 	CY_SET_XTND_REG16((void CYFAR *)(CYREG_FASTCLK_PLL_P), 0x0008u);
 232:Generated_Source\PSoC5/cyfitter_cfg.c **** 	CY_SET_XTND_REG16((void CYFAR *)(CYREG_FASTCLK_PLL_CFG0), 0x1251u);
 233:Generated_Source\PSoC5/cyfitter_cfg.c **** 	/* Wait up to 250us for the PLL to lock */
 234:Generated_Source\PSoC5/cyfitter_cfg.c **** 	pllLock = 0u;
 235:Generated_Source\PSoC5/cyfitter_cfg.c **** 	for (timeout = 250u / 10u; (timeout > 0u) && (pllLock != 0x03u); timeout--)
 236:Generated_Source\PSoC5/cyfitter_cfg.c **** 	{ 
 237:Generated_Source\PSoC5/cyfitter_cfg.c **** 		pllLock = 0x03u & ((uint8)((uint8)pllLock << 1) | ((CY_GET_XTND_REG8((void CYFAR *)CYREG_FASTCLK_
 238:Generated_Source\PSoC5/cyfitter_cfg.c **** 		CyDelayCycles(10u * 48u); /* Delay 10us based on 48MHz clock */
 239:Generated_Source\PSoC5/cyfitter_cfg.c **** 	}
 240:Generated_Source\PSoC5/cyfitter_cfg.c **** 	/* If we ran out of time the PLL didn't lock so go to the error function */
 241:Generated_Source\PSoC5/cyfitter_cfg.c **** 	if (timeout == 0u)
 242:Generated_Source\PSoC5/cyfitter_cfg.c **** 	{
 243:Generated_Source\PSoC5/cyfitter_cfg.c **** 		CyClockStartupError(CYCLOCKSTART_PLL_ERROR);
 244:Generated_Source\PSoC5/cyfitter_cfg.c **** 	}
 245:Generated_Source\PSoC5/cyfitter_cfg.c **** 
 246:Generated_Source\PSoC5/cyfitter_cfg.c **** 	/* Configure Bus/Master Clock based on settings from Clock DWR */
 247:Generated_Source\PSoC5/cyfitter_cfg.c **** 	CY_SET_XTND_REG16((void CYFAR *)(CYREG_CLKDIST_MSTR0), 0x0100u);
 248:Generated_Source\PSoC5/cyfitter_cfg.c **** 	CY_SET_XTND_REG8((void CYFAR *)(CYREG_CLKDIST_MSTR0), 0x07u);
 249:Generated_Source\PSoC5/cyfitter_cfg.c **** 	CY_SET_XTND_REG8((void CYFAR *)(CYREG_CLKDIST_BCFG0), 0x00u);
 250:Generated_Source\PSoC5/cyfitter_cfg.c **** 	CY_SET_XTND_REG8((void CYFAR *)(CYREG_CLKDIST_BCFG2), 0x48u);
 251:Generated_Source\PSoC5/cyfitter_cfg.c **** 	CY_SET_XTND_REG8((void CYFAR *)(CYREG_CLKDIST_MSTR0), 0x00u);
 252:Generated_Source\PSoC5/cyfitter_cfg.c **** 	CY_SET_XTND_REG8((void CYFAR *)(CYREG_CLKDIST_LD), 0x02u);
 253:Generated_Source\PSoC5/cyfitter_cfg.c **** 	CY_SET_XTND_REG8((void CYFAR *)(CYREG_CLKDIST_DLY1), 0x04u);
 254:Generated_Source\PSoC5/cyfitter_cfg.c **** 
 255:Generated_Source\PSoC5/cyfitter_cfg.c **** 	CY_SET_XTND_REG8((void CYFAR *)(CYREG_PM_ACT_CFG2), ((CY_GET_XTND_REG8((void CYFAR *)CYREG_PM_ACT_
 256:Generated_Source\PSoC5/cyfitter_cfg.c **** 	CY_SET_XTND_REG8((void CYFAR *)(CYREG_PM_ACT_CFG1), ((CY_GET_XTND_REG8((void CYFAR *)CYREG_PM_ACT_
 257:Generated_Source\PSoC5/cyfitter_cfg.c **** 	CY_SET_XTND_REG8((void CYFAR *)(CYREG_PM_ACT_CFG0), ((CY_GET_XTND_REG8((void CYFAR *)CYREG_PM_ACT_
 258:Generated_Source\PSoC5/cyfitter_cfg.c **** }
 259:Generated_Source\PSoC5/cyfitter_cfg.c **** 
 260:Generated_Source\PSoC5/cyfitter_cfg.c **** 
 261:Generated_Source\PSoC5/cyfitter_cfg.c **** /* Analog API Functions */
 262:Generated_Source\PSoC5/cyfitter_cfg.c **** 
 263:Generated_Source\PSoC5/cyfitter_cfg.c **** 
 264:Generated_Source\PSoC5/cyfitter_cfg.c **** /*******************************************************************************
 265:Generated_Source\PSoC5/cyfitter_cfg.c **** * Function Name: AnalogSetDefault
 266:Generated_Source\PSoC5/cyfitter_cfg.c **** ********************************************************************************
 267:Generated_Source\PSoC5/cyfitter_cfg.c **** *
 268:Generated_Source\PSoC5/cyfitter_cfg.c **** * Summary:
 269:Generated_Source\PSoC5/cyfitter_cfg.c **** *  Sets up the analog portions of the chip to default values based on chip
 270:Generated_Source\PSoC5/cyfitter_cfg.c **** *  configuration options from the project.
 271:Generated_Source\PSoC5/cyfitter_cfg.c **** *
 272:Generated_Source\PSoC5/cyfitter_cfg.c **** * Parameters:
 273:Generated_Source\PSoC5/cyfitter_cfg.c **** *  void
 274:Generated_Source\PSoC5/cyfitter_cfg.c **** *
ARM GAS  C:\Users\kcdasilv\AppData\Local\Temp\ccoUUPVU.s 			page 8


 275:Generated_Source\PSoC5/cyfitter_cfg.c **** * Return:
 276:Generated_Source\PSoC5/cyfitter_cfg.c **** *  void
 277:Generated_Source\PSoC5/cyfitter_cfg.c **** *
 278:Generated_Source\PSoC5/cyfitter_cfg.c **** *******************************************************************************/
 279:Generated_Source\PSoC5/cyfitter_cfg.c **** static void AnalogSetDefault(void);
 280:Generated_Source\PSoC5/cyfitter_cfg.c **** static void AnalogSetDefault(void)
 281:Generated_Source\PSoC5/cyfitter_cfg.c **** {
 123              		.loc 1 281 0
 124              		.cfi_startproc
 125              		@ args = 0, pretend = 0, frame = 0
 126              		@ frame_needed = 0, uses_anonymous_args = 0
 127              		@ link register save eliminated.
 282:Generated_Source\PSoC5/cyfitter_cfg.c **** 	uint8 bg_xover_inl_trim = CY_GET_XTND_REG8((void CYFAR *)(CYREG_FLSHID_MFG_CFG_BG_XOVER_INL_TRIM +
 128              		.loc 1 282 0
 129 0000 0A4B     		ldr	r3, .L10
 130 0002 1B78     		ldrb	r3, [r3]	@ zero_extendqisi2
 131 0004 DBB2     		uxtb	r3, r3
 132              	.LVL12:
 283:Generated_Source\PSoC5/cyfitter_cfg.c **** 	CY_SET_XTND_REG8((void CYFAR *)(CYREG_BG_DFT0), (bg_xover_inl_trim & 0x07u));
 133              		.loc 1 283 0
 134 0006 03F00701 		and	r1, r3, #7
 135 000a 094A     		ldr	r2, .L10+4
 136 000c 1170     		strb	r1, [r2]
 284:Generated_Source\PSoC5/cyfitter_cfg.c **** 	CY_SET_XTND_REG8((void CYFAR *)(CYREG_BG_DFT1), ((bg_xover_inl_trim >> 4) & 0x0Fu));
 137              		.loc 1 284 0
 138 000e 1B09     		lsrs	r3, r3, #4
 139              	.LVL13:
 140 0010 0132     		adds	r2, r2, #1
 141 0012 1370     		strb	r3, [r2]
 285:Generated_Source\PSoC5/cyfitter_cfg.c **** 	CY_SET_XTND_REG8((void CYFAR *)CYREG_PRT0_AG, 0x01u);
 142              		.loc 1 285 0
 143 0014 0122     		movs	r2, #1
 144 0016 074B     		ldr	r3, .L10+8
 145 0018 1A70     		strb	r2, [r3]
 286:Generated_Source\PSoC5/cyfitter_cfg.c **** 	CY_SET_XTND_REG8((void CYFAR *)CYREG_DSM0_SW0, 0x10u);
 146              		.loc 1 286 0
 147 001a 1022     		movs	r2, #16
 148 001c 03F6F313 		addw	r3, r3, #2547
 149 0020 1A70     		strb	r2, [r3]
 287:Generated_Source\PSoC5/cyfitter_cfg.c **** 	CY_SET_XTND_REG8((void CYFAR *)CYREG_PUMP_CR0, 0x44u);
 150              		.loc 1 287 0
 151 0022 4422     		movs	r2, #68
 152 0024 A3F28A23 		subw	r3, r3, #650
 153 0028 1A70     		strb	r2, [r3]
 154 002a 7047     		bx	lr
 155              	.L11:
 156              		.align	2
 157              	.L10:
 158 002c CF010049 		.word	1224737231
 159 0030 6E580040 		.word	1073764462
 160 0034 0D510040 		.word	1073762573
 161              		.cfi_endproc
 162              	.LFE6:
 163              		.size	AnalogSetDefault, .-AnalogSetDefault
 164              		.section	.text.CYMEMZERO,"ax",%progbits
 165              		.align	2
 166              		.thumb
ARM GAS  C:\Users\kcdasilv\AppData\Local\Temp\ccoUUPVU.s 			page 9


 167              		.thumb_func
 168              		.type	CYMEMZERO, %function
 169              	CYMEMZERO:
 170              	.LFB0:
  64:Generated_Source\PSoC5/cyfitter_cfg.c **** 	(void)memset(s, 0, n);
 171              		.loc 1 64 0
 172              		.cfi_startproc
 173              		@ args = 0, pretend = 0, frame = 0
 174              		@ frame_needed = 0, uses_anonymous_args = 0
 175              	.LVL14:
 176 0000 08B5     		push	{r3, lr}
 177              		.cfi_def_cfa_offset 8
 178              		.cfi_offset 3, -8
 179              		.cfi_offset 14, -4
 180 0002 0A46     		mov	r2, r1
  65:Generated_Source\PSoC5/cyfitter_cfg.c **** }
 181              		.loc 1 65 0
 182 0004 0021     		movs	r1, #0
 183              	.LVL15:
 184 0006 FFF7FEFF 		bl	memset
 185              	.LVL16:
 186 000a 08BD     		pop	{r3, pc}
 187              		.cfi_endproc
 188              	.LFE0:
 189              		.size	CYMEMZERO, .-CYMEMZERO
 190              		.section	.text.CYCONFIGCPY,"ax",%progbits
 191              		.align	2
 192              		.thumb
 193              		.thumb_func
 194              		.type	CYCONFIGCPY, %function
 195              	CYCONFIGCPY:
 196              	.LFB1:
  71:Generated_Source\PSoC5/cyfitter_cfg.c **** 	(void)memcpy(dest, src, n);
 197              		.loc 1 71 0
 198              		.cfi_startproc
 199              		@ args = 0, pretend = 0, frame = 0
 200              		@ frame_needed = 0, uses_anonymous_args = 0
 201              	.LVL17:
 202 0000 08B5     		push	{r3, lr}
 203              		.cfi_def_cfa_offset 8
 204              		.cfi_offset 3, -8
 205              		.cfi_offset 14, -4
  72:Generated_Source\PSoC5/cyfitter_cfg.c **** }
 206              		.loc 1 72 0
 207 0002 FFF7FEFF 		bl	memcpy
 208              	.LVL18:
 209 0006 08BD     		pop	{r3, pc}
 210              		.cfi_endproc
 211              	.LFE1:
 212              		.size	CYCONFIGCPY, .-CYCONFIGCPY
 213              		.section	.text.ClockSetup,"ax",%progbits
 214              		.align	2
 215              		.thumb
 216              		.thumb_func
 217              		.type	ClockSetup, %function
 218              	ClockSetup:
 219              	.LFB5:
ARM GAS  C:\Users\kcdasilv\AppData\Local\Temp\ccoUUPVU.s 			page 10


 208:Generated_Source\PSoC5/cyfitter_cfg.c **** 	uint32 timeout;
 220              		.loc 1 208 0
 221              		.cfi_startproc
 222              		@ args = 0, pretend = 0, frame = 0
 223              		@ frame_needed = 0, uses_anonymous_args = 0
 224 0000 38B5     		push	{r3, r4, r5, lr}
 225              		.cfi_def_cfa_offset 16
 226              		.cfi_offset 3, -16
 227              		.cfi_offset 4, -12
 228              		.cfi_offset 5, -8
 229              		.cfi_offset 14, -4
 214:Generated_Source\PSoC5/cyfitter_cfg.c **** 	CY_SET_XTND_REG8((void CYFAR *)(CYREG_CLKDIST_DCFG0_CFG0 + 0x2u), 0x50u);
 230              		.loc 1 214 0
 231 0002 0024     		movs	r4, #0
 232 0004 2F4B     		ldr	r3, .L22
 233 0006 1C80     		strh	r4, [r3]	@ movhi
 215:Generated_Source\PSoC5/cyfitter_cfg.c **** 	CY_SET_XTND_REG16((void CYFAR *)(CYREG_CLKDIST_DCFG1_CFG0), 0x0017u);
 234              		.loc 1 215 0
 235 0008 5022     		movs	r2, #80
 236 000a 0233     		adds	r3, r3, #2
 237 000c 1A70     		strb	r2, [r3]
 216:Generated_Source\PSoC5/cyfitter_cfg.c **** 	CY_SET_XTND_REG8((void CYFAR *)(CYREG_CLKDIST_DCFG1_CFG0 + 0x2u), 0x18u);
 238              		.loc 1 216 0
 239 000e 1722     		movs	r2, #23
 240 0010 0233     		adds	r3, r3, #2
 241 0012 1A80     		strh	r2, [r3]	@ movhi
 217:Generated_Source\PSoC5/cyfitter_cfg.c **** 
 242              		.loc 1 217 0
 243 0014 1822     		movs	r2, #24
 244 0016 0233     		adds	r3, r3, #2
 245 0018 1A70     		strb	r2, [r3]
 220:Generated_Source\PSoC5/cyfitter_cfg.c **** 
 246              		.loc 1 220 0
 247 001a 2B48     		ldr	r0, .L22+4
 248 001c 2B49     		ldr	r1, .L22+8
 249 001e 0422     		movs	r2, #4
 250 0020 FFF7FEFF 		bl	CYCONFIGCPY
 251              	.LVL19:
 223:Generated_Source\PSoC5/cyfitter_cfg.c **** 	CY_SET_XTND_REG8((void CYFAR *)(CYREG_CLKDIST_CR), 0x08u);
 252              		.loc 1 223 0
 253 0024 0222     		movs	r2, #2
 254 0026 2A4B     		ldr	r3, .L22+12
 255 0028 1A70     		strb	r2, [r3]
 224:Generated_Source\PSoC5/cyfitter_cfg.c **** 
 256              		.loc 1 224 0
 257 002a 0822     		movs	r2, #8
 258 002c 4FF04023 		mov	r3, #1073758208
 259 0030 1A70     		strb	r2, [r3]
 227:Generated_Source\PSoC5/cyfitter_cfg.c **** 	CY_SET_XTND_REG8((void CYFAR *)(CYREG_IMO_TR1), (CY_GET_XTND_REG8((void CYFAR *)CYREG_FLSHID_CUST_
 260              		.loc 1 227 0
 261 0032 0321     		movs	r1, #3
 262 0034 03F50073 		add	r3, r3, #512
 263 0038 1970     		strb	r1, [r3]
 228:Generated_Source\PSoC5/cyfitter_cfg.c **** 
 264              		.loc 1 228 0
 265 003a 264B     		ldr	r3, .L22+16
 266 003c 1B78     		ldrb	r3, [r3]	@ zero_extendqisi2
ARM GAS  C:\Users\kcdasilv\AppData\Local\Temp\ccoUUPVU.s 			page 11


 267 003e DBB2     		uxtb	r3, r3
 268 0040 2549     		ldr	r1, .L22+20
 269 0042 0B70     		strb	r3, [r1]
 231:Generated_Source\PSoC5/cyfitter_cfg.c **** 	CY_SET_XTND_REG16((void CYFAR *)(CYREG_FASTCLK_PLL_CFG0), 0x1251u);
 270              		.loc 1 231 0
 271 0044 254B     		ldr	r3, .L22+24
 272 0046 1A80     		strh	r2, [r3]	@ movhi
 232:Generated_Source\PSoC5/cyfitter_cfg.c **** 	/* Wait up to 250us for the PLL to lock */
 273              		.loc 1 232 0
 274 0048 41F25122 		movw	r2, #4689
 275 004c 023B     		subs	r3, r3, #2
 276 004e 1A80     		strh	r2, [r3]	@ movhi
 277              	.LVL20:
 235:Generated_Source\PSoC5/cyfitter_cfg.c **** 	{ 
 278              		.loc 1 235 0
 279 0050 1925     		movs	r5, #25
 280 0052 0CE0     		b	.L17
 281              	.LVL21:
 282              	.L19:
 237:Generated_Source\PSoC5/cyfitter_cfg.c **** 		CyDelayCycles(10u * 48u); /* Delay 10us based on 48MHz clock */
 283              		.loc 1 237 0 discriminator 4
 284 0054 224B     		ldr	r3, .L22+28
 285 0056 1B78     		ldrb	r3, [r3]	@ zero_extendqisi2
 286 0058 03F00103 		and	r3, r3, #1
 287 005c 43EA4404 		orr	r4, r3, r4, lsl #1
 288              	.LVL22:
 289 0060 04F00304 		and	r4, r4, #3
 290              	.LVL23:
 238:Generated_Source\PSoC5/cyfitter_cfg.c **** 	}
 291              		.loc 1 238 0 discriminator 4
 292 0064 4FF4F070 		mov	r0, #480
 293 0068 FFF7FEFF 		bl	CyDelayCycles
 294              	.LVL24:
 235:Generated_Source\PSoC5/cyfitter_cfg.c **** 	{ 
 295              		.loc 1 235 0 discriminator 4
 296 006c 013D     		subs	r5, r5, #1
 297              	.LVL25:
 298              	.L17:
 235:Generated_Source\PSoC5/cyfitter_cfg.c **** 	{ 
 299              		.loc 1 235 0 is_stmt 0 discriminator 1
 300 006e 0DB1     		cbz	r5, .L18
 235:Generated_Source\PSoC5/cyfitter_cfg.c **** 	{ 
 301              		.loc 1 235 0 discriminator 3
 302 0070 032C     		cmp	r4, #3
 303 0072 EFD1     		bne	.L19
 304              	.L18:
 241:Generated_Source\PSoC5/cyfitter_cfg.c **** 	{
 305              		.loc 1 241 0 is_stmt 1
 306 0074 15B9     		cbnz	r5, .L20
 243:Generated_Source\PSoC5/cyfitter_cfg.c **** 	}
 307              		.loc 1 243 0
 308 0076 0320     		movs	r0, #3
 309 0078 FFF7FEFF 		bl	CyClockStartupError
 310              	.LVL26:
 311              	.L20:
 247:Generated_Source\PSoC5/cyfitter_cfg.c **** 	CY_SET_XTND_REG8((void CYFAR *)(CYREG_CLKDIST_MSTR0), 0x07u);
 312              		.loc 1 247 0
ARM GAS  C:\Users\kcdasilv\AppData\Local\Temp\ccoUUPVU.s 			page 12


 313 007c 194B     		ldr	r3, .L22+32
 314 007e 4FF48072 		mov	r2, #256
 315 0082 1A80     		strh	r2, [r3]	@ movhi
 248:Generated_Source\PSoC5/cyfitter_cfg.c **** 	CY_SET_XTND_REG8((void CYFAR *)(CYREG_CLKDIST_BCFG0), 0x00u);
 316              		.loc 1 248 0
 317 0084 0722     		movs	r2, #7
 318 0086 1A70     		strb	r2, [r3]
 249:Generated_Source\PSoC5/cyfitter_cfg.c **** 	CY_SET_XTND_REG8((void CYFAR *)(CYREG_CLKDIST_BCFG2), 0x48u);
 319              		.loc 1 249 0
 320 0088 0022     		movs	r2, #0
 321 008a 1749     		ldr	r1, .L22+36
 322 008c 0A70     		strb	r2, [r1]
 250:Generated_Source\PSoC5/cyfitter_cfg.c **** 	CY_SET_XTND_REG8((void CYFAR *)(CYREG_CLKDIST_MSTR0), 0x00u);
 323              		.loc 1 250 0
 324 008e 4820     		movs	r0, #72
 325 0090 0231     		adds	r1, r1, #2
 326 0092 0870     		strb	r0, [r1]
 251:Generated_Source\PSoC5/cyfitter_cfg.c **** 	CY_SET_XTND_REG8((void CYFAR *)(CYREG_CLKDIST_LD), 0x02u);
 327              		.loc 1 251 0
 328 0094 1A70     		strb	r2, [r3]
 252:Generated_Source\PSoC5/cyfitter_cfg.c **** 	CY_SET_XTND_REG8((void CYFAR *)(CYREG_CLKDIST_DLY1), 0x04u);
 329              		.loc 1 252 0
 330 0096 0222     		movs	r2, #2
 331 0098 033B     		subs	r3, r3, #3
 332 009a 1A70     		strb	r2, [r3]
 253:Generated_Source\PSoC5/cyfitter_cfg.c **** 
 333              		.loc 1 253 0
 334 009c 0422     		movs	r2, #4
 335 009e 0A33     		adds	r3, r3, #10
 336 00a0 1A70     		strb	r2, [r3]
 255:Generated_Source\PSoC5/cyfitter_cfg.c **** 	CY_SET_XTND_REG8((void CYFAR *)(CYREG_PM_ACT_CFG1), ((CY_GET_XTND_REG8((void CYFAR *)CYREG_PM_ACT_
 337              		.loc 1 255 0
 338 00a2 124A     		ldr	r2, .L22+40
 339 00a4 1378     		ldrb	r3, [r2]	@ zero_extendqisi2
 340 00a6 43F00303 		orr	r3, r3, #3
 341 00aa 1370     		strb	r3, [r2]
 256:Generated_Source\PSoC5/cyfitter_cfg.c **** 	CY_SET_XTND_REG8((void CYFAR *)(CYREG_PM_ACT_CFG0), ((CY_GET_XTND_REG8((void CYFAR *)CYREG_PM_ACT_
 342              		.loc 1 256 0
 343 00ac 013A     		subs	r2, r2, #1
 344 00ae 1378     		ldrb	r3, [r2]	@ zero_extendqisi2
 345 00b0 43F00103 		orr	r3, r3, #1
 346 00b4 1370     		strb	r3, [r2]
 257:Generated_Source\PSoC5/cyfitter_cfg.c **** }
 347              		.loc 1 257 0
 348 00b6 013A     		subs	r2, r2, #1
 349 00b8 1378     		ldrb	r3, [r2]	@ zero_extendqisi2
 350 00ba 43F08003 		orr	r3, r3, #128
 351 00be 1370     		strb	r3, [r2]
 352 00c0 38BD     		pop	{r3, r4, r5, pc}
 353              	.LVL27:
 354              	.L23:
 355 00c2 00BF     		.align	2
 356              	.L22:
 357 00c4 80400040 		.word	1073758336
 358 00c8 00410040 		.word	1073758464
 359 00cc 48010048 		.word	1207959880
 360 00d0 00430040 		.word	1073758976
ARM GAS  C:\Users\kcdasilv\AppData\Local\Temp\ccoUUPVU.s 			page 13


 361 00d4 08010049 		.word	1224737032
 362 00d8 A1460040 		.word	1073759905
 363 00dc 22420040 		.word	1073758754
 364 00e0 25420040 		.word	1073758757
 365 00e4 04400040 		.word	1073758212
 366 00e8 06400040 		.word	1073758214
 367 00ec A2430040 		.word	1073759138
 368              		.cfi_endproc
 369              	.LFE5:
 370              		.size	ClockSetup, .-ClockSetup
 371              		.section	.text.SetAnalogRoutingPumps,"ax",%progbits
 372              		.align	2
 373              		.global	SetAnalogRoutingPumps
 374              		.thumb
 375              		.thumb_func
 376              		.type	SetAnalogRoutingPumps, %function
 377              	SetAnalogRoutingPumps:
 378              	.LFB7:
 288:Generated_Source\PSoC5/cyfitter_cfg.c **** }
 289:Generated_Source\PSoC5/cyfitter_cfg.c **** 
 290:Generated_Source\PSoC5/cyfitter_cfg.c **** 
 291:Generated_Source\PSoC5/cyfitter_cfg.c **** /*******************************************************************************
 292:Generated_Source\PSoC5/cyfitter_cfg.c **** * Function Name: SetAnalogRoutingPumps
 293:Generated_Source\PSoC5/cyfitter_cfg.c **** ********************************************************************************
 294:Generated_Source\PSoC5/cyfitter_cfg.c **** *
 295:Generated_Source\PSoC5/cyfitter_cfg.c **** * Summary:
 296:Generated_Source\PSoC5/cyfitter_cfg.c **** * Enables or disables the analog pumps feeding analog routing switches.
 297:Generated_Source\PSoC5/cyfitter_cfg.c **** * Intended to be called at startup, based on the Vdda system configuration;
 298:Generated_Source\PSoC5/cyfitter_cfg.c **** * may be called during operation when the user informs us that the Vdda voltage
 299:Generated_Source\PSoC5/cyfitter_cfg.c **** * crossed the pump threshold.
 300:Generated_Source\PSoC5/cyfitter_cfg.c **** *
 301:Generated_Source\PSoC5/cyfitter_cfg.c **** * Parameters:
 302:Generated_Source\PSoC5/cyfitter_cfg.c **** *  enabled - 1 to enable the pumps, 0 to disable the pumps
 303:Generated_Source\PSoC5/cyfitter_cfg.c **** *
 304:Generated_Source\PSoC5/cyfitter_cfg.c **** * Return:
 305:Generated_Source\PSoC5/cyfitter_cfg.c **** *  void
 306:Generated_Source\PSoC5/cyfitter_cfg.c **** *
 307:Generated_Source\PSoC5/cyfitter_cfg.c **** *******************************************************************************/
 308:Generated_Source\PSoC5/cyfitter_cfg.c **** void SetAnalogRoutingPumps(uint8 enabled)
 309:Generated_Source\PSoC5/cyfitter_cfg.c **** {
 379              		.loc 1 309 0
 380              		.cfi_startproc
 381              		@ args = 0, pretend = 0, frame = 0
 382              		@ frame_needed = 0, uses_anonymous_args = 0
 383              		@ link register save eliminated.
 384              	.LVL28:
 310:Generated_Source\PSoC5/cyfitter_cfg.c **** 	uint8 regValue = CY_GET_XTND_REG8((void CYFAR *)CYREG_PUMP_CR0);
 385              		.loc 1 310 0
 386 0000 054B     		ldr	r3, .L27
 387 0002 1B78     		ldrb	r3, [r3]	@ zero_extendqisi2
 388 0004 DBB2     		uxtb	r3, r3
 389              	.LVL29:
 311:Generated_Source\PSoC5/cyfitter_cfg.c **** 	if (enabled != 0u)
 390              		.loc 1 311 0
 391 0006 10B1     		cbz	r0, .L25
 312:Generated_Source\PSoC5/cyfitter_cfg.c **** 	{
 313:Generated_Source\PSoC5/cyfitter_cfg.c **** 		regValue |= 0x22u;
ARM GAS  C:\Users\kcdasilv\AppData\Local\Temp\ccoUUPVU.s 			page 14


 392              		.loc 1 313 0
 393 0008 43F02203 		orr	r3, r3, #34
 394              	.LVL30:
 395 000c 01E0     		b	.L26
 396              	.L25:
 314:Generated_Source\PSoC5/cyfitter_cfg.c **** 	}
 315:Generated_Source\PSoC5/cyfitter_cfg.c **** 	else
 316:Generated_Source\PSoC5/cyfitter_cfg.c **** 	{
 317:Generated_Source\PSoC5/cyfitter_cfg.c **** 		regValue &= (uint8)~0x22u;
 397              		.loc 1 317 0
 398 000e 03F0DD03 		and	r3, r3, #221
 399              	.LVL31:
 400              	.L26:
 318:Generated_Source\PSoC5/cyfitter_cfg.c **** 	}
 319:Generated_Source\PSoC5/cyfitter_cfg.c **** 	CY_SET_XTND_REG8((void CYFAR *)CYREG_PUMP_CR0, regValue);
 401              		.loc 1 319 0
 402 0012 014A     		ldr	r2, .L27
 403 0014 1370     		strb	r3, [r2]
 404 0016 7047     		bx	lr
 405              	.L28:
 406              		.align	2
 407              	.L27:
 408 0018 76580040 		.word	1073764470
 409              		.cfi_endproc
 410              	.LFE7:
 411              		.size	SetAnalogRoutingPumps, .-SetAnalogRoutingPumps
 412              		.section	.text.myADC_AMux_Set,"ax",%progbits
 413              		.align	2
 414              		.global	myADC_AMux_Set
 415              		.thumb
 416              		.thumb_func
 417              		.type	myADC_AMux_Set, %function
 418              	myADC_AMux_Set:
 419              	.LFB8:
 320:Generated_Source\PSoC5/cyfitter_cfg.c **** }
 321:Generated_Source\PSoC5/cyfitter_cfg.c **** 
 322:Generated_Source\PSoC5/cyfitter_cfg.c **** #define CY_AMUX_UNUSED CYREG_BOOST_SR
 323:Generated_Source\PSoC5/cyfitter_cfg.c **** /* This is an implementation detail of the AMux. Code that depends on it may be
 324:Generated_Source\PSoC5/cyfitter_cfg.c ****    incompatible with other versions of PSoC Creator. */
 325:Generated_Source\PSoC5/cyfitter_cfg.c **** uint8 CYXDATA * const CYCODE myADC_AMux__addrTable[2] = {
 326:Generated_Source\PSoC5/cyfitter_cfg.c **** 	(uint8 CYXDATA *)CYREG_DSM0_SW3, 
 327:Generated_Source\PSoC5/cyfitter_cfg.c **** 	(uint8 CYXDATA *)CY_AMUX_UNUSED, 
 328:Generated_Source\PSoC5/cyfitter_cfg.c **** };
 329:Generated_Source\PSoC5/cyfitter_cfg.c **** 
 330:Generated_Source\PSoC5/cyfitter_cfg.c **** /* This is an implementation detail of the AMux. Code that depends on it may be
 331:Generated_Source\PSoC5/cyfitter_cfg.c ****    incompatible with other versions of PSoC Creator. */
 332:Generated_Source\PSoC5/cyfitter_cfg.c **** const uint8 CYCODE myADC_AMux__maskTable[2] = {
 333:Generated_Source\PSoC5/cyfitter_cfg.c **** 	0x40u, 
 334:Generated_Source\PSoC5/cyfitter_cfg.c **** 	0x00u, 
 335:Generated_Source\PSoC5/cyfitter_cfg.c **** };
 336:Generated_Source\PSoC5/cyfitter_cfg.c **** 
 337:Generated_Source\PSoC5/cyfitter_cfg.c **** /*******************************************************************************
 338:Generated_Source\PSoC5/cyfitter_cfg.c **** * Function Name: myADC_AMux_Set
 339:Generated_Source\PSoC5/cyfitter_cfg.c **** ********************************************************************************
 340:Generated_Source\PSoC5/cyfitter_cfg.c **** * Summary:
 341:Generated_Source\PSoC5/cyfitter_cfg.c **** *  This function is used to set a particular channel as active on the AMux.
 342:Generated_Source\PSoC5/cyfitter_cfg.c **** *
ARM GAS  C:\Users\kcdasilv\AppData\Local\Temp\ccoUUPVU.s 			page 15


 343:Generated_Source\PSoC5/cyfitter_cfg.c **** * Parameters:  
 344:Generated_Source\PSoC5/cyfitter_cfg.c **** *   channel - The mux channel input to set as active
 345:Generated_Source\PSoC5/cyfitter_cfg.c **** *
 346:Generated_Source\PSoC5/cyfitter_cfg.c **** * Return:
 347:Generated_Source\PSoC5/cyfitter_cfg.c **** *   void
 348:Generated_Source\PSoC5/cyfitter_cfg.c **** *
 349:Generated_Source\PSoC5/cyfitter_cfg.c **** *******************************************************************************/
 350:Generated_Source\PSoC5/cyfitter_cfg.c **** void myADC_AMux_Set(uint8 channel)
 351:Generated_Source\PSoC5/cyfitter_cfg.c **** {
 420              		.loc 1 351 0
 421              		.cfi_startproc
 422              		@ args = 0, pretend = 0, frame = 0
 423              		@ frame_needed = 0, uses_anonymous_args = 0
 424              		@ link register save eliminated.
 425              	.LVL32:
 352:Generated_Source\PSoC5/cyfitter_cfg.c **** 	if (channel < 2)
 426              		.loc 1 352 0
 427 0000 0128     		cmp	r0, #1
 428 0002 07D8     		bhi	.L29
 353:Generated_Source\PSoC5/cyfitter_cfg.c **** 	{
 354:Generated_Source\PSoC5/cyfitter_cfg.c **** 		*myADC_AMux__addrTable[channel] |= myADC_AMux__maskTable[channel];
 429              		.loc 1 354 0
 430 0004 044B     		ldr	r3, .L31
 431 0006 53F82020 		ldr	r2, [r3, r0, lsl #2]
 432 000a 1844     		add	r0, r0, r3
 433              	.LVL33:
 434 000c 017A     		ldrb	r1, [r0, #8]	@ zero_extendqisi2
 435 000e 1378     		ldrb	r3, [r2]	@ zero_extendqisi2
 436 0010 0B43     		orrs	r3, r3, r1
 437 0012 1370     		strb	r3, [r2]
 438              	.L29:
 439 0014 7047     		bx	lr
 440              	.L32:
 441 0016 00BF     		.align	2
 442              	.L31:
 443 0018 00000000 		.word	.LANCHOR0
 444              		.cfi_endproc
 445              	.LFE8:
 446              		.size	myADC_AMux_Set, .-myADC_AMux_Set
 447              		.section	.text.myADC_AMux_Unset,"ax",%progbits
 448              		.align	2
 449              		.global	myADC_AMux_Unset
 450              		.thumb
 451              		.thumb_func
 452              		.type	myADC_AMux_Unset, %function
 453              	myADC_AMux_Unset:
 454              	.LFB9:
 355:Generated_Source\PSoC5/cyfitter_cfg.c **** 	}
 356:Generated_Source\PSoC5/cyfitter_cfg.c **** }
 357:Generated_Source\PSoC5/cyfitter_cfg.c **** 
 358:Generated_Source\PSoC5/cyfitter_cfg.c **** /*******************************************************************************
 359:Generated_Source\PSoC5/cyfitter_cfg.c **** * Function Name: myADC_AMux_Unset
 360:Generated_Source\PSoC5/cyfitter_cfg.c **** ********************************************************************************
 361:Generated_Source\PSoC5/cyfitter_cfg.c **** * Summary:
 362:Generated_Source\PSoC5/cyfitter_cfg.c **** *  This function is used to clear a particular channel from being active on the
 363:Generated_Source\PSoC5/cyfitter_cfg.c **** *  AMux.
 364:Generated_Source\PSoC5/cyfitter_cfg.c **** *
ARM GAS  C:\Users\kcdasilv\AppData\Local\Temp\ccoUUPVU.s 			page 16


 365:Generated_Source\PSoC5/cyfitter_cfg.c **** * Parameters:  
 366:Generated_Source\PSoC5/cyfitter_cfg.c **** *   channel - The mux channel input to mark inactive
 367:Generated_Source\PSoC5/cyfitter_cfg.c **** *
 368:Generated_Source\PSoC5/cyfitter_cfg.c **** * Return:
 369:Generated_Source\PSoC5/cyfitter_cfg.c **** *   void
 370:Generated_Source\PSoC5/cyfitter_cfg.c **** *
 371:Generated_Source\PSoC5/cyfitter_cfg.c **** *******************************************************************************/
 372:Generated_Source\PSoC5/cyfitter_cfg.c **** void myADC_AMux_Unset(uint8 channel)
 373:Generated_Source\PSoC5/cyfitter_cfg.c **** {
 455              		.loc 1 373 0
 456              		.cfi_startproc
 457              		@ args = 0, pretend = 0, frame = 0
 458              		@ frame_needed = 0, uses_anonymous_args = 0
 459              		@ link register save eliminated.
 460              	.LVL34:
 374:Generated_Source\PSoC5/cyfitter_cfg.c **** 	if (channel < 2)
 461              		.loc 1 374 0
 462 0000 0128     		cmp	r0, #1
 463 0002 08D8     		bhi	.L33
 375:Generated_Source\PSoC5/cyfitter_cfg.c **** 	{
 376:Generated_Source\PSoC5/cyfitter_cfg.c **** 		*myADC_AMux__addrTable[channel] &= (uint8)~myADC_AMux__maskTable[channel];
 464              		.loc 1 376 0
 465 0004 044B     		ldr	r3, .L35
 466 0006 53F82020 		ldr	r2, [r3, r0, lsl #2]
 467 000a 1844     		add	r0, r0, r3
 468              	.LVL35:
 469 000c 017A     		ldrb	r1, [r0, #8]	@ zero_extendqisi2
 470 000e 1378     		ldrb	r3, [r2]	@ zero_extendqisi2
 471 0010 23EA0103 		bic	r3, r3, r1
 472 0014 1370     		strb	r3, [r2]
 473              	.L33:
 474 0016 7047     		bx	lr
 475              	.L36:
 476              		.align	2
 477              	.L35:
 478 0018 00000000 		.word	.LANCHOR0
 479              		.cfi_endproc
 480              	.LFE9:
 481              		.size	myADC_AMux_Unset, .-myADC_AMux_Unset
 482              		.section	.text.cyfitter_cfg,"ax",%progbits
 483              		.align	2
 484              		.global	cyfitter_cfg
 485              		.thumb
 486              		.thumb_func
 487              		.type	cyfitter_cfg, %function
 488              	cyfitter_cfg:
 489              	.LFB10:
 377:Generated_Source\PSoC5/cyfitter_cfg.c **** 	}
 378:Generated_Source\PSoC5/cyfitter_cfg.c **** }
 379:Generated_Source\PSoC5/cyfitter_cfg.c **** 
 380:Generated_Source\PSoC5/cyfitter_cfg.c **** 
 381:Generated_Source\PSoC5/cyfitter_cfg.c **** 
 382:Generated_Source\PSoC5/cyfitter_cfg.c **** /*******************************************************************************
 383:Generated_Source\PSoC5/cyfitter_cfg.c **** * Function Name: cyfitter_cfg
 384:Generated_Source\PSoC5/cyfitter_cfg.c **** ********************************************************************************
 385:Generated_Source\PSoC5/cyfitter_cfg.c **** * Summary:
 386:Generated_Source\PSoC5/cyfitter_cfg.c **** *  This function is called by the start-up code for the selected device. It
ARM GAS  C:\Users\kcdasilv\AppData\Local\Temp\ccoUUPVU.s 			page 17


 387:Generated_Source\PSoC5/cyfitter_cfg.c **** *  performs all of the necessary device configuration based on the design
 388:Generated_Source\PSoC5/cyfitter_cfg.c **** *  settings.  This includes settings from the Design Wide Resources (DWR) such
 389:Generated_Source\PSoC5/cyfitter_cfg.c **** *  as Clocks and Pins as well as any component configuration that is necessary.
 390:Generated_Source\PSoC5/cyfitter_cfg.c **** *
 391:Generated_Source\PSoC5/cyfitter_cfg.c **** * Parameters:  
 392:Generated_Source\PSoC5/cyfitter_cfg.c **** *   void
 393:Generated_Source\PSoC5/cyfitter_cfg.c **** *
 394:Generated_Source\PSoC5/cyfitter_cfg.c **** * Return:
 395:Generated_Source\PSoC5/cyfitter_cfg.c **** *   void
 396:Generated_Source\PSoC5/cyfitter_cfg.c **** *
 397:Generated_Source\PSoC5/cyfitter_cfg.c **** *******************************************************************************/
 398:Generated_Source\PSoC5/cyfitter_cfg.c **** 
 399:Generated_Source\PSoC5/cyfitter_cfg.c **** void cyfitter_cfg(void)
 400:Generated_Source\PSoC5/cyfitter_cfg.c **** {
 490              		.loc 1 400 0
 491              		.cfi_startproc
 492              		@ args = 0, pretend = 0, frame = 0
 493              		@ frame_needed = 0, uses_anonymous_args = 0
 494 0000 38B5     		push	{r3, r4, r5, lr}
 495              		.cfi_def_cfa_offset 16
 496              		.cfi_offset 3, -16
 497              		.cfi_offset 4, -12
 498              		.cfi_offset 5, -8
 499              		.cfi_offset 14, -4
 401:Generated_Source\PSoC5/cyfitter_cfg.c **** #ifdef CYGlobalIntDisable
 402:Generated_Source\PSoC5/cyfitter_cfg.c **** 	/* Disable interrupts by default. Let user enable if/when they want. */
 403:Generated_Source\PSoC5/cyfitter_cfg.c **** 	CYGlobalIntDisable
 500              		.loc 1 403 0
 501              	@ 403 "Generated_Source\PSoC5\cyfitter_cfg.c" 1
 502 0002 72B6     		CPSID   i
 503              	@ 0 "" 2
 404:Generated_Source\PSoC5/cyfitter_cfg.c **** #endif
 405:Generated_Source\PSoC5/cyfitter_cfg.c **** 
 406:Generated_Source\PSoC5/cyfitter_cfg.c **** 	/* Enable/Disable Debug functionality based on settings from System DWR */
 407:Generated_Source\PSoC5/cyfitter_cfg.c **** 	CY_SET_XTND_REG8((void CYFAR *)CYREG_MLOGIC_DEBUG, (CY_GET_XTND_REG8((void CYFAR *)CYREG_MLOGIC_DE
 504              		.loc 1 407 0
 505              		.thumb
 506 0004 294A     		ldr	r2, .L41
 507 0006 1378     		ldrb	r3, [r2]	@ zero_extendqisi2
 508 0008 43F00403 		orr	r3, r3, #4
 509 000c 1370     		strb	r3, [r2]
 510              	.LVL36:
 511              	.LBB3:
 408:Generated_Source\PSoC5/cyfitter_cfg.c **** 
 409:Generated_Source\PSoC5/cyfitter_cfg.c **** 	{
 410:Generated_Source\PSoC5/cyfitter_cfg.c **** 
 411:Generated_Source\PSoC5/cyfitter_cfg.c **** 		CYPACKED typedef struct {
 412:Generated_Source\PSoC5/cyfitter_cfg.c **** 			void CYFAR *address;
 413:Generated_Source\PSoC5/cyfitter_cfg.c **** 			uint16 size;
 414:Generated_Source\PSoC5/cyfitter_cfg.c **** 		} CYPACKED_ATTR cfg_memset_t;
 415:Generated_Source\PSoC5/cyfitter_cfg.c **** 
 416:Generated_Source\PSoC5/cyfitter_cfg.c **** 		static const cfg_memset_t CYCODE cfg_memset_list [] = {
 417:Generated_Source\PSoC5/cyfitter_cfg.c **** 			/* address, size */
 418:Generated_Source\PSoC5/cyfitter_cfg.c **** 			{(void CYFAR *)(CYREG_PRT2_DR), 80u},
 419:Generated_Source\PSoC5/cyfitter_cfg.c **** 			{(void CYFAR *)(CYREG_PRT12_DR), 16u},
 420:Generated_Source\PSoC5/cyfitter_cfg.c **** 			{(void CYFAR *)(CYREG_PRT15_DR), 16u},
 421:Generated_Source\PSoC5/cyfitter_cfg.c **** 			{(void CYFAR *)(CYDEV_UCFG_B0_P0_U0_BASE), 4096u},
ARM GAS  C:\Users\kcdasilv\AppData\Local\Temp\ccoUUPVU.s 			page 18


 422:Generated_Source\PSoC5/cyfitter_cfg.c **** 			{(void CYFAR *)(CYDEV_UCFG_B1_P2_U0_BASE), 2048u},
 423:Generated_Source\PSoC5/cyfitter_cfg.c **** 			{(void CYFAR *)(CYDEV_UCFG_DSI0_BASE), 2560u},
 424:Generated_Source\PSoC5/cyfitter_cfg.c **** 			{(void CYFAR *)(CYDEV_UCFG_DSI12_BASE), 512u},
 425:Generated_Source\PSoC5/cyfitter_cfg.c **** 			{(void CYFAR *)(CYREG_BCTL0_MDCLK_EN), 32u},
 426:Generated_Source\PSoC5/cyfitter_cfg.c **** 		};
 427:Generated_Source\PSoC5/cyfitter_cfg.c **** 
 428:Generated_Source\PSoC5/cyfitter_cfg.c **** 		uint8 CYDATA i;
 429:Generated_Source\PSoC5/cyfitter_cfg.c **** 
 430:Generated_Source\PSoC5/cyfitter_cfg.c **** 		/* Zero out critical memory blocks before beginning configuration */
 431:Generated_Source\PSoC5/cyfitter_cfg.c **** 		for (i = 0u; i < (sizeof(cfg_memset_list)/sizeof(cfg_memset_list[0])); i++)
 512              		.loc 1 431 0
 513 000e 0024     		movs	r4, #0
 514 0010 0AE0     		b	.L38
 515              	.LVL37:
 516              	.L39:
 517              	.LBB4:
 432:Generated_Source\PSoC5/cyfitter_cfg.c **** 		{
 433:Generated_Source\PSoC5/cyfitter_cfg.c **** 			const cfg_memset_t CYCODE * CYDATA ms = &cfg_memset_list[i];
 434:Generated_Source\PSoC5/cyfitter_cfg.c **** 			CYMEMZERO(ms->address, (size_t)(uint32)(ms->size));
 518              		.loc 1 434 0 discriminator 3
 519 0012 2749     		ldr	r1, .L41+4
 520 0014 6300     		lsls	r3, r4, #1
 521 0016 1A19     		adds	r2, r3, r4
 522 0018 5200     		lsls	r2, r2, #1
 523 001a 0A44     		add	r2, r2, r1
 524 001c D068     		ldr	r0, [r2, #12]	@ unaligned
 525 001e 118A     		ldrh	r1, [r2, #16]
 526 0020 FFF7FEFF 		bl	CYMEMZERO
 527              	.LVL38:
 528              	.LBE4:
 431:Generated_Source\PSoC5/cyfitter_cfg.c **** 		{
 529              		.loc 1 431 0 discriminator 3
 530 0024 0134     		adds	r4, r4, #1
 531              	.LVL39:
 532 0026 E4B2     		uxtb	r4, r4
 533              	.LVL40:
 534              	.L38:
 431:Generated_Source\PSoC5/cyfitter_cfg.c **** 		{
 535              		.loc 1 431 0 is_stmt 0 discriminator 1
 536 0028 072C     		cmp	r4, #7
 537 002a F2D9     		bls	.L39
 435:Generated_Source\PSoC5/cyfitter_cfg.c **** 		}
 436:Generated_Source\PSoC5/cyfitter_cfg.c **** 
 437:Generated_Source\PSoC5/cyfitter_cfg.c **** 		cfg_write_bytes32(cy_cfg_addr_table, cy_cfg_data_table);
 538              		.loc 1 437 0 is_stmt 1
 539 002c 4FF09040 		mov	r0, #1207959552
 540 0030 2049     		ldr	r1, .L41+8
 541 0032 FFF7FEFF 		bl	cfg_write_bytes32
 542              	.LVL41:
 438:Generated_Source\PSoC5/cyfitter_cfg.c **** 
 439:Generated_Source\PSoC5/cyfitter_cfg.c **** 		/* Perform normal device configuration. Order is not critical for these items. */
 440:Generated_Source\PSoC5/cyfitter_cfg.c **** 		CY_SET_XTND_REG8((void CYFAR *)(CYREG_DSM0_CR3), 0x0Au);
 543              		.loc 1 440 0
 544 0036 0A22     		movs	r2, #10
 545 0038 1F4B     		ldr	r3, .L41+12
 546 003a 1A70     		strb	r2, [r3]
 441:Generated_Source\PSoC5/cyfitter_cfg.c **** 
ARM GAS  C:\Users\kcdasilv\AppData\Local\Temp\ccoUUPVU.s 			page 19


 442:Generated_Source\PSoC5/cyfitter_cfg.c **** 		/* Enable digital routing */
 443:Generated_Source\PSoC5/cyfitter_cfg.c **** 		CY_SET_XTND_REG8((void CYFAR *)CYREG_BCTL0_BANK_CTL, CY_GET_XTND_REG8((void CYFAR *)CYREG_BCTL0_B
 547              		.loc 1 443 0
 548 003c 1F4A     		ldr	r2, .L41+16
 549 003e 1378     		ldrb	r3, [r2]	@ zero_extendqisi2
 550 0040 43F00203 		orr	r3, r3, #2
 551 0044 1370     		strb	r3, [r2]
 444:Generated_Source\PSoC5/cyfitter_cfg.c **** 		CY_SET_XTND_REG8((void CYFAR *)CYREG_BCTL1_BANK_CTL, CY_GET_XTND_REG8((void CYFAR *)CYREG_BCTL1_B
 552              		.loc 1 444 0
 553 0046 1032     		adds	r2, r2, #16
 554 0048 1378     		ldrb	r3, [r2]	@ zero_extendqisi2
 555 004a 43F00203 		orr	r3, r3, #2
 556 004e 1370     		strb	r3, [r2]
 445:Generated_Source\PSoC5/cyfitter_cfg.c **** 
 446:Generated_Source\PSoC5/cyfitter_cfg.c **** 		/* Enable UDB array */
 447:Generated_Source\PSoC5/cyfitter_cfg.c **** 		CY_SET_XTND_REG8((void CYFAR *)CYREG_PM_ACT_CFG0, CY_GET_XTND_REG8((void CYFAR *)CYREG_PM_ACT_CFG
 557              		.loc 1 447 0
 558 0050 1B4C     		ldr	r4, .L41+20
 559              	.LVL42:
 560 0052 2378     		ldrb	r3, [r4]	@ zero_extendqisi2
 561 0054 43F04003 		orr	r3, r3, #64
 562 0058 2370     		strb	r3, [r4]
 448:Generated_Source\PSoC5/cyfitter_cfg.c **** 		CY_SET_XTND_REG8((void CYFAR *)CYREG_PM_AVAIL_CR2, CY_GET_XTND_REG8((void CYFAR *)CYREG_PM_AVAIL_
 563              		.loc 1 448 0
 564 005a A2F58632 		sub	r2, r2, #68608
 565 005e 513A     		subs	r2, r2, #81
 566 0060 1378     		ldrb	r3, [r2]	@ zero_extendqisi2
 567 0062 43F01003 		orr	r3, r3, #16
 568 0066 1370     		strb	r3, [r2]
 569              	.LBE3:
 449:Generated_Source\PSoC5/cyfitter_cfg.c **** 	}
 450:Generated_Source\PSoC5/cyfitter_cfg.c **** 
 451:Generated_Source\PSoC5/cyfitter_cfg.c **** 
 452:Generated_Source\PSoC5/cyfitter_cfg.c **** 	/* Perform second pass device configuration. These items must be configured in specific order afte
 453:Generated_Source\PSoC5/cyfitter_cfg.c **** 	CYCONFIGCPY((void CYFAR *)(CYREG_PRT0_DM0), (const void CYFAR *)(BS_IOPINS0_0_VAL), 8u);
 570              		.loc 1 453 0
 571 0068 1648     		ldr	r0, .L41+24
 572 006a 1749     		ldr	r1, .L41+28
 573 006c 0822     		movs	r2, #8
 574 006e FFF7FEFF 		bl	CYCONFIGCPY
 575              	.LVL43:
 454:Generated_Source\PSoC5/cyfitter_cfg.c **** 	CYCONFIGCPY((void CYFAR *)(CYREG_PRT1_DM0), (const void CYFAR *)(BS_IOPINS0_1_VAL), 8u);
 576              		.loc 1 454 0
 577 0072 1648     		ldr	r0, .L41+32
 578 0074 1649     		ldr	r1, .L41+36
 579 0076 0822     		movs	r2, #8
 580 0078 FFF7FEFF 		bl	CYCONFIGCPY
 581              	.LVL44:
 455:Generated_Source\PSoC5/cyfitter_cfg.c **** 	/* Switch Boost to the precision bandgap reference from its internal reference */
 456:Generated_Source\PSoC5/cyfitter_cfg.c **** 	CY_SET_REG8((void CYXDATA *)CYREG_BOOST_CR2, (CY_GET_REG8((void CYXDATA *)CYREG_BOOST_CR2) | 0x08u
 582              		.loc 1 456 0
 583 007c 154A     		ldr	r2, .L41+40
 584 007e 1378     		ldrb	r3, [r2]	@ zero_extendqisi2
 585 0080 43F00803 		orr	r3, r3, #8
 586 0084 1370     		strb	r3, [r2]
 457:Generated_Source\PSoC5/cyfitter_cfg.c **** 
 458:Generated_Source\PSoC5/cyfitter_cfg.c **** 	/* Set Flash Cycles based on max possible frequency in case a glitch occurs during ClockSetup(). *
ARM GAS  C:\Users\kcdasilv\AppData\Local\Temp\ccoUUPVU.s 			page 20


 459:Generated_Source\PSoC5/cyfitter_cfg.c **** 	CY_SET_XTND_REG8((void CYFAR *)(CYREG_CACHE_CC_CTL), (((CYDEV_INSTRUCT_CACHE_ENABLED) != 0) ? 0x61
 587              		.loc 1 459 0
 588 0086 144D     		ldr	r5, .L41+44
 589 0088 6123     		movs	r3, #97
 590 008a 2B70     		strb	r3, [r5]
 460:Generated_Source\PSoC5/cyfitter_cfg.c **** 	/* Setup clocks based on selections from Clock DWR */
 461:Generated_Source\PSoC5/cyfitter_cfg.c **** 	ClockSetup();
 591              		.loc 1 461 0
 592 008c FFF7FEFF 		bl	ClockSetup
 593              	.LVL45:
 462:Generated_Source\PSoC5/cyfitter_cfg.c **** 	/* Set Flash Cycles based on newly configured 24.00MHz Bus Clock. */
 463:Generated_Source\PSoC5/cyfitter_cfg.c **** 	CY_SET_XTND_REG8((void CYFAR *)(CYREG_CACHE_CC_CTL), (((CYDEV_INSTRUCT_CACHE_ENABLED) != 0) ? 0x81
 594              		.loc 1 463 0
 595 0090 8123     		movs	r3, #129
 596 0092 2B70     		strb	r3, [r5]
 464:Generated_Source\PSoC5/cyfitter_cfg.c **** 	CY_SET_XTND_REG8((void CYFAR *)(CYREG_PANTHER_WAITPIPE), 0x01u);
 597              		.loc 1 464 0
 598 0094 0122     		movs	r2, #1
 599 0096 114B     		ldr	r3, .L41+48
 600 0098 1A70     		strb	r2, [r3]
 465:Generated_Source\PSoC5/cyfitter_cfg.c **** 
 466:Generated_Source\PSoC5/cyfitter_cfg.c **** 	/* Perform basic analog initialization to defaults */
 467:Generated_Source\PSoC5/cyfitter_cfg.c **** 	AnalogSetDefault();
 601              		.loc 1 467 0
 602 009a FFF7FEFF 		bl	AnalogSetDefault
 603              	.LVL46:
 468:Generated_Source\PSoC5/cyfitter_cfg.c **** 
 469:Generated_Source\PSoC5/cyfitter_cfg.c **** 	/* Configure alternate active mode */
 470:Generated_Source\PSoC5/cyfitter_cfg.c **** 	CYCONFIGCPY((void CYFAR *)CYDEV_PM_STBY_BASE, (const void CYFAR *)CYDEV_PM_ACT_BASE, 14u);
 604              		.loc 1 470 0
 605 009e 1048     		ldr	r0, .L41+52
 606 00a0 2146     		mov	r1, r4
 607 00a2 0E22     		movs	r2, #14
 608 00a4 FFF7FEFF 		bl	CYCONFIGCPY
 609              	.LVL47:
 610 00a8 38BD     		pop	{r3, r4, r5, pc}
 611              	.L42:
 612 00aa 00BF     		.align	2
 613              	.L41:
 614 00ac E8460040 		.word	1073759976
 615 00b0 00000000 		.word	.LANCHOR0
 616 00b4 40000048 		.word	1207959616
 617 00b8 83580040 		.word	1073764483
 618 00bc 03500140 		.word	1073827843
 619 00c0 A0430040 		.word	1073759136
 620 00c4 02510040 		.word	1073762562
 621 00c8 38010048 		.word	1207959864
 622 00cc 12510040 		.word	1073762578
 623 00d0 40010048 		.word	1207959872
 624 00d4 22430040 		.word	1073759010
 625 00d8 00480040 		.word	1073760256
 626 00dc 04000840 		.word	1074266116
 627 00e0 B0430040 		.word	1073759152
 628              		.cfi_endproc
 629              	.LFE10:
 630              		.size	cyfitter_cfg, .-cyfitter_cfg
 631              		.global	myADC_AMux__maskTable
ARM GAS  C:\Users\kcdasilv\AppData\Local\Temp\ccoUUPVU.s 			page 21


 632              		.global	myADC_AMux__addrTable
 633              		.section	.rodata
 634              		.align	2
 635              		.set	.LANCHOR0,. + 0
 636              		.type	myADC_AMux__addrTable, %object
 637              		.size	myADC_AMux__addrTable, 8
 638              	myADC_AMux__addrTable:
 639 0000 035B0040 		.word	1073765123
 640 0004 24430040 		.word	1073759012
 641              		.type	myADC_AMux__maskTable, %object
 642              		.size	myADC_AMux__maskTable, 2
 643              	myADC_AMux__maskTable:
 644 0008 40       		.byte	64
 645 0009 00       		.byte	0
 646 000a 0000     		.space	2
 647              		.type	cfg_memset_list.4894, %object
 648              		.size	cfg_memset_list.4894, 48
 649              	cfg_memset_list.4894:
 650 000c 20510040 		.word	1073762592
 651 0010 5000     		.short	80
 652 0012 C0510040 		.4byte	1073762752
 653 0016 1000     		.short	16
 654 0018 F0510040 		.word	1073762800
 655 001c 1000     		.short	16
 656 001e 00000140 		.4byte	1073807360
 657 0022 0010     		.short	4096
 658 0024 00140140 		.word	1073812480
 659 0028 0008     		.short	2048
 660 002a 00400140 		.4byte	1073823744
 661 002e 000A     		.short	2560
 662 0030 004C0140 		.word	1073826816
 663 0034 0002     		.short	512
 664 0036 00500140 		.4byte	1073827840
 665 003a 2000     		.short	32
 666              		.text
 667              	.Letext0:
 668              		.file 2 "c:\\program files (x86)\\cypress\\psoc creator\\4.0\\psoc creator\\import\\gnu\\arm\\4.9.
 669              		.file 3 "Generated_Source\\PSoC5\\cytypes.h"
 670              		.file 4 "Generated_Source\\PSoC5\\CyLib.h"
