Archive member included because of file (symbol)

.\CortexM3\ARM_GCC_493\Debug\Design02.a(cyfitter_cfg.o)
                              .\CortexM3\ARM_GCC_493\Debug\Cm3Start.o (cyfitter_cfg)
.\CortexM3\ARM_GCC_493\Debug\Design02.a(myADC.o)
                              .\CortexM3\ARM_GCC_493\Debug\main.o (myADC_Start)
.\CortexM3\ARM_GCC_493\Debug\Design02.a(myADC_INT.o)
                              .\CortexM3\ARM_GCC_493\Debug\Design02.a(myADC.o) (myADC_ISR1)
.\CortexM3\ARM_GCC_493\Debug\Design02.a(myPWM.o)
                              .\CortexM3\ARM_GCC_493\Debug\main.o (myPWM_Enable)
.\CortexM3\ARM_GCC_493\Debug\Design02.a(myADC_AMux.o)
                              .\CortexM3\ARM_GCC_493\Debug\Design02.a(myADC.o) (myADC_AMux_Select)
.\CortexM3\ARM_GCC_493\Debug\Design02.a(myADC_Ext_CP_Clk.o)
                              .\CortexM3\ARM_GCC_493\Debug\Design02.a(myADC.o) (myADC_Ext_CP_Clk_SetModeRegister)
.\CortexM3\ARM_GCC_493\Debug\Design02.a(myADC_theACLK.o)
                              .\CortexM3\ARM_GCC_493\Debug\Design02.a(myADC.o) (myADC_theACLK_SetModeRegister)
.\CortexM3\ARM_GCC_493\Debug\Design02.a(CyLib.o)
                              .\CortexM3\ARM_GCC_493\Debug\Cm3Start.o (CyHalt)
.\CortexM3\ARM_GCC_493\Debug\Design02.a(cyPm.o)
                              .\CortexM3\ARM_GCC_493\Debug\Design02.a(CyLib.o) (CyPmReadStatus)
.\CortexM3\ARM_GCC_493\Debug\Design02.a(CyBootAsmGnu.o)
                              .\CortexM3\ARM_GCC_493\Debug\Design02.a(cyfitter_cfg.o) (CyDelayCycles)
.\CortexM3\ARM_GCC_493\Debug\Design02.a(CyFlash.o)
                              .\CortexM3\ARM_GCC_493\Debug\Design02.a(cyPm.o) (CyFlash_SetWaitCycles)
.\CortexM3\ARM_GCC_493\Debug\Design02.a(CySpc.o)
                              .\CortexM3\ARM_GCC_493\Debug\Design02.a(CyFlash.o) (CySpcStart)
c:/program files (x86)/cypress/psoc creator/4.0/psoc creator/import/gnu/arm/4.9.3/bin/../lib/gcc/arm-none-eabi/4.9.3/armv7-m\libgcc.a(_arm_addsubdf3.o)
                              .\CortexM3\ARM_GCC_493\Debug\Design02.a(myADC.o) (__aeabi_f2d)
c:/program files (x86)/cypress/psoc creator/4.0/psoc creator/import/gnu/arm/4.9.3/bin/../lib/gcc/arm-none-eabi/4.9.3/armv7-m\libgcc.a(_arm_cmpdf2.o)
                              .\CortexM3\ARM_GCC_493\Debug\Design02.a(myADC.o) (__aeabi_dcmpgt)
c:/program files (x86)/cypress/psoc creator/4.0/psoc creator/import/gnu/arm/4.9.3/bin/../lib/gcc/arm-none-eabi/4.9.3/armv7-m\libgcc.a(_arm_addsubsf3.o)
                              .\CortexM3\ARM_GCC_493\Debug\Design02.a(myADC.o) (__aeabi_ui2f)
c:/program files (x86)/cypress/psoc creator/4.0/psoc creator/import/gnu/arm/4.9.3/bin/../lib/gcc/arm-none-eabi/4.9.3/armv7-m\libgcc.a(_arm_muldivsf3.o)
                              .\CortexM3\ARM_GCC_493\Debug\Design02.a(myADC.o) (__aeabi_fmul)
c:/program files (x86)/cypress/psoc creator/4.0/psoc creator/import/gnu/arm/4.9.3/bin/../lib/gcc/arm-none-eabi/4.9.3/armv7-m\libgcc.a(_arm_fixunssfsi.o)
                              .\CortexM3\ARM_GCC_493\Debug\Design02.a(myADC.o) (__aeabi_f2uiz)
c:/program files (x86)/cypress/psoc creator/4.0/psoc creator/import/gnu/arm/4.9.3/bin/../lib/gcc/arm-none-eabi/4.9.3/../../../../arm-none-eabi/lib/armv7-m\libg_nano.a(lib_a-errno.o)
                              .\CortexM3\ARM_GCC_493\Debug\Cm3Start.o (__errno)
c:/program files (x86)/cypress/psoc creator/4.0/psoc creator/import/gnu/arm/4.9.3/bin/../lib/gcc/arm-none-eabi/4.9.3/../../../../arm-none-eabi/lib/armv7-m\libg_nano.a(lib_a-exit.o)
                              c:/program files (x86)/cypress/psoc creator/4.0/psoc creator/import/gnu/arm/4.9.3/bin/../lib/gcc/arm-none-eabi/4.9.3/../../../../arm-none-eabi/lib/armv7-m/crt0.o (exit)
c:/program files (x86)/cypress/psoc creator/4.0/psoc creator/import/gnu/arm/4.9.3/bin/../lib/gcc/arm-none-eabi/4.9.3/../../../../arm-none-eabi/lib/armv7-m\libg_nano.a(lib_a-impure.o)
                              c:/program files (x86)/cypress/psoc creator/4.0/psoc creator/import/gnu/arm/4.9.3/bin/../lib/gcc/arm-none-eabi/4.9.3/../../../../arm-none-eabi/lib/armv7-m\libg_nano.a(lib_a-exit.o) (_global_impure_ptr)
c:/program files (x86)/cypress/psoc creator/4.0/psoc creator/import/gnu/arm/4.9.3/bin/../lib/gcc/arm-none-eabi/4.9.3/../../../../arm-none-eabi/lib/armv7-m\libg_nano.a(lib_a-init.o)
                              c:/program files (x86)/cypress/psoc creator/4.0/psoc creator/import/gnu/arm/4.9.3/bin/../lib/gcc/arm-none-eabi/4.9.3/../../../../arm-none-eabi/lib/armv7-m/crt0.o (__libc_init_array)
c:/program files (x86)/cypress/psoc creator/4.0/psoc creator/import/gnu/arm/4.9.3/bin/../lib/gcc/arm-none-eabi/4.9.3/../../../../arm-none-eabi/lib/armv7-m\libg_nano.a(lib_a-memcpy.o)
                              .\CortexM3\ARM_GCC_493\Debug\Design02.a(cyfitter_cfg.o) (memcpy)
c:/program files (x86)/cypress/psoc creator/4.0/psoc creator/import/gnu/arm/4.9.3/bin/../lib/gcc/arm-none-eabi/4.9.3/../../../../arm-none-eabi/lib/armv7-m\libg_nano.a(lib_a-memset.o)
                              c:/program files (x86)/cypress/psoc creator/4.0/psoc creator/import/gnu/arm/4.9.3/bin/../lib/gcc/arm-none-eabi/4.9.3/../../../../arm-none-eabi/lib/armv7-m/crt0.o (memset)

Allocating common symbols
Common symbol       size              file

myADC_Offset        0x4               .\CortexM3\ARM_GCC_493\Debug\Design02.a(myADC.o)
myADC_CountsPerVolt
                    0x4               .\CortexM3\ARM_GCC_493\Debug\Design02.a(myADC.o)
dieTemperature      0x2               .\CortexM3\ARM_GCC_493\Debug\Design02.a(CyFlash.o)

Discarded input sections

 .text          0x00000000        0x0 c:/program files (x86)/cypress/psoc creator/4.0/psoc creator/import/gnu/arm/4.9.3/bin/../lib/gcc/arm-none-eabi/4.9.3/armv7-m/crti.o
 .data          0x00000000        0x0 c:/program files (x86)/cypress/psoc creator/4.0/psoc creator/import/gnu/arm/4.9.3/bin/../lib/gcc/arm-none-eabi/4.9.3/armv7-m/crti.o
 .bss           0x00000000        0x0 c:/program files (x86)/cypress/psoc creator/4.0/psoc creator/import/gnu/arm/4.9.3/bin/../lib/gcc/arm-none-eabi/4.9.3/armv7-m/crti.o
 .data          0x00000000        0x4 c:/program files (x86)/cypress/psoc creator/4.0/psoc creator/import/gnu/arm/4.9.3/bin/../lib/gcc/arm-none-eabi/4.9.3/armv7-m/crtbegin.o
 .text          0x00000000       0x74 c:/program files (x86)/cypress/psoc creator/4.0/psoc creator/import/gnu/arm/4.9.3/bin/../lib/gcc/arm-none-eabi/4.9.3/../../../../arm-none-eabi/lib/armv7-m/crt0.o
 .data          0x00000000        0x0 c:/program files (x86)/cypress/psoc creator/4.0/psoc creator/import/gnu/arm/4.9.3/bin/../lib/gcc/arm-none-eabi/4.9.3/../../../../arm-none-eabi/lib/armv7-m/crt0.o
 .bss           0x00000000        0x0 c:/program files (x86)/cypress/psoc creator/4.0/psoc creator/import/gnu/arm/4.9.3/bin/../lib/gcc/arm-none-eabi/4.9.3/../../../../arm-none-eabi/lib/armv7-m/crt0.o
 .ARM.extab     0x00000000        0x0 c:/program files (x86)/cypress/psoc creator/4.0/psoc creator/import/gnu/arm/4.9.3/bin/../lib/gcc/arm-none-eabi/4.9.3/../../../../arm-none-eabi/lib/armv7-m/crt0.o
 .ARM.exidx     0x00000000        0x8 c:/program files (x86)/cypress/psoc creator/4.0/psoc creator/import/gnu/arm/4.9.3/bin/../lib/gcc/arm-none-eabi/4.9.3/../../../../arm-none-eabi/lib/armv7-m/crt0.o
 .text          0x00000000        0x0 .\CortexM3\ARM_GCC_493\Debug\main.o
 .data          0x00000000        0x0 .\CortexM3\ARM_GCC_493\Debug\main.o
 .bss           0x00000000        0x0 .\CortexM3\ARM_GCC_493\Debug\main.o
 .text          0x00000000        0x0 .\CortexM3\ARM_GCC_493\Debug\cymetadata.o
 .data          0x00000000        0x0 .\CortexM3\ARM_GCC_493\Debug\cymetadata.o
 .bss           0x00000000        0x0 .\CortexM3\ARM_GCC_493\Debug\cymetadata.o
 .text          0x00000000        0x0 .\CortexM3\ARM_GCC_493\Debug\Cm3Start.o
 .data          0x00000000        0x4 .\CortexM3\ARM_GCC_493\Debug\Cm3Start.o
 .bss           0x00000000        0x0 .\CortexM3\ARM_GCC_493\Debug\Cm3Start.o
Memory Configuration

Name             Origin             Length             Attributes
rom              0x00000000         0x00040000         xr
ram              0x1fff8000         0x00010000         xrw
*default*        0x00000000         0xffffffff

Linker script and memory map

LOAD c:/program files (x86)/cypress/psoc creator/4.0/psoc creator/import/gnu/arm/4.9.3/bin/../lib/gcc/arm-none-eabi/4.9.3/armv7-m/crti.o
LOAD c:/program files (x86)/cypress/psoc creator/4.0/psoc creator/import/gnu/arm/4.9.3/bin/../lib/gcc/arm-none-eabi/4.9.3/armv7-m/crtbegin.o
LOAD c:/program files (x86)/cypress/psoc creator/4.0/psoc creator/import/gnu/arm/4.9.3/bin/../lib/gcc/arm-none-eabi/4.9.3/../../../../arm-none-eabi/lib/armv7-m/crt0.o
START GROUP
LOAD .\CortexM3\ARM_GCC_493\Debug\main.o
LOAD .\CortexM3\ARM_GCC_493\Debug\cymetadata.o
LOAD .\CortexM3\ARM_GCC_493\Debug\Cm3Start.o
LOAD .\CortexM3\ARM_GCC_493\Debug\Design02.a
LOAD C:\Program Files (x86)\Cypress\PSoC Creator\4.0\PSoC Creator\psoc\content\cycomponentlibrary\CyComponentLibrary.cylib\CortexM3\ARM_GCC_493\Debug\CyComponentLibrary.a
END GROUP
START GROUP
LOAD c:/program files (x86)/cypress/psoc creator/4.0/psoc creator/import/gnu/arm/4.9.3/bin/../lib/gcc/arm-none-eabi/4.9.3/armv7-m\libgcc.a
LOAD c:/program files (x86)/cypress/psoc creator/4.0/psoc creator/import/gnu/arm/4.9.3/bin/../lib/gcc/arm-none-eabi/4.9.3/../../../../arm-none-eabi/lib/armv7-m\libg_nano.a
LOAD c:/program files (x86)/cypress/psoc creator/4.0/psoc creator/import/gnu/arm/4.9.3/bin/../lib/gcc/arm-none-eabi/4.9.3/../../../../arm-none-eabi/lib/armv7-m\libc_nano.a
END GROUP
START GROUP
LOAD c:/program files (x86)/cypress/psoc creator/4.0/psoc creator/import/gnu/arm/4.9.3/bin/../lib/gcc/arm-none-eabi/4.9.3/armv7-m\libgcc.a
LOAD c:/program files (x86)/cypress/psoc creator/4.0/psoc creator/import/gnu/arm/4.9.3/bin/../lib/gcc/arm-none-eabi/4.9.3/../../../../arm-none-eabi/lib/armv7-m\libc_nano.a
END GROUP
LOAD c:/program files (x86)/cypress/psoc creator/4.0/psoc creator/import/gnu/arm/4.9.3/bin/../lib/gcc/arm-none-eabi/4.9.3/armv7-m/crtend.o
LOAD c:/program files (x86)/cypress/psoc creator/4.0/psoc creator/import/gnu/arm/4.9.3/bin/../lib/gcc/arm-none-eabi/4.9.3/armv7-m/crtn.o
START GROUP
LOAD c:/program files (x86)/cypress/psoc creator/4.0/psoc creator/import/gnu/arm/4.9.3/bin/../lib/gcc/arm-none-eabi/4.9.3/armv7-m\libgcc.a
LOAD c:/program files (x86)/cypress/psoc creator/4.0/psoc creator/import/gnu/arm/4.9.3/bin/../lib/gcc/arm-none-eabi/4.9.3/../../../../arm-none-eabi/lib/armv7-m\libc.a
LOAD c:/program files (x86)/cypress/psoc creator/4.0/psoc creator/import/gnu/arm/4.9.3/bin/../lib/gcc/arm-none-eabi/4.9.3/../../../../arm-none-eabi/lib/armv7-m\libnosys.a
END GROUP
                0x00000000                CY_APPL_ORIGIN = 0x0
                0x00000100                CY_FLASH_ROW_SIZE = 0x100
                0x00000020                CY_ECC_ROW_SIZE = 0x20
                0x00000000                CY_EE_IN_BTLDR = 0x0
                0x00000000                CY_APPL_LOADABLE = 0x0
                0x00000800                CY_EE_SIZE = 0x800
                0x00000001                CY_APPL_NUM = 0x1
                0x00000001                CY_APPL_MAX = 0x1
                0x00000040                CY_METADATA_SIZE = 0x40
                0x00000000                CY_APPL_LOADABLE = 0x0
                0x00000000                CY_CHECKSUM_EXCLUDE_SIZE = ALIGN (0x0, CY_FLASH_ROW_SIZE)
                0x1fff81c8                PROVIDE (__cy_heap_start, _end)
                0x00000001                PROVIDE (__cy_region_num, ((__cy_regions_end - __cy_regions) / 0x10))
                0x20008000                PROVIDE (__cy_stack, (ORIGIN (ram) + 0x10000))
                0x20007800                PROVIDE (__cy_heap_end, (__cy_stack - 0x800))

.cybootloader   0x00000000        0x0
 *(.cybootloader)
                0x00000000                appl1_start = CY_APPL_ORIGIN?CY_APPL_ORIGIN:ALIGN (CY_FLASH_ROW_SIZE)
                0x0001ff00                appl2_start = (appl1_start + ALIGN ((((0x40000 - appl1_start) - (0x2 * CY_FLASH_ROW_SIZE)) / 0x2), CY_FLASH_ROW_SIZE))
                0x00000000                appl_start = (CY_APPL_NUM == 0x1)?appl1_start:appl2_start
                0x00000000                ecc_offset = ((appl_start / CY_FLASH_ROW_SIZE) * CY_ECC_ROW_SIZE)
                0x00000000                ee_offset = (CY_APPL_LOADABLE && ! (CY_EE_IN_BTLDR))?((CY_EE_SIZE / CY_APPL_MAX) * (CY_APPL_NUM - 0x1)):0x0
                0x00000800                ee_size = (CY_APPL_LOADABLE && ! (CY_EE_IN_BTLDR))?(CY_EE_SIZE / CY_APPL_MAX):CY_EE_SIZE
                0x00000000                PROVIDE (CY_ECC_OFFSET, ecc_offset)

.text           0x00000000      0xf96
 CREATE_OBJECT_SYMBOLS
                0x00000000                PROVIDE (__cy_interrupt_vector, RomVectors)
 *(.romvectors)
 .romvectors    0x00000000       0x10 .\CortexM3\ARM_GCC_493\Debug\Cm3Start.o
                0x00000000                RomVectors
                0x00000001                ASSERT ((. != __cy_interrupt_vector), No interrupt vector)
                0x00000001                ASSERT (CY_APPL_ORIGIN?(SIZEOF (.cybootloader) <= CY_APPL_ORIGIN):0x1, Wrong image location)
                0x00000010                PROVIDE (__cy_reset, Reset)
 *(.text.Reset)
 .text.Reset    0x00000010       0x18 .\CortexM3\ARM_GCC_493\Debug\Cm3Start.o
                0x00000010                Reset
                0x00000001                ASSERT ((. != __cy_reset), No reset code)
 *(.dma_init)
                0x00000001                ASSERT ((((appl_start + .) <= 0x10000) || 0x1), DMA Init must be within the first 64k of flash)
 *(.text .text.* .gnu.linkonce.t.*)
 .text          0x00000028       0x5c c:/program files (x86)/cypress/psoc creator/4.0/psoc creator/import/gnu/arm/4.9.3/bin/../lib/gcc/arm-none-eabi/4.9.3/armv7-m/crtbegin.o
 .text.main     0x00000084       0x28 .\CortexM3\ARM_GCC_493\Debug\main.o
                0x00000084                main
 .text.IntDefaultHandler
                0x000000ac       0x10 .\CortexM3\ARM_GCC_493\Debug\Cm3Start.o
                0x000000ac                IntDefaultHandler
 .text.Start_c  0x000000bc       0x4c .\CortexM3\ARM_GCC_493\Debug\Cm3Start.o
                0x000000bc                Start_c
 .text.initialize_psoc
                0x00000108       0x74 .\CortexM3\ARM_GCC_493\Debug\Cm3Start.o
                0x00000108                initialize_psoc
 .text.CyClockStartupError
                0x0000017c        0x4 .\CortexM3\ARM_GCC_493\Debug\Design02.a(cyfitter_cfg.o)
 .text.cfg_write_bytes32
                0x00000180       0x34 .\CortexM3\ARM_GCC_493\Debug\Design02.a(cyfitter_cfg.o)
 .text.AnalogSetDefault
                0x000001b4       0x38 .\CortexM3\ARM_GCC_493\Debug\Design02.a(cyfitter_cfg.o)
 .text.CYMEMZERO
                0x000001ec        0xc .\CortexM3\ARM_GCC_493\Debug\Design02.a(cyfitter_cfg.o)
 .text.CYCONFIGCPY
                0x000001f8        0x8 .\CortexM3\ARM_GCC_493\Debug\Design02.a(cyfitter_cfg.o)
 .text.ClockSetup
                0x00000200       0xf0 .\CortexM3\ARM_GCC_493\Debug\Design02.a(cyfitter_cfg.o)
 .text.myADC_AMux_Set
                0x000002f0       0x1c .\CortexM3\ARM_GCC_493\Debug\Design02.a(cyfitter_cfg.o)
                0x000002f0                myADC_AMux_Set
 .text.myADC_AMux_Unset
                0x0000030c       0x1c .\CortexM3\ARM_GCC_493\Debug\Design02.a(cyfitter_cfg.o)
                0x0000030c                myADC_AMux_Unset
 .text.cyfitter_cfg
                0x00000328       0xe4 .\CortexM3\ARM_GCC_493\Debug\Design02.a(cyfitter_cfg.o)
                0x00000328                cyfitter_cfg
 .text.myADC_GainCompensation
                0x0000040c       0xd0 .\CortexM3\ARM_GCC_493\Debug\Design02.a(myADC.o)
 .text.myADC_SetDSMRef0Reg
                0x000004dc       0x4c .\CortexM3\ARM_GCC_493\Debug\Design02.a(myADC.o)
 .text.myADC_InitConfig
                0x00000528      0x330 .\CortexM3\ARM_GCC_493\Debug\Design02.a(myADC.o)
 .text.myADC_Init
                0x00000858      0x108 .\CortexM3\ARM_GCC_493\Debug\Design02.a(myADC.o)
                0x00000858                myADC_Init
 .text.myADC_Enable
                0x00000960       0xd8 .\CortexM3\ARM_GCC_493\Debug\Design02.a(myADC.o)
                0x00000960                myADC_Enable
 .text.myADC_Start
                0x00000a38       0x28 .\CortexM3\ARM_GCC_493\Debug\Design02.a(myADC.o)
                0x00000a38                myADC_Start
 .text.myADC_StartConvert
                0x00000a60       0x10 .\CortexM3\ARM_GCC_493\Debug\Design02.a(myADC.o)
                0x00000a60                myADC_StartConvert
 .text.myADC_StopConvert
                0x00000a70       0x10 .\CortexM3\ARM_GCC_493\Debug\Design02.a(myADC.o)
                0x00000a70                myADC_StopConvert
 .text.myADC_IsEndConversion
                0x00000a80       0x30 .\CortexM3\ARM_GCC_493\Debug\Design02.a(myADC.o)
                0x00000a80                myADC_IsEndConversion
 .text.myADC_GetResult32
                0x00000ab0       0x6c .\CortexM3\ARM_GCC_493\Debug\Design02.a(myADC.o)
                0x00000ab0                myADC_GetResult32
 .text.myADC_Read32
                0x00000b1c       0x28 .\CortexM3\ARM_GCC_493\Debug\Design02.a(myADC.o)
                0x00000b1c                myADC_Read32
 .text.myADC_ISR1
                0x00000b44        0x4 .\CortexM3\ARM_GCC_493\Debug\Design02.a(myADC_INT.o)
                0x00000b44                myADC_ISR1
 .text.myADC_ISR2
                0x00000b48        0x4 .\CortexM3\ARM_GCC_493\Debug\Design02.a(myADC_INT.o)
                0x00000b48                myADC_ISR2
 .text.myADC_ISR3
                0x00000b4c        0x4 .\CortexM3\ARM_GCC_493\Debug\Design02.a(myADC_INT.o)
                0x00000b4c                myADC_ISR3
 .text.myADC_ISR4
                0x00000b50        0x4 .\CortexM3\ARM_GCC_493\Debug\Design02.a(myADC_INT.o)
                0x00000b50                myADC_ISR4
 .text.myPWM_Enable
                0x00000b54       0x10 .\CortexM3\ARM_GCC_493\Debug\Design02.a(myPWM.o)
                0x00000b54                myPWM_Enable
 .text.myPWM_WriteCounter
                0x00000b64        0xc .\CortexM3\ARM_GCC_493\Debug\Design02.a(myPWM.o)
                0x00000b64                myPWM_WriteCounter
 .text.myPWM_WritePeriod
                0x00000b70        0xc .\CortexM3\ARM_GCC_493\Debug\Design02.a(myPWM.o)
                0x00000b70                myPWM_WritePeriod
 .text.myPWM_WriteCompare
                0x00000b7c        0xc .\CortexM3\ARM_GCC_493\Debug\Design02.a(myPWM.o)
                0x00000b7c                myPWM_WriteCompare
 .text.myPWM_SetInterruptMode
                0x00000b88        0xc .\CortexM3\ARM_GCC_493\Debug\Design02.a(myPWM.o)
                0x00000b88                myPWM_SetInterruptMode
 .text.myPWM_ReadStatusRegister
                0x00000b94        0xc .\CortexM3\ARM_GCC_493\Debug\Design02.a(myPWM.o)
                0x00000b94                myPWM_ReadStatusRegister
 .text.myPWM_ReadCapture
                0x00000ba0        0xc .\CortexM3\ARM_GCC_493\Debug\Design02.a(myPWM.o)
                0x00000ba0                myPWM_ReadCapture
 .text.myPWM_ClearFIFO
                0x00000bac       0x14 .\CortexM3\ARM_GCC_493\Debug\Design02.a(myPWM.o)
                0x00000bac                myPWM_ClearFIFO
 .text.myPWM_Init
                0x00000bc0       0x60 .\CortexM3\ARM_GCC_493\Debug\Design02.a(myPWM.o)
                0x00000bc0                myPWM_Init
 .text.myPWM_Start
                0x00000c20       0x1c .\CortexM3\ARM_GCC_493\Debug\Design02.a(myPWM.o)
                0x00000c20                myPWM_Start
 .text.myADC_AMux_Start
                0x00000c3c       0x20 .\CortexM3\ARM_GCC_493\Debug\Design02.a(myADC_AMux.o)
                0x00000c3c                myADC_AMux_Start
 .text.myADC_AMux_Select
                0x00000c5c       0x18 .\CortexM3\ARM_GCC_493\Debug\Design02.a(myADC_AMux.o)
                0x00000c5c                myADC_AMux_Select
 .text.myADC_Ext_CP_Clk_GetDividerRegister
                0x00000c74        0xc .\CortexM3\ARM_GCC_493\Debug\Design02.a(myADC_Ext_CP_Clk.o)
                0x00000c74                myADC_Ext_CP_Clk_GetDividerRegister
 .text.myADC_Ext_CP_Clk_SetModeRegister
                0x00000c80       0x14 .\CortexM3\ARM_GCC_493\Debug\Design02.a(myADC_Ext_CP_Clk.o)
                0x00000c80                myADC_Ext_CP_Clk_SetModeRegister
 .text.myADC_Ext_CP_Clk_GetSourceRegister
                0x00000c94       0x10 .\CortexM3\ARM_GCC_493\Debug\Design02.a(myADC_Ext_CP_Clk.o)
                0x00000c94                myADC_Ext_CP_Clk_GetSourceRegister
 .text.myADC_Ext_CP_Clk_SetDividerRegister
                0x00000ca4       0xd8 .\CortexM3\ARM_GCC_493\Debug\Design02.a(myADC_Ext_CP_Clk.o)
                0x00000ca4                myADC_Ext_CP_Clk_SetDividerRegister
 .text.myADC_theACLK_GetDividerRegister
                0x00000d7c        0xc .\CortexM3\ARM_GCC_493\Debug\Design02.a(myADC_theACLK.o)
                0x00000d7c                myADC_theACLK_GetDividerRegister
 .text.myADC_theACLK_SetModeRegister
                0x00000d88       0x14 .\CortexM3\ARM_GCC_493\Debug\Design02.a(myADC_theACLK.o)
                0x00000d88                myADC_theACLK_SetModeRegister
 .text.myADC_theACLK_GetSourceRegister
                0x00000d9c       0x10 .\CortexM3\ARM_GCC_493\Debug\Design02.a(myADC_theACLK.o)
                0x00000d9c                myADC_theACLK_GetSourceRegister
 .text.myADC_theACLK_SetDividerRegister
                0x00000dac       0xd8 .\CortexM3\ARM_GCC_493\Debug\Design02.a(myADC_theACLK.o)
                0x00000dac                myADC_theACLK_SetDividerRegister
 .text.CyHalt   0x00000e84        0x4 .\CortexM3\ARM_GCC_493\Debug\Design02.a(CyLib.o)
                0x00000e84                CyHalt
 .text.CyDelayUs
                0x00000e88       0x14 .\CortexM3\ARM_GCC_493\Debug\Design02.a(CyLib.o)
                0x00000e88                CyDelayUs
 .text.CyIntSetVector
                0x00000e9c       0x28 .\CortexM3\ARM_GCC_493\Debug\Design02.a(CyLib.o)
                0x00000e9c                CyIntSetVector
 .text.CyIntSetPriority
                0x00000ec4       0x30 .\CortexM3\ARM_GCC_493\Debug\Design02.a(CyLib.o)
                0x00000ec4                CyIntSetPriority
 *fill*         0x00000ef4        0x4 
 .text          0x00000ef8       0x20 .\CortexM3\ARM_GCC_493\Debug\Design02.a(CyBootAsmGnu.o)
                0x00000ef8                CyDelayCycles
                0x00000f08                CyEnterCriticalSection
                0x00000f10                CyExitCriticalSection
 .text.__errno  0x00000f18        0xc c:/program files (x86)/cypress/psoc creator/4.0/psoc creator/import/gnu/arm/4.9.3/bin/../lib/gcc/arm-none-eabi/4.9.3/../../../../arm-none-eabi/lib/armv7-m\libg_nano.a(lib_a-errno.o)
                0x00000f18                __errno
 .text.__libc_init_array
                0x00000f24       0x4c c:/program files (x86)/cypress/psoc creator/4.0/psoc creator/import/gnu/arm/4.9.3/bin/../lib/gcc/arm-none-eabi/4.9.3/../../../../arm-none-eabi/lib/armv7-m\libg_nano.a(lib_a-init.o)
                0x00000f24                __libc_init_array
 .text.memcpy   0x00000f70       0x16 c:/program files (x86)/cypress/psoc creator/4.0/psoc creator/import/gnu/arm/4.9.3/bin/../lib/gcc/arm-none-eabi/4.9.3/../../../../arm-none-eabi/lib/armv7-m\libg_nano.a(lib_a-memcpy.o)
                0x00000f70                memcpy
 .text.memset   0x00000f86       0x10 c:/program files (x86)/cypress/psoc creator/4.0/psoc creator/import/gnu/arm/4.9.3/bin/../lib/gcc/arm-none-eabi/4.9.3/../../../../arm-none-eabi/lib/armv7-m\libg_nano.a(lib_a-memset.o)
                0x00000f86                memset
 *(.plt)
 *(.gnu.warning)
 *(.glue_7t)
 .glue_7t       0x00000000        0x0 linker stubs
 *(.glue_7)
 .glue_7        0x00000000        0x0 linker stubs
 *(.vfp11_veneer)
 .vfp11_veneer  0x00000000        0x0 linker stubs
 *(.bootloader)
 *(.ARM.extab* .gnu.linkonce.armextab.*)
 *(.gcc_except_table)

.v4_bx          0x00000f98        0x0
 .v4_bx         0x00000000        0x0 linker stubs

.iplt           0x00000f98        0x0
 .iplt          0x00000000        0x0 c:/program files (x86)/cypress/psoc creator/4.0/psoc creator/import/gnu/arm/4.9.3/bin/../lib/gcc/arm-none-eabi/4.9.3/armv7-m/crtbegin.o

.eh_frame_hdr
 *(.eh_frame_hdr)

.eh_frame       0x00000f98        0x4
 *(.eh_frame)
 .eh_frame      0x00000f98        0x0 c:/program files (x86)/cypress/psoc creator/4.0/psoc creator/import/gnu/arm/4.9.3/bin/../lib/gcc/arm-none-eabi/4.9.3/armv7-m/crtbegin.o
 .eh_frame      0x00000f98        0x4 c:/program files (x86)/cypress/psoc creator/4.0/psoc creator/import/gnu/arm/4.9.3/bin/../lib/gcc/arm-none-eabi/4.9.3/armv7-m/crtend.o
                0x00000f9c                PROVIDE (__exidx_start, .)

.ARM.exidx
 *(.ARM.exidx* .gnu.linkonce.armexidx.*)
                0x00000f9c                __exidx_end = .

.rodata         0x00000f9c       0x74
 *(.rodata .rodata.* .gnu.linkonce.r.*)
 .rodata        0x00000f9c       0x3c .\CortexM3\ARM_GCC_493\Debug\Design02.a(cyfitter_cfg.o)
                0x00000f9c                myADC_AMux__addrTable
                0x00000fa4                myADC_AMux__maskTable
 .rodata.str1.1
                0x00000fd8        0x2 c:/program files (x86)/cypress/psoc creator/4.0/psoc creator/import/gnu/arm/4.9.3/bin/../lib/gcc/arm-none-eabi/4.9.3/../../../../arm-none-eabi/lib/armv7-m\libg_nano.a(lib_a-impure.o)
                0x00000fdc                . = ALIGN (0x4)
 *fill*         0x00000fda        0x2 
 *(.init)
 .init          0x00000fdc        0x4 c:/program files (x86)/cypress/psoc creator/4.0/psoc creator/import/gnu/arm/4.9.3/bin/../lib/gcc/arm-none-eabi/4.9.3/armv7-m/crti.o
                0x00000fdc                _init
 .init          0x00000fe0        0x8 c:/program files (x86)/cypress/psoc creator/4.0/psoc creator/import/gnu/arm/4.9.3/bin/../lib/gcc/arm-none-eabi/4.9.3/armv7-m/crtn.o
                0x00000fe8                . = ALIGN (0x4)
                0x00000fe8                __preinit_array_start = .
 *(.preinit_array)
                0x00000fe8                __preinit_array_end = .
                0x00000fe8                . = ALIGN (0x4)
                0x00000fe8                __init_array_start = .
 *(SORT(.init_array.*))
 *(.init_array)
 .init_array    0x00000fe8        0x4 c:/program files (x86)/cypress/psoc creator/4.0/psoc creator/import/gnu/arm/4.9.3/bin/../lib/gcc/arm-none-eabi/4.9.3/armv7-m/crtbegin.o
 .init_array    0x00000fec        0x4 .\CortexM3\ARM_GCC_493\Debug\Cm3Start.o
                0x00000ff0                __init_array_end = .
                0x00000ff0                . = ALIGN (0x4)
 *(.fini)
 .fini          0x00000ff0        0x4 c:/program files (x86)/cypress/psoc creator/4.0/psoc creator/import/gnu/arm/4.9.3/bin/../lib/gcc/arm-none-eabi/4.9.3/armv7-m/crti.o
                0x00000ff0                _fini
 .fini          0x00000ff4        0x8 c:/program files (x86)/cypress/psoc creator/4.0/psoc creator/import/gnu/arm/4.9.3/bin/../lib/gcc/arm-none-eabi/4.9.3/armv7-m/crtn.o
                0x00000ffc                . = ALIGN (0x4)
                0x00000ffc                __fini_array_start = .
 *(.fini_array)
 .fini_array    0x00000ffc        0x4 c:/program files (x86)/cypress/psoc creator/4.0/psoc creator/import/gnu/arm/4.9.3/bin/../lib/gcc/arm-none-eabi/4.9.3/armv7-m/crtbegin.o
 *(SORT(.fini_array.*))
                0x00001000                __fini_array_end = .
                0x00001000                . = ALIGN (0x4)
 *crtbegin.o(.ctors)
 *(EXCLUDE_FILE(*crtend.o) .ctors)
 *(SORT(.ctors.*))
 *crtend.o(.ctors)
                0x00001000                . = ALIGN (0x4)
 *crtbegin.o(.dtors)
 *(EXCLUDE_FILE(*crtend.o) .dtors)
 *(SORT(.dtors.*))
 *crtend.o(.dtors)
                0x00001000                . = ALIGN (0x4)
                0x00001000                __cy_regions = .
                0x00001000        0x4 LONG 0x1010 __cy_region_init_ram
                0x00001004        0x4 LONG 0x1fff8108 __cy_region_start_data
                0x00001008        0x4 LONG 0x80 __cy_region_init_size_ram
                0x0000100c        0x4 LONG 0x40 __cy_region_zero_size_ram
                0x00001010                __cy_regions_end = .
                0x00001010                . = ALIGN (0x8)
                0x00001010                _etext = .

.cy_checksum_exclude
                0x00001010        0x0
 *(.cy_checksum_exclude)

.ramvectors     0x1fff8000      0x100
                0x1fff8000                __cy_region_start_ram = .
 *(.ramvectors)
 .ramvectors    0x1fff8000      0x100 .\CortexM3\ARM_GCC_493\Debug\Cm3Start.o
                0x1fff8000                CyRamVectors

.noinit         0x1fff8100        0x5
 *(.noinit)
 .noinit        0x1fff8100        0x4 .\CortexM3\ARM_GCC_493\Debug\Cm3Start.o
 .noinit        0x1fff8104        0x1 .\CortexM3\ARM_GCC_493\Debug\Design02.a(CyLib.o)
                0x1fff8104                CyResetStatus

.data           0x1fff8108       0x80 load address 0x00001010
                0x1fff8108                __cy_region_start_data = .
 *(.jcr)
 .jcr           0x1fff8108        0x0 c:/program files (x86)/cypress/psoc creator/4.0/psoc creator/import/gnu/arm/4.9.3/bin/../lib/gcc/arm-none-eabi/4.9.3/armv7-m/crtbegin.o
 .jcr           0x1fff8108        0x4 c:/program files (x86)/cypress/psoc creator/4.0/psoc creator/import/gnu/arm/4.9.3/bin/../lib/gcc/arm-none-eabi/4.9.3/armv7-m/crtend.o
 *(.got.plt)
 *(.got)
 *(.shdata)
 *(.data .data.* .gnu.linkonce.d.*)
 .data          0x1fff810c        0x1 .\CortexM3\ARM_GCC_493\Debug\Design02.a(myADC.o)
                0x1fff810c                myADC_Config
 .data          0x1fff810d        0x1 .\CortexM3\ARM_GCC_493\Debug\Design02.a(myADC_AMux.o)
 *fill*         0x1fff810e        0x2 
 .data          0x1fff8110       0x10 .\CortexM3\ARM_GCC_493\Debug\Design02.a(CyLib.o)
                0x1fff8110                cydelay_32k_ms
                0x1fff8114                cydelay_freq_khz
                0x1fff8118                cydelay_freq_mhz
                0x1fff811c                cydelay_freq_hz
 .data.impure_data
                0x1fff8120       0x60 c:/program files (x86)/cypress/psoc creator/4.0/psoc creator/import/gnu/arm/4.9.3/bin/../lib/gcc/arm-none-eabi/4.9.3/../../../../arm-none-eabi/lib/armv7-m\libg_nano.a(lib_a-impure.o)
 .data._impure_ptr
                0x1fff8180        0x4 c:/program files (x86)/cypress/psoc creator/4.0/psoc creator/import/gnu/arm/4.9.3/bin/../lib/gcc/arm-none-eabi/4.9.3/../../../../arm-none-eabi/lib/armv7-m\libg_nano.a(lib_a-impure.o)
                0x1fff8180                _impure_ptr
                0x1fff8188                . = ALIGN (0x8)
 *fill*         0x1fff8184        0x4 
 *(.ram)
                0x1fff8188                _edata = .

.igot.plt       0x1fff8188        0x0 load address 0x00001090
 .igot.plt      0x00000000        0x0 c:/program files (x86)/cypress/psoc creator/4.0/psoc creator/import/gnu/arm/4.9.3/bin/../lib/gcc/arm-none-eabi/4.9.3/armv7-m/crtbegin.o

.bss            0x1fff8188       0x40 load address 0x00001090
                0x1fff8188                PROVIDE (__bss_start__, .)
 *(.shbss)
 *(.bss .bss.* .gnu.linkonce.b.*)
 .bss           0x1fff8188       0x1c c:/program files (x86)/cypress/psoc creator/4.0/psoc creator/import/gnu/arm/4.9.3/bin/../lib/gcc/arm-none-eabi/4.9.3/armv7-m/crtbegin.o
 .bss           0x1fff81a4       0x14 .\CortexM3\ARM_GCC_493\Debug\Design02.a(myADC.o)
                0x1fff81b4                myADC_stopConversion
                0x1fff81b5                myADC_convDone
                0x1fff81b6                myADC_initVar
                0x1fff81b7                myADC_started
 .bss           0x1fff81b8        0x1 .\CortexM3\ARM_GCC_493\Debug\Design02.a(myPWM.o)
                0x1fff81b8                myPWM_initVar
 *(COMMON)
 *fill*         0x1fff81b9        0x3 
 COMMON         0x1fff81bc        0x8 .\CortexM3\ARM_GCC_493\Debug\Design02.a(myADC.o)
                0x1fff81bc                myADC_Offset
                0x1fff81c0                myADC_CountsPerVolt
                0x1fff81c8                . = ALIGN (0x8)
 *fill*         0x1fff81c4        0x4 
 *(.ram.b)
                0x1fff81c8                _end = .
                0x1fff81c8                __end = .
                0x1fff81c8                PROVIDE (end, .)
                0x1fff81c8                PROVIDE (__bss_end__, .)
                0x00001010                __cy_region_init_ram = LOADADDR (.data)
                0x00000080                __cy_region_init_size_ram = (_edata - ADDR (.data))
                0x00000040                __cy_region_zero_size_ram = (_end - _edata)

.heap           0x1fff81c8       0x80 load address 0x00001090
                0x1fff81c8                . = _end
                0x1fff8248                . = (. + 0x80)
 *fill*         0x1fff81c8       0x80 
                0x1fff8248                __cy_heap_limit = .

.stack          0x20007800      0x800
                0x20007800                __cy_stack_limit = .
                0x20008000                . = (. + 0x800)
 *fill*         0x20007800      0x800 
                0x00000001                ASSERT ((__cy_stack_limit >= __cy_heap_limit), region RAM overflowed with stack)
                0x00000000                cy_checksum_exclude_size = (CY_APPL_LOADABLE == 0x1)?SIZEOF (.cy_checksum_exclude):0x0
                0x00000001                ASSERT ((cy_checksum_exclude_size <= CY_CHECKSUM_EXCLUDE_SIZE), CY_BOOT: Section .cy_checksum_exclude size exceedes specified limit.)

.cyloadermeta
 *(.cyloadermeta)

.cyloadablemeta
 *(.cyloadablemeta)

.cyconfigecc    0x80000000      0x14c
 *(.cyconfigecc)
 .cyconfigecc   0x80000000      0x14c .\CortexM3\ARM_GCC_493\Debug\cymetadata.o
                0x80000000                cy_meta_configecc

.cycustnvl      0x90000000        0x4
 *(.cycustnvl)
 .cycustnvl     0x90000000        0x4 .\CortexM3\ARM_GCC_493\Debug\cymetadata.o
                0x90000000                cy_meta_custnvl

.cywolatch      0x90100000        0x4
 *(.cywolatch)
 .cywolatch     0x90100000        0x4 .\CortexM3\ARM_GCC_493\Debug\cymetadata.o
                0x90100000                cy_meta_wonvl

.cyeeprom       0x90200000        0x0
 *(.cyeeprom)
                0x00000001                ASSERT ((. <= ((0x90200000 + ee_offset) + ee_size)), .cyeeprom data will not fit in EEPROM)

.cyflashprotect
                0x90400000      0x100
 *(.cyflashprotect)
 .cyflashprotect
                0x90400000      0x100 .\CortexM3\ARM_GCC_493\Debug\cymetadata.o
                0x90400000                cy_meta_flashprotect

.cymeta         0x90500000        0xc
 *(.cymeta)
 .cymeta        0x90500000        0xc .\CortexM3\ARM_GCC_493\Debug\cymetadata.o
                0x90500000                cy_metadata

.rel.dyn        0x00001090        0x0 load address 0x9050000c
 .rel.iplt      0x00000000        0x0 c:/program files (x86)/cypress/psoc creator/4.0/psoc creator/import/gnu/arm/4.9.3/bin/../lib/gcc/arm-none-eabi/4.9.3/armv7-m/crtbegin.o

.stab
 *(.stab)

.stabstr
 *(.stabstr)

.debug
 *(.debug)

.line
 *(.line)

.debug_srcinfo
 *(.debug_srcinfo)

.debug_sfnames
 *(.debug_sfnames)

.debug_aranges  0x00000000      0x810
 *(.debug_aranges)
 .debug_aranges
                0x00000000       0x20 .\CortexM3\ARM_GCC_493\Debug\main.o
 .debug_aranges
                0x00000020       0x18 .\CortexM3\ARM_GCC_493\Debug\cymetadata.o
 .debug_aranges
                0x00000038       0x48 .\CortexM3\ARM_GCC_493\Debug\Cm3Start.o
 .debug_aranges
                0x00000080       0x68 .\CortexM3\ARM_GCC_493\Debug\Design02.a(cyfitter_cfg.o)
 .debug_aranges
                0x000000e8       0xe8 .\CortexM3\ARM_GCC_493\Debug\Design02.a(myADC.o)
 .debug_aranges
                0x000001d0       0x38 .\CortexM3\ARM_GCC_493\Debug\Design02.a(myADC_INT.o)
 .debug_aranges
                0x00000208       0x98 .\CortexM3\ARM_GCC_493\Debug\Design02.a(myPWM.o)
 .debug_aranges
                0x000002a0       0x30 .\CortexM3\ARM_GCC_493\Debug\Design02.a(myADC_AMux.o)
 .debug_aranges
                0x000002d0       0x70 .\CortexM3\ARM_GCC_493\Debug\Design02.a(myADC_Ext_CP_Clk.o)
 .debug_aranges
                0x00000340       0x80 .\CortexM3\ARM_GCC_493\Debug\Design02.a(myADC_theACLK.o)
 .debug_aranges
                0x000003c0      0x2a0 .\CortexM3\ARM_GCC_493\Debug\Design02.a(CyLib.o)
 .debug_aranges
                0x00000660       0x98 .\CortexM3\ARM_GCC_493\Debug\Design02.a(cyPm.o)
 .debug_aranges
                0x000006f8       0x20 .\CortexM3\ARM_GCC_493\Debug\Design02.a(CyBootAsmGnu.o)
 .debug_aranges
                0x00000718       0x80 .\CortexM3\ARM_GCC_493\Debug\Design02.a(CyFlash.o)
 .debug_aranges
                0x00000798       0x78 .\CortexM3\ARM_GCC_493\Debug\Design02.a(CySpc.o)

.debug_pubnames
 *(.debug_pubnames)

.debug_info     0x00000000     0x4c82
 *(.debug_info .gnu.linkonce.wi.*)
 .debug_info    0x00000000      0x151 .\CortexM3\ARM_GCC_493\Debug\main.o
 .debug_info    0x00000151      0x13b .\CortexM3\ARM_GCC_493\Debug\cymetadata.o
 .debug_info    0x0000028c      0x3b3 .\CortexM3\ARM_GCC_493\Debug\Cm3Start.o
 .debug_info    0x0000063f      0x575 .\CortexM3\ARM_GCC_493\Debug\Design02.a(cyfitter_cfg.o)
 .debug_info    0x00000bb4      0xc47 .\CortexM3\ARM_GCC_493\Debug\Design02.a(myADC.o)
 .debug_info    0x000017fb       0xcc .\CortexM3\ARM_GCC_493\Debug\Design02.a(myADC_INT.o)
 .debug_info    0x000018c7      0x34f .\CortexM3\ARM_GCC_493\Debug\Design02.a(myPWM.o)
 .debug_info    0x00001c16      0x16d .\CortexM3\ARM_GCC_493\Debug\Design02.a(myADC_AMux.o)
 .debug_info    0x00001d83      0x283 .\CortexM3\ARM_GCC_493\Debug\Design02.a(myADC_Ext_CP_Clk.o)
 .debug_info    0x00002006      0x2c4 .\CortexM3\ARM_GCC_493\Debug\Design02.a(myADC_theACLK.o)
 .debug_info    0x000022ca     0x1385 .\CortexM3\ARM_GCC_493\Debug\Design02.a(CyLib.o)
 .debug_info    0x0000364f      0xa57 .\CortexM3\ARM_GCC_493\Debug\Design02.a(cyPm.o)
 .debug_info    0x000040a6       0xea .\CortexM3\ARM_GCC_493\Debug\Design02.a(CyBootAsmGnu.o)
 .debug_info    0x00004190      0x608 .\CortexM3\ARM_GCC_493\Debug\Design02.a(CyFlash.o)
 .debug_info    0x00004798      0x4ea .\CortexM3\ARM_GCC_493\Debug\Design02.a(CySpc.o)

.debug_abbrev   0x00000000     0x1462
 *(.debug_abbrev)
 .debug_abbrev  0x00000000       0xbf .\CortexM3\ARM_GCC_493\Debug\main.o
 .debug_abbrev  0x000000bf       0x66 .\CortexM3\ARM_GCC_493\Debug\cymetadata.o
 .debug_abbrev  0x00000125      0x1f7 .\CortexM3\ARM_GCC_493\Debug\Cm3Start.o
 .debug_abbrev  0x0000031c      0x210 .\CortexM3\ARM_GCC_493\Debug\Design02.a(cyfitter_cfg.o)
 .debug_abbrev  0x0000052c      0x23d .\CortexM3\ARM_GCC_493\Debug\Design02.a(myADC.o)
 .debug_abbrev  0x00000769       0x42 .\CortexM3\ARM_GCC_493\Debug\Design02.a(myADC_INT.o)
 .debug_abbrev  0x000007ab      0x14d .\CortexM3\ARM_GCC_493\Debug\Design02.a(myPWM.o)
 .debug_abbrev  0x000008f8       0xcb .\CortexM3\ARM_GCC_493\Debug\Design02.a(myADC_AMux.o)
 .debug_abbrev  0x000009c3      0x139 .\CortexM3\ARM_GCC_493\Debug\Design02.a(myADC_Ext_CP_Clk.o)
 .debug_abbrev  0x00000afc      0x121 .\CortexM3\ARM_GCC_493\Debug\Design02.a(myADC_theACLK.o)
 .debug_abbrev  0x00000c1d      0x296 .\CortexM3\ARM_GCC_493\Debug\Design02.a(CyLib.o)
 .debug_abbrev  0x00000eb3      0x1ed .\CortexM3\ARM_GCC_493\Debug\Design02.a(cyPm.o)
 .debug_abbrev  0x000010a0       0x14 .\CortexM3\ARM_GCC_493\Debug\Design02.a(CyBootAsmGnu.o)
 .debug_abbrev  0x000010b4      0x1ed .\CortexM3\ARM_GCC_493\Debug\Design02.a(CyFlash.o)
 .debug_abbrev  0x000012a1      0x1c1 .\CortexM3\ARM_GCC_493\Debug\Design02.a(CySpc.o)

.debug_line     0x00000000     0x1fd3
 *(.debug_line)
 .debug_line    0x00000000      0x184 .\CortexM3\ARM_GCC_493\Debug\main.o
 .debug_line    0x00000184       0x51 .\CortexM3\ARM_GCC_493\Debug\cymetadata.o
 .debug_line    0x000001d5      0x24f .\CortexM3\ARM_GCC_493\Debug\Cm3Start.o
 .debug_line    0x00000424      0x208 .\CortexM3\ARM_GCC_493\Debug\Design02.a(cyfitter_cfg.o)
 .debug_line    0x0000062c      0x3cb .\CortexM3\ARM_GCC_493\Debug\Design02.a(myADC.o)
 .debug_line    0x000009f7       0x82 .\CortexM3\ARM_GCC_493\Debug\Design02.a(myADC_INT.o)
 .debug_line    0x00000a79      0x188 .\CortexM3\ARM_GCC_493\Debug\Design02.a(myPWM.o)
 .debug_line    0x00000c01       0xae .\CortexM3\ARM_GCC_493\Debug\Design02.a(myADC_AMux.o)
 .debug_line    0x00000caf      0x17f .\CortexM3\ARM_GCC_493\Debug\Design02.a(myADC_Ext_CP_Clk.o)
 .debug_line    0x00000e2e      0x19f .\CortexM3\ARM_GCC_493\Debug\Design02.a(myADC_theACLK.o)
 .debug_line    0x00000fcd      0x816 .\CortexM3\ARM_GCC_493\Debug\Design02.a(CyLib.o)
 .debug_line    0x000017e3      0x364 .\CortexM3\ARM_GCC_493\Debug\Design02.a(cyPm.o)
 .debug_line    0x00001b47       0x66 .\CortexM3\ARM_GCC_493\Debug\Design02.a(CyBootAsmGnu.o)
 .debug_line    0x00001bad      0x1ea .\CortexM3\ARM_GCC_493\Debug\Design02.a(CyFlash.o)
 .debug_line    0x00001d97      0x23c .\CortexM3\ARM_GCC_493\Debug\Design02.a(CySpc.o)

.debug_frame    0x00000000     0x14f4
 *(.debug_frame)
 .debug_frame   0x00000000       0x2c .\CortexM3\ARM_GCC_493\Debug\main.o
 .debug_frame   0x0000002c       0xb8 .\CortexM3\ARM_GCC_493\Debug\Cm3Start.o
 .debug_frame   0x000000e4      0x104 .\CortexM3\ARM_GCC_493\Debug\Design02.a(cyfitter_cfg.o)
 .debug_frame   0x000001e8      0x284 .\CortexM3\ARM_GCC_493\Debug\Design02.a(myADC.o)
 .debug_frame   0x0000046c       0x50 .\CortexM3\ARM_GCC_493\Debug\Design02.a(myADC_INT.o)
 .debug_frame   0x000004bc      0x134 .\CortexM3\ARM_GCC_493\Debug\Design02.a(myPWM.o)
 .debug_frame   0x000005f0       0x64 .\CortexM3\ARM_GCC_493\Debug\Design02.a(myADC_AMux.o)
 .debug_frame   0x00000654       0xe0 .\CortexM3\ARM_GCC_493\Debug\Design02.a(myADC_Ext_CP_Clk.o)
 .debug_frame   0x00000734      0x100 .\CortexM3\ARM_GCC_493\Debug\Design02.a(myADC_theACLK.o)
 .debug_frame   0x00000834      0x738 .\CortexM3\ARM_GCC_493\Debug\Design02.a(CyLib.o)
 .debug_frame   0x00000f6c      0x1f8 .\CortexM3\ARM_GCC_493\Debug\Design02.a(cyPm.o)
 .debug_frame   0x00001164      0x174 .\CortexM3\ARM_GCC_493\Debug\Design02.a(CyFlash.o)
 .debug_frame   0x000012d8      0x160 .\CortexM3\ARM_GCC_493\Debug\Design02.a(CySpc.o)
 .debug_frame   0x00001438       0x20 c:/program files (x86)/cypress/psoc creator/4.0/psoc creator/import/gnu/arm/4.9.3/bin/../lib/gcc/arm-none-eabi/4.9.3/../../../../arm-none-eabi/lib/armv7-m\libg_nano.a(lib_a-errno.o)
 .debug_frame   0x00001458       0x28 c:/program files (x86)/cypress/psoc creator/4.0/psoc creator/import/gnu/arm/4.9.3/bin/../lib/gcc/arm-none-eabi/4.9.3/../../../../arm-none-eabi/lib/armv7-m\libg_nano.a(lib_a-exit.o)
 .debug_frame   0x00001480       0x2c c:/program files (x86)/cypress/psoc creator/4.0/psoc creator/import/gnu/arm/4.9.3/bin/../lib/gcc/arm-none-eabi/4.9.3/../../../../arm-none-eabi/lib/armv7-m\libg_nano.a(lib_a-init.o)
 .debug_frame   0x000014ac       0x28 c:/program files (x86)/cypress/psoc creator/4.0/psoc creator/import/gnu/arm/4.9.3/bin/../lib/gcc/arm-none-eabi/4.9.3/../../../../arm-none-eabi/lib/armv7-m\libg_nano.a(lib_a-memcpy.o)
 .debug_frame   0x000014d4       0x20 c:/program files (x86)/cypress/psoc creator/4.0/psoc creator/import/gnu/arm/4.9.3/bin/../lib/gcc/arm-none-eabi/4.9.3/../../../../arm-none-eabi/lib/armv7-m\libg_nano.a(lib_a-memset.o)

.debug_str      0x00000000     0x1c45
 *(.debug_str)
 .debug_str     0x00000000      0x20a .\CortexM3\ARM_GCC_493\Debug\main.o
                                0x25a (size before relaxing)
 .debug_str     0x0000020a       0x7b .\CortexM3\ARM_GCC_493\Debug\cymetadata.o
                                0x244 (size before relaxing)
 .debug_str     0x00000285      0x16a .\CortexM3\ARM_GCC_493\Debug\Cm3Start.o
                                0x358 (size before relaxing)
 .debug_str     0x000003ef      0x1a8 .\CortexM3\ARM_GCC_493\Debug\Design02.a(cyfitter_cfg.o)
                                0x3b1 (size before relaxing)
 .debug_str     0x00000597      0x416 .\CortexM3\ARM_GCC_493\Debug\Design02.a(myADC.o)
                                0x676 (size before relaxing)
 .debug_str     0x000009ad       0x4f .\CortexM3\ARM_GCC_493\Debug\Design02.a(myADC_INT.o)
                                0x218 (size before relaxing)
 .debug_str     0x000009fc      0x16b .\CortexM3\ARM_GCC_493\Debug\Design02.a(myPWM.o)
                                0x3ac (size before relaxing)
 .debug_str     0x00000b67       0x67 .\CortexM3\ARM_GCC_493\Debug\Design02.a(myADC_AMux.o)
                                0x267 (size before relaxing)
 .debug_str     0x00000bce      0x187 .\CortexM3\ARM_GCC_493\Debug\Design02.a(myADC_Ext_CP_Clk.o)
                                0x3b4 (size before relaxing)
 .debug_str     0x00000d55      0x167 .\CortexM3\ARM_GCC_493\Debug\Design02.a(myADC_theACLK.o)
                                0x3d7 (size before relaxing)
 .debug_str     0x00000ebc      0x7e8 .\CortexM3\ARM_GCC_493\Debug\Design02.a(CyLib.o)
                                0xa95 (size before relaxing)
 .debug_str     0x000016a4      0x359 .\CortexM3\ARM_GCC_493\Debug\Design02.a(cyPm.o)
                                0x775 (size before relaxing)
 .debug_str     0x000019fd      0x19c .\CortexM3\ARM_GCC_493\Debug\Design02.a(CyFlash.o)
                                0x3ef (size before relaxing)
 .debug_str     0x00001b99       0xac .\CortexM3\ARM_GCC_493\Debug\Design02.a(CySpc.o)
                                0x378 (size before relaxing)

.debug_loc      0x00000000     0x2220
 *(.debug_loc)
 .debug_loc     0x00000000      0x144 .\CortexM3\ARM_GCC_493\Debug\Cm3Start.o
 .debug_loc     0x00000144      0x219 .\CortexM3\ARM_GCC_493\Debug\Design02.a(cyfitter_cfg.o)
 .debug_loc     0x0000035d      0x676 .\CortexM3\ARM_GCC_493\Debug\Design02.a(myADC.o)
 .debug_loc     0x000009d3       0x26 .\CortexM3\ARM_GCC_493\Debug\Design02.a(myPWM.o)
 .debug_loc     0x000009f9       0x6c .\CortexM3\ARM_GCC_493\Debug\Design02.a(myADC_AMux.o)
 .debug_loc     0x00000a65      0x12c .\CortexM3\ARM_GCC_493\Debug\Design02.a(myADC_Ext_CP_Clk.o)
 .debug_loc     0x00000b91      0x14d .\CortexM3\ARM_GCC_493\Debug\Design02.a(myADC_theACLK.o)
 .debug_loc     0x00000cde      0xa11 .\CortexM3\ARM_GCC_493\Debug\Design02.a(CyLib.o)
 .debug_loc     0x000016ef      0x1e4 .\CortexM3\ARM_GCC_493\Debug\Design02.a(cyPm.o)
 .debug_loc     0x000018d3      0x300 .\CortexM3\ARM_GCC_493\Debug\Design02.a(CyFlash.o)
 .debug_loc     0x00001bd3      0x64d .\CortexM3\ARM_GCC_493\Debug\Design02.a(CySpc.o)

.debug_macinfo
 *(.debug_macinfo)

.debug_ranges   0x00000000      0x708
 *(.debug_ranges)
 .debug_ranges  0x00000000       0x10 .\CortexM3\ARM_GCC_493\Debug\main.o
 .debug_ranges  0x00000010       0x38 .\CortexM3\ARM_GCC_493\Debug\Cm3Start.o
 .debug_ranges  0x00000048       0x58 .\CortexM3\ARM_GCC_493\Debug\Design02.a(cyfitter_cfg.o)
 .debug_ranges  0x000000a0       0xd8 .\CortexM3\ARM_GCC_493\Debug\Design02.a(myADC.o)
 .debug_ranges  0x00000178       0x28 .\CortexM3\ARM_GCC_493\Debug\Design02.a(myADC_INT.o)
 .debug_ranges  0x000001a0       0x88 .\CortexM3\ARM_GCC_493\Debug\Design02.a(myPWM.o)
 .debug_ranges  0x00000228       0x20 .\CortexM3\ARM_GCC_493\Debug\Design02.a(myADC_AMux.o)
 .debug_ranges  0x00000248       0x60 .\CortexM3\ARM_GCC_493\Debug\Design02.a(myADC_Ext_CP_Clk.o)
 .debug_ranges  0x000002a8       0x70 .\CortexM3\ARM_GCC_493\Debug\Design02.a(myADC_theACLK.o)
 .debug_ranges  0x00000318      0x290 .\CortexM3\ARM_GCC_493\Debug\Design02.a(CyLib.o)
 .debug_ranges  0x000005a8       0x88 .\CortexM3\ARM_GCC_493\Debug\Design02.a(cyPm.o)
 .debug_ranges  0x00000630       0x70 .\CortexM3\ARM_GCC_493\Debug\Design02.a(CyFlash.o)
 .debug_ranges  0x000006a0       0x68 .\CortexM3\ARM_GCC_493\Debug\Design02.a(CySpc.o)

.comment        0x00000000       0x70
 .comment       0x00000000       0x70 .\CortexM3\ARM_GCC_493\Debug\main.o
                                 0x71 (size before relaxing)
 .comment       0x00000000       0x71 .\CortexM3\ARM_GCC_493\Debug\cymetadata.o
 .comment       0x00000000       0x71 .\CortexM3\ARM_GCC_493\Debug\Cm3Start.o
 .comment       0x00000000       0x71 .\CortexM3\ARM_GCC_493\Debug\Design02.a(cyfitter_cfg.o)
 .comment       0x00000000       0x71 .\CortexM3\ARM_GCC_493\Debug\Design02.a(myADC.o)
 .comment       0x00000000       0x71 .\CortexM3\ARM_GCC_493\Debug\Design02.a(myADC_INT.o)
 .comment       0x00000000       0x71 .\CortexM3\ARM_GCC_493\Debug\Design02.a(myPWM.o)
 .comment       0x00000000       0x71 .\CortexM3\ARM_GCC_493\Debug\Design02.a(myADC_AMux.o)
 .comment       0x00000000       0x71 .\CortexM3\ARM_GCC_493\Debug\Design02.a(myADC_Ext_CP_Clk.o)
 .comment       0x00000000       0x71 .\CortexM3\ARM_GCC_493\Debug\Design02.a(myADC_theACLK.o)
 .comment       0x00000000       0x71 .\CortexM3\ARM_GCC_493\Debug\Design02.a(CyLib.o)
 .comment       0x00000000       0x71 .\CortexM3\ARM_GCC_493\Debug\Design02.a(cyPm.o)
 .comment       0x00000000       0x71 .\CortexM3\ARM_GCC_493\Debug\Design02.a(CyFlash.o)
 .comment       0x00000000       0x71 .\CortexM3\ARM_GCC_493\Debug\Design02.a(CySpc.o)

.debug_weaknames
 *(.debug_weaknames)

.debug_funcnames
 *(.debug_funcnames)

.debug_typenames
 *(.debug_typenames)

.debug_varnames
 *(.debug_varnames)

.note.gnu.arm.ident
 *(.note.gnu.arm.ident)

.ARM.attributes
                0x00000000       0x29
 *(.ARM.attributes)
 .ARM.attributes
                0x00000000       0x1d c:/program files (x86)/cypress/psoc creator/4.0/psoc creator/import/gnu/arm/4.9.3/bin/../lib/gcc/arm-none-eabi/4.9.3/armv7-m/crti.o
 .ARM.attributes
                0x0000001d       0x2d c:/program files (x86)/cypress/psoc creator/4.0/psoc creator/import/gnu/arm/4.9.3/bin/../lib/gcc/arm-none-eabi/4.9.3/armv7-m/crtbegin.o
 .ARM.attributes
                0x0000004a       0x1b c:/program files (x86)/cypress/psoc creator/4.0/psoc creator/import/gnu/arm/4.9.3/bin/../lib/gcc/arm-none-eabi/4.9.3/../../../../arm-none-eabi/lib/armv7-m/crt0.o
 .ARM.attributes
                0x00000065       0x33 .\CortexM3\ARM_GCC_493\Debug\main.o
 .ARM.attributes
                0x00000098       0x33 .\CortexM3\ARM_GCC_493\Debug\cymetadata.o
 .ARM.attributes
                0x000000cb       0x33 .\CortexM3\ARM_GCC_493\Debug\Cm3Start.o
 .ARM.attributes
                0x000000fe       0x33 .\CortexM3\ARM_GCC_493\Debug\Design02.a(cyfitter_cfg.o)
 .ARM.attributes
                0x00000131       0x33 .\CortexM3\ARM_GCC_493\Debug\Design02.a(myADC.o)
 .ARM.attributes
                0x00000164       0x33 .\CortexM3\ARM_GCC_493\Debug\Design02.a(myADC_INT.o)
 .ARM.attributes
                0x00000197       0x33 .\CortexM3\ARM_GCC_493\Debug\Design02.a(myPWM.o)
 .ARM.attributes
                0x000001ca       0x33 .\CortexM3\ARM_GCC_493\Debug\Design02.a(myADC_AMux.o)
 .ARM.attributes
                0x000001fd       0x33 .\CortexM3\ARM_GCC_493\Debug\Design02.a(myADC_Ext_CP_Clk.o)
 .ARM.attributes
                0x00000230       0x33 .\CortexM3\ARM_GCC_493\Debug\Design02.a(myADC_theACLK.o)
 .ARM.attributes
                0x00000263       0x33 .\CortexM3\ARM_GCC_493\Debug\Design02.a(CyLib.o)
 .ARM.attributes
                0x00000296       0x33 .\CortexM3\ARM_GCC_493\Debug\Design02.a(cyPm.o)
 .ARM.attributes
                0x000002c9       0x21 .\CortexM3\ARM_GCC_493\Debug\Design02.a(CyBootAsmGnu.o)
 .ARM.attributes
                0x000002ea       0x33 .\CortexM3\ARM_GCC_493\Debug\Design02.a(CyFlash.o)
 .ARM.attributes
                0x0000031d       0x33 .\CortexM3\ARM_GCC_493\Debug\Design02.a(CySpc.o)
 .ARM.attributes
                0x00000350       0x1d c:/program files (x86)/cypress/psoc creator/4.0/psoc creator/import/gnu/arm/4.9.3/bin/../lib/gcc/arm-none-eabi/4.9.3/armv7-m\libgcc.a(_arm_addsubdf3.o)
 .ARM.attributes
                0x0000036d       0x1d c:/program files (x86)/cypress/psoc creator/4.0/psoc creator/import/gnu/arm/4.9.3/bin/../lib/gcc/arm-none-eabi/4.9.3/armv7-m\libgcc.a(_arm_cmpdf2.o)
 .ARM.attributes
                0x0000038a       0x1d c:/program files (x86)/cypress/psoc creator/4.0/psoc creator/import/gnu/arm/4.9.3/bin/../lib/gcc/arm-none-eabi/4.9.3/armv7-m\libgcc.a(_arm_addsubsf3.o)
 .ARM.attributes
                0x000003a7       0x1d c:/program files (x86)/cypress/psoc creator/4.0/psoc creator/import/gnu/arm/4.9.3/bin/../lib/gcc/arm-none-eabi/4.9.3/armv7-m\libgcc.a(_arm_muldivsf3.o)
 .ARM.attributes
                0x000003c4       0x1d c:/program files (x86)/cypress/psoc creator/4.0/psoc creator/import/gnu/arm/4.9.3/bin/../lib/gcc/arm-none-eabi/4.9.3/armv7-m\libgcc.a(_arm_fixunssfsi.o)
 .ARM.attributes
                0x000003e1       0x2d c:/program files (x86)/cypress/psoc creator/4.0/psoc creator/import/gnu/arm/4.9.3/bin/../lib/gcc/arm-none-eabi/4.9.3/../../../../arm-none-eabi/lib/armv7-m\libg_nano.a(lib_a-errno.o)
 .ARM.attributes
                0x0000040e       0x2d c:/program files (x86)/cypress/psoc creator/4.0/psoc creator/import/gnu/arm/4.9.3/bin/../lib/gcc/arm-none-eabi/4.9.3/../../../../arm-none-eabi/lib/armv7-m\libg_nano.a(lib_a-exit.o)
 .ARM.attributes
                0x0000043b       0x2d c:/program files (x86)/cypress/psoc creator/4.0/psoc creator/import/gnu/arm/4.9.3/bin/../lib/gcc/arm-none-eabi/4.9.3/../../../../arm-none-eabi/lib/armv7-m\libg_nano.a(lib_a-impure.o)
 .ARM.attributes
                0x00000468       0x2d c:/program files (x86)/cypress/psoc creator/4.0/psoc creator/import/gnu/arm/4.9.3/bin/../lib/gcc/arm-none-eabi/4.9.3/../../../../arm-none-eabi/lib/armv7-m\libg_nano.a(lib_a-init.o)
 .ARM.attributes
                0x00000495       0x2d c:/program files (x86)/cypress/psoc creator/4.0/psoc creator/import/gnu/arm/4.9.3/bin/../lib/gcc/arm-none-eabi/4.9.3/../../../../arm-none-eabi/lib/armv7-m\libg_nano.a(lib_a-memcpy.o)
 .ARM.attributes
                0x000004c2       0x2d c:/program files (x86)/cypress/psoc creator/4.0/psoc creator/import/gnu/arm/4.9.3/bin/../lib/gcc/arm-none-eabi/4.9.3/../../../../arm-none-eabi/lib/armv7-m\libg_nano.a(lib_a-memset.o)
 .ARM.attributes
                0x000004ef       0x2d c:/program files (x86)/cypress/psoc creator/4.0/psoc creator/import/gnu/arm/4.9.3/bin/../lib/gcc/arm-none-eabi/4.9.3/armv7-m/crtend.o
 .ARM.attributes
                0x0000051c       0x1d c:/program files (x86)/cypress/psoc creator/4.0/psoc creator/import/gnu/arm/4.9.3/bin/../lib/gcc/arm-none-eabi/4.9.3/armv7-m/crtn.o

/DISCARD/
 *(.note.GNU-stack)
OUTPUT(.\CortexM3\ARM_GCC_493\Debug\Design02.elf elf32-littlearm)
