ARM GAS  C:\Users\kelvi\AppData\Local\Temp\cc5d61Ip.s 			page 1


   1              		.syntax unified
   2              		.cpu cortex-m3
   3              		.fpu softvfp
   4              		.eabi_attribute 20, 1
   5              		.eabi_attribute 21, 1
   6              		.eabi_attribute 23, 3
   7              		.eabi_attribute 24, 1
   8              		.eabi_attribute 25, 1
   9              		.eabi_attribute 26, 1
  10              		.eabi_attribute 30, 1
  11              		.eabi_attribute 34, 1
  12              		.eabi_attribute 18, 4
  13              		.thumb
  14              		.file	"LCD_Char_1.c"
  15              		.text
  16              	.Ltext0:
  17              		.cfi_sections	.debug_frame
  18              		.section	.text.LCD_Char_1_WrCntrlNib,"ax",%progbits
  19              		.align	2
  20              		.thumb
  21              		.thumb_func
  22              		.type	LCD_Char_1_WrCntrlNib, %function
  23              	LCD_Char_1_WrCntrlNib:
  24              	.LFB11:
  25              		.file 1 "Generated_Source\\PSoC5\\LCD_Char_1.c"
   1:Generated_Source\PSoC5/LCD_Char_1.c **** /*******************************************************************************
   2:Generated_Source\PSoC5/LCD_Char_1.c **** * File Name: LCD_Char_1.c
   3:Generated_Source\PSoC5/LCD_Char_1.c **** * Version 2.20
   4:Generated_Source\PSoC5/LCD_Char_1.c **** *
   5:Generated_Source\PSoC5/LCD_Char_1.c **** * Description:
   6:Generated_Source\PSoC5/LCD_Char_1.c **** *  This file provides source code for the Character LCD component's API.
   7:Generated_Source\PSoC5/LCD_Char_1.c **** *
   8:Generated_Source\PSoC5/LCD_Char_1.c **** * Note:
   9:Generated_Source\PSoC5/LCD_Char_1.c **** *
  10:Generated_Source\PSoC5/LCD_Char_1.c **** ********************************************************************************
  11:Generated_Source\PSoC5/LCD_Char_1.c **** * Copyright 2008-2014, Cypress Semiconductor Corporation.  All rights reserved.
  12:Generated_Source\PSoC5/LCD_Char_1.c **** * You may use this file only in accordance with the license, terms, conditions,
  13:Generated_Source\PSoC5/LCD_Char_1.c **** * disclaimers, and limitations in the end user license agreement accompanying
  14:Generated_Source\PSoC5/LCD_Char_1.c **** * the software package with which this file was provided.
  15:Generated_Source\PSoC5/LCD_Char_1.c **** *******************************************************************************/
  16:Generated_Source\PSoC5/LCD_Char_1.c **** 
  17:Generated_Source\PSoC5/LCD_Char_1.c **** #include "CyLib.h"
  18:Generated_Source\PSoC5/LCD_Char_1.c **** #include "LCD_Char_1.h"
  19:Generated_Source\PSoC5/LCD_Char_1.c **** 
  20:Generated_Source\PSoC5/LCD_Char_1.c **** 
  21:Generated_Source\PSoC5/LCD_Char_1.c **** static void LCD_Char_1_WrDatNib(uint8 nibble) ;
  22:Generated_Source\PSoC5/LCD_Char_1.c **** static void LCD_Char_1_WrCntrlNib(uint8 nibble) ;
  23:Generated_Source\PSoC5/LCD_Char_1.c **** 
  24:Generated_Source\PSoC5/LCD_Char_1.c **** /* Stores state of component. Indicates whether component is or not
  25:Generated_Source\PSoC5/LCD_Char_1.c **** * in enable state.
  26:Generated_Source\PSoC5/LCD_Char_1.c **** */
  27:Generated_Source\PSoC5/LCD_Char_1.c **** uint8 LCD_Char_1_enableState = 0u;
  28:Generated_Source\PSoC5/LCD_Char_1.c **** 
  29:Generated_Source\PSoC5/LCD_Char_1.c **** uint8 LCD_Char_1_initVar = 0u;
  30:Generated_Source\PSoC5/LCD_Char_1.c **** 
  31:Generated_Source\PSoC5/LCD_Char_1.c **** 
  32:Generated_Source\PSoC5/LCD_Char_1.c **** /*******************************************************************************
ARM GAS  C:\Users\kelvi\AppData\Local\Temp\cc5d61Ip.s 			page 2


  33:Generated_Source\PSoC5/LCD_Char_1.c **** * Function Name: LCD_Char_1_Init
  34:Generated_Source\PSoC5/LCD_Char_1.c **** ********************************************************************************
  35:Generated_Source\PSoC5/LCD_Char_1.c **** *
  36:Generated_Source\PSoC5/LCD_Char_1.c **** * Summary:
  37:Generated_Source\PSoC5/LCD_Char_1.c **** *  Performs initialization required for the components normal work.
  38:Generated_Source\PSoC5/LCD_Char_1.c **** *  This function initializes the LCD hardware module as follows:
  39:Generated_Source\PSoC5/LCD_Char_1.c **** *        Enables a 4-bit interface
  40:Generated_Source\PSoC5/LCD_Char_1.c **** *        Clears the display
  41:Generated_Source\PSoC5/LCD_Char_1.c **** *        Enables the auto cursor increment
  42:Generated_Source\PSoC5/LCD_Char_1.c **** *        Resets the cursor to start position
  43:Generated_Source\PSoC5/LCD_Char_1.c **** *  Also, it loads a custom character set to the LCD if it was defined in the customizer.
  44:Generated_Source\PSoC5/LCD_Char_1.c **** *
  45:Generated_Source\PSoC5/LCD_Char_1.c **** * Parameters:
  46:Generated_Source\PSoC5/LCD_Char_1.c **** *  None.
  47:Generated_Source\PSoC5/LCD_Char_1.c **** *
  48:Generated_Source\PSoC5/LCD_Char_1.c **** * Return:
  49:Generated_Source\PSoC5/LCD_Char_1.c **** *  None.
  50:Generated_Source\PSoC5/LCD_Char_1.c **** *
  51:Generated_Source\PSoC5/LCD_Char_1.c **** * Reentrant:
  52:Generated_Source\PSoC5/LCD_Char_1.c **** *  No.
  53:Generated_Source\PSoC5/LCD_Char_1.c **** *
  54:Generated_Source\PSoC5/LCD_Char_1.c **** *******************************************************************************/
  55:Generated_Source\PSoC5/LCD_Char_1.c **** void LCD_Char_1_Init(void) 
  56:Generated_Source\PSoC5/LCD_Char_1.c **** {
  57:Generated_Source\PSoC5/LCD_Char_1.c ****     /* INIT CODE */
  58:Generated_Source\PSoC5/LCD_Char_1.c ****     CyDelay(40u);                                                        /* Delay 40 ms */
  59:Generated_Source\PSoC5/LCD_Char_1.c ****     LCD_Char_1_WrCntrlNib(LCD_Char_1_DISPLAY_8_BIT_INIT);    /* Selects 8-bit mode */
  60:Generated_Source\PSoC5/LCD_Char_1.c ****     CyDelay(5u);                                                         /* Delay 5 ms */
  61:Generated_Source\PSoC5/LCD_Char_1.c ****     LCD_Char_1_WrCntrlNib(LCD_Char_1_DISPLAY_8_BIT_INIT);    /* Selects 8-bit mode */
  62:Generated_Source\PSoC5/LCD_Char_1.c ****     CyDelay(15u);                                                        /* Delay 15 ms */
  63:Generated_Source\PSoC5/LCD_Char_1.c ****     LCD_Char_1_WrCntrlNib(LCD_Char_1_DISPLAY_8_BIT_INIT);    /* Selects 8-bit mode */
  64:Generated_Source\PSoC5/LCD_Char_1.c ****     CyDelay(1u);                                                         /* Delay 1 ms */
  65:Generated_Source\PSoC5/LCD_Char_1.c ****     LCD_Char_1_WrCntrlNib(LCD_Char_1_DISPLAY_4_BIT_INIT);    /* Selects 4-bit mode */
  66:Generated_Source\PSoC5/LCD_Char_1.c ****     CyDelay(5u);                                                         /* Delay 5 ms */
  67:Generated_Source\PSoC5/LCD_Char_1.c **** 
  68:Generated_Source\PSoC5/LCD_Char_1.c ****     LCD_Char_1_WriteControl(LCD_Char_1_CURSOR_AUTO_INCR_ON);    /* Incr Cursor After Writes */
  69:Generated_Source\PSoC5/LCD_Char_1.c ****     LCD_Char_1_WriteControl(LCD_Char_1_DISPLAY_CURSOR_ON);      /* Turn Display, Cursor ON */
  70:Generated_Source\PSoC5/LCD_Char_1.c ****     LCD_Char_1_WriteControl(LCD_Char_1_DISPLAY_2_LINES_5x10);   /* 2 Lines by 5x10 Characters */
  71:Generated_Source\PSoC5/LCD_Char_1.c ****     LCD_Char_1_WriteControl(LCD_Char_1_DISPLAY_CURSOR_OFF);     /* Turn Display, Cursor OFF */
  72:Generated_Source\PSoC5/LCD_Char_1.c ****     LCD_Char_1_WriteControl(LCD_Char_1_CLEAR_DISPLAY);          /* Clear LCD Screen */
  73:Generated_Source\PSoC5/LCD_Char_1.c ****     LCD_Char_1_WriteControl(LCD_Char_1_DISPLAY_ON_CURSOR_OFF);  /* Turn Display ON, Cursor OFF */
  74:Generated_Source\PSoC5/LCD_Char_1.c ****     LCD_Char_1_WriteControl(LCD_Char_1_RESET_CURSOR_POSITION);  /* Set Cursor to 0,0 */
  75:Generated_Source\PSoC5/LCD_Char_1.c ****     CyDelay(5u);
  76:Generated_Source\PSoC5/LCD_Char_1.c **** 
  77:Generated_Source\PSoC5/LCD_Char_1.c ****     #if(LCD_Char_1_CUSTOM_CHAR_SET != LCD_Char_1_NONE)
  78:Generated_Source\PSoC5/LCD_Char_1.c ****         LCD_Char_1_LoadCustomFonts(LCD_Char_1_customFonts);
  79:Generated_Source\PSoC5/LCD_Char_1.c ****     #endif /* LCD_Char_1_CUSTOM_CHAR_SET != LCD_Char_1_NONE */
  80:Generated_Source\PSoC5/LCD_Char_1.c **** }
  81:Generated_Source\PSoC5/LCD_Char_1.c **** 
  82:Generated_Source\PSoC5/LCD_Char_1.c **** 
  83:Generated_Source\PSoC5/LCD_Char_1.c **** /*******************************************************************************
  84:Generated_Source\PSoC5/LCD_Char_1.c **** * Function Name: LCD_Char_1_Enable
  85:Generated_Source\PSoC5/LCD_Char_1.c **** ********************************************************************************
  86:Generated_Source\PSoC5/LCD_Char_1.c **** *
  87:Generated_Source\PSoC5/LCD_Char_1.c **** * Summary:
  88:Generated_Source\PSoC5/LCD_Char_1.c **** *  Turns on the display.
  89:Generated_Source\PSoC5/LCD_Char_1.c **** *
ARM GAS  C:\Users\kelvi\AppData\Local\Temp\cc5d61Ip.s 			page 3


  90:Generated_Source\PSoC5/LCD_Char_1.c **** * Parameters:
  91:Generated_Source\PSoC5/LCD_Char_1.c **** *  None.
  92:Generated_Source\PSoC5/LCD_Char_1.c **** *
  93:Generated_Source\PSoC5/LCD_Char_1.c **** * Return:
  94:Generated_Source\PSoC5/LCD_Char_1.c **** *  None.
  95:Generated_Source\PSoC5/LCD_Char_1.c **** *
  96:Generated_Source\PSoC5/LCD_Char_1.c **** * Reentrant:
  97:Generated_Source\PSoC5/LCD_Char_1.c **** *  No.
  98:Generated_Source\PSoC5/LCD_Char_1.c **** *
  99:Generated_Source\PSoC5/LCD_Char_1.c **** * Theory:
 100:Generated_Source\PSoC5/LCD_Char_1.c **** *  This function has no effect when it is called the first time as
 101:Generated_Source\PSoC5/LCD_Char_1.c **** *  LCD_Char_1_Init() turns on the LCD.
 102:Generated_Source\PSoC5/LCD_Char_1.c **** *
 103:Generated_Source\PSoC5/LCD_Char_1.c **** *******************************************************************************/
 104:Generated_Source\PSoC5/LCD_Char_1.c **** void LCD_Char_1_Enable(void) 
 105:Generated_Source\PSoC5/LCD_Char_1.c **** {
 106:Generated_Source\PSoC5/LCD_Char_1.c ****     LCD_Char_1_DisplayOn();
 107:Generated_Source\PSoC5/LCD_Char_1.c ****     LCD_Char_1_enableState = 1u;
 108:Generated_Source\PSoC5/LCD_Char_1.c **** }
 109:Generated_Source\PSoC5/LCD_Char_1.c **** 
 110:Generated_Source\PSoC5/LCD_Char_1.c **** 
 111:Generated_Source\PSoC5/LCD_Char_1.c **** /*******************************************************************************
 112:Generated_Source\PSoC5/LCD_Char_1.c **** * Function Name: LCD_Char_1_Start
 113:Generated_Source\PSoC5/LCD_Char_1.c **** ********************************************************************************
 114:Generated_Source\PSoC5/LCD_Char_1.c **** *
 115:Generated_Source\PSoC5/LCD_Char_1.c **** * Summary:
 116:Generated_Source\PSoC5/LCD_Char_1.c **** *  Performs initialization required for the components normal work.
 117:Generated_Source\PSoC5/LCD_Char_1.c **** *  This function initializes the LCD hardware module as follows:
 118:Generated_Source\PSoC5/LCD_Char_1.c **** *        Enables 4-bit interface
 119:Generated_Source\PSoC5/LCD_Char_1.c **** *        Clears the display
 120:Generated_Source\PSoC5/LCD_Char_1.c **** *        Enables auto cursor increment
 121:Generated_Source\PSoC5/LCD_Char_1.c **** *        Resets the cursor to start position
 122:Generated_Source\PSoC5/LCD_Char_1.c **** *  Also, it loads a custom character set to the LCD if it was defined in the customizer.
 123:Generated_Source\PSoC5/LCD_Char_1.c **** *  If it was not the first call in this project, then it just turns on the
 124:Generated_Source\PSoC5/LCD_Char_1.c **** *  display
 125:Generated_Source\PSoC5/LCD_Char_1.c **** *
 126:Generated_Source\PSoC5/LCD_Char_1.c **** *
 127:Generated_Source\PSoC5/LCD_Char_1.c **** * Parameters:
 128:Generated_Source\PSoC5/LCD_Char_1.c **** *  LCD_Char_1_initVar - global variable.
 129:Generated_Source\PSoC5/LCD_Char_1.c **** *
 130:Generated_Source\PSoC5/LCD_Char_1.c **** * Return:
 131:Generated_Source\PSoC5/LCD_Char_1.c **** *  LCD_Char_1_initVar - global variable.
 132:Generated_Source\PSoC5/LCD_Char_1.c **** *
 133:Generated_Source\PSoC5/LCD_Char_1.c **** * Reentrant:
 134:Generated_Source\PSoC5/LCD_Char_1.c **** *  No.
 135:Generated_Source\PSoC5/LCD_Char_1.c **** *
 136:Generated_Source\PSoC5/LCD_Char_1.c **** *******************************************************************************/
 137:Generated_Source\PSoC5/LCD_Char_1.c **** void LCD_Char_1_Start(void) 
 138:Generated_Source\PSoC5/LCD_Char_1.c **** {
 139:Generated_Source\PSoC5/LCD_Char_1.c ****     /* If not initialized, perform initialization */
 140:Generated_Source\PSoC5/LCD_Char_1.c ****     if(LCD_Char_1_initVar == 0u)
 141:Generated_Source\PSoC5/LCD_Char_1.c ****     {
 142:Generated_Source\PSoC5/LCD_Char_1.c ****         LCD_Char_1_Init();
 143:Generated_Source\PSoC5/LCD_Char_1.c ****         LCD_Char_1_initVar = 1u;
 144:Generated_Source\PSoC5/LCD_Char_1.c ****     }
 145:Generated_Source\PSoC5/LCD_Char_1.c **** 
 146:Generated_Source\PSoC5/LCD_Char_1.c ****     /* Turn on the LCD */
ARM GAS  C:\Users\kelvi\AppData\Local\Temp\cc5d61Ip.s 			page 4


 147:Generated_Source\PSoC5/LCD_Char_1.c ****     LCD_Char_1_Enable();
 148:Generated_Source\PSoC5/LCD_Char_1.c **** }
 149:Generated_Source\PSoC5/LCD_Char_1.c **** 
 150:Generated_Source\PSoC5/LCD_Char_1.c **** 
 151:Generated_Source\PSoC5/LCD_Char_1.c **** /*******************************************************************************
 152:Generated_Source\PSoC5/LCD_Char_1.c **** * Function Name: LCD_Char_1_Stop
 153:Generated_Source\PSoC5/LCD_Char_1.c **** ********************************************************************************
 154:Generated_Source\PSoC5/LCD_Char_1.c **** *
 155:Generated_Source\PSoC5/LCD_Char_1.c **** * Summary:
 156:Generated_Source\PSoC5/LCD_Char_1.c **** *  Turns off the display of the LCD screen.
 157:Generated_Source\PSoC5/LCD_Char_1.c **** *
 158:Generated_Source\PSoC5/LCD_Char_1.c **** * Parameters:
 159:Generated_Source\PSoC5/LCD_Char_1.c **** *  None.
 160:Generated_Source\PSoC5/LCD_Char_1.c **** *
 161:Generated_Source\PSoC5/LCD_Char_1.c **** * Return:
 162:Generated_Source\PSoC5/LCD_Char_1.c **** *  None.
 163:Generated_Source\PSoC5/LCD_Char_1.c **** *
 164:Generated_Source\PSoC5/LCD_Char_1.c **** * Reentrant:
 165:Generated_Source\PSoC5/LCD_Char_1.c **** *  No.
 166:Generated_Source\PSoC5/LCD_Char_1.c **** *
 167:Generated_Source\PSoC5/LCD_Char_1.c **** *******************************************************************************/
 168:Generated_Source\PSoC5/LCD_Char_1.c **** void LCD_Char_1_Stop(void) 
 169:Generated_Source\PSoC5/LCD_Char_1.c **** {
 170:Generated_Source\PSoC5/LCD_Char_1.c ****     /* Calls LCD Off Macro */
 171:Generated_Source\PSoC5/LCD_Char_1.c ****     LCD_Char_1_DisplayOff();
 172:Generated_Source\PSoC5/LCD_Char_1.c ****     LCD_Char_1_enableState = 0u;
 173:Generated_Source\PSoC5/LCD_Char_1.c **** }
 174:Generated_Source\PSoC5/LCD_Char_1.c **** 
 175:Generated_Source\PSoC5/LCD_Char_1.c **** 
 176:Generated_Source\PSoC5/LCD_Char_1.c **** /*******************************************************************************
 177:Generated_Source\PSoC5/LCD_Char_1.c **** *  Function Name: LCD_Char_1_Position
 178:Generated_Source\PSoC5/LCD_Char_1.c **** ********************************************************************************
 179:Generated_Source\PSoC5/LCD_Char_1.c **** *
 180:Generated_Source\PSoC5/LCD_Char_1.c **** * Summary:
 181:Generated_Source\PSoC5/LCD_Char_1.c **** *  Moves the active cursor location to a point specified by the input arguments
 182:Generated_Source\PSoC5/LCD_Char_1.c **** *
 183:Generated_Source\PSoC5/LCD_Char_1.c **** * Parameters:
 184:Generated_Source\PSoC5/LCD_Char_1.c **** *  row:    Specific row of LCD module to be written
 185:Generated_Source\PSoC5/LCD_Char_1.c **** *  column: Column of LCD module to be written
 186:Generated_Source\PSoC5/LCD_Char_1.c **** *
 187:Generated_Source\PSoC5/LCD_Char_1.c **** * Return:
 188:Generated_Source\PSoC5/LCD_Char_1.c **** *  None.
 189:Generated_Source\PSoC5/LCD_Char_1.c **** *
 190:Generated_Source\PSoC5/LCD_Char_1.c **** * Note:
 191:Generated_Source\PSoC5/LCD_Char_1.c **** *  This only applies for LCD displays that use the 2X40 address mode.
 192:Generated_Source\PSoC5/LCD_Char_1.c **** *  In this case Row 2 starts with a 0x28 offset from Row 1.
 193:Generated_Source\PSoC5/LCD_Char_1.c **** *  When there are more than 2 rows, each row must be fewer than 20 characters.
 194:Generated_Source\PSoC5/LCD_Char_1.c **** *
 195:Generated_Source\PSoC5/LCD_Char_1.c **** *******************************************************************************/
 196:Generated_Source\PSoC5/LCD_Char_1.c **** void LCD_Char_1_Position(uint8 row, uint8 column) 
 197:Generated_Source\PSoC5/LCD_Char_1.c **** {
 198:Generated_Source\PSoC5/LCD_Char_1.c ****     switch (row)
 199:Generated_Source\PSoC5/LCD_Char_1.c ****     {
 200:Generated_Source\PSoC5/LCD_Char_1.c ****         case (uint8)0:
 201:Generated_Source\PSoC5/LCD_Char_1.c ****             LCD_Char_1_WriteControl(LCD_Char_1_ROW_0_START + column);
 202:Generated_Source\PSoC5/LCD_Char_1.c ****             break;
 203:Generated_Source\PSoC5/LCD_Char_1.c ****         case (uint8) 1:
ARM GAS  C:\Users\kelvi\AppData\Local\Temp\cc5d61Ip.s 			page 5


 204:Generated_Source\PSoC5/LCD_Char_1.c ****             LCD_Char_1_WriteControl(LCD_Char_1_ROW_1_START + column);
 205:Generated_Source\PSoC5/LCD_Char_1.c ****             break;
 206:Generated_Source\PSoC5/LCD_Char_1.c ****         case (uint8) 2:
 207:Generated_Source\PSoC5/LCD_Char_1.c ****             LCD_Char_1_WriteControl(LCD_Char_1_ROW_2_START + column);
 208:Generated_Source\PSoC5/LCD_Char_1.c ****             break;
 209:Generated_Source\PSoC5/LCD_Char_1.c ****         case (uint8) 3:
 210:Generated_Source\PSoC5/LCD_Char_1.c ****             LCD_Char_1_WriteControl(LCD_Char_1_ROW_3_START + column);
 211:Generated_Source\PSoC5/LCD_Char_1.c ****             break;
 212:Generated_Source\PSoC5/LCD_Char_1.c ****         default:
 213:Generated_Source\PSoC5/LCD_Char_1.c ****             /* if default case is hit, invalid row argument was passed.*/
 214:Generated_Source\PSoC5/LCD_Char_1.c ****             break;
 215:Generated_Source\PSoC5/LCD_Char_1.c ****     }
 216:Generated_Source\PSoC5/LCD_Char_1.c **** }
 217:Generated_Source\PSoC5/LCD_Char_1.c **** 
 218:Generated_Source\PSoC5/LCD_Char_1.c **** 
 219:Generated_Source\PSoC5/LCD_Char_1.c **** /*******************************************************************************
 220:Generated_Source\PSoC5/LCD_Char_1.c **** * Function Name: LCD_Char_1_PrintString
 221:Generated_Source\PSoC5/LCD_Char_1.c **** ********************************************************************************
 222:Generated_Source\PSoC5/LCD_Char_1.c **** *
 223:Generated_Source\PSoC5/LCD_Char_1.c **** * Summary:
 224:Generated_Source\PSoC5/LCD_Char_1.c **** *  Writes a zero terminated string to the LCD.
 225:Generated_Source\PSoC5/LCD_Char_1.c **** *
 226:Generated_Source\PSoC5/LCD_Char_1.c **** * Parameters:
 227:Generated_Source\PSoC5/LCD_Char_1.c **** *  string: Pointer to head of char8 array to be written to the LCD module
 228:Generated_Source\PSoC5/LCD_Char_1.c **** *
 229:Generated_Source\PSoC5/LCD_Char_1.c **** * Return:
 230:Generated_Source\PSoC5/LCD_Char_1.c **** *  None.
 231:Generated_Source\PSoC5/LCD_Char_1.c **** *
 232:Generated_Source\PSoC5/LCD_Char_1.c **** *******************************************************************************/
 233:Generated_Source\PSoC5/LCD_Char_1.c **** void LCD_Char_1_PrintString(char8 const string[]) 
 234:Generated_Source\PSoC5/LCD_Char_1.c **** {
 235:Generated_Source\PSoC5/LCD_Char_1.c ****     uint8 indexU8 = 1u;
 236:Generated_Source\PSoC5/LCD_Char_1.c ****     char8 current = *string;
 237:Generated_Source\PSoC5/LCD_Char_1.c **** 
 238:Generated_Source\PSoC5/LCD_Char_1.c ****     /* Until null is reached, print next character */
 239:Generated_Source\PSoC5/LCD_Char_1.c ****     while((char8) '\0' != current)
 240:Generated_Source\PSoC5/LCD_Char_1.c ****     {
 241:Generated_Source\PSoC5/LCD_Char_1.c ****         LCD_Char_1_WriteData((uint8)current);
 242:Generated_Source\PSoC5/LCD_Char_1.c ****         current = string[indexU8];
 243:Generated_Source\PSoC5/LCD_Char_1.c ****         indexU8++;
 244:Generated_Source\PSoC5/LCD_Char_1.c ****     }
 245:Generated_Source\PSoC5/LCD_Char_1.c **** }
 246:Generated_Source\PSoC5/LCD_Char_1.c **** 
 247:Generated_Source\PSoC5/LCD_Char_1.c **** 
 248:Generated_Source\PSoC5/LCD_Char_1.c **** /*******************************************************************************
 249:Generated_Source\PSoC5/LCD_Char_1.c **** *  Function Name: LCD_Char_1_PutChar
 250:Generated_Source\PSoC5/LCD_Char_1.c **** ********************************************************************************
 251:Generated_Source\PSoC5/LCD_Char_1.c **** *
 252:Generated_Source\PSoC5/LCD_Char_1.c **** * Summary:
 253:Generated_Source\PSoC5/LCD_Char_1.c **** *  Writes a single character to the current cursor position of the LCD module.
 254:Generated_Source\PSoC5/LCD_Char_1.c **** *  Custom character names (_CUSTOM_0 through
 255:Generated_Source\PSoC5/LCD_Char_1.c **** *  _CUSTOM_7) are acceptable as inputs.
 256:Generated_Source\PSoC5/LCD_Char_1.c **** *
 257:Generated_Source\PSoC5/LCD_Char_1.c **** * Parameters:
 258:Generated_Source\PSoC5/LCD_Char_1.c **** *  character: Character to be written to LCD
 259:Generated_Source\PSoC5/LCD_Char_1.c **** *
 260:Generated_Source\PSoC5/LCD_Char_1.c **** * Return:
ARM GAS  C:\Users\kelvi\AppData\Local\Temp\cc5d61Ip.s 			page 6


 261:Generated_Source\PSoC5/LCD_Char_1.c **** *  None.
 262:Generated_Source\PSoC5/LCD_Char_1.c **** *
 263:Generated_Source\PSoC5/LCD_Char_1.c **** *******************************************************************************/
 264:Generated_Source\PSoC5/LCD_Char_1.c **** void LCD_Char_1_PutChar(char8 character) 
 265:Generated_Source\PSoC5/LCD_Char_1.c **** {
 266:Generated_Source\PSoC5/LCD_Char_1.c ****     LCD_Char_1_WriteData((uint8)character);
 267:Generated_Source\PSoC5/LCD_Char_1.c **** }
 268:Generated_Source\PSoC5/LCD_Char_1.c **** 
 269:Generated_Source\PSoC5/LCD_Char_1.c **** 
 270:Generated_Source\PSoC5/LCD_Char_1.c **** /*******************************************************************************
 271:Generated_Source\PSoC5/LCD_Char_1.c **** *  Function Name: LCD_Char_1_WriteData
 272:Generated_Source\PSoC5/LCD_Char_1.c **** ********************************************************************************
 273:Generated_Source\PSoC5/LCD_Char_1.c **** *
 274:Generated_Source\PSoC5/LCD_Char_1.c **** * Summary:
 275:Generated_Source\PSoC5/LCD_Char_1.c **** *  Writes a data byte to the LCD module's Data Display RAM.
 276:Generated_Source\PSoC5/LCD_Char_1.c **** *
 277:Generated_Source\PSoC5/LCD_Char_1.c **** * Parameters:
 278:Generated_Source\PSoC5/LCD_Char_1.c **** *  dByte: Byte to be written to the LCD module
 279:Generated_Source\PSoC5/LCD_Char_1.c **** *
 280:Generated_Source\PSoC5/LCD_Char_1.c **** * Return:
 281:Generated_Source\PSoC5/LCD_Char_1.c **** *  None.
 282:Generated_Source\PSoC5/LCD_Char_1.c **** *
 283:Generated_Source\PSoC5/LCD_Char_1.c **** *******************************************************************************/
 284:Generated_Source\PSoC5/LCD_Char_1.c **** void LCD_Char_1_WriteData(uint8 dByte) 
 285:Generated_Source\PSoC5/LCD_Char_1.c **** {
 286:Generated_Source\PSoC5/LCD_Char_1.c ****     uint8 nibble;
 287:Generated_Source\PSoC5/LCD_Char_1.c **** 
 288:Generated_Source\PSoC5/LCD_Char_1.c ****     LCD_Char_1_IsReady();
 289:Generated_Source\PSoC5/LCD_Char_1.c ****     nibble = dByte >> LCD_Char_1_NIBBLE_SHIFT;
 290:Generated_Source\PSoC5/LCD_Char_1.c **** 
 291:Generated_Source\PSoC5/LCD_Char_1.c ****     /* Write high nibble */
 292:Generated_Source\PSoC5/LCD_Char_1.c ****     LCD_Char_1_WrDatNib(nibble);
 293:Generated_Source\PSoC5/LCD_Char_1.c **** 
 294:Generated_Source\PSoC5/LCD_Char_1.c ****     nibble = dByte & LCD_Char_1_NIBBLE_MASK;
 295:Generated_Source\PSoC5/LCD_Char_1.c ****     /* Write low nibble */
 296:Generated_Source\PSoC5/LCD_Char_1.c ****     LCD_Char_1_WrDatNib(nibble);
 297:Generated_Source\PSoC5/LCD_Char_1.c **** }
 298:Generated_Source\PSoC5/LCD_Char_1.c **** 
 299:Generated_Source\PSoC5/LCD_Char_1.c **** 
 300:Generated_Source\PSoC5/LCD_Char_1.c **** /*******************************************************************************
 301:Generated_Source\PSoC5/LCD_Char_1.c **** *  Function Name: LCD_Char_1_WriteControl
 302:Generated_Source\PSoC5/LCD_Char_1.c **** ********************************************************************************
 303:Generated_Source\PSoC5/LCD_Char_1.c **** *
 304:Generated_Source\PSoC5/LCD_Char_1.c **** * Summary:
 305:Generated_Source\PSoC5/LCD_Char_1.c **** *  Writes a command byte to the LCD module.
 306:Generated_Source\PSoC5/LCD_Char_1.c **** *
 307:Generated_Source\PSoC5/LCD_Char_1.c **** * Parameters:
 308:Generated_Source\PSoC5/LCD_Char_1.c **** *  cByte:  The byte to be written to theLCD module
 309:Generated_Source\PSoC5/LCD_Char_1.c **** * 
 310:Generated_Source\PSoC5/LCD_Char_1.c **** * Return:
 311:Generated_Source\PSoC5/LCD_Char_1.c **** *  None.
 312:Generated_Source\PSoC5/LCD_Char_1.c **** *
 313:Generated_Source\PSoC5/LCD_Char_1.c **** *******************************************************************************/
 314:Generated_Source\PSoC5/LCD_Char_1.c **** void LCD_Char_1_WriteControl(uint8 cByte) 
 315:Generated_Source\PSoC5/LCD_Char_1.c **** {
 316:Generated_Source\PSoC5/LCD_Char_1.c ****     uint8 nibble;
 317:Generated_Source\PSoC5/LCD_Char_1.c **** 
ARM GAS  C:\Users\kelvi\AppData\Local\Temp\cc5d61Ip.s 			page 7


 318:Generated_Source\PSoC5/LCD_Char_1.c ****     LCD_Char_1_IsReady();
 319:Generated_Source\PSoC5/LCD_Char_1.c **** 
 320:Generated_Source\PSoC5/LCD_Char_1.c ****     nibble = cByte >> LCD_Char_1_NIBBLE_SHIFT;
 321:Generated_Source\PSoC5/LCD_Char_1.c ****     
 322:Generated_Source\PSoC5/LCD_Char_1.c ****     /* WrCntrlNib(High Nibble) */
 323:Generated_Source\PSoC5/LCD_Char_1.c ****     LCD_Char_1_WrCntrlNib(nibble);
 324:Generated_Source\PSoC5/LCD_Char_1.c ****     nibble = cByte & LCD_Char_1_NIBBLE_MASK;
 325:Generated_Source\PSoC5/LCD_Char_1.c **** 
 326:Generated_Source\PSoC5/LCD_Char_1.c ****     /* WrCntrlNib(Low Nibble) */
 327:Generated_Source\PSoC5/LCD_Char_1.c ****     LCD_Char_1_WrCntrlNib(nibble);
 328:Generated_Source\PSoC5/LCD_Char_1.c **** }
 329:Generated_Source\PSoC5/LCD_Char_1.c **** 
 330:Generated_Source\PSoC5/LCD_Char_1.c **** 
 331:Generated_Source\PSoC5/LCD_Char_1.c **** /*******************************************************************************
 332:Generated_Source\PSoC5/LCD_Char_1.c **** * Function Name: LCD_Char_1_IsReady
 333:Generated_Source\PSoC5/LCD_Char_1.c **** ********************************************************************************
 334:Generated_Source\PSoC5/LCD_Char_1.c **** *
 335:Generated_Source\PSoC5/LCD_Char_1.c **** * Summary:
 336:Generated_Source\PSoC5/LCD_Char_1.c **** *  Polls the LCD until the ready bit is set or a timeout occurs.
 337:Generated_Source\PSoC5/LCD_Char_1.c **** *
 338:Generated_Source\PSoC5/LCD_Char_1.c **** * Parameters:
 339:Generated_Source\PSoC5/LCD_Char_1.c **** *  None.
 340:Generated_Source\PSoC5/LCD_Char_1.c **** *
 341:Generated_Source\PSoC5/LCD_Char_1.c **** * Return:
 342:Generated_Source\PSoC5/LCD_Char_1.c **** *  None.
 343:Generated_Source\PSoC5/LCD_Char_1.c **** *
 344:Generated_Source\PSoC5/LCD_Char_1.c **** * Note:
 345:Generated_Source\PSoC5/LCD_Char_1.c **** *  Changes the pins to High-Z.
 346:Generated_Source\PSoC5/LCD_Char_1.c **** *
 347:Generated_Source\PSoC5/LCD_Char_1.c **** *******************************************************************************/
 348:Generated_Source\PSoC5/LCD_Char_1.c **** void LCD_Char_1_IsReady(void) 
 349:Generated_Source\PSoC5/LCD_Char_1.c **** {
 350:Generated_Source\PSoC5/LCD_Char_1.c ****     uint8 value;
 351:Generated_Source\PSoC5/LCD_Char_1.c ****     uint32 timeout;
 352:Generated_Source\PSoC5/LCD_Char_1.c ****     timeout = LCD_Char_1_READY_DELAY;
 353:Generated_Source\PSoC5/LCD_Char_1.c **** 
 354:Generated_Source\PSoC5/LCD_Char_1.c ****     /* Clear LCD port*/
 355:Generated_Source\PSoC5/LCD_Char_1.c ****     LCD_Char_1_PORT_DR_REG &= ((uint8)(~LCD_Char_1_PORT_MASK));
 356:Generated_Source\PSoC5/LCD_Char_1.c **** 
 357:Generated_Source\PSoC5/LCD_Char_1.c ****     /* PSoC4 has a little different from PSoC3/5 port/pin organization for setting Drive Modes.
 358:Generated_Source\PSoC5/LCD_Char_1.c ****   
 359:Generated_Source\PSoC5/LCD_Char_1.c ****     */
 360:Generated_Source\PSoC5/LCD_Char_1.c ****     #if (CY_PSOC4)
 361:Generated_Source\PSoC5/LCD_Char_1.c ****         
 362:Generated_Source\PSoC5/LCD_Char_1.c ****         /* Mask off data pins to clear old values out */
 363:Generated_Source\PSoC5/LCD_Char_1.c ****         value = LCD_Char_1_PORT_PC_REG & ((uint32) (~ LCD_Char_1_DM_DATA_MASK));
 364:Generated_Source\PSoC5/LCD_Char_1.c ****         /* Load in high Z values for data pins, others unchanged */
 365:Generated_Source\PSoC5/LCD_Char_1.c ****         LCD_Char_1_PORT_PC_REG = value | LCD_Char_1_HIGH_Z_DATA_DM;
 366:Generated_Source\PSoC5/LCD_Char_1.c **** 
 367:Generated_Source\PSoC5/LCD_Char_1.c ****     #else
 368:Generated_Source\PSoC5/LCD_Char_1.c ****     
 369:Generated_Source\PSoC5/LCD_Char_1.c ****         /* Change Port to High-Z Status on data pins */
 370:Generated_Source\PSoC5/LCD_Char_1.c **** 
 371:Generated_Source\PSoC5/LCD_Char_1.c ****         /* Mask off data pins to clear old values out */
 372:Generated_Source\PSoC5/LCD_Char_1.c ****         value = LCD_Char_1_PORT_DM0_REG & ((uint8)(~LCD_Char_1_DATA_MASK));
 373:Generated_Source\PSoC5/LCD_Char_1.c ****         /* Load in high Z values for data pins, others unchanged */
 374:Generated_Source\PSoC5/LCD_Char_1.c ****         LCD_Char_1_PORT_DM0_REG = value | (LCD_Char_1_HIGH_Z_DM0 & LCD_Char_1_DATA_MASK);
ARM GAS  C:\Users\kelvi\AppData\Local\Temp\cc5d61Ip.s 			page 8


 375:Generated_Source\PSoC5/LCD_Char_1.c **** 
 376:Generated_Source\PSoC5/LCD_Char_1.c ****         /* Mask off data pins to clear old values out */
 377:Generated_Source\PSoC5/LCD_Char_1.c ****         value = LCD_Char_1_PORT_DM1_REG & ((uint8)(~LCD_Char_1_DATA_MASK));
 378:Generated_Source\PSoC5/LCD_Char_1.c ****         /* Load in high Z values for data pins, others unchanged */
 379:Generated_Source\PSoC5/LCD_Char_1.c ****         LCD_Char_1_PORT_DM1_REG = value;
 380:Generated_Source\PSoC5/LCD_Char_1.c **** 
 381:Generated_Source\PSoC5/LCD_Char_1.c ****         /* Mask off data pins to clear old values out */
 382:Generated_Source\PSoC5/LCD_Char_1.c ****         value = LCD_Char_1_PORT_DM2_REG & ((uint8)(~LCD_Char_1_DATA_MASK));
 383:Generated_Source\PSoC5/LCD_Char_1.c ****         /* Load in high Z values for data pins, others unchanged */
 384:Generated_Source\PSoC5/LCD_Char_1.c ****         LCD_Char_1_PORT_DM2_REG = value;
 385:Generated_Source\PSoC5/LCD_Char_1.c ****     
 386:Generated_Source\PSoC5/LCD_Char_1.c ****     #endif /* CY_PSOC4 */
 387:Generated_Source\PSoC5/LCD_Char_1.c ****     
 388:Generated_Source\PSoC5/LCD_Char_1.c ****     /* Make sure RS is low */
 389:Generated_Source\PSoC5/LCD_Char_1.c ****     LCD_Char_1_PORT_DR_REG &= ((uint8)(~LCD_Char_1_RS));
 390:Generated_Source\PSoC5/LCD_Char_1.c **** 
 391:Generated_Source\PSoC5/LCD_Char_1.c ****     /* Set R/W high to read */
 392:Generated_Source\PSoC5/LCD_Char_1.c ****     LCD_Char_1_PORT_DR_REG |= LCD_Char_1_RW;
 393:Generated_Source\PSoC5/LCD_Char_1.c **** 
 394:Generated_Source\PSoC5/LCD_Char_1.c ****     do
 395:Generated_Source\PSoC5/LCD_Char_1.c ****     {
 396:Generated_Source\PSoC5/LCD_Char_1.c ****         /* 40 ns delay required before rising Enable and 500ns between neighbour Enables */
 397:Generated_Source\PSoC5/LCD_Char_1.c ****         CyDelayUs(0u);
 398:Generated_Source\PSoC5/LCD_Char_1.c **** 
 399:Generated_Source\PSoC5/LCD_Char_1.c ****         /* Set E high */
 400:Generated_Source\PSoC5/LCD_Char_1.c ****         LCD_Char_1_PORT_DR_REG |= LCD_Char_1_E;
 401:Generated_Source\PSoC5/LCD_Char_1.c **** 
 402:Generated_Source\PSoC5/LCD_Char_1.c ****         /* 360 ns delay setup time for data pins */
 403:Generated_Source\PSoC5/LCD_Char_1.c ****         CyDelayUs(1u);
 404:Generated_Source\PSoC5/LCD_Char_1.c **** 
 405:Generated_Source\PSoC5/LCD_Char_1.c ****         /* Get port state */
 406:Generated_Source\PSoC5/LCD_Char_1.c ****         value = LCD_Char_1_PORT_PS_REG;
 407:Generated_Source\PSoC5/LCD_Char_1.c **** 
 408:Generated_Source\PSoC5/LCD_Char_1.c ****         /* Set enable low */
 409:Generated_Source\PSoC5/LCD_Char_1.c ****         LCD_Char_1_PORT_DR_REG &= ((uint8)(~LCD_Char_1_E));
 410:Generated_Source\PSoC5/LCD_Char_1.c **** 
 411:Generated_Source\PSoC5/LCD_Char_1.c ****         /* This gives true delay between disabling Enable bit and polling Ready bit */
 412:Generated_Source\PSoC5/LCD_Char_1.c ****         CyDelayUs(0u);
 413:Generated_Source\PSoC5/LCD_Char_1.c **** 
 414:Generated_Source\PSoC5/LCD_Char_1.c ****         /* Extract ready bit */
 415:Generated_Source\PSoC5/LCD_Char_1.c ****         value &= LCD_Char_1_READY_BIT;
 416:Generated_Source\PSoC5/LCD_Char_1.c **** 
 417:Generated_Source\PSoC5/LCD_Char_1.c ****         /* Set E high as we in 4-bit interface we need extra operation */
 418:Generated_Source\PSoC5/LCD_Char_1.c ****         LCD_Char_1_PORT_DR_REG |= LCD_Char_1_E;
 419:Generated_Source\PSoC5/LCD_Char_1.c **** 
 420:Generated_Source\PSoC5/LCD_Char_1.c ****         /* 360 ns delay setup time for data pins */
 421:Generated_Source\PSoC5/LCD_Char_1.c ****         CyDelayUs(1u);
 422:Generated_Source\PSoC5/LCD_Char_1.c **** 
 423:Generated_Source\PSoC5/LCD_Char_1.c ****         /* Set enable low */
 424:Generated_Source\PSoC5/LCD_Char_1.c ****         LCD_Char_1_PORT_DR_REG &= ((uint8)(~LCD_Char_1_E));
 425:Generated_Source\PSoC5/LCD_Char_1.c **** 
 426:Generated_Source\PSoC5/LCD_Char_1.c ****         /* If LCD is not ready make a delay */
 427:Generated_Source\PSoC5/LCD_Char_1.c ****         if (value == 0u)
 428:Generated_Source\PSoC5/LCD_Char_1.c ****         {
 429:Generated_Source\PSoC5/LCD_Char_1.c ****             CyDelayUs(10u);
 430:Generated_Source\PSoC5/LCD_Char_1.c ****         }
 431:Generated_Source\PSoC5/LCD_Char_1.c **** 
ARM GAS  C:\Users\kelvi\AppData\Local\Temp\cc5d61Ip.s 			page 9


 432:Generated_Source\PSoC5/LCD_Char_1.c ****         /* Repeat until bit 4 is not zero or until timeout. */
 433:Generated_Source\PSoC5/LCD_Char_1.c ****         timeout--;
 434:Generated_Source\PSoC5/LCD_Char_1.c **** 
 435:Generated_Source\PSoC5/LCD_Char_1.c ****     } while ((value != 0u) && (timeout > 0u));
 436:Generated_Source\PSoC5/LCD_Char_1.c **** 
 437:Generated_Source\PSoC5/LCD_Char_1.c ****     /* Set R/W low to write */
 438:Generated_Source\PSoC5/LCD_Char_1.c ****     LCD_Char_1_PORT_DR_REG &= ((uint8)(~LCD_Char_1_RW));
 439:Generated_Source\PSoC5/LCD_Char_1.c **** 
 440:Generated_Source\PSoC5/LCD_Char_1.c ****     /* Clear LCD port*/
 441:Generated_Source\PSoC5/LCD_Char_1.c ****     LCD_Char_1_PORT_DR_REG &= ((uint8)(~LCD_Char_1_PORT_MASK));
 442:Generated_Source\PSoC5/LCD_Char_1.c **** 
 443:Generated_Source\PSoC5/LCD_Char_1.c ****     #if (CY_PSOC4)
 444:Generated_Source\PSoC5/LCD_Char_1.c ****         
 445:Generated_Source\PSoC5/LCD_Char_1.c ****         /* Mask off data pins to clear old values out */
 446:Generated_Source\PSoC5/LCD_Char_1.c ****         value = LCD_Char_1_PORT_PC_REG & ((uint32)(~ LCD_Char_1_DM_DATA_MASK));
 447:Generated_Source\PSoC5/LCD_Char_1.c ****         /* Load in high Z values for data pins, others unchanged */
 448:Generated_Source\PSoC5/LCD_Char_1.c ****         LCD_Char_1_PORT_PC_REG = value | LCD_Char_1_STRONG_DATA_DM;
 449:Generated_Source\PSoC5/LCD_Char_1.c **** 
 450:Generated_Source\PSoC5/LCD_Char_1.c ****     #else
 451:Generated_Source\PSoC5/LCD_Char_1.c **** 
 452:Generated_Source\PSoC5/LCD_Char_1.c ****         /* Change Port to Output (Strong) on data pins */
 453:Generated_Source\PSoC5/LCD_Char_1.c ****         /* Mask off data pins to clear high z values out. Configure data pins 
 454:Generated_Source\PSoC5/LCD_Char_1.c ****         * to Strong Drive, others unchanged.
 455:Generated_Source\PSoC5/LCD_Char_1.c ****         */
 456:Generated_Source\PSoC5/LCD_Char_1.c ****         LCD_Char_1_PORT_DM0_REG &= ((uint8)(~LCD_Char_1_DATA_MASK));
 457:Generated_Source\PSoC5/LCD_Char_1.c ****         /* Mask off data pins to clear high z values out */
 458:Generated_Source\PSoC5/LCD_Char_1.c ****         value = LCD_Char_1_PORT_DM1_REG & ((uint8)(~LCD_Char_1_DATA_MASK));
 459:Generated_Source\PSoC5/LCD_Char_1.c ****         /* Configure data pins to Strong Drive, others unchanged */
 460:Generated_Source\PSoC5/LCD_Char_1.c ****         LCD_Char_1_PORT_DM1_REG = value | (LCD_Char_1_STRONG_DM1 & LCD_Char_1_DATA_MASK);
 461:Generated_Source\PSoC5/LCD_Char_1.c **** 
 462:Generated_Source\PSoC5/LCD_Char_1.c ****         /* Mask off data pins to clear high z values out */
 463:Generated_Source\PSoC5/LCD_Char_1.c ****         value = LCD_Char_1_PORT_DM2_REG & ((uint8)(~LCD_Char_1_DATA_MASK));
 464:Generated_Source\PSoC5/LCD_Char_1.c ****         /* Configure data pins to Strong Drive, others unchanged */
 465:Generated_Source\PSoC5/LCD_Char_1.c ****         LCD_Char_1_PORT_DM2_REG = value | (LCD_Char_1_STRONG_DM2 & LCD_Char_1_DATA_MASK);
 466:Generated_Source\PSoC5/LCD_Char_1.c ****     
 467:Generated_Source\PSoC5/LCD_Char_1.c ****     #endif /* CY_PSOC4 */
 468:Generated_Source\PSoC5/LCD_Char_1.c **** }
 469:Generated_Source\PSoC5/LCD_Char_1.c **** 
 470:Generated_Source\PSoC5/LCD_Char_1.c **** 
 471:Generated_Source\PSoC5/LCD_Char_1.c **** /*******************************************************************************
 472:Generated_Source\PSoC5/LCD_Char_1.c **** *  Function Name: LCD_Char_1_WrDatNib
 473:Generated_Source\PSoC5/LCD_Char_1.c **** ********************************************************************************
 474:Generated_Source\PSoC5/LCD_Char_1.c **** *
 475:Generated_Source\PSoC5/LCD_Char_1.c **** * Summary:
 476:Generated_Source\PSoC5/LCD_Char_1.c **** *  Writes a data nibble to the LCD module.
 477:Generated_Source\PSoC5/LCD_Char_1.c **** *
 478:Generated_Source\PSoC5/LCD_Char_1.c **** * Parameters:
 479:Generated_Source\PSoC5/LCD_Char_1.c **** *  nibble:  Byte containing nibble in the least significant nibble to be
 480:Generated_Source\PSoC5/LCD_Char_1.c **** *           written to the LCD module.
 481:Generated_Source\PSoC5/LCD_Char_1.c **** *
 482:Generated_Source\PSoC5/LCD_Char_1.c **** * Return:
 483:Generated_Source\PSoC5/LCD_Char_1.c **** *  None.
 484:Generated_Source\PSoC5/LCD_Char_1.c **** *
 485:Generated_Source\PSoC5/LCD_Char_1.c **** *******************************************************************************/
 486:Generated_Source\PSoC5/LCD_Char_1.c **** static void LCD_Char_1_WrDatNib(uint8 nibble) 
 487:Generated_Source\PSoC5/LCD_Char_1.c **** {
 488:Generated_Source\PSoC5/LCD_Char_1.c ****     /* RS should be low to select data register */
ARM GAS  C:\Users\kelvi\AppData\Local\Temp\cc5d61Ip.s 			page 10


 489:Generated_Source\PSoC5/LCD_Char_1.c ****     LCD_Char_1_PORT_DR_REG |= LCD_Char_1_RS;
 490:Generated_Source\PSoC5/LCD_Char_1.c ****     /* Reset RW for write operation */
 491:Generated_Source\PSoC5/LCD_Char_1.c ****     LCD_Char_1_PORT_DR_REG &= ((uint8)(~LCD_Char_1_RW));
 492:Generated_Source\PSoC5/LCD_Char_1.c **** 
 493:Generated_Source\PSoC5/LCD_Char_1.c ****     /* Guaranteed delay between Setting RS and RW and setting E bits */
 494:Generated_Source\PSoC5/LCD_Char_1.c ****     CyDelayUs(0u);
 495:Generated_Source\PSoC5/LCD_Char_1.c ****     
 496:Generated_Source\PSoC5/LCD_Char_1.c ****     /* Clear data pins */
 497:Generated_Source\PSoC5/LCD_Char_1.c ****     LCD_Char_1_PORT_DR_REG &= ((uint8)(~LCD_Char_1_DATA_MASK));
 498:Generated_Source\PSoC5/LCD_Char_1.c **** 
 499:Generated_Source\PSoC5/LCD_Char_1.c ****     /* Write data, bring E high */
 500:Generated_Source\PSoC5/LCD_Char_1.c ****     #if(0u != LCD_Char_1_PORT_SHIFT) /* MISRA forbids shift by 0 so need to handle that */
 501:Generated_Source\PSoC5/LCD_Char_1.c ****         LCD_Char_1_PORT_DR_REG |= 
 502:Generated_Source\PSoC5/LCD_Char_1.c ****             (LCD_Char_1_E | ((uint8)(((uint8) nibble) << LCD_Char_1_PORT_SHIFT)));
 503:Generated_Source\PSoC5/LCD_Char_1.c ****     #else
 504:Generated_Source\PSoC5/LCD_Char_1.c ****         LCD_Char_1_PORT_DR_REG |= (LCD_Char_1_E | nibble);
 505:Generated_Source\PSoC5/LCD_Char_1.c ****     #endif /* (0u != LCD_Char_1_PORT_SHIFT) */
 506:Generated_Source\PSoC5/LCD_Char_1.c **** 
 507:Generated_Source\PSoC5/LCD_Char_1.c ****     /* Minimum of 230 ns delay */
 508:Generated_Source\PSoC5/LCD_Char_1.c ****     CyDelayUs(1u);
 509:Generated_Source\PSoC5/LCD_Char_1.c **** 
 510:Generated_Source\PSoC5/LCD_Char_1.c ****     LCD_Char_1_PORT_DR_REG &= ((uint8)(~LCD_Char_1_E));
 511:Generated_Source\PSoC5/LCD_Char_1.c **** }
 512:Generated_Source\PSoC5/LCD_Char_1.c **** 
 513:Generated_Source\PSoC5/LCD_Char_1.c **** 
 514:Generated_Source\PSoC5/LCD_Char_1.c **** /*******************************************************************************
 515:Generated_Source\PSoC5/LCD_Char_1.c **** *  Function Name: LCD_Char_1_WrCntrlNib
 516:Generated_Source\PSoC5/LCD_Char_1.c **** ********************************************************************************
 517:Generated_Source\PSoC5/LCD_Char_1.c **** *
 518:Generated_Source\PSoC5/LCD_Char_1.c **** * Summary:
 519:Generated_Source\PSoC5/LCD_Char_1.c **** *  Writes a control nibble to the LCD module.
 520:Generated_Source\PSoC5/LCD_Char_1.c **** *
 521:Generated_Source\PSoC5/LCD_Char_1.c **** * Parameters:
 522:Generated_Source\PSoC5/LCD_Char_1.c **** *  nibble: The byte containing a nibble in the four least significant bits.????
 523:Generated_Source\PSoC5/LCD_Char_1.c **** *
 524:Generated_Source\PSoC5/LCD_Char_1.c **** * Return:
 525:Generated_Source\PSoC5/LCD_Char_1.c **** *  None.
 526:Generated_Source\PSoC5/LCD_Char_1.c **** *
 527:Generated_Source\PSoC5/LCD_Char_1.c **** *******************************************************************************/
 528:Generated_Source\PSoC5/LCD_Char_1.c **** static void LCD_Char_1_WrCntrlNib(uint8 nibble) 
 529:Generated_Source\PSoC5/LCD_Char_1.c **** {
  26              		.loc 1 529 0
  27              		.cfi_startproc
  28              		@ args = 0, pretend = 0, frame = 0
  29              		@ frame_needed = 0, uses_anonymous_args = 0
  30              	.LVL0:
  31 0000 10B5     		push	{r4, lr}
  32              		.cfi_def_cfa_offset 8
  33              		.cfi_offset 4, -8
  34              		.cfi_offset 14, -4
 530:Generated_Source\PSoC5/LCD_Char_1.c ****     /* RS and RW should be low to select instruction register and  write operation respectively */
 531:Generated_Source\PSoC5/LCD_Char_1.c ****     LCD_Char_1_PORT_DR_REG &= ((uint8)(~(LCD_Char_1_RS | LCD_Char_1_RW)));
  35              		.loc 1 531 0
  36 0002 0C4C     		ldr	r4, .L3
  37 0004 2378     		ldrb	r3, [r4]	@ zero_extendqisi2
  38 0006 03F03F03 		and	r3, r3, #63
  39 000a 2370     		strb	r3, [r4]
ARM GAS  C:\Users\kelvi\AppData\Local\Temp\cc5d61Ip.s 			page 11


 532:Generated_Source\PSoC5/LCD_Char_1.c **** 
 533:Generated_Source\PSoC5/LCD_Char_1.c ****     /* Two following lines of code will give 40ns delay */
 534:Generated_Source\PSoC5/LCD_Char_1.c ****     /* Clear data pins */
 535:Generated_Source\PSoC5/LCD_Char_1.c ****     LCD_Char_1_PORT_DR_REG &= ((uint8)(~LCD_Char_1_DATA_MASK));
  40              		.loc 1 535 0
  41 000c 2378     		ldrb	r3, [r4]	@ zero_extendqisi2
  42 000e 03F0E103 		and	r3, r3, #225
  43 0012 2370     		strb	r3, [r4]
 536:Generated_Source\PSoC5/LCD_Char_1.c **** 
 537:Generated_Source\PSoC5/LCD_Char_1.c ****     /* Write control data and set enable signal */
 538:Generated_Source\PSoC5/LCD_Char_1.c ****     #if(0u != LCD_Char_1_PORT_SHIFT) /* MISRA forbids shift by 0 so need to handle that */
 539:Generated_Source\PSoC5/LCD_Char_1.c ****         LCD_Char_1_PORT_DR_REG |= 
  44              		.loc 1 539 0
  45 0014 2378     		ldrb	r3, [r4]	@ zero_extendqisi2
 540:Generated_Source\PSoC5/LCD_Char_1.c ****             (LCD_Char_1_E | ((uint8)(((uint8) nibble) << LCD_Char_1_PORT_SHIFT)));
  46              		.loc 1 540 0
  47 0016 4000     		lsls	r0, r0, #1
  48              	.LVL1:
  49 0018 C0B2     		uxtb	r0, r0
 539:Generated_Source\PSoC5/LCD_Char_1.c ****             (LCD_Char_1_E | ((uint8)(((uint8) nibble) << LCD_Char_1_PORT_SHIFT)));
  50              		.loc 1 539 0
  51 001a 1843     		orrs	r0, r0, r3
  52 001c 40F02000 		orr	r0, r0, #32
  53 0020 2070     		strb	r0, [r4]
 541:Generated_Source\PSoC5/LCD_Char_1.c ****     #else
 542:Generated_Source\PSoC5/LCD_Char_1.c ****         LCD_Char_1_PORT_DR_REG |= (LCD_Char_1_E | nibble);
 543:Generated_Source\PSoC5/LCD_Char_1.c ****     #endif /* (0u != LCD_Char_1_PORT_SHIFT) */
 544:Generated_Source\PSoC5/LCD_Char_1.c **** 
 545:Generated_Source\PSoC5/LCD_Char_1.c ****     /* Minimum of 230 ns delay */
 546:Generated_Source\PSoC5/LCD_Char_1.c ****     CyDelayUs(1u);
  54              		.loc 1 546 0
  55 0022 0120     		movs	r0, #1
  56 0024 FFF7FEFF 		bl	CyDelayUs
  57              	.LVL2:
 547:Generated_Source\PSoC5/LCD_Char_1.c **** 
 548:Generated_Source\PSoC5/LCD_Char_1.c ****     LCD_Char_1_PORT_DR_REG &= ((uint8)(~LCD_Char_1_E));
  58              		.loc 1 548 0
  59 0028 2378     		ldrb	r3, [r4]	@ zero_extendqisi2
  60 002a 03F0DF03 		and	r3, r3, #223
  61 002e 2370     		strb	r3, [r4]
  62 0030 10BD     		pop	{r4, pc}
  63              	.L4:
  64 0032 00BF     		.align	2
  65              	.L3:
  66 0034 00510040 		.word	1073762560
  67              		.cfi_endproc
  68              	.LFE11:
  69              		.size	LCD_Char_1_WrCntrlNib, .-LCD_Char_1_WrCntrlNib
  70              		.section	.text.LCD_Char_1_WrDatNib,"ax",%progbits
  71              		.align	2
  72              		.thumb
  73              		.thumb_func
  74              		.type	LCD_Char_1_WrDatNib, %function
  75              	LCD_Char_1_WrDatNib:
  76              	.LFB10:
 487:Generated_Source\PSoC5/LCD_Char_1.c ****     /* RS should be low to select data register */
  77              		.loc 1 487 0
ARM GAS  C:\Users\kelvi\AppData\Local\Temp\cc5d61Ip.s 			page 12


  78              		.cfi_startproc
  79              		@ args = 0, pretend = 0, frame = 0
  80              		@ frame_needed = 0, uses_anonymous_args = 0
  81              	.LVL3:
  82 0000 38B5     		push	{r3, r4, r5, lr}
  83              		.cfi_def_cfa_offset 16
  84              		.cfi_offset 3, -16
  85              		.cfi_offset 4, -12
  86              		.cfi_offset 5, -8
  87              		.cfi_offset 14, -4
  88 0002 0546     		mov	r5, r0
 489:Generated_Source\PSoC5/LCD_Char_1.c ****     /* Reset RW for write operation */
  89              		.loc 1 489 0
  90 0004 0F4C     		ldr	r4, .L7
  91 0006 2378     		ldrb	r3, [r4]	@ zero_extendqisi2
  92 0008 43F04003 		orr	r3, r3, #64
  93 000c 2370     		strb	r3, [r4]
 491:Generated_Source\PSoC5/LCD_Char_1.c **** 
  94              		.loc 1 491 0
  95 000e 2378     		ldrb	r3, [r4]	@ zero_extendqisi2
  96 0010 03F07F03 		and	r3, r3, #127
  97 0014 2370     		strb	r3, [r4]
 494:Generated_Source\PSoC5/LCD_Char_1.c ****     
  98              		.loc 1 494 0
  99 0016 0020     		movs	r0, #0
 100              	.LVL4:
 101 0018 FFF7FEFF 		bl	CyDelayUs
 102              	.LVL5:
 497:Generated_Source\PSoC5/LCD_Char_1.c **** 
 103              		.loc 1 497 0
 104 001c 2378     		ldrb	r3, [r4]	@ zero_extendqisi2
 105 001e 03F0E103 		and	r3, r3, #225
 106 0022 2370     		strb	r3, [r4]
 501:Generated_Source\PSoC5/LCD_Char_1.c ****             (LCD_Char_1_E | ((uint8)(((uint8) nibble) << LCD_Char_1_PORT_SHIFT)));
 107              		.loc 1 501 0
 108 0024 2378     		ldrb	r3, [r4]	@ zero_extendqisi2
 502:Generated_Source\PSoC5/LCD_Char_1.c ****     #else
 109              		.loc 1 502 0
 110 0026 6D00     		lsls	r5, r5, #1
 111 0028 EDB2     		uxtb	r5, r5
 501:Generated_Source\PSoC5/LCD_Char_1.c ****             (LCD_Char_1_E | ((uint8)(((uint8) nibble) << LCD_Char_1_PORT_SHIFT)));
 112              		.loc 1 501 0
 113 002a 1D43     		orrs	r5, r5, r3
 114 002c 45F02005 		orr	r5, r5, #32
 115 0030 2570     		strb	r5, [r4]
 508:Generated_Source\PSoC5/LCD_Char_1.c **** 
 116              		.loc 1 508 0
 117 0032 0120     		movs	r0, #1
 118 0034 FFF7FEFF 		bl	CyDelayUs
 119              	.LVL6:
 510:Generated_Source\PSoC5/LCD_Char_1.c **** }
 120              		.loc 1 510 0
 121 0038 2378     		ldrb	r3, [r4]	@ zero_extendqisi2
 122 003a 03F0DF03 		and	r3, r3, #223
 123 003e 2370     		strb	r3, [r4]
 124 0040 38BD     		pop	{r3, r4, r5, pc}
 125              	.L8:
ARM GAS  C:\Users\kelvi\AppData\Local\Temp\cc5d61Ip.s 			page 13


 126 0042 00BF     		.align	2
 127              	.L7:
 128 0044 00510040 		.word	1073762560
 129              		.cfi_endproc
 130              	.LFE10:
 131              		.size	LCD_Char_1_WrDatNib, .-LCD_Char_1_WrDatNib
 132              		.section	.text.LCD_Char_1_IsReady,"ax",%progbits
 133              		.align	2
 134              		.global	LCD_Char_1_IsReady
 135              		.thumb
 136              		.thumb_func
 137              		.type	LCD_Char_1_IsReady, %function
 138              	LCD_Char_1_IsReady:
 139              	.LFB9:
 349:Generated_Source\PSoC5/LCD_Char_1.c ****     uint8 value;
 140              		.loc 1 349 0
 141              		.cfi_startproc
 142              		@ args = 0, pretend = 0, frame = 0
 143              		@ frame_needed = 0, uses_anonymous_args = 0
 144 0000 70B5     		push	{r4, r5, r6, lr}
 145              		.cfi_def_cfa_offset 16
 146              		.cfi_offset 4, -16
 147              		.cfi_offset 5, -12
 148              		.cfi_offset 6, -8
 149              		.cfi_offset 14, -4
 150              	.LVL7:
 355:Generated_Source\PSoC5/LCD_Char_1.c **** 
 151              		.loc 1 355 0
 152 0002 344B     		ldr	r3, .L14
 153 0004 1A78     		ldrb	r2, [r3]	@ zero_extendqisi2
 154 0006 02F00102 		and	r2, r2, #1
 155 000a 1A70     		strb	r2, [r3]
 372:Generated_Source\PSoC5/LCD_Char_1.c ****         /* Load in high Z values for data pins, others unchanged */
 156              		.loc 1 372 0
 157 000c 3249     		ldr	r1, .L14+4
 158 000e 0A78     		ldrb	r2, [r1]	@ zero_extendqisi2
 159 0010 02F0E102 		and	r2, r2, #225
 160              	.LVL8:
 374:Generated_Source\PSoC5/LCD_Char_1.c **** 
 161              		.loc 1 374 0
 162 0014 42F01E02 		orr	r2, r2, #30
 163              	.LVL9:
 164 0018 0A70     		strb	r2, [r1]
 377:Generated_Source\PSoC5/LCD_Char_1.c ****         /* Load in high Z values for data pins, others unchanged */
 165              		.loc 1 377 0
 166 001a 0131     		adds	r1, r1, #1
 167 001c 0A78     		ldrb	r2, [r1]	@ zero_extendqisi2
 168 001e 02F0E102 		and	r2, r2, #225
 169              	.LVL10:
 379:Generated_Source\PSoC5/LCD_Char_1.c **** 
 170              		.loc 1 379 0
 171 0022 0A70     		strb	r2, [r1]
 382:Generated_Source\PSoC5/LCD_Char_1.c ****         /* Load in high Z values for data pins, others unchanged */
 172              		.loc 1 382 0
 173 0024 0131     		adds	r1, r1, #1
 174 0026 0A78     		ldrb	r2, [r1]	@ zero_extendqisi2
 175              	.LVL11:
ARM GAS  C:\Users\kelvi\AppData\Local\Temp\cc5d61Ip.s 			page 14


 176 0028 02F0E102 		and	r2, r2, #225
 177              	.LVL12:
 384:Generated_Source\PSoC5/LCD_Char_1.c ****     
 178              		.loc 1 384 0
 179 002c 0A70     		strb	r2, [r1]
 389:Generated_Source\PSoC5/LCD_Char_1.c **** 
 180              		.loc 1 389 0
 181 002e 1A78     		ldrb	r2, [r3]	@ zero_extendqisi2
 182              	.LVL13:
 183 0030 02F0BF02 		and	r2, r2, #191
 184 0034 1A70     		strb	r2, [r3]
 185              	.LVL14:
 392:Generated_Source\PSoC5/LCD_Char_1.c **** 
 186              		.loc 1 392 0
 187 0036 1A78     		ldrb	r2, [r3]	@ zero_extendqisi2
 188 0038 42F08002 		orr	r2, r2, #128
 189 003c 1A70     		strb	r2, [r3]
 352:Generated_Source\PSoC5/LCD_Char_1.c **** 
 190              		.loc 1 352 0
 191 003e 4FF4CA76 		mov	r6, #404
 192              	.LVL15:
 193              	.L12:
 397:Generated_Source\PSoC5/LCD_Char_1.c **** 
 194              		.loc 1 397 0
 195 0042 0020     		movs	r0, #0
 196 0044 FFF7FEFF 		bl	CyDelayUs
 197              	.LVL16:
 400:Generated_Source\PSoC5/LCD_Char_1.c **** 
 198              		.loc 1 400 0
 199 0048 224D     		ldr	r5, .L14
 200 004a 2B78     		ldrb	r3, [r5]	@ zero_extendqisi2
 201 004c 43F02003 		orr	r3, r3, #32
 202 0050 2B70     		strb	r3, [r5]
 403:Generated_Source\PSoC5/LCD_Char_1.c **** 
 203              		.loc 1 403 0
 204 0052 0120     		movs	r0, #1
 205 0054 FFF7FEFF 		bl	CyDelayUs
 206              	.LVL17:
 406:Generated_Source\PSoC5/LCD_Char_1.c **** 
 207              		.loc 1 406 0
 208 0058 204B     		ldr	r3, .L14+8
 209 005a 1C78     		ldrb	r4, [r3]	@ zero_extendqisi2
 210 005c E4B2     		uxtb	r4, r4
 211              	.LVL18:
 409:Generated_Source\PSoC5/LCD_Char_1.c **** 
 212              		.loc 1 409 0
 213 005e 2B78     		ldrb	r3, [r5]	@ zero_extendqisi2
 214 0060 03F0DF03 		and	r3, r3, #223
 215 0064 2B70     		strb	r3, [r5]
 412:Generated_Source\PSoC5/LCD_Char_1.c **** 
 216              		.loc 1 412 0
 217 0066 0020     		movs	r0, #0
 218 0068 FFF7FEFF 		bl	CyDelayUs
 219              	.LVL19:
 415:Generated_Source\PSoC5/LCD_Char_1.c **** 
 220              		.loc 1 415 0
 221 006c 04F01004 		and	r4, r4, #16
ARM GAS  C:\Users\kelvi\AppData\Local\Temp\cc5d61Ip.s 			page 15


 222              	.LVL20:
 223 0070 E4B2     		uxtb	r4, r4
 224              	.LVL21:
 418:Generated_Source\PSoC5/LCD_Char_1.c **** 
 225              		.loc 1 418 0
 226 0072 2B78     		ldrb	r3, [r5]	@ zero_extendqisi2
 227 0074 43F02003 		orr	r3, r3, #32
 228 0078 2B70     		strb	r3, [r5]
 421:Generated_Source\PSoC5/LCD_Char_1.c **** 
 229              		.loc 1 421 0
 230 007a 0120     		movs	r0, #1
 231 007c FFF7FEFF 		bl	CyDelayUs
 232              	.LVL22:
 424:Generated_Source\PSoC5/LCD_Char_1.c **** 
 233              		.loc 1 424 0
 234 0080 2B78     		ldrb	r3, [r5]	@ zero_extendqisi2
 235 0082 03F0DF03 		and	r3, r3, #223
 236 0086 2B70     		strb	r3, [r5]
 427:Generated_Source\PSoC5/LCD_Char_1.c ****         {
 237              		.loc 1 427 0
 238 0088 14B9     		cbnz	r4, .L10
 429:Generated_Source\PSoC5/LCD_Char_1.c ****         }
 239              		.loc 1 429 0
 240 008a 0A20     		movs	r0, #10
 241 008c FFF7FEFF 		bl	CyDelayUs
 242              	.LVL23:
 243              	.L10:
 433:Generated_Source\PSoC5/LCD_Char_1.c **** 
 244              		.loc 1 433 0
 245 0090 013E     		subs	r6, r6, #1
 246              	.LVL24:
 435:Generated_Source\PSoC5/LCD_Char_1.c **** 
 247              		.loc 1 435 0
 248 0092 0CB1     		cbz	r4, .L11
 435:Generated_Source\PSoC5/LCD_Char_1.c **** 
 249              		.loc 1 435 0 is_stmt 0 discriminator 1
 250 0094 002E     		cmp	r6, #0
 251 0096 D4D1     		bne	.L12
 252              	.L11:
 438:Generated_Source\PSoC5/LCD_Char_1.c **** 
 253              		.loc 1 438 0 is_stmt 1
 254 0098 0E4B     		ldr	r3, .L14
 255 009a 1A78     		ldrb	r2, [r3]	@ zero_extendqisi2
 256 009c 02F07F02 		and	r2, r2, #127
 257 00a0 1A70     		strb	r2, [r3]
 441:Generated_Source\PSoC5/LCD_Char_1.c **** 
 258              		.loc 1 441 0
 259 00a2 1A78     		ldrb	r2, [r3]	@ zero_extendqisi2
 260 00a4 02F00102 		and	r2, r2, #1
 261 00a8 1A70     		strb	r2, [r3]
 456:Generated_Source\PSoC5/LCD_Char_1.c ****         /* Mask off data pins to clear high z values out */
 262              		.loc 1 456 0
 263 00aa 0B4A     		ldr	r2, .L14+4
 264 00ac 1378     		ldrb	r3, [r2]	@ zero_extendqisi2
 265 00ae 03F0E103 		and	r3, r3, #225
 266 00b2 1370     		strb	r3, [r2]
 458:Generated_Source\PSoC5/LCD_Char_1.c ****         /* Configure data pins to Strong Drive, others unchanged */
ARM GAS  C:\Users\kelvi\AppData\Local\Temp\cc5d61Ip.s 			page 16


 267              		.loc 1 458 0
 268 00b4 0132     		adds	r2, r2, #1
 269 00b6 1378     		ldrb	r3, [r2]	@ zero_extendqisi2
 270 00b8 03F0E103 		and	r3, r3, #225
 271              	.LVL25:
 460:Generated_Source\PSoC5/LCD_Char_1.c **** 
 272              		.loc 1 460 0
 273 00bc 43F01E03 		orr	r3, r3, #30
 274              	.LVL26:
 275 00c0 1370     		strb	r3, [r2]
 463:Generated_Source\PSoC5/LCD_Char_1.c ****         /* Configure data pins to Strong Drive, others unchanged */
 276              		.loc 1 463 0
 277 00c2 0132     		adds	r2, r2, #1
 278 00c4 1378     		ldrb	r3, [r2]	@ zero_extendqisi2
 279 00c6 03F0E103 		and	r3, r3, #225
 280              	.LVL27:
 465:Generated_Source\PSoC5/LCD_Char_1.c ****     
 281              		.loc 1 465 0
 282 00ca 43F01E03 		orr	r3, r3, #30
 283              	.LVL28:
 284 00ce 1370     		strb	r3, [r2]
 285 00d0 70BD     		pop	{r4, r5, r6, pc}
 286              	.LVL29:
 287              	.L15:
 288 00d2 00BF     		.align	2
 289              	.L14:
 290 00d4 00510040 		.word	1073762560
 291 00d8 02510040 		.word	1073762562
 292 00dc 01510040 		.word	1073762561
 293              		.cfi_endproc
 294              	.LFE9:
 295              		.size	LCD_Char_1_IsReady, .-LCD_Char_1_IsReady
 296              		.section	.text.LCD_Char_1_WriteData,"ax",%progbits
 297              		.align	2
 298              		.global	LCD_Char_1_WriteData
 299              		.thumb
 300              		.thumb_func
 301              		.type	LCD_Char_1_WriteData, %function
 302              	LCD_Char_1_WriteData:
 303              	.LFB7:
 285:Generated_Source\PSoC5/LCD_Char_1.c ****     uint8 nibble;
 304              		.loc 1 285 0
 305              		.cfi_startproc
 306              		@ args = 0, pretend = 0, frame = 0
 307              		@ frame_needed = 0, uses_anonymous_args = 0
 308              	.LVL30:
 309 0000 10B5     		push	{r4, lr}
 310              		.cfi_def_cfa_offset 8
 311              		.cfi_offset 4, -8
 312              		.cfi_offset 14, -4
 313 0002 0446     		mov	r4, r0
 288:Generated_Source\PSoC5/LCD_Char_1.c ****     nibble = dByte >> LCD_Char_1_NIBBLE_SHIFT;
 314              		.loc 1 288 0
 315 0004 FFF7FEFF 		bl	LCD_Char_1_IsReady
 316              	.LVL31:
 292:Generated_Source\PSoC5/LCD_Char_1.c **** 
 317              		.loc 1 292 0
ARM GAS  C:\Users\kelvi\AppData\Local\Temp\cc5d61Ip.s 			page 17


 318 0008 2009     		lsrs	r0, r4, #4
 319 000a FFF7FEFF 		bl	LCD_Char_1_WrDatNib
 320              	.LVL32:
 296:Generated_Source\PSoC5/LCD_Char_1.c **** }
 321              		.loc 1 296 0
 322 000e 04F00F00 		and	r0, r4, #15
 323 0012 FFF7FEFF 		bl	LCD_Char_1_WrDatNib
 324              	.LVL33:
 325 0016 10BD     		pop	{r4, pc}
 326              		.cfi_endproc
 327              	.LFE7:
 328              		.size	LCD_Char_1_WriteData, .-LCD_Char_1_WriteData
 329              		.section	.text.LCD_Char_1_PrintString,"ax",%progbits
 330              		.align	2
 331              		.global	LCD_Char_1_PrintString
 332              		.thumb
 333              		.thumb_func
 334              		.type	LCD_Char_1_PrintString, %function
 335              	LCD_Char_1_PrintString:
 336              	.LFB5:
 234:Generated_Source\PSoC5/LCD_Char_1.c ****     uint8 indexU8 = 1u;
 337              		.loc 1 234 0
 338              		.cfi_startproc
 339              		@ args = 0, pretend = 0, frame = 0
 340              		@ frame_needed = 0, uses_anonymous_args = 0
 341              	.LVL34:
 342 0000 38B5     		push	{r3, r4, r5, lr}
 343              		.cfi_def_cfa_offset 16
 344              		.cfi_offset 3, -16
 345              		.cfi_offset 4, -12
 346              		.cfi_offset 5, -8
 347              		.cfi_offset 14, -4
 348 0002 0546     		mov	r5, r0
 349              	.LVL35:
 236:Generated_Source\PSoC5/LCD_Char_1.c **** 
 350              		.loc 1 236 0
 351 0004 0078     		ldrb	r0, [r0]	@ zero_extendqisi2
 352              	.LVL36:
 235:Generated_Source\PSoC5/LCD_Char_1.c ****     char8 current = *string;
 353              		.loc 1 235 0
 354 0006 0124     		movs	r4, #1
 239:Generated_Source\PSoC5/LCD_Char_1.c ****     {
 355              		.loc 1 239 0
 356 0008 04E0     		b	.L19
 357              	.LVL37:
 358              	.L20:
 241:Generated_Source\PSoC5/LCD_Char_1.c ****         current = string[indexU8];
 359              		.loc 1 241 0
 360 000a FFF7FEFF 		bl	LCD_Char_1_WriteData
 361              	.LVL38:
 242:Generated_Source\PSoC5/LCD_Char_1.c ****         indexU8++;
 362              		.loc 1 242 0
 363 000e 285D     		ldrb	r0, [r5, r4]	@ zero_extendqisi2
 364              	.LVL39:
 243:Generated_Source\PSoC5/LCD_Char_1.c ****     }
 365              		.loc 1 243 0
 366 0010 0134     		adds	r4, r4, #1
ARM GAS  C:\Users\kelvi\AppData\Local\Temp\cc5d61Ip.s 			page 18


 367              	.LVL40:
 368 0012 E4B2     		uxtb	r4, r4
 369              	.LVL41:
 370              	.L19:
 239:Generated_Source\PSoC5/LCD_Char_1.c ****     {
 371              		.loc 1 239 0
 372 0014 0028     		cmp	r0, #0
 373 0016 F8D1     		bne	.L20
 245:Generated_Source\PSoC5/LCD_Char_1.c **** 
 374              		.loc 1 245 0
 375 0018 38BD     		pop	{r3, r4, r5, pc}
 376              		.cfi_endproc
 377              	.LFE5:
 378              		.size	LCD_Char_1_PrintString, .-LCD_Char_1_PrintString
 379 001a 00BF     		.section	.text.LCD_Char_1_PutChar,"ax",%progbits
 380              		.align	2
 381              		.global	LCD_Char_1_PutChar
 382              		.thumb
 383              		.thumb_func
 384              		.type	LCD_Char_1_PutChar, %function
 385              	LCD_Char_1_PutChar:
 386              	.LFB6:
 265:Generated_Source\PSoC5/LCD_Char_1.c ****     LCD_Char_1_WriteData((uint8)character);
 387              		.loc 1 265 0
 388              		.cfi_startproc
 389              		@ args = 0, pretend = 0, frame = 0
 390              		@ frame_needed = 0, uses_anonymous_args = 0
 391              	.LVL42:
 392 0000 08B5     		push	{r3, lr}
 393              		.cfi_def_cfa_offset 8
 394              		.cfi_offset 3, -8
 395              		.cfi_offset 14, -4
 266:Generated_Source\PSoC5/LCD_Char_1.c **** }
 396              		.loc 1 266 0
 397 0002 FFF7FEFF 		bl	LCD_Char_1_WriteData
 398              	.LVL43:
 399 0006 08BD     		pop	{r3, pc}
 400              		.cfi_endproc
 401              	.LFE6:
 402              		.size	LCD_Char_1_PutChar, .-LCD_Char_1_PutChar
 403              		.section	.text.LCD_Char_1_WriteControl,"ax",%progbits
 404              		.align	2
 405              		.global	LCD_Char_1_WriteControl
 406              		.thumb
 407              		.thumb_func
 408              		.type	LCD_Char_1_WriteControl, %function
 409              	LCD_Char_1_WriteControl:
 410              	.LFB8:
 315:Generated_Source\PSoC5/LCD_Char_1.c ****     uint8 nibble;
 411              		.loc 1 315 0
 412              		.cfi_startproc
 413              		@ args = 0, pretend = 0, frame = 0
 414              		@ frame_needed = 0, uses_anonymous_args = 0
 415              	.LVL44:
 416 0000 10B5     		push	{r4, lr}
 417              		.cfi_def_cfa_offset 8
 418              		.cfi_offset 4, -8
ARM GAS  C:\Users\kelvi\AppData\Local\Temp\cc5d61Ip.s 			page 19


 419              		.cfi_offset 14, -4
 420 0002 0446     		mov	r4, r0
 318:Generated_Source\PSoC5/LCD_Char_1.c **** 
 421              		.loc 1 318 0
 422 0004 FFF7FEFF 		bl	LCD_Char_1_IsReady
 423              	.LVL45:
 323:Generated_Source\PSoC5/LCD_Char_1.c ****     nibble = cByte & LCD_Char_1_NIBBLE_MASK;
 424              		.loc 1 323 0
 425 0008 2009     		lsrs	r0, r4, #4
 426 000a FFF7FEFF 		bl	LCD_Char_1_WrCntrlNib
 427              	.LVL46:
 327:Generated_Source\PSoC5/LCD_Char_1.c **** }
 428              		.loc 1 327 0
 429 000e 04F00F00 		and	r0, r4, #15
 430 0012 FFF7FEFF 		bl	LCD_Char_1_WrCntrlNib
 431              	.LVL47:
 432 0016 10BD     		pop	{r4, pc}
 433              		.cfi_endproc
 434              	.LFE8:
 435              		.size	LCD_Char_1_WriteControl, .-LCD_Char_1_WriteControl
 436              		.section	.text.LCD_Char_1_Init,"ax",%progbits
 437              		.align	2
 438              		.global	LCD_Char_1_Init
 439              		.thumb
 440              		.thumb_func
 441              		.type	LCD_Char_1_Init, %function
 442              	LCD_Char_1_Init:
 443              	.LFB0:
  56:Generated_Source\PSoC5/LCD_Char_1.c ****     /* INIT CODE */
 444              		.loc 1 56 0
 445              		.cfi_startproc
 446              		@ args = 0, pretend = 0, frame = 0
 447              		@ frame_needed = 0, uses_anonymous_args = 0
 448 0000 08B5     		push	{r3, lr}
 449              		.cfi_def_cfa_offset 8
 450              		.cfi_offset 3, -8
 451              		.cfi_offset 14, -4
  58:Generated_Source\PSoC5/LCD_Char_1.c ****     LCD_Char_1_WrCntrlNib(LCD_Char_1_DISPLAY_8_BIT_INIT);    /* Selects 8-bit mode */
 452              		.loc 1 58 0
 453 0002 2820     		movs	r0, #40
 454 0004 FFF7FEFF 		bl	CyDelay
 455              	.LVL48:
  59:Generated_Source\PSoC5/LCD_Char_1.c ****     CyDelay(5u);                                                         /* Delay 5 ms */
 456              		.loc 1 59 0
 457 0008 0320     		movs	r0, #3
 458 000a FFF7FEFF 		bl	LCD_Char_1_WrCntrlNib
 459              	.LVL49:
  60:Generated_Source\PSoC5/LCD_Char_1.c ****     LCD_Char_1_WrCntrlNib(LCD_Char_1_DISPLAY_8_BIT_INIT);    /* Selects 8-bit mode */
 460              		.loc 1 60 0
 461 000e 0520     		movs	r0, #5
 462 0010 FFF7FEFF 		bl	CyDelay
 463              	.LVL50:
  61:Generated_Source\PSoC5/LCD_Char_1.c ****     CyDelay(15u);                                                        /* Delay 15 ms */
 464              		.loc 1 61 0
 465 0014 0320     		movs	r0, #3
 466 0016 FFF7FEFF 		bl	LCD_Char_1_WrCntrlNib
 467              	.LVL51:
ARM GAS  C:\Users\kelvi\AppData\Local\Temp\cc5d61Ip.s 			page 20


  62:Generated_Source\PSoC5/LCD_Char_1.c ****     LCD_Char_1_WrCntrlNib(LCD_Char_1_DISPLAY_8_BIT_INIT);    /* Selects 8-bit mode */
 468              		.loc 1 62 0
 469 001a 0F20     		movs	r0, #15
 470 001c FFF7FEFF 		bl	CyDelay
 471              	.LVL52:
  63:Generated_Source\PSoC5/LCD_Char_1.c ****     CyDelay(1u);                                                         /* Delay 1 ms */
 472              		.loc 1 63 0
 473 0020 0320     		movs	r0, #3
 474 0022 FFF7FEFF 		bl	LCD_Char_1_WrCntrlNib
 475              	.LVL53:
  64:Generated_Source\PSoC5/LCD_Char_1.c ****     LCD_Char_1_WrCntrlNib(LCD_Char_1_DISPLAY_4_BIT_INIT);    /* Selects 4-bit mode */
 476              		.loc 1 64 0
 477 0026 0120     		movs	r0, #1
 478 0028 FFF7FEFF 		bl	CyDelay
 479              	.LVL54:
  65:Generated_Source\PSoC5/LCD_Char_1.c ****     CyDelay(5u);                                                         /* Delay 5 ms */
 480              		.loc 1 65 0
 481 002c 0220     		movs	r0, #2
 482 002e FFF7FEFF 		bl	LCD_Char_1_WrCntrlNib
 483              	.LVL55:
  66:Generated_Source\PSoC5/LCD_Char_1.c **** 
 484              		.loc 1 66 0
 485 0032 0520     		movs	r0, #5
 486 0034 FFF7FEFF 		bl	CyDelay
 487              	.LVL56:
  68:Generated_Source\PSoC5/LCD_Char_1.c ****     LCD_Char_1_WriteControl(LCD_Char_1_DISPLAY_CURSOR_ON);      /* Turn Display, Cursor ON */
 488              		.loc 1 68 0
 489 0038 0620     		movs	r0, #6
 490 003a FFF7FEFF 		bl	LCD_Char_1_WriteControl
 491              	.LVL57:
  69:Generated_Source\PSoC5/LCD_Char_1.c ****     LCD_Char_1_WriteControl(LCD_Char_1_DISPLAY_2_LINES_5x10);   /* 2 Lines by 5x10 Characters */
 492              		.loc 1 69 0
 493 003e 0E20     		movs	r0, #14
 494 0040 FFF7FEFF 		bl	LCD_Char_1_WriteControl
 495              	.LVL58:
  70:Generated_Source\PSoC5/LCD_Char_1.c ****     LCD_Char_1_WriteControl(LCD_Char_1_DISPLAY_CURSOR_OFF);     /* Turn Display, Cursor OFF */
 496              		.loc 1 70 0
 497 0044 2C20     		movs	r0, #44
 498 0046 FFF7FEFF 		bl	LCD_Char_1_WriteControl
 499              	.LVL59:
  71:Generated_Source\PSoC5/LCD_Char_1.c ****     LCD_Char_1_WriteControl(LCD_Char_1_CLEAR_DISPLAY);          /* Clear LCD Screen */
 500              		.loc 1 71 0
 501 004a 0820     		movs	r0, #8
 502 004c FFF7FEFF 		bl	LCD_Char_1_WriteControl
 503              	.LVL60:
  72:Generated_Source\PSoC5/LCD_Char_1.c ****     LCD_Char_1_WriteControl(LCD_Char_1_DISPLAY_ON_CURSOR_OFF);  /* Turn Display ON, Cursor OFF */
 504              		.loc 1 72 0
 505 0050 0120     		movs	r0, #1
 506 0052 FFF7FEFF 		bl	LCD_Char_1_WriteControl
 507              	.LVL61:
  73:Generated_Source\PSoC5/LCD_Char_1.c ****     LCD_Char_1_WriteControl(LCD_Char_1_RESET_CURSOR_POSITION);  /* Set Cursor to 0,0 */
 508              		.loc 1 73 0
 509 0056 0C20     		movs	r0, #12
 510 0058 FFF7FEFF 		bl	LCD_Char_1_WriteControl
 511              	.LVL62:
  74:Generated_Source\PSoC5/LCD_Char_1.c ****     CyDelay(5u);
 512              		.loc 1 74 0
ARM GAS  C:\Users\kelvi\AppData\Local\Temp\cc5d61Ip.s 			page 21


 513 005c 0320     		movs	r0, #3
 514 005e FFF7FEFF 		bl	LCD_Char_1_WriteControl
 515              	.LVL63:
  75:Generated_Source\PSoC5/LCD_Char_1.c **** 
 516              		.loc 1 75 0
 517 0062 0520     		movs	r0, #5
 518 0064 FFF7FEFF 		bl	CyDelay
 519              	.LVL64:
 520 0068 08BD     		pop	{r3, pc}
 521              		.cfi_endproc
 522              	.LFE0:
 523              		.size	LCD_Char_1_Init, .-LCD_Char_1_Init
 524 006a 00BF     		.section	.text.LCD_Char_1_Enable,"ax",%progbits
 525              		.align	2
 526              		.global	LCD_Char_1_Enable
 527              		.thumb
 528              		.thumb_func
 529              		.type	LCD_Char_1_Enable, %function
 530              	LCD_Char_1_Enable:
 531              	.LFB1:
 105:Generated_Source\PSoC5/LCD_Char_1.c ****     LCD_Char_1_DisplayOn();
 532              		.loc 1 105 0
 533              		.cfi_startproc
 534              		@ args = 0, pretend = 0, frame = 0
 535              		@ frame_needed = 0, uses_anonymous_args = 0
 536 0000 08B5     		push	{r3, lr}
 537              		.cfi_def_cfa_offset 8
 538              		.cfi_offset 3, -8
 539              		.cfi_offset 14, -4
 106:Generated_Source\PSoC5/LCD_Char_1.c ****     LCD_Char_1_enableState = 1u;
 540              		.loc 1 106 0
 541 0002 0C20     		movs	r0, #12
 542 0004 FFF7FEFF 		bl	LCD_Char_1_WriteControl
 543              	.LVL65:
 107:Generated_Source\PSoC5/LCD_Char_1.c **** }
 544              		.loc 1 107 0
 545 0008 0122     		movs	r2, #1
 546 000a 014B     		ldr	r3, .L30
 547 000c 1A70     		strb	r2, [r3]
 548 000e 08BD     		pop	{r3, pc}
 549              	.L31:
 550              		.align	2
 551              	.L30:
 552 0010 00000000 		.word	.LANCHOR0
 553              		.cfi_endproc
 554              	.LFE1:
 555              		.size	LCD_Char_1_Enable, .-LCD_Char_1_Enable
 556              		.section	.text.LCD_Char_1_Start,"ax",%progbits
 557              		.align	2
 558              		.global	LCD_Char_1_Start
 559              		.thumb
 560              		.thumb_func
 561              		.type	LCD_Char_1_Start, %function
 562              	LCD_Char_1_Start:
 563              	.LFB2:
 138:Generated_Source\PSoC5/LCD_Char_1.c ****     /* If not initialized, perform initialization */
 564              		.loc 1 138 0
ARM GAS  C:\Users\kelvi\AppData\Local\Temp\cc5d61Ip.s 			page 22


 565              		.cfi_startproc
 566              		@ args = 0, pretend = 0, frame = 0
 567              		@ frame_needed = 0, uses_anonymous_args = 0
 568 0000 08B5     		push	{r3, lr}
 569              		.cfi_def_cfa_offset 8
 570              		.cfi_offset 3, -8
 571              		.cfi_offset 14, -4
 140:Generated_Source\PSoC5/LCD_Char_1.c ****     {
 572              		.loc 1 140 0
 573 0002 054B     		ldr	r3, .L35
 574 0004 5B78     		ldrb	r3, [r3, #1]	@ zero_extendqisi2
 575 0006 23B9     		cbnz	r3, .L33
 142:Generated_Source\PSoC5/LCD_Char_1.c ****         LCD_Char_1_initVar = 1u;
 576              		.loc 1 142 0
 577 0008 FFF7FEFF 		bl	LCD_Char_1_Init
 578              	.LVL66:
 143:Generated_Source\PSoC5/LCD_Char_1.c ****     }
 579              		.loc 1 143 0
 580 000c 0122     		movs	r2, #1
 581 000e 024B     		ldr	r3, .L35
 582 0010 5A70     		strb	r2, [r3, #1]
 583              	.L33:
 147:Generated_Source\PSoC5/LCD_Char_1.c **** }
 584              		.loc 1 147 0
 585 0012 FFF7FEFF 		bl	LCD_Char_1_Enable
 586              	.LVL67:
 587 0016 08BD     		pop	{r3, pc}
 588              	.L36:
 589              		.align	2
 590              	.L35:
 591 0018 00000000 		.word	.LANCHOR0
 592              		.cfi_endproc
 593              	.LFE2:
 594              		.size	LCD_Char_1_Start, .-LCD_Char_1_Start
 595              		.section	.text.LCD_Char_1_Stop,"ax",%progbits
 596              		.align	2
 597              		.global	LCD_Char_1_Stop
 598              		.thumb
 599              		.thumb_func
 600              		.type	LCD_Char_1_Stop, %function
 601              	LCD_Char_1_Stop:
 602              	.LFB3:
 169:Generated_Source\PSoC5/LCD_Char_1.c ****     /* Calls LCD Off Macro */
 603              		.loc 1 169 0
 604              		.cfi_startproc
 605              		@ args = 0, pretend = 0, frame = 0
 606              		@ frame_needed = 0, uses_anonymous_args = 0
 607 0000 08B5     		push	{r3, lr}
 608              		.cfi_def_cfa_offset 8
 609              		.cfi_offset 3, -8
 610              		.cfi_offset 14, -4
 171:Generated_Source\PSoC5/LCD_Char_1.c ****     LCD_Char_1_enableState = 0u;
 611              		.loc 1 171 0
 612 0002 0820     		movs	r0, #8
 613 0004 FFF7FEFF 		bl	LCD_Char_1_WriteControl
 614              	.LVL68:
 172:Generated_Source\PSoC5/LCD_Char_1.c **** }
ARM GAS  C:\Users\kelvi\AppData\Local\Temp\cc5d61Ip.s 			page 23


 615              		.loc 1 172 0
 616 0008 0022     		movs	r2, #0
 617 000a 014B     		ldr	r3, .L39
 618 000c 1A70     		strb	r2, [r3]
 619 000e 08BD     		pop	{r3, pc}
 620              	.L40:
 621              		.align	2
 622              	.L39:
 623 0010 00000000 		.word	.LANCHOR0
 624              		.cfi_endproc
 625              	.LFE3:
 626              		.size	LCD_Char_1_Stop, .-LCD_Char_1_Stop
 627              		.section	.text.LCD_Char_1_Position,"ax",%progbits
 628              		.align	2
 629              		.global	LCD_Char_1_Position
 630              		.thumb
 631              		.thumb_func
 632              		.type	LCD_Char_1_Position, %function
 633              	LCD_Char_1_Position:
 634              	.LFB4:
 197:Generated_Source\PSoC5/LCD_Char_1.c ****     switch (row)
 635              		.loc 1 197 0
 636              		.cfi_startproc
 637              		@ args = 0, pretend = 0, frame = 0
 638              		@ frame_needed = 0, uses_anonymous_args = 0
 639              	.LVL69:
 640 0000 08B5     		push	{r3, lr}
 641              		.cfi_def_cfa_offset 8
 642              		.cfi_offset 3, -8
 643              		.cfi_offset 14, -4
 198:Generated_Source\PSoC5/LCD_Char_1.c ****     {
 644              		.loc 1 198 0
 645 0002 0328     		cmp	r0, #3
 646 0004 19D8     		bhi	.L41
 647 0006 DFE800F0 		tbb	[pc, r0]
 648              	.L44:
 649 000a 02       		.byte	(.L43-.L44)/2
 650 000b 07       		.byte	(.L45-.L44)/2
 651 000c 0D       		.byte	(.L46-.L44)/2
 652 000d 13       		.byte	(.L47-.L44)/2
 653              		.p2align 1
 654              	.L43:
 201:Generated_Source\PSoC5/LCD_Char_1.c ****             break;
 655              		.loc 1 201 0
 656 000e 81F08000 		eor	r0, r1, #128
 657              	.LVL70:
 658 0012 FFF7FEFF 		bl	LCD_Char_1_WriteControl
 659              	.LVL71:
 202:Generated_Source\PSoC5/LCD_Char_1.c ****         case (uint8) 1:
 660              		.loc 1 202 0
 661 0016 08BD     		pop	{r3, pc}
 662              	.LVL72:
 663              	.L45:
 204:Generated_Source\PSoC5/LCD_Char_1.c ****             break;
 664              		.loc 1 204 0
 665 0018 A1F14000 		sub	r0, r1, #64
 666              	.LVL73:
ARM GAS  C:\Users\kelvi\AppData\Local\Temp\cc5d61Ip.s 			page 24


 667 001c C0B2     		uxtb	r0, r0
 668 001e FFF7FEFF 		bl	LCD_Char_1_WriteControl
 669              	.LVL74:
 205:Generated_Source\PSoC5/LCD_Char_1.c ****         case (uint8) 2:
 670              		.loc 1 205 0
 671 0022 08BD     		pop	{r3, pc}
 672              	.LVL75:
 673              	.L46:
 207:Generated_Source\PSoC5/LCD_Char_1.c ****             break;
 674              		.loc 1 207 0
 675 0024 A1F16C00 		sub	r0, r1, #108
 676              	.LVL76:
 677 0028 C0B2     		uxtb	r0, r0
 678 002a FFF7FEFF 		bl	LCD_Char_1_WriteControl
 679              	.LVL77:
 208:Generated_Source\PSoC5/LCD_Char_1.c ****         case (uint8) 3:
 680              		.loc 1 208 0
 681 002e 08BD     		pop	{r3, pc}
 682              	.LVL78:
 683              	.L47:
 210:Generated_Source\PSoC5/LCD_Char_1.c ****             break;
 684              		.loc 1 210 0
 685 0030 A1F12C00 		sub	r0, r1, #44
 686              	.LVL79:
 687 0034 C0B2     		uxtb	r0, r0
 688 0036 FFF7FEFF 		bl	LCD_Char_1_WriteControl
 689              	.LVL80:
 690              	.L41:
 691 003a 08BD     		pop	{r3, pc}
 692              		.cfi_endproc
 693              	.LFE4:
 694              		.size	LCD_Char_1_Position, .-LCD_Char_1_Position
 695              		.section	.text.LCD_Char_1_PrintInt8,"ax",%progbits
 696              		.align	2
 697              		.global	LCD_Char_1_PrintInt8
 698              		.thumb
 699              		.thumb_func
 700              		.type	LCD_Char_1_PrintInt8, %function
 701              	LCD_Char_1_PrintInt8:
 702              	.LFB12:
 549:Generated_Source\PSoC5/LCD_Char_1.c **** }
 550:Generated_Source\PSoC5/LCD_Char_1.c **** 
 551:Generated_Source\PSoC5/LCD_Char_1.c **** 
 552:Generated_Source\PSoC5/LCD_Char_1.c **** #if(LCD_Char_1_CONVERSION_ROUTINES == 1u)
 553:Generated_Source\PSoC5/LCD_Char_1.c **** 
 554:Generated_Source\PSoC5/LCD_Char_1.c ****     /*******************************************************************************
 555:Generated_Source\PSoC5/LCD_Char_1.c ****     *  Function Name: LCD_Char_1_PrintInt8
 556:Generated_Source\PSoC5/LCD_Char_1.c ****     ********************************************************************************
 557:Generated_Source\PSoC5/LCD_Char_1.c ****     *
 558:Generated_Source\PSoC5/LCD_Char_1.c ****     * Summary:
 559:Generated_Source\PSoC5/LCD_Char_1.c ****     *  Print a byte as two ASCII characters.
 560:Generated_Source\PSoC5/LCD_Char_1.c ****     *
 561:Generated_Source\PSoC5/LCD_Char_1.c ****     * Parameters:
 562:Generated_Source\PSoC5/LCD_Char_1.c ****     *  value: The byte to be printed out as ASCII characters.
 563:Generated_Source\PSoC5/LCD_Char_1.c ****     *
 564:Generated_Source\PSoC5/LCD_Char_1.c ****     * Return:
 565:Generated_Source\PSoC5/LCD_Char_1.c ****     *  None.
ARM GAS  C:\Users\kelvi\AppData\Local\Temp\cc5d61Ip.s 			page 25


 566:Generated_Source\PSoC5/LCD_Char_1.c ****     *
 567:Generated_Source\PSoC5/LCD_Char_1.c ****     *******************************************************************************/
 568:Generated_Source\PSoC5/LCD_Char_1.c ****     void LCD_Char_1_PrintInt8(uint8 value) 
 569:Generated_Source\PSoC5/LCD_Char_1.c ****     {
 703              		.loc 1 569 0
 704              		.cfi_startproc
 705              		@ args = 0, pretend = 0, frame = 0
 706              		@ frame_needed = 0, uses_anonymous_args = 0
 707              	.LVL81:
 708 0000 38B5     		push	{r3, r4, r5, lr}
 709              		.cfi_def_cfa_offset 16
 710              		.cfi_offset 3, -16
 711              		.cfi_offset 4, -12
 712              		.cfi_offset 5, -8
 713              		.cfi_offset 14, -4
 714 0002 0446     		mov	r4, r0
 570:Generated_Source\PSoC5/LCD_Char_1.c ****         static char8 const CYCODE LCD_Char_1_hex[16u] = "0123456789ABCDEF";
 571:Generated_Source\PSoC5/LCD_Char_1.c ****         
 572:Generated_Source\PSoC5/LCD_Char_1.c ****         LCD_Char_1_PutChar((char8) LCD_Char_1_hex[value >> LCD_Char_1_BYTE_UPPER_NIBBLE_SHIFT]);
 715              		.loc 1 572 0
 716 0004 0309     		lsrs	r3, r0, #4
 717 0006 054D     		ldr	r5, .L51
 718 0008 E85C     		ldrb	r0, [r5, r3]	@ zero_extendqisi2
 719              	.LVL82:
 720 000a FFF7FEFF 		bl	LCD_Char_1_PutChar
 721              	.LVL83:
 573:Generated_Source\PSoC5/LCD_Char_1.c ****         LCD_Char_1_PutChar((char8) LCD_Char_1_hex[value & LCD_Char_1_BYTE_LOWER_NIBBLE_MASK]);
 722              		.loc 1 573 0
 723 000e 04F00F04 		and	r4, r4, #15
 724 0012 285D     		ldrb	r0, [r5, r4]	@ zero_extendqisi2
 725 0014 FFF7FEFF 		bl	LCD_Char_1_PutChar
 726              	.LVL84:
 727 0018 38BD     		pop	{r3, r4, r5, pc}
 728              	.L52:
 729 001a 00BF     		.align	2
 730              	.L51:
 731 001c 00000000 		.word	.LANCHOR1
 732              		.cfi_endproc
 733              	.LFE12:
 734              		.size	LCD_Char_1_PrintInt8, .-LCD_Char_1_PrintInt8
 735              		.section	.text.LCD_Char_1_PrintInt16,"ax",%progbits
 736              		.align	2
 737              		.global	LCD_Char_1_PrintInt16
 738              		.thumb
 739              		.thumb_func
 740              		.type	LCD_Char_1_PrintInt16, %function
 741              	LCD_Char_1_PrintInt16:
 742              	.LFB13:
 574:Generated_Source\PSoC5/LCD_Char_1.c ****     }
 575:Generated_Source\PSoC5/LCD_Char_1.c **** 
 576:Generated_Source\PSoC5/LCD_Char_1.c **** 
 577:Generated_Source\PSoC5/LCD_Char_1.c ****     /*******************************************************************************
 578:Generated_Source\PSoC5/LCD_Char_1.c ****     *  Function Name: LCD_Char_1_PrintInt16
 579:Generated_Source\PSoC5/LCD_Char_1.c ****     ********************************************************************************
 580:Generated_Source\PSoC5/LCD_Char_1.c ****     *
 581:Generated_Source\PSoC5/LCD_Char_1.c ****     * Summary:
 582:Generated_Source\PSoC5/LCD_Char_1.c ****     *  Print a uint16 as four ASCII characters.
ARM GAS  C:\Users\kelvi\AppData\Local\Temp\cc5d61Ip.s 			page 26


 583:Generated_Source\PSoC5/LCD_Char_1.c ****     *
 584:Generated_Source\PSoC5/LCD_Char_1.c ****     * Parameters:
 585:Generated_Source\PSoC5/LCD_Char_1.c ****     *  value: The uint16 to be printed out as ASCII characters.
 586:Generated_Source\PSoC5/LCD_Char_1.c ****     *
 587:Generated_Source\PSoC5/LCD_Char_1.c ****     * Return:
 588:Generated_Source\PSoC5/LCD_Char_1.c ****     *  None.
 589:Generated_Source\PSoC5/LCD_Char_1.c ****     *
 590:Generated_Source\PSoC5/LCD_Char_1.c ****     *******************************************************************************/
 591:Generated_Source\PSoC5/LCD_Char_1.c ****     void LCD_Char_1_PrintInt16(uint16 value) 
 592:Generated_Source\PSoC5/LCD_Char_1.c ****     {
 743              		.loc 1 592 0
 744              		.cfi_startproc
 745              		@ args = 0, pretend = 0, frame = 0
 746              		@ frame_needed = 0, uses_anonymous_args = 0
 747              	.LVL85:
 748 0000 10B5     		push	{r4, lr}
 749              		.cfi_def_cfa_offset 8
 750              		.cfi_offset 4, -8
 751              		.cfi_offset 14, -4
 752 0002 0446     		mov	r4, r0
 593:Generated_Source\PSoC5/LCD_Char_1.c ****         LCD_Char_1_PrintInt8((uint8)(value >> LCD_Char_1_U16_UPPER_BYTE_SHIFT));
 753              		.loc 1 593 0
 754 0004 000A     		lsrs	r0, r0, #8
 755              	.LVL86:
 756 0006 FFF7FEFF 		bl	LCD_Char_1_PrintInt8
 757              	.LVL87:
 594:Generated_Source\PSoC5/LCD_Char_1.c ****         LCD_Char_1_PrintInt8((uint8)(value & LCD_Char_1_U16_LOWER_BYTE_MASK));
 758              		.loc 1 594 0
 759 000a E0B2     		uxtb	r0, r4
 760 000c FFF7FEFF 		bl	LCD_Char_1_PrintInt8
 761              	.LVL88:
 762 0010 10BD     		pop	{r4, pc}
 763              		.cfi_endproc
 764              	.LFE13:
 765              		.size	LCD_Char_1_PrintInt16, .-LCD_Char_1_PrintInt16
 766 0012 00BF     		.section	.text.LCD_Char_1_PrintInt32,"ax",%progbits
 767              		.align	2
 768              		.global	LCD_Char_1_PrintInt32
 769              		.thumb
 770              		.thumb_func
 771              		.type	LCD_Char_1_PrintInt32, %function
 772              	LCD_Char_1_PrintInt32:
 773              	.LFB14:
 595:Generated_Source\PSoC5/LCD_Char_1.c ****     }
 596:Generated_Source\PSoC5/LCD_Char_1.c **** 
 597:Generated_Source\PSoC5/LCD_Char_1.c ****     
 598:Generated_Source\PSoC5/LCD_Char_1.c ****     /*******************************************************************************
 599:Generated_Source\PSoC5/LCD_Char_1.c ****     *  Function Name: LCD_Char_1_PrintInt32
 600:Generated_Source\PSoC5/LCD_Char_1.c ****     ********************************************************************************
 601:Generated_Source\PSoC5/LCD_Char_1.c ****     *
 602:Generated_Source\PSoC5/LCD_Char_1.c ****     * Summary:
 603:Generated_Source\PSoC5/LCD_Char_1.c ****     *  Print a uint32 hexadecimal number as eight ASCII characters.
 604:Generated_Source\PSoC5/LCD_Char_1.c ****     *
 605:Generated_Source\PSoC5/LCD_Char_1.c ****     * Parameters:
 606:Generated_Source\PSoC5/LCD_Char_1.c ****     *  value: The uint32 to be printed out as ASCII characters.
 607:Generated_Source\PSoC5/LCD_Char_1.c ****     *
 608:Generated_Source\PSoC5/LCD_Char_1.c ****     * Return:
ARM GAS  C:\Users\kelvi\AppData\Local\Temp\cc5d61Ip.s 			page 27


 609:Generated_Source\PSoC5/LCD_Char_1.c ****     *  None.
 610:Generated_Source\PSoC5/LCD_Char_1.c ****     *
 611:Generated_Source\PSoC5/LCD_Char_1.c ****     *******************************************************************************/
 612:Generated_Source\PSoC5/LCD_Char_1.c ****     void LCD_Char_1_PrintInt32(uint32 value) 
 613:Generated_Source\PSoC5/LCD_Char_1.c ****     {
 774              		.loc 1 613 0
 775              		.cfi_startproc
 776              		@ args = 0, pretend = 0, frame = 0
 777              		@ frame_needed = 0, uses_anonymous_args = 0
 778              	.LVL89:
 779 0000 38B5     		push	{r3, r4, r5, lr}
 780              		.cfi_def_cfa_offset 16
 781              		.cfi_offset 3, -16
 782              		.cfi_offset 4, -12
 783              		.cfi_offset 5, -8
 784              		.cfi_offset 14, -4
 785 0002 0546     		mov	r5, r0
 786              	.LVL90:
 614:Generated_Source\PSoC5/LCD_Char_1.c ****         uint8 shift = LCD_Char_1_32_BIT_SHIFT;
 787              		.loc 1 614 0
 788 0004 2024     		movs	r4, #32
 615:Generated_Source\PSoC5/LCD_Char_1.c ****         
 616:Generated_Source\PSoC5/LCD_Char_1.c ****         while (shift != 0u)
 789              		.loc 1 616 0
 790 0006 06E0     		b	.L56
 791              	.LVL91:
 792              	.L57:
 617:Generated_Source\PSoC5/LCD_Char_1.c ****         {
 618:Generated_Source\PSoC5/LCD_Char_1.c ****             /* "shift" var is to be subtracted by 8 prior shifting. This implements 
 619:Generated_Source\PSoC5/LCD_Char_1.c ****             * shifting by 24, 16, 8 and 0u. 
 620:Generated_Source\PSoC5/LCD_Char_1.c ****             */
 621:Generated_Source\PSoC5/LCD_Char_1.c ****             shift -= LCD_Char_1_8_BIT_SHIFT;
 793              		.loc 1 621 0
 794 0008 083C     		subs	r4, r4, #8
 795              	.LVL92:
 796 000a E4B2     		uxtb	r4, r4
 797              	.LVL93:
 622:Generated_Source\PSoC5/LCD_Char_1.c ****             
 623:Generated_Source\PSoC5/LCD_Char_1.c ****             /* Print 8 bits of uint32 hex number */
 624:Generated_Source\PSoC5/LCD_Char_1.c ****             LCD_Char_1_PrintInt8((uint8) ((uint32) (value >> shift)));
 798              		.loc 1 624 0
 799 000c 25FA04F0 		lsr	r0, r5, r4
 800 0010 C0B2     		uxtb	r0, r0
 801 0012 FFF7FEFF 		bl	LCD_Char_1_PrintInt8
 802              	.LVL94:
 803              	.L56:
 616:Generated_Source\PSoC5/LCD_Char_1.c ****         {
 804              		.loc 1 616 0
 805 0016 002C     		cmp	r4, #0
 806 0018 F6D1     		bne	.L57
 625:Generated_Source\PSoC5/LCD_Char_1.c ****         }
 626:Generated_Source\PSoC5/LCD_Char_1.c ****     }
 807              		.loc 1 626 0
 808 001a 38BD     		pop	{r3, r4, r5, pc}
 809              		.cfi_endproc
 810              	.LFE14:
 811              		.size	LCD_Char_1_PrintInt32, .-LCD_Char_1_PrintInt32
ARM GAS  C:\Users\kelvi\AppData\Local\Temp\cc5d61Ip.s 			page 28


 812              		.section	.text.LCD_Char_1_PrintU32Number,"ax",%progbits
 813              		.align	2
 814              		.global	LCD_Char_1_PrintU32Number
 815              		.thumb
 816              		.thumb_func
 817              		.type	LCD_Char_1_PrintU32Number, %function
 818              	LCD_Char_1_PrintU32Number:
 819              	.LFB15:
 627:Generated_Source\PSoC5/LCD_Char_1.c ****     
 628:Generated_Source\PSoC5/LCD_Char_1.c ****     
 629:Generated_Source\PSoC5/LCD_Char_1.c ****     /*******************************************************************************
 630:Generated_Source\PSoC5/LCD_Char_1.c ****     *  Function Name: LCD_Char_1_PrintNumber
 631:Generated_Source\PSoC5/LCD_Char_1.c ****     ********************************************************************************
 632:Generated_Source\PSoC5/LCD_Char_1.c ****     *
 633:Generated_Source\PSoC5/LCD_Char_1.c ****     * Summary:
 634:Generated_Source\PSoC5/LCD_Char_1.c ****     *  Print an uint16 value as a left-justified decimal value.
 635:Generated_Source\PSoC5/LCD_Char_1.c ****     *
 636:Generated_Source\PSoC5/LCD_Char_1.c ****     * Parameters:
 637:Generated_Source\PSoC5/LCD_Char_1.c ****     *  value: A 16-bit value to be printed in ASCII characters as a decimal number
 638:Generated_Source\PSoC5/LCD_Char_1.c ****     *
 639:Generated_Source\PSoC5/LCD_Char_1.c ****     * Return:
 640:Generated_Source\PSoC5/LCD_Char_1.c ****     *  None.
 641:Generated_Source\PSoC5/LCD_Char_1.c ****     *
 642:Generated_Source\PSoC5/LCD_Char_1.c ****     * Note:
 643:Generated_Source\PSoC5/LCD_Char_1.c ****     *  This function is implemented as a macro.
 644:Generated_Source\PSoC5/LCD_Char_1.c ****     *
 645:Generated_Source\PSoC5/LCD_Char_1.c ****     *******************************************************************************/
 646:Generated_Source\PSoC5/LCD_Char_1.c **** 
 647:Generated_Source\PSoC5/LCD_Char_1.c ****     
 648:Generated_Source\PSoC5/LCD_Char_1.c ****     /*******************************************************************************
 649:Generated_Source\PSoC5/LCD_Char_1.c ****     *  Function Name: LCD_Char_1_PrintU32Number
 650:Generated_Source\PSoC5/LCD_Char_1.c ****     ********************************************************************************
 651:Generated_Source\PSoC5/LCD_Char_1.c ****     *
 652:Generated_Source\PSoC5/LCD_Char_1.c ****     * Summary:
 653:Generated_Source\PSoC5/LCD_Char_1.c ****     *  Print an uint32 value as a left-justified decimal value.
 654:Generated_Source\PSoC5/LCD_Char_1.c ****     *
 655:Generated_Source\PSoC5/LCD_Char_1.c ****     * Parameters:
 656:Generated_Source\PSoC5/LCD_Char_1.c ****     *  value: A 32-bit value to be printed in ASCII characters as a decimal number
 657:Generated_Source\PSoC5/LCD_Char_1.c ****     *
 658:Generated_Source\PSoC5/LCD_Char_1.c ****     * Return:
 659:Generated_Source\PSoC5/LCD_Char_1.c ****     *  None.
 660:Generated_Source\PSoC5/LCD_Char_1.c ****     *
 661:Generated_Source\PSoC5/LCD_Char_1.c ****     *******************************************************************************/
 662:Generated_Source\PSoC5/LCD_Char_1.c ****     void LCD_Char_1_PrintU32Number(uint32 value) 
 663:Generated_Source\PSoC5/LCD_Char_1.c ****     {
 820              		.loc 1 663 0
 821              		.cfi_startproc
 822              		@ args = 0, pretend = 0, frame = 16
 823              		@ frame_needed = 0, uses_anonymous_args = 0
 824              	.LVL95:
 825 0000 00B5     		push	{lr}
 826              		.cfi_def_cfa_offset 4
 827              		.cfi_offset 14, -4
 828 0002 85B0     		sub	sp, sp, #20
 829              		.cfi_def_cfa_offset 24
 830              	.LVL96:
 664:Generated_Source\PSoC5/LCD_Char_1.c ****         uint8 tmpDigit;
ARM GAS  C:\Users\kelvi\AppData\Local\Temp\cc5d61Ip.s 			page 29


 665:Generated_Source\PSoC5/LCD_Char_1.c ****         char8 number[LCD_Char_1_NUMBER_OF_REMAINDERS_U32 + 1u];
 666:Generated_Source\PSoC5/LCD_Char_1.c ****         uint8 digIndex = LCD_Char_1_NUMBER_OF_REMAINDERS_U32;
 667:Generated_Source\PSoC5/LCD_Char_1.c ****         
 668:Generated_Source\PSoC5/LCD_Char_1.c ****         /* This API will output a decimal number as a string and that string will be 
 669:Generated_Source\PSoC5/LCD_Char_1.c ****         * filled from end to start. Set Null termination character first.
 670:Generated_Source\PSoC5/LCD_Char_1.c ****         */
 671:Generated_Source\PSoC5/LCD_Char_1.c ****         number[digIndex] = (char8) '\0';
 831              		.loc 1 671 0
 832 0004 0023     		movs	r3, #0
 833 0006 8DF80E30 		strb	r3, [sp, #14]
 834              	.LVL97:
 672:Generated_Source\PSoC5/LCD_Char_1.c ****         digIndex--;
 835              		.loc 1 672 0
 836 000a 0922     		movs	r2, #9
 673:Generated_Source\PSoC5/LCD_Char_1.c ****         
 674:Generated_Source\PSoC5/LCD_Char_1.c ****         /* Load these in reverse order */
 675:Generated_Source\PSoC5/LCD_Char_1.c ****         while(value >= LCD_Char_1_TEN)
 837              		.loc 1 675 0
 838 000c 10E0     		b	.L60
 839              	.LVL98:
 840              	.L61:
 676:Generated_Source\PSoC5/LCD_Char_1.c ****         {
 677:Generated_Source\PSoC5/LCD_Char_1.c ****             /* Extract decimal digit, indexed by 'digIndex', from 'value' and
 678:Generated_Source\PSoC5/LCD_Char_1.c ****             * convert it to ASCII character.
 679:Generated_Source\PSoC5/LCD_Char_1.c ****             */
 680:Generated_Source\PSoC5/LCD_Char_1.c ****             tmpDigit = (uint8) (((uint8) (value % LCD_Char_1_TEN)) + (uint8) LCD_Char_1_ZERO_CHAR_A
 841              		.loc 1 680 0
 842 000e 134B     		ldr	r3, .L63
 843 0010 A3FB0013 		umull	r1, r3, r3, r0
 844 0014 DB08     		lsrs	r3, r3, #3
 845 0016 1946     		mov	r1, r3
 846 0018 03EB8303 		add	r3, r3, r3, lsl #2
 847 001c 5B00     		lsls	r3, r3, #1
 848 001e C31A     		subs	r3, r0, r3
 849 0020 3033     		adds	r3, r3, #48
 850              	.LVL99:
 681:Generated_Source\PSoC5/LCD_Char_1.c ****             
 682:Generated_Source\PSoC5/LCD_Char_1.c ****             /* Temporary variable 'tmpDigit' is used to avoid Violation of MISRA rule 
 683:Generated_Source\PSoC5/LCD_Char_1.c ****             * #10.3.
 684:Generated_Source\PSoC5/LCD_Char_1.c ****             */
 685:Generated_Source\PSoC5/LCD_Char_1.c ****             number[digIndex] = (char8) tmpDigit;
 851              		.loc 1 685 0
 852 0022 04A8     		add	r0, sp, #16
 853              	.LVL100:
 854 0024 1044     		add	r0, r0, r2
 855 0026 00F80C3C 		strb	r3, [r0, #-12]
 686:Generated_Source\PSoC5/LCD_Char_1.c ****             value /= LCD_Char_1_TEN;
 856              		.loc 1 686 0
 857 002a 0846     		mov	r0, r1
 858              	.LVL101:
 687:Generated_Source\PSoC5/LCD_Char_1.c ****             digIndex--;
 859              		.loc 1 687 0
 860 002c 013A     		subs	r2, r2, #1
 861              	.LVL102:
 862 002e D2B2     		uxtb	r2, r2
 863              	.LVL103:
 864              	.L60:
ARM GAS  C:\Users\kelvi\AppData\Local\Temp\cc5d61Ip.s 			page 30


 675:Generated_Source\PSoC5/LCD_Char_1.c ****         {
 865              		.loc 1 675 0
 866 0030 0928     		cmp	r0, #9
 867 0032 ECD8     		bhi	.L61
 688:Generated_Source\PSoC5/LCD_Char_1.c ****         }
 689:Generated_Source\PSoC5/LCD_Char_1.c ****         
 690:Generated_Source\PSoC5/LCD_Char_1.c ****         /* Extract last decimal digit 'digIndex', from the 'value' and convert it
 691:Generated_Source\PSoC5/LCD_Char_1.c ****         * to ASCII character.
 692:Generated_Source\PSoC5/LCD_Char_1.c ****         */
 693:Generated_Source\PSoC5/LCD_Char_1.c ****         tmpDigit = (uint8) (((uint8)(value % LCD_Char_1_TEN)) + (uint8) LCD_Char_1_ZERO_CHAR_ASCII)
 868              		.loc 1 693 0
 869 0034 094B     		ldr	r3, .L63
 870 0036 A3FB0013 		umull	r1, r3, r3, r0
 871 003a DB08     		lsrs	r3, r3, #3
 872 003c 03EB8303 		add	r3, r3, r3, lsl #2
 873 0040 5B00     		lsls	r3, r3, #1
 874 0042 C31A     		subs	r3, r0, r3
 875 0044 3033     		adds	r3, r3, #48
 876              	.LVL104:
 694:Generated_Source\PSoC5/LCD_Char_1.c ****         number[digIndex] = (char8) tmpDigit;
 877              		.loc 1 694 0
 878 0046 04A9     		add	r1, sp, #16
 879 0048 1144     		add	r1, r1, r2
 880 004a 01F80C3C 		strb	r3, [r1, #-12]
 695:Generated_Source\PSoC5/LCD_Char_1.c **** 
 696:Generated_Source\PSoC5/LCD_Char_1.c ****         /* Print out number */
 697:Generated_Source\PSoC5/LCD_Char_1.c ****         LCD_Char_1_PrintString(&number[digIndex]);
 881              		.loc 1 697 0
 882 004e 01AB     		add	r3, sp, #4
 883              	.LVL105:
 884 0050 9818     		adds	r0, r3, r2
 885              	.LVL106:
 886 0052 FFF7FEFF 		bl	LCD_Char_1_PrintString
 887              	.LVL107:
 698:Generated_Source\PSoC5/LCD_Char_1.c ****     }
 888              		.loc 1 698 0
 889 0056 05B0     		add	sp, sp, #20
 890              		.cfi_def_cfa_offset 4
 891              		@ sp needed
 892 0058 5DF804FB 		ldr	pc, [sp], #4
 893              	.L64:
 894              		.align	2
 895              	.L63:
 896 005c CDCCCCCC 		.word	-858993459
 897              		.cfi_endproc
 898              	.LFE15:
 899              		.size	LCD_Char_1_PrintU32Number, .-LCD_Char_1_PrintU32Number
 900              		.global	LCD_Char_1_initVar
 901              		.global	LCD_Char_1_enableState
 902              		.section	.rodata
 903              		.align	2
 904              		.set	.LANCHOR1,. + 0
 905              		.type	LCD_Char_1_hex.4905, %object
 906              		.size	LCD_Char_1_hex.4905, 16
 907              	LCD_Char_1_hex.4905:
 908 0000 30313233 		.ascii	"0123456789ABCDEF"
 908      34353637 
ARM GAS  C:\Users\kelvi\AppData\Local\Temp\cc5d61Ip.s 			page 31


 908      38394142 
 908      43444546 
 909              		.bss
 910              		.set	.LANCHOR0,. + 0
 911              		.type	LCD_Char_1_enableState, %object
 912              		.size	LCD_Char_1_enableState, 1
 913              	LCD_Char_1_enableState:
 914 0000 00       		.space	1
 915              		.type	LCD_Char_1_initVar, %object
 916              		.size	LCD_Char_1_initVar, 1
 917              	LCD_Char_1_initVar:
 918 0001 00       		.space	1
 919              		.text
 920              	.Letext0:
 921              		.file 2 "Generated_Source\\PSoC5\\cytypes.h"
 922              		.file 3 "Generated_Source\\PSoC5\\CyLib.h"
