ARM GAS  C:\Users\kcdasilv\AppData\Local\Temp\ccqnavs7.s 			page 1


   1              		.syntax unified
   2              		.cpu cortex-m3
   3              		.fpu softvfp
   4              		.eabi_attribute 20, 1
   5              		.eabi_attribute 21, 1
   6              		.eabi_attribute 23, 3
   7              		.eabi_attribute 24, 1
   8              		.eabi_attribute 25, 1
   9              		.eabi_attribute 26, 1
  10              		.eabi_attribute 30, 1
  11              		.eabi_attribute 34, 1
  12              		.eabi_attribute 18, 4
  13              		.thumb
  14              		.file	"myADC.c"
  15              		.text
  16              	.Ltext0:
  17              		.cfi_sections	.debug_frame
  18              		.section	.text.myADC_GainCompensation,"ax",%progbits
  19              		.align	2
  20              		.thumb
  21              		.thumb_func
  22              		.type	myADC_GainCompensation, %function
  23              	myADC_GainCompensation:
  24              	.LFB21:
  25              		.file 1 "Generated_Source\\PSoC5\\myADC.c"
   1:Generated_Source\PSoC5/myADC.c **** /*******************************************************************************
   2:Generated_Source\PSoC5/myADC.c **** * File Name: myADC.c
   3:Generated_Source\PSoC5/myADC.c **** * Version 3.20
   4:Generated_Source\PSoC5/myADC.c **** *
   5:Generated_Source\PSoC5/myADC.c **** * Description:
   6:Generated_Source\PSoC5/myADC.c **** *  This file provides the source code to the API for the Delta-Sigma ADC
   7:Generated_Source\PSoC5/myADC.c **** *  Component.
   8:Generated_Source\PSoC5/myADC.c **** *
   9:Generated_Source\PSoC5/myADC.c **** * Note:
  10:Generated_Source\PSoC5/myADC.c **** *
  11:Generated_Source\PSoC5/myADC.c **** ********************************************************************************
  12:Generated_Source\PSoC5/myADC.c **** * Copyright 2008-2015, Cypress Semiconductor Corporation.  All rights reserved.
  13:Generated_Source\PSoC5/myADC.c **** * You may use this file only in accordance with the license, terms, conditions,
  14:Generated_Source\PSoC5/myADC.c **** * disclaimers, and limitations in the end user license agreement accompanying
  15:Generated_Source\PSoC5/myADC.c **** * the software package with which this file was provided.
  16:Generated_Source\PSoC5/myADC.c **** *******************************************************************************/
  17:Generated_Source\PSoC5/myADC.c **** 
  18:Generated_Source\PSoC5/myADC.c **** #include "myADC.h"
  19:Generated_Source\PSoC5/myADC.c **** 
  20:Generated_Source\PSoC5/myADC.c **** #if(myADC_DEFAULT_INTERNAL_CLK)
  21:Generated_Source\PSoC5/myADC.c ****     #include "myADC_theACLK.h"
  22:Generated_Source\PSoC5/myADC.c **** #endif /* myADC_DEFAULT_INTERNAL_CLK */
  23:Generated_Source\PSoC5/myADC.c **** 
  24:Generated_Source\PSoC5/myADC.c **** #include "myADC_Ext_CP_Clk.h"
  25:Generated_Source\PSoC5/myADC.c **** 
  26:Generated_Source\PSoC5/myADC.c **** #if(myADC_DEFAULT_INPUT_MODE)
  27:Generated_Source\PSoC5/myADC.c ****     #include "myADC_AMux.h"
  28:Generated_Source\PSoC5/myADC.c **** #endif /* myADC_DEFAULT_INPUT_MODE */
  29:Generated_Source\PSoC5/myADC.c **** 
  30:Generated_Source\PSoC5/myADC.c **** 
  31:Generated_Source\PSoC5/myADC.c **** /***************************************
  32:Generated_Source\PSoC5/myADC.c **** * Global data allocation
ARM GAS  C:\Users\kcdasilv\AppData\Local\Temp\ccqnavs7.s 			page 2


  33:Generated_Source\PSoC5/myADC.c **** ***************************************/
  34:Generated_Source\PSoC5/myADC.c **** 
  35:Generated_Source\PSoC5/myADC.c **** /* Software flag for checking conversion completed or not */
  36:Generated_Source\PSoC5/myADC.c **** volatile uint8 myADC_convDone = 0u;
  37:Generated_Source\PSoC5/myADC.c **** 
  38:Generated_Source\PSoC5/myADC.c **** /* Software flag to stop conversion for single sample conversion mode
  39:Generated_Source\PSoC5/myADC.c **** *   with resolution above 16 bits 
  40:Generated_Source\PSoC5/myADC.c **** */
  41:Generated_Source\PSoC5/myADC.c **** volatile uint8 myADC_stopConversion = 0u;
  42:Generated_Source\PSoC5/myADC.c **** 
  43:Generated_Source\PSoC5/myADC.c **** /* To run the initialization block only at the start up */
  44:Generated_Source\PSoC5/myADC.c **** uint8 myADC_initVar = 0u;
  45:Generated_Source\PSoC5/myADC.c **** 
  46:Generated_Source\PSoC5/myADC.c **** /* To check whether ADC started or not before switching the configuration */
  47:Generated_Source\PSoC5/myADC.c **** volatile uint8 myADC_started = 0u;
  48:Generated_Source\PSoC5/myADC.c **** 
  49:Generated_Source\PSoC5/myADC.c **** /* Flag to hold ADC config number. By default active config is 1. */
  50:Generated_Source\PSoC5/myADC.c **** volatile uint8 myADC_Config = 1u;
  51:Generated_Source\PSoC5/myADC.c **** 
  52:Generated_Source\PSoC5/myADC.c **** volatile int32 myADC_Offset;
  53:Generated_Source\PSoC5/myADC.c **** volatile int32 myADC_CountsPerVolt;
  54:Generated_Source\PSoC5/myADC.c **** 
  55:Generated_Source\PSoC5/myADC.c **** 
  56:Generated_Source\PSoC5/myADC.c **** /***************************************
  57:Generated_Source\PSoC5/myADC.c **** * Local data allocation
  58:Generated_Source\PSoC5/myADC.c **** ***************************************/
  59:Generated_Source\PSoC5/myADC.c **** 
  60:Generated_Source\PSoC5/myADC.c **** /* The array with precalculated gain compensation coefficients */
  61:Generated_Source\PSoC5/myADC.c **** static myADC_GCOR_STRUCT myADC_gcor[myADC_DEFAULT_NUM_CONFIGS];
  62:Generated_Source\PSoC5/myADC.c **** 
  63:Generated_Source\PSoC5/myADC.c **** 
  64:Generated_Source\PSoC5/myADC.c **** 
  65:Generated_Source\PSoC5/myADC.c **** /***************************************
  66:Generated_Source\PSoC5/myADC.c **** * Forward function references
  67:Generated_Source\PSoC5/myADC.c **** ***************************************/
  68:Generated_Source\PSoC5/myADC.c **** static void myADC_InitConfig(uint8 config) ;
  69:Generated_Source\PSoC5/myADC.c **** static void myADC_GainCompensation(uint8 inputRange, uint16 idealDecGain, uint16 idealOddDecGain, 
  70:Generated_Source\PSoC5/myADC.c ****                             uint8 resolution, uint8 config) ;
  71:Generated_Source\PSoC5/myADC.c **** static void myADC_SetDSMRef0Reg(uint8 value) ;
  72:Generated_Source\PSoC5/myADC.c **** 
  73:Generated_Source\PSoC5/myADC.c **** 
  74:Generated_Source\PSoC5/myADC.c **** /******************************************************************************
  75:Generated_Source\PSoC5/myADC.c **** * Function Name: myADC_Init
  76:Generated_Source\PSoC5/myADC.c **** *******************************************************************************
  77:Generated_Source\PSoC5/myADC.c **** *
  78:Generated_Source\PSoC5/myADC.c **** * Summary:
  79:Generated_Source\PSoC5/myADC.c **** *  Initialize component's parameters to the parameters set by user in the
  80:Generated_Source\PSoC5/myADC.c **** *  customizer of the component placed onto schematic. Usually called in
  81:Generated_Source\PSoC5/myADC.c **** * myADC_Start().
  82:Generated_Source\PSoC5/myADC.c **** *
  83:Generated_Source\PSoC5/myADC.c **** *
  84:Generated_Source\PSoC5/myADC.c **** * Parameters:
  85:Generated_Source\PSoC5/myADC.c **** *  None
  86:Generated_Source\PSoC5/myADC.c **** *
  87:Generated_Source\PSoC5/myADC.c **** * Return:
  88:Generated_Source\PSoC5/myADC.c **** *  None
  89:Generated_Source\PSoC5/myADC.c **** *
ARM GAS  C:\Users\kcdasilv\AppData\Local\Temp\ccqnavs7.s 			page 3


  90:Generated_Source\PSoC5/myADC.c **** *******************************************************************************/
  91:Generated_Source\PSoC5/myADC.c **** void myADC_Init(void) 
  92:Generated_Source\PSoC5/myADC.c **** {
  93:Generated_Source\PSoC5/myADC.c **** 
  94:Generated_Source\PSoC5/myADC.c ****     myADC_Config = 1u;
  95:Generated_Source\PSoC5/myADC.c ****     myADC_convDone = 0u;
  96:Generated_Source\PSoC5/myADC.c **** 
  97:Generated_Source\PSoC5/myADC.c ****     myADC_Ext_CP_Clk_SetMode(CYCLK_DUTY);
  98:Generated_Source\PSoC5/myADC.c **** 
  99:Generated_Source\PSoC5/myADC.c ****     /* This is only valid if there is an internal clock */
 100:Generated_Source\PSoC5/myADC.c ****     #if(myADC_DEFAULT_INTERNAL_CLK)
 101:Generated_Source\PSoC5/myADC.c ****         myADC_theACLK_SetMode(CYCLK_DUTY);
 102:Generated_Source\PSoC5/myADC.c ****     #endif /* myADC_DEFAULT_INTERNAL_CLK */
 103:Generated_Source\PSoC5/myADC.c **** 
 104:Generated_Source\PSoC5/myADC.c ****     #if(myADC_IRQ_REMOVE == 0u)
 105:Generated_Source\PSoC5/myADC.c ****         /* Set interrupt priority */
 106:Generated_Source\PSoC5/myADC.c ****         CyIntSetPriority(myADC_INTC_NUMBER, myADC_INTC_PRIOR_NUMBER);
 107:Generated_Source\PSoC5/myADC.c ****     #endif   /* End myADC_IRQ_REMOVE */
 108:Generated_Source\PSoC5/myADC.c **** 
 109:Generated_Source\PSoC5/myADC.c ****     /* Init static registers with common configuration */
 110:Generated_Source\PSoC5/myADC.c ****     myADC_DSM_DEM0_REG    = myADC_CFG1_DSM_DEM0;
 111:Generated_Source\PSoC5/myADC.c ****     myADC_DSM_DEM1_REG    = myADC_CFG1_DSM_DEM1;
 112:Generated_Source\PSoC5/myADC.c ****     myADC_DSM_MISC_REG    = myADC_CFG1_DSM_MISC;
 113:Generated_Source\PSoC5/myADC.c ****     myADC_DSM_CLK_REG    |= myADC_CFG1_DSM_CLK;
 114:Generated_Source\PSoC5/myADC.c ****     myADC_DSM_REF1_REG    = myADC_CFG1_DSM_REF1;
 115:Generated_Source\PSoC5/myADC.c **** 
 116:Generated_Source\PSoC5/myADC.c ****     myADC_DSM_OUT0_REG    = myADC_CFG1_DSM_OUT0;
 117:Generated_Source\PSoC5/myADC.c ****     myADC_DSM_OUT1_REG    = myADC_CFG1_DSM_OUT1;
 118:Generated_Source\PSoC5/myADC.c **** 
 119:Generated_Source\PSoC5/myADC.c ****     myADC_DSM_CR0_REG     = myADC_CFG1_DSM_CR0;
 120:Generated_Source\PSoC5/myADC.c ****     myADC_DSM_CR1_REG     = myADC_CFG1_DSM_CR1;
 121:Generated_Source\PSoC5/myADC.c **** #if(myADC_MI_ENABLE != 0u) /* Enable Modulator Input */
 122:Generated_Source\PSoC5/myADC.c ****     myADC_DSM_CR3_REG     |= myADC_DSM_MODBIT_EN;
 123:Generated_Source\PSoC5/myADC.c **** #else
 124:Generated_Source\PSoC5/myADC.c ****     myADC_DSM_CR3_REG     = myADC_CFG1_DSM_CR3;
 125:Generated_Source\PSoC5/myADC.c **** #endif /* myADC_MI_ENABLE != 0u*/    
 126:Generated_Source\PSoC5/myADC.c ****     myADC_DSM_CR8_REG     = myADC_CFG1_DSM_CR8;
 127:Generated_Source\PSoC5/myADC.c ****     myADC_DSM_CR9_REG     = myADC_CFG1_DSM_CR9;
 128:Generated_Source\PSoC5/myADC.c ****     myADC_DSM_CR13_REG    = myADC_CFG1_DSM_CR13;
 129:Generated_Source\PSoC5/myADC.c **** 
 130:Generated_Source\PSoC5/myADC.c ****     myADC_DEC_SR_REG      = myADC_CFG1_DEC_SR;
 131:Generated_Source\PSoC5/myADC.c **** 
 132:Generated_Source\PSoC5/myADC.c ****     /* Calculate Gain compensation coefficients for all configurations */
 133:Generated_Source\PSoC5/myADC.c ****     myADC_GainCompensation(myADC_CFG1_INPUT_RANGE,
 134:Generated_Source\PSoC5/myADC.c ****                                       myADC_CFG1_IDEAL_DEC_GAIN,
 135:Generated_Source\PSoC5/myADC.c ****                                       myADC_CFG1_IDEAL_ODDDEC_GAIN,
 136:Generated_Source\PSoC5/myADC.c ****                                       myADC_CFG1_RESOLUTION,
 137:Generated_Source\PSoC5/myADC.c ****                                       myADC_CFG1);
 138:Generated_Source\PSoC5/myADC.c ****     #if(myADC_DEFAULT_NUM_CONFIGS > 1)
 139:Generated_Source\PSoC5/myADC.c ****         myADC_GainCompensation(myADC_CFG2_INPUT_RANGE,
 140:Generated_Source\PSoC5/myADC.c ****                                           myADC_CFG2_IDEAL_DEC_GAIN,
 141:Generated_Source\PSoC5/myADC.c ****                                           myADC_CFG2_IDEAL_ODDDEC_GAIN,
 142:Generated_Source\PSoC5/myADC.c ****                                           myADC_CFG2_RESOLUTION,
 143:Generated_Source\PSoC5/myADC.c ****                                           myADC_CFG2);
 144:Generated_Source\PSoC5/myADC.c ****     #endif /* myADC_DEFAULT_NUM_CONFIGS > 1 */
 145:Generated_Source\PSoC5/myADC.c ****     #if(myADC_DEFAULT_NUM_CONFIGS > 2)
 146:Generated_Source\PSoC5/myADC.c ****         myADC_GainCompensation(myADC_CFG3_INPUT_RANGE,
ARM GAS  C:\Users\kcdasilv\AppData\Local\Temp\ccqnavs7.s 			page 4


 147:Generated_Source\PSoC5/myADC.c ****                                           myADC_CFG3_IDEAL_DEC_GAIN,
 148:Generated_Source\PSoC5/myADC.c ****                                           myADC_CFG3_IDEAL_ODDDEC_GAIN,
 149:Generated_Source\PSoC5/myADC.c ****                                           myADC_CFG3_RESOLUTION,
 150:Generated_Source\PSoC5/myADC.c ****                                           myADC_CFG3);
 151:Generated_Source\PSoC5/myADC.c ****     #endif /* myADC_DEFAULT_NUM_CONFIGS > 2 */
 152:Generated_Source\PSoC5/myADC.c ****     #if(myADC_DEFAULT_NUM_CONFIGS > 3)
 153:Generated_Source\PSoC5/myADC.c ****         myADC_GainCompensation(myADC_CFG4_INPUT_RANGE,
 154:Generated_Source\PSoC5/myADC.c ****                                           myADC_CFG4_IDEAL_DEC_GAIN,
 155:Generated_Source\PSoC5/myADC.c ****                                           myADC_CFG4_IDEAL_ODDDEC_GAIN,
 156:Generated_Source\PSoC5/myADC.c ****                                           myADC_CFG4_RESOLUTION,
 157:Generated_Source\PSoC5/myADC.c ****                                           myADC_CFG4);
 158:Generated_Source\PSoC5/myADC.c ****     #endif /* myADC_DEFAULT_NUM_CONFIGS > 3 */
 159:Generated_Source\PSoC5/myADC.c **** 
 160:Generated_Source\PSoC5/myADC.c ****     /* Set GCOR register for config1 */
 161:Generated_Source\PSoC5/myADC.c ****     myADC_DEC_GVAL_REG = myADC_gcor[myADC_Config - 1u].gval;
 162:Generated_Source\PSoC5/myADC.c ****     CY_SET_REG16(myADC_DEC_GCOR_16B_PTR, myADC_gcor[myADC_Config - 1u].gcor);
 163:Generated_Source\PSoC5/myADC.c **** 
 164:Generated_Source\PSoC5/myADC.c ****     /* Initialize the registers with default customizer settings for config1 */
 165:Generated_Source\PSoC5/myADC.c ****     myADC_InitConfig(myADC_Config);
 166:Generated_Source\PSoC5/myADC.c **** }
 167:Generated_Source\PSoC5/myADC.c **** 
 168:Generated_Source\PSoC5/myADC.c **** 
 169:Generated_Source\PSoC5/myADC.c **** /******************************************************************************
 170:Generated_Source\PSoC5/myADC.c **** * Function Name: myADC_Enable
 171:Generated_Source\PSoC5/myADC.c **** *******************************************************************************
 172:Generated_Source\PSoC5/myADC.c **** *
 173:Generated_Source\PSoC5/myADC.c **** * Summary:
 174:Generated_Source\PSoC5/myADC.c **** *  Enables the ADC DelSig block operation.
 175:Generated_Source\PSoC5/myADC.c **** *
 176:Generated_Source\PSoC5/myADC.c **** *
 177:Generated_Source\PSoC5/myADC.c **** * Parameters:
 178:Generated_Source\PSoC5/myADC.c **** *  None
 179:Generated_Source\PSoC5/myADC.c **** *
 180:Generated_Source\PSoC5/myADC.c **** * Return:
 181:Generated_Source\PSoC5/myADC.c **** *  None
 182:Generated_Source\PSoC5/myADC.c **** *
 183:Generated_Source\PSoC5/myADC.c **** *******************************************************************************/
 184:Generated_Source\PSoC5/myADC.c **** void myADC_Enable(void) 
 185:Generated_Source\PSoC5/myADC.c **** {
 186:Generated_Source\PSoC5/myADC.c **** 	uint8 config;
 187:Generated_Source\PSoC5/myADC.c ****     uint8 enableInterrupts;
 188:Generated_Source\PSoC5/myADC.c ****     enableInterrupts = CyEnterCriticalSection();
 189:Generated_Source\PSoC5/myADC.c **** 
 190:Generated_Source\PSoC5/myADC.c ****     /* Read volatile variable to the local variable */
 191:Generated_Source\PSoC5/myADC.c ****     config = myADC_Config;
 192:Generated_Source\PSoC5/myADC.c ****     
 193:Generated_Source\PSoC5/myADC.c ****     /* Enable active mode power for ADC */
 194:Generated_Source\PSoC5/myADC.c ****     myADC_PWRMGR_DEC_REG |= myADC_ACT_PWR_DEC_EN;
 195:Generated_Source\PSoC5/myADC.c ****     myADC_PWRMGR_DSM_REG |= myADC_ACT_PWR_DSM_EN;
 196:Generated_Source\PSoC5/myADC.c **** 
 197:Generated_Source\PSoC5/myADC.c ****      /* Enable alternative active mode power for ADC */
 198:Generated_Source\PSoC5/myADC.c ****     myADC_STBY_PWRMGR_DEC_REG |= myADC_STBY_PWR_DEC_EN;
 199:Generated_Source\PSoC5/myADC.c ****     myADC_STBY_PWRMGR_DSM_REG |= myADC_STBY_PWR_DSM_EN;
 200:Generated_Source\PSoC5/myADC.c **** 
 201:Generated_Source\PSoC5/myADC.c ****     /* Disable PRES, Enable power to VCMBUF0, REFBUF0 and REFBUF1, enable PRES */
 202:Generated_Source\PSoC5/myADC.c ****     myADC_RESET_CR4_REG |= myADC_IGNORE_PRESA1;
 203:Generated_Source\PSoC5/myADC.c ****     myADC_RESET_CR5_REG |= myADC_IGNORE_PRESA2;
ARM GAS  C:\Users\kcdasilv\AppData\Local\Temp\ccqnavs7.s 			page 5


 204:Generated_Source\PSoC5/myADC.c **** 
 205:Generated_Source\PSoC5/myADC.c ****     myADC_DSM_CR17_REG |= (myADC_DSM_EN_BUF_VREF | myADC_DSM_EN_BUF_VCM);
 206:Generated_Source\PSoC5/myADC.c **** 
 207:Generated_Source\PSoC5/myADC.c ****     /* Code to disable the REFBUF0 if reference chosen is External ref */
 208:Generated_Source\PSoC5/myADC.c ****     #if (((myADC_CFG1_REFERENCE == myADC_EXT_REF_ON_P03) || \
 209:Generated_Source\PSoC5/myADC.c ****           (myADC_CFG1_REFERENCE == myADC_EXT_REF_ON_P32)) || \
 210:Generated_Source\PSoC5/myADC.c ****          ((myADC_DEFAULT_NUM_CONFIGS > 1) && \
 211:Generated_Source\PSoC5/myADC.c ****           ((myADC_CFG2_REFERENCE == myADC_EXT_REF_ON_P03) ||  \
 212:Generated_Source\PSoC5/myADC.c ****            (myADC_CFG2_REFERENCE == myADC_EXT_REF_ON_P32))) || \
 213:Generated_Source\PSoC5/myADC.c ****          ((myADC_DEFAULT_NUM_CONFIGS > 2) && \
 214:Generated_Source\PSoC5/myADC.c ****           ((myADC_CFG3_REFERENCE == myADC_EXT_REF_ON_P03) ||  \
 215:Generated_Source\PSoC5/myADC.c ****            (myADC_CFG3_REFERENCE == myADC_EXT_REF_ON_P32))) || \
 216:Generated_Source\PSoC5/myADC.c ****          ((myADC_DEFAULT_NUM_CONFIGS > 3) && \
 217:Generated_Source\PSoC5/myADC.c ****           ((myADC_CFG4_REFERENCE == myADC_EXT_REF_ON_P03) || \
 218:Generated_Source\PSoC5/myADC.c ****            (myADC_CFG4_REFERENCE == myADC_EXT_REF_ON_P32))))
 219:Generated_Source\PSoC5/myADC.c ****         if (((config == 1u) &&
 220:Generated_Source\PSoC5/myADC.c ****             ((myADC_CFG1_REFERENCE == myADC_EXT_REF_ON_P03) ||
 221:Generated_Source\PSoC5/myADC.c ****              (myADC_CFG1_REFERENCE == myADC_EXT_REF_ON_P32))) ||
 222:Generated_Source\PSoC5/myADC.c ****             ((config == 2u) &&
 223:Generated_Source\PSoC5/myADC.c ****             ((myADC_CFG2_REFERENCE == myADC_EXT_REF_ON_P03) ||
 224:Generated_Source\PSoC5/myADC.c ****              (myADC_CFG2_REFERENCE == myADC_EXT_REF_ON_P32))) ||
 225:Generated_Source\PSoC5/myADC.c ****             ((config == 3u) &&
 226:Generated_Source\PSoC5/myADC.c ****             ((myADC_CFG3_REFERENCE == myADC_EXT_REF_ON_P03) ||
 227:Generated_Source\PSoC5/myADC.c ****              (myADC_CFG3_REFERENCE == myADC_EXT_REF_ON_P32))) ||
 228:Generated_Source\PSoC5/myADC.c ****             ((config == 4u) &&
 229:Generated_Source\PSoC5/myADC.c ****             ((myADC_CFG4_REFERENCE == myADC_EXT_REF_ON_P03) ||
 230:Generated_Source\PSoC5/myADC.c ****              (myADC_CFG4_REFERENCE == myADC_EXT_REF_ON_P32))))
 231:Generated_Source\PSoC5/myADC.c ****         {
 232:Generated_Source\PSoC5/myADC.c ****             /* Disable the REFBUF0 */
 233:Generated_Source\PSoC5/myADC.c ****             myADC_DSM_CR17_REG &= (uint8)~myADC_DSM_EN_BUF_VREF;
 234:Generated_Source\PSoC5/myADC.c ****         }
 235:Generated_Source\PSoC5/myADC.c ****     #endif /* External ref */
 236:Generated_Source\PSoC5/myADC.c **** 
 237:Generated_Source\PSoC5/myADC.c ****     #if (((myADC_CFG1_INPUT_RANGE == myADC_IR_VSSA_TO_2VREF) || \
 238:Generated_Source\PSoC5/myADC.c ****          ((myADC_DEFAULT_NUM_CONFIGS > 1) && \
 239:Generated_Source\PSoC5/myADC.c ****           (myADC_CFG2_INPUT_RANGE == myADC_IR_VSSA_TO_2VREF)) || \
 240:Generated_Source\PSoC5/myADC.c ****          ((myADC_DEFAULT_NUM_CONFIGS > 2) && \
 241:Generated_Source\PSoC5/myADC.c ****           (myADC_CFG3_INPUT_RANGE == myADC_IR_VSSA_TO_2VREF)) || \
 242:Generated_Source\PSoC5/myADC.c ****          ((myADC_DEFAULT_NUM_CONFIGS > 3) && \
 243:Generated_Source\PSoC5/myADC.c ****           (myADC_CFG4_INPUT_RANGE == myADC_IR_VSSA_TO_2VREF))))
 244:Generated_Source\PSoC5/myADC.c ****         if(((config == 1u) &&
 245:Generated_Source\PSoC5/myADC.c ****             (myADC_CFG1_INPUT_RANGE == myADC_IR_VSSA_TO_2VREF) &&
 246:Generated_Source\PSoC5/myADC.c ****             ((myADC_CFG1_REFERENCE != myADC_EXT_REF_ON_P03) &&
 247:Generated_Source\PSoC5/myADC.c ****              (myADC_CFG1_REFERENCE != myADC_EXT_REF_ON_P32))) ||
 248:Generated_Source\PSoC5/myADC.c ****              ((config == 2u) &&
 249:Generated_Source\PSoC5/myADC.c ****               (myADC_CFG2_INPUT_RANGE == myADC_IR_VSSA_TO_2VREF) &&
 250:Generated_Source\PSoC5/myADC.c ****              ((myADC_CFG2_REFERENCE != myADC_EXT_REF_ON_P03) &&
 251:Generated_Source\PSoC5/myADC.c ****              (myADC_CFG2_REFERENCE != myADC_EXT_REF_ON_P32))) ||
 252:Generated_Source\PSoC5/myADC.c ****              ((config == 3u) &&
 253:Generated_Source\PSoC5/myADC.c ****               (myADC_CFG3_INPUT_RANGE == myADC_IR_VSSA_TO_2VREF) &&
 254:Generated_Source\PSoC5/myADC.c ****              ((myADC_CFG3_REFERENCE != myADC_EXT_REF_ON_P03) &&
 255:Generated_Source\PSoC5/myADC.c ****              (myADC_CFG3_REFERENCE != myADC_EXT_REF_ON_P32))) ||
 256:Generated_Source\PSoC5/myADC.c ****              ((config == 4u) &&
 257:Generated_Source\PSoC5/myADC.c ****               (myADC_CFG4_INPUT_RANGE == myADC_IR_VSSA_TO_2VREF) &&
 258:Generated_Source\PSoC5/myADC.c ****              ((myADC_CFG4_REFERENCE != myADC_EXT_REF_ON_P03) &&
 259:Generated_Source\PSoC5/myADC.c ****              (myADC_CFG4_REFERENCE != myADC_EXT_REF_ON_P32))))
 260:Generated_Source\PSoC5/myADC.c ****         {
ARM GAS  C:\Users\kcdasilv\AppData\Local\Temp\ccqnavs7.s 			page 6


 261:Generated_Source\PSoC5/myADC.c ****             /* Enable the REFBUF1 */
 262:Generated_Source\PSoC5/myADC.c ****             myADC_DSM_REF0_REG |= myADC_DSM_EN_BUF_VREF_INN;
 263:Generated_Source\PSoC5/myADC.c ****         }
 264:Generated_Source\PSoC5/myADC.c ****     #endif /* VSSA_TO_2VREF */
 265:Generated_Source\PSoC5/myADC.c ****     if(config != 0u)
 266:Generated_Source\PSoC5/myADC.c ****     {
 267:Generated_Source\PSoC5/myADC.c ****         /* Suppress compiler warning */
 268:Generated_Source\PSoC5/myADC.c ****     }
 269:Generated_Source\PSoC5/myADC.c **** 
 270:Generated_Source\PSoC5/myADC.c ****     /* Wait for 3 microseconds */
 271:Generated_Source\PSoC5/myADC.c ****     CyDelayUs(myADC_PRES_DELAY_TIME);
 272:Generated_Source\PSoC5/myADC.c **** 
 273:Generated_Source\PSoC5/myADC.c ****     /* Enable the press circuit */
 274:Generated_Source\PSoC5/myADC.c ****     myADC_RESET_CR4_REG &= (uint8)~myADC_IGNORE_PRESA1;
 275:Generated_Source\PSoC5/myADC.c ****     myADC_RESET_CR5_REG &= (uint8)~myADC_IGNORE_PRESA2;
 276:Generated_Source\PSoC5/myADC.c **** 
 277:Generated_Source\PSoC5/myADC.c ****     /* Enable negative pumps for DSM  */
 278:Generated_Source\PSoC5/myADC.c ****     myADC_PUMP_CR1_REG  |= ( myADC_PUMP_CR1_CLKSEL | myADC_PUMP_CR1_FORCE );
 279:Generated_Source\PSoC5/myADC.c **** 
 280:Generated_Source\PSoC5/myADC.c ****     /* Enable Modulator Chopping if required */
 281:Generated_Source\PSoC5/myADC.c ****     myADC_DSM_CR2_REG = myADC_CFG1_DSM_CR2;
 282:Generated_Source\PSoC5/myADC.c **** 
 283:Generated_Source\PSoC5/myADC.c ****     /* This is only valid if there is an internal clock */
 284:Generated_Source\PSoC5/myADC.c ****     #if(myADC_DEFAULT_INTERNAL_CLK)
 285:Generated_Source\PSoC5/myADC.c ****         myADC_PWRMGR_CLK_REG |= myADC_ACT_PWR_CLK_EN;
 286:Generated_Source\PSoC5/myADC.c ****         myADC_STBY_PWRMGR_CLK_REG |= myADC_STBY_PWR_CLK_EN;
 287:Generated_Source\PSoC5/myADC.c ****     #endif /* myADC_DEFAULT_INTERNAL_CLK */
 288:Generated_Source\PSoC5/myADC.c **** 
 289:Generated_Source\PSoC5/myADC.c ****     /* Enable the active and alternate active power for charge pump clock */
 290:Generated_Source\PSoC5/myADC.c ****     myADC_PWRMGR_CHARGE_PUMP_CLK_REG |= myADC_ACT_PWR_CHARGE_PUMP_CLK_EN;
 291:Generated_Source\PSoC5/myADC.c ****     myADC_STBY_PWRMGR_CHARGE_PUMP_CLK_REG |= myADC_STBY_PWR_CHARGE_PUMP_CLK_EN;
 292:Generated_Source\PSoC5/myADC.c **** 
 293:Generated_Source\PSoC5/myADC.c ****     #if(myADC_IRQ_REMOVE == 0u)
 294:Generated_Source\PSoC5/myADC.c ****         /* Clear a pending interrupt */
 295:Generated_Source\PSoC5/myADC.c ****         CyIntClearPending(myADC_INTC_NUMBER);
 296:Generated_Source\PSoC5/myADC.c ****         /* Enable interrupt */
 297:Generated_Source\PSoC5/myADC.c ****         CyIntEnable(myADC_INTC_NUMBER);
 298:Generated_Source\PSoC5/myADC.c ****     #endif   /* End myADC_IRQ_REMOVE */
 299:Generated_Source\PSoC5/myADC.c **** 
 300:Generated_Source\PSoC5/myADC.c ****     CyExitCriticalSection(enableInterrupts);
 301:Generated_Source\PSoC5/myADC.c **** 
 302:Generated_Source\PSoC5/myADC.c **** }
 303:Generated_Source\PSoC5/myADC.c **** 
 304:Generated_Source\PSoC5/myADC.c **** 
 305:Generated_Source\PSoC5/myADC.c **** /*******************************************************************************
 306:Generated_Source\PSoC5/myADC.c **** * Function Name: myADC_Start
 307:Generated_Source\PSoC5/myADC.c **** ********************************************************************************
 308:Generated_Source\PSoC5/myADC.c **** *
 309:Generated_Source\PSoC5/myADC.c **** * Summary:
 310:Generated_Source\PSoC5/myADC.c **** *  Performs all required initialization for this component and enables
 311:Generated_Source\PSoC5/myADC.c **** *  the power. It configure all the register the first time it is called.
 312:Generated_Source\PSoC5/myADC.c **** *  Subsequent calls of the Start function only enable the ADC and turn
 313:Generated_Source\PSoC5/myADC.c **** *  on the power. If multiple configurations are selected, it will
 314:Generated_Source\PSoC5/myADC.c **** *  configure the ADC for configuration 1 by default, unless the
 315:Generated_Source\PSoC5/myADC.c **** *  myADC_SelectConfiguration( ) function has been called to change
 316:Generated_Source\PSoC5/myADC.c **** *  the default setting.
 317:Generated_Source\PSoC5/myADC.c **** *
ARM GAS  C:\Users\kcdasilv\AppData\Local\Temp\ccqnavs7.s 			page 7


 318:Generated_Source\PSoC5/myADC.c **** * Parameters:
 319:Generated_Source\PSoC5/myADC.c **** *  None
 320:Generated_Source\PSoC5/myADC.c **** *
 321:Generated_Source\PSoC5/myADC.c **** * Return:
 322:Generated_Source\PSoC5/myADC.c **** *  None
 323:Generated_Source\PSoC5/myADC.c **** *
 324:Generated_Source\PSoC5/myADC.c **** * Global variables:
 325:Generated_Source\PSoC5/myADC.c **** *  myADC_initVar:  Used to check the initial configuration,
 326:Generated_Source\PSoC5/myADC.c **** *  modified when this function is called for the first time.
 327:Generated_Source\PSoC5/myADC.c **** *
 328:Generated_Source\PSoC5/myADC.c **** *******************************************************************************/
 329:Generated_Source\PSoC5/myADC.c **** void myADC_Start(void) 
 330:Generated_Source\PSoC5/myADC.c **** {
 331:Generated_Source\PSoC5/myADC.c ****     if(myADC_initVar == 0u)
 332:Generated_Source\PSoC5/myADC.c ****     {
 333:Generated_Source\PSoC5/myADC.c ****         if(myADC_started == 0u)
 334:Generated_Source\PSoC5/myADC.c ****         {
 335:Generated_Source\PSoC5/myADC.c ****             myADC_Init();
 336:Generated_Source\PSoC5/myADC.c ****         }
 337:Generated_Source\PSoC5/myADC.c ****         myADC_initVar = 1u;
 338:Generated_Source\PSoC5/myADC.c ****     }
 339:Generated_Source\PSoC5/myADC.c **** 
 340:Generated_Source\PSoC5/myADC.c ****     /* Enable the ADC */
 341:Generated_Source\PSoC5/myADC.c ****     myADC_Enable();
 342:Generated_Source\PSoC5/myADC.c **** }
 343:Generated_Source\PSoC5/myADC.c **** 
 344:Generated_Source\PSoC5/myADC.c **** 
 345:Generated_Source\PSoC5/myADC.c **** /*******************************************************************************
 346:Generated_Source\PSoC5/myADC.c **** * Function Name: myADC_Stop
 347:Generated_Source\PSoC5/myADC.c **** ********************************************************************************
 348:Generated_Source\PSoC5/myADC.c **** *
 349:Generated_Source\PSoC5/myADC.c **** * Summary:
 350:Generated_Source\PSoC5/myADC.c **** *  This function stops and powers down the ADC component and the internal
 351:Generated_Source\PSoC5/myADC.c **** *  clock if the external clock is not selected. If an external clock is
 352:Generated_Source\PSoC5/myADC.c **** *  used, it is up to the designer to power down the external clock it
 353:Generated_Source\PSoC5/myADC.c **** *  required.
 354:Generated_Source\PSoC5/myADC.c **** *
 355:Generated_Source\PSoC5/myADC.c **** * Parameters:
 356:Generated_Source\PSoC5/myADC.c **** *  None
 357:Generated_Source\PSoC5/myADC.c **** *
 358:Generated_Source\PSoC5/myADC.c **** * Return:
 359:Generated_Source\PSoC5/myADC.c **** *  None
 360:Generated_Source\PSoC5/myADC.c **** *
 361:Generated_Source\PSoC5/myADC.c **** *******************************************************************************/
 362:Generated_Source\PSoC5/myADC.c **** void myADC_Stop(void) 
 363:Generated_Source\PSoC5/myADC.c **** {
 364:Generated_Source\PSoC5/myADC.c ****     uint8 enableInterrupts;
 365:Generated_Source\PSoC5/myADC.c ****     enableInterrupts = CyEnterCriticalSection();
 366:Generated_Source\PSoC5/myADC.c **** 
 367:Generated_Source\PSoC5/myADC.c ****     /* Stop conversions */
 368:Generated_Source\PSoC5/myADC.c ****     myADC_DEC_CR_REG &= (uint8)~myADC_DEC_START_CONV;
 369:Generated_Source\PSoC5/myADC.c ****     myADC_DEC_SR_REG |=  myADC_DEC_INTR_CLEAR;
 370:Generated_Source\PSoC5/myADC.c **** 
 371:Generated_Source\PSoC5/myADC.c ****     /* Disable PRES, Disable power to VCMBUF0, REFBUF0 and REFBUF1,
 372:Generated_Source\PSoC5/myADC.c ****        enable PRES */
 373:Generated_Source\PSoC5/myADC.c ****     myADC_RESET_CR4_REG |= myADC_IGNORE_PRESA1;
 374:Generated_Source\PSoC5/myADC.c ****     myADC_RESET_CR5_REG |= myADC_IGNORE_PRESA2;
ARM GAS  C:\Users\kcdasilv\AppData\Local\Temp\ccqnavs7.s 			page 8


 375:Generated_Source\PSoC5/myADC.c **** 
 376:Generated_Source\PSoC5/myADC.c ****     myADC_DSM_CR17_REG &= (uint8)~(myADC_DSM_EN_BUF_VREF | myADC_DSM_EN_BUF_VCM);
 377:Generated_Source\PSoC5/myADC.c ****     myADC_DSM_REF0_REG &= (uint8)~myADC_DSM_EN_BUF_VREF_INN;
 378:Generated_Source\PSoC5/myADC.c **** 
 379:Generated_Source\PSoC5/myADC.c ****     /* Wait for 3 microseconds. */
 380:Generated_Source\PSoC5/myADC.c ****     CyDelayUs(myADC_PRES_DELAY_TIME);
 381:Generated_Source\PSoC5/myADC.c **** 
 382:Generated_Source\PSoC5/myADC.c ****     /* Enable the press circuit */
 383:Generated_Source\PSoC5/myADC.c ****     myADC_RESET_CR4_REG &= (uint8)~myADC_IGNORE_PRESA1;
 384:Generated_Source\PSoC5/myADC.c ****     myADC_RESET_CR5_REG &= (uint8)~myADC_IGNORE_PRESA2;
 385:Generated_Source\PSoC5/myADC.c **** 
 386:Generated_Source\PSoC5/myADC.c ****     /* Disable power to the ADC */
 387:Generated_Source\PSoC5/myADC.c ****     myADC_PWRMGR_DSM_REG &= (uint8)~myADC_ACT_PWR_DSM_EN;
 388:Generated_Source\PSoC5/myADC.c **** 
 389:Generated_Source\PSoC5/myADC.c ****     /* Disable power to Decimator block */
 390:Generated_Source\PSoC5/myADC.c ****     myADC_PWRMGR_DEC_REG &= (uint8)~myADC_ACT_PWR_DEC_EN;
 391:Generated_Source\PSoC5/myADC.c **** 
 392:Generated_Source\PSoC5/myADC.c ****     /* Disable alternative active power to the ADC */
 393:Generated_Source\PSoC5/myADC.c ****     myADC_STBY_PWRMGR_DEC_REG &= (uint8)~myADC_STBY_PWR_DEC_EN;
 394:Generated_Source\PSoC5/myADC.c ****     myADC_STBY_PWRMGR_DSM_REG &= (uint8)~myADC_STBY_PWR_DSM_EN;
 395:Generated_Source\PSoC5/myADC.c **** 
 396:Generated_Source\PSoC5/myADC.c ****    /* Disable negative pumps for DSM  */
 397:Generated_Source\PSoC5/myADC.c ****     myADC_PUMP_CR1_REG &= (uint8)~(myADC_PUMP_CR1_CLKSEL | myADC_PUMP_CR1_FORCE );
 398:Generated_Source\PSoC5/myADC.c **** 
 399:Generated_Source\PSoC5/myADC.c ****     /* This is only valid if there is an internal clock */
 400:Generated_Source\PSoC5/myADC.c ****     #if(myADC_DEFAULT_INTERNAL_CLK)
 401:Generated_Source\PSoC5/myADC.c ****         myADC_PWRMGR_CLK_REG &= (uint8)~myADC_ACT_PWR_CLK_EN;
 402:Generated_Source\PSoC5/myADC.c ****         myADC_STBY_PWRMGR_CLK_REG &= (uint8)~myADC_STBY_PWR_CLK_EN;
 403:Generated_Source\PSoC5/myADC.c ****     #endif /* myADC_DEFAULT_INTERNAL_CLK */
 404:Generated_Source\PSoC5/myADC.c **** 
 405:Generated_Source\PSoC5/myADC.c ****     /* Disable Modulator Chopping */
 406:Generated_Source\PSoC5/myADC.c ****     myADC_DSM_CR2_REG &= (uint8)~myADC_DSM_MOD_CHOP_EN;
 407:Generated_Source\PSoC5/myADC.c ****     /* Disable power to charge pump clock */
 408:Generated_Source\PSoC5/myADC.c ****     myADC_PWRMGR_CHARGE_PUMP_CLK_REG &= (uint8)~myADC_ACT_PWR_CHARGE_PUMP_CLK_EN;
 409:Generated_Source\PSoC5/myADC.c ****     myADC_STBY_PWRMGR_CHARGE_PUMP_CLK_REG &= (uint8)~myADC_STBY_PWR_CHARGE_PUMP_CLK_EN;
 410:Generated_Source\PSoC5/myADC.c ****     
 411:Generated_Source\PSoC5/myADC.c ****     CyExitCriticalSection(enableInterrupts);
 412:Generated_Source\PSoC5/myADC.c **** }
 413:Generated_Source\PSoC5/myADC.c **** 
 414:Generated_Source\PSoC5/myADC.c **** 
 415:Generated_Source\PSoC5/myADC.c **** /*******************************************************************************
 416:Generated_Source\PSoC5/myADC.c **** * Function Name: myADC_SetBufferGain
 417:Generated_Source\PSoC5/myADC.c **** ********************************************************************************
 418:Generated_Source\PSoC5/myADC.c **** *
 419:Generated_Source\PSoC5/myADC.c **** * Summary:
 420:Generated_Source\PSoC5/myADC.c **** *  Sets input buffer gain.
 421:Generated_Source\PSoC5/myADC.c **** *
 422:Generated_Source\PSoC5/myADC.c **** * Parameters:
 423:Generated_Source\PSoC5/myADC.c **** *  gain:  Two bit value to select a gain of 1, 2, 4, or 8.
 424:Generated_Source\PSoC5/myADC.c **** *
 425:Generated_Source\PSoC5/myADC.c **** * Return:
 426:Generated_Source\PSoC5/myADC.c **** *  None
 427:Generated_Source\PSoC5/myADC.c **** *
 428:Generated_Source\PSoC5/myADC.c **** *******************************************************************************/
 429:Generated_Source\PSoC5/myADC.c **** void myADC_SetBufferGain(uint8 gain) 
 430:Generated_Source\PSoC5/myADC.c **** {
 431:Generated_Source\PSoC5/myADC.c ****     uint8 tmpReg;
ARM GAS  C:\Users\kcdasilv\AppData\Local\Temp\ccqnavs7.s 			page 9


 432:Generated_Source\PSoC5/myADC.c ****     tmpReg = myADC_DSM_BUF1_REG & (uint8)~myADC_DSM_GAIN_MASK;
 433:Generated_Source\PSoC5/myADC.c ****     tmpReg |= (uint8)(gain << myADC_DSM_GAIN_SHIFT) & myADC_DSM_GAIN_MASK;
 434:Generated_Source\PSoC5/myADC.c ****     myADC_DSM_BUF1_REG = tmpReg;
 435:Generated_Source\PSoC5/myADC.c **** }
 436:Generated_Source\PSoC5/myADC.c **** 
 437:Generated_Source\PSoC5/myADC.c **** 
 438:Generated_Source\PSoC5/myADC.c **** /*******************************************************************************
 439:Generated_Source\PSoC5/myADC.c **** * Function Name: myADC_SetCoherency
 440:Generated_Source\PSoC5/myADC.c **** ********************************************************************************
 441:Generated_Source\PSoC5/myADC.c **** *
 442:Generated_Source\PSoC5/myADC.c **** * Summary:
 443:Generated_Source\PSoC5/myADC.c **** *  This function allows the user to change which of the ADC's 3 word
 444:Generated_Source\PSoC5/myADC.c **** *  result will trigger a coherency unlock. The ADC's result will not be
 445:Generated_Source\PSoC5/myADC.c **** *  updated until the set byte is read either by the ADC or DMA. 
 446:Generated_Source\PSoC5/myADC.c **** *  By default the LSB is the coherency byte for right alignment data format. 
 447:Generated_Source\PSoC5/myADC.c **** *  The middle or high byte is set automatically depend on left alignment 
 448:Generated_Source\PSoC5/myADC.c **** *  configuration for DMA data transfer.
 449:Generated_Source\PSoC5/myADC.c **** *  If DMA or if a custom API requires different byte to be read the last,
 450:Generated_Source\PSoC5/myADC.c **** *  this API should be used to set the last byte of the ADC result that is read. 
 451:Generated_Source\PSoC5/myADC.c **** *  If a multibyte read is performed either by DMA or the ARM processor, the
 452:Generated_Source\PSoC5/myADC.c **** *  coherency can be set to any byte in the last word read.
 453:Generated_Source\PSoC5/myADC.c **** *
 454:Generated_Source\PSoC5/myADC.c **** * Parameters:
 455:Generated_Source\PSoC5/myADC.c **** *  coherency:  Two bit value to set the coherency bit.
 456:Generated_Source\PSoC5/myADC.c **** *           00-Coherency checking off
 457:Generated_Source\PSoC5/myADC.c **** *           01-low byte is key byte
 458:Generated_Source\PSoC5/myADC.c **** *           02-middle byte is the key byte
 459:Generated_Source\PSoC5/myADC.c **** *           03-high byte is the key byte
 460:Generated_Source\PSoC5/myADC.c **** *
 461:Generated_Source\PSoC5/myADC.c **** * Return:
 462:Generated_Source\PSoC5/myADC.c **** *  None
 463:Generated_Source\PSoC5/myADC.c **** *
 464:Generated_Source\PSoC5/myADC.c **** *******************************************************************************/
 465:Generated_Source\PSoC5/myADC.c **** void myADC_SetCoherency(uint8 coherency) 
 466:Generated_Source\PSoC5/myADC.c **** {
 467:Generated_Source\PSoC5/myADC.c ****     uint8 tmpReg;
 468:Generated_Source\PSoC5/myADC.c **** 
 469:Generated_Source\PSoC5/myADC.c ****     tmpReg = myADC_DEC_COHER_REG & (uint8)~myADC_DEC_SAMP_KEY_MASK;
 470:Generated_Source\PSoC5/myADC.c ****     tmpReg |= coherency & myADC_DEC_SAMP_KEY_MASK;
 471:Generated_Source\PSoC5/myADC.c ****     myADC_DEC_COHER_REG = tmpReg;
 472:Generated_Source\PSoC5/myADC.c **** }
 473:Generated_Source\PSoC5/myADC.c **** 
 474:Generated_Source\PSoC5/myADC.c **** 
 475:Generated_Source\PSoC5/myADC.c **** /*******************************************************************************
 476:Generated_Source\PSoC5/myADC.c **** * Function Name: myADC_SetGCOR
 477:Generated_Source\PSoC5/myADC.c **** ********************************************************************************
 478:Generated_Source\PSoC5/myADC.c **** *
 479:Generated_Source\PSoC5/myADC.c **** * Summary:
 480:Generated_Source\PSoC5/myADC.c **** *  Calculates a new GCOR value and writes it into the GCOR register. 
 481:Generated_Source\PSoC5/myADC.c **** *  The GCOR value is a 16-bit value that represents a gain of 0 to 2. 
 482:Generated_Source\PSoC5/myADC.c **** *  The ADC result is multiplied by this value before it is placed in the ADC 
 483:Generated_Source\PSoC5/myADC.c **** *  output registers. The numerical format for the GCOR value is:
 484:Generated_Source\PSoC5/myADC.c **** *  0x0000 -> 0.000
 485:Generated_Source\PSoC5/myADC.c **** *  0x8000 -> 1.000
 486:Generated_Source\PSoC5/myADC.c **** *  0xFFFF -> 1.99997
 487:Generated_Source\PSoC5/myADC.c **** *  When executing the function, the old GCOR value is multiplied by
 488:Generated_Source\PSoC5/myADC.c **** *  gainAdjust and reloaded into the GCOR register.
ARM GAS  C:\Users\kcdasilv\AppData\Local\Temp\ccqnavs7.s 			page 10


 489:Generated_Source\PSoC5/myADC.c **** *
 490:Generated_Source\PSoC5/myADC.c **** * Parameters:
 491:Generated_Source\PSoC5/myADC.c **** *  gainAdjust:  floating point value to set GCOR registers.
 492:Generated_Source\PSoC5/myADC.c **** *
 493:Generated_Source\PSoC5/myADC.c **** * Return:
 494:Generated_Source\PSoC5/myADC.c **** *  uint8: 0 - if GCOR value is within the expected range.
 495:Generated_Source\PSoC5/myADC.c **** *         1 - the correction value is outside GCOR value range of
 496:Generated_Source\PSoC5/myADC.c **** *             0.00 to 1.9999.
 497:Generated_Source\PSoC5/myADC.c **** *
 498:Generated_Source\PSoC5/myADC.c **** * Side Effects:  The GVAL register is set to the amount of valid bits in the
 499:Generated_Source\PSoC5/myADC.c **** *                GCOR  register minus one. If GVAL is 15 (0x0F), all 16 bits
 500:Generated_Source\PSoC5/myADC.c **** *                of the GCOR registers will be valid. If for example GVAL is
 501:Generated_Source\PSoC5/myADC.c **** *                11 (0x0B) only 12 bits will be valid. The least 4 bits will
 502:Generated_Source\PSoC5/myADC.c **** *                be lost when the GCOR value is shifted 4 places to the right.
 503:Generated_Source\PSoC5/myADC.c **** *
 504:Generated_Source\PSoC5/myADC.c **** ******************************************************************************/
 505:Generated_Source\PSoC5/myADC.c **** uint8 myADC_SetGCOR(float32 gainAdjust) 
 506:Generated_Source\PSoC5/myADC.c **** {
 507:Generated_Source\PSoC5/myADC.c ****     uint16 tmpReg;
 508:Generated_Source\PSoC5/myADC.c ****     uint8 status;
 509:Generated_Source\PSoC5/myADC.c ****     float32 tmpValue;
 510:Generated_Source\PSoC5/myADC.c **** 
 511:Generated_Source\PSoC5/myADC.c ****     tmpReg = myADC_gcor[myADC_Config - 1u].gcor;
 512:Generated_Source\PSoC5/myADC.c ****     tmpValue = ((float32)tmpReg / (float32)myADC_IDEAL_GAIN_CONST);
 513:Generated_Source\PSoC5/myADC.c ****     tmpValue = tmpValue * gainAdjust;
 514:Generated_Source\PSoC5/myADC.c **** 
 515:Generated_Source\PSoC5/myADC.c ****     if (tmpValue > 1.9999)
 516:Generated_Source\PSoC5/myADC.c ****     {
 517:Generated_Source\PSoC5/myADC.c ****         status = 1u;
 518:Generated_Source\PSoC5/myADC.c ****     }
 519:Generated_Source\PSoC5/myADC.c ****     else
 520:Generated_Source\PSoC5/myADC.c ****     {
 521:Generated_Source\PSoC5/myADC.c ****         tmpValue *= (float32)myADC_IDEAL_GAIN_CONST;
 522:Generated_Source\PSoC5/myADC.c **** 		tmpReg = (uint16)tmpValue;
 523:Generated_Source\PSoC5/myADC.c ****         CY_SET_REG16(myADC_DEC_GCOR_16B_PTR, tmpReg);
 524:Generated_Source\PSoC5/myADC.c ****         /* Update gain array to be used by SelectConfiguration() API */
 525:Generated_Source\PSoC5/myADC.c ****        myADC_gcor[myADC_Config - 1u].gcor = tmpReg;
 526:Generated_Source\PSoC5/myADC.c **** 
 527:Generated_Source\PSoC5/myADC.c ****         status = 0u;
 528:Generated_Source\PSoC5/myADC.c **** 
 529:Generated_Source\PSoC5/myADC.c ****     }
 530:Generated_Source\PSoC5/myADC.c ****     return(status);
 531:Generated_Source\PSoC5/myADC.c **** }
 532:Generated_Source\PSoC5/myADC.c **** 
 533:Generated_Source\PSoC5/myADC.c **** 
 534:Generated_Source\PSoC5/myADC.c **** /******************************************************************************
 535:Generated_Source\PSoC5/myADC.c **** * Function Name: myADC_ReadGCOR
 536:Generated_Source\PSoC5/myADC.c **** *******************************************************************************
 537:Generated_Source\PSoC5/myADC.c **** *
 538:Generated_Source\PSoC5/myADC.c **** * Summary:
 539:Generated_Source\PSoC5/myADC.c **** *  This API returns the current GCOR register value, normalized based on the
 540:Generated_Source\PSoC5/myADC.c **** *  GVAL register settings.
 541:Generated_Source\PSoC5/myADC.c **** *  For example, if the GCOR value is 0x0812 and the GVAL register is set to 
 542:Generated_Source\PSoC5/myADC.c **** *  11 (0x0B) then the returned value will be shifted by for bits to the left.
 543:Generated_Source\PSoC5/myADC.c **** *  (Actual GCOR value = 0x0812, returned value = 0x8120)
 544:Generated_Source\PSoC5/myADC.c **** *
 545:Generated_Source\PSoC5/myADC.c **** * Parameters:
ARM GAS  C:\Users\kcdasilv\AppData\Local\Temp\ccqnavs7.s 			page 11


 546:Generated_Source\PSoC5/myADC.c **** *  None
 547:Generated_Source\PSoC5/myADC.c **** *
 548:Generated_Source\PSoC5/myADC.c **** * Return:
 549:Generated_Source\PSoC5/myADC.c **** *  uint16:  Normalized GCOR value.
 550:Generated_Source\PSoC5/myADC.c **** *
 551:Generated_Source\PSoC5/myADC.c **** *******************************************************************************/
 552:Generated_Source\PSoC5/myADC.c **** uint16 myADC_ReadGCOR(void) 
 553:Generated_Source\PSoC5/myADC.c **** {
 554:Generated_Source\PSoC5/myADC.c ****     uint8 gValue;
 555:Generated_Source\PSoC5/myADC.c ****     uint16 gcorValue;
 556:Generated_Source\PSoC5/myADC.c **** 
 557:Generated_Source\PSoC5/myADC.c ****     gValue = myADC_DEC_GVAL_REG;
 558:Generated_Source\PSoC5/myADC.c ****     gcorValue = CY_GET_REG16(myADC_DEC_GCOR_16B_PTR);
 559:Generated_Source\PSoC5/myADC.c **** 
 560:Generated_Source\PSoC5/myADC.c ****     if (gValue < myADC_MAX_GVAL)
 561:Generated_Source\PSoC5/myADC.c ****     {
 562:Generated_Source\PSoC5/myADC.c ****         gcorValue <<= myADC_MAX_GVAL - gValue;
 563:Generated_Source\PSoC5/myADC.c ****     }
 564:Generated_Source\PSoC5/myADC.c **** 
 565:Generated_Source\PSoC5/myADC.c ****     return gcorValue;
 566:Generated_Source\PSoC5/myADC.c **** }
 567:Generated_Source\PSoC5/myADC.c **** 
 568:Generated_Source\PSoC5/myADC.c **** 
 569:Generated_Source\PSoC5/myADC.c **** /*******************************************************************************
 570:Generated_Source\PSoC5/myADC.c **** * Function Name: myADC_StartConvert
 571:Generated_Source\PSoC5/myADC.c **** ********************************************************************************
 572:Generated_Source\PSoC5/myADC.c **** *
 573:Generated_Source\PSoC5/myADC.c **** * Summary:
 574:Generated_Source\PSoC5/myADC.c **** *  Forces the ADC to initiate a conversion. If in the "Single Sample"
 575:Generated_Source\PSoC5/myADC.c **** *  mode, one conversion will be performed then the ADC will halt. If in
 576:Generated_Source\PSoC5/myADC.c **** *  one of the other three conversion modes, the ADC will run
 577:Generated_Source\PSoC5/myADC.c **** *  continuously until the ADC_Stop() or ADC_StopConvert() is called.
 578:Generated_Source\PSoC5/myADC.c **** *
 579:Generated_Source\PSoC5/myADC.c **** * Parameters:
 580:Generated_Source\PSoC5/myADC.c **** *  None
 581:Generated_Source\PSoC5/myADC.c **** *
 582:Generated_Source\PSoC5/myADC.c **** * Return:
 583:Generated_Source\PSoC5/myADC.c **** *  None
 584:Generated_Source\PSoC5/myADC.c **** *
 585:Generated_Source\PSoC5/myADC.c **** *******************************************************************************/
 586:Generated_Source\PSoC5/myADC.c **** void myADC_StartConvert(void) 
 587:Generated_Source\PSoC5/myADC.c **** {
 588:Generated_Source\PSoC5/myADC.c ****     /* Start the conversion */
 589:Generated_Source\PSoC5/myADC.c ****     myADC_DEC_CR_REG |= myADC_DEC_START_CONV;
 590:Generated_Source\PSoC5/myADC.c **** }
 591:Generated_Source\PSoC5/myADC.c **** 
 592:Generated_Source\PSoC5/myADC.c **** 
 593:Generated_Source\PSoC5/myADC.c **** /*******************************************************************************
 594:Generated_Source\PSoC5/myADC.c **** * Function Name: myADC_StopConvert
 595:Generated_Source\PSoC5/myADC.c **** ********************************************************************************
 596:Generated_Source\PSoC5/myADC.c **** *
 597:Generated_Source\PSoC5/myADC.c **** * Summary:
 598:Generated_Source\PSoC5/myADC.c **** *  Forces the ADC to stop all conversions. If the ADC is in the middle of a
 599:Generated_Source\PSoC5/myADC.c **** *  conversion, the ADC will be reset and not provide a result for that partial
 600:Generated_Source\PSoC5/myADC.c **** *  conversion.
 601:Generated_Source\PSoC5/myADC.c **** *
 602:Generated_Source\PSoC5/myADC.c **** * Parameters:
ARM GAS  C:\Users\kcdasilv\AppData\Local\Temp\ccqnavs7.s 			page 12


 603:Generated_Source\PSoC5/myADC.c **** *  None
 604:Generated_Source\PSoC5/myADC.c **** *
 605:Generated_Source\PSoC5/myADC.c **** * Return:
 606:Generated_Source\PSoC5/myADC.c **** *  None
 607:Generated_Source\PSoC5/myADC.c **** *
 608:Generated_Source\PSoC5/myADC.c **** *******************************************************************************/
 609:Generated_Source\PSoC5/myADC.c **** void myADC_StopConvert(void) 
 610:Generated_Source\PSoC5/myADC.c **** {
 611:Generated_Source\PSoC5/myADC.c ****     /* Stop all conversions */
 612:Generated_Source\PSoC5/myADC.c ****     myADC_DEC_CR_REG &= (uint8)~myADC_DEC_START_CONV;
 613:Generated_Source\PSoC5/myADC.c **** }
 614:Generated_Source\PSoC5/myADC.c **** 
 615:Generated_Source\PSoC5/myADC.c **** 
 616:Generated_Source\PSoC5/myADC.c **** /*******************************************************************************
 617:Generated_Source\PSoC5/myADC.c **** * Function Name: myADC_IsEndConversion
 618:Generated_Source\PSoC5/myADC.c **** ********************************************************************************
 619:Generated_Source\PSoC5/myADC.c **** *
 620:Generated_Source\PSoC5/myADC.c **** * Summary:
 621:Generated_Source\PSoC5/myADC.c **** *  Checks the status that the most recently started conversion has completed.
 622:Generated_Source\PSoC5/myADC.c **** *  The status is cleared by any of ADC_GetResult8(), ADC_GetResult16() or 
 623:Generated_Source\PSoC5/myADC.c **** *  ADC_GetResult32() API.
 624:Generated_Source\PSoC5/myADC.c **** *  This function provides the programmer with two options. In one mode this 
 625:Generated_Source\PSoC5/myADC.c **** *  function immediately returns with the conversion status. In the other mode,
 626:Generated_Source\PSoC5/myADC.c **** *  the function does not return (blocking) until the conversion has completed.
 627:Generated_Source\PSoC5/myADC.c **** *
 628:Generated_Source\PSoC5/myADC.c **** * Parameters:
 629:Generated_Source\PSoC5/myADC.c **** *  retMode: Check conversion return mode. See the following table for options.
 630:Generated_Source\PSoC5/myADC.c **** *   myADC_RETURN_STATUS -   Immediately returns conversion result
 631:Generated_Source\PSoC5/myADC.c **** *                                      status.
 632:Generated_Source\PSoC5/myADC.c **** *   myADC_WAIT_FOR_RESULT - Does not return until ADC conversion
 633:Generated_Source\PSoC5/myADC.c **** *                                      is complete.
 634:Generated_Source\PSoC5/myADC.c **** *
 635:Generated_Source\PSoC5/myADC.c **** * Return:
 636:Generated_Source\PSoC5/myADC.c **** *  If a nonzero value is returned, the last conversion has completed.
 637:Generated_Source\PSoC5/myADC.c **** *  If the returned value is zero, the ADC is still calculating the last result.
 638:Generated_Source\PSoC5/myADC.c **** *
 639:Generated_Source\PSoC5/myADC.c **** * Global variables:
 640:Generated_Source\PSoC5/myADC.c **** *  myADC_convDone:  Used to check whether conversion is complete
 641:Generated_Source\PSoC5/myADC.c **** *  or not for single sample mode with resolution is above 16
 642:Generated_Source\PSoC5/myADC.c **** *
 643:Generated_Source\PSoC5/myADC.c **** *******************************************************************************/
 644:Generated_Source\PSoC5/myADC.c **** uint8 myADC_IsEndConversion(uint8 retMode) 
 645:Generated_Source\PSoC5/myADC.c **** {
 646:Generated_Source\PSoC5/myADC.c ****     uint8 status;
 647:Generated_Source\PSoC5/myADC.c **** 
 648:Generated_Source\PSoC5/myADC.c ****     do
 649:Generated_Source\PSoC5/myADC.c ****     {
 650:Generated_Source\PSoC5/myADC.c ****         /* Check for stop convert if conversion mode is Single Sample with
 651:Generated_Source\PSoC5/myADC.c ****         *   resolution above 16 bit
 652:Generated_Source\PSoC5/myADC.c ****         */
 653:Generated_Source\PSoC5/myADC.c ****         if(myADC_stopConversion != 0u)
 654:Generated_Source\PSoC5/myADC.c ****         {
 655:Generated_Source\PSoC5/myADC.c ****             status = myADC_convDone;
 656:Generated_Source\PSoC5/myADC.c ****         }
 657:Generated_Source\PSoC5/myADC.c ****         else
 658:Generated_Source\PSoC5/myADC.c ****         {
 659:Generated_Source\PSoC5/myADC.c ****             status = myADC_DEC_SR_REG & myADC_DEC_CONV_DONE;
ARM GAS  C:\Users\kcdasilv\AppData\Local\Temp\ccqnavs7.s 			page 13


 660:Generated_Source\PSoC5/myADC.c ****         }
 661:Generated_Source\PSoC5/myADC.c ****     }while((status != myADC_DEC_CONV_DONE) && (retMode == myADC_WAIT_FOR_RESULT));
 662:Generated_Source\PSoC5/myADC.c **** 
 663:Generated_Source\PSoC5/myADC.c ****     return(status);
 664:Generated_Source\PSoC5/myADC.c **** }
 665:Generated_Source\PSoC5/myADC.c **** 
 666:Generated_Source\PSoC5/myADC.c **** 
 667:Generated_Source\PSoC5/myADC.c **** /*******************************************************************************
 668:Generated_Source\PSoC5/myADC.c **** * Function Name: myADC_GetResult8
 669:Generated_Source\PSoC5/myADC.c **** ********************************************************************************
 670:Generated_Source\PSoC5/myADC.c **** *
 671:Generated_Source\PSoC5/myADC.c **** * Summary:
 672:Generated_Source\PSoC5/myADC.c **** *  This function returns the result of an 8-bit conversion. If the
 673:Generated_Source\PSoC5/myADC.c **** *  resolution is set greater than 8-bits, the LSB of the result will be
 674:Generated_Source\PSoC5/myADC.c **** *  returned. When the ADC is configured for 8-bit single ended mode,
 675:Generated_Source\PSoC5/myADC.c **** *  the ADC_GetResult16() function should be used instead. This
 676:Generated_Source\PSoC5/myADC.c **** *  function returns only signed 8-bit values. The maximum positive
 677:Generated_Source\PSoC5/myADC.c **** *  signed 8-bit value is 127, but in singled ended 8-bit mode, the
 678:Generated_Source\PSoC5/myADC.c **** *  maximum positive value is 255.
 679:Generated_Source\PSoC5/myADC.c **** *
 680:Generated_Source\PSoC5/myADC.c **** * Parameters:
 681:Generated_Source\PSoC5/myADC.c **** *  None
 682:Generated_Source\PSoC5/myADC.c **** *
 683:Generated_Source\PSoC5/myADC.c **** * Return:
 684:Generated_Source\PSoC5/myADC.c **** *  int8: The LSB of the last ADC conversion.
 685:Generated_Source\PSoC5/myADC.c **** *
 686:Generated_Source\PSoC5/myADC.c **** * Global variables:
 687:Generated_Source\PSoC5/myADC.c **** *  myADC_convDone:  Cleared in single sample mode with resolution
 688:Generated_Source\PSoC5/myADC.c **** *                              above 16 bits
 689:Generated_Source\PSoC5/myADC.c **** *
 690:Generated_Source\PSoC5/myADC.c **** *******************************************************************************/
 691:Generated_Source\PSoC5/myADC.c **** int8 myADC_GetResult8( void ) 
 692:Generated_Source\PSoC5/myADC.c **** {
 693:Generated_Source\PSoC5/myADC.c ****     int8 result;
 694:Generated_Source\PSoC5/myADC.c ****     uint8 coherency;
 695:Generated_Source\PSoC5/myADC.c **** 
 696:Generated_Source\PSoC5/myADC.c ****     /* Read active coherency configuration */
 697:Generated_Source\PSoC5/myADC.c ****     coherency = myADC_DEC_COHER_REG & myADC_DEC_SAMP_KEY_MASK;
 698:Generated_Source\PSoC5/myADC.c **** 
 699:Generated_Source\PSoC5/myADC.c ****     result = (int8)myADC_DEC_SAMP_REG;
 700:Generated_Source\PSoC5/myADC.c **** 
 701:Generated_Source\PSoC5/myADC.c ****     if(coherency == myADC_DEC_SAMP_KEY_MID)
 702:Generated_Source\PSoC5/myADC.c ****     {   /* Dummy read of the middle byte to unlock the coherency */
 703:Generated_Source\PSoC5/myADC.c ****         (void)myADC_DEC_SAMPM_REG;
 704:Generated_Source\PSoC5/myADC.c ****     }
 705:Generated_Source\PSoC5/myADC.c ****     else  if(coherency == myADC_DEC_SAMP_KEY_HIGH)
 706:Generated_Source\PSoC5/myADC.c ****     {   /* Dummy read of the MSB byte to unlock the coherency */
 707:Generated_Source\PSoC5/myADC.c ****         (void)myADC_DEC_SAMPH_REG;
 708:Generated_Source\PSoC5/myADC.c ****     }
 709:Generated_Source\PSoC5/myADC.c ****     else /*No action required for other coherency */
 710:Generated_Source\PSoC5/myADC.c ****     {
 711:Generated_Source\PSoC5/myADC.c ****     }
 712:Generated_Source\PSoC5/myADC.c ****     /* Clear conversion complete status in Single Sample mode with resolution above 16 bit */
 713:Generated_Source\PSoC5/myADC.c ****     if(myADC_stopConversion != 0u)
 714:Generated_Source\PSoC5/myADC.c ****     {
 715:Generated_Source\PSoC5/myADC.c ****         myADC_convDone = 0u;
 716:Generated_Source\PSoC5/myADC.c ****     }
ARM GAS  C:\Users\kcdasilv\AppData\Local\Temp\ccqnavs7.s 			page 14


 717:Generated_Source\PSoC5/myADC.c ****     return (result);
 718:Generated_Source\PSoC5/myADC.c **** }
 719:Generated_Source\PSoC5/myADC.c **** 
 720:Generated_Source\PSoC5/myADC.c **** 
 721:Generated_Source\PSoC5/myADC.c **** /*******************************************************************************
 722:Generated_Source\PSoC5/myADC.c **** * Function Name: myADC_GetResult16
 723:Generated_Source\PSoC5/myADC.c **** ********************************************************************************
 724:Generated_Source\PSoC5/myADC.c **** *
 725:Generated_Source\PSoC5/myADC.c **** * Summary:
 726:Generated_Source\PSoC5/myADC.c **** *  Returns a 16-bit result for a conversion with a result that has a
 727:Generated_Source\PSoC5/myADC.c **** *  resolution of 8 to 16 bits. If the resolution is set greater than 16-bits,
 728:Generated_Source\PSoC5/myADC.c **** *  it will return the 16 least significant bits of the result. When the ADC
 729:Generated_Source\PSoC5/myADC.c **** *  is configured for 16-bit single ended mode, the ADC_GetResult32()
 730:Generated_Source\PSoC5/myADC.c **** *  function should be used instead. This function returns only signed
 731:Generated_Source\PSoC5/myADC.c **** *  16-bit result, which allows a maximum positive value of 32767, not 65535.
 732:Generated_Source\PSoC5/myADC.c **** *  This function supports different coherency settings.
 733:Generated_Source\PSoC5/myADC.c **** *
 734:Generated_Source\PSoC5/myADC.c **** * Parameters:
 735:Generated_Source\PSoC5/myADC.c **** *   void
 736:Generated_Source\PSoC5/myADC.c **** *
 737:Generated_Source\PSoC5/myADC.c **** * Return:
 738:Generated_Source\PSoC5/myADC.c **** *  int16:  ADC result.
 739:Generated_Source\PSoC5/myADC.c **** *
 740:Generated_Source\PSoC5/myADC.c **** * Global variables:
 741:Generated_Source\PSoC5/myADC.c **** *  myADC_convDone:  Cleared in single sample mode with resolution
 742:Generated_Source\PSoC5/myADC.c **** *                              above 16 bits
 743:Generated_Source\PSoC5/myADC.c **** *
 744:Generated_Source\PSoC5/myADC.c **** *******************************************************************************/
 745:Generated_Source\PSoC5/myADC.c **** int16 myADC_GetResult16(void) 
 746:Generated_Source\PSoC5/myADC.c **** {
 747:Generated_Source\PSoC5/myADC.c ****     uint16 result;
 748:Generated_Source\PSoC5/myADC.c ****     uint8 coherency;
 749:Generated_Source\PSoC5/myADC.c **** 
 750:Generated_Source\PSoC5/myADC.c ****     /* Read active coherency configuration */
 751:Generated_Source\PSoC5/myADC.c ****     coherency = myADC_DEC_COHER_REG & myADC_DEC_SAMP_KEY_MASK;
 752:Generated_Source\PSoC5/myADC.c **** 
 753:Generated_Source\PSoC5/myADC.c ****     if(coherency <= myADC_DEC_SAMP_KEY_LOW)
 754:Generated_Source\PSoC5/myADC.c ****     {   /*  Use default method to read result registers i.e. LSB byte read at the end*/
 755:Generated_Source\PSoC5/myADC.c ****         #if (CY_PSOC3)
 756:Generated_Source\PSoC5/myADC.c ****             result = myADC_DEC_SAMPM_REG;
 757:Generated_Source\PSoC5/myADC.c ****             result = (result << 8u) | myADC_DEC_SAMP_REG;
 758:Generated_Source\PSoC5/myADC.c ****         #else
 759:Generated_Source\PSoC5/myADC.c ****             result = (CY_GET_REG16(myADC_DEC_SAMP_16B_PTR));
 760:Generated_Source\PSoC5/myADC.c ****         #endif /* CY_PSOC3 */
 761:Generated_Source\PSoC5/myADC.c ****     }
 762:Generated_Source\PSoC5/myADC.c ****     else /* MID or HIGH */
 763:Generated_Source\PSoC5/myADC.c ****     {   /* Read middle byte at the end */
 764:Generated_Source\PSoC5/myADC.c ****         #if (CY_PSOC3)
 765:Generated_Source\PSoC5/myADC.c ****             result = (CY_GET_REG16(myADC_DEC_SAMP_16B_PTR));
 766:Generated_Source\PSoC5/myADC.c ****         #else
 767:Generated_Source\PSoC5/myADC.c ****             result = myADC_DEC_SAMP_REG;
 768:Generated_Source\PSoC5/myADC.c ****             result |=  (uint16)((uint16)myADC_DEC_SAMPM_REG << 8u);
 769:Generated_Source\PSoC5/myADC.c ****         #endif /* CY_PSOC3 */
 770:Generated_Source\PSoC5/myADC.c ****         if(coherency == myADC_DEC_SAMP_KEY_HIGH)
 771:Generated_Source\PSoC5/myADC.c ****         {   /* Dummy read of the MSB byte to unlock the coherency */
 772:Generated_Source\PSoC5/myADC.c ****             (void)myADC_DEC_SAMPH_REG;
 773:Generated_Source\PSoC5/myADC.c ****         }
ARM GAS  C:\Users\kcdasilv\AppData\Local\Temp\ccqnavs7.s 			page 15


 774:Generated_Source\PSoC5/myADC.c ****     }
 775:Generated_Source\PSoC5/myADC.c ****     /* Clear conversion complete status in Single Sample mode with resolution above 16 bit */
 776:Generated_Source\PSoC5/myADC.c ****     if(myADC_stopConversion != 0u)
 777:Generated_Source\PSoC5/myADC.c ****     {
 778:Generated_Source\PSoC5/myADC.c ****         myADC_convDone = 0u;
 779:Generated_Source\PSoC5/myADC.c ****     }
 780:Generated_Source\PSoC5/myADC.c **** 
 781:Generated_Source\PSoC5/myADC.c ****     return ((int16)result);
 782:Generated_Source\PSoC5/myADC.c **** }
 783:Generated_Source\PSoC5/myADC.c **** 
 784:Generated_Source\PSoC5/myADC.c **** 
 785:Generated_Source\PSoC5/myADC.c **** /*******************************************************************************
 786:Generated_Source\PSoC5/myADC.c **** * Function Name: myADC_GetResult32
 787:Generated_Source\PSoC5/myADC.c **** ********************************************************************************
 788:Generated_Source\PSoC5/myADC.c **** *
 789:Generated_Source\PSoC5/myADC.c **** * Summary:
 790:Generated_Source\PSoC5/myADC.c **** *  Returns a 32-bit result for a conversion with a result that has a
 791:Generated_Source\PSoC5/myADC.c **** *  resolution of 8 to 20 bits.
 792:Generated_Source\PSoC5/myADC.c **** *  This function supports different coherency settings.
 793:Generated_Source\PSoC5/myADC.c **** *
 794:Generated_Source\PSoC5/myADC.c **** * Parameters:
 795:Generated_Source\PSoC5/myADC.c **** *  None
 796:Generated_Source\PSoC5/myADC.c **** *
 797:Generated_Source\PSoC5/myADC.c **** * Return:
 798:Generated_Source\PSoC5/myADC.c **** *  int32: Result of the last ADC conversion.
 799:Generated_Source\PSoC5/myADC.c **** *
 800:Generated_Source\PSoC5/myADC.c **** * Global variables:
 801:Generated_Source\PSoC5/myADC.c **** *  myADC_convDone:  Cleared in single sample mode with resolution
 802:Generated_Source\PSoC5/myADC.c **** *                              above 16 bits
 803:Generated_Source\PSoC5/myADC.c **** *
 804:Generated_Source\PSoC5/myADC.c **** *******************************************************************************/
 805:Generated_Source\PSoC5/myADC.c **** int32 myADC_GetResult32(void) 
 806:Generated_Source\PSoC5/myADC.c **** {
 807:Generated_Source\PSoC5/myADC.c ****     uint32 result;
 808:Generated_Source\PSoC5/myADC.c ****     uint8 coherency;
 809:Generated_Source\PSoC5/myADC.c ****     #if (CY_PSOC3)
 810:Generated_Source\PSoC5/myADC.c **** 	    uint16 tmp;
 811:Generated_Source\PSoC5/myADC.c ****     #endif /* CY_PSOC3 */
 812:Generated_Source\PSoC5/myADC.c **** 
 813:Generated_Source\PSoC5/myADC.c ****     /* Read active coherency configuration */
 814:Generated_Source\PSoC5/myADC.c ****     coherency = myADC_DEC_COHER_REG & myADC_DEC_SAMP_KEY_MASK;
 815:Generated_Source\PSoC5/myADC.c **** 
 816:Generated_Source\PSoC5/myADC.c ****     if(coherency <= myADC_DEC_SAMP_KEY_LOW)
 817:Generated_Source\PSoC5/myADC.c ****     {   /*  Use default method to read result registers i.e. LSB byte read at the end*/
 818:Generated_Source\PSoC5/myADC.c ****         #if (CY_PSOC3)
 819:Generated_Source\PSoC5/myADC.c ****             result = myADC_DEC_SAMPH_REG;
 820:Generated_Source\PSoC5/myADC.c ****             if((result & 0x80u) != 0u)
 821:Generated_Source\PSoC5/myADC.c ****             {   /* Sign extend */
 822:Generated_Source\PSoC5/myADC.c ****                 result |= 0xFF00u;
 823:Generated_Source\PSoC5/myADC.c ****             }
 824:Generated_Source\PSoC5/myADC.c ****             result = (result << 8u) | myADC_DEC_SAMPM_REG;
 825:Generated_Source\PSoC5/myADC.c ****             result = (result << 8u) | myADC_DEC_SAMP_REG;
 826:Generated_Source\PSoC5/myADC.c ****         #else
 827:Generated_Source\PSoC5/myADC.c ****             result = CY_GET_REG16(myADC_DEC_SAMPH_16B_PTR);
 828:Generated_Source\PSoC5/myADC.c ****             result = (result << 16u) | (CY_GET_REG16(myADC_DEC_SAMP_16B_PTR));
 829:Generated_Source\PSoC5/myADC.c ****         #endif /* CY_PSOC3 */
 830:Generated_Source\PSoC5/myADC.c ****     }
ARM GAS  C:\Users\kcdasilv\AppData\Local\Temp\ccqnavs7.s 			page 16


 831:Generated_Source\PSoC5/myADC.c ****     else if(coherency == myADC_DEC_SAMP_KEY_MID)
 832:Generated_Source\PSoC5/myADC.c ****     {   /* Read middle byte at the end */
 833:Generated_Source\PSoC5/myADC.c ****         #if (CY_PSOC3)
 834:Generated_Source\PSoC5/myADC.c ****             result = myADC_DEC_SAMPH_REG;
 835:Generated_Source\PSoC5/myADC.c ****             if((result & 0x80u) != 0u)
 836:Generated_Source\PSoC5/myADC.c ****             {   /* Sign extend */
 837:Generated_Source\PSoC5/myADC.c ****                 result |= 0xFF00u;
 838:Generated_Source\PSoC5/myADC.c ****             }
 839:Generated_Source\PSoC5/myADC.c ****             result = (result << 16u) | (CY_GET_REG16(myADC_DEC_SAMP_16B_PTR));
 840:Generated_Source\PSoC5/myADC.c ****         #else
 841:Generated_Source\PSoC5/myADC.c ****             result = CY_GET_REG16(myADC_DEC_SAMPH_16B_PTR);
 842:Generated_Source\PSoC5/myADC.c ****             result = (result << 16u) | myADC_DEC_SAMP_REG;
 843:Generated_Source\PSoC5/myADC.c ****             result |=  (uint32)((uint32)myADC_DEC_SAMPM_REG << 8u);
 844:Generated_Source\PSoC5/myADC.c ****         #endif /* CY_PSOC3 */
 845:Generated_Source\PSoC5/myADC.c ****     }
 846:Generated_Source\PSoC5/myADC.c ****     else /*myADC_DEC_SAMP_KEY_HIGH */
 847:Generated_Source\PSoC5/myADC.c ****     {
 848:Generated_Source\PSoC5/myADC.c ****         /* Read MSB byte at the end */
 849:Generated_Source\PSoC5/myADC.c ****         #if (CY_PSOC3)
 850:Generated_Source\PSoC5/myADC.c ****             result = CY_GET_REG16(myADC_DEC_SAMP_16B_PTR);
 851:Generated_Source\PSoC5/myADC.c **** 			tmp = myADC_DEC_SAMPH_REG;
 852:Generated_Source\PSoC5/myADC.c ****             if((tmp & 0x80u) != 0u)
 853:Generated_Source\PSoC5/myADC.c ****             {   /* Sign extend */
 854:Generated_Source\PSoC5/myADC.c ****                 tmp |= 0xFF00u;
 855:Generated_Source\PSoC5/myADC.c ****             }
 856:Generated_Source\PSoC5/myADC.c ****             result |= (uint32)tmp << 16u;
 857:Generated_Source\PSoC5/myADC.c ****         #else
 858:Generated_Source\PSoC5/myADC.c ****             result = CY_GET_REG16(myADC_DEC_SAMP_16B_PTR);
 859:Generated_Source\PSoC5/myADC.c ****             result |= (uint32)((uint32)CY_GET_REG16(myADC_DEC_SAMPH_16B_PTR) << 16u);
 860:Generated_Source\PSoC5/myADC.c ****         #endif /* CY_PSOC3 */
 861:Generated_Source\PSoC5/myADC.c ****     }
 862:Generated_Source\PSoC5/myADC.c ****     /* Clear conversion complete status in Single Sample mode with resolution above 16 bit */
 863:Generated_Source\PSoC5/myADC.c ****     if(myADC_stopConversion != 0u)
 864:Generated_Source\PSoC5/myADC.c ****     {
 865:Generated_Source\PSoC5/myADC.c ****         myADC_convDone = 0u;
 866:Generated_Source\PSoC5/myADC.c ****     }
 867:Generated_Source\PSoC5/myADC.c **** 
 868:Generated_Source\PSoC5/myADC.c ****     return ((int32)result);
 869:Generated_Source\PSoC5/myADC.c **** }
 870:Generated_Source\PSoC5/myADC.c **** 
 871:Generated_Source\PSoC5/myADC.c **** 
 872:Generated_Source\PSoC5/myADC.c **** /*******************************************************************************
 873:Generated_Source\PSoC5/myADC.c **** * Function Name: myADC_SetOffset
 874:Generated_Source\PSoC5/myADC.c **** ********************************************************************************
 875:Generated_Source\PSoC5/myADC.c **** *
 876:Generated_Source\PSoC5/myADC.c **** * Summary:
 877:Generated_Source\PSoC5/myADC.c **** *  Sets the ADC offset which is used by the functions ADC_CountsTo_uVolts, 
 878:Generated_Source\PSoC5/myADC.c **** *  ADC_CountsTo_mVolts, and ADC_CountsTo_Volts to subtract the offset from the 
 879:Generated_Source\PSoC5/myADC.c **** *  given reading before calculating the voltage conversion.
 880:Generated_Source\PSoC5/myADC.c **** *
 881:Generated_Source\PSoC5/myADC.c **** * Parameters:
 882:Generated_Source\PSoC5/myADC.c **** *  int32:  This value is a measured value when the inputs are shorted or 
 883:Generated_Source\PSoC5/myADC.c **** *          connected to the same input voltage.
 884:Generated_Source\PSoC5/myADC.c **** *
 885:Generated_Source\PSoC5/myADC.c **** * Return:
 886:Generated_Source\PSoC5/myADC.c **** *  None
 887:Generated_Source\PSoC5/myADC.c **** *
ARM GAS  C:\Users\kcdasilv\AppData\Local\Temp\ccqnavs7.s 			page 17


 888:Generated_Source\PSoC5/myADC.c **** * Global variables:
 889:Generated_Source\PSoC5/myADC.c **** *  myADC_Offset:  Modified to set the user provided offset. This
 890:Generated_Source\PSoC5/myADC.c **** *  variable is used for offset calibration purpose.
 891:Generated_Source\PSoC5/myADC.c **** *
 892:Generated_Source\PSoC5/myADC.c **** * Side Effects:
 893:Generated_Source\PSoC5/myADC.c **** *  Affects the myADC_CountsTo_Volts,
 894:Generated_Source\PSoC5/myADC.c **** *  myADC_CountsTo_mVolts, myADC_CountsTo_uVolts functions
 895:Generated_Source\PSoC5/myADC.c **** *  by subtracting the given offset.
 896:Generated_Source\PSoC5/myADC.c **** *
 897:Generated_Source\PSoC5/myADC.c **** *******************************************************************************/
 898:Generated_Source\PSoC5/myADC.c **** void myADC_SetOffset(int32 offset) 
 899:Generated_Source\PSoC5/myADC.c **** {
 900:Generated_Source\PSoC5/myADC.c **** 
 901:Generated_Source\PSoC5/myADC.c ****     myADC_Offset = offset;
 902:Generated_Source\PSoC5/myADC.c **** }
 903:Generated_Source\PSoC5/myADC.c **** 
 904:Generated_Source\PSoC5/myADC.c **** 
 905:Generated_Source\PSoC5/myADC.c **** /*******************************************************************************
 906:Generated_Source\PSoC5/myADC.c **** * Function Name: myADC_SetGain
 907:Generated_Source\PSoC5/myADC.c **** ********************************************************************************
 908:Generated_Source\PSoC5/myADC.c **** *
 909:Generated_Source\PSoC5/myADC.c **** * Summary:
 910:Generated_Source\PSoC5/myADC.c **** *  Sets the ADC gain in counts per volt for the voltage conversion
 911:Generated_Source\PSoC5/myADC.c **** *  functions below. This value is set by default by the reference and
 912:Generated_Source\PSoC5/myADC.c **** *  input range settings. It should only be used to further calibrate the
 913:Generated_Source\PSoC5/myADC.c **** *  ADC with a known input or if an external reference is used. This
 914:Generated_Source\PSoC5/myADC.c **** *  function may also be used to calibrate an entire signal chain, not
 915:Generated_Source\PSoC5/myADC.c **** *  just the ADC.
 916:Generated_Source\PSoC5/myADC.c **** *
 917:Generated_Source\PSoC5/myADC.c **** * Parameters:
 918:Generated_Source\PSoC5/myADC.c **** *  int32: ADC gain in counts per volt.
 919:Generated_Source\PSoC5/myADC.c **** *
 920:Generated_Source\PSoC5/myADC.c **** * Return:
 921:Generated_Source\PSoC5/myADC.c **** *  None
 922:Generated_Source\PSoC5/myADC.c **** *
 923:Generated_Source\PSoC5/myADC.c **** * Global variables:
 924:Generated_Source\PSoC5/myADC.c **** *  myADC_CountsPerVolt:  modified to set the ADC gain in counts
 925:Generated_Source\PSoC5/myADC.c **** *   per volt.
 926:Generated_Source\PSoC5/myADC.c **** *
 927:Generated_Source\PSoC5/myADC.c **** * Side Effects:
 928:Generated_Source\PSoC5/myADC.c **** *  Affects the myADC_CountsTo_Volts,
 929:Generated_Source\PSoC5/myADC.c **** *  myADC_CountsTo_mVolts, myADC_CountsTo_uVolts functions
 930:Generated_Source\PSoC5/myADC.c **** *  supplying the correct conversion between ADC counts and voltage.
 931:Generated_Source\PSoC5/myADC.c **** *
 932:Generated_Source\PSoC5/myADC.c **** *******************************************************************************/
 933:Generated_Source\PSoC5/myADC.c **** void myADC_SetGain(int32 adcGain) 
 934:Generated_Source\PSoC5/myADC.c **** {
 935:Generated_Source\PSoC5/myADC.c ****     myADC_CountsPerVolt = adcGain;
 936:Generated_Source\PSoC5/myADC.c **** }
 937:Generated_Source\PSoC5/myADC.c **** 
 938:Generated_Source\PSoC5/myADC.c **** 
 939:Generated_Source\PSoC5/myADC.c **** /*******************************************************************************
 940:Generated_Source\PSoC5/myADC.c **** * Function Name: myADC_CountsTo_mVolts
 941:Generated_Source\PSoC5/myADC.c **** ********************************************************************************
 942:Generated_Source\PSoC5/myADC.c **** *
 943:Generated_Source\PSoC5/myADC.c **** * Summary:
 944:Generated_Source\PSoC5/myADC.c **** *  Converts the ADC counts output to mVolts as a 16-bit integer. For
ARM GAS  C:\Users\kcdasilv\AppData\Local\Temp\ccqnavs7.s 			page 18


 945:Generated_Source\PSoC5/myADC.c **** *  example, if the ADC measured 0.534 volts, the return value would
 946:Generated_Source\PSoC5/myADC.c **** *  be 534 mVolts.
 947:Generated_Source\PSoC5/myADC.c **** *
 948:Generated_Source\PSoC5/myADC.c **** * Parameters:
 949:Generated_Source\PSoC5/myADC.c **** *  int32: adcCounts Result from the ADC conversion.
 950:Generated_Source\PSoC5/myADC.c **** *
 951:Generated_Source\PSoC5/myADC.c **** * Return:
 952:Generated_Source\PSoC5/myADC.c **** *  int16:  Result in mVolts
 953:Generated_Source\PSoC5/myADC.c **** *
 954:Generated_Source\PSoC5/myADC.c **** * Global variables:
 955:Generated_Source\PSoC5/myADC.c **** *  myADC_CountsPerVolt:  used to convert ADC counts to mVolts.
 956:Generated_Source\PSoC5/myADC.c **** *  myADC_Offset:  Used as the offset while converting ADC counts
 957:Generated_Source\PSoC5/myADC.c **** *   to mVolts.
 958:Generated_Source\PSoC5/myADC.c **** *
 959:Generated_Source\PSoC5/myADC.c **** *******************************************************************************/
 960:Generated_Source\PSoC5/myADC.c **** int16 myADC_CountsTo_mVolts(int32 adcCounts) 
 961:Generated_Source\PSoC5/myADC.c **** {
 962:Generated_Source\PSoC5/myADC.c **** 
 963:Generated_Source\PSoC5/myADC.c ****     int16 mVolts;
 964:Generated_Source\PSoC5/myADC.c **** 
 965:Generated_Source\PSoC5/myADC.c ****     /* Convert adcCounts to the right align if left option selected */
 966:Generated_Source\PSoC5/myADC.c ****     #if(myADC_CFG1_DEC_DIV != 0)
 967:Generated_Source\PSoC5/myADC.c ****         if(myADC_Config == myADC_CFG1)
 968:Generated_Source\PSoC5/myADC.c ****         {
 969:Generated_Source\PSoC5/myADC.c ****             adcCounts /= myADC_CFG1_DEC_DIV;
 970:Generated_Source\PSoC5/myADC.c ****         }
 971:Generated_Source\PSoC5/myADC.c ****     #endif /* myADC_CFG1_DEC_DIV */
 972:Generated_Source\PSoC5/myADC.c ****     #if((myADC_CFG2_DEC_DIV != 0) && (myADC_DEFAULT_NUM_CONFIGS > 1))
 973:Generated_Source\PSoC5/myADC.c ****         if(myADC_Config == myADC_CFG2)
 974:Generated_Source\PSoC5/myADC.c ****         {
 975:Generated_Source\PSoC5/myADC.c ****             adcCounts /= myADC_CFG2_DEC_DIV;
 976:Generated_Source\PSoC5/myADC.c ****         }
 977:Generated_Source\PSoC5/myADC.c ****     #endif /* myADC_CFG2_DEC_DIV */
 978:Generated_Source\PSoC5/myADC.c ****     #if((myADC_CFG3_DEC_DIV != 0) && (myADC_DEFAULT_NUM_CONFIGS > 2))
 979:Generated_Source\PSoC5/myADC.c ****         if(myADC_Config == myADC_CFG3)
 980:Generated_Source\PSoC5/myADC.c ****         {
 981:Generated_Source\PSoC5/myADC.c ****             adcCounts /= myADC_CFG3_DEC_DIV;
 982:Generated_Source\PSoC5/myADC.c ****         }
 983:Generated_Source\PSoC5/myADC.c ****     #endif /* myADC_CFG2_DEC_DIV */
 984:Generated_Source\PSoC5/myADC.c ****     #if((myADC_CFG4_DEC_DIV != 0) && (myADC_DEFAULT_NUM_CONFIGS > 3))
 985:Generated_Source\PSoC5/myADC.c ****         if(myADC_Config == myADC_CFG4)
 986:Generated_Source\PSoC5/myADC.c ****         {
 987:Generated_Source\PSoC5/myADC.c ****             adcCounts /= myADC_CFG4_DEC_DIV;
 988:Generated_Source\PSoC5/myADC.c ****         }
 989:Generated_Source\PSoC5/myADC.c ****     #endif /* myADC_CFG2_DEC_DIV */
 990:Generated_Source\PSoC5/myADC.c **** 
 991:Generated_Source\PSoC5/myADC.c ****     /* Subtract ADC offset */
 992:Generated_Source\PSoC5/myADC.c ****     adcCounts -= myADC_Offset;
 993:Generated_Source\PSoC5/myADC.c **** 
 994:Generated_Source\PSoC5/myADC.c ****     mVolts = (int16)(( adcCounts * myADC_1MV_COUNTS ) / myADC_CountsPerVolt) ;
 995:Generated_Source\PSoC5/myADC.c **** 
 996:Generated_Source\PSoC5/myADC.c ****     return(mVolts);
 997:Generated_Source\PSoC5/myADC.c **** }
 998:Generated_Source\PSoC5/myADC.c **** 
 999:Generated_Source\PSoC5/myADC.c **** 
1000:Generated_Source\PSoC5/myADC.c **** /*******************************************************************************
1001:Generated_Source\PSoC5/myADC.c **** * Function Name: myADC_CountsTo_Volts
ARM GAS  C:\Users\kcdasilv\AppData\Local\Temp\ccqnavs7.s 			page 19


1002:Generated_Source\PSoC5/myADC.c **** ********************************************************************************
1003:Generated_Source\PSoC5/myADC.c **** *
1004:Generated_Source\PSoC5/myADC.c **** * Summary:
1005:Generated_Source\PSoC5/myADC.c **** *  Converts the ADC output to Volts as a floating point number. For
1006:Generated_Source\PSoC5/myADC.c **** *  example, if the ADC measure a voltage of 1.2345 Volts, the
1007:Generated_Source\PSoC5/myADC.c **** *  returned result would be +1.2345 Volts.
1008:Generated_Source\PSoC5/myADC.c **** *
1009:Generated_Source\PSoC5/myADC.c **** * Parameters:
1010:Generated_Source\PSoC5/myADC.c **** *  int32 adcCounts:  Result from the ADC conversion.
1011:Generated_Source\PSoC5/myADC.c **** *
1012:Generated_Source\PSoC5/myADC.c **** * Return:
1013:Generated_Source\PSoC5/myADC.c **** *  float32: Result in Volts
1014:Generated_Source\PSoC5/myADC.c **** *
1015:Generated_Source\PSoC5/myADC.c **** * Global variables:
1016:Generated_Source\PSoC5/myADC.c **** *  myADC_CountsPerVolt:  used to convert to Volts.
1017:Generated_Source\PSoC5/myADC.c **** *  myADC_Offset:  Used as the offset while converting ADC counts
1018:Generated_Source\PSoC5/myADC.c **** *   to Volts.
1019:Generated_Source\PSoC5/myADC.c **** *
1020:Generated_Source\PSoC5/myADC.c **** *******************************************************************************/
1021:Generated_Source\PSoC5/myADC.c **** float32 myADC_CountsTo_Volts(int32 adcCounts) 
1022:Generated_Source\PSoC5/myADC.c **** {
1023:Generated_Source\PSoC5/myADC.c **** 
1024:Generated_Source\PSoC5/myADC.c ****     float32 Volts;
1025:Generated_Source\PSoC5/myADC.c **** 
1026:Generated_Source\PSoC5/myADC.c ****     /* Convert adcCounts to the right align if left option selected */
1027:Generated_Source\PSoC5/myADC.c ****     #if(myADC_CFG1_DEC_DIV != 0)
1028:Generated_Source\PSoC5/myADC.c ****         if(myADC_Config == myADC_CFG1)
1029:Generated_Source\PSoC5/myADC.c ****         {
1030:Generated_Source\PSoC5/myADC.c ****             adcCounts /= myADC_CFG1_DEC_DIV;
1031:Generated_Source\PSoC5/myADC.c ****         }
1032:Generated_Source\PSoC5/myADC.c ****     #endif /* myADC_CFG1_DEC_DIV */
1033:Generated_Source\PSoC5/myADC.c ****     #if((myADC_CFG2_DEC_DIV != 0) && (myADC_DEFAULT_NUM_CONFIGS > 1))
1034:Generated_Source\PSoC5/myADC.c ****         if(myADC_Config == myADC_CFG2)
1035:Generated_Source\PSoC5/myADC.c ****         {
1036:Generated_Source\PSoC5/myADC.c ****             adcCounts /= myADC_CFG2_DEC_DIV;
1037:Generated_Source\PSoC5/myADC.c ****         }
1038:Generated_Source\PSoC5/myADC.c ****     #endif /* myADC_CFG2_DEC_DIV */
1039:Generated_Source\PSoC5/myADC.c ****     #if((myADC_CFG3_DEC_DIV != 0) && (myADC_DEFAULT_NUM_CONFIGS > 2))
1040:Generated_Source\PSoC5/myADC.c ****         if(myADC_Config == myADC_CFG3)
1041:Generated_Source\PSoC5/myADC.c ****         {
1042:Generated_Source\PSoC5/myADC.c ****             adcCounts /= myADC_CFG3_DEC_DIV;
1043:Generated_Source\PSoC5/myADC.c ****         }
1044:Generated_Source\PSoC5/myADC.c ****     #endif /* myADC_CFG2_DEC_DIV */
1045:Generated_Source\PSoC5/myADC.c ****     #if((myADC_CFG4_DEC_DIV != 0) && (myADC_DEFAULT_NUM_CONFIGS > 3))
1046:Generated_Source\PSoC5/myADC.c ****         if(myADC_Config == myADC_CFG4)
1047:Generated_Source\PSoC5/myADC.c ****         {
1048:Generated_Source\PSoC5/myADC.c ****             adcCounts /= myADC_CFG4_DEC_DIV;
1049:Generated_Source\PSoC5/myADC.c ****         }
1050:Generated_Source\PSoC5/myADC.c ****     #endif /* myADC_CFG2_DEC_DIV */
1051:Generated_Source\PSoC5/myADC.c **** 
1052:Generated_Source\PSoC5/myADC.c ****     /* Subtract ADC offset */
1053:Generated_Source\PSoC5/myADC.c ****     adcCounts -= myADC_Offset;
1054:Generated_Source\PSoC5/myADC.c **** 
1055:Generated_Source\PSoC5/myADC.c ****     Volts = (float32)adcCounts / (float32)myADC_CountsPerVolt;
1056:Generated_Source\PSoC5/myADC.c **** 
1057:Generated_Source\PSoC5/myADC.c ****     return( Volts );
1058:Generated_Source\PSoC5/myADC.c **** }
ARM GAS  C:\Users\kcdasilv\AppData\Local\Temp\ccqnavs7.s 			page 20


1059:Generated_Source\PSoC5/myADC.c **** 
1060:Generated_Source\PSoC5/myADC.c **** 
1061:Generated_Source\PSoC5/myADC.c **** /*******************************************************************************
1062:Generated_Source\PSoC5/myADC.c **** * Function Name: myADC_CountsTo_uVolts
1063:Generated_Source\PSoC5/myADC.c **** ********************************************************************************
1064:Generated_Source\PSoC5/myADC.c **** *
1065:Generated_Source\PSoC5/myADC.c **** * Summary:
1066:Generated_Source\PSoC5/myADC.c **** *  Converts the ADC output to uVolts as a 32-bit integer. For example,
1067:Generated_Source\PSoC5/myADC.c **** *  if the ADC measured -0.02345 Volts, the return value would be -23450 uVolts.
1068:Generated_Source\PSoC5/myADC.c **** *
1069:Generated_Source\PSoC5/myADC.c **** * Parameters:
1070:Generated_Source\PSoC5/myADC.c **** *  int32 adcCounts: Result from the ADC conversion.
1071:Generated_Source\PSoC5/myADC.c **** *
1072:Generated_Source\PSoC5/myADC.c **** * Return:
1073:Generated_Source\PSoC5/myADC.c **** *  int32:  Result in uVolts
1074:Generated_Source\PSoC5/myADC.c **** *
1075:Generated_Source\PSoC5/myADC.c **** * Global variables:
1076:Generated_Source\PSoC5/myADC.c **** *  myADC_CountsPerVolt:  used to convert ADC counts to mVolts.
1077:Generated_Source\PSoC5/myADC.c **** *  myADC_Offset:  Used as the offset while converting ADC counts
1078:Generated_Source\PSoC5/myADC.c **** *   to mVolts.
1079:Generated_Source\PSoC5/myADC.c **** *
1080:Generated_Source\PSoC5/myADC.c **** * Theory:
1081:Generated_Source\PSoC5/myADC.c **** *  Care must be taken to not exceed the maximum value for a 31 bit signed
1082:Generated_Source\PSoC5/myADC.c **** *  number in the conversion to uVolts and at the same time not lose resolution.
1083:Generated_Source\PSoC5/myADC.c **** *
1084:Generated_Source\PSoC5/myADC.c **** *  uVolts = ((A * adcCounts) / ((int32)myADC_CountsPerVolt / B));
1085:Generated_Source\PSoC5/myADC.c **** *
1086:Generated_Source\PSoC5/myADC.c **** *******************************************************************************/
1087:Generated_Source\PSoC5/myADC.c **** int32 myADC_CountsTo_uVolts(int32 adcCounts) 
1088:Generated_Source\PSoC5/myADC.c **** {
1089:Generated_Source\PSoC5/myADC.c **** 
1090:Generated_Source\PSoC5/myADC.c ****     int32 uVolts;
1091:Generated_Source\PSoC5/myADC.c ****     int32 coefA;
1092:Generated_Source\PSoC5/myADC.c ****     int32 coefB;
1093:Generated_Source\PSoC5/myADC.c ****     uint8 resolution;
1094:Generated_Source\PSoC5/myADC.c **** 
1095:Generated_Source\PSoC5/myADC.c ****     /* Set the resolution based on the configuration */
1096:Generated_Source\PSoC5/myADC.c ****     /* Convert adcCounts to the right align if left option selected */
1097:Generated_Source\PSoC5/myADC.c ****     if (myADC_Config == myADC_CFG1)
1098:Generated_Source\PSoC5/myADC.c ****     {
1099:Generated_Source\PSoC5/myADC.c ****         resolution = myADC_CFG1_RESOLUTION;
1100:Generated_Source\PSoC5/myADC.c ****         #if(myADC_CFG1_DEC_DIV != 0)
1101:Generated_Source\PSoC5/myADC.c ****             adcCounts /= myADC_CFG1_DEC_DIV;
1102:Generated_Source\PSoC5/myADC.c ****         #endif /* myADC_CFG1_DEC_DIV */
1103:Generated_Source\PSoC5/myADC.c ****     }
1104:Generated_Source\PSoC5/myADC.c ****     else if (myADC_Config == myADC_CFG2)
1105:Generated_Source\PSoC5/myADC.c ****     {
1106:Generated_Source\PSoC5/myADC.c ****         resolution = myADC_CFG2_RESOLUTION;
1107:Generated_Source\PSoC5/myADC.c ****         #if(myADC_CFG2_DEC_DIV != 0)
1108:Generated_Source\PSoC5/myADC.c ****             adcCounts /= myADC_CFG2_DEC_DIV;
1109:Generated_Source\PSoC5/myADC.c ****         #endif /* myADC_CFG2_DEC_DIV */
1110:Generated_Source\PSoC5/myADC.c ****     }
1111:Generated_Source\PSoC5/myADC.c ****     else if (myADC_Config == myADC_CFG3)
1112:Generated_Source\PSoC5/myADC.c ****     {
1113:Generated_Source\PSoC5/myADC.c ****         resolution = myADC_CFG3_RESOLUTION;
1114:Generated_Source\PSoC5/myADC.c ****         #if(myADC_CFG3_DEC_DIV != 0)
1115:Generated_Source\PSoC5/myADC.c ****             adcCounts /= myADC_CFG3_DEC_DIV;
ARM GAS  C:\Users\kcdasilv\AppData\Local\Temp\ccqnavs7.s 			page 21


1116:Generated_Source\PSoC5/myADC.c ****         #endif /* myADC_CFG3_DEC_DIV */
1117:Generated_Source\PSoC5/myADC.c ****     }
1118:Generated_Source\PSoC5/myADC.c ****     else
1119:Generated_Source\PSoC5/myADC.c ****     {
1120:Generated_Source\PSoC5/myADC.c ****         resolution = myADC_CFG4_RESOLUTION;
1121:Generated_Source\PSoC5/myADC.c ****         #if(myADC_CFG4_DEC_DIV != 0)
1122:Generated_Source\PSoC5/myADC.c ****             adcCounts /= myADC_CFG4_DEC_DIV;
1123:Generated_Source\PSoC5/myADC.c ****         #endif /* myADC_CFG4_DEC_DIV */
1124:Generated_Source\PSoC5/myADC.c ****     }
1125:Generated_Source\PSoC5/myADC.c **** 
1126:Generated_Source\PSoC5/myADC.c ****     switch (resolution)
1127:Generated_Source\PSoC5/myADC.c ****     {
1128:Generated_Source\PSoC5/myADC.c ****         #if( (myADC_CFG1_RESOLUTION == myADC__BITS_12) || \
1129:Generated_Source\PSoC5/myADC.c ****              (myADC_CFG2_RESOLUTION == myADC__BITS_12) || \
1130:Generated_Source\PSoC5/myADC.c ****              (myADC_CFG3_RESOLUTION == myADC__BITS_12) || \
1131:Generated_Source\PSoC5/myADC.c ****              (myADC_CFG4_RESOLUTION == myADC__BITS_12) )
1132:Generated_Source\PSoC5/myADC.c ****             case (uint8)myADC__BITS_12:
1133:Generated_Source\PSoC5/myADC.c ****                 coefA = myADC_1UV_COUNTS / myADC_DIVISOR_2;
1134:Generated_Source\PSoC5/myADC.c ****                 coefB = myADC_DIVISOR_2;
1135:Generated_Source\PSoC5/myADC.c ****                 break;
1136:Generated_Source\PSoC5/myADC.c ****         #endif /* myADC__BITS_12 */    
1137:Generated_Source\PSoC5/myADC.c ****         #if( (myADC_CFG1_RESOLUTION == myADC__BITS_13) || \
1138:Generated_Source\PSoC5/myADC.c ****              (myADC_CFG2_RESOLUTION == myADC__BITS_13) || \
1139:Generated_Source\PSoC5/myADC.c ****              (myADC_CFG3_RESOLUTION == myADC__BITS_13) || \
1140:Generated_Source\PSoC5/myADC.c ****              (myADC_CFG4_RESOLUTION == myADC__BITS_13) )
1141:Generated_Source\PSoC5/myADC.c ****             case (uint8)myADC__BITS_13:
1142:Generated_Source\PSoC5/myADC.c ****                 coefA = myADC_1UV_COUNTS / myADC_DIVISOR_4;
1143:Generated_Source\PSoC5/myADC.c ****                 coefB = myADC_DIVISOR_4;
1144:Generated_Source\PSoC5/myADC.c ****                 break;
1145:Generated_Source\PSoC5/myADC.c ****         #endif /* myADC__BITS_13 */    
1146:Generated_Source\PSoC5/myADC.c ****         #if( (myADC_CFG1_RESOLUTION == myADC__BITS_14) || \
1147:Generated_Source\PSoC5/myADC.c ****              (myADC_CFG2_RESOLUTION == myADC__BITS_14) || \
1148:Generated_Source\PSoC5/myADC.c ****              (myADC_CFG3_RESOLUTION == myADC__BITS_14) || \
1149:Generated_Source\PSoC5/myADC.c ****              (myADC_CFG4_RESOLUTION == myADC__BITS_14) )
1150:Generated_Source\PSoC5/myADC.c ****             case (uint8)myADC__BITS_14:
1151:Generated_Source\PSoC5/myADC.c ****                 coefA = myADC_1UV_COUNTS / myADC_DIVISOR_8;
1152:Generated_Source\PSoC5/myADC.c ****                 coefB = myADC_DIVISOR_8;
1153:Generated_Source\PSoC5/myADC.c ****                 break;
1154:Generated_Source\PSoC5/myADC.c ****         #endif /* myADC__BITS_14 */    
1155:Generated_Source\PSoC5/myADC.c ****         #if( (myADC_CFG1_RESOLUTION == myADC__BITS_15) || \
1156:Generated_Source\PSoC5/myADC.c ****              (myADC_CFG2_RESOLUTION == myADC__BITS_15) || \
1157:Generated_Source\PSoC5/myADC.c ****              (myADC_CFG3_RESOLUTION == myADC__BITS_15) || \
1158:Generated_Source\PSoC5/myADC.c ****              (myADC_CFG4_RESOLUTION == myADC__BITS_15) )
1159:Generated_Source\PSoC5/myADC.c ****             case (uint8)myADC__BITS_15:
1160:Generated_Source\PSoC5/myADC.c ****                 coefA = myADC_1UV_COUNTS / myADC_DIVISOR_16;
1161:Generated_Source\PSoC5/myADC.c ****                 coefB = myADC_DIVISOR_16;
1162:Generated_Source\PSoC5/myADC.c ****                 break;
1163:Generated_Source\PSoC5/myADC.c ****         #endif /* myADC__BITS_15 */    
1164:Generated_Source\PSoC5/myADC.c ****         #if( (myADC_CFG1_RESOLUTION == myADC__BITS_16) || \
1165:Generated_Source\PSoC5/myADC.c ****              (myADC_CFG2_RESOLUTION == myADC__BITS_16) || \
1166:Generated_Source\PSoC5/myADC.c ****              (myADC_CFG3_RESOLUTION == myADC__BITS_16) || \
1167:Generated_Source\PSoC5/myADC.c ****              (myADC_CFG4_RESOLUTION == myADC__BITS_16) )
1168:Generated_Source\PSoC5/myADC.c ****             case (uint8)myADC__BITS_16:
1169:Generated_Source\PSoC5/myADC.c ****                 coefA = myADC_1UV_COUNTS / myADC_DIVISOR_32;
1170:Generated_Source\PSoC5/myADC.c ****                 coefB = myADC_DIVISOR_32;
1171:Generated_Source\PSoC5/myADC.c ****                 break;
1172:Generated_Source\PSoC5/myADC.c ****         #endif /* myADC__BITS_16 */    
ARM GAS  C:\Users\kcdasilv\AppData\Local\Temp\ccqnavs7.s 			page 22


1173:Generated_Source\PSoC5/myADC.c ****         #if( (myADC_CFG1_RESOLUTION == myADC__BITS_17) || \
1174:Generated_Source\PSoC5/myADC.c ****              (myADC_CFG2_RESOLUTION == myADC__BITS_17) || \
1175:Generated_Source\PSoC5/myADC.c ****              (myADC_CFG3_RESOLUTION == myADC__BITS_17) || \
1176:Generated_Source\PSoC5/myADC.c ****              (myADC_CFG4_RESOLUTION == myADC__BITS_17) )
1177:Generated_Source\PSoC5/myADC.c ****             case (uint8)myADC__BITS_17:
1178:Generated_Source\PSoC5/myADC.c ****                 coefA = myADC_1UV_COUNTS / myADC_DIVISOR_64;
1179:Generated_Source\PSoC5/myADC.c ****                 coefB = myADC_DIVISOR_64;
1180:Generated_Source\PSoC5/myADC.c ****                 break;
1181:Generated_Source\PSoC5/myADC.c ****         #endif /* myADC__BITS_17 */    
1182:Generated_Source\PSoC5/myADC.c ****         #if( (myADC_CFG1_RESOLUTION == myADC__BITS_18) || \
1183:Generated_Source\PSoC5/myADC.c ****              (myADC_CFG2_RESOLUTION == myADC__BITS_18) || \
1184:Generated_Source\PSoC5/myADC.c ****              (myADC_CFG3_RESOLUTION == myADC__BITS_18) || \
1185:Generated_Source\PSoC5/myADC.c ****              (myADC_CFG4_RESOLUTION == myADC__BITS_18) )
1186:Generated_Source\PSoC5/myADC.c ****             case (uint8)myADC__BITS_18:
1187:Generated_Source\PSoC5/myADC.c ****                 coefA = myADC_1UV_COUNTS / myADC_DIVISOR_125;
1188:Generated_Source\PSoC5/myADC.c ****                 coefB = myADC_DIVISOR_125;
1189:Generated_Source\PSoC5/myADC.c ****                 break;
1190:Generated_Source\PSoC5/myADC.c ****         #endif /* myADC__BITS_18 */    
1191:Generated_Source\PSoC5/myADC.c ****         #if( (myADC_CFG1_RESOLUTION == myADC__BITS_19) || \
1192:Generated_Source\PSoC5/myADC.c ****              (myADC_CFG2_RESOLUTION == myADC__BITS_19) || \
1193:Generated_Source\PSoC5/myADC.c ****              (myADC_CFG3_RESOLUTION == myADC__BITS_19) || \
1194:Generated_Source\PSoC5/myADC.c ****              (myADC_CFG4_RESOLUTION == myADC__BITS_19) )
1195:Generated_Source\PSoC5/myADC.c ****             case (uint8)myADC__BITS_19:
1196:Generated_Source\PSoC5/myADC.c ****                 coefA = myADC_1UV_COUNTS / myADC_DIVISOR_250;
1197:Generated_Source\PSoC5/myADC.c ****                 coefB = myADC_DIVISOR_250;
1198:Generated_Source\PSoC5/myADC.c ****                 break;
1199:Generated_Source\PSoC5/myADC.c ****         #endif /* myADC__BITS_19 */    
1200:Generated_Source\PSoC5/myADC.c ****         #if( (myADC_CFG1_RESOLUTION == myADC__BITS_20) || \
1201:Generated_Source\PSoC5/myADC.c ****              (myADC_CFG2_RESOLUTION == myADC__BITS_20) || \
1202:Generated_Source\PSoC5/myADC.c ****              (myADC_CFG3_RESOLUTION == myADC__BITS_20) || \
1203:Generated_Source\PSoC5/myADC.c ****              (myADC_CFG4_RESOLUTION == myADC__BITS_20) )
1204:Generated_Source\PSoC5/myADC.c ****             case (uint8)myADC__BITS_20:
1205:Generated_Source\PSoC5/myADC.c ****                 coefA = myADC_1UV_COUNTS / myADC_DIVISOR_500;
1206:Generated_Source\PSoC5/myADC.c ****                 coefB = myADC_DIVISOR_500;
1207:Generated_Source\PSoC5/myADC.c ****                 break;
1208:Generated_Source\PSoC5/myADC.c ****         #endif /* myADC__BITS_20 */    
1209:Generated_Source\PSoC5/myADC.c ****         default:    /* resolution < 12 */
1210:Generated_Source\PSoC5/myADC.c ****             /* 11 bits ADC + 2^20(1048576) = 31 bits */
1211:Generated_Source\PSoC5/myADC.c ****             coefA = myADC_1UV_COUNTS;
1212:Generated_Source\PSoC5/myADC.c ****             coefB = myADC_DIVISOR_1;
1213:Generated_Source\PSoC5/myADC.c ****             break;
1214:Generated_Source\PSoC5/myADC.c ****     }
1215:Generated_Source\PSoC5/myADC.c ****     coefB = myADC_CountsPerVolt / coefB;
1216:Generated_Source\PSoC5/myADC.c ****     uVolts = ((coefA * adcCounts) / coefB) - ((coefA * myADC_Offset) / coefB);
1217:Generated_Source\PSoC5/myADC.c **** 
1218:Generated_Source\PSoC5/myADC.c ****     return( uVolts );
1219:Generated_Source\PSoC5/myADC.c **** }
1220:Generated_Source\PSoC5/myADC.c **** 
1221:Generated_Source\PSoC5/myADC.c **** 
1222:Generated_Source\PSoC5/myADC.c **** /*******************************************************************************
1223:Generated_Source\PSoC5/myADC.c **** * Function Name: myADC_InitConfig(uint8 config)
1224:Generated_Source\PSoC5/myADC.c **** ********************************************************************************
1225:Generated_Source\PSoC5/myADC.c **** *
1226:Generated_Source\PSoC5/myADC.c **** * Summary:
1227:Generated_Source\PSoC5/myADC.c **** *  Initializes all registers based on customizer settings
1228:Generated_Source\PSoC5/myADC.c **** *
1229:Generated_Source\PSoC5/myADC.c **** * Parameters:
ARM GAS  C:\Users\kcdasilv\AppData\Local\Temp\ccqnavs7.s 			page 23


1230:Generated_Source\PSoC5/myADC.c **** *   void
1231:Generated_Source\PSoC5/myADC.c **** *
1232:Generated_Source\PSoC5/myADC.c **** * Return:
1233:Generated_Source\PSoC5/myADC.c **** *  None
1234:Generated_Source\PSoC5/myADC.c **** *
1235:Generated_Source\PSoC5/myADC.c **** * Global variables:
1236:Generated_Source\PSoC5/myADC.c **** *  myADC_CountsPerVolt:  Used to set the default counts per volt.
1237:Generated_Source\PSoC5/myADC.c **** *
1238:Generated_Source\PSoC5/myADC.c **** * Side Effects: Rewrites the coherency set by myADC_SetCoherency()
1239:Generated_Source\PSoC5/myADC.c **** *   API to the default value.
1240:Generated_Source\PSoC5/myADC.c **** *
1241:Generated_Source\PSoC5/myADC.c **** *******************************************************************************/
1242:Generated_Source\PSoC5/myADC.c **** static void myADC_InitConfig(uint8 config) 
1243:Generated_Source\PSoC5/myADC.c **** {
1244:Generated_Source\PSoC5/myADC.c ****     myADC_stopConversion = 0u;
1245:Generated_Source\PSoC5/myADC.c **** 
1246:Generated_Source\PSoC5/myADC.c ****     if (config == 1u)
1247:Generated_Source\PSoC5/myADC.c ****     {
1248:Generated_Source\PSoC5/myADC.c ****         /* Default Config */
1249:Generated_Source\PSoC5/myADC.c ****         myADC_DEC_CR_REG      = myADC_CFG1_DEC_CR;
1250:Generated_Source\PSoC5/myADC.c ****         myADC_DEC_SHIFT1_REG  = myADC_CFG1_DEC_SHIFT1;
1251:Generated_Source\PSoC5/myADC.c ****         myADC_DEC_SHIFT2_REG  = myADC_CFG1_DEC_SHIFT2;
1252:Generated_Source\PSoC5/myADC.c ****         myADC_DEC_DR2_REG     = myADC_CFG1_DEC_DR2;
1253:Generated_Source\PSoC5/myADC.c ****         myADC_DEC_DR2H_REG    = myADC_CFG1_DEC_DR2H;
1254:Generated_Source\PSoC5/myADC.c ****         myADC_DEC_DR1_REG     = myADC_CFG1_DEC_DR1;
1255:Generated_Source\PSoC5/myADC.c ****         myADC_DEC_OCOR_REG    = myADC_CFG1_DEC_OCOR;
1256:Generated_Source\PSoC5/myADC.c ****         myADC_DEC_OCORM_REG   = myADC_CFG1_DEC_OCORM;
1257:Generated_Source\PSoC5/myADC.c ****         myADC_DEC_OCORH_REG   = myADC_CFG1_DEC_OCORH;
1258:Generated_Source\PSoC5/myADC.c ****         myADC_DEC_COHER_REG   = myADC_CFG1_DEC_COHER;
1259:Generated_Source\PSoC5/myADC.c **** 
1260:Generated_Source\PSoC5/myADC.c ****         myADC_DSM_CR4_REG     = myADC_CFG1_DSM_CR4;
1261:Generated_Source\PSoC5/myADC.c ****         myADC_DSM_CR5_REG     = myADC_CFG1_DSM_CR5;
1262:Generated_Source\PSoC5/myADC.c ****         myADC_DSM_CR6_REG     = myADC_CFG1_DSM_CR6;
1263:Generated_Source\PSoC5/myADC.c ****         myADC_DSM_CR7_REG     = myADC_CFG1_DSM_CR7;
1264:Generated_Source\PSoC5/myADC.c ****         myADC_DSM_CR10_REG    = myADC_CFG1_DSM_CR10;
1265:Generated_Source\PSoC5/myADC.c ****         myADC_DSM_CR11_REG    = myADC_CFG1_DSM_CR11;
1266:Generated_Source\PSoC5/myADC.c ****         myADC_DSM_CR12_REG    = myADC_CFG1_DSM_CR12;
1267:Generated_Source\PSoC5/myADC.c ****         myADC_DSM_CR14_REG    = myADC_CFG1_DSM_CR14;
1268:Generated_Source\PSoC5/myADC.c ****         myADC_DSM_CR15_REG    = myADC_CFG1_DSM_CR15;
1269:Generated_Source\PSoC5/myADC.c ****         myADC_DSM_CR16_REG    = myADC_CFG1_DSM_CR16;
1270:Generated_Source\PSoC5/myADC.c ****         myADC_DSM_CR17_REG    = myADC_CFG1_DSM_CR17;
1271:Generated_Source\PSoC5/myADC.c ****         /* Set DSM_REF0_REG by disabling and enabling the PRESS circuit */
1272:Generated_Source\PSoC5/myADC.c ****         myADC_SetDSMRef0Reg(myADC_CFG1_DSM_REF0);
1273:Generated_Source\PSoC5/myADC.c ****         myADC_DSM_REF2_REG    = myADC_CFG1_DSM_REF2;
1274:Generated_Source\PSoC5/myADC.c ****         myADC_DSM_REF3_REG    = myADC_CFG1_DSM_REF3;
1275:Generated_Source\PSoC5/myADC.c **** 
1276:Generated_Source\PSoC5/myADC.c ****         myADC_DSM_BUF0_REG    = myADC_CFG1_DSM_BUF0;
1277:Generated_Source\PSoC5/myADC.c ****         myADC_DSM_BUF1_REG    = myADC_CFG1_DSM_BUF1;
1278:Generated_Source\PSoC5/myADC.c ****         myADC_DSM_BUF2_REG    = myADC_CFG1_DSM_BUF2;
1279:Generated_Source\PSoC5/myADC.c ****         myADC_DSM_BUF3_REG    = myADC_CFG1_DSM_BUF3;
1280:Generated_Source\PSoC5/myADC.c **** 
1281:Generated_Source\PSoC5/myADC.c ****         /* To select either Vssa or Vref to -ve input of DSM depending on
1282:Generated_Source\PSoC5/myADC.c ****         *  the input  range selected.
1283:Generated_Source\PSoC5/myADC.c ****         */
1284:Generated_Source\PSoC5/myADC.c ****         #if(myADC_DEFAULT_INPUT_MODE)
1285:Generated_Source\PSoC5/myADC.c ****             #if (myADC_CFG1_INPUT_RANGE == myADC_IR_VSSA_TO_2VREF)
1286:Generated_Source\PSoC5/myADC.c ****                 myADC_AMux_Select(1u);
ARM GAS  C:\Users\kcdasilv\AppData\Local\Temp\ccqnavs7.s 			page 24


1287:Generated_Source\PSoC5/myADC.c ****             #else
1288:Generated_Source\PSoC5/myADC.c ****                 myADC_AMux_Select(0u);
1289:Generated_Source\PSoC5/myADC.c ****             #endif /* myADC_IR_VSSA_TO_2VREF) */
1290:Generated_Source\PSoC5/myADC.c ****         #endif /* myADC_DEFAULT_INPUT_MODE */
1291:Generated_Source\PSoC5/myADC.c **** 
1292:Generated_Source\PSoC5/myADC.c ****         /* Set the Conversion stop if resolution is above 16 bit and conversion
1293:Generated_Source\PSoC5/myADC.c ****         *   mode is Single sample
1294:Generated_Source\PSoC5/myADC.c ****         */
1295:Generated_Source\PSoC5/myADC.c ****         #if(myADC_CFG1_RESOLUTION > 16 && \
1296:Generated_Source\PSoC5/myADC.c ****             myADC_CFG1_CONV_MODE == myADC_MODE_SINGLE_SAMPLE)
1297:Generated_Source\PSoC5/myADC.c ****             myADC_stopConversion = 1u;
1298:Generated_Source\PSoC5/myADC.c ****         #endif /* Single sample with resolution above 16 bits. */
1299:Generated_Source\PSoC5/myADC.c **** 
1300:Generated_Source\PSoC5/myADC.c ****         myADC_CountsPerVolt = (int32)myADC_CFG1_COUNTS_PER_VOLT;
1301:Generated_Source\PSoC5/myADC.c **** 
1302:Generated_Source\PSoC5/myADC.c ****         myADC_Ext_CP_Clk_SetDividerRegister(myADC_CFG1_CP_CLK_DIVIDER, 1u);
1303:Generated_Source\PSoC5/myADC.c **** 
1304:Generated_Source\PSoC5/myADC.c ****         /* This is only valid if there is an internal clock */
1305:Generated_Source\PSoC5/myADC.c ****         #if(myADC_DEFAULT_INTERNAL_CLK)
1306:Generated_Source\PSoC5/myADC.c ****             myADC_theACLK_SetDividerRegister(myADC_CFG1_ADC_CLK_DIVIDER, 1u);
1307:Generated_Source\PSoC5/myADC.c ****         #endif /* myADC_DEFAULT_INTERNAL_CLK */
1308:Generated_Source\PSoC5/myADC.c **** 
1309:Generated_Source\PSoC5/myADC.c ****         #if(myADC_IRQ_REMOVE == 0u)
1310:Generated_Source\PSoC5/myADC.c ****             /* Set interrupt vector */
1311:Generated_Source\PSoC5/myADC.c ****             (void)CyIntSetVector(myADC_INTC_NUMBER, &myADC_ISR1);
1312:Generated_Source\PSoC5/myADC.c ****         #endif   /* End myADC_IRQ_REMOVE */
1313:Generated_Source\PSoC5/myADC.c ****     }
1314:Generated_Source\PSoC5/myADC.c **** 
1315:Generated_Source\PSoC5/myADC.c ****     #if(myADC_DEFAULT_NUM_CONFIGS > 1)
1316:Generated_Source\PSoC5/myADC.c ****         if(config == 2u)
1317:Generated_Source\PSoC5/myADC.c ****         {
1318:Generated_Source\PSoC5/myADC.c ****             /* Second Config */
1319:Generated_Source\PSoC5/myADC.c ****             myADC_DEC_CR_REG      = myADC_CFG2_DEC_CR;
1320:Generated_Source\PSoC5/myADC.c ****             myADC_DEC_SHIFT1_REG  = myADC_CFG2_DEC_SHIFT1;
1321:Generated_Source\PSoC5/myADC.c ****             myADC_DEC_SHIFT2_REG  = myADC_CFG2_DEC_SHIFT2;
1322:Generated_Source\PSoC5/myADC.c ****             myADC_DEC_DR2_REG     = myADC_CFG2_DEC_DR2;
1323:Generated_Source\PSoC5/myADC.c ****             myADC_DEC_DR2H_REG    = myADC_CFG2_DEC_DR2H;
1324:Generated_Source\PSoC5/myADC.c ****             myADC_DEC_DR1_REG     = myADC_CFG2_DEC_DR1;
1325:Generated_Source\PSoC5/myADC.c ****             myADC_DEC_OCOR_REG    = myADC_CFG2_DEC_OCOR;
1326:Generated_Source\PSoC5/myADC.c ****             myADC_DEC_OCORM_REG   = myADC_CFG2_DEC_OCORM;
1327:Generated_Source\PSoC5/myADC.c ****             myADC_DEC_OCORH_REG   = myADC_CFG2_DEC_OCORH;
1328:Generated_Source\PSoC5/myADC.c ****             myADC_DEC_COHER_REG   = myADC_CFG2_DEC_COHER;
1329:Generated_Source\PSoC5/myADC.c **** 
1330:Generated_Source\PSoC5/myADC.c ****             myADC_DSM_CR4_REG     = myADC_CFG2_DSM_CR4;
1331:Generated_Source\PSoC5/myADC.c ****             myADC_DSM_CR5_REG     = myADC_CFG2_DSM_CR5;
1332:Generated_Source\PSoC5/myADC.c ****             myADC_DSM_CR6_REG     = myADC_CFG2_DSM_CR6;
1333:Generated_Source\PSoC5/myADC.c ****             myADC_DSM_CR7_REG     = myADC_CFG2_DSM_CR7;
1334:Generated_Source\PSoC5/myADC.c ****             myADC_DSM_CR10_REG    = myADC_CFG2_DSM_CR10;
1335:Generated_Source\PSoC5/myADC.c ****             myADC_DSM_CR11_REG    = myADC_CFG2_DSM_CR11;
1336:Generated_Source\PSoC5/myADC.c ****             myADC_DSM_CR12_REG    = myADC_CFG2_DSM_CR12;
1337:Generated_Source\PSoC5/myADC.c ****             myADC_DSM_CR14_REG    = myADC_CFG2_DSM_CR14;
1338:Generated_Source\PSoC5/myADC.c ****             myADC_DSM_CR15_REG    = myADC_CFG2_DSM_CR15;
1339:Generated_Source\PSoC5/myADC.c ****             myADC_DSM_CR16_REG    = myADC_CFG2_DSM_CR16;
1340:Generated_Source\PSoC5/myADC.c ****             myADC_DSM_CR17_REG    = myADC_CFG2_DSM_CR17;
1341:Generated_Source\PSoC5/myADC.c ****             /* Set DSM_REF0_REG by disabling and enabling the PRESS cirucit */
1342:Generated_Source\PSoC5/myADC.c ****             myADC_SetDSMRef0Reg(myADC_CFG2_DSM_REF0);
1343:Generated_Source\PSoC5/myADC.c ****             myADC_DSM_REF2_REG    = myADC_CFG2_DSM_REF2;
ARM GAS  C:\Users\kcdasilv\AppData\Local\Temp\ccqnavs7.s 			page 25


1344:Generated_Source\PSoC5/myADC.c ****             myADC_DSM_REF3_REG    = myADC_CFG2_DSM_REF3;
1345:Generated_Source\PSoC5/myADC.c **** 
1346:Generated_Source\PSoC5/myADC.c ****             myADC_DSM_BUF0_REG    = myADC_CFG2_DSM_BUF0;
1347:Generated_Source\PSoC5/myADC.c ****             myADC_DSM_BUF1_REG    = myADC_CFG2_DSM_BUF1;
1348:Generated_Source\PSoC5/myADC.c ****             myADC_DSM_BUF2_REG    = myADC_CFG2_DSM_BUF2;
1349:Generated_Source\PSoC5/myADC.c ****             myADC_DSM_BUF3_REG    = myADC_CFG2_DSM_BUF3;
1350:Generated_Source\PSoC5/myADC.c **** 
1351:Generated_Source\PSoC5/myADC.c ****             /* To select either Vssa or Vref to -ve input of DSM depending on
1352:Generated_Source\PSoC5/myADC.c ****             *  the input range selected.
1353:Generated_Source\PSoC5/myADC.c ****             */
1354:Generated_Source\PSoC5/myADC.c **** 
1355:Generated_Source\PSoC5/myADC.c ****             #if(myADC_DEFAULT_INPUT_MODE)
1356:Generated_Source\PSoC5/myADC.c ****                 #if (myADC_CFG2_INPUT_RANGE == myADC_IR_VSSA_TO_2VREF)
1357:Generated_Source\PSoC5/myADC.c ****                     myADC_AMux_Select(1u);
1358:Generated_Source\PSoC5/myADC.c ****                 #else
1359:Generated_Source\PSoC5/myADC.c ****                     myADC_AMux_Select(0u);
1360:Generated_Source\PSoC5/myADC.c ****                 #endif /* myADC_IR_VSSA_TO_2VREF) */
1361:Generated_Source\PSoC5/myADC.c ****             #endif /* myADC_DEFAULT_INPUT_MODE */
1362:Generated_Source\PSoC5/myADC.c **** 
1363:Generated_Source\PSoC5/myADC.c ****             /* Set the Conversion stop if resolution is above 16 bit and
1364:Generated_Source\PSoC5/myADC.c ****             *   conversion mode is Single sample
1365:Generated_Source\PSoC5/myADC.c ****             */
1366:Generated_Source\PSoC5/myADC.c ****             #if(myADC_CFG2_RESOLUTION > 16 && \
1367:Generated_Source\PSoC5/myADC.c ****                 myADC_CFG2_CONV_MODE == myADC_MODE_SINGLE_SAMPLE)
1368:Generated_Source\PSoC5/myADC.c ****                 myADC_stopConversion = 1u;
1369:Generated_Source\PSoC5/myADC.c ****             #endif /* Single sample with resolution above 16 bits. */
1370:Generated_Source\PSoC5/myADC.c **** 
1371:Generated_Source\PSoC5/myADC.c ****             myADC_CountsPerVolt = (int32)myADC_CFG2_COUNTS_PER_VOLT;
1372:Generated_Source\PSoC5/myADC.c **** 
1373:Generated_Source\PSoC5/myADC.c ****             myADC_Ext_CP_Clk_SetDividerRegister(myADC_CFG2_CP_CLK_DIVIDER, 1u);
1374:Generated_Source\PSoC5/myADC.c **** 
1375:Generated_Source\PSoC5/myADC.c ****             /* This is only valid if there is an internal clock */
1376:Generated_Source\PSoC5/myADC.c ****             #if(myADC_DEFAULT_INTERNAL_CLK)
1377:Generated_Source\PSoC5/myADC.c ****                 myADC_theACLK_SetDividerRegister(myADC_CFG2_ADC_CLK_DIVIDER, 1u);
1378:Generated_Source\PSoC5/myADC.c ****             #endif /* myADC_DEFAULT_INTERNAL_CLK */
1379:Generated_Source\PSoC5/myADC.c **** 
1380:Generated_Source\PSoC5/myADC.c ****             #if(myADC_IRQ_REMOVE == 0u)
1381:Generated_Source\PSoC5/myADC.c ****                 /* Set interrupt vector */
1382:Generated_Source\PSoC5/myADC.c ****                 (void)CyIntSetVector(myADC_INTC_NUMBER, &myADC_ISR2);
1383:Generated_Source\PSoC5/myADC.c ****             #endif   /* End myADC_IRQ_REMOVE */
1384:Generated_Source\PSoC5/myADC.c ****         }
1385:Generated_Source\PSoC5/myADC.c ****     #endif /* myADC_DEFAULT_NUM_CONFIGS > 1 */
1386:Generated_Source\PSoC5/myADC.c **** 
1387:Generated_Source\PSoC5/myADC.c ****     #if(myADC_DEFAULT_NUM_CONFIGS > 2)
1388:Generated_Source\PSoC5/myADC.c ****         if(config == 3u)
1389:Generated_Source\PSoC5/myADC.c ****         {
1390:Generated_Source\PSoC5/myADC.c ****             /* Third Config */
1391:Generated_Source\PSoC5/myADC.c ****             myADC_DEC_CR_REG      = myADC_CFG3_DEC_CR;
1392:Generated_Source\PSoC5/myADC.c ****             myADC_DEC_SHIFT1_REG  = myADC_CFG3_DEC_SHIFT1;
1393:Generated_Source\PSoC5/myADC.c ****             myADC_DEC_SHIFT2_REG  = myADC_CFG3_DEC_SHIFT2;
1394:Generated_Source\PSoC5/myADC.c ****             myADC_DEC_DR2_REG     = myADC_CFG3_DEC_DR2;
1395:Generated_Source\PSoC5/myADC.c ****             myADC_DEC_DR2H_REG    = myADC_CFG3_DEC_DR2H;
1396:Generated_Source\PSoC5/myADC.c ****             myADC_DEC_DR1_REG     = myADC_CFG3_DEC_DR1;
1397:Generated_Source\PSoC5/myADC.c ****             myADC_DEC_OCOR_REG    = myADC_CFG3_DEC_OCOR;
1398:Generated_Source\PSoC5/myADC.c ****             myADC_DEC_OCORM_REG   = myADC_CFG3_DEC_OCORM;
1399:Generated_Source\PSoC5/myADC.c ****             myADC_DEC_OCORH_REG   = myADC_CFG3_DEC_OCORH;
1400:Generated_Source\PSoC5/myADC.c ****             myADC_DEC_COHER_REG   = myADC_CFG3_DEC_COHER;
ARM GAS  C:\Users\kcdasilv\AppData\Local\Temp\ccqnavs7.s 			page 26


1401:Generated_Source\PSoC5/myADC.c **** 
1402:Generated_Source\PSoC5/myADC.c ****             myADC_DSM_CR4_REG     = myADC_CFG3_DSM_CR4;
1403:Generated_Source\PSoC5/myADC.c ****             myADC_DSM_CR5_REG     = myADC_CFG3_DSM_CR5;
1404:Generated_Source\PSoC5/myADC.c ****             myADC_DSM_CR6_REG     = myADC_CFG3_DSM_CR6;
1405:Generated_Source\PSoC5/myADC.c ****             myADC_DSM_CR7_REG     = myADC_CFG3_DSM_CR7;
1406:Generated_Source\PSoC5/myADC.c ****             myADC_DSM_CR10_REG    = myADC_CFG3_DSM_CR10;
1407:Generated_Source\PSoC5/myADC.c ****             myADC_DSM_CR11_REG    = myADC_CFG3_DSM_CR11;
1408:Generated_Source\PSoC5/myADC.c ****             myADC_DSM_CR12_REG    = myADC_CFG3_DSM_CR12;
1409:Generated_Source\PSoC5/myADC.c ****             myADC_DSM_CR14_REG    = myADC_CFG3_DSM_CR14;
1410:Generated_Source\PSoC5/myADC.c ****             myADC_DSM_CR15_REG    = myADC_CFG3_DSM_CR15;
1411:Generated_Source\PSoC5/myADC.c ****             myADC_DSM_CR16_REG    = myADC_CFG3_DSM_CR16;
1412:Generated_Source\PSoC5/myADC.c ****             myADC_DSM_CR17_REG    = myADC_CFG3_DSM_CR17;
1413:Generated_Source\PSoC5/myADC.c ****             /* Set DSM_REF0_REG by disabling and enabling the PRESS circuit */
1414:Generated_Source\PSoC5/myADC.c ****             myADC_SetDSMRef0Reg(myADC_CFG3_DSM_REF0);
1415:Generated_Source\PSoC5/myADC.c ****             myADC_DSM_REF2_REG    = myADC_CFG3_DSM_REF2;
1416:Generated_Source\PSoC5/myADC.c ****             myADC_DSM_REF3_REG    = myADC_CFG3_DSM_REF3;
1417:Generated_Source\PSoC5/myADC.c **** 
1418:Generated_Source\PSoC5/myADC.c ****             myADC_DSM_BUF0_REG    = myADC_CFG3_DSM_BUF0;
1419:Generated_Source\PSoC5/myADC.c ****             myADC_DSM_BUF1_REG    = myADC_CFG3_DSM_BUF1;
1420:Generated_Source\PSoC5/myADC.c ****             myADC_DSM_BUF2_REG    = myADC_CFG3_DSM_BUF2;
1421:Generated_Source\PSoC5/myADC.c ****             myADC_DSM_BUF3_REG    = myADC_CFG3_DSM_BUF3;
1422:Generated_Source\PSoC5/myADC.c **** 
1423:Generated_Source\PSoC5/myADC.c ****             /* To select either Vssa or Vref to -ve input of DSM depending on
1424:Generated_Source\PSoC5/myADC.c ****             *  the input range selected.
1425:Generated_Source\PSoC5/myADC.c ****             */
1426:Generated_Source\PSoC5/myADC.c ****             #if(myADC_DEFAULT_INPUT_MODE)
1427:Generated_Source\PSoC5/myADC.c ****                 #if (myADC_CFG3_INPUT_RANGE == myADC_IR_VSSA_TO_2VREF)
1428:Generated_Source\PSoC5/myADC.c ****                     myADC_AMux_Select(1u);
1429:Generated_Source\PSoC5/myADC.c ****                 #else
1430:Generated_Source\PSoC5/myADC.c ****                     myADC_AMux_Select(0u);
1431:Generated_Source\PSoC5/myADC.c ****                 #endif /* myADC_IR_VSSA_TO_2VREF) */
1432:Generated_Source\PSoC5/myADC.c ****             #endif /* myADC_DEFAULT_INPUT_MODE */
1433:Generated_Source\PSoC5/myADC.c **** 
1434:Generated_Source\PSoC5/myADC.c ****             /* Set the Conversion stop if resolution is above 16 bit and
1435:Generated_Source\PSoC5/myADC.c ****                conversion  mode is Single sample */
1436:Generated_Source\PSoC5/myADC.c ****             #if(myADC_CFG3_RESOLUTION > 16 && \
1437:Generated_Source\PSoC5/myADC.c ****                 myADC_CFG3_CONV_MODE == myADC_MODE_SINGLE_SAMPLE)
1438:Generated_Source\PSoC5/myADC.c ****                 myADC_stopConversion = 1u;
1439:Generated_Source\PSoC5/myADC.c ****             #endif /* Single sample with resolution above 16 bits */
1440:Generated_Source\PSoC5/myADC.c **** 
1441:Generated_Source\PSoC5/myADC.c ****             myADC_CountsPerVolt = (int32)myADC_CFG3_COUNTS_PER_VOLT;
1442:Generated_Source\PSoC5/myADC.c **** 
1443:Generated_Source\PSoC5/myADC.c ****             myADC_Ext_CP_Clk_SetDividerRegister(myADC_CFG3_CP_CLK_DIVIDER, 1u);
1444:Generated_Source\PSoC5/myADC.c **** 
1445:Generated_Source\PSoC5/myADC.c ****             /* This is only valid if there is an internal clock */
1446:Generated_Source\PSoC5/myADC.c ****             #if(myADC_DEFAULT_INTERNAL_CLK)
1447:Generated_Source\PSoC5/myADC.c ****                 myADC_theACLK_SetDividerRegister(myADC_CFG3_ADC_CLK_DIVIDER, 1u);
1448:Generated_Source\PSoC5/myADC.c ****             #endif /* myADC_DEFAULT_INTERNAL_CLK */
1449:Generated_Source\PSoC5/myADC.c **** 
1450:Generated_Source\PSoC5/myADC.c ****             #if(myADC_IRQ_REMOVE == 0u)
1451:Generated_Source\PSoC5/myADC.c ****                 /* Set interrupt vector */
1452:Generated_Source\PSoC5/myADC.c ****                 (void)CyIntSetVector(myADC_INTC_NUMBER, &myADC_ISR3);
1453:Generated_Source\PSoC5/myADC.c ****             #endif   /* End myADC_IRQ_REMOVE */
1454:Generated_Source\PSoC5/myADC.c ****         }
1455:Generated_Source\PSoC5/myADC.c ****     #endif /* myADC_DEFAULT_NUM_CONFIGS > 2 */
1456:Generated_Source\PSoC5/myADC.c **** 
1457:Generated_Source\PSoC5/myADC.c ****     #if(myADC_DEFAULT_NUM_CONFIGS > 3)
ARM GAS  C:\Users\kcdasilv\AppData\Local\Temp\ccqnavs7.s 			page 27


1458:Generated_Source\PSoC5/myADC.c ****         if (config == 4u)
1459:Generated_Source\PSoC5/myADC.c ****         {
1460:Generated_Source\PSoC5/myADC.c ****             /* Fourth Config */
1461:Generated_Source\PSoC5/myADC.c ****             myADC_DEC_CR_REG      = myADC_CFG4_DEC_CR;
1462:Generated_Source\PSoC5/myADC.c ****             myADC_DEC_SHIFT1_REG  = myADC_CFG4_DEC_SHIFT1;
1463:Generated_Source\PSoC5/myADC.c ****             myADC_DEC_SHIFT2_REG  = myADC_CFG4_DEC_SHIFT2;
1464:Generated_Source\PSoC5/myADC.c ****             myADC_DEC_DR2_REG     = myADC_CFG4_DEC_DR2;
1465:Generated_Source\PSoC5/myADC.c ****             myADC_DEC_DR2H_REG    = myADC_CFG4_DEC_DR2H;
1466:Generated_Source\PSoC5/myADC.c ****             myADC_DEC_DR1_REG     = myADC_CFG4_DEC_DR1;
1467:Generated_Source\PSoC5/myADC.c ****             myADC_DEC_OCOR_REG    = myADC_CFG4_DEC_OCOR;
1468:Generated_Source\PSoC5/myADC.c ****             myADC_DEC_OCORM_REG   = myADC_CFG4_DEC_OCORM;
1469:Generated_Source\PSoC5/myADC.c ****             myADC_DEC_OCORH_REG   = myADC_CFG4_DEC_OCORH;
1470:Generated_Source\PSoC5/myADC.c ****             myADC_DEC_COHER_REG   = myADC_CFG4_DEC_COHER;
1471:Generated_Source\PSoC5/myADC.c **** 
1472:Generated_Source\PSoC5/myADC.c ****             myADC_DSM_CR4_REG     = myADC_CFG4_DSM_CR4;
1473:Generated_Source\PSoC5/myADC.c ****             myADC_DSM_CR5_REG     = myADC_CFG4_DSM_CR5;
1474:Generated_Source\PSoC5/myADC.c ****             myADC_DSM_CR6_REG     = myADC_CFG4_DSM_CR6;
1475:Generated_Source\PSoC5/myADC.c ****             myADC_DSM_CR7_REG     = myADC_CFG4_DSM_CR7;
1476:Generated_Source\PSoC5/myADC.c ****             myADC_DSM_CR10_REG    = myADC_CFG4_DSM_CR10;
1477:Generated_Source\PSoC5/myADC.c ****             myADC_DSM_CR11_REG    = myADC_CFG4_DSM_CR11;
1478:Generated_Source\PSoC5/myADC.c ****             myADC_DSM_CR12_REG    = myADC_CFG4_DSM_CR12;
1479:Generated_Source\PSoC5/myADC.c ****             myADC_DSM_CR14_REG    = myADC_CFG4_DSM_CR14;
1480:Generated_Source\PSoC5/myADC.c ****             myADC_DSM_CR15_REG    = myADC_CFG4_DSM_CR15;
1481:Generated_Source\PSoC5/myADC.c ****             myADC_DSM_CR16_REG    = myADC_CFG4_DSM_CR16;
1482:Generated_Source\PSoC5/myADC.c ****             myADC_DSM_CR17_REG    = myADC_CFG4_DSM_CR17;
1483:Generated_Source\PSoC5/myADC.c ****             /* Set DSM_REF0_REG by disabling and enabling the PRESS circuit */
1484:Generated_Source\PSoC5/myADC.c ****             myADC_SetDSMRef0Reg(myADC_CFG4_DSM_REF0);
1485:Generated_Source\PSoC5/myADC.c ****             myADC_DSM_REF2_REG    = myADC_CFG4_DSM_REF2;
1486:Generated_Source\PSoC5/myADC.c ****             myADC_DSM_REF3_REG    = myADC_CFG4_DSM_REF3;
1487:Generated_Source\PSoC5/myADC.c **** 
1488:Generated_Source\PSoC5/myADC.c ****             myADC_DSM_BUF0_REG    = myADC_CFG4_DSM_BUF0;
1489:Generated_Source\PSoC5/myADC.c ****             myADC_DSM_BUF1_REG    = myADC_CFG4_DSM_BUF1;
1490:Generated_Source\PSoC5/myADC.c ****             myADC_DSM_BUF2_REG    = myADC_CFG4_DSM_BUF2;
1491:Generated_Source\PSoC5/myADC.c ****             myADC_DSM_BUF3_REG    = myADC_CFG4_DSM_BUF3;
1492:Generated_Source\PSoC5/myADC.c **** 
1493:Generated_Source\PSoC5/myADC.c ****             /* To select either Vssa or Vref to -ve input of DSM depending on
1494:Generated_Source\PSoC5/myADC.c ****             *  the input range selected.
1495:Generated_Source\PSoC5/myADC.c ****             */
1496:Generated_Source\PSoC5/myADC.c ****             #if(myADC_DEFAULT_INPUT_MODE)
1497:Generated_Source\PSoC5/myADC.c ****                 #if (myADC_CFG4_INPUT_RANGE == myADC_IR_VSSA_TO_2VREF)
1498:Generated_Source\PSoC5/myADC.c ****                     myADC_AMux_Select(1u);
1499:Generated_Source\PSoC5/myADC.c ****                 #else
1500:Generated_Source\PSoC5/myADC.c ****                     myADC_AMux_Select(0u);
1501:Generated_Source\PSoC5/myADC.c ****                 #endif /* myADC_IR_VSSA_TO_2VREF) */
1502:Generated_Source\PSoC5/myADC.c ****             #endif /* myADC_DEFAULT_INPUT_MODE */
1503:Generated_Source\PSoC5/myADC.c **** 
1504:Generated_Source\PSoC5/myADC.c ****             /* Set the Conversion stop if resolution is above 16 bit and
1505:Generated_Source\PSoC5/myADC.c ****                conversion mode is Single sample */
1506:Generated_Source\PSoC5/myADC.c ****             #if(myADC_CFG4_RESOLUTION > 16 && \
1507:Generated_Source\PSoC5/myADC.c ****                 myADC_CFG4_CONV_MODE == myADC_MODE_SINGLE_SAMPLE)
1508:Generated_Source\PSoC5/myADC.c ****                 myADC_stopConversion = 1u;
1509:Generated_Source\PSoC5/myADC.c ****             #endif /* Single sample with resolution above 16 bits */
1510:Generated_Source\PSoC5/myADC.c **** 
1511:Generated_Source\PSoC5/myADC.c ****             myADC_CountsPerVolt = (int32)myADC_CFG4_COUNTS_PER_VOLT;
1512:Generated_Source\PSoC5/myADC.c **** 
1513:Generated_Source\PSoC5/myADC.c ****             myADC_Ext_CP_Clk_SetDividerRegister(myADC_CFG4_CP_CLK_DIVIDER, 1u);
1514:Generated_Source\PSoC5/myADC.c **** 
ARM GAS  C:\Users\kcdasilv\AppData\Local\Temp\ccqnavs7.s 			page 28


1515:Generated_Source\PSoC5/myADC.c ****             /* This is only valid if there is an internal clock */
1516:Generated_Source\PSoC5/myADC.c ****             #if(myADC_DEFAULT_INTERNAL_CLK)
1517:Generated_Source\PSoC5/myADC.c ****                 myADC_theACLK_SetDividerRegister(myADC_CFG4_ADC_CLK_DIVIDER, 1u);
1518:Generated_Source\PSoC5/myADC.c ****             #endif /* myADC_DEFAULT_INTERNAL_CLK */
1519:Generated_Source\PSoC5/myADC.c **** 
1520:Generated_Source\PSoC5/myADC.c ****             #if(myADC_IRQ_REMOVE == 0u)
1521:Generated_Source\PSoC5/myADC.c ****                 /* Set interrupt vector */
1522:Generated_Source\PSoC5/myADC.c ****                 (void)CyIntSetVector(myADC_INTC_NUMBER, &myADC_ISR4);
1523:Generated_Source\PSoC5/myADC.c ****             #endif   /* End myADC_IRQ_REMOVE */
1524:Generated_Source\PSoC5/myADC.c ****         }
1525:Generated_Source\PSoC5/myADC.c ****     #endif /* myADC_DEFAULT_NUM_CONFIGS > 3 */
1526:Generated_Source\PSoC5/myADC.c **** }
1527:Generated_Source\PSoC5/myADC.c **** 
1528:Generated_Source\PSoC5/myADC.c **** 
1529:Generated_Source\PSoC5/myADC.c **** /*******************************************************************************
1530:Generated_Source\PSoC5/myADC.c **** * Function Name: myADC_SelectCofiguration
1531:Generated_Source\PSoC5/myADC.c **** ********************************************************************************
1532:Generated_Source\PSoC5/myADC.c **** *
1533:Generated_Source\PSoC5/myADC.c **** * Summary:
1534:Generated_Source\PSoC5/myADC.c **** *  Sets one of up to four ADC configurations. Before setting the new
1535:Generated_Source\PSoC5/myADC.c **** *  configuration, the ADC is stopped and powered down. After setting
1536:Generated_Source\PSoC5/myADC.c **** *  the new configuration, the ADC can be powered and conversion
1537:Generated_Source\PSoC5/myADC.c **** *  can be restarted depending up on the value of second parameter
1538:Generated_Source\PSoC5/myADC.c **** *  restart. If the value of this parameter is 1, then ADC will be
1539:Generated_Source\PSoC5/myADC.c **** *  restarted. If this value is zero, then user must call myADC_Start
1540:Generated_Source\PSoC5/myADC.c **** *  and myADC_StartConvert() to restart the conversion.
1541:Generated_Source\PSoC5/myADC.c **** *
1542:Generated_Source\PSoC5/myADC.c **** * Parameters:
1543:Generated_Source\PSoC5/myADC.c **** *  config:  configuration user wants to select.
1544:Generated_Source\PSoC5/myADC.c **** *           Valid range: 1..4
1545:Generated_Source\PSoC5/myADC.c **** *  restart:  Restart option. 1 means start the ADC and restart the conversion.
1546:Generated_Source\PSoC5/myADC.c **** *                            0 means do not start the ADC and conversion.
1547:Generated_Source\PSoC5/myADC.c **** *
1548:Generated_Source\PSoC5/myADC.c **** * Return:
1549:Generated_Source\PSoC5/myADC.c **** *  None
1550:Generated_Source\PSoC5/myADC.c **** *
1551:Generated_Source\PSoC5/myADC.c **** *******************************************************************************/
1552:Generated_Source\PSoC5/myADC.c **** void myADC_SelectConfiguration(uint8 config, uint8 restart)
1553:Generated_Source\PSoC5/myADC.c ****                                               
1554:Generated_Source\PSoC5/myADC.c **** {
1555:Generated_Source\PSoC5/myADC.c ****     /* Check whether the configuration number is valid or not */
1556:Generated_Source\PSoC5/myADC.c ****     if((config > 0u) && (config <= myADC_DEFAULT_NUM_CONFIGS))
1557:Generated_Source\PSoC5/myADC.c ****     {
1558:Generated_Source\PSoC5/myADC.c ****         /* Set the flag to ensure Start() API doesn't override the 
1559:Generated_Source\PSoC5/myADC.c **** 		*  selected configuration
1560:Generated_Source\PSoC5/myADC.c **** 		*/
1561:Generated_Source\PSoC5/myADC.c ****         if(myADC_initVar == 0u)
1562:Generated_Source\PSoC5/myADC.c ****         {
1563:Generated_Source\PSoC5/myADC.c ****             myADC_started = 1u;
1564:Generated_Source\PSoC5/myADC.c ****         }
1565:Generated_Source\PSoC5/myADC.c **** 
1566:Generated_Source\PSoC5/myADC.c ****         /* Update the config flag */
1567:Generated_Source\PSoC5/myADC.c ****         myADC_Config = config;
1568:Generated_Source\PSoC5/myADC.c **** 
1569:Generated_Source\PSoC5/myADC.c ****         /* Stop the ADC  */
1570:Generated_Source\PSoC5/myADC.c ****         myADC_Stop();
1571:Generated_Source\PSoC5/myADC.c **** 
ARM GAS  C:\Users\kcdasilv\AppData\Local\Temp\ccqnavs7.s 			page 29


1572:Generated_Source\PSoC5/myADC.c ****         /* Set the  ADC registers based on the configuration */
1573:Generated_Source\PSoC5/myADC.c ****         myADC_InitConfig(config);
1574:Generated_Source\PSoC5/myADC.c **** 
1575:Generated_Source\PSoC5/myADC.c ****         /* Compensate the gain */
1576:Generated_Source\PSoC5/myADC.c ****         myADC_DEC_GVAL_REG = myADC_gcor[config - 1u].gval;
1577:Generated_Source\PSoC5/myADC.c ****         CY_SET_REG16(myADC_DEC_GCOR_16B_PTR, myADC_gcor[config - 1u].gcor);
1578:Generated_Source\PSoC5/myADC.c **** 
1579:Generated_Source\PSoC5/myADC.c ****         if(restart == 1u)
1580:Generated_Source\PSoC5/myADC.c ****         {
1581:Generated_Source\PSoC5/myADC.c ****             /* Restart the ADC */
1582:Generated_Source\PSoC5/myADC.c ****             myADC_Start();
1583:Generated_Source\PSoC5/myADC.c **** 
1584:Generated_Source\PSoC5/myADC.c ****             /* Restart the ADC conversion */
1585:Generated_Source\PSoC5/myADC.c ****             myADC_StartConvert();
1586:Generated_Source\PSoC5/myADC.c ****         }
1587:Generated_Source\PSoC5/myADC.c ****     }
1588:Generated_Source\PSoC5/myADC.c ****     else
1589:Generated_Source\PSoC5/myADC.c ****     {
1590:Generated_Source\PSoC5/myADC.c ****         /* Halt CPU in debug mode if config is out of valid range */
1591:Generated_Source\PSoC5/myADC.c ****         CYASSERT(0u != 0u);
1592:Generated_Source\PSoC5/myADC.c ****     }
1593:Generated_Source\PSoC5/myADC.c **** }
1594:Generated_Source\PSoC5/myADC.c **** 
1595:Generated_Source\PSoC5/myADC.c **** 
1596:Generated_Source\PSoC5/myADC.c **** /*******************************************************************************
1597:Generated_Source\PSoC5/myADC.c **** * Function Name: myADC_GainCompensation
1598:Generated_Source\PSoC5/myADC.c **** ********************************************************************************
1599:Generated_Source\PSoC5/myADC.c **** *
1600:Generated_Source\PSoC5/myADC.c **** * Summary:
1601:Generated_Source\PSoC5/myADC.c **** *  This API calculates the trim value and then store this to gcor structure.
1602:Generated_Source\PSoC5/myADC.c **** *
1603:Generated_Source\PSoC5/myADC.c **** * Parameters:
1604:Generated_Source\PSoC5/myADC.c **** *  inputRange:  input range for which trim value is to be calculated.
1605:Generated_Source\PSoC5/myADC.c **** *  IdealDecGain:  Ideal Decimator gain for the selected resolution and
1606:Generated_Source\PSoC5/myADC.c **** *                 conversion  mode.
1607:Generated_Source\PSoC5/myADC.c **** *  IdealOddDecGain:  Ideal odd decimation gain for the selected resolution and
1608:Generated_Source\PSoC5/myADC.c ****                      conversion mode.
1609:Generated_Source\PSoC5/myADC.c **** *  resolution:  Resolution to select the proper flash location for trim value.
1610:Generated_Source\PSoC5/myADC.c **** *  config:      Specifies the configuration number
1611:Generated_Source\PSoC5/myADC.c **** *               Valid range: 1..4
1612:Generated_Source\PSoC5/myADC.c **** *
1613:Generated_Source\PSoC5/myADC.c **** * Return:
1614:Generated_Source\PSoC5/myADC.c **** *  None
1615:Generated_Source\PSoC5/myADC.c **** *
1616:Generated_Source\PSoC5/myADC.c **** *******************************************************************************/
1617:Generated_Source\PSoC5/myADC.c **** static void myADC_GainCompensation(uint8 inputRange, uint16 idealDecGain, uint16 idealOddDecGain,
1618:Generated_Source\PSoC5/myADC.c ****                               uint8 resolution, uint8 config) 
1619:Generated_Source\PSoC5/myADC.c **** {
  26              		.loc 1 1619 0
  27              		.cfi_startproc
  28              		@ args = 4, pretend = 0, frame = 0
  29              		@ frame_needed = 0, uses_anonymous_args = 0
  30              	.LVL0:
  31 0000 38B5     		push	{r3, r4, r5, lr}
  32              		.cfi_def_cfa_offset 16
  33              		.cfi_offset 3, -16
  34              		.cfi_offset 4, -12
ARM GAS  C:\Users\kcdasilv\AppData\Local\Temp\ccqnavs7.s 			page 30


  35              		.cfi_offset 5, -8
  36              		.cfi_offset 14, -4
  37 0002 9DF81040 		ldrb	r4, [sp, #16]	@ zero_extendqisi2
1620:Generated_Source\PSoC5/myADC.c ****     int8 flash;
1621:Generated_Source\PSoC5/myADC.c **** 	int32 normalised;
1622:Generated_Source\PSoC5/myADC.c **** 	uint16 gcorValue;
1623:Generated_Source\PSoC5/myADC.c ****     uint32 gcorTmp;
1624:Generated_Source\PSoC5/myADC.c **** 
1625:Generated_Source\PSoC5/myADC.c ****     if((config > 0u) && (config <= myADC_DEFAULT_NUM_CONFIGS))
  38              		.loc 1 1625 0
  39 0006 651E     		subs	r5, r4, #1
  40 0008 EDB2     		uxtb	r5, r5
  41 000a 032D     		cmp	r5, #3
  42 000c 4AD8     		bhi	.L2
1626:Generated_Source\PSoC5/myADC.c ****     {
1627:Generated_Source\PSoC5/myADC.c ****         switch(inputRange)
  43              		.loc 1 1627 0
  44 000e 0138     		subs	r0, r0, #1
  45              	.LVL1:
  46 0010 0928     		cmp	r0, #9
  47 0012 26D8     		bhi	.L16
  48 0014 DFE800F0 		tbb	[pc, r0]
  49              	.L5:
  50 0018 05       		.byte	(.L4-.L5)/2
  51 0019 25       		.byte	(.L16-.L5)/2
  52 001a 25       		.byte	(.L16-.L5)/2
  53 001b 05       		.byte	(.L4-.L5)/2
  54 001c 25       		.byte	(.L16-.L5)/2
  55 001d 25       		.byte	(.L16-.L5)/2
  56 001e 0D       		.byte	(.L6-.L5)/2
  57 001f 15       		.byte	(.L7-.L5)/2
  58 0020 25       		.byte	(.L16-.L5)/2
  59 0021 1D       		.byte	(.L8-.L5)/2
  60              		.p2align 1
  61              	.L4:
1628:Generated_Source\PSoC5/myADC.c ****         {
1629:Generated_Source\PSoC5/myADC.c ****             case myADC_IR_VNEG_VREF_DIFF:
1630:Generated_Source\PSoC5/myADC.c ****             case myADC_IR_VSSA_TO_2VREF:
1631:Generated_Source\PSoC5/myADC.c ****                 /* Normalize the flash Value */
1632:Generated_Source\PSoC5/myADC.c ****                 if(resolution > 15u)
  62              		.loc 1 1632 0
  63 0022 0F2B     		cmp	r3, #15
  64 0024 02D9     		bls	.L9
1633:Generated_Source\PSoC5/myADC.c ****                 {
1634:Generated_Source\PSoC5/myADC.c ****                     flash = myADC_DEC_TRIM_VREF_DIFF_16_20;
  65              		.loc 1 1634 0
  66 0026 2148     		ldr	r0, .L18
  67 0028 0078     		ldrb	r0, [r0]	@ zero_extendqisi2
  68              	.LVL2:
  69 002a 1BE0     		b	.L3
  70              	.LVL3:
  71              	.L9:
1635:Generated_Source\PSoC5/myADC.c ****                 }
1636:Generated_Source\PSoC5/myADC.c ****                 else
1637:Generated_Source\PSoC5/myADC.c ****                 {
1638:Generated_Source\PSoC5/myADC.c ****                     flash = myADC_DEC_TRIM_VREF_DIFF_8_15;
  72              		.loc 1 1638 0
ARM GAS  C:\Users\kcdasilv\AppData\Local\Temp\ccqnavs7.s 			page 31


  73 002c 2048     		ldr	r0, .L18+4
  74 002e 0078     		ldrb	r0, [r0]	@ zero_extendqisi2
  75              	.LVL4:
  76 0030 18E0     		b	.L3
  77              	.LVL5:
  78              	.L6:
1639:Generated_Source\PSoC5/myADC.c ****                 }
1640:Generated_Source\PSoC5/myADC.c ****                 break;
1641:Generated_Source\PSoC5/myADC.c **** 
1642:Generated_Source\PSoC5/myADC.c ****             case myADC_IR_VNEG_VREF_2_DIFF:
1643:Generated_Source\PSoC5/myADC.c ****                 /* Normalize the flash Value */
1644:Generated_Source\PSoC5/myADC.c ****                 if(resolution > 15u)
  79              		.loc 1 1644 0
  80 0032 0F2B     		cmp	r3, #15
  81 0034 02D9     		bls	.L10
1645:Generated_Source\PSoC5/myADC.c ****                 {
1646:Generated_Source\PSoC5/myADC.c ****                     flash = myADC_DEC_TRIM_VREF_2_DIFF_16_20;
  82              		.loc 1 1646 0
  83 0036 1F48     		ldr	r0, .L18+8
  84 0038 0078     		ldrb	r0, [r0]	@ zero_extendqisi2
  85              	.LVL6:
  86 003a 13E0     		b	.L3
  87              	.LVL7:
  88              	.L10:
1647:Generated_Source\PSoC5/myADC.c ****                 }
1648:Generated_Source\PSoC5/myADC.c ****                 else
1649:Generated_Source\PSoC5/myADC.c ****                 {
1650:Generated_Source\PSoC5/myADC.c ****                     flash = myADC_DEC_TRIM_VREF_2_DIFF_8_15;
  89              		.loc 1 1650 0
  90 003c 1E48     		ldr	r0, .L18+12
  91 003e 0078     		ldrb	r0, [r0]	@ zero_extendqisi2
  92              	.LVL8:
  93 0040 10E0     		b	.L3
  94              	.LVL9:
  95              	.L7:
1651:Generated_Source\PSoC5/myADC.c ****                 }
1652:Generated_Source\PSoC5/myADC.c ****                 break;
1653:Generated_Source\PSoC5/myADC.c **** 
1654:Generated_Source\PSoC5/myADC.c ****             case myADC_IR_VNEG_VREF_4_DIFF:
1655:Generated_Source\PSoC5/myADC.c ****                 /* Normalize the flash Value */
1656:Generated_Source\PSoC5/myADC.c ****                 if(resolution > 15u)
  96              		.loc 1 1656 0
  97 0042 0F2B     		cmp	r3, #15
  98 0044 02D9     		bls	.L11
1657:Generated_Source\PSoC5/myADC.c ****                 {
1658:Generated_Source\PSoC5/myADC.c ****                     flash = myADC_DEC_TRIM_VREF_4_DIFF_16_20;
  99              		.loc 1 1658 0
 100 0046 1D48     		ldr	r0, .L18+16
 101 0048 0078     		ldrb	r0, [r0]	@ zero_extendqisi2
 102              	.LVL10:
 103 004a 0BE0     		b	.L3
 104              	.LVL11:
 105              	.L11:
1659:Generated_Source\PSoC5/myADC.c ****                 }
1660:Generated_Source\PSoC5/myADC.c ****                 else
1661:Generated_Source\PSoC5/myADC.c ****                 {
1662:Generated_Source\PSoC5/myADC.c ****                     flash = myADC_DEC_TRIM_VREF_4_DIFF_8_15;
ARM GAS  C:\Users\kcdasilv\AppData\Local\Temp\ccqnavs7.s 			page 32


 106              		.loc 1 1662 0
 107 004c 1C48     		ldr	r0, .L18+20
 108 004e 0078     		ldrb	r0, [r0]	@ zero_extendqisi2
 109              	.LVL12:
 110 0050 08E0     		b	.L3
 111              	.LVL13:
 112              	.L8:
1663:Generated_Source\PSoC5/myADC.c ****                 }
1664:Generated_Source\PSoC5/myADC.c ****                 break;
1665:Generated_Source\PSoC5/myADC.c **** 
1666:Generated_Source\PSoC5/myADC.c ****             case myADC_IR_VNEG_VREF_16_DIFF:
1667:Generated_Source\PSoC5/myADC.c ****                 /* Normalize the flash Value */
1668:Generated_Source\PSoC5/myADC.c ****                 if(resolution > 15u)
 113              		.loc 1 1668 0
 114 0052 0F2B     		cmp	r3, #15
 115 0054 02D9     		bls	.L12
1669:Generated_Source\PSoC5/myADC.c ****                 {
1670:Generated_Source\PSoC5/myADC.c ****                     flash = myADC_DEC_TRIM_VREF_16_DIFF_16_20;
 116              		.loc 1 1670 0
 117 0056 1B48     		ldr	r0, .L18+24
 118 0058 0078     		ldrb	r0, [r0]	@ zero_extendqisi2
 119              	.LVL14:
 120 005a 03E0     		b	.L3
 121              	.LVL15:
 122              	.L12:
1671:Generated_Source\PSoC5/myADC.c ****                 }
1672:Generated_Source\PSoC5/myADC.c ****                 else
1673:Generated_Source\PSoC5/myADC.c ****                 {
1674:Generated_Source\PSoC5/myADC.c ****                     flash = myADC_DEC_TRIM_VREF_16_DIFF_8_15;
 123              		.loc 1 1674 0
 124 005c 1A48     		ldr	r0, .L18+28
 125 005e 0078     		ldrb	r0, [r0]	@ zero_extendqisi2
 126              	.LVL16:
 127 0060 00E0     		b	.L3
 128              	.LVL17:
 129              	.L16:
1675:Generated_Source\PSoC5/myADC.c ****                 }
1676:Generated_Source\PSoC5/myADC.c ****                 break;
1677:Generated_Source\PSoC5/myADC.c **** 
1678:Generated_Source\PSoC5/myADC.c ****             default:
1679:Generated_Source\PSoC5/myADC.c ****                 flash = 0;
 130              		.loc 1 1679 0
 131 0062 0020     		movs	r0, #0
 132              	.L3:
 133              	.LVL18:
1680:Generated_Source\PSoC5/myADC.c ****                 break;
1681:Generated_Source\PSoC5/myADC.c ****         }
1682:Generated_Source\PSoC5/myADC.c **** 
1683:Generated_Source\PSoC5/myADC.c ****         /* Add two values */
1684:Generated_Source\PSoC5/myADC.c **** 		normalised = (int32)idealDecGain + ((int32)flash * 32);
 134              		.loc 1 1684 0
 135 0064 40B2     		sxtb	r0, r0
 136 0066 01EB4011 		add	r1, r1, r0, lsl #5
 137              	.LVL19:
1685:Generated_Source\PSoC5/myADC.c ****         gcorTmp = (uint32)normalised * (uint32)idealOddDecGain;
 138              		.loc 1 1685 0
 139 006a 01FB02F2 		mul	r2, r1, r2
ARM GAS  C:\Users\kcdasilv\AppData\Local\Temp\ccqnavs7.s 			page 33


 140              	.LVL20:
1686:Generated_Source\PSoC5/myADC.c ****         gcorValue = (uint16)(gcorTmp / myADC_IDEAL_GAIN_CONST);
 141              		.loc 1 1686 0
 142 006e D20B     		lsrs	r2, r2, #15
 143              	.LVL21:
 144 0070 91B2     		uxth	r1, r2
 145              	.LVL22:
1687:Generated_Source\PSoC5/myADC.c **** 
1688:Generated_Source\PSoC5/myADC.c ****         if (resolution < (myADC_MAX_GVAL - 1u))
 146              		.loc 1 1688 0
 147 0072 0D2B     		cmp	r3, #13
 148 0074 0BD8     		bhi	.L13
1689:Generated_Source\PSoC5/myADC.c ****         {
1690:Generated_Source\PSoC5/myADC.c ****             gcorValue = (gcorValue >> (myADC_MAX_GVAL - (resolution + 1u)));
 149              		.loc 1 1690 0
 150 0076 C3F10E01 		rsb	r1, r3, #14
 151              	.LVL23:
 152 007a 92B2     		uxth	r2, r2
 153 007c 0A41     		asrs	r2, r2, r1
 154              	.LVL24:
 155 007e 91B2     		uxth	r1, r2
 156              	.LVL25:
1691:Generated_Source\PSoC5/myADC.c ****             myADC_gcor[config - 1u].gval = (resolution + 1u);
 157              		.loc 1 1691 0
 158 0080 124A     		ldr	r2, .L18+32
 159 0082 02EB8402 		add	r2, r2, r4, lsl #2
 160 0086 0133     		adds	r3, r3, #1
 161              	.LVL26:
 162 0088 02F8023C 		strb	r3, [r2, #-2]
 163 008c 05E0     		b	.L14
 164              	.LVL27:
 165              	.L13:
1692:Generated_Source\PSoC5/myADC.c ****         }
1693:Generated_Source\PSoC5/myADC.c ****         else
1694:Generated_Source\PSoC5/myADC.c ****         {
1695:Generated_Source\PSoC5/myADC.c ****             /* Use all 16 bits */
1696:Generated_Source\PSoC5/myADC.c ****             myADC_gcor[config - 1u].gval = myADC_MAX_GVAL;
 166              		.loc 1 1696 0
 167 008e 0F4B     		ldr	r3, .L18+32
 168              	.LVL28:
 169 0090 03EB8403 		add	r3, r3, r4, lsl #2
 170 0094 0F22     		movs	r2, #15
 171 0096 03F8022C 		strb	r2, [r3, #-2]
 172              	.L14:
1697:Generated_Source\PSoC5/myADC.c ****         }
1698:Generated_Source\PSoC5/myADC.c **** 
1699:Generated_Source\PSoC5/myADC.c ****         /* Save the gain correction register value */
1700:Generated_Source\PSoC5/myADC.c ****         myADC_gcor[config - 1u].gcor = gcorValue;
 173              		.loc 1 1700 0
 174 009a 013C     		subs	r4, r4, #1
 175 009c 0B4B     		ldr	r3, .L18+32
 176 009e 23F82410 		strh	r1, [r3, r4, lsl #2]	@ movhi
 177 00a2 38BD     		pop	{r3, r4, r5, pc}
 178              	.LVL29:
 179              	.L2:
1701:Generated_Source\PSoC5/myADC.c ****     }
1702:Generated_Source\PSoC5/myADC.c ****     else
ARM GAS  C:\Users\kcdasilv\AppData\Local\Temp\ccqnavs7.s 			page 34


1703:Generated_Source\PSoC5/myADC.c ****     {
1704:Generated_Source\PSoC5/myADC.c ****         /* Halt CPU in debug mode if config is out of valid range */
1705:Generated_Source\PSoC5/myADC.c ****         CYASSERT(0u != 0u);
 180              		.loc 1 1705 0 discriminator 1
 181 00a4 0020     		movs	r0, #0
 182              	.LVL30:
 183 00a6 FFF7FEFF 		bl	CyHalt
 184              	.LVL31:
 185 00aa 38BD     		pop	{r3, r4, r5, pc}
 186              	.LVL32:
 187              	.L19:
 188              		.align	2
 189              	.L18:
 190 00ac 18010049 		.word	1224737048
 191 00b0 1C010049 		.word	1224737052
 192 00b4 19010049 		.word	1224737049
 193 00b8 1D010049 		.word	1224737053
 194 00bc 1A010049 		.word	1224737050
 195 00c0 1E010049 		.word	1224737054
 196 00c4 1B010049 		.word	1224737051
 197 00c8 1F010049 		.word	1224737055
 198 00cc 00000000 		.word	.LANCHOR0
 199              		.cfi_endproc
 200              	.LFE21:
 201              		.size	myADC_GainCompensation, .-myADC_GainCompensation
 202              		.section	.text.myADC_SetDSMRef0Reg,"ax",%progbits
 203              		.align	2
 204              		.thumb
 205              		.thumb_func
 206              		.type	myADC_SetDSMRef0Reg, %function
 207              	myADC_SetDSMRef0Reg:
 208              	.LFB22:
1706:Generated_Source\PSoC5/myADC.c ****     }
1707:Generated_Source\PSoC5/myADC.c **** }
1708:Generated_Source\PSoC5/myADC.c **** 
1709:Generated_Source\PSoC5/myADC.c **** 
1710:Generated_Source\PSoC5/myADC.c **** /******************************************************************************
1711:Generated_Source\PSoC5/myADC.c **** * Function Name: myADC_SetDSMRef0Reg(uint8)
1712:Generated_Source\PSoC5/myADC.c **** ******************************************************************************
1713:Generated_Source\PSoC5/myADC.c **** *
1714:Generated_Source\PSoC5/myADC.c **** * Summary:
1715:Generated_Source\PSoC5/myADC.c **** *  This API sets the DSM_REF0 register. This is written for internal use.
1716:Generated_Source\PSoC5/myADC.c **** *
1717:Generated_Source\PSoC5/myADC.c **** * Parameters:
1718:Generated_Source\PSoC5/myADC.c **** *  value:  Value to be written to DSM_REF0 register.
1719:Generated_Source\PSoC5/myADC.c **** *
1720:Generated_Source\PSoC5/myADC.c **** * Return:
1721:Generated_Source\PSoC5/myADC.c **** *  None
1722:Generated_Source\PSoC5/myADC.c **** *
1723:Generated_Source\PSoC5/myADC.c **** ******************************************************************************/
1724:Generated_Source\PSoC5/myADC.c **** static void myADC_SetDSMRef0Reg(uint8 value) 
1725:Generated_Source\PSoC5/myADC.c **** {
 209              		.loc 1 1725 0
 210              		.cfi_startproc
 211              		@ args = 0, pretend = 0, frame = 0
 212              		@ frame_needed = 0, uses_anonymous_args = 0
 213              	.LVL33:
ARM GAS  C:\Users\kcdasilv\AppData\Local\Temp\ccqnavs7.s 			page 35


 214 0000 F8B5     		push	{r3, r4, r5, r6, r7, lr}
 215              		.cfi_def_cfa_offset 24
 216              		.cfi_offset 3, -24
 217              		.cfi_offset 4, -20
 218              		.cfi_offset 5, -16
 219              		.cfi_offset 6, -12
 220              		.cfi_offset 7, -8
 221              		.cfi_offset 14, -4
 222 0002 0746     		mov	r7, r0
1726:Generated_Source\PSoC5/myADC.c ****     uint8 enableInterrupts;
1727:Generated_Source\PSoC5/myADC.c ****     enableInterrupts = CyEnterCriticalSection();
 223              		.loc 1 1727 0
 224 0004 FFF7FEFF 		bl	CyEnterCriticalSection
 225              	.LVL34:
 226 0008 0646     		mov	r6, r0
 227              	.LVL35:
1728:Generated_Source\PSoC5/myADC.c **** 
1729:Generated_Source\PSoC5/myADC.c ****     /* Disable PRES, Enable power to VCMBUF0, REFBUF0 and REFBUF1, enable PRES */
1730:Generated_Source\PSoC5/myADC.c ****     myADC_RESET_CR4_REG |= (myADC_IGNORE_PRESA1 | myADC_IGNORE_PRESD1);
 228              		.loc 1 1730 0
 229 000a 0D4D     		ldr	r5, .L22
 230 000c 2B78     		ldrb	r3, [r5]	@ zero_extendqisi2
 231 000e 43F00303 		orr	r3, r3, #3
 232 0012 2B70     		strb	r3, [r5]
1731:Generated_Source\PSoC5/myADC.c ****     myADC_RESET_CR5_REG |= (myADC_IGNORE_PRESA2 | myADC_IGNORE_PRESD2);
 233              		.loc 1 1731 0
 234 0014 0B4C     		ldr	r4, .L22+4
 235 0016 2378     		ldrb	r3, [r4]	@ zero_extendqisi2
 236 0018 43F00303 		orr	r3, r3, #3
 237 001c 2370     		strb	r3, [r4]
1732:Generated_Source\PSoC5/myADC.c ****     myADC_DSM_REF0_REG = value;
 238              		.loc 1 1732 0
 239 001e 0A4B     		ldr	r3, .L22+8
 240 0020 1F70     		strb	r7, [r3]
1733:Generated_Source\PSoC5/myADC.c **** 
1734:Generated_Source\PSoC5/myADC.c ****     /* Wait for 3 microseconds */
1735:Generated_Source\PSoC5/myADC.c ****     CyDelayUs(myADC_PRES_DELAY_TIME);
 241              		.loc 1 1735 0
 242 0022 0320     		movs	r0, #3
 243 0024 FFF7FEFF 		bl	CyDelayUs
 244              	.LVL36:
1736:Generated_Source\PSoC5/myADC.c ****     /* Enable the press circuit */
1737:Generated_Source\PSoC5/myADC.c ****     myADC_RESET_CR4_REG &= (uint8)~(myADC_IGNORE_PRESA1 | myADC_IGNORE_PRESD1);
 245              		.loc 1 1737 0
 246 0028 2B78     		ldrb	r3, [r5]	@ zero_extendqisi2
 247 002a 03F0FC03 		and	r3, r3, #252
 248 002e 2B70     		strb	r3, [r5]
1738:Generated_Source\PSoC5/myADC.c ****     myADC_RESET_CR5_REG &= (uint8)~(myADC_IGNORE_PRESA2 | myADC_IGNORE_PRESD2);
 249              		.loc 1 1738 0
 250 0030 2378     		ldrb	r3, [r4]	@ zero_extendqisi2
 251 0032 03F0FC03 		and	r3, r3, #252
 252 0036 2370     		strb	r3, [r4]
1739:Generated_Source\PSoC5/myADC.c **** 
1740:Generated_Source\PSoC5/myADC.c ****     CyExitCriticalSection(enableInterrupts);
 253              		.loc 1 1740 0
 254 0038 3046     		mov	r0, r6
 255 003a FFF7FEFF 		bl	CyExitCriticalSection
ARM GAS  C:\Users\kcdasilv\AppData\Local\Temp\ccqnavs7.s 			page 36


 256              	.LVL37:
 257 003e F8BD     		pop	{r3, r4, r5, r6, r7, pc}
 258              	.LVL38:
 259              	.L23:
 260              		.align	2
 261              	.L22:
 262 0040 F8460040 		.word	1073759992
 263 0044 F9460040 		.word	1073759993
 264 0048 92580040 		.word	1073764498
 265              		.cfi_endproc
 266              	.LFE22:
 267              		.size	myADC_SetDSMRef0Reg, .-myADC_SetDSMRef0Reg
 268              		.section	.text.myADC_InitConfig,"ax",%progbits
 269              		.align	2
 270              		.thumb
 271              		.thumb_func
 272              		.type	myADC_InitConfig, %function
 273              	myADC_InitConfig:
 274              	.LFB19:
1243:Generated_Source\PSoC5/myADC.c ****     myADC_stopConversion = 0u;
 275              		.loc 1 1243 0
 276              		.cfi_startproc
 277              		@ args = 0, pretend = 0, frame = 0
 278              		@ frame_needed = 0, uses_anonymous_args = 0
 279              	.LVL39:
 280 0000 F8B5     		push	{r3, r4, r5, r6, r7, lr}
 281              		.cfi_def_cfa_offset 24
 282              		.cfi_offset 3, -24
 283              		.cfi_offset 4, -20
 284              		.cfi_offset 5, -16
 285              		.cfi_offset 6, -12
 286              		.cfi_offset 7, -8
 287              		.cfi_offset 14, -4
 288 0002 0446     		mov	r4, r0
1244:Generated_Source\PSoC5/myADC.c **** 
 289              		.loc 1 1244 0
 290 0004 0022     		movs	r2, #0
 291 0006 C04B     		ldr	r3, .L30
 292 0008 1A74     		strb	r2, [r3, #16]
1246:Generated_Source\PSoC5/myADC.c ****     {
 293              		.loc 1 1246 0
 294 000a 0128     		cmp	r0, #1
 295 000c 5BD1     		bne	.L25
1249:Generated_Source\PSoC5/myADC.c ****         myADC_DEC_SHIFT1_REG  = myADC_CFG1_DEC_SHIFT1;
 296              		.loc 1 1249 0
 297 000e 3822     		movs	r2, #56
 298 0010 BE4B     		ldr	r3, .L30+4
 299 0012 1A70     		strb	r2, [r3]
1250:Generated_Source\PSoC5/myADC.c ****         myADC_DEC_SHIFT2_REG  = myADC_CFG1_DEC_SHIFT2;
 300              		.loc 1 1250 0
 301 0014 0422     		movs	r2, #4
 302 0016 0233     		adds	r3, r3, #2
 303 0018 1A70     		strb	r2, [r3]
1251:Generated_Source\PSoC5/myADC.c ****         myADC_DEC_DR2_REG     = myADC_CFG1_DEC_DR2;
 304              		.loc 1 1251 0
 305 001a 0622     		movs	r2, #6
 306 001c 0133     		adds	r3, r3, #1
ARM GAS  C:\Users\kcdasilv\AppData\Local\Temp\ccqnavs7.s 			page 37


 307 001e 1A70     		strb	r2, [r3]
1252:Generated_Source\PSoC5/myADC.c ****         myADC_DEC_DR2H_REG    = myADC_CFG1_DEC_DR2H;
 308              		.loc 1 1252 0
 309 0020 0025     		movs	r5, #0
 310 0022 0133     		adds	r3, r3, #1
 311 0024 1D70     		strb	r5, [r3]
1253:Generated_Source\PSoC5/myADC.c ****         myADC_DEC_DR1_REG     = myADC_CFG1_DEC_DR1;
 312              		.loc 1 1253 0
 313 0026 0133     		adds	r3, r3, #1
 314 0028 1D70     		strb	r5, [r3]
1254:Generated_Source\PSoC5/myADC.c ****         myADC_DEC_OCOR_REG    = myADC_CFG1_DEC_OCOR;
 315              		.loc 1 1254 0
 316 002a 3F22     		movs	r2, #63
 317 002c 0133     		adds	r3, r3, #1
 318 002e 1A70     		strb	r2, [r3]
1255:Generated_Source\PSoC5/myADC.c ****         myADC_DEC_OCORM_REG   = myADC_CFG1_DEC_OCORM;
 319              		.loc 1 1255 0
 320 0030 0233     		adds	r3, r3, #2
 321 0032 1D70     		strb	r5, [r3]
1256:Generated_Source\PSoC5/myADC.c ****         myADC_DEC_OCORH_REG   = myADC_CFG1_DEC_OCORH;
 322              		.loc 1 1256 0
 323 0034 0133     		adds	r3, r3, #1
 324 0036 1D70     		strb	r5, [r3]
1257:Generated_Source\PSoC5/myADC.c ****         myADC_DEC_COHER_REG   = myADC_CFG1_DEC_COHER;
 325              		.loc 1 1257 0
 326 0038 0133     		adds	r3, r3, #1
 327 003a 1D70     		strb	r5, [r3]
1258:Generated_Source\PSoC5/myADC.c **** 
 328              		.loc 1 1258 0
 329 003c 0126     		movs	r6, #1
 330 003e 0A33     		adds	r3, r3, #10
 331 0040 1E70     		strb	r6, [r3]
1260:Generated_Source\PSoC5/myADC.c ****         myADC_DSM_CR5_REG     = myADC_CFG1_DSM_CR5;
 332              		.loc 1 1260 0
 333 0042 5022     		movs	r2, #80
 334 0044 03F52763 		add	r3, r3, #2672
 335 0048 1A70     		strb	r2, [r3]
1261:Generated_Source\PSoC5/myADC.c ****         myADC_DSM_CR6_REG     = myADC_CFG1_DSM_CR6;
 336              		.loc 1 1261 0
 337 004a 0A23     		movs	r3, #10
 338 004c B04A     		ldr	r2, .L30+8
 339 004e 1370     		strb	r3, [r2]
1262:Generated_Source\PSoC5/myADC.c ****         myADC_DSM_CR7_REG     = myADC_CFG1_DSM_CR7;
 340              		.loc 1 1262 0
 341 0050 2C21     		movs	r1, #44
 342 0052 0132     		adds	r2, r2, #1
 343 0054 1170     		strb	r1, [r2]
1263:Generated_Source\PSoC5/myADC.c ****         myADC_DSM_CR10_REG    = myADC_CFG1_DSM_CR10;
 344              		.loc 1 1263 0
 345 0056 0132     		adds	r2, r2, #1
 346 0058 1570     		strb	r5, [r2]
1264:Generated_Source\PSoC5/myADC.c ****         myADC_DSM_CR11_REG    = myADC_CFG1_DSM_CR11;
 347              		.loc 1 1264 0
 348 005a 4421     		movs	r1, #68
 349 005c 0332     		adds	r2, r2, #3
 350 005e 1170     		strb	r1, [r2]
1265:Generated_Source\PSoC5/myADC.c ****         myADC_DSM_CR12_REG    = myADC_CFG1_DSM_CR12;
ARM GAS  C:\Users\kcdasilv\AppData\Local\Temp\ccqnavs7.s 			page 38


 351              		.loc 1 1265 0
 352 0060 4821     		movs	r1, #72
 353 0062 0132     		adds	r2, r2, #1
 354 0064 1170     		strb	r1, [r2]
1266:Generated_Source\PSoC5/myADC.c ****         myADC_DSM_CR14_REG    = myADC_CFG1_DSM_CR14;
 355              		.loc 1 1266 0
 356 0066 0132     		adds	r2, r2, #1
 357 0068 1670     		strb	r6, [r2]
1267:Generated_Source\PSoC5/myADC.c ****         myADC_DSM_CR15_REG    = myADC_CFG1_DSM_CR15;
 358              		.loc 1 1267 0
 359 006a 0232     		adds	r2, r2, #2
 360 006c 1570     		strb	r5, [r2]
1268:Generated_Source\PSoC5/myADC.c ****         myADC_DSM_CR16_REG    = myADC_CFG1_DSM_CR16;
 361              		.loc 1 1268 0
 362 006e 0132     		adds	r2, r2, #1
 363 0070 1570     		strb	r5, [r2]
1269:Generated_Source\PSoC5/myADC.c ****         myADC_DSM_CR17_REG    = myADC_CFG1_DSM_CR17;
 364              		.loc 1 1269 0
 365 0072 0132     		adds	r2, r2, #1
 366 0074 1370     		strb	r3, [r2]
1270:Generated_Source\PSoC5/myADC.c ****         /* Set DSM_REF0_REG by disabling and enabling the PRESS circuit */
 367              		.loc 1 1270 0
 368 0076 4322     		movs	r2, #67
 369 0078 A64B     		ldr	r3, .L30+12
 370 007a 1A70     		strb	r2, [r3]
1272:Generated_Source\PSoC5/myADC.c ****         myADC_DSM_REF2_REG    = myADC_CFG1_DSM_REF2;
 371              		.loc 1 1272 0
 372 007c 5220     		movs	r0, #82
 373              	.LVL40:
 374 007e FFF7FEFF 		bl	myADC_SetDSMRef0Reg
 375              	.LVL41:
1273:Generated_Source\PSoC5/myADC.c ****         myADC_DSM_REF3_REG    = myADC_CFG1_DSM_REF3;
 376              		.loc 1 1273 0
 377 0082 5822     		movs	r2, #88
 378 0084 A44B     		ldr	r3, .L30+16
 379 0086 1A70     		strb	r2, [r3]
1274:Generated_Source\PSoC5/myADC.c **** 
 380              		.loc 1 1274 0
 381 0088 0133     		adds	r3, r3, #1
 382 008a 1D70     		strb	r5, [r3]
1276:Generated_Source\PSoC5/myADC.c ****         myADC_DSM_BUF1_REG    = myADC_CFG1_DSM_BUF1;
 383              		.loc 1 1276 0
 384 008c 0522     		movs	r2, #5
 385 008e 0533     		adds	r3, r3, #5
 386 0090 1A70     		strb	r2, [r3]
1277:Generated_Source\PSoC5/myADC.c ****         myADC_DSM_BUF2_REG    = myADC_CFG1_DSM_BUF2;
 387              		.loc 1 1277 0
 388 0092 0222     		movs	r2, #2
 389 0094 0133     		adds	r3, r3, #1
 390 0096 1A70     		strb	r2, [r3]
1278:Generated_Source\PSoC5/myADC.c ****         myADC_DSM_BUF3_REG    = myADC_CFG1_DSM_BUF3;
 391              		.loc 1 1278 0
 392 0098 0133     		adds	r3, r3, #1
 393 009a 1D70     		strb	r5, [r3]
1279:Generated_Source\PSoC5/myADC.c **** 
 394              		.loc 1 1279 0
 395 009c 0133     		adds	r3, r3, #1
ARM GAS  C:\Users\kcdasilv\AppData\Local\Temp\ccqnavs7.s 			page 39


 396 009e 1D70     		strb	r5, [r3]
1288:Generated_Source\PSoC5/myADC.c ****             #endif /* myADC_IR_VSSA_TO_2VREF) */
 397              		.loc 1 1288 0
 398 00a0 2846     		mov	r0, r5
 399 00a2 FFF7FEFF 		bl	myADC_AMux_Select
 400              	.LVL42:
1300:Generated_Source\PSoC5/myADC.c **** 
 401              		.loc 1 1300 0
 402 00a6 43F23332 		movw	r2, #13107
 403 00aa 9C4B     		ldr	r3, .L30+20
 404 00ac 1A60     		str	r2, [r3]
1302:Generated_Source\PSoC5/myADC.c **** 
 405              		.loc 1 1302 0
 406 00ae 2D20     		movs	r0, #45
 407 00b0 3146     		mov	r1, r6
 408 00b2 FFF7FEFF 		bl	myADC_Ext_CP_Clk_SetDividerRegister
 409              	.LVL43:
1306:Generated_Source\PSoC5/myADC.c ****         #endif /* myADC_DEFAULT_INTERNAL_CLK */
 410              		.loc 1 1306 0
 411 00b6 BA20     		movs	r0, #186
 412 00b8 3146     		mov	r1, r6
 413 00ba FFF7FEFF 		bl	myADC_theACLK_SetDividerRegister
 414              	.LVL44:
1311:Generated_Source\PSoC5/myADC.c ****         #endif   /* End myADC_IRQ_REMOVE */
 415              		.loc 1 1311 0
 416 00be 1D20     		movs	r0, #29
 417 00c0 9749     		ldr	r1, .L30+24
 418 00c2 FFF7FEFF 		bl	CyIntSetVector
 419              	.LVL45:
 420              	.L25:
1316:Generated_Source\PSoC5/myADC.c ****         {
 421              		.loc 1 1316 0
 422 00c6 022C     		cmp	r4, #2
 423 00c8 5DD1     		bne	.L26
1319:Generated_Source\PSoC5/myADC.c ****             myADC_DEC_SHIFT1_REG  = myADC_CFG2_DEC_SHIFT1;
 424              		.loc 1 1319 0
 425 00ca 3822     		movs	r2, #56
 426 00cc 8F4B     		ldr	r3, .L30+4
 427 00ce 1A70     		strb	r2, [r3]
1320:Generated_Source\PSoC5/myADC.c ****             myADC_DEC_SHIFT2_REG  = myADC_CFG2_DEC_SHIFT2;
 428              		.loc 1 1320 0
 429 00d0 0422     		movs	r2, #4
 430 00d2 0233     		adds	r3, r3, #2
 431 00d4 1A70     		strb	r2, [r3]
1321:Generated_Source\PSoC5/myADC.c ****             myADC_DEC_DR2_REG     = myADC_CFG2_DEC_DR2;
 432              		.loc 1 1321 0
 433 00d6 0622     		movs	r2, #6
 434 00d8 0133     		adds	r3, r3, #1
 435 00da 1A70     		strb	r2, [r3]
1322:Generated_Source\PSoC5/myADC.c ****             myADC_DEC_DR2H_REG    = myADC_CFG2_DEC_DR2H;
 436              		.loc 1 1322 0
 437 00dc 0025     		movs	r5, #0
 438 00de 0133     		adds	r3, r3, #1
 439 00e0 1D70     		strb	r5, [r3]
1323:Generated_Source\PSoC5/myADC.c ****             myADC_DEC_DR1_REG     = myADC_CFG2_DEC_DR1;
 440              		.loc 1 1323 0
 441 00e2 0133     		adds	r3, r3, #1
ARM GAS  C:\Users\kcdasilv\AppData\Local\Temp\ccqnavs7.s 			page 40


 442 00e4 1D70     		strb	r5, [r3]
1324:Generated_Source\PSoC5/myADC.c ****             myADC_DEC_OCOR_REG    = myADC_CFG2_DEC_OCOR;
 443              		.loc 1 1324 0
 444 00e6 3F22     		movs	r2, #63
 445 00e8 0133     		adds	r3, r3, #1
 446 00ea 1A70     		strb	r2, [r3]
1325:Generated_Source\PSoC5/myADC.c ****             myADC_DEC_OCORM_REG   = myADC_CFG2_DEC_OCORM;
 447              		.loc 1 1325 0
 448 00ec 0233     		adds	r3, r3, #2
 449 00ee 1D70     		strb	r5, [r3]
1326:Generated_Source\PSoC5/myADC.c ****             myADC_DEC_OCORH_REG   = myADC_CFG2_DEC_OCORH;
 450              		.loc 1 1326 0
 451 00f0 0133     		adds	r3, r3, #1
 452 00f2 1D70     		strb	r5, [r3]
1327:Generated_Source\PSoC5/myADC.c ****             myADC_DEC_COHER_REG   = myADC_CFG2_DEC_COHER;
 453              		.loc 1 1327 0
 454 00f4 0133     		adds	r3, r3, #1
 455 00f6 1D70     		strb	r5, [r3]
1328:Generated_Source\PSoC5/myADC.c **** 
 456              		.loc 1 1328 0
 457 00f8 0126     		movs	r6, #1
 458 00fa 0A33     		adds	r3, r3, #10
 459 00fc 1E70     		strb	r6, [r3]
1330:Generated_Source\PSoC5/myADC.c ****             myADC_DSM_CR5_REG     = myADC_CFG2_DSM_CR5;
 460              		.loc 1 1330 0
 461 00fe 5022     		movs	r2, #80
 462 0100 03F52763 		add	r3, r3, #2672
 463 0104 1A70     		strb	r2, [r3]
1331:Generated_Source\PSoC5/myADC.c ****             myADC_DSM_CR6_REG     = myADC_CFG2_DSM_CR6;
 464              		.loc 1 1331 0
 465 0106 2722     		movs	r2, #39
 466 0108 0133     		adds	r3, r3, #1
 467 010a 1A70     		strb	r2, [r3]
1332:Generated_Source\PSoC5/myADC.c ****             myADC_DSM_CR7_REG     = myADC_CFG2_DSM_CR7;
 468              		.loc 1 1332 0
 469 010c 2C22     		movs	r2, #44
 470 010e 0133     		adds	r3, r3, #1
 471 0110 1A70     		strb	r2, [r3]
1333:Generated_Source\PSoC5/myADC.c ****             myADC_DSM_CR10_REG    = myADC_CFG2_DSM_CR10;
 472              		.loc 1 1333 0
 473 0112 0133     		adds	r3, r3, #1
 474 0114 1D70     		strb	r5, [r3]
1334:Generated_Source\PSoC5/myADC.c ****             myADC_DSM_CR11_REG    = myADC_CFG2_DSM_CR11;
 475              		.loc 1 1334 0
 476 0116 5522     		movs	r2, #85
 477 0118 0333     		adds	r3, r3, #3
 478 011a 1A70     		strb	r2, [r3]
1335:Generated_Source\PSoC5/myADC.c ****             myADC_DSM_CR12_REG    = myADC_CFG2_DSM_CR12;
 479              		.loc 1 1335 0
 480 011c 5A22     		movs	r2, #90
 481 011e 0133     		adds	r3, r3, #1
 482 0120 1A70     		strb	r2, [r3]
1336:Generated_Source\PSoC5/myADC.c ****             myADC_DSM_CR14_REG    = myADC_CFG2_DSM_CR14;
 483              		.loc 1 1336 0
 484 0122 0527     		movs	r7, #5
 485 0124 0133     		adds	r3, r3, #1
 486 0126 1F70     		strb	r7, [r3]
ARM GAS  C:\Users\kcdasilv\AppData\Local\Temp\ccqnavs7.s 			page 41


1337:Generated_Source\PSoC5/myADC.c ****             myADC_DSM_CR15_REG    = myADC_CFG2_DSM_CR15;
 487              		.loc 1 1337 0
 488 0128 0233     		adds	r3, r3, #2
 489 012a 1E70     		strb	r6, [r3]
1338:Generated_Source\PSoC5/myADC.c ****             myADC_DSM_CR16_REG    = myADC_CFG2_DSM_CR16;
 490              		.loc 1 1338 0
 491 012c 1122     		movs	r2, #17
 492 012e 0133     		adds	r3, r3, #1
 493 0130 1A70     		strb	r2, [r3]
1339:Generated_Source\PSoC5/myADC.c ****             myADC_DSM_CR17_REG    = myADC_CFG2_DSM_CR17;
 494              		.loc 1 1339 0
 495 0132 1922     		movs	r2, #25
 496 0134 0133     		adds	r3, r3, #1
 497 0136 1A70     		strb	r2, [r3]
1340:Generated_Source\PSoC5/myADC.c ****             /* Set DSM_REF0_REG by disabling and enabling the PRESS cirucit */
 498              		.loc 1 1340 0
 499 0138 9722     		movs	r2, #151
 500 013a 0133     		adds	r3, r3, #1
 501 013c 1A70     		strb	r2, [r3]
1342:Generated_Source\PSoC5/myADC.c ****             myADC_DSM_REF2_REG    = myADC_CFG2_DSM_REF2;
 502              		.loc 1 1342 0
 503 013e 4420     		movs	r0, #68
 504 0140 FFF7FEFF 		bl	myADC_SetDSMRef0Reg
 505              	.LVL46:
1343:Generated_Source\PSoC5/myADC.c ****             myADC_DSM_REF3_REG    = myADC_CFG2_DSM_REF3;
 506              		.loc 1 1343 0
 507 0144 5822     		movs	r2, #88
 508 0146 744B     		ldr	r3, .L30+16
 509 0148 1A70     		strb	r2, [r3]
1344:Generated_Source\PSoC5/myADC.c **** 
 510              		.loc 1 1344 0
 511 014a 0133     		adds	r3, r3, #1
 512 014c 1D70     		strb	r5, [r3]
1346:Generated_Source\PSoC5/myADC.c ****             myADC_DSM_BUF1_REG    = myADC_CFG2_DSM_BUF1;
 513              		.loc 1 1346 0
 514 014e 0533     		adds	r3, r3, #5
 515 0150 1F70     		strb	r7, [r3]
1347:Generated_Source\PSoC5/myADC.c ****             myADC_DSM_BUF2_REG    = myADC_CFG2_DSM_BUF2;
 516              		.loc 1 1347 0
 517 0152 0222     		movs	r2, #2
 518 0154 0133     		adds	r3, r3, #1
 519 0156 1A70     		strb	r2, [r3]
1348:Generated_Source\PSoC5/myADC.c ****             myADC_DSM_BUF3_REG    = myADC_CFG2_DSM_BUF3;
 520              		.loc 1 1348 0
 521 0158 0133     		adds	r3, r3, #1
 522 015a 1D70     		strb	r5, [r3]
1349:Generated_Source\PSoC5/myADC.c **** 
 523              		.loc 1 1349 0
 524 015c 0133     		adds	r3, r3, #1
 525 015e 1D70     		strb	r5, [r3]
1359:Generated_Source\PSoC5/myADC.c ****                 #endif /* myADC_IR_VSSA_TO_2VREF) */
 526              		.loc 1 1359 0
 527 0160 2846     		mov	r0, r5
 528 0162 FFF7FEFF 		bl	myADC_AMux_Select
 529              	.LVL47:
1371:Generated_Source\PSoC5/myADC.c **** 
 530              		.loc 1 1371 0
ARM GAS  C:\Users\kcdasilv\AppData\Local\Temp\ccqnavs7.s 			page 42


 531 0166 4FF47A42 		mov	r2, #64000
 532 016a 6C4B     		ldr	r3, .L30+20
 533 016c 1A60     		str	r2, [r3]
1373:Generated_Source\PSoC5/myADC.c **** 
 534              		.loc 1 1373 0
 535 016e 0820     		movs	r0, #8
 536 0170 3146     		mov	r1, r6
 537 0172 FFF7FEFF 		bl	myADC_Ext_CP_Clk_SetDividerRegister
 538              	.LVL48:
1377:Generated_Source\PSoC5/myADC.c ****             #endif /* myADC_DEFAULT_INTERNAL_CLK */
 539              		.loc 1 1377 0
 540 0176 2520     		movs	r0, #37
 541 0178 3146     		mov	r1, r6
 542 017a FFF7FEFF 		bl	myADC_theACLK_SetDividerRegister
 543              	.LVL49:
1382:Generated_Source\PSoC5/myADC.c ****             #endif   /* End myADC_IRQ_REMOVE */
 544              		.loc 1 1382 0
 545 017e 1D20     		movs	r0, #29
 546 0180 6849     		ldr	r1, .L30+28
 547 0182 FFF7FEFF 		bl	CyIntSetVector
 548              	.LVL50:
 549              	.L26:
1388:Generated_Source\PSoC5/myADC.c ****         {
 550              		.loc 1 1388 0
 551 0186 032C     		cmp	r4, #3
 552 0188 5DD1     		bne	.L27
1391:Generated_Source\PSoC5/myADC.c ****             myADC_DEC_SHIFT1_REG  = myADC_CFG3_DEC_SHIFT1;
 553              		.loc 1 1391 0
 554 018a 3822     		movs	r2, #56
 555 018c 5F4B     		ldr	r3, .L30+4
 556 018e 1A70     		strb	r2, [r3]
1392:Generated_Source\PSoC5/myADC.c ****             myADC_DEC_SHIFT2_REG  = myADC_CFG3_DEC_SHIFT2;
 557              		.loc 1 1392 0
 558 0190 0422     		movs	r2, #4
 559 0192 0233     		adds	r3, r3, #2
 560 0194 1A70     		strb	r2, [r3]
1393:Generated_Source\PSoC5/myADC.c ****             myADC_DEC_DR2_REG     = myADC_CFG3_DEC_DR2;
 561              		.loc 1 1393 0
 562 0196 0622     		movs	r2, #6
 563 0198 0133     		adds	r3, r3, #1
 564 019a 1A70     		strb	r2, [r3]
1394:Generated_Source\PSoC5/myADC.c ****             myADC_DEC_DR2H_REG    = myADC_CFG3_DEC_DR2H;
 565              		.loc 1 1394 0
 566 019c 0025     		movs	r5, #0
 567 019e 0133     		adds	r3, r3, #1
 568 01a0 1D70     		strb	r5, [r3]
1395:Generated_Source\PSoC5/myADC.c ****             myADC_DEC_DR1_REG     = myADC_CFG3_DEC_DR1;
 569              		.loc 1 1395 0
 570 01a2 0133     		adds	r3, r3, #1
 571 01a4 1D70     		strb	r5, [r3]
1396:Generated_Source\PSoC5/myADC.c ****             myADC_DEC_OCOR_REG    = myADC_CFG3_DEC_OCOR;
 572              		.loc 1 1396 0
 573 01a6 3F22     		movs	r2, #63
 574 01a8 0133     		adds	r3, r3, #1
 575 01aa 1A70     		strb	r2, [r3]
1397:Generated_Source\PSoC5/myADC.c ****             myADC_DEC_OCORM_REG   = myADC_CFG3_DEC_OCORM;
 576              		.loc 1 1397 0
ARM GAS  C:\Users\kcdasilv\AppData\Local\Temp\ccqnavs7.s 			page 43


 577 01ac 0233     		adds	r3, r3, #2
 578 01ae 1D70     		strb	r5, [r3]
1398:Generated_Source\PSoC5/myADC.c ****             myADC_DEC_OCORH_REG   = myADC_CFG3_DEC_OCORH;
 579              		.loc 1 1398 0
 580 01b0 0133     		adds	r3, r3, #1
 581 01b2 1D70     		strb	r5, [r3]
1399:Generated_Source\PSoC5/myADC.c ****             myADC_DEC_COHER_REG   = myADC_CFG3_DEC_COHER;
 582              		.loc 1 1399 0
 583 01b4 0133     		adds	r3, r3, #1
 584 01b6 1D70     		strb	r5, [r3]
1400:Generated_Source\PSoC5/myADC.c **** 
 585              		.loc 1 1400 0
 586 01b8 0126     		movs	r6, #1
 587 01ba 0A33     		adds	r3, r3, #10
 588 01bc 1E70     		strb	r6, [r3]
1402:Generated_Source\PSoC5/myADC.c ****             myADC_DSM_CR5_REG     = myADC_CFG3_DSM_CR5;
 589              		.loc 1 1402 0
 590 01be 5022     		movs	r2, #80
 591 01c0 03F52763 		add	r3, r3, #2672
 592 01c4 1A70     		strb	r2, [r3]
1403:Generated_Source\PSoC5/myADC.c ****             myADC_DSM_CR6_REG     = myADC_CFG3_DSM_CR6;
 593              		.loc 1 1403 0
 594 01c6 2722     		movs	r2, #39
 595 01c8 0133     		adds	r3, r3, #1
 596 01ca 1A70     		strb	r2, [r3]
1404:Generated_Source\PSoC5/myADC.c ****             myADC_DSM_CR7_REG     = myADC_CFG3_DSM_CR7;
 597              		.loc 1 1404 0
 598 01cc 2C22     		movs	r2, #44
 599 01ce 0133     		adds	r3, r3, #1
 600 01d0 1A70     		strb	r2, [r3]
1405:Generated_Source\PSoC5/myADC.c ****             myADC_DSM_CR10_REG    = myADC_CFG3_DSM_CR10;
 601              		.loc 1 1405 0
 602 01d2 0133     		adds	r3, r3, #1
 603 01d4 1D70     		strb	r5, [r3]
1406:Generated_Source\PSoC5/myADC.c ****             myADC_DSM_CR11_REG    = myADC_CFG3_DSM_CR11;
 604              		.loc 1 1406 0
 605 01d6 5522     		movs	r2, #85
 606 01d8 0333     		adds	r3, r3, #3
 607 01da 1A70     		strb	r2, [r3]
1407:Generated_Source\PSoC5/myADC.c ****             myADC_DSM_CR12_REG    = myADC_CFG3_DSM_CR12;
 608              		.loc 1 1407 0
 609 01dc 5A22     		movs	r2, #90
 610 01de 0133     		adds	r3, r3, #1
 611 01e0 1A70     		strb	r2, [r3]
1408:Generated_Source\PSoC5/myADC.c ****             myADC_DSM_CR14_REG    = myADC_CFG3_DSM_CR14;
 612              		.loc 1 1408 0
 613 01e2 0527     		movs	r7, #5
 614 01e4 0133     		adds	r3, r3, #1
 615 01e6 1F70     		strb	r7, [r3]
1409:Generated_Source\PSoC5/myADC.c ****             myADC_DSM_CR15_REG    = myADC_CFG3_DSM_CR15;
 616              		.loc 1 1409 0
 617 01e8 0233     		adds	r3, r3, #2
 618 01ea 1E70     		strb	r6, [r3]
1410:Generated_Source\PSoC5/myADC.c ****             myADC_DSM_CR16_REG    = myADC_CFG3_DSM_CR16;
 619              		.loc 1 1410 0
 620 01ec 1122     		movs	r2, #17
 621 01ee 0133     		adds	r3, r3, #1
ARM GAS  C:\Users\kcdasilv\AppData\Local\Temp\ccqnavs7.s 			page 44


 622 01f0 1A70     		strb	r2, [r3]
1411:Generated_Source\PSoC5/myADC.c ****             myADC_DSM_CR17_REG    = myADC_CFG3_DSM_CR17;
 623              		.loc 1 1411 0
 624 01f2 1922     		movs	r2, #25
 625 01f4 0133     		adds	r3, r3, #1
 626 01f6 1A70     		strb	r2, [r3]
1412:Generated_Source\PSoC5/myADC.c ****             /* Set DSM_REF0_REG by disabling and enabling the PRESS circuit */
 627              		.loc 1 1412 0
 628 01f8 9722     		movs	r2, #151
 629 01fa 0133     		adds	r3, r3, #1
 630 01fc 1A70     		strb	r2, [r3]
1414:Generated_Source\PSoC5/myADC.c ****             myADC_DSM_REF2_REG    = myADC_CFG3_DSM_REF2;
 631              		.loc 1 1414 0
 632 01fe 4420     		movs	r0, #68
 633 0200 FFF7FEFF 		bl	myADC_SetDSMRef0Reg
 634              	.LVL51:
1415:Generated_Source\PSoC5/myADC.c ****             myADC_DSM_REF3_REG    = myADC_CFG3_DSM_REF3;
 635              		.loc 1 1415 0
 636 0204 5822     		movs	r2, #88
 637 0206 444B     		ldr	r3, .L30+16
 638 0208 1A70     		strb	r2, [r3]
1416:Generated_Source\PSoC5/myADC.c **** 
 639              		.loc 1 1416 0
 640 020a 0133     		adds	r3, r3, #1
 641 020c 1D70     		strb	r5, [r3]
1418:Generated_Source\PSoC5/myADC.c ****             myADC_DSM_BUF1_REG    = myADC_CFG3_DSM_BUF1;
 642              		.loc 1 1418 0
 643 020e 0533     		adds	r3, r3, #5
 644 0210 1F70     		strb	r7, [r3]
1419:Generated_Source\PSoC5/myADC.c ****             myADC_DSM_BUF2_REG    = myADC_CFG3_DSM_BUF2;
 645              		.loc 1 1419 0
 646 0212 0222     		movs	r2, #2
 647 0214 0133     		adds	r3, r3, #1
 648 0216 1A70     		strb	r2, [r3]
1420:Generated_Source\PSoC5/myADC.c ****             myADC_DSM_BUF3_REG    = myADC_CFG3_DSM_BUF3;
 649              		.loc 1 1420 0
 650 0218 0133     		adds	r3, r3, #1
 651 021a 1D70     		strb	r5, [r3]
1421:Generated_Source\PSoC5/myADC.c **** 
 652              		.loc 1 1421 0
 653 021c 0133     		adds	r3, r3, #1
 654 021e 1D70     		strb	r5, [r3]
1430:Generated_Source\PSoC5/myADC.c ****                 #endif /* myADC_IR_VSSA_TO_2VREF) */
 655              		.loc 1 1430 0
 656 0220 2846     		mov	r0, r5
 657 0222 FFF7FEFF 		bl	myADC_AMux_Select
 658              	.LVL52:
1441:Generated_Source\PSoC5/myADC.c **** 
 659              		.loc 1 1441 0
 660 0226 4FF47A42 		mov	r2, #64000
 661 022a 3C4B     		ldr	r3, .L30+20
 662 022c 1A60     		str	r2, [r3]
1443:Generated_Source\PSoC5/myADC.c **** 
 663              		.loc 1 1443 0
 664 022e 0820     		movs	r0, #8
 665 0230 3146     		mov	r1, r6
 666 0232 FFF7FEFF 		bl	myADC_Ext_CP_Clk_SetDividerRegister
ARM GAS  C:\Users\kcdasilv\AppData\Local\Temp\ccqnavs7.s 			page 45


 667              	.LVL53:
1447:Generated_Source\PSoC5/myADC.c ****             #endif /* myADC_DEFAULT_INTERNAL_CLK */
 668              		.loc 1 1447 0
 669 0236 2520     		movs	r0, #37
 670 0238 3146     		mov	r1, r6
 671 023a FFF7FEFF 		bl	myADC_theACLK_SetDividerRegister
 672              	.LVL54:
1452:Generated_Source\PSoC5/myADC.c ****             #endif   /* End myADC_IRQ_REMOVE */
 673              		.loc 1 1452 0
 674 023e 1D20     		movs	r0, #29
 675 0240 3949     		ldr	r1, .L30+32
 676 0242 FFF7FEFF 		bl	CyIntSetVector
 677              	.LVL55:
 678              	.L27:
1458:Generated_Source\PSoC5/myADC.c ****         {
 679              		.loc 1 1458 0
 680 0246 042C     		cmp	r4, #4
 681 0248 5DD1     		bne	.L24
1461:Generated_Source\PSoC5/myADC.c ****             myADC_DEC_SHIFT1_REG  = myADC_CFG4_DEC_SHIFT1;
 682              		.loc 1 1461 0
 683 024a 3822     		movs	r2, #56
 684 024c 2F4B     		ldr	r3, .L30+4
 685 024e 1A70     		strb	r2, [r3]
1462:Generated_Source\PSoC5/myADC.c ****             myADC_DEC_SHIFT2_REG  = myADC_CFG4_DEC_SHIFT2;
 686              		.loc 1 1462 0
 687 0250 0422     		movs	r2, #4
 688 0252 0233     		adds	r3, r3, #2
 689 0254 1A70     		strb	r2, [r3]
1463:Generated_Source\PSoC5/myADC.c ****             myADC_DEC_DR2_REG     = myADC_CFG4_DEC_DR2;
 690              		.loc 1 1463 0
 691 0256 0622     		movs	r2, #6
 692 0258 0133     		adds	r3, r3, #1
 693 025a 1A70     		strb	r2, [r3]
1464:Generated_Source\PSoC5/myADC.c ****             myADC_DEC_DR2H_REG    = myADC_CFG4_DEC_DR2H;
 694              		.loc 1 1464 0
 695 025c 0024     		movs	r4, #0
 696 025e 0133     		adds	r3, r3, #1
 697 0260 1C70     		strb	r4, [r3]
1465:Generated_Source\PSoC5/myADC.c ****             myADC_DEC_DR1_REG     = myADC_CFG4_DEC_DR1;
 698              		.loc 1 1465 0
 699 0262 0133     		adds	r3, r3, #1
 700 0264 1C70     		strb	r4, [r3]
1466:Generated_Source\PSoC5/myADC.c ****             myADC_DEC_OCOR_REG    = myADC_CFG4_DEC_OCOR;
 701              		.loc 1 1466 0
 702 0266 3F22     		movs	r2, #63
 703 0268 0133     		adds	r3, r3, #1
 704 026a 1A70     		strb	r2, [r3]
1467:Generated_Source\PSoC5/myADC.c ****             myADC_DEC_OCORM_REG   = myADC_CFG4_DEC_OCORM;
 705              		.loc 1 1467 0
 706 026c 0233     		adds	r3, r3, #2
 707 026e 1C70     		strb	r4, [r3]
1468:Generated_Source\PSoC5/myADC.c ****             myADC_DEC_OCORH_REG   = myADC_CFG4_DEC_OCORH;
 708              		.loc 1 1468 0
 709 0270 0133     		adds	r3, r3, #1
 710 0272 1C70     		strb	r4, [r3]
1469:Generated_Source\PSoC5/myADC.c ****             myADC_DEC_COHER_REG   = myADC_CFG4_DEC_COHER;
 711              		.loc 1 1469 0
ARM GAS  C:\Users\kcdasilv\AppData\Local\Temp\ccqnavs7.s 			page 46


 712 0274 0133     		adds	r3, r3, #1
 713 0276 1C70     		strb	r4, [r3]
1470:Generated_Source\PSoC5/myADC.c **** 
 714              		.loc 1 1470 0
 715 0278 0125     		movs	r5, #1
 716 027a 0A33     		adds	r3, r3, #10
 717 027c 1D70     		strb	r5, [r3]
1472:Generated_Source\PSoC5/myADC.c ****             myADC_DSM_CR5_REG     = myADC_CFG4_DSM_CR5;
 718              		.loc 1 1472 0
 719 027e 5022     		movs	r2, #80
 720 0280 03F52763 		add	r3, r3, #2672
 721 0284 1A70     		strb	r2, [r3]
1473:Generated_Source\PSoC5/myADC.c ****             myADC_DSM_CR6_REG     = myADC_CFG4_DSM_CR6;
 722              		.loc 1 1473 0
 723 0286 2722     		movs	r2, #39
 724 0288 0133     		adds	r3, r3, #1
 725 028a 1A70     		strb	r2, [r3]
1474:Generated_Source\PSoC5/myADC.c ****             myADC_DSM_CR7_REG     = myADC_CFG4_DSM_CR7;
 726              		.loc 1 1474 0
 727 028c 2C22     		movs	r2, #44
 728 028e 0133     		adds	r3, r3, #1
 729 0290 1A70     		strb	r2, [r3]
1475:Generated_Source\PSoC5/myADC.c ****             myADC_DSM_CR10_REG    = myADC_CFG4_DSM_CR10;
 730              		.loc 1 1475 0
 731 0292 0133     		adds	r3, r3, #1
 732 0294 1C70     		strb	r4, [r3]
1476:Generated_Source\PSoC5/myADC.c ****             myADC_DSM_CR11_REG    = myADC_CFG4_DSM_CR11;
 733              		.loc 1 1476 0
 734 0296 5522     		movs	r2, #85
 735 0298 0333     		adds	r3, r3, #3
 736 029a 1A70     		strb	r2, [r3]
1477:Generated_Source\PSoC5/myADC.c ****             myADC_DSM_CR12_REG    = myADC_CFG4_DSM_CR12;
 737              		.loc 1 1477 0
 738 029c 5A22     		movs	r2, #90
 739 029e 0133     		adds	r3, r3, #1
 740 02a0 1A70     		strb	r2, [r3]
1478:Generated_Source\PSoC5/myADC.c ****             myADC_DSM_CR14_REG    = myADC_CFG4_DSM_CR14;
 741              		.loc 1 1478 0
 742 02a2 0526     		movs	r6, #5
 743 02a4 0133     		adds	r3, r3, #1
 744 02a6 1E70     		strb	r6, [r3]
1479:Generated_Source\PSoC5/myADC.c ****             myADC_DSM_CR15_REG    = myADC_CFG4_DSM_CR15;
 745              		.loc 1 1479 0
 746 02a8 0233     		adds	r3, r3, #2
 747 02aa 1D70     		strb	r5, [r3]
1480:Generated_Source\PSoC5/myADC.c ****             myADC_DSM_CR16_REG    = myADC_CFG4_DSM_CR16;
 748              		.loc 1 1480 0
 749 02ac 1122     		movs	r2, #17
 750 02ae 0133     		adds	r3, r3, #1
 751 02b0 1A70     		strb	r2, [r3]
1481:Generated_Source\PSoC5/myADC.c ****             myADC_DSM_CR17_REG    = myADC_CFG4_DSM_CR17;
 752              		.loc 1 1481 0
 753 02b2 1922     		movs	r2, #25
 754 02b4 0133     		adds	r3, r3, #1
 755 02b6 1A70     		strb	r2, [r3]
1482:Generated_Source\PSoC5/myADC.c ****             /* Set DSM_REF0_REG by disabling and enabling the PRESS circuit */
 756              		.loc 1 1482 0
ARM GAS  C:\Users\kcdasilv\AppData\Local\Temp\ccqnavs7.s 			page 47


 757 02b8 9722     		movs	r2, #151
 758 02ba 0133     		adds	r3, r3, #1
 759 02bc 1A70     		strb	r2, [r3]
1484:Generated_Source\PSoC5/myADC.c ****             myADC_DSM_REF2_REG    = myADC_CFG4_DSM_REF2;
 760              		.loc 1 1484 0
 761 02be 4420     		movs	r0, #68
 762 02c0 FFF7FEFF 		bl	myADC_SetDSMRef0Reg
 763              	.LVL56:
1485:Generated_Source\PSoC5/myADC.c ****             myADC_DSM_REF3_REG    = myADC_CFG4_DSM_REF3;
 764              		.loc 1 1485 0
 765 02c4 5822     		movs	r2, #88
 766 02c6 144B     		ldr	r3, .L30+16
 767 02c8 1A70     		strb	r2, [r3]
1486:Generated_Source\PSoC5/myADC.c **** 
 768              		.loc 1 1486 0
 769 02ca 0133     		adds	r3, r3, #1
 770 02cc 1C70     		strb	r4, [r3]
1488:Generated_Source\PSoC5/myADC.c ****             myADC_DSM_BUF1_REG    = myADC_CFG4_DSM_BUF1;
 771              		.loc 1 1488 0
 772 02ce 0533     		adds	r3, r3, #5
 773 02d0 1E70     		strb	r6, [r3]
1489:Generated_Source\PSoC5/myADC.c ****             myADC_DSM_BUF2_REG    = myADC_CFG4_DSM_BUF2;
 774              		.loc 1 1489 0
 775 02d2 0222     		movs	r2, #2
 776 02d4 0133     		adds	r3, r3, #1
 777 02d6 1A70     		strb	r2, [r3]
1490:Generated_Source\PSoC5/myADC.c ****             myADC_DSM_BUF3_REG    = myADC_CFG4_DSM_BUF3;
 778              		.loc 1 1490 0
 779 02d8 0133     		adds	r3, r3, #1
 780 02da 1C70     		strb	r4, [r3]
1491:Generated_Source\PSoC5/myADC.c **** 
 781              		.loc 1 1491 0
 782 02dc 0133     		adds	r3, r3, #1
 783 02de 1C70     		strb	r4, [r3]
1500:Generated_Source\PSoC5/myADC.c ****                 #endif /* myADC_IR_VSSA_TO_2VREF) */
 784              		.loc 1 1500 0
 785 02e0 2046     		mov	r0, r4
 786 02e2 FFF7FEFF 		bl	myADC_AMux_Select
 787              	.LVL57:
1511:Generated_Source\PSoC5/myADC.c **** 
 788              		.loc 1 1511 0
 789 02e6 4FF47A42 		mov	r2, #64000
 790 02ea 0C4B     		ldr	r3, .L30+20
 791 02ec 1A60     		str	r2, [r3]
1513:Generated_Source\PSoC5/myADC.c **** 
 792              		.loc 1 1513 0
 793 02ee 0820     		movs	r0, #8
 794 02f0 2946     		mov	r1, r5
 795 02f2 FFF7FEFF 		bl	myADC_Ext_CP_Clk_SetDividerRegister
 796              	.LVL58:
1517:Generated_Source\PSoC5/myADC.c ****             #endif /* myADC_DEFAULT_INTERNAL_CLK */
 797              		.loc 1 1517 0
 798 02f6 2520     		movs	r0, #37
 799 02f8 2946     		mov	r1, r5
 800 02fa FFF7FEFF 		bl	myADC_theACLK_SetDividerRegister
 801              	.LVL59:
1522:Generated_Source\PSoC5/myADC.c ****             #endif   /* End myADC_IRQ_REMOVE */
ARM GAS  C:\Users\kcdasilv\AppData\Local\Temp\ccqnavs7.s 			page 48


 802              		.loc 1 1522 0
 803 02fe 1D20     		movs	r0, #29
 804 0300 0A49     		ldr	r1, .L30+36
 805 0302 FFF7FEFF 		bl	CyIntSetVector
 806              	.LVL60:
 807              	.L24:
 808 0306 F8BD     		pop	{r3, r4, r5, r6, r7, pc}
 809              	.L31:
 810              		.align	2
 811              	.L30:
 812 0308 00000000 		.word	.LANCHOR0
 813 030c 004E0040 		.word	1073761792
 814 0310 85580040 		.word	1073764485
 815 0314 91580040 		.word	1073764497
 816 0318 94580040 		.word	1073764500
 817 031c 00000000 		.word	myADC_CountsPerVolt
 818 0320 00000000 		.word	myADC_ISR1
 819 0324 00000000 		.word	myADC_ISR2
 820 0328 00000000 		.word	myADC_ISR3
 821 032c 00000000 		.word	myADC_ISR4
 822              		.cfi_endproc
 823              	.LFE19:
 824              		.size	myADC_InitConfig, .-myADC_InitConfig
 825              		.section	.text.myADC_Init,"ax",%progbits
 826              		.align	2
 827              		.global	myADC_Init
 828              		.thumb
 829              		.thumb_func
 830              		.type	myADC_Init, %function
 831              	myADC_Init:
 832              	.LFB0:
  92:Generated_Source\PSoC5/myADC.c **** 
 833              		.loc 1 92 0
 834              		.cfi_startproc
 835              		@ args = 0, pretend = 0, frame = 0
 836              		@ frame_needed = 0, uses_anonymous_args = 0
 837 0000 2DE9F041 		push	{r4, r5, r6, r7, r8, lr}
 838              		.cfi_def_cfa_offset 24
 839              		.cfi_offset 4, -24
 840              		.cfi_offset 5, -20
 841              		.cfi_offset 6, -16
 842              		.cfi_offset 7, -12
 843              		.cfi_offset 8, -8
 844              		.cfi_offset 14, -4
 845 0004 82B0     		sub	sp, sp, #8
 846              		.cfi_def_cfa_offset 32
  94:Generated_Source\PSoC5/myADC.c ****     myADC_convDone = 0u;
 847              		.loc 1 94 0
 848 0006 394D     		ldr	r5, .L34
 849 0008 4FF00108 		mov	r8, #1
 850 000c 85F80080 		strb	r8, [r5]
  95:Generated_Source\PSoC5/myADC.c **** 
 851              		.loc 1 95 0
 852 0010 374E     		ldr	r6, .L34+4
 853 0012 0024     		movs	r4, #0
 854 0014 7474     		strb	r4, [r6, #17]
  97:Generated_Source\PSoC5/myADC.c **** 
ARM GAS  C:\Users\kcdasilv\AppData\Local\Temp\ccqnavs7.s 			page 49


 855              		.loc 1 97 0
 856 0016 1020     		movs	r0, #16
 857 0018 FFF7FEFF 		bl	myADC_Ext_CP_Clk_SetModeRegister
 858              	.LVL61:
 101:Generated_Source\PSoC5/myADC.c ****     #endif /* myADC_DEFAULT_INTERNAL_CLK */
 859              		.loc 1 101 0
 860 001c 1020     		movs	r0, #16
 861 001e FFF7FEFF 		bl	myADC_theACLK_SetModeRegister
 862              	.LVL62:
 106:Generated_Source\PSoC5/myADC.c ****     #endif   /* End myADC_IRQ_REMOVE */
 863              		.loc 1 106 0
 864 0022 1D20     		movs	r0, #29
 865 0024 0721     		movs	r1, #7
 866 0026 FFF7FEFF 		bl	CyIntSetPriority
 867              	.LVL63:
 110:Generated_Source\PSoC5/myADC.c ****     myADC_DSM_DEM1_REG    = myADC_CFG1_DSM_DEM1;
 868              		.loc 1 110 0
 869 002a 0427     		movs	r7, #4
 870 002c 314B     		ldr	r3, .L34+8
 871 002e 1F70     		strb	r7, [r3]
 111:Generated_Source\PSoC5/myADC.c ****     myADC_DSM_MISC_REG    = myADC_CFG1_DSM_MISC;
 872              		.loc 1 111 0
 873 0030 0133     		adds	r3, r3, #1
 874 0032 1C70     		strb	r4, [r3]
 112:Generated_Source\PSoC5/myADC.c ****     myADC_DSM_CLK_REG    |= myADC_CFG1_DSM_CLK;
 875              		.loc 1 112 0
 876 0034 0733     		adds	r3, r3, #7
 877 0036 1C70     		strb	r4, [r3]
 113:Generated_Source\PSoC5/myADC.c ****     myADC_DSM_REF1_REG    = myADC_CFG1_DSM_REF1;
 878              		.loc 1 113 0
 879 0038 2F4A     		ldr	r2, .L34+12
 880 003a 1378     		ldrb	r3, [r2]	@ zero_extendqisi2
 881 003c 43F01803 		orr	r3, r3, #24
 882 0040 1370     		strb	r3, [r2]
 114:Generated_Source\PSoC5/myADC.c **** 
 883              		.loc 1 114 0
 884 0042 2E4B     		ldr	r3, .L34+16
 885 0044 1C70     		strb	r4, [r3]
 116:Generated_Source\PSoC5/myADC.c ****     myADC_DSM_OUT1_REG    = myADC_CFG1_DSM_OUT1;
 886              		.loc 1 116 0
 887 0046 03F2F523 		addw	r3, r3, #757
 888 004a 1C70     		strb	r4, [r3]
 117:Generated_Source\PSoC5/myADC.c **** 
 889              		.loc 1 117 0
 890 004c 0133     		adds	r3, r3, #1
 891 004e 1C70     		strb	r4, [r3]
 119:Generated_Source\PSoC5/myADC.c ****     myADC_DSM_CR1_REG     = myADC_CFG1_DSM_CR1;
 892              		.loc 1 119 0
 893 0050 0A22     		movs	r2, #10
 894 0052 A3F20933 		subw	r3, r3, #777
 895 0056 1A70     		strb	r2, [r3]
 120:Generated_Source\PSoC5/myADC.c **** #if(myADC_MI_ENABLE != 0u) /* Enable Modulator Input */
 896              		.loc 1 120 0
 897 0058 0133     		adds	r3, r3, #1
 898 005a 1C70     		strb	r4, [r3]
 124:Generated_Source\PSoC5/myADC.c **** #endif /* myADC_MI_ENABLE != 0u*/    
 899              		.loc 1 124 0
ARM GAS  C:\Users\kcdasilv\AppData\Local\Temp\ccqnavs7.s 			page 50


 900 005c 0233     		adds	r3, r3, #2
 901 005e 1C70     		strb	r4, [r3]
 126:Generated_Source\PSoC5/myADC.c ****     myADC_DSM_CR9_REG     = myADC_CFG1_DSM_CR9;
 902              		.loc 1 126 0
 903 0060 5B22     		movs	r2, #91
 904 0062 0533     		adds	r3, r3, #5
 905 0064 1A70     		strb	r2, [r3]
 127:Generated_Source\PSoC5/myADC.c ****     myADC_DSM_CR13_REG    = myADC_CFG1_DSM_CR13;
 906              		.loc 1 127 0
 907 0066 5E22     		movs	r2, #94
 908 0068 0133     		adds	r3, r3, #1
 909 006a 1A70     		strb	r2, [r3]
 128:Generated_Source\PSoC5/myADC.c **** 
 910              		.loc 1 128 0
 911 006c 0433     		adds	r3, r3, #4
 912 006e 1C70     		strb	r4, [r3]
 130:Generated_Source\PSoC5/myADC.c **** 
 913              		.loc 1 130 0
 914 0070 1422     		movs	r2, #20
 915 0072 A3F68C23 		subw	r3, r3, #2700
 916 0076 1A70     		strb	r2, [r3]
 133:Generated_Source\PSoC5/myADC.c ****                                       myADC_CFG1_IDEAL_DEC_GAIN,
 917              		.loc 1 133 0
 918 0078 CDF80080 		str	r8, [sp]
 919 007c 0220     		movs	r0, #2
 920 007e 48F6F051 		movw	r1, #36336
 921 0082 4FF40042 		mov	r2, #32768
 922 0086 1023     		movs	r3, #16
 923 0088 FFF7FEFF 		bl	myADC_GainCompensation
 924              	.LVL64:
 139:Generated_Source\PSoC5/myADC.c ****                                           myADC_CFG2_IDEAL_DEC_GAIN,
 925              		.loc 1 139 0
 926 008c 0223     		movs	r3, #2
 927 008e 0093     		str	r3, [sp]
 928 0090 2046     		mov	r0, r4
 929 0092 49F2DA01 		movw	r1, #37082
 930 0096 4FF40042 		mov	r2, #32768
 931 009a 1023     		movs	r3, #16
 932 009c FFF7FEFF 		bl	myADC_GainCompensation
 933              	.LVL65:
 146:Generated_Source\PSoC5/myADC.c ****                                           myADC_CFG3_IDEAL_DEC_GAIN,
 934              		.loc 1 146 0
 935 00a0 0323     		movs	r3, #3
 936 00a2 0093     		str	r3, [sp]
 937 00a4 2046     		mov	r0, r4
 938 00a6 49F2DA01 		movw	r1, #37082
 939 00aa 4FF40042 		mov	r2, #32768
 940 00ae 1023     		movs	r3, #16
 941 00b0 FFF7FEFF 		bl	myADC_GainCompensation
 942              	.LVL66:
 153:Generated_Source\PSoC5/myADC.c ****                                           myADC_CFG4_IDEAL_DEC_GAIN,
 943              		.loc 1 153 0
 944 00b4 0097     		str	r7, [sp]
 945 00b6 2046     		mov	r0, r4
 946 00b8 49F2DA01 		movw	r1, #37082
 947 00bc 4FF40042 		mov	r2, #32768
 948 00c0 1023     		movs	r3, #16
ARM GAS  C:\Users\kcdasilv\AppData\Local\Temp\ccqnavs7.s 			page 51


 949 00c2 FFF7FEFF 		bl	myADC_GainCompensation
 950              	.LVL67:
 161:Generated_Source\PSoC5/myADC.c ****     CY_SET_REG16(myADC_DEC_GCOR_16B_PTR, myADC_gcor[myADC_Config - 1u].gcor);
 951              		.loc 1 161 0
 952 00c6 2B78     		ldrb	r3, [r5]	@ zero_extendqisi2
 953 00c8 06EB8303 		add	r3, r6, r3, lsl #2
 954 00cc 13F8022C 		ldrb	r2, [r3, #-2]	@ zero_extendqisi2
 955 00d0 0B4B     		ldr	r3, .L34+20
 956 00d2 1A70     		strb	r2, [r3]
 162:Generated_Source\PSoC5/myADC.c **** 
 957              		.loc 1 162 0
 958 00d4 2B78     		ldrb	r3, [r5]	@ zero_extendqisi2
 959 00d6 013B     		subs	r3, r3, #1
 960 00d8 36F82320 		ldrh	r2, [r6, r3, lsl #2]
 961 00dc 094B     		ldr	r3, .L34+24
 962 00de 1A80     		strh	r2, [r3]	@ movhi
 165:Generated_Source\PSoC5/myADC.c **** }
 963              		.loc 1 165 0
 964 00e0 2878     		ldrb	r0, [r5]	@ zero_extendqisi2
 965 00e2 FFF7FEFF 		bl	myADC_InitConfig
 966              	.LVL68:
 166:Generated_Source\PSoC5/myADC.c **** 
 967              		.loc 1 166 0
 968 00e6 02B0     		add	sp, sp, #8
 969              		.cfi_def_cfa_offset 24
 970              		@ sp needed
 971 00e8 BDE8F081 		pop	{r4, r5, r6, r7, r8, pc}
 972              	.L35:
 973              		.align	2
 974              	.L34:
 975 00ec 00000000 		.word	.LANCHOR1
 976 00f0 00000000 		.word	.LANCHOR0
 977 00f4 96580040 		.word	1073764502
 978 00f8 075B0040 		.word	1073765127
 979 00fc 93580040 		.word	1073764499
 980 0100 0E4E0040 		.word	1073761806
 981 0104 0C4E0040 		.word	1073761804
 982              		.cfi_endproc
 983              	.LFE0:
 984              		.size	myADC_Init, .-myADC_Init
 985              		.section	.text.myADC_Enable,"ax",%progbits
 986              		.align	2
 987              		.global	myADC_Enable
 988              		.thumb
 989              		.thumb_func
 990              		.type	myADC_Enable, %function
 991              	myADC_Enable:
 992              	.LFB1:
 185:Generated_Source\PSoC5/myADC.c **** 	uint8 config;
 993              		.loc 1 185 0
 994              		.cfi_startproc
 995              		@ args = 0, pretend = 0, frame = 0
 996              		@ frame_needed = 0, uses_anonymous_args = 0
 997 0000 70B5     		push	{r4, r5, r6, lr}
 998              		.cfi_def_cfa_offset 16
 999              		.cfi_offset 4, -16
 1000              		.cfi_offset 5, -12
ARM GAS  C:\Users\kcdasilv\AppData\Local\Temp\ccqnavs7.s 			page 52


 1001              		.cfi_offset 6, -8
 1002              		.cfi_offset 14, -4
 188:Generated_Source\PSoC5/myADC.c **** 
 1003              		.loc 1 188 0
 1004 0002 FFF7FEFF 		bl	CyEnterCriticalSection
 1005              	.LVL69:
 1006 0006 0646     		mov	r6, r0
 1007              	.LVL70:
 191:Generated_Source\PSoC5/myADC.c ****     
 1008              		.loc 1 191 0
 1009 0008 2A4B     		ldr	r3, .L38
 1010 000a 1B78     		ldrb	r3, [r3]	@ zero_extendqisi2
 1011              	.LVL71:
 194:Generated_Source\PSoC5/myADC.c ****     myADC_PWRMGR_DSM_REG |= myADC_ACT_PWR_DSM_EN;
 1012              		.loc 1 194 0
 1013 000c 2A4B     		ldr	r3, .L38+4
 1014 000e 1A78     		ldrb	r2, [r3]	@ zero_extendqisi2
 1015 0010 42F00102 		orr	r2, r2, #1
 1016 0014 1A70     		strb	r2, [r3]
 195:Generated_Source\PSoC5/myADC.c **** 
 1017              		.loc 1 195 0
 1018 0016 1A78     		ldrb	r2, [r3]	@ zero_extendqisi2
 1019 0018 42F01002 		orr	r2, r2, #16
 1020 001c 1A70     		strb	r2, [r3]
 198:Generated_Source\PSoC5/myADC.c ****     myADC_STBY_PWRMGR_DSM_REG |= myADC_STBY_PWR_DSM_EN;
 1021              		.loc 1 198 0
 1022 001e 1033     		adds	r3, r3, #16
 1023 0020 1A78     		ldrb	r2, [r3]	@ zero_extendqisi2
 1024 0022 42F00102 		orr	r2, r2, #1
 1025 0026 1A70     		strb	r2, [r3]
 199:Generated_Source\PSoC5/myADC.c **** 
 1026              		.loc 1 199 0
 1027 0028 1A78     		ldrb	r2, [r3]	@ zero_extendqisi2
 1028 002a 42F01002 		orr	r2, r2, #16
 1029 002e 1A70     		strb	r2, [r3]
 202:Generated_Source\PSoC5/myADC.c ****     myADC_RESET_CR5_REG |= myADC_IGNORE_PRESA2;
 1030              		.loc 1 202 0
 1031 0030 224D     		ldr	r5, .L38+8
 1032 0032 2B78     		ldrb	r3, [r5]	@ zero_extendqisi2
 1033 0034 43F00203 		orr	r3, r3, #2
 1034 0038 2B70     		strb	r3, [r5]
 203:Generated_Source\PSoC5/myADC.c **** 
 1035              		.loc 1 203 0
 1036 003a 214C     		ldr	r4, .L38+12
 1037 003c 2378     		ldrb	r3, [r4]	@ zero_extendqisi2
 1038 003e 43F00203 		orr	r3, r3, #2
 1039 0042 2370     		strb	r3, [r4]
 205:Generated_Source\PSoC5/myADC.c **** 
 1040              		.loc 1 205 0
 1041 0044 1F4A     		ldr	r2, .L38+16
 1042 0046 1378     		ldrb	r3, [r2]	@ zero_extendqisi2
 1043 0048 43F00303 		orr	r3, r3, #3
 1044 004c 1370     		strb	r3, [r2]
 271:Generated_Source\PSoC5/myADC.c **** 
 1045              		.loc 1 271 0
 1046 004e 0320     		movs	r0, #3
 1047 0050 FFF7FEFF 		bl	CyDelayUs
ARM GAS  C:\Users\kcdasilv\AppData\Local\Temp\ccqnavs7.s 			page 53


 1048              	.LVL72:
 274:Generated_Source\PSoC5/myADC.c ****     myADC_RESET_CR5_REG &= (uint8)~myADC_IGNORE_PRESA2;
 1049              		.loc 1 274 0
 1050 0054 2B78     		ldrb	r3, [r5]	@ zero_extendqisi2
 1051 0056 03F0FD03 		and	r3, r3, #253
 1052 005a 2B70     		strb	r3, [r5]
 275:Generated_Source\PSoC5/myADC.c **** 
 1053              		.loc 1 275 0
 1054 005c 2378     		ldrb	r3, [r4]	@ zero_extendqisi2
 1055 005e 03F0FD03 		and	r3, r3, #253
 1056 0062 2370     		strb	r3, [r4]
 278:Generated_Source\PSoC5/myADC.c **** 
 1057              		.loc 1 278 0
 1058 0064 184A     		ldr	r2, .L38+20
 1059 0066 1378     		ldrb	r3, [r2]	@ zero_extendqisi2
 1060 0068 43F00603 		orr	r3, r3, #6
 1061 006c 1370     		strb	r3, [r2]
 281:Generated_Source\PSoC5/myADC.c **** 
 1062              		.loc 1 281 0
 1063 006e 7A22     		movs	r2, #122
 1064 0070 164B     		ldr	r3, .L38+24
 1065 0072 1A70     		strb	r2, [r3]
 285:Generated_Source\PSoC5/myADC.c ****         myADC_STBY_PWRMGR_CLK_REG |= myADC_STBY_PWR_CLK_EN;
 1066              		.loc 1 285 0
 1067 0074 164A     		ldr	r2, .L38+28
 1068 0076 1378     		ldrb	r3, [r2]	@ zero_extendqisi2
 1069 0078 43F00103 		orr	r3, r3, #1
 1070 007c 1370     		strb	r3, [r2]
 286:Generated_Source\PSoC5/myADC.c ****     #endif /* myADC_DEFAULT_INTERNAL_CLK */
 1071              		.loc 1 286 0
 1072 007e 1032     		adds	r2, r2, #16
 1073 0080 1378     		ldrb	r3, [r2]	@ zero_extendqisi2
 1074 0082 43F00103 		orr	r3, r3, #1
 1075 0086 1370     		strb	r3, [r2]
 290:Generated_Source\PSoC5/myADC.c ****     myADC_STBY_PWRMGR_CHARGE_PUMP_CLK_REG |= myADC_STBY_PWR_CHARGE_PUMP_CLK_EN;
 1076              		.loc 1 290 0
 1077 0088 0F3A     		subs	r2, r2, #15
 1078 008a 1378     		ldrb	r3, [r2]	@ zero_extendqisi2
 1079 008c 43F00103 		orr	r3, r3, #1
 1080 0090 1370     		strb	r3, [r2]
 291:Generated_Source\PSoC5/myADC.c **** 
 1081              		.loc 1 291 0
 1082 0092 1032     		adds	r2, r2, #16
 1083 0094 1378     		ldrb	r3, [r2]	@ zero_extendqisi2
 1084 0096 43F00103 		orr	r3, r3, #1
 1085 009a 1370     		strb	r3, [r2]
 295:Generated_Source\PSoC5/myADC.c ****         /* Enable interrupt */
 1086              		.loc 1 295 0
 1087 009c 4FF00053 		mov	r3, #536870912
 1088 00a0 0C4A     		ldr	r2, .L38+32
 1089 00a2 1360     		str	r3, [r2]
 297:Generated_Source\PSoC5/myADC.c ****     #endif   /* End myADC_IRQ_REMOVE */
 1090              		.loc 1 297 0
 1091 00a4 A2F5C072 		sub	r2, r2, #384
 1092 00a8 1360     		str	r3, [r2]
 300:Generated_Source\PSoC5/myADC.c **** 
 1093              		.loc 1 300 0
ARM GAS  C:\Users\kcdasilv\AppData\Local\Temp\ccqnavs7.s 			page 54


 1094 00aa 3046     		mov	r0, r6
 1095 00ac FFF7FEFF 		bl	CyExitCriticalSection
 1096              	.LVL73:
 1097 00b0 70BD     		pop	{r4, r5, r6, pc}
 1098              	.LVL74:
 1099              	.L39:
 1100 00b2 00BF     		.align	2
 1101              	.L38:
 1102 00b4 00000000 		.word	.LANCHOR1
 1103 00b8 AA430040 		.word	1073759146
 1104 00bc F8460040 		.word	1073759992
 1105 00c0 F9460040 		.word	1073759993
 1106 00c4 91580040 		.word	1073764497
 1107 00c8 77580040 		.word	1073764471
 1108 00cc 82580040 		.word	1073764482
 1109 00d0 A1430040 		.word	1073759137
 1110 00d4 80E200E0 		.word	-536812928
 1111              		.cfi_endproc
 1112              	.LFE1:
 1113              		.size	myADC_Enable, .-myADC_Enable
 1114              		.section	.text.myADC_Start,"ax",%progbits
 1115              		.align	2
 1116              		.global	myADC_Start
 1117              		.thumb
 1118              		.thumb_func
 1119              		.type	myADC_Start, %function
 1120              	myADC_Start:
 1121              	.LFB2:
 330:Generated_Source\PSoC5/myADC.c ****     if(myADC_initVar == 0u)
 1122              		.loc 1 330 0
 1123              		.cfi_startproc
 1124              		@ args = 0, pretend = 0, frame = 0
 1125              		@ frame_needed = 0, uses_anonymous_args = 0
 1126 0000 08B5     		push	{r3, lr}
 1127              		.cfi_def_cfa_offset 8
 1128              		.cfi_offset 3, -8
 1129              		.cfi_offset 14, -4
 331:Generated_Source\PSoC5/myADC.c ****     {
 1130              		.loc 1 331 0
 1131 0002 084B     		ldr	r3, .L44
 1132 0004 9B7C     		ldrb	r3, [r3, #18]	@ zero_extendqisi2
 1133 0006 4BB9     		cbnz	r3, .L41
 333:Generated_Source\PSoC5/myADC.c ****         {
 1134              		.loc 1 333 0
 1135 0008 064B     		ldr	r3, .L44
 1136 000a DB7C     		ldrb	r3, [r3, #19]	@ zero_extendqisi2
 1137 000c 13F0FF0F 		tst	r3, #255
 1138 0010 01D1     		bne	.L42
 335:Generated_Source\PSoC5/myADC.c ****         }
 1139              		.loc 1 335 0
 1140 0012 FFF7FEFF 		bl	myADC_Init
 1141              	.LVL75:
 1142              	.L42:
 337:Generated_Source\PSoC5/myADC.c ****     }
 1143              		.loc 1 337 0
 1144 0016 0122     		movs	r2, #1
 1145 0018 024B     		ldr	r3, .L44
ARM GAS  C:\Users\kcdasilv\AppData\Local\Temp\ccqnavs7.s 			page 55


 1146 001a 9A74     		strb	r2, [r3, #18]
 1147              	.L41:
 341:Generated_Source\PSoC5/myADC.c **** }
 1148              		.loc 1 341 0
 1149 001c FFF7FEFF 		bl	myADC_Enable
 1150              	.LVL76:
 1151 0020 08BD     		pop	{r3, pc}
 1152              	.L45:
 1153 0022 00BF     		.align	2
 1154              	.L44:
 1155 0024 00000000 		.word	.LANCHOR0
 1156              		.cfi_endproc
 1157              	.LFE2:
 1158              		.size	myADC_Start, .-myADC_Start
 1159              		.section	.text.myADC_Stop,"ax",%progbits
 1160              		.align	2
 1161              		.global	myADC_Stop
 1162              		.thumb
 1163              		.thumb_func
 1164              		.type	myADC_Stop, %function
 1165              	myADC_Stop:
 1166              	.LFB3:
 363:Generated_Source\PSoC5/myADC.c ****     uint8 enableInterrupts;
 1167              		.loc 1 363 0
 1168              		.cfi_startproc
 1169              		@ args = 0, pretend = 0, frame = 0
 1170              		@ frame_needed = 0, uses_anonymous_args = 0
 1171 0000 70B5     		push	{r4, r5, r6, lr}
 1172              		.cfi_def_cfa_offset 16
 1173              		.cfi_offset 4, -16
 1174              		.cfi_offset 5, -12
 1175              		.cfi_offset 6, -8
 1176              		.cfi_offset 14, -4
 365:Generated_Source\PSoC5/myADC.c **** 
 1177              		.loc 1 365 0
 1178 0002 FFF7FEFF 		bl	CyEnterCriticalSection
 1179              	.LVL77:
 1180 0006 0646     		mov	r6, r0
 1181              	.LVL78:
 368:Generated_Source\PSoC5/myADC.c ****     myADC_DEC_SR_REG |=  myADC_DEC_INTR_CLEAR;
 1182              		.loc 1 368 0
 1183 0008 314A     		ldr	r2, .L48
 1184 000a 1378     		ldrb	r3, [r2]	@ zero_extendqisi2
 1185 000c 03F0FE03 		and	r3, r3, #254
 1186 0010 1370     		strb	r3, [r2]
 369:Generated_Source\PSoC5/myADC.c **** 
 1187              		.loc 1 369 0
 1188 0012 0132     		adds	r2, r2, #1
 1189 0014 1378     		ldrb	r3, [r2]	@ zero_extendqisi2
 1190 0016 43F00403 		orr	r3, r3, #4
 1191 001a 1370     		strb	r3, [r2]
 373:Generated_Source\PSoC5/myADC.c ****     myADC_RESET_CR5_REG |= myADC_IGNORE_PRESA2;
 1192              		.loc 1 373 0
 1193 001c 2D4D     		ldr	r5, .L48+4
 1194 001e 2B78     		ldrb	r3, [r5]	@ zero_extendqisi2
 1195 0020 43F00203 		orr	r3, r3, #2
 1196 0024 2B70     		strb	r3, [r5]
ARM GAS  C:\Users\kcdasilv\AppData\Local\Temp\ccqnavs7.s 			page 56


 374:Generated_Source\PSoC5/myADC.c **** 
 1197              		.loc 1 374 0
 1198 0026 2C4C     		ldr	r4, .L48+8
 1199 0028 2378     		ldrb	r3, [r4]	@ zero_extendqisi2
 1200 002a 43F00203 		orr	r3, r3, #2
 1201 002e 2370     		strb	r3, [r4]
 376:Generated_Source\PSoC5/myADC.c ****     myADC_DSM_REF0_REG &= (uint8)~myADC_DSM_EN_BUF_VREF_INN;
 1202              		.loc 1 376 0
 1203 0030 02F52962 		add	r2, r2, #2704
 1204 0034 1378     		ldrb	r3, [r2]	@ zero_extendqisi2
 1205 0036 03F0FC03 		and	r3, r3, #252
 1206 003a 1370     		strb	r3, [r2]
 377:Generated_Source\PSoC5/myADC.c **** 
 1207              		.loc 1 377 0
 1208 003c 0132     		adds	r2, r2, #1
 1209 003e 1378     		ldrb	r3, [r2]	@ zero_extendqisi2
 1210 0040 03F0F703 		and	r3, r3, #247
 1211 0044 1370     		strb	r3, [r2]
 380:Generated_Source\PSoC5/myADC.c **** 
 1212              		.loc 1 380 0
 1213 0046 0320     		movs	r0, #3
 1214 0048 FFF7FEFF 		bl	CyDelayUs
 1215              	.LVL79:
 383:Generated_Source\PSoC5/myADC.c ****     myADC_RESET_CR5_REG &= (uint8)~myADC_IGNORE_PRESA2;
 1216              		.loc 1 383 0
 1217 004c 2B78     		ldrb	r3, [r5]	@ zero_extendqisi2
 1218 004e 03F0FD03 		and	r3, r3, #253
 1219 0052 2B70     		strb	r3, [r5]
 384:Generated_Source\PSoC5/myADC.c **** 
 1220              		.loc 1 384 0
 1221 0054 2378     		ldrb	r3, [r4]	@ zero_extendqisi2
 1222 0056 03F0FD03 		and	r3, r3, #253
 1223 005a 2370     		strb	r3, [r4]
 387:Generated_Source\PSoC5/myADC.c **** 
 1224              		.loc 1 387 0
 1225 005c 1F4B     		ldr	r3, .L48+12
 1226 005e 1A78     		ldrb	r2, [r3]	@ zero_extendqisi2
 1227 0060 02F0EF02 		and	r2, r2, #239
 1228 0064 1A70     		strb	r2, [r3]
 390:Generated_Source\PSoC5/myADC.c **** 
 1229              		.loc 1 390 0
 1230 0066 1A78     		ldrb	r2, [r3]	@ zero_extendqisi2
 1231 0068 02F0FE02 		and	r2, r2, #254
 1232 006c 1A70     		strb	r2, [r3]
 393:Generated_Source\PSoC5/myADC.c ****     myADC_STBY_PWRMGR_DSM_REG &= (uint8)~myADC_STBY_PWR_DSM_EN;
 1233              		.loc 1 393 0
 1234 006e 1033     		adds	r3, r3, #16
 1235 0070 1A78     		ldrb	r2, [r3]	@ zero_extendqisi2
 1236 0072 02F0FE02 		and	r2, r2, #254
 1237 0076 1A70     		strb	r2, [r3]
 394:Generated_Source\PSoC5/myADC.c **** 
 1238              		.loc 1 394 0
 1239 0078 1A78     		ldrb	r2, [r3]	@ zero_extendqisi2
 1240 007a 02F0EF02 		and	r2, r2, #239
 1241 007e 1A70     		strb	r2, [r3]
 397:Generated_Source\PSoC5/myADC.c **** 
 1242              		.loc 1 397 0
ARM GAS  C:\Users\kcdasilv\AppData\Local\Temp\ccqnavs7.s 			page 57


 1243 0080 174A     		ldr	r2, .L48+16
 1244 0082 1378     		ldrb	r3, [r2]	@ zero_extendqisi2
 1245 0084 03F0F903 		and	r3, r3, #249
