ARM GAS  C:\Users\kelvi\AppData\Local\Temp\ccGQeHy8.s 			page 1


   1              		.syntax unified
   2              		.cpu cortex-m3
   3              		.fpu softvfp
   4              		.eabi_attribute 20, 1
   5              		.eabi_attribute 21, 1
   6              		.eabi_attribute 23, 3
   7              		.eabi_attribute 24, 1
   8              		.eabi_attribute 25, 1
   9              		.eabi_attribute 26, 1
  10              		.eabi_attribute 30, 1
  11              		.eabi_attribute 34, 1
  12              		.eabi_attribute 18, 4
  13              		.thumb
  14              		.file	"cyPm.c"
  15              		.text
  16              	.Ltext0:
  17              		.cfi_sections	.debug_frame
  18              		.section	.text.CyPmHibSlpSaveSet,"ax",%progbits
  19              		.align	2
  20              		.thumb
  21              		.thumb_func
  22              		.type	CyPmHibSlpSaveSet, %function
  23              	CyPmHibSlpSaveSet:
  24              	.LFB12:
  25              		.file 1 "Generated_Source\\PSoC5\\cyPm.c"
   1:Generated_Source\PSoC5/cyPm.c **** /***************************************************************************//**
   2:Generated_Source\PSoC5/cyPm.c **** * \file cyPm.c
   3:Generated_Source\PSoC5/cyPm.c **** * \version 5.50
   4:Generated_Source\PSoC5/cyPm.c **** *
   5:Generated_Source\PSoC5/cyPm.c **** * \brief Provides an API for the power management.
   6:Generated_Source\PSoC5/cyPm.c **** *
   7:Generated_Source\PSoC5/cyPm.c **** * \note Documentation of the API's in this file is located in the
   8:Generated_Source\PSoC5/cyPm.c **** *  System Reference Guide provided with PSoC Creator.
   9:Generated_Source\PSoC5/cyPm.c **** *
  10:Generated_Source\PSoC5/cyPm.c **** ********************************************************************************
  11:Generated_Source\PSoC5/cyPm.c **** * \copyright
  12:Generated_Source\PSoC5/cyPm.c **** * Copyright 2008-2016, Cypress Semiconductor Corporation.  All rights reserved.
  13:Generated_Source\PSoC5/cyPm.c **** * You may use this file only in accordance with the license, terms, conditions,
  14:Generated_Source\PSoC5/cyPm.c **** * disclaimers, and limitations in the end user license agreement accompanying
  15:Generated_Source\PSoC5/cyPm.c **** * the software package with which this file was provided.
  16:Generated_Source\PSoC5/cyPm.c **** *******************************************************************************/
  17:Generated_Source\PSoC5/cyPm.c **** 
  18:Generated_Source\PSoC5/cyPm.c **** #include "cyPm.h"
  19:Generated_Source\PSoC5/cyPm.c **** #include "cyapicallbacks.h"
  20:Generated_Source\PSoC5/cyPm.c **** 
  21:Generated_Source\PSoC5/cyPm.c **** 
  22:Generated_Source\PSoC5/cyPm.c **** /*******************************************************************
  23:Generated_Source\PSoC5/cyPm.c **** * Place your includes, defines, and code here. Do not use the merge
  24:Generated_Source\PSoC5/cyPm.c **** * region below unless any component datasheet suggests doing so.
  25:Generated_Source\PSoC5/cyPm.c **** *******************************************************************/
  26:Generated_Source\PSoC5/cyPm.c **** /* `#START CY_PM_HEADER_INCLUDE` */
  27:Generated_Source\PSoC5/cyPm.c **** 
  28:Generated_Source\PSoC5/cyPm.c **** /* `#END` */
  29:Generated_Source\PSoC5/cyPm.c **** 
  30:Generated_Source\PSoC5/cyPm.c **** 
  31:Generated_Source\PSoC5/cyPm.c **** static CY_PM_BACKUP_STRUCT          cyPmBackup;
  32:Generated_Source\PSoC5/cyPm.c **** static CY_PM_CLOCK_BACKUP_STRUCT    cyPmClockBackup;
ARM GAS  C:\Users\kelvi\AppData\Local\Temp\ccGQeHy8.s 			page 2


  33:Generated_Source\PSoC5/cyPm.c **** 
  34:Generated_Source\PSoC5/cyPm.c **** /* Convertion table between register's values and frequency in MHz  */
  35:Generated_Source\PSoC5/cyPm.c **** static const uint8 CYCODE cyPmImoFreqReg2Mhz[7u] = {12u, 6u, 24u, 3u, 48u, 62u, 74u};
  36:Generated_Source\PSoC5/cyPm.c **** 
  37:Generated_Source\PSoC5/cyPm.c **** /* Function Prototypes */
  38:Generated_Source\PSoC5/cyPm.c **** static void CyPmHibSaveSet(void);
  39:Generated_Source\PSoC5/cyPm.c **** static void CyPmHibRestore(void) ;
  40:Generated_Source\PSoC5/cyPm.c **** 
  41:Generated_Source\PSoC5/cyPm.c **** static void CyPmHibSlpSaveSet(void) ;
  42:Generated_Source\PSoC5/cyPm.c **** static void CyPmHibSlpRestore(void) ;
  43:Generated_Source\PSoC5/cyPm.c **** 
  44:Generated_Source\PSoC5/cyPm.c **** static void CyPmHviLviSaveDisable(void) ;
  45:Generated_Source\PSoC5/cyPm.c **** static void CyPmHviLviRestore(void) ;
  46:Generated_Source\PSoC5/cyPm.c **** 
  47:Generated_Source\PSoC5/cyPm.c **** 
  48:Generated_Source\PSoC5/cyPm.c **** /*******************************************************************************
  49:Generated_Source\PSoC5/cyPm.c **** * Function Name: CyPmSaveClocks
  50:Generated_Source\PSoC5/cyPm.c **** ****************************************************************************//**
  51:Generated_Source\PSoC5/cyPm.c **** *
  52:Generated_Source\PSoC5/cyPm.c **** *  This function is called in preparation for entering sleep or hibernate low
  53:Generated_Source\PSoC5/cyPm.c **** *  power modes. Saves all the states of the clocking system that do not persist
  54:Generated_Source\PSoC5/cyPm.c **** *  during sleep/hibernate or that need to be altered in preparation for
  55:Generated_Source\PSoC5/cyPm.c **** *  sleep/hibernate. Shutdowns all the digital and analog clock dividers for the
  56:Generated_Source\PSoC5/cyPm.c **** *  active power mode configuration.
  57:Generated_Source\PSoC5/cyPm.c **** *
  58:Generated_Source\PSoC5/cyPm.c **** *  Switches the master clock over to the IMO and shuts down the PLL and MHz
  59:Generated_Source\PSoC5/cyPm.c **** *  Crystal. The IMO frequency is set to either 12 MHz or 48 MHz to match the
  60:Generated_Source\PSoC5/cyPm.c **** *  Design-Wide Resources System Editor "Enable Fast IMO During Startup" setting.
  61:Generated_Source\PSoC5/cyPm.c **** *  The ILO and 32 KHz oscillators are not impacted. The current Flash wait state
  62:Generated_Source\PSoC5/cyPm.c **** *  setting is saved and the Flash wait state setting is set for the current IMO
  63:Generated_Source\PSoC5/cyPm.c **** *  speed.
  64:Generated_Source\PSoC5/cyPm.c **** *
  65:Generated_Source\PSoC5/cyPm.c **** *  Note If the Master Clock source is routed through the DSI inputs, then it
  66:Generated_Source\PSoC5/cyPm.c **** *  must be set manually to another source before using the
  67:Generated_Source\PSoC5/cyPm.c **** *  CyPmSaveClocks()/CyPmRestoreClocks() functions.
  68:Generated_Source\PSoC5/cyPm.c **** *
  69:Generated_Source\PSoC5/cyPm.c **** * \sideeffect
  70:Generated_Source\PSoC5/cyPm.c **** *  All peripheral clocks are going to be off after this API method call.
  71:Generated_Source\PSoC5/cyPm.c **** *
  72:Generated_Source\PSoC5/cyPm.c **** *******************************************************************************/
  73:Generated_Source\PSoC5/cyPm.c **** void CyPmSaveClocks(void) 
  74:Generated_Source\PSoC5/cyPm.c **** {
  75:Generated_Source\PSoC5/cyPm.c ****     /* Digital and analog clocks - save enable state and disable them all */
  76:Generated_Source\PSoC5/cyPm.c ****     cyPmClockBackup.enClkA = CY_PM_ACT_CFG1_REG & CY_PM_ACT_EN_CLK_A_MASK;
  77:Generated_Source\PSoC5/cyPm.c ****     cyPmClockBackup.enClkD = CY_PM_ACT_CFG2_REG;
  78:Generated_Source\PSoC5/cyPm.c ****     CY_PM_ACT_CFG1_REG &= ((uint8)(~CY_PM_ACT_EN_CLK_A_MASK));
  79:Generated_Source\PSoC5/cyPm.c ****     CY_PM_ACT_CFG2_REG &= ((uint8)(~CY_PM_ACT_EN_CLK_D_MASK));
  80:Generated_Source\PSoC5/cyPm.c **** 
  81:Generated_Source\PSoC5/cyPm.c ****     /* Save current flash wait cycles and set the maximum value */
  82:Generated_Source\PSoC5/cyPm.c ****     cyPmClockBackup.flashWaitCycles = CY_PM_CACHE_CR_CYCLES_MASK & CY_PM_CACHE_CR_REG;
  83:Generated_Source\PSoC5/cyPm.c ****     CyFlash_SetWaitCycles(CY_PM_MAX_FLASH_WAIT_CYCLES);
  84:Generated_Source\PSoC5/cyPm.c **** 
  85:Generated_Source\PSoC5/cyPm.c ****     /* IMO - save current IMO MHz OSC frequency and USB mode is on bit */
  86:Generated_Source\PSoC5/cyPm.c ****     cyPmClockBackup.imoFreq = CY_PM_FASTCLK_IMO_CR_REG & CY_PM_FASTCLK_IMO_CR_FREQ_MASK;
  87:Generated_Source\PSoC5/cyPm.c ****     cyPmClockBackup.imoUsbClk = CY_PM_FASTCLK_IMO_CR_REG & CY_PM_FASTCLK_IMO_CR_USB;
  88:Generated_Source\PSoC5/cyPm.c **** 
  89:Generated_Source\PSoC5/cyPm.c ****     /* IMO doubler - save enable state */
ARM GAS  C:\Users\kelvi\AppData\Local\Temp\ccGQeHy8.s 			page 3


  90:Generated_Source\PSoC5/cyPm.c ****     if(0u != (CY_PM_FASTCLK_IMO_CR_REG & CY_PM_FASTCLK_IMO_CR_F2XON))
  91:Generated_Source\PSoC5/cyPm.c ****     {
  92:Generated_Source\PSoC5/cyPm.c ****         /* IMO doubler enabled - save and disable */
  93:Generated_Source\PSoC5/cyPm.c ****         cyPmClockBackup.imo2x = CY_PM_ENABLED;
  94:Generated_Source\PSoC5/cyPm.c ****     }
  95:Generated_Source\PSoC5/cyPm.c ****     else
  96:Generated_Source\PSoC5/cyPm.c ****     {
  97:Generated_Source\PSoC5/cyPm.c ****         /* IMO doubler disabled */
  98:Generated_Source\PSoC5/cyPm.c ****         cyPmClockBackup.imo2x = CY_PM_DISABLED;
  99:Generated_Source\PSoC5/cyPm.c ****     }
 100:Generated_Source\PSoC5/cyPm.c **** 
 101:Generated_Source\PSoC5/cyPm.c ****     /* Master clock - save source */
 102:Generated_Source\PSoC5/cyPm.c ****     cyPmClockBackup.masterClkSrc = CY_PM_CLKDIST_MSTR1_REG & CY_PM_MASTER_CLK_SRC_MASK;
 103:Generated_Source\PSoC5/cyPm.c **** 
 104:Generated_Source\PSoC5/cyPm.c ****     /* Switch Master clock's source from PLL's output to PLL's source */
 105:Generated_Source\PSoC5/cyPm.c ****     if(CY_MASTER_SOURCE_PLL == cyPmClockBackup.masterClkSrc)
 106:Generated_Source\PSoC5/cyPm.c ****     {
 107:Generated_Source\PSoC5/cyPm.c ****         switch (CY_PM_CLKDIST_CR_REG & CY_PM_CLKDIST_PLL_SRC_MASK)
 108:Generated_Source\PSoC5/cyPm.c ****         {
 109:Generated_Source\PSoC5/cyPm.c ****         case CY_PM_CLKDIST_PLL_SRC_IMO:
 110:Generated_Source\PSoC5/cyPm.c ****             CyMasterClk_SetSource(CY_MASTER_SOURCE_IMO);
 111:Generated_Source\PSoC5/cyPm.c ****             break;
 112:Generated_Source\PSoC5/cyPm.c **** 
 113:Generated_Source\PSoC5/cyPm.c ****         case CY_PM_CLKDIST_PLL_SRC_XTAL:
 114:Generated_Source\PSoC5/cyPm.c ****             CyMasterClk_SetSource(CY_MASTER_SOURCE_XTAL);
 115:Generated_Source\PSoC5/cyPm.c ****             break;
 116:Generated_Source\PSoC5/cyPm.c **** 
 117:Generated_Source\PSoC5/cyPm.c ****         case CY_PM_CLKDIST_PLL_SRC_DSI:
 118:Generated_Source\PSoC5/cyPm.c ****             CyMasterClk_SetSource(CY_MASTER_SOURCE_DSI);
 119:Generated_Source\PSoC5/cyPm.c ****             break;
 120:Generated_Source\PSoC5/cyPm.c **** 
 121:Generated_Source\PSoC5/cyPm.c ****         default:
 122:Generated_Source\PSoC5/cyPm.c ****             CYASSERT(0u != 0u);
 123:Generated_Source\PSoC5/cyPm.c ****             break;
 124:Generated_Source\PSoC5/cyPm.c ****         }
 125:Generated_Source\PSoC5/cyPm.c ****     }
 126:Generated_Source\PSoC5/cyPm.c **** 
 127:Generated_Source\PSoC5/cyPm.c ****     /* PLL - check enable state, disable if needed */
 128:Generated_Source\PSoC5/cyPm.c ****     if(0u != (CY_PM_FASTCLK_PLL_CFG0_REG & CY_PM_PLL_CFG0_ENABLE))
 129:Generated_Source\PSoC5/cyPm.c ****     {
 130:Generated_Source\PSoC5/cyPm.c ****         /* PLL is enabled - save state and disable */
 131:Generated_Source\PSoC5/cyPm.c ****         cyPmClockBackup.pllEnableState = CY_PM_ENABLED;
 132:Generated_Source\PSoC5/cyPm.c ****         CyPLL_OUT_Stop();
 133:Generated_Source\PSoC5/cyPm.c ****     }
 134:Generated_Source\PSoC5/cyPm.c ****     else
 135:Generated_Source\PSoC5/cyPm.c ****     {
 136:Generated_Source\PSoC5/cyPm.c ****         /* PLL is disabled - save state */
 137:Generated_Source\PSoC5/cyPm.c ****         cyPmClockBackup.pllEnableState = CY_PM_DISABLED;
 138:Generated_Source\PSoC5/cyPm.c ****     }
 139:Generated_Source\PSoC5/cyPm.c **** 
 140:Generated_Source\PSoC5/cyPm.c ****     /* IMO - set appropriate frequency for LPM */
 141:Generated_Source\PSoC5/cyPm.c ****     CyIMO_SetFreq(CY_PM_IMO_FREQ_LPM);
 142:Generated_Source\PSoC5/cyPm.c **** 
 143:Generated_Source\PSoC5/cyPm.c ****     /* IMO - save enable state and enable without wait to settle */
 144:Generated_Source\PSoC5/cyPm.c ****     if(0u != (CY_PM_ACT_CFG0_IMO & CY_PM_ACT_CFG0_REG))
 145:Generated_Source\PSoC5/cyPm.c ****     {
 146:Generated_Source\PSoC5/cyPm.c ****         /* IMO - save enabled state */
ARM GAS  C:\Users\kelvi\AppData\Local\Temp\ccGQeHy8.s 			page 4


 147:Generated_Source\PSoC5/cyPm.c ****         cyPmClockBackup.imoEnable = CY_PM_ENABLED;
 148:Generated_Source\PSoC5/cyPm.c ****     }
 149:Generated_Source\PSoC5/cyPm.c ****     else
 150:Generated_Source\PSoC5/cyPm.c ****     {
 151:Generated_Source\PSoC5/cyPm.c ****         /* IMO - save disabled state */
 152:Generated_Source\PSoC5/cyPm.c ****         cyPmClockBackup.imoEnable = CY_PM_DISABLED;
 153:Generated_Source\PSoC5/cyPm.c **** 
 154:Generated_Source\PSoC5/cyPm.c ****         /* Enable the IMO. Use software delay instead of the FTW-based inside */
 155:Generated_Source\PSoC5/cyPm.c ****         CyIMO_Start(CY_PM_IMO_NO_WAIT_TO_SETTLE);
 156:Generated_Source\PSoC5/cyPm.c **** 
 157:Generated_Source\PSoC5/cyPm.c ****         /* Settling time of the IMO is of the order of less than 6us */
 158:Generated_Source\PSoC5/cyPm.c ****         CyDelayUs(6u);
 159:Generated_Source\PSoC5/cyPm.c ****     }
 160:Generated_Source\PSoC5/cyPm.c **** 
 161:Generated_Source\PSoC5/cyPm.c ****     /* IMO - save the current IMOCLK source and set to IMO if not yet */
 162:Generated_Source\PSoC5/cyPm.c ****     if(0u != (CY_PM_FASTCLK_IMO_CR_REG & CY_PM_FASTCLK_IMO_CR_XCLKEN))
 163:Generated_Source\PSoC5/cyPm.c ****     {
 164:Generated_Source\PSoC5/cyPm.c ****         /* DSI or XTAL CLK */
 165:Generated_Source\PSoC5/cyPm.c ****         cyPmClockBackup.imoClkSrc =
 166:Generated_Source\PSoC5/cyPm.c ****             (0u == (CY_PM_CLKDIST_CR_REG & CY_PM_CLKDIST_IMO2X_SRC)) ? CY_IMO_SOURCE_DSI : CY_IMO_S
 167:Generated_Source\PSoC5/cyPm.c **** 
 168:Generated_Source\PSoC5/cyPm.c ****         /* IMO -  set IMOCLK source to IMO */
 169:Generated_Source\PSoC5/cyPm.c ****         CyIMO_SetSource(CY_IMO_SOURCE_IMO);
 170:Generated_Source\PSoC5/cyPm.c ****     }
 171:Generated_Source\PSoC5/cyPm.c ****     else
 172:Generated_Source\PSoC5/cyPm.c ****     {
 173:Generated_Source\PSoC5/cyPm.c ****         /* IMO */
 174:Generated_Source\PSoC5/cyPm.c ****         cyPmClockBackup.imoClkSrc = CY_IMO_SOURCE_IMO;
 175:Generated_Source\PSoC5/cyPm.c ****     }
 176:Generated_Source\PSoC5/cyPm.c **** 
 177:Generated_Source\PSoC5/cyPm.c ****     /* Save clk_imo source */
 178:Generated_Source\PSoC5/cyPm.c ****     cyPmClockBackup.clkImoSrc = CY_PM_CLKDIST_CR_REG & CY_PM_CLKDIST_IMO_OUT_MASK;
 179:Generated_Source\PSoC5/cyPm.c **** 
 180:Generated_Source\PSoC5/cyPm.c ****     /* If IMOCLK2X or SPC OSC is source for clk_imo, set it to IMOCLK */
 181:Generated_Source\PSoC5/cyPm.c ****     if(CY_PM_CLKDIST_IMO_OUT_IMO != cyPmClockBackup.clkImoSrc)
 182:Generated_Source\PSoC5/cyPm.c ****     {
 183:Generated_Source\PSoC5/cyPm.c ****         /* Set IMOCLK to source for clk_imo */
 184:Generated_Source\PSoC5/cyPm.c ****         CY_PM_CLKDIST_CR_REG = (CY_PM_CLKDIST_CR_REG & ((uint8)(~CY_PM_CLKDIST_IMO_OUT_MASK))) |
 185:Generated_Source\PSoC5/cyPm.c ****                                 CY_PM_CLKDIST_IMO_OUT_IMO;
 186:Generated_Source\PSoC5/cyPm.c ****     }    /* Need to change nothing if IMOCLK is source clk_imo */
 187:Generated_Source\PSoC5/cyPm.c **** 
 188:Generated_Source\PSoC5/cyPm.c ****     /* IMO doubler - disable it (saved above) */
 189:Generated_Source\PSoC5/cyPm.c ****     if(0u != (CY_PM_FASTCLK_IMO_CR_REG & CY_PM_FASTCLK_IMO_CR_F2XON))
 190:Generated_Source\PSoC5/cyPm.c ****     {
 191:Generated_Source\PSoC5/cyPm.c ****         CyIMO_DisableDoubler();
 192:Generated_Source\PSoC5/cyPm.c ****     }
 193:Generated_Source\PSoC5/cyPm.c **** 
 194:Generated_Source\PSoC5/cyPm.c ****     /* Master clock - save divider and set it to divide-by-one (if no yet) */
 195:Generated_Source\PSoC5/cyPm.c ****     cyPmClockBackup.clkSyncDiv = CY_PM_CLKDIST_MSTR0_REG;
 196:Generated_Source\PSoC5/cyPm.c ****     if(CY_PM_DIV_BY_ONE != cyPmClockBackup.clkSyncDiv)
 197:Generated_Source\PSoC5/cyPm.c ****     {
 198:Generated_Source\PSoC5/cyPm.c ****         CyMasterClk_SetDivider(CY_PM_DIV_BY_ONE);
 199:Generated_Source\PSoC5/cyPm.c ****     }    /* No change if master clock divider is 1 */
 200:Generated_Source\PSoC5/cyPm.c **** 
 201:Generated_Source\PSoC5/cyPm.c ****     /* Master clock source - set it to IMO if not yet. */
 202:Generated_Source\PSoC5/cyPm.c ****     if(CY_MASTER_SOURCE_IMO != cyPmClockBackup.masterClkSrc)
 203:Generated_Source\PSoC5/cyPm.c ****     {
ARM GAS  C:\Users\kelvi\AppData\Local\Temp\ccGQeHy8.s 			page 5


 204:Generated_Source\PSoC5/cyPm.c ****         CyMasterClk_SetSource(CY_MASTER_SOURCE_IMO);
 205:Generated_Source\PSoC5/cyPm.c ****     }    /* No change if master clock source is IMO */
 206:Generated_Source\PSoC5/cyPm.c **** 
 207:Generated_Source\PSoC5/cyPm.c ****     /* Bus clock - save divider and set it, if needed, to divide-by-one */
 208:Generated_Source\PSoC5/cyPm.c ****     cyPmClockBackup.clkBusDiv = (uint16) ((uint16) CY_PM_CLK_BUS_MSB_DIV_REG << 8u);
 209:Generated_Source\PSoC5/cyPm.c ****     cyPmClockBackup.clkBusDiv |= CY_PM_CLK_BUS_LSB_DIV_REG;
 210:Generated_Source\PSoC5/cyPm.c ****     if(CY_PM_BUS_CLK_DIV_BY_ONE != cyPmClockBackup.clkBusDiv)
 211:Generated_Source\PSoC5/cyPm.c ****     {
 212:Generated_Source\PSoC5/cyPm.c ****         CyBusClk_SetDivider(CY_PM_BUS_CLK_DIV_BY_ONE);
 213:Generated_Source\PSoC5/cyPm.c ****     }    /* Do nothing if saved and actual values are equal */
 214:Generated_Source\PSoC5/cyPm.c **** 
 215:Generated_Source\PSoC5/cyPm.c ****     /* Set number of wait cycles for flash according to CPU frequency in MHz */
 216:Generated_Source\PSoC5/cyPm.c ****     CyFlash_SetWaitCycles((uint8)CY_PM_GET_CPU_FREQ_MHZ);
 217:Generated_Source\PSoC5/cyPm.c **** 
 218:Generated_Source\PSoC5/cyPm.c ****     /* MHz ECO - check enable state and disable if needed */
 219:Generated_Source\PSoC5/cyPm.c ****     if(0u != (CY_PM_FASTCLK_XMHZ_CSR_REG & CY_PM_XMHZ_CSR_ENABLE))
 220:Generated_Source\PSoC5/cyPm.c ****     {
 221:Generated_Source\PSoC5/cyPm.c ****         /* MHz ECO is enabled - save state and disable */
 222:Generated_Source\PSoC5/cyPm.c ****         cyPmClockBackup.xmhzEnableState = CY_PM_ENABLED;
 223:Generated_Source\PSoC5/cyPm.c ****         CyXTAL_Stop();
 224:Generated_Source\PSoC5/cyPm.c ****     }
 225:Generated_Source\PSoC5/cyPm.c ****     else
 226:Generated_Source\PSoC5/cyPm.c ****     {
 227:Generated_Source\PSoC5/cyPm.c ****         /* MHz ECO is disabled - save state */
 228:Generated_Source\PSoC5/cyPm.c ****         cyPmClockBackup.xmhzEnableState = CY_PM_DISABLED;
 229:Generated_Source\PSoC5/cyPm.c ****     }
 230:Generated_Source\PSoC5/cyPm.c **** 
 231:Generated_Source\PSoC5/cyPm.c **** 
 232:Generated_Source\PSoC5/cyPm.c ****     /***************************************************************************
 233:Generated_Source\PSoC5/cyPm.c ****     * Save the enable state of delay between the system bus clock and each of the
 234:Generated_Source\PSoC5/cyPm.c ****     * 4 individual analog clocks. This bit non-retention and its value should
 235:Generated_Source\PSoC5/cyPm.c ****     * be restored on wakeup.
 236:Generated_Source\PSoC5/cyPm.c ****     ***************************************************************************/
 237:Generated_Source\PSoC5/cyPm.c ****     if(0u != (CY_PM_CLKDIST_DELAY_REG & CY_PM_CLKDIST_DELAY_EN))
 238:Generated_Source\PSoC5/cyPm.c ****     {
 239:Generated_Source\PSoC5/cyPm.c ****         cyPmClockBackup.clkDistDelay = CY_PM_ENABLED;
 240:Generated_Source\PSoC5/cyPm.c ****     }
 241:Generated_Source\PSoC5/cyPm.c ****     else
 242:Generated_Source\PSoC5/cyPm.c ****     {
 243:Generated_Source\PSoC5/cyPm.c ****         cyPmClockBackup.clkDistDelay = CY_PM_DISABLED;
 244:Generated_Source\PSoC5/cyPm.c ****     }
 245:Generated_Source\PSoC5/cyPm.c **** }
 246:Generated_Source\PSoC5/cyPm.c **** 
 247:Generated_Source\PSoC5/cyPm.c **** 
 248:Generated_Source\PSoC5/cyPm.c **** /*******************************************************************************
 249:Generated_Source\PSoC5/cyPm.c **** * Function Name: CyPmRestoreClocks
 250:Generated_Source\PSoC5/cyPm.c **** ****************************************************************************//**
 251:Generated_Source\PSoC5/cyPm.c **** *
 252:Generated_Source\PSoC5/cyPm.c **** *  Restores any state that was preserved by the last call to CyPmSaveClocks().
 253:Generated_Source\PSoC5/cyPm.c **** *  The Flash wait state setting is also restored.
 254:Generated_Source\PSoC5/cyPm.c **** *
 255:Generated_Source\PSoC5/cyPm.c **** *  Note If the Master Clock source is routed through the DSI inputs, then it
 256:Generated_Source\PSoC5/cyPm.c **** *  must be set manually to another source before using the
 257:Generated_Source\PSoC5/cyPm.c **** *  CyPmSaveClocks()/CyPmRestoreClocks() functions.
 258:Generated_Source\PSoC5/cyPm.c **** *
 259:Generated_Source\PSoC5/cyPm.c **** *  PSoC 3 and PSoC 5LP:
 260:Generated_Source\PSoC5/cyPm.c **** *  The merge region could be used to process state when the megahertz crystal is
ARM GAS  C:\Users\kelvi\AppData\Local\Temp\ccGQeHy8.s 			page 6


 261:Generated_Source\PSoC5/cyPm.c **** *  not ready after a hold-off timeout.
 262:Generated_Source\PSoC5/cyPm.c **** *
 263:Generated_Source\PSoC5/cyPm.c **** *  PSoC 5:
 264:Generated_Source\PSoC5/cyPm.c **** *  The 130 ms is given for the megahertz crystal to stabilize. Its readiness is
 265:Generated_Source\PSoC5/cyPm.c **** *  not verified after a hold-off timeout.
 266:Generated_Source\PSoC5/cyPm.c **** *
 267:Generated_Source\PSoC5/cyPm.c **** *******************************************************************************/
 268:Generated_Source\PSoC5/cyPm.c **** void CyPmRestoreClocks(void) 
 269:Generated_Source\PSoC5/cyPm.c **** {
 270:Generated_Source\PSoC5/cyPm.c ****     cystatus status = CYRET_TIMEOUT;
 271:Generated_Source\PSoC5/cyPm.c ****     uint16 i;
 272:Generated_Source\PSoC5/cyPm.c ****     uint16 clkBusDivTmp;
 273:Generated_Source\PSoC5/cyPm.c **** 
 274:Generated_Source\PSoC5/cyPm.c **** 
 275:Generated_Source\PSoC5/cyPm.c ****     /* Convertion table between CyIMO_SetFreq() parameters and register's value */
 276:Generated_Source\PSoC5/cyPm.c ****     const uint8 CYCODE cyPmImoFreqMhz2Reg[7u] = {
 277:Generated_Source\PSoC5/cyPm.c ****         CY_IMO_FREQ_12MHZ, CY_IMO_FREQ_6MHZ,  CY_IMO_FREQ_24MHZ, CY_IMO_FREQ_3MHZ,
 278:Generated_Source\PSoC5/cyPm.c ****         CY_IMO_FREQ_48MHZ, 5u, 6u};
 279:Generated_Source\PSoC5/cyPm.c **** 
 280:Generated_Source\PSoC5/cyPm.c ****     /* Restore enable state of delay between system bus clock and ACLKs. */
 281:Generated_Source\PSoC5/cyPm.c ****     if(CY_PM_ENABLED == cyPmClockBackup.clkDistDelay)
 282:Generated_Source\PSoC5/cyPm.c ****     {
 283:Generated_Source\PSoC5/cyPm.c ****         /* Delay for both bandgap and delay line to settle out */
 284:Generated_Source\PSoC5/cyPm.c ****         CyDelayCycles((uint32)(CY_PM_CLK_DELAY_BANDGAP_SETTLE_US + CY_PM_CLK_DELAY_BIAS_SETTLE_US) 
 285:Generated_Source\PSoC5/cyPm.c ****                         CY_PM_GET_CPU_FREQ_MHZ);
 286:Generated_Source\PSoC5/cyPm.c **** 
 287:Generated_Source\PSoC5/cyPm.c ****         CY_PM_CLKDIST_DELAY_REG |= CY_PM_CLKDIST_DELAY_EN;
 288:Generated_Source\PSoC5/cyPm.c ****     }
 289:Generated_Source\PSoC5/cyPm.c **** 
 290:Generated_Source\PSoC5/cyPm.c ****     /* MHz ECO restore state */
 291:Generated_Source\PSoC5/cyPm.c ****     if(CY_PM_ENABLED == cyPmClockBackup.xmhzEnableState)
 292:Generated_Source\PSoC5/cyPm.c ****     {
 293:Generated_Source\PSoC5/cyPm.c ****         /***********************************************************************
 294:Generated_Source\PSoC5/cyPm.c ****         * Enabling XMHZ XTAL. The actual CyXTAL_Start() with a non zero wait
 295:Generated_Source\PSoC5/cyPm.c ****         * period uses FTW for period measurement. This could cause a problem
 296:Generated_Source\PSoC5/cyPm.c ****         * if CTW/FTW is used as a wake up time in the low power modes APIs.
 297:Generated_Source\PSoC5/cyPm.c ****         * So, the XTAL wait procedure is implemented with a software delay.
 298:Generated_Source\PSoC5/cyPm.c ****         ***********************************************************************/
 299:Generated_Source\PSoC5/cyPm.c **** 
 300:Generated_Source\PSoC5/cyPm.c ****         /* Enable XMHZ XTAL with no wait */
 301:Generated_Source\PSoC5/cyPm.c ****         (void) CyXTAL_Start(CY_PM_XTAL_MHZ_NO_WAIT);
 302:Generated_Source\PSoC5/cyPm.c **** 
 303:Generated_Source\PSoC5/cyPm.c ****         /* Read XERR bit to clear it */
 304:Generated_Source\PSoC5/cyPm.c ****         (void) CY_PM_FASTCLK_XMHZ_CSR_REG;
 305:Generated_Source\PSoC5/cyPm.c **** 
 306:Generated_Source\PSoC5/cyPm.c ****         /* Wait */
 307:Generated_Source\PSoC5/cyPm.c ****         for(i = CY_PM_MHZ_XTAL_WAIT_NUM_OF_200_US; i > 0u; i--)
 308:Generated_Source\PSoC5/cyPm.c ****         {
 309:Generated_Source\PSoC5/cyPm.c ****             /* Make a 200 microseconds delay */
 310:Generated_Source\PSoC5/cyPm.c ****             CyDelayCycles((uint32)CY_PM_WAIT_200_US * CY_PM_GET_CPU_FREQ_MHZ);
 311:Generated_Source\PSoC5/cyPm.c **** 
 312:Generated_Source\PSoC5/cyPm.c ****             /* High output indicates oscillator failure */
 313:Generated_Source\PSoC5/cyPm.c ****             if(0u == (CY_PM_FASTCLK_XMHZ_CSR_REG & CY_PM_XMHZ_CSR_XERR))
 314:Generated_Source\PSoC5/cyPm.c ****             {
 315:Generated_Source\PSoC5/cyPm.c ****                 status = CYRET_SUCCESS;
 316:Generated_Source\PSoC5/cyPm.c ****                 break;
 317:Generated_Source\PSoC5/cyPm.c ****             }
ARM GAS  C:\Users\kelvi\AppData\Local\Temp\ccGQeHy8.s 			page 7


 318:Generated_Source\PSoC5/cyPm.c ****         }
 319:Generated_Source\PSoC5/cyPm.c **** 
 320:Generated_Source\PSoC5/cyPm.c ****         if(CYRET_TIMEOUT == status)
 321:Generated_Source\PSoC5/cyPm.c ****         {
 322:Generated_Source\PSoC5/cyPm.c ****             /*******************************************************************
 323:Generated_Source\PSoC5/cyPm.c ****             * Process the situation when megahertz crystal is not ready.
 324:Generated_Source\PSoC5/cyPm.c ****             * Time to stabilize the value is crystal specific.
 325:Generated_Source\PSoC5/cyPm.c ****             *******************************************************************/
 326:Generated_Source\PSoC5/cyPm.c ****            /* `#START_MHZ_ECO_TIMEOUT` */
 327:Generated_Source\PSoC5/cyPm.c **** 
 328:Generated_Source\PSoC5/cyPm.c ****            /* `#END` */
 329:Generated_Source\PSoC5/cyPm.c **** 
 330:Generated_Source\PSoC5/cyPm.c ****         #ifdef CY_BOOT_CY_PM_RESTORE_CLOCKS_ECO_TIMEOUT_CALLBACK
 331:Generated_Source\PSoC5/cyPm.c ****             CyBoot_CyPmRestoreClocks_EcoTimeout_Callback();
 332:Generated_Source\PSoC5/cyPm.c ****         #endif /* CY_BOOT_CY_PM_RESTORE_CLOCKS_ECO_TIMEOUT_CALLBACK */
 333:Generated_Source\PSoC5/cyPm.c ****         }
 334:Generated_Source\PSoC5/cyPm.c ****     }   /* (CY_PM_ENABLED == cyPmClockBackup.xmhzEnableState) */
 335:Generated_Source\PSoC5/cyPm.c **** 
 336:Generated_Source\PSoC5/cyPm.c **** 
 337:Generated_Source\PSoC5/cyPm.c ****     /* Temporary set maximum flash wait cycles */
 338:Generated_Source\PSoC5/cyPm.c ****     CyFlash_SetWaitCycles(CY_PM_MAX_FLASH_WAIT_CYCLES);
 339:Generated_Source\PSoC5/cyPm.c **** 
 340:Generated_Source\PSoC5/cyPm.c ****     /* XTAL and DSI clocks are ready to be source for Master clock. */
 341:Generated_Source\PSoC5/cyPm.c ****     if((CY_PM_MASTER_CLK_SRC_XTAL == cyPmClockBackup.masterClkSrc) ||
 342:Generated_Source\PSoC5/cyPm.c ****        (CY_PM_MASTER_CLK_SRC_DSI  == cyPmClockBackup.masterClkSrc))
 343:Generated_Source\PSoC5/cyPm.c ****     {
 344:Generated_Source\PSoC5/cyPm.c ****         /* Restore Master clock's divider */
 345:Generated_Source\PSoC5/cyPm.c ****         if(CY_PM_CLKDIST_MSTR0_REG != cyPmClockBackup.clkSyncDiv)
 346:Generated_Source\PSoC5/cyPm.c ****         {
 347:Generated_Source\PSoC5/cyPm.c ****             /* Restore Master clock divider */
 348:Generated_Source\PSoC5/cyPm.c ****             CyMasterClk_SetDivider(cyPmClockBackup.clkSyncDiv);
 349:Generated_Source\PSoC5/cyPm.c ****         }
 350:Generated_Source\PSoC5/cyPm.c **** 
 351:Generated_Source\PSoC5/cyPm.c ****         /* Restore Master clock source */
 352:Generated_Source\PSoC5/cyPm.c ****         CyMasterClk_SetSource(cyPmClockBackup.masterClkSrc);
 353:Generated_Source\PSoC5/cyPm.c ****     }
 354:Generated_Source\PSoC5/cyPm.c **** 
 355:Generated_Source\PSoC5/cyPm.c ****     /* IMO - restore IMO frequency */
 356:Generated_Source\PSoC5/cyPm.c ****     if((0u != (cyPmClockBackup.imoUsbClk & CY_PM_FASTCLK_IMO_CR_USB)) &&
 357:Generated_Source\PSoC5/cyPm.c ****         (CY_IMO_FREQ_24MHZ == cyPmImoFreqMhz2Reg[cyPmClockBackup.imoFreq]))
 358:Generated_Source\PSoC5/cyPm.c ****     {
 359:Generated_Source\PSoC5/cyPm.c ****         /* Restore IMO frequency (24 MHz) and trim it for USB */
 360:Generated_Source\PSoC5/cyPm.c ****         CyIMO_SetFreq(CY_IMO_FREQ_USB);
 361:Generated_Source\PSoC5/cyPm.c ****     }
 362:Generated_Source\PSoC5/cyPm.c ****     else
 363:Generated_Source\PSoC5/cyPm.c ****     {
 364:Generated_Source\PSoC5/cyPm.c ****         /* Restore IMO frequency */
 365:Generated_Source\PSoC5/cyPm.c ****         CyIMO_SetFreq(cyPmImoFreqMhz2Reg[cyPmClockBackup.imoFreq]);
 366:Generated_Source\PSoC5/cyPm.c **** 
 367:Generated_Source\PSoC5/cyPm.c ****         if(0u != (cyPmClockBackup.imoUsbClk & CY_PM_FASTCLK_IMO_CR_USB))
 368:Generated_Source\PSoC5/cyPm.c ****         {
 369:Generated_Source\PSoC5/cyPm.c ****             CY_PM_FASTCLK_IMO_CR_REG |= CY_PM_FASTCLK_IMO_CR_USB;
 370:Generated_Source\PSoC5/cyPm.c ****         }
 371:Generated_Source\PSoC5/cyPm.c ****         else
 372:Generated_Source\PSoC5/cyPm.c ****         {
 373:Generated_Source\PSoC5/cyPm.c ****             CY_PM_FASTCLK_IMO_CR_REG &= ((uint8)(~CY_PM_FASTCLK_IMO_CR_USB));
 374:Generated_Source\PSoC5/cyPm.c ****         }
ARM GAS  C:\Users\kelvi\AppData\Local\Temp\ccGQeHy8.s 			page 8


 375:Generated_Source\PSoC5/cyPm.c ****     }
 376:Generated_Source\PSoC5/cyPm.c **** 
 377:Generated_Source\PSoC5/cyPm.c ****     /* IMO - restore enable state if needed */
 378:Generated_Source\PSoC5/cyPm.c ****     if((CY_PM_ENABLED == cyPmClockBackup.imoEnable) &&
 379:Generated_Source\PSoC5/cyPm.c ****        (0u == (CY_PM_ACT_CFG0_IMO & CY_PM_ACT_CFG0_REG)))
 380:Generated_Source\PSoC5/cyPm.c ****     {
 381:Generated_Source\PSoC5/cyPm.c ****         /* IMO - restore enabled state */
 382:Generated_Source\PSoC5/cyPm.c ****         CyIMO_Start(CY_PM_IMO_NO_WAIT_TO_SETTLE);
 383:Generated_Source\PSoC5/cyPm.c ****     }
 384:Generated_Source\PSoC5/cyPm.c **** 
 385:Generated_Source\PSoC5/cyPm.c ****     /* IMO - restore IMOCLK source */
 386:Generated_Source\PSoC5/cyPm.c ****     CyIMO_SetSource(cyPmClockBackup.imoClkSrc);
 387:Generated_Source\PSoC5/cyPm.c **** 
 388:Generated_Source\PSoC5/cyPm.c ****     /* Restore IMO doubler enable state (turned off by CyPmSaveClocks()) */
 389:Generated_Source\PSoC5/cyPm.c ****     if(CY_PM_ENABLED == cyPmClockBackup.imo2x)
 390:Generated_Source\PSoC5/cyPm.c ****     {
 391:Generated_Source\PSoC5/cyPm.c ****         CyIMO_EnableDoubler();
 392:Generated_Source\PSoC5/cyPm.c ****     }
 393:Generated_Source\PSoC5/cyPm.c **** 
 394:Generated_Source\PSoC5/cyPm.c ****     /* IMO - restore clk_imo source, if needed */
 395:Generated_Source\PSoC5/cyPm.c ****     if(cyPmClockBackup.clkImoSrc != (CY_PM_CLKDIST_CR_REG & CY_PM_CLKDIST_IMO_OUT_MASK))
 396:Generated_Source\PSoC5/cyPm.c ****     {
 397:Generated_Source\PSoC5/cyPm.c ****         CY_PM_CLKDIST_CR_REG = (CY_PM_CLKDIST_CR_REG & ((uint8)(~CY_PM_CLKDIST_IMO_OUT_MASK))) |
 398:Generated_Source\PSoC5/cyPm.c ****                                 cyPmClockBackup.clkImoSrc;
 399:Generated_Source\PSoC5/cyPm.c ****     }
 400:Generated_Source\PSoC5/cyPm.c **** 
 401:Generated_Source\PSoC5/cyPm.c **** 
 402:Generated_Source\PSoC5/cyPm.c ****     /* PLL restore state */
 403:Generated_Source\PSoC5/cyPm.c ****     if(CY_PM_ENABLED == cyPmClockBackup.pllEnableState)
 404:Generated_Source\PSoC5/cyPm.c ****     {
 405:Generated_Source\PSoC5/cyPm.c ****         /***********************************************************************
 406:Generated_Source\PSoC5/cyPm.c ****         * Enable PLL. The actual CyPLL_OUT_Start() without wait period uses FTW
 407:Generated_Source\PSoC5/cyPm.c ****         * for period measurement. This could cause a problem if CTW/FTW is used
 408:Generated_Source\PSoC5/cyPm.c ****         * as a wakeup time in the low power modes APIs. To omit this issue PLL
 409:Generated_Source\PSoC5/cyPm.c ****         * wait procedure is implemented with a software delay.
 410:Generated_Source\PSoC5/cyPm.c ****         ***********************************************************************/
 411:Generated_Source\PSoC5/cyPm.c ****         status = CYRET_TIMEOUT;
 412:Generated_Source\PSoC5/cyPm.c **** 
 413:Generated_Source\PSoC5/cyPm.c ****         /* Enable PLL */
 414:Generated_Source\PSoC5/cyPm.c ****         (void) CyPLL_OUT_Start(CY_PM_PLL_OUT_NO_WAIT);
 415:Generated_Source\PSoC5/cyPm.c **** 
 416:Generated_Source\PSoC5/cyPm.c ****         /* Read to clear lock status after delay */
 417:Generated_Source\PSoC5/cyPm.c ****         CyDelayUs((uint32)80u);
 418:Generated_Source\PSoC5/cyPm.c ****         (void) CY_PM_FASTCLK_PLL_SR_REG;
 419:Generated_Source\PSoC5/cyPm.c **** 
 420:Generated_Source\PSoC5/cyPm.c ****         /* It should take 250 us lock: 251-80 = 171 */
 421:Generated_Source\PSoC5/cyPm.c ****         for(i = 171u; i > 0u; i--)
 422:Generated_Source\PSoC5/cyPm.c ****         {
 423:Generated_Source\PSoC5/cyPm.c ****             CyDelayUs((uint32)1u);
 424:Generated_Source\PSoC5/cyPm.c **** 
 425:Generated_Source\PSoC5/cyPm.c ****             /* Accept PLL is OK after two consecutive polls indicate PLL lock */
 426:Generated_Source\PSoC5/cyPm.c ****             if((0u != (CY_PM_FASTCLK_PLL_SR_REG & CY_PM_FASTCLK_PLL_LOCKED)) &&
 427:Generated_Source\PSoC5/cyPm.c ****                (0u != (CY_PM_FASTCLK_PLL_SR_REG & CY_PM_FASTCLK_PLL_LOCKED)))
 428:Generated_Source\PSoC5/cyPm.c ****             {
 429:Generated_Source\PSoC5/cyPm.c ****                 status = CYRET_SUCCESS;
 430:Generated_Source\PSoC5/cyPm.c ****                 break;
 431:Generated_Source\PSoC5/cyPm.c ****             }
ARM GAS  C:\Users\kelvi\AppData\Local\Temp\ccGQeHy8.s 			page 9


 432:Generated_Source\PSoC5/cyPm.c ****         }
 433:Generated_Source\PSoC5/cyPm.c **** 
 434:Generated_Source\PSoC5/cyPm.c ****         if(CYRET_TIMEOUT == status)
 435:Generated_Source\PSoC5/cyPm.c ****         {
 436:Generated_Source\PSoC5/cyPm.c ****             /*******************************************************************
 437:Generated_Source\PSoC5/cyPm.c ****             * Process the situation when PLL is not ready.
 438:Generated_Source\PSoC5/cyPm.c ****             *******************************************************************/
 439:Generated_Source\PSoC5/cyPm.c ****            /* `#START_PLL_TIMEOUT` */
 440:Generated_Source\PSoC5/cyPm.c **** 
 441:Generated_Source\PSoC5/cyPm.c ****            /* `#END` */
 442:Generated_Source\PSoC5/cyPm.c **** 
 443:Generated_Source\PSoC5/cyPm.c ****         #ifdef CY_BOOT_CY_PM_RESTORE_CLOCKS_PLL_TIMEOUT_CALLBACK
 444:Generated_Source\PSoC5/cyPm.c ****             CyBoot_CyPmRestoreClocks_PllTimeout_Callback();
 445:Generated_Source\PSoC5/cyPm.c ****         #endif /* CY_BOOT_CY_PM_RESTORE_CLOCKS_PLL_TIMEOUT_CALLBACK */
 446:Generated_Source\PSoC5/cyPm.c ****         }
 447:Generated_Source\PSoC5/cyPm.c ****     }   /* (CY_PM_ENABLED == cyPmClockBackup.pllEnableState) */
 448:Generated_Source\PSoC5/cyPm.c **** 
 449:Generated_Source\PSoC5/cyPm.c **** 
 450:Generated_Source\PSoC5/cyPm.c ****     /* PLL and IMO is ready to be source for Master clock */
 451:Generated_Source\PSoC5/cyPm.c ****     if((CY_PM_MASTER_CLK_SRC_IMO == cyPmClockBackup.masterClkSrc) ||
 452:Generated_Source\PSoC5/cyPm.c ****        (CY_PM_MASTER_CLK_SRC_PLL == cyPmClockBackup.masterClkSrc))
 453:Generated_Source\PSoC5/cyPm.c ****     {
 454:Generated_Source\PSoC5/cyPm.c ****         /* Restore Master clock divider */
 455:Generated_Source\PSoC5/cyPm.c ****         if(CY_PM_CLKDIST_MSTR0_REG != cyPmClockBackup.clkSyncDiv)
 456:Generated_Source\PSoC5/cyPm.c ****         {
 457:Generated_Source\PSoC5/cyPm.c ****             CyMasterClk_SetDivider(cyPmClockBackup.clkSyncDiv);
 458:Generated_Source\PSoC5/cyPm.c ****         }
 459:Generated_Source\PSoC5/cyPm.c **** 
 460:Generated_Source\PSoC5/cyPm.c ****         /* Restore Master clock source */
 461:Generated_Source\PSoC5/cyPm.c ****         CyMasterClk_SetSource(cyPmClockBackup.masterClkSrc);
 462:Generated_Source\PSoC5/cyPm.c ****     }
 463:Generated_Source\PSoC5/cyPm.c **** 
 464:Generated_Source\PSoC5/cyPm.c ****     /* IMO - disable if it was originally disabled */
 465:Generated_Source\PSoC5/cyPm.c ****     if((CY_PM_DISABLED == cyPmClockBackup.imoEnable) &&
 466:Generated_Source\PSoC5/cyPm.c ****        (0u != (CY_PM_ACT_CFG0_IMO & CY_PM_ACT_CFG0_REG)))
 467:Generated_Source\PSoC5/cyPm.c ****     {
 468:Generated_Source\PSoC5/cyPm.c ****         CyIMO_Stop();
 469:Generated_Source\PSoC5/cyPm.c ****     }
 470:Generated_Source\PSoC5/cyPm.c **** 
 471:Generated_Source\PSoC5/cyPm.c ****     /* Bus clock - restore divider, if needed */
 472:Generated_Source\PSoC5/cyPm.c ****     clkBusDivTmp = (uint16) ((uint16)CY_PM_CLK_BUS_MSB_DIV_REG << 8u);
 473:Generated_Source\PSoC5/cyPm.c ****     clkBusDivTmp |= CY_PM_CLK_BUS_LSB_DIV_REG;
 474:Generated_Source\PSoC5/cyPm.c ****     if(cyPmClockBackup.clkBusDiv != clkBusDivTmp)
 475:Generated_Source\PSoC5/cyPm.c ****     {
 476:Generated_Source\PSoC5/cyPm.c ****         CyBusClk_SetDivider(cyPmClockBackup.clkBusDiv);
 477:Generated_Source\PSoC5/cyPm.c ****     }
 478:Generated_Source\PSoC5/cyPm.c **** 
 479:Generated_Source\PSoC5/cyPm.c ****     /* Restore flash wait cycles */
 480:Generated_Source\PSoC5/cyPm.c ****     CY_PM_CACHE_CR_REG = ((CY_PM_CACHE_CR_REG & ((uint8)(~CY_PM_CACHE_CR_CYCLES_MASK))) |
 481:Generated_Source\PSoC5/cyPm.c ****                            cyPmClockBackup.flashWaitCycles);
 482:Generated_Source\PSoC5/cyPm.c **** 
 483:Generated_Source\PSoC5/cyPm.c ****     /* Digital and analog clocks - restore state */
 484:Generated_Source\PSoC5/cyPm.c ****     CY_PM_ACT_CFG1_REG = cyPmClockBackup.enClkA;
 485:Generated_Source\PSoC5/cyPm.c ****     CY_PM_ACT_CFG2_REG = cyPmClockBackup.enClkD;
 486:Generated_Source\PSoC5/cyPm.c **** }
 487:Generated_Source\PSoC5/cyPm.c **** 
 488:Generated_Source\PSoC5/cyPm.c **** 
ARM GAS  C:\Users\kelvi\AppData\Local\Temp\ccGQeHy8.s 			page 10


 489:Generated_Source\PSoC5/cyPm.c **** /*******************************************************************************
 490:Generated_Source\PSoC5/cyPm.c **** * Function Name: CyPmAltAct
 491:Generated_Source\PSoC5/cyPm.c **** ****************************************************************************//**
 492:Generated_Source\PSoC5/cyPm.c **** *
 493:Generated_Source\PSoC5/cyPm.c **** *  Puts the part into the Alternate Active (Standby) state. The Alternate Active
 494:Generated_Source\PSoC5/cyPm.c **** *  state can allow for any of the capabilities of the device to be active, but
 495:Generated_Source\PSoC5/cyPm.c **** *  the operation of this function is dependent on the CPU being disabled during
 496:Generated_Source\PSoC5/cyPm.c **** *  the Alternate Active state. The configuration code and the component APIs
 497:Generated_Source\PSoC5/cyPm.c **** *  will configure the template for the Alternate Active state to be the same as
 498:Generated_Source\PSoC5/cyPm.c **** *  the Active state with the exception that the CPU will be disabled during
 499:Generated_Source\PSoC5/cyPm.c **** *  Alternate Active.
 500:Generated_Source\PSoC5/cyPm.c **** *
 501:Generated_Source\PSoC5/cyPm.c **** *  Note Before calling this function, you must manually configure the power mode
 502:Generated_Source\PSoC5/cyPm.c **** *  of the source clocks for the timer that is used as the wakeup timer.
 503:Generated_Source\PSoC5/cyPm.c **** *
 504:Generated_Source\PSoC5/cyPm.c **** *  PSoC 3:
 505:Generated_Source\PSoC5/cyPm.c **** *  Before switching to Alternate Active, if a wakeupTime other than NONE is
 506:Generated_Source\PSoC5/cyPm.c **** *  specified, then the appropriate timer state is configured as specified with
 507:Generated_Source\PSoC5/cyPm.c **** *  the interrupt for that timer disabled.  The wakeup source will be the
 508:Generated_Source\PSoC5/cyPm.c **** *  combination of the values specified in the wakeupSource and any timer
 509:Generated_Source\PSoC5/cyPm.c **** *  specified in the wakeupTime argument.  Once the wakeup condition is
 510:Generated_Source\PSoC5/cyPm.c **** *  satisfied, then all saved state is restored and the function returns in the
 511:Generated_Source\PSoC5/cyPm.c **** *  Active state.
 512:Generated_Source\PSoC5/cyPm.c **** *
 513:Generated_Source\PSoC5/cyPm.c **** *  Note that if the wakeupTime is made with a different value, the period before
 514:Generated_Source\PSoC5/cyPm.c **** *  the wakeup occurs can be significantly shorter than the specified time.  If
 515:Generated_Source\PSoC5/cyPm.c **** *  the next call is made with the same wakeupTime value, then the wakeup will
 516:Generated_Source\PSoC5/cyPm.c **** *  occur the specified period after the previous wakeup occurred.
 517:Generated_Source\PSoC5/cyPm.c **** *
 518:Generated_Source\PSoC5/cyPm.c **** *  If a wakeupTime other than NONE is specified, then upon exit the state of the
 519:Generated_Source\PSoC5/cyPm.c **** *  specified timer will be left as specified by wakeupTime with the timer
 520:Generated_Source\PSoC5/cyPm.c **** *  enabled and the interrupt disabled.  If the CTW, FTW or One PPS is already
 521:Generated_Source\PSoC5/cyPm.c **** *  configured for wakeup, for example with the SleepTimer or RTC components,
 522:Generated_Source\PSoC5/cyPm.c **** *  then specify NONE for the wakeupTime and include the appropriate source for
 523:Generated_Source\PSoC5/cyPm.c **** *  wakeupSource.
 524:Generated_Source\PSoC5/cyPm.c **** *
 525:Generated_Source\PSoC5/cyPm.c **** *  PSoC 5LP:
 526:Generated_Source\PSoC5/cyPm.c **** *  This function is used to both enter the Alternate Active mode and halt the
 527:Generated_Source\PSoC5/cyPm.c **** *  processor.  For PSoC 3 these two actions must be paired together.  With PSoC
 528:Generated_Source\PSoC5/cyPm.c **** *  5LP the processor can be halted independently with the __WFI() function from
 529:Generated_Source\PSoC5/cyPm.c **** *  the CMSIS library that is included in Creator.  This function should be used
 530:Generated_Source\PSoC5/cyPm.c **** *  instead when the action required is just to halt the processor until an
 531:Generated_Source\PSoC5/cyPm.c **** *  enabled interrupt occurs.
 532:Generated_Source\PSoC5/cyPm.c **** *
 533:Generated_Source\PSoC5/cyPm.c **** *  The wakeupTime parameter is not used for this device. It must be set to zero
 534:Generated_Source\PSoC5/cyPm.c **** *  (PM_ALT_ACT_TIME_NONE). The wake up time configuration can be done by a
 535:Generated_Source\PSoC5/cyPm.c **** *  separate component: the CTW wakeup interval should be configured with the
 536:Generated_Source\PSoC5/cyPm.c **** *  Sleep Timer component and one second interval should be configured with the
 537:Generated_Source\PSoC5/cyPm.c **** *  RTC component.
 538:Generated_Source\PSoC5/cyPm.c **** *
 539:Generated_Source\PSoC5/cyPm.c **** *  The wakeup behavior depends on the wakeupSource parameter in the following
 540:Generated_Source\PSoC5/cyPm.c **** *  manner: upon function execution the device will be switched from Active to
 541:Generated_Source\PSoC5/cyPm.c **** *  Alternate Active mode and then the CPU will be halted. When an enabled wakeup
 542:Generated_Source\PSoC5/cyPm.c **** *  event occurs the device will return to Active mode.  Similarly when an
 543:Generated_Source\PSoC5/cyPm.c **** *  enabled interrupt occurs the CPU will be started. These two actions will
 544:Generated_Source\PSoC5/cyPm.c **** *  occur together provided that the event that occurs is an enabled wakeup
 545:Generated_Source\PSoC5/cyPm.c **** *  source and also generates an interrupt. If just the wakeup event occurs then
ARM GAS  C:\Users\kelvi\AppData\Local\Temp\ccGQeHy8.s 			page 11


 546:Generated_Source\PSoC5/cyPm.c **** *  the device will be in Active mode, but the CPU will remain halted waiting for
 547:Generated_Source\PSoC5/cyPm.c **** *  an interrupt. If an interrupt occurs from something other than a wakeup
 548:Generated_Source\PSoC5/cyPm.c **** *  source, then the CPU will restart with the device in Alternate Active mode
 549:Generated_Source\PSoC5/cyPm.c **** *  until a wakeup event occurs.
 550:Generated_Source\PSoC5/cyPm.c **** *
 551:Generated_Source\PSoC5/cyPm.c **** *  For example, if CyPmAltAct(PM_ALT_ACT_TIME_NONE, PM_ALT_ACT_SRC_PICU) is
 552:Generated_Source\PSoC5/cyPm.c **** *  called and PICU interrupt occurs, the CPU will be started and device will be
 553:Generated_Source\PSoC5/cyPm.c **** *  switched into Active mode. And if CyPmAltAct(PM_ALT_ACT_TIME_NONE,
 554:Generated_Source\PSoC5/cyPm.c **** *  PM_ALT_ACT_SRC_NONE) is called and PICU interrupt occurs, the CPU will be
 555:Generated_Source\PSoC5/cyPm.c **** *  started while device remains in Alternate Active mode.
 556:Generated_Source\PSoC5/cyPm.c **** *
 557:Generated_Source\PSoC5/cyPm.c **** *  \param wakeupTime: Specifies a timer wakeup source and the frequency of that
 558:Generated_Source\PSoC5/cyPm.c **** *              source. For PSoC 5LP this parameter is ignored.
 559:Generated_Source\PSoC5/cyPm.c **** *
 560:Generated_Source\PSoC5/cyPm.c **** *           Define                      Time
 561:Generated_Source\PSoC5/cyPm.c **** *  PM_ALT_ACT_TIME_NONE             None
 562:Generated_Source\PSoC5/cyPm.c **** *  \param PM_ALT_ACT_TIME_ONE_PPS          One PPS: 1 second
 563:Generated_Source\PSoC5/cyPm.c **** *  \param PM_ALT_ACT_TIME_CTW_2MS          CTW: 2 ms
 564:Generated_Source\PSoC5/cyPm.c **** *  \param PM_ALT_ACT_TIME_CTW_4MS          CTW: 4 ms
 565:Generated_Source\PSoC5/cyPm.c **** *  \param PM_ALT_ACT_TIME_CTW_8MS          CTW: 8 ms
 566:Generated_Source\PSoC5/cyPm.c **** *  \param PM_ALT_ACT_TIME_CTW_16MS         CTW: 16 ms
 567:Generated_Source\PSoC5/cyPm.c **** *  \param PM_ALT_ACT_TIME_CTW_32MS         CTW: 32 ms
 568:Generated_Source\PSoC5/cyPm.c **** *  \param PM_ALT_ACT_TIME_CTW_64MS         CTW: 64 ms
 569:Generated_Source\PSoC5/cyPm.c **** *  \param PM_ALT_ACT_TIME_CTW_128MS        CTW: 128 ms
 570:Generated_Source\PSoC5/cyPm.c **** *  \param PM_ALT_ACT_TIME_CTW_256MS        CTW: 256 ms
 571:Generated_Source\PSoC5/cyPm.c **** *  \param PM_ALT_ACT_TIME_CTW_512MS        CTW: 512 ms
 572:Generated_Source\PSoC5/cyPm.c **** *  \param PM_ALT_ACT_TIME_CTW_1024MS       CTW: 1024 ms
 573:Generated_Source\PSoC5/cyPm.c **** *  \param PM_ALT_ACT_TIME_CTW_2048MS       CTW: 2048 ms
 574:Generated_Source\PSoC5/cyPm.c **** *  \param PM_ALT_ACT_TIME_CTW_4096MS       CTW: 4096 ms
 575:Generated_Source\PSoC5/cyPm.c **** *  PM_ALT_ACT_TIME_FTW(1-256)*       FTW: 10us to 2.56 ms
 576:Generated_Source\PSoC5/cyPm.c **** *
 577:Generated_Source\PSoC5/cyPm.c **** *  \param *Note:   PM_ALT_ACT_TIME_FTW() is a macro that takes an argument that
 578:Generated_Source\PSoC5/cyPm.c **** *           specifies how many increments of 10 us to delay.
 579:Generated_Source\PSoC5/cyPm.c ****             For PSoC 3 silicon the valid range of  values is 1 to 256.
 580:Generated_Source\PSoC5/cyPm.c **** *
 581:Generated_Source\PSoC5/cyPm.c **** *  \param wakeUpSource:    Specifies a bitwise mask of wakeup sources. In addition, if
 582:Generated_Source\PSoC5/cyPm.c **** *                   a wakeupTime has been specified, the associated timer will
 583:Generated_Source\PSoC5/cyPm.c **** *                   be included as a wakeup source.
 584:Generated_Source\PSoC5/cyPm.c **** *
 585:Generated_Source\PSoC5/cyPm.c **** *           Define                      Source
 586:Generated_Source\PSoC5/cyPm.c **** *  PM_ALT_ACT_SRC_NONE              None
 587:Generated_Source\PSoC5/cyPm.c **** *  PM_ALT_ACT_SRC_COMPARATOR0       Comparator 0
 588:Generated_Source\PSoC5/cyPm.c **** *  PM_ALT_ACT_SRC_COMPARATOR1       Comparator 1
 589:Generated_Source\PSoC5/cyPm.c **** *  PM_ALT_ACT_SRC_COMPARATOR2       Comparator 2
 590:Generated_Source\PSoC5/cyPm.c **** *  PM_ALT_ACT_SRC_COMPARATOR3       Comparator 3
 591:Generated_Source\PSoC5/cyPm.c **** *  PM_ALT_ACT_SRC_INTERRUPT         Interrupt
 592:Generated_Source\PSoC5/cyPm.c **** *  PM_ALT_ACT_SRC_PICU              PICU
 593:Generated_Source\PSoC5/cyPm.c **** *  PM_ALT_ACT_SRC_I2C               I2C
 594:Generated_Source\PSoC5/cyPm.c **** *  PM_ALT_ACT_SRC_BOOSTCONVERTER    Boost Converter
 595:Generated_Source\PSoC5/cyPm.c **** *  PM_ALT_ACT_SRC_FTW               Fast Timewheel*
 596:Generated_Source\PSoC5/cyPm.c **** *  PM_ALT_ACT_SRC_VD                High and Low Voltage Detection (HVI, LVI)*
 597:Generated_Source\PSoC5/cyPm.c **** *  PM_ALT_ACT_SRC_CTW               Central Timewheel**
 598:Generated_Source\PSoC5/cyPm.c **** *  PM_ALT_ACT_SRC_ONE_PPS           One PPS**
 599:Generated_Source\PSoC5/cyPm.c **** *  PM_ALT_ACT_SRC_LCD               LCD
 600:Generated_Source\PSoC5/cyPm.c **** *
 601:Generated_Source\PSoC5/cyPm.c **** *  \param *Note : FTW and HVI/LVI wakeup signals are in the same mask bit.
 602:Generated_Source\PSoC5/cyPm.c **** *  \param **Note: CTW and One PPS wakeup signals are in the same mask bit.
ARM GAS  C:\Users\kelvi\AppData\Local\Temp\ccGQeHy8.s 			page 12


 603:Generated_Source\PSoC5/cyPm.c **** *
 604:Generated_Source\PSoC5/cyPm.c **** *  When specifying a Comparator as the wakeupSource, an instance specific define
 605:Generated_Source\PSoC5/cyPm.c **** *  that will track with the specific comparator that the instance
 606:Generated_Source\PSoC5/cyPm.c **** *  is placed into should be used. As an example, for a Comparator instance named
 607:Generated_Source\PSoC5/cyPm.c **** *  \param MyComp the value to OR into the mask is: MyComp_ctComp__CMP_MASK.
 608:Generated_Source\PSoC5/cyPm.c **** *
 609:Generated_Source\PSoC5/cyPm.c **** *  When CTW, FTW or One PPS is used as a wakeup source, the CyPmReadStatus()
 610:Generated_Source\PSoC5/cyPm.c **** *  function must be called upon wakeup with a corresponding parameter. Please
 611:Generated_Source\PSoC5/cyPm.c **** *  refer to the CyPmReadStatus() API in the System Reference Guide for more
 612:Generated_Source\PSoC5/cyPm.c **** *  information.
 613:Generated_Source\PSoC5/cyPm.c **** *
 614:Generated_Source\PSoC5/cyPm.c **** * Reentrant:
 615:Generated_Source\PSoC5/cyPm.c **** *  No
 616:Generated_Source\PSoC5/cyPm.c **** *
 617:Generated_Source\PSoC5/cyPm.c **** * \sideeffect
 618:Generated_Source\PSoC5/cyPm.c **** *  If a wakeupTime other than NONE is specified, then upon exit the state of the
 619:Generated_Source\PSoC5/cyPm.c **** *  specified timer will be left as specified by wakeupTime with the timer
 620:Generated_Source\PSoC5/cyPm.c **** *  enabled and the interrupt disabled.  Also, the ILO 1 KHz (if CTW timer is
 621:Generated_Source\PSoC5/cyPm.c **** *  used as wakeup time) or ILO 100 KHz (if the FTW timer is used as wakeup time)
 622:Generated_Source\PSoC5/cyPm.c **** *  will be left started.
 623:Generated_Source\PSoC5/cyPm.c **** *
 624:Generated_Source\PSoC5/cyPm.c **** *******************************************************************************/
 625:Generated_Source\PSoC5/cyPm.c **** void CyPmAltAct(uint16 wakeupTime, uint16 wakeupSource) 
 626:Generated_Source\PSoC5/cyPm.c **** {
 627:Generated_Source\PSoC5/cyPm.c ****     #if(CY_PSOC5)
 628:Generated_Source\PSoC5/cyPm.c **** 
 629:Generated_Source\PSoC5/cyPm.c ****         /* Arguments expected to be 0 */
 630:Generated_Source\PSoC5/cyPm.c ****         CYASSERT(PM_ALT_ACT_TIME_NONE == wakeupTime);
 631:Generated_Source\PSoC5/cyPm.c **** 
 632:Generated_Source\PSoC5/cyPm.c ****         if(0u != wakeupTime)
 633:Generated_Source\PSoC5/cyPm.c ****         {
 634:Generated_Source\PSoC5/cyPm.c ****             /* To remove unreferenced local variable warning */
 635:Generated_Source\PSoC5/cyPm.c ****         }
 636:Generated_Source\PSoC5/cyPm.c **** 
 637:Generated_Source\PSoC5/cyPm.c ****     #endif /* (CY_PSOC5) */
 638:Generated_Source\PSoC5/cyPm.c **** 
 639:Generated_Source\PSoC5/cyPm.c **** 
 640:Generated_Source\PSoC5/cyPm.c ****     #if(CY_PSOC3)
 641:Generated_Source\PSoC5/cyPm.c **** 
 642:Generated_Source\PSoC5/cyPm.c ****         /* FTW - save current and set new configuration */
 643:Generated_Source\PSoC5/cyPm.c ****         if((wakeupTime >= PM_ALT_ACT_TIME_FTW(1u)) && (wakeupTime <= PM_ALT_ACT_TIME_FTW(256u)))
 644:Generated_Source\PSoC5/cyPm.c ****         {
 645:Generated_Source\PSoC5/cyPm.c ****             CyPmFtwSetInterval(PM_ALT_ACT_FTW_INTERVAL(wakeupTime));
 646:Generated_Source\PSoC5/cyPm.c **** 
 647:Generated_Source\PSoC5/cyPm.c ****             /* Include associated timer to wakeupSource */
 648:Generated_Source\PSoC5/cyPm.c ****             wakeupSource |= PM_ALT_ACT_SRC_FTW;
 649:Generated_Source\PSoC5/cyPm.c ****         }
 650:Generated_Source\PSoC5/cyPm.c **** 
 651:Generated_Source\PSoC5/cyPm.c ****         /* CTW - save current and set new configuration */
 652:Generated_Source\PSoC5/cyPm.c ****         if((wakeupTime >= PM_ALT_ACT_TIME_CTW_2MS) && (wakeupTime <= PM_ALT_ACT_TIME_CTW_4096MS))
 653:Generated_Source\PSoC5/cyPm.c ****         {
 654:Generated_Source\PSoC5/cyPm.c ****             /* Save current CTW configuration and set new one */
 655:Generated_Source\PSoC5/cyPm.c ****             CyPmCtwSetInterval((uint8)(wakeupTime - 1u));
 656:Generated_Source\PSoC5/cyPm.c **** 
 657:Generated_Source\PSoC5/cyPm.c ****             /* Include associated timer to wakeupSource */
 658:Generated_Source\PSoC5/cyPm.c ****             wakeupSource |= PM_ALT_ACT_SRC_CTW;
 659:Generated_Source\PSoC5/cyPm.c ****         }
ARM GAS  C:\Users\kelvi\AppData\Local\Temp\ccGQeHy8.s 			page 13


 660:Generated_Source\PSoC5/cyPm.c **** 
 661:Generated_Source\PSoC5/cyPm.c ****         /* 1PPS - save current and set new configuration */
 662:Generated_Source\PSoC5/cyPm.c ****         if(PM_ALT_ACT_TIME_ONE_PPS == wakeupTime)
 663:Generated_Source\PSoC5/cyPm.c ****         {
 664:Generated_Source\PSoC5/cyPm.c ****             /* Save current 1PPS configuration and set new one */
 665:Generated_Source\PSoC5/cyPm.c ****             CyPmOppsSet();
 666:Generated_Source\PSoC5/cyPm.c **** 
 667:Generated_Source\PSoC5/cyPm.c ****             /* Include associated timer to wakeupSource */
 668:Generated_Source\PSoC5/cyPm.c ****             wakeupSource |= PM_ALT_ACT_SRC_ONE_PPS;
 669:Generated_Source\PSoC5/cyPm.c ****         }
 670:Generated_Source\PSoC5/cyPm.c **** 
 671:Generated_Source\PSoC5/cyPm.c ****     #endif /* (CY_PSOC3) */
 672:Generated_Source\PSoC5/cyPm.c **** 
 673:Generated_Source\PSoC5/cyPm.c **** 
 674:Generated_Source\PSoC5/cyPm.c ****     /* Save and set new wake up configuration */
 675:Generated_Source\PSoC5/cyPm.c **** 
 676:Generated_Source\PSoC5/cyPm.c ****     /* Interrupt, PICU, I2C, Boost converter, CTW/1PPS */
 677:Generated_Source\PSoC5/cyPm.c ****     cyPmBackup.wakeupCfg0 = CY_PM_WAKEUP_CFG0_REG;
 678:Generated_Source\PSoC5/cyPm.c ****     CY_PM_WAKEUP_CFG0_REG = (uint8) (wakeupSource >> 4u);
 679:Generated_Source\PSoC5/cyPm.c **** 
 680:Generated_Source\PSoC5/cyPm.c ****     /* Comparators */
 681:Generated_Source\PSoC5/cyPm.c ****     cyPmBackup.wakeupCfg1 = CY_PM_WAKEUP_CFG1_REG;
 682:Generated_Source\PSoC5/cyPm.c ****     CY_PM_WAKEUP_CFG1_REG = (((uint8) wakeupSource) & CY_PM_WAKEUP_SRC_CMPS_MASK);
 683:Generated_Source\PSoC5/cyPm.c **** 
 684:Generated_Source\PSoC5/cyPm.c ****     /* LCD */
 685:Generated_Source\PSoC5/cyPm.c ****     cyPmBackup.wakeupCfg2 = CY_PM_WAKEUP_CFG2_REG;
 686:Generated_Source\PSoC5/cyPm.c ****     CY_PM_WAKEUP_CFG2_REG = ((uint8) ((wakeupSource >> 12u) & 0x01u));
 687:Generated_Source\PSoC5/cyPm.c **** 
 688:Generated_Source\PSoC5/cyPm.c **** 
 689:Generated_Source\PSoC5/cyPm.c ****     /* Switch to the Alternate Active mode */
 690:Generated_Source\PSoC5/cyPm.c ****     CY_PM_MODE_CSR_REG = ((CY_PM_MODE_CSR_REG & ((uint8)(~CY_PM_MODE_CSR_MASK))) | CY_PM_MODE_CSR_A
 691:Generated_Source\PSoC5/cyPm.c **** 
 692:Generated_Source\PSoC5/cyPm.c ****     /* Recommended readback. */
 693:Generated_Source\PSoC5/cyPm.c ****     (void) CY_PM_MODE_CSR_REG;
 694:Generated_Source\PSoC5/cyPm.c **** 
 695:Generated_Source\PSoC5/cyPm.c ****     /* Two recommended NOPs to get into the mode. */
 696:Generated_Source\PSoC5/cyPm.c ****     CY_NOP;
 697:Generated_Source\PSoC5/cyPm.c ****     CY_NOP;
 698:Generated_Source\PSoC5/cyPm.c **** 
 699:Generated_Source\PSoC5/cyPm.c ****     /* Execute WFI instruction (for ARM-based devices only) */
 700:Generated_Source\PSoC5/cyPm.c ****     CY_PM_WFI;
 701:Generated_Source\PSoC5/cyPm.c **** 
 702:Generated_Source\PSoC5/cyPm.c ****     /* Point of return from Alternate Active Mode */
 703:Generated_Source\PSoC5/cyPm.c **** 
 704:Generated_Source\PSoC5/cyPm.c ****     /* Restore wake up configuration */
 705:Generated_Source\PSoC5/cyPm.c ****     CY_PM_WAKEUP_CFG0_REG = cyPmBackup.wakeupCfg0;
 706:Generated_Source\PSoC5/cyPm.c ****     CY_PM_WAKEUP_CFG1_REG = cyPmBackup.wakeupCfg1;
 707:Generated_Source\PSoC5/cyPm.c ****     CY_PM_WAKEUP_CFG2_REG = cyPmBackup.wakeupCfg2;
 708:Generated_Source\PSoC5/cyPm.c **** }
 709:Generated_Source\PSoC5/cyPm.c **** 
 710:Generated_Source\PSoC5/cyPm.c **** 
 711:Generated_Source\PSoC5/cyPm.c **** /*******************************************************************************
 712:Generated_Source\PSoC5/cyPm.c **** * Function Name: CyPmSleep
 713:Generated_Source\PSoC5/cyPm.c **** ****************************************************************************//**
 714:Generated_Source\PSoC5/cyPm.c **** *
 715:Generated_Source\PSoC5/cyPm.c **** *  Puts the part into the Sleep state.
 716:Generated_Source\PSoC5/cyPm.c **** *
ARM GAS  C:\Users\kelvi\AppData\Local\Temp\ccGQeHy8.s 			page 14


 717:Generated_Source\PSoC5/cyPm.c **** *  Note Before calling this function, you must manually configure the power
 718:Generated_Source\PSoC5/cyPm.c **** *  mode of the source clocks for the timer that is used as the wakeup timer.
 719:Generated_Source\PSoC5/cyPm.c **** *
 720:Generated_Source\PSoC5/cyPm.c **** *  Note Before calling this function, you must prepare clock tree configuration
 721:Generated_Source\PSoC5/cyPm.c **** *  for the low power mode by calling CyPmSaveClocks(). And restore clock
 722:Generated_Source\PSoC5/cyPm.c **** *  configuration after CyPmSleep() execution by calling CyPmRestoreClocks(). See
 723:Generated_Source\PSoC5/cyPm.c **** *  Power Management section, Clock Configuration subsection of the System
 724:Generated_Source\PSoC5/cyPm.c **** *  Reference Guide for more information.
 725:Generated_Source\PSoC5/cyPm.c **** *
 726:Generated_Source\PSoC5/cyPm.c **** *  PSoC 3:
 727:Generated_Source\PSoC5/cyPm.c **** *  Before switching to Sleep, if a wakeupTime other than NONE is specified,
 728:Generated_Source\PSoC5/cyPm.c **** *  then the appropriate timer state is configured as specified with the
 729:Generated_Source\PSoC5/cyPm.c **** *  interrupt for that timer disabled.  The wakeup source will be a combination
 730:Generated_Source\PSoC5/cyPm.c **** *  of the values specified in the wakeupSource and any timer specified in the
 731:Generated_Source\PSoC5/cyPm.c **** *  wakeupTime argument.  Once the wakeup condition is satisfied, then all saved
 732:Generated_Source\PSoC5/cyPm.c **** *  state is restored and the function returns in the Active state.
 733:Generated_Source\PSoC5/cyPm.c **** *
 734:Generated_Source\PSoC5/cyPm.c **** *  Note that if the wakeupTime is made with a different value, the period before
 735:Generated_Source\PSoC5/cyPm.c **** *  the wakeup occurs can be significantly shorter than the specified time.  If
 736:Generated_Source\PSoC5/cyPm.c **** *  the next call is made with the same wakeupTime value, then the wakeup will
 737:Generated_Source\PSoC5/cyPm.c **** *  occur the specified period after the previous wakeup occurred.
 738:Generated_Source\PSoC5/cyPm.c **** *
 739:Generated_Source\PSoC5/cyPm.c **** *  If a wakeupTime other than NONE is specified, then upon exit the state of the
 740:Generated_Source\PSoC5/cyPm.c **** *  specified timer will be left as specified by wakeupTime with the timer
 741:Generated_Source\PSoC5/cyPm.c **** *  enabled and the interrupt disabled.  If the CTW or One PPS is already
 742:Generated_Source\PSoC5/cyPm.c **** *  configured for wakeup, for example with the SleepTimer or RTC components,
 743:Generated_Source\PSoC5/cyPm.c **** *  then specify NONE for the wakeupTime and include the appropriate source for
 744:Generated_Source\PSoC5/cyPm.c **** *  wakeupSource.
 745:Generated_Source\PSoC5/cyPm.c **** *
 746:Generated_Source\PSoC5/cyPm.c **** *  PSoC 5LP:
 747:Generated_Source\PSoC5/cyPm.c **** *  The wakeupTime parameter is not used and the only NONE can be specified.
 748:Generated_Source\PSoC5/cyPm.c **** *  The wakeup time must be configured with the component, SleepTimer for CTW
 749:Generated_Source\PSoC5/cyPm.c **** *  intervals and RTC for 1PPS interval. The component must be configured to
 750:Generated_Source\PSoC5/cyPm.c **** *  generate interrupt.
 751:Generated_Source\PSoC5/cyPm.c **** *
 752:Generated_Source\PSoC5/cyPm.c **** *  \param wakeupTime:      Specifies a timer wakeup source and the frequency of that
 753:Generated_Source\PSoC5/cyPm.c **** *                   source. For PSoC 5LP, this parameter is ignored.
 754:Generated_Source\PSoC5/cyPm.c **** *
 755:Generated_Source\PSoC5/cyPm.c **** *           Define                      Time
 756:Generated_Source\PSoC5/cyPm.c **** *  PM_SLEEP_TIME_NONE               None
 757:Generated_Source\PSoC5/cyPm.c **** *  \param PM_SLEEP_TIME_ONE_PPS            One PPS: 1 second
 758:Generated_Source\PSoC5/cyPm.c **** *  \param PM_SLEEP_TIME_CTW_2MS            CTW: 2 ms
 759:Generated_Source\PSoC5/cyPm.c **** *  \param PM_SLEEP_TIME_CTW_4MS            CTW: 4 ms
 760:Generated_Source\PSoC5/cyPm.c **** *  \param PM_SLEEP_TIME_CTW_8MS            CTW: 8 ms
 761:Generated_Source\PSoC5/cyPm.c **** *  \param PM_SLEEP_TIME_CTW_16MS           CTW: 16 ms
 762:Generated_Source\PSoC5/cyPm.c **** *  \param PM_SLEEP_TIME_CTW_32MS           CTW: 32 ms
 763:Generated_Source\PSoC5/cyPm.c **** *  \param PM_SLEEP_TIME_CTW_64MS           CTW: 64 ms
 764:Generated_Source\PSoC5/cyPm.c **** *  \param PM_SLEEP_TIME_CTW_128MS          CTW: 128 ms
 765:Generated_Source\PSoC5/cyPm.c **** *  \param PM_SLEEP_TIME_CTW_256MS          CTW: 256 ms
 766:Generated_Source\PSoC5/cyPm.c **** *  \param PM_SLEEP_TIME_CTW_512MS          CTW: 512 ms
 767:Generated_Source\PSoC5/cyPm.c **** *  \param PM_SLEEP_TIME_CTW_1024MS         CTW: 1024 ms
 768:Generated_Source\PSoC5/cyPm.c **** *  \param PM_SLEEP_TIME_CTW_2048MS         CTW: 2048 ms
 769:Generated_Source\PSoC5/cyPm.c **** *  \param PM_SLEEP_TIME_CTW_4096MS         CTW: 4096 ms
 770:Generated_Source\PSoC5/cyPm.c **** *
 771:Generated_Source\PSoC5/cyPm.c **** *  \param wakeUpSource:    Specifies a bitwise mask of wakeup sources. In addition, if
 772:Generated_Source\PSoC5/cyPm.c **** *                   a wakeupTime has been specified the associated timer will be
 773:Generated_Source\PSoC5/cyPm.c **** *                   included as a wakeup source.
ARM GAS  C:\Users\kelvi\AppData\Local\Temp\ccGQeHy8.s 			page 15


 774:Generated_Source\PSoC5/cyPm.c **** *
 775:Generated_Source\PSoC5/cyPm.c **** *           Define                      Source
 776:Generated_Source\PSoC5/cyPm.c **** *  PM_SLEEP_SRC_NONE                None
 777:Generated_Source\PSoC5/cyPm.c **** *  PM_SLEEP_SRC_COMPARATOR0         Comparator 0
 778:Generated_Source\PSoC5/cyPm.c **** *  PM_SLEEP_SRC_COMPARATOR1         Comparator 1
 779:Generated_Source\PSoC5/cyPm.c **** *  PM_SLEEP_SRC_COMPARATOR2         Comparator 2
 780:Generated_Source\PSoC5/cyPm.c **** *  PM_SLEEP_SRC_COMPARATOR3         Comparator 3
 781:Generated_Source\PSoC5/cyPm.c **** *  PM_SLEEP_SRC_PICU                PICU
 782:Generated_Source\PSoC5/cyPm.c **** *  PM_SLEEP_SRC_I2C                 I2C
 783:Generated_Source\PSoC5/cyPm.c **** *  PM_SLEEP_SRC_BOOSTCONVERTER      Boost Converter
 784:Generated_Source\PSoC5/cyPm.c **** *  PM_SLEEP_SRC_VD                  High and Low Voltage Detection (HVI, LVI)
 785:Generated_Source\PSoC5/cyPm.c **** *  PM_SLEEP_SRC_CTW                 Central Timewheel*
 786:Generated_Source\PSoC5/cyPm.c **** *  PM_SLEEP_SRC_ONE_PPS             One PPS*
 787:Generated_Source\PSoC5/cyPm.c **** *  PM_SLEEP_SRC_LCD                 LCD
 788:Generated_Source\PSoC5/cyPm.c **** *
 789:Generated_Source\PSoC5/cyPm.c **** *  \param *Note:   CTW and One PPS wakeup signals are in the same mask bit.
 790:Generated_Source\PSoC5/cyPm.c **** *
 791:Generated_Source\PSoC5/cyPm.c **** *  When specifying a Comparator as the wakeupSource an instance specific define
 792:Generated_Source\PSoC5/cyPm.c **** *  should be used that will track with the specific comparator that the instance
 793:Generated_Source\PSoC5/cyPm.c **** *  is placed into. As an example for a Comparator instance named MyComp the
 794:Generated_Source\PSoC5/cyPm.c **** *  \param value to OR into the mask is: MyComp_ctComp__CMP_MASK.
 795:Generated_Source\PSoC5/cyPm.c **** *
 796:Generated_Source\PSoC5/cyPm.c **** *  When CTW or One PPS is used as a wakeup source, the CyPmReadStatus()
 797:Generated_Source\PSoC5/cyPm.c **** *  function must be called upon wakeup with corresponding parameter. Please
 798:Generated_Source\PSoC5/cyPm.c **** *  refer to the CyPmReadStatus() API in the System Reference Guide for more
 799:Generated_Source\PSoC5/cyPm.c **** *  information.
 800:Generated_Source\PSoC5/cyPm.c **** *
 801:Generated_Source\PSoC5/cyPm.c **** * Reentrant:
 802:Generated_Source\PSoC5/cyPm.c **** *  No
 803:Generated_Source\PSoC5/cyPm.c **** *
 804:Generated_Source\PSoC5/cyPm.c **** * Side Effects and Restrictions:
 805:Generated_Source\PSoC5/cyPm.c **** *  If a wakeupTime other than NONE is specified, then upon exit the state of the
 806:Generated_Source\PSoC5/cyPm.c **** *  specified timer will be left as specified by wakeupTime with the timer
 807:Generated_Source\PSoC5/cyPm.c **** *  enabled and the interrupt disabled. Also, the ILO 1 KHz (if CTW timer is
 808:Generated_Source\PSoC5/cyPm.c **** *  used as wake up time) will be left started.
 809:Generated_Source\PSoC5/cyPm.c **** *
 810:Generated_Source\PSoC5/cyPm.c **** *  The 1 kHz ILO clock is expected to be enabled for PSoC 3 and PSoC 5LP to
 811:Generated_Source\PSoC5/cyPm.c **** *  measure Hibernate/Sleep regulator settling time after a reset. The holdoff
 812:Generated_Source\PSoC5/cyPm.c **** *  delay is measured using rising edges of the 1 kHz ILO.
 813:Generated_Source\PSoC5/cyPm.c **** *
 814:Generated_Source\PSoC5/cyPm.c **** *  For PSoC 3 silicon hardware buzz should be disabled before entering a sleep
 815:Generated_Source\PSoC5/cyPm.c **** *  power mode. It is disabled by PSoC Creator during startup.
 816:Generated_Source\PSoC5/cyPm.c **** *  If a Low Voltage Interrupt (LVI), High Voltage Interrupt (HVI) or Brown Out
 817:Generated_Source\PSoC5/cyPm.c **** *  detect (power supply supervising capabilities) are required in a design
 818:Generated_Source\PSoC5/cyPm.c **** *  during sleep, use the Central Time Wheel (CTW) to periodically wake the
 819:Generated_Source\PSoC5/cyPm.c **** *  device, perform software buzz, and refresh the supervisory services. If LVI,
 820:Generated_Source\PSoC5/cyPm.c **** *  HVI, or Brown Out is not required, then CTW is not required.
 821:Generated_Source\PSoC5/cyPm.c **** *  Refer to the device errata for more information.
 822:Generated_Source\PSoC5/cyPm.c **** *
 823:Generated_Source\PSoC5/cyPm.c **** *******************************************************************************/
 824:Generated_Source\PSoC5/cyPm.c **** void CyPmSleep(uint8 wakeupTime, uint16 wakeupSource) 
 825:Generated_Source\PSoC5/cyPm.c **** {
 826:Generated_Source\PSoC5/cyPm.c ****     uint8 interruptState;
 827:Generated_Source\PSoC5/cyPm.c **** 
 828:Generated_Source\PSoC5/cyPm.c ****     /* Save current global interrupt enable and disable it */
 829:Generated_Source\PSoC5/cyPm.c ****     interruptState = CyEnterCriticalSection();
 830:Generated_Source\PSoC5/cyPm.c **** 
ARM GAS  C:\Users\kelvi\AppData\Local\Temp\ccGQeHy8.s 			page 16


 831:Generated_Source\PSoC5/cyPm.c **** 
 832:Generated_Source\PSoC5/cyPm.c ****     /***********************************************************************
 833:Generated_Source\PSoC5/cyPm.c ****     * The Hibernate/Sleep regulator has a settling time after a reset.
 834:Generated_Source\PSoC5/cyPm.c ****     * During this time, the system ignores requests to enter Sleep and
 835:Generated_Source\PSoC5/cyPm.c ****     * Hibernate modes. The holdoff delay is measured using rising edges of
 836:Generated_Source\PSoC5/cyPm.c ****     * the 1 kHz ILO.
 837:Generated_Source\PSoC5/cyPm.c ****     ***********************************************************************/
 838:Generated_Source\PSoC5/cyPm.c ****     if(0u == (CY_PM_MODE_CSR_REG & CY_PM_MODE_CSR_PWRUP_PULSE_Q))
 839:Generated_Source\PSoC5/cyPm.c ****     {
 840:Generated_Source\PSoC5/cyPm.c ****         /* Disable hold off - no action on restore */
 841:Generated_Source\PSoC5/cyPm.c ****         CY_PM_PWRSYS_SLP_TR_REG &= CY_PM_PWRSYS_SLP_TR_HIBSLP_HOLDOFF_MASK;
 842:Generated_Source\PSoC5/cyPm.c ****     }
 843:Generated_Source\PSoC5/cyPm.c ****     else
 844:Generated_Source\PSoC5/cyPm.c ****     {
 845:Generated_Source\PSoC5/cyPm.c ****         /* Abort, device is not ready for low power mode entry */
 846:Generated_Source\PSoC5/cyPm.c **** 
 847:Generated_Source\PSoC5/cyPm.c ****         /* Restore global interrupt enable state */
 848:Generated_Source\PSoC5/cyPm.c ****         CyExitCriticalSection(interruptState);
 849:Generated_Source\PSoC5/cyPm.c **** 
 850:Generated_Source\PSoC5/cyPm.c ****         return;
 851:Generated_Source\PSoC5/cyPm.c ****     }
 852:Generated_Source\PSoC5/cyPm.c **** 
 853:Generated_Source\PSoC5/cyPm.c **** 
 854:Generated_Source\PSoC5/cyPm.c ****     /***********************************************************************
 855:Generated_Source\PSoC5/cyPm.c ****     * PSoC3 < TO6:
 856:Generated_Source\PSoC5/cyPm.c ****     * - Hardware buzz must be disabled before the sleep mode entry.
 857:Generated_Source\PSoC5/cyPm.c ****     * - Voltage supervision (HVI/LVI) requires hardware buzz, so they must
 858:Generated_Source\PSoC5/cyPm.c ****     *   be also disabled.
 859:Generated_Source\PSoC5/cyPm.c ****     *
 860:Generated_Source\PSoC5/cyPm.c ****     * PSoC3 >= TO6:
 861:Generated_Source\PSoC5/cyPm.c ****     * - Voltage supervision (HVI/LVI) requires hardware buzz, so hardware
 862:Generated_Source\PSoC5/cyPm.c ****     *   buzz must be enabled before the sleep mode entry and restored on
 863:Generated_Source\PSoC5/cyPm.c ****     *   the wakeup.
 864:Generated_Source\PSoC5/cyPm.c ****     ***********************************************************************/
 865:Generated_Source\PSoC5/cyPm.c ****     #if(CY_PSOC3)
 866:Generated_Source\PSoC5/cyPm.c **** 
 867:Generated_Source\PSoC5/cyPm.c ****         /* Silicon Revision ID is below TO6 */
 868:Generated_Source\PSoC5/cyPm.c ****         if(CYDEV_CHIP_REV_ACTUAL < 5u)
 869:Generated_Source\PSoC5/cyPm.c ****         {
 870:Generated_Source\PSoC5/cyPm.c ****             /* Hardware buzz expected to be disabled in Sleep mode */
 871:Generated_Source\PSoC5/cyPm.c ****             CYASSERT(0u == (CY_PM_PWRSYS_WAKE_TR2_REG & CY_PM_PWRSYS_WAKE_TR2_EN_BUZZ));
 872:Generated_Source\PSoC5/cyPm.c ****         }
 873:Generated_Source\PSoC5/cyPm.c **** 
 874:Generated_Source\PSoC5/cyPm.c **** 
 875:Generated_Source\PSoC5/cyPm.c ****         if(0u != (CY_PM_RESET_CR1_REG & (CY_PM_RESET_CR1_HVIA_EN |
 876:Generated_Source\PSoC5/cyPm.c ****             CY_PM_RESET_CR1_LVIA_EN | CY_PM_RESET_CR1_LVID_EN)))
 877:Generated_Source\PSoC5/cyPm.c ****         {
 878:Generated_Source\PSoC5/cyPm.c ****             if(CYDEV_CHIP_REV_ACTUAL < 5u)
 879:Generated_Source\PSoC5/cyPm.c ****             {
 880:Generated_Source\PSoC5/cyPm.c ****                 /* LVI/HVI requires hardware buzz to be enabled */
 881:Generated_Source\PSoC5/cyPm.c ****                 CYASSERT(0u != 0u);
 882:Generated_Source\PSoC5/cyPm.c ****             }
 883:Generated_Source\PSoC5/cyPm.c ****             else
 884:Generated_Source\PSoC5/cyPm.c ****             {
 885:Generated_Source\PSoC5/cyPm.c ****                 if (0u == (CY_PM_PWRSYS_WAKE_TR2_REG & CY_PM_PWRSYS_WAKE_TR2_EN_BUZZ))
 886:Generated_Source\PSoC5/cyPm.c ****                 {
 887:Generated_Source\PSoC5/cyPm.c ****                     cyPmBackup.hardwareBuzz = CY_PM_DISABLED;
ARM GAS  C:\Users\kelvi\AppData\Local\Temp\ccGQeHy8.s 			page 17


 888:Generated_Source\PSoC5/cyPm.c ****                     CY_PM_PWRSYS_WAKE_TR2_REG |= CY_PM_PWRSYS_WAKE_TR2_EN_BUZZ;
 889:Generated_Source\PSoC5/cyPm.c ****                 }
 890:Generated_Source\PSoC5/cyPm.c ****                 else
 891:Generated_Source\PSoC5/cyPm.c ****                 {
 892:Generated_Source\PSoC5/cyPm.c ****                     cyPmBackup.hardwareBuzz = CY_PM_ENABLED;
 893:Generated_Source\PSoC5/cyPm.c ****                 }
 894:Generated_Source\PSoC5/cyPm.c ****             }
 895:Generated_Source\PSoC5/cyPm.c ****         }
 896:Generated_Source\PSoC5/cyPm.c **** 
 897:Generated_Source\PSoC5/cyPm.c ****     #endif /* (CY_PSOC3) */
 898:Generated_Source\PSoC5/cyPm.c **** 
 899:Generated_Source\PSoC5/cyPm.c **** 
 900:Generated_Source\PSoC5/cyPm.c ****     /*******************************************************************************
 901:Generated_Source\PSoC5/cyPm.c ****     * For ARM-based devices,interrupt is required for the CPU to wake up. The
 902:Generated_Source\PSoC5/cyPm.c ****     * Power Management implementation assumes that wakeup time is configured with a
 903:Generated_Source\PSoC5/cyPm.c ****     * separate component (component-based wakeup time configuration) for
 904:Generated_Source\PSoC5/cyPm.c ****     * interrupt to be issued on terminal count. For more information, refer to the
 905:Generated_Source\PSoC5/cyPm.c ****     * Wakeup Time Configuration section of System Reference Guide.
 906:Generated_Source\PSoC5/cyPm.c ****     *******************************************************************************/
 907:Generated_Source\PSoC5/cyPm.c ****     #if(CY_PSOC5)
 908:Generated_Source\PSoC5/cyPm.c **** 
 909:Generated_Source\PSoC5/cyPm.c ****         /* Arguments expected to be 0 */
 910:Generated_Source\PSoC5/cyPm.c ****         CYASSERT(PM_SLEEP_TIME_NONE == wakeupTime);
 911:Generated_Source\PSoC5/cyPm.c **** 
 912:Generated_Source\PSoC5/cyPm.c ****         if(0u != wakeupTime)
 913:Generated_Source\PSoC5/cyPm.c ****         {
 914:Generated_Source\PSoC5/cyPm.c ****             /* To remove unreferenced local variable warning */
 915:Generated_Source\PSoC5/cyPm.c ****         }
 916:Generated_Source\PSoC5/cyPm.c **** 
 917:Generated_Source\PSoC5/cyPm.c ****     #endif /* (CY_PSOC5) */
 918:Generated_Source\PSoC5/cyPm.c **** 
 919:Generated_Source\PSoC5/cyPm.c **** 
 920:Generated_Source\PSoC5/cyPm.c ****     CyPmHibSlpSaveSet();
 921:Generated_Source\PSoC5/cyPm.c **** 
 922:Generated_Source\PSoC5/cyPm.c **** 
 923:Generated_Source\PSoC5/cyPm.c ****     #if(CY_PSOC3)
 924:Generated_Source\PSoC5/cyPm.c **** 
 925:Generated_Source\PSoC5/cyPm.c ****         /* CTW - save current and set new configuration */
 926:Generated_Source\PSoC5/cyPm.c ****         if((wakeupTime >= PM_SLEEP_TIME_CTW_2MS) && (wakeupTime <= PM_SLEEP_TIME_CTW_4096MS))
 927:Generated_Source\PSoC5/cyPm.c ****         {
 928:Generated_Source\PSoC5/cyPm.c ****             /* Save current and set new configuration of CTW */
 929:Generated_Source\PSoC5/cyPm.c ****             CyPmCtwSetInterval((uint8)(wakeupTime - 1u));
 930:Generated_Source\PSoC5/cyPm.c **** 
 931:Generated_Source\PSoC5/cyPm.c ****             /* Include associated timer to wakeupSource */
 932:Generated_Source\PSoC5/cyPm.c ****             wakeupSource |= PM_SLEEP_SRC_CTW;
 933:Generated_Source\PSoC5/cyPm.c ****         }
 934:Generated_Source\PSoC5/cyPm.c **** 
 935:Generated_Source\PSoC5/cyPm.c ****         /* 1PPS - save current and set new configuration */
 936:Generated_Source\PSoC5/cyPm.c ****         if(PM_SLEEP_TIME_ONE_PPS == wakeupTime)
 937:Generated_Source\PSoC5/cyPm.c ****         {
 938:Generated_Source\PSoC5/cyPm.c ****             /* Save current and set new configuration of the 1PPS */
 939:Generated_Source\PSoC5/cyPm.c ****             CyPmOppsSet();
 940:Generated_Source\PSoC5/cyPm.c **** 
 941:Generated_Source\PSoC5/cyPm.c ****             /* Include associated timer to wakeupSource */
 942:Generated_Source\PSoC5/cyPm.c ****             wakeupSource |= PM_SLEEP_SRC_ONE_PPS;
 943:Generated_Source\PSoC5/cyPm.c ****         }
 944:Generated_Source\PSoC5/cyPm.c **** 
ARM GAS  C:\Users\kelvi\AppData\Local\Temp\ccGQeHy8.s 			page 18


 945:Generated_Source\PSoC5/cyPm.c ****     #endif /* (CY_PSOC3) */
 946:Generated_Source\PSoC5/cyPm.c **** 
 947:Generated_Source\PSoC5/cyPm.c **** 
 948:Generated_Source\PSoC5/cyPm.c ****     /* Save and set new wake up configuration */
 949:Generated_Source\PSoC5/cyPm.c **** 
 950:Generated_Source\PSoC5/cyPm.c ****     /* Interrupt, PICU, I2C, Boost converter, CTW/1PPS */
 951:Generated_Source\PSoC5/cyPm.c ****     cyPmBackup.wakeupCfg0 = CY_PM_WAKEUP_CFG0_REG;
 952:Generated_Source\PSoC5/cyPm.c ****     CY_PM_WAKEUP_CFG0_REG = (uint8) (wakeupSource >> 4u);
 953:Generated_Source\PSoC5/cyPm.c **** 
 954:Generated_Source\PSoC5/cyPm.c ****     /* Comparators */
 955:Generated_Source\PSoC5/cyPm.c ****     cyPmBackup.wakeupCfg1 = CY_PM_WAKEUP_CFG1_REG;
 956:Generated_Source\PSoC5/cyPm.c ****     CY_PM_WAKEUP_CFG1_REG = (((uint8) wakeupSource) & CY_PM_WAKEUP_SRC_CMPS_MASK);
 957:Generated_Source\PSoC5/cyPm.c **** 
 958:Generated_Source\PSoC5/cyPm.c ****     /* LCD */
 959:Generated_Source\PSoC5/cyPm.c ****     cyPmBackup.wakeupCfg2 = CY_PM_WAKEUP_CFG2_REG;
 960:Generated_Source\PSoC5/cyPm.c ****     CY_PM_WAKEUP_CFG2_REG = ((uint8) ((wakeupSource >> 12u) & 0x01u));
 961:Generated_Source\PSoC5/cyPm.c **** 
 962:Generated_Source\PSoC5/cyPm.c **** 
 963:Generated_Source\PSoC5/cyPm.c ****     /*******************************************************************
 964:Generated_Source\PSoC5/cyPm.c ****     * Do not use the merge region below unless any component datasheet
 965:Generated_Source\PSoC5/cyPm.c ****     * suggests doing so.
 966:Generated_Source\PSoC5/cyPm.c ****     *******************************************************************/
 967:Generated_Source\PSoC5/cyPm.c ****     /* `#START CY_PM_JUST_BEFORE_SLEEP` */
 968:Generated_Source\PSoC5/cyPm.c **** 
 969:Generated_Source\PSoC5/cyPm.c ****     /* `#END` */
 970:Generated_Source\PSoC5/cyPm.c **** 
 971:Generated_Source\PSoC5/cyPm.c ****     #ifdef CY_BOOT_CY_PM_SLEEP_BEFORE_SLEEP_CALLBACK
 972:Generated_Source\PSoC5/cyPm.c ****         CyBoot_CyPmSleep_BeforeSleep_Callback();
 973:Generated_Source\PSoC5/cyPm.c ****     #endif /* CY_BOOT_CY_PM_SLEEP_BEFORE_SLEEP_CALLBACK */
 974:Generated_Source\PSoC5/cyPm.c **** 
 975:Generated_Source\PSoC5/cyPm.c ****     /* Last moment IMO frequency change */
 976:Generated_Source\PSoC5/cyPm.c ****     if(0u == (CY_PM_FASTCLK_IMO_CR_REG & CY_PM_FASTCLK_IMO_CR_FREQ_MASK))
 977:Generated_Source\PSoC5/cyPm.c ****     {
 978:Generated_Source\PSoC5/cyPm.c ****         /* IMO frequency is 12 MHz */
 979:Generated_Source\PSoC5/cyPm.c ****         cyPmBackup.imoActFreq12Mhz = CY_PM_ENABLED;
 980:Generated_Source\PSoC5/cyPm.c ****     }
 981:Generated_Source\PSoC5/cyPm.c ****     else
 982:Generated_Source\PSoC5/cyPm.c ****     {
 983:Generated_Source\PSoC5/cyPm.c ****         /* IMO frequency is not 12 MHz */
 984:Generated_Source\PSoC5/cyPm.c ****         cyPmBackup.imoActFreq12Mhz = CY_PM_DISABLED;
 985:Generated_Source\PSoC5/cyPm.c **** 
 986:Generated_Source\PSoC5/cyPm.c ****         /* Save IMO frequency */
 987:Generated_Source\PSoC5/cyPm.c ****         cyPmBackup.imoActFreq = CY_PM_FASTCLK_IMO_CR_REG & CY_PM_FASTCLK_IMO_CR_FREQ_MASK;
 988:Generated_Source\PSoC5/cyPm.c **** 
 989:Generated_Source\PSoC5/cyPm.c ****         /* Set IMO frequency to 12 MHz */
 990:Generated_Source\PSoC5/cyPm.c ****         CY_PM_FASTCLK_IMO_CR_REG &= ((uint8) (~CY_PM_FASTCLK_IMO_CR_FREQ_MASK));
 991:Generated_Source\PSoC5/cyPm.c ****     }
 992:Generated_Source\PSoC5/cyPm.c **** 
 993:Generated_Source\PSoC5/cyPm.c ****     /* Switch to Sleep mode */
 994:Generated_Source\PSoC5/cyPm.c ****     CY_PM_MODE_CSR_REG = ((CY_PM_MODE_CSR_REG & ((uint8)(~CY_PM_MODE_CSR_MASK))) | CY_PM_MODE_CSR_S
 995:Generated_Source\PSoC5/cyPm.c **** 
 996:Generated_Source\PSoC5/cyPm.c ****     /* Recommended readback. */
 997:Generated_Source\PSoC5/cyPm.c ****     (void) CY_PM_MODE_CSR_REG;
 998:Generated_Source\PSoC5/cyPm.c **** 
 999:Generated_Source\PSoC5/cyPm.c ****     /* Two recommended NOPs to get into mode. */
1000:Generated_Source\PSoC5/cyPm.c ****     CY_NOP;
1001:Generated_Source\PSoC5/cyPm.c ****     CY_NOP;
ARM GAS  C:\Users\kelvi\AppData\Local\Temp\ccGQeHy8.s 			page 19


1002:Generated_Source\PSoC5/cyPm.c **** 
1003:Generated_Source\PSoC5/cyPm.c ****     /* Execute WFI instruction (for ARM-based devices only) */
1004:Generated_Source\PSoC5/cyPm.c ****     CY_PM_WFI;
1005:Generated_Source\PSoC5/cyPm.c **** 
1006:Generated_Source\PSoC5/cyPm.c ****     /* Point of return from Sleep Mode */
1007:Generated_Source\PSoC5/cyPm.c **** 
1008:Generated_Source\PSoC5/cyPm.c ****     /* Restore last moment IMO frequency change */
1009:Generated_Source\PSoC5/cyPm.c ****     if(CY_PM_ENABLED != cyPmBackup.imoActFreq12Mhz)
1010:Generated_Source\PSoC5/cyPm.c ****     {
1011:Generated_Source\PSoC5/cyPm.c ****         CY_PM_FASTCLK_IMO_CR_REG  = (CY_PM_FASTCLK_IMO_CR_REG & ((uint8)(~CY_PM_FASTCLK_IMO_CR_FREQ
1012:Generated_Source\PSoC5/cyPm.c ****                                     cyPmBackup.imoActFreq;
1013:Generated_Source\PSoC5/cyPm.c ****     }
1014:Generated_Source\PSoC5/cyPm.c **** 
1015:Generated_Source\PSoC5/cyPm.c **** 
1016:Generated_Source\PSoC5/cyPm.c ****     /*******************************************************************
1017:Generated_Source\PSoC5/cyPm.c ****     * Do not use merge region below unless any component datasheet
1018:Generated_Source\PSoC5/cyPm.c ****     * suggest to do so.
1019:Generated_Source\PSoC5/cyPm.c ****     *******************************************************************/
1020:Generated_Source\PSoC5/cyPm.c ****     /* `#START CY_PM_JUST_AFTER_WAKEUP_FROM_SLEEP` */
1021:Generated_Source\PSoC5/cyPm.c **** 
1022:Generated_Source\PSoC5/cyPm.c ****     /* `#END` */
1023:Generated_Source\PSoC5/cyPm.c **** 
1024:Generated_Source\PSoC5/cyPm.c ****     #ifdef CY_BOOT_CY_PM_SLEEP_AFTER_SLEEP_CALLBACK
1025:Generated_Source\PSoC5/cyPm.c ****         CyBoot_CyPmSleep_AfterSleep_Callback();
1026:Generated_Source\PSoC5/cyPm.c ****     #endif /* CY_BOOT_CY_PM_SLEEP_AFTER_SLEEP_CALLBACK */
1027:Generated_Source\PSoC5/cyPm.c **** 
1028:Generated_Source\PSoC5/cyPm.c ****     /* Restore hardware configuration */
1029:Generated_Source\PSoC5/cyPm.c ****     CyPmHibSlpRestore();
1030:Generated_Source\PSoC5/cyPm.c **** 
1031:Generated_Source\PSoC5/cyPm.c **** 
1032:Generated_Source\PSoC5/cyPm.c ****     /* Disable hardware buzz, if it was previously enabled */
1033:Generated_Source\PSoC5/cyPm.c ****     #if(CY_PSOC3)
1034:Generated_Source\PSoC5/cyPm.c **** 
1035:Generated_Source\PSoC5/cyPm.c ****         if(0u != (CY_PM_RESET_CR1_REG & (CY_PM_RESET_CR1_HVIA_EN |
1036:Generated_Source\PSoC5/cyPm.c ****             CY_PM_RESET_CR1_LVIA_EN | CY_PM_RESET_CR1_LVID_EN)))
1037:Generated_Source\PSoC5/cyPm.c ****         {
1038:Generated_Source\PSoC5/cyPm.c ****             if(CYDEV_CHIP_REV_ACTUAL >= 5u)
1039:Generated_Source\PSoC5/cyPm.c ****             {
1040:Generated_Source\PSoC5/cyPm.c ****                 if (CY_PM_DISABLED == cyPmBackup.hardwareBuzz)
1041:Generated_Source\PSoC5/cyPm.c ****                 {
1042:Generated_Source\PSoC5/cyPm.c ****                     CY_PM_PWRSYS_WAKE_TR2_REG &= (uint8)(~CY_PM_PWRSYS_WAKE_TR2_EN_BUZZ);
1043:Generated_Source\PSoC5/cyPm.c ****                 }
1044:Generated_Source\PSoC5/cyPm.c ****             }
1045:Generated_Source\PSoC5/cyPm.c ****         }
1046:Generated_Source\PSoC5/cyPm.c **** 
1047:Generated_Source\PSoC5/cyPm.c ****     #endif /* (CY_PSOC3) */
1048:Generated_Source\PSoC5/cyPm.c **** 
1049:Generated_Source\PSoC5/cyPm.c **** 
1050:Generated_Source\PSoC5/cyPm.c ****     /* Restore current wake up configuration */
1051:Generated_Source\PSoC5/cyPm.c ****     CY_PM_WAKEUP_CFG0_REG = cyPmBackup.wakeupCfg0;
1052:Generated_Source\PSoC5/cyPm.c ****     CY_PM_WAKEUP_CFG1_REG = cyPmBackup.wakeupCfg1;
1053:Generated_Source\PSoC5/cyPm.c ****     CY_PM_WAKEUP_CFG2_REG = cyPmBackup.wakeupCfg2;
1054:Generated_Source\PSoC5/cyPm.c **** 
1055:Generated_Source\PSoC5/cyPm.c ****     /* Restore global interrupt enable state */
1056:Generated_Source\PSoC5/cyPm.c ****     CyExitCriticalSection(interruptState);
1057:Generated_Source\PSoC5/cyPm.c **** }
1058:Generated_Source\PSoC5/cyPm.c **** 
ARM GAS  C:\Users\kelvi\AppData\Local\Temp\ccGQeHy8.s 			page 20


1059:Generated_Source\PSoC5/cyPm.c **** 
1060:Generated_Source\PSoC5/cyPm.c **** /*******************************************************************************
1061:Generated_Source\PSoC5/cyPm.c **** * Function Name: CyPmHibernate
1062:Generated_Source\PSoC5/cyPm.c **** ****************************************************************************//**
1063:Generated_Source\PSoC5/cyPm.c **** *
1064:Generated_Source\PSoC5/cyPm.c **** *  Puts the part into the Hibernate state.
1065:Generated_Source\PSoC5/cyPm.c **** *
1066:Generated_Source\PSoC5/cyPm.c **** *  Before switching to Hibernate, the current status of the PICU wakeup source
1067:Generated_Source\PSoC5/cyPm.c **** *  bit is saved and then set. This configures the device to wake up from the
1068:Generated_Source\PSoC5/cyPm.c **** *  PICU. Make sure you have at least one pin configured to generate PICU
1069:Generated_Source\PSoC5/cyPm.c **** *  interrupt. For pin Px.y, the register "PICU_INTTYPE_PICUx_INTTYPEy" controls
1070:Generated_Source\PSoC5/cyPm.c **** *  the PICU behavior. In the TRM, this register is "PICU[0..15]_INTTYPE[0..7]."
1071:Generated_Source\PSoC5/cyPm.c **** *  In the Pins component datasheet, this register is referred to as the IRQ
1072:Generated_Source\PSoC5/cyPm.c **** *  option. Once the wakeup occurs, the PICU wakeup source bit is restored and
1073:Generated_Source\PSoC5/cyPm.c **** *  the PSoC returns to the Active state.
1074:Generated_Source\PSoC5/cyPm.c **** *
1075:Generated_Source\PSoC5/cyPm.c **** * Reentrant:
1076:Generated_Source\PSoC5/cyPm.c **** *  No
1077:Generated_Source\PSoC5/cyPm.c **** *
1078:Generated_Source\PSoC5/cyPm.c **** * \sideeffect
1079:Generated_Source\PSoC5/cyPm.c **** *  Applications must wait 20 us before re-entering hibernate or sleep after
1080:Generated_Source\PSoC5/cyPm.c **** *  waking up from hibernate. The 20 us allows the sleep regulator time to
1081:Generated_Source\PSoC5/cyPm.c **** *  stabilize before the next hibernate / sleep event occurs. The 20 us
1082:Generated_Source\PSoC5/cyPm.c **** *  requirement begins when the device wakes up. There is no hardware check that
1083:Generated_Source\PSoC5/cyPm.c **** *  this requirement is met. The specified delay should be done on ISR entry.
1084:Generated_Source\PSoC5/cyPm.c **** *
1085:Generated_Source\PSoC5/cyPm.c **** *  After the wakeup PICU interrupt occurs, the Pin_ClearInterrupt() (where Pin
1086:Generated_Source\PSoC5/cyPm.c **** *  is instance name of the Pins component) function must be called to clear the
1087:Generated_Source\PSoC5/cyPm.c **** *  latched pin events to allow the proper Hibernate mode entry and to enable
1088:Generated_Source\PSoC5/cyPm.c **** *  detection of future events.
1089:Generated_Source\PSoC5/cyPm.c **** *
1090:Generated_Source\PSoC5/cyPm.c **** *  The 1 kHz ILO clock is expected to be enabled for PSoC 3 and PSoC 5LP to
1091:Generated_Source\PSoC5/cyPm.c **** *  measure Hibernate/Sleep regulator settling time after a reset. The holdoff
1092:Generated_Source\PSoC5/cyPm.c **** *  delay is measured using the rising edges of the 1 kHz ILO.
1093:Generated_Source\PSoC5/cyPm.c **** *
1094:Generated_Source\PSoC5/cyPm.c **** *******************************************************************************/
1095:Generated_Source\PSoC5/cyPm.c **** void CyPmHibernate(void) 
1096:Generated_Source\PSoC5/cyPm.c **** {
1097:Generated_Source\PSoC5/cyPm.c ****     CyPmHibernateEx(CY_PM_HIB_SRC_PICU);
1098:Generated_Source\PSoC5/cyPm.c **** }
1099:Generated_Source\PSoC5/cyPm.c **** 
1100:Generated_Source\PSoC5/cyPm.c **** 
1101:Generated_Source\PSoC5/cyPm.c **** /*******************************************************************************
1102:Generated_Source\PSoC5/cyPm.c **** * Function Name: CyPmHibernateEx
1103:Generated_Source\PSoC5/cyPm.c **** ****************************************************************************//**
1104:Generated_Source\PSoC5/cyPm.c **** *
1105:Generated_Source\PSoC5/cyPm.c **** *  Puts the part into the Hibernate state.
1106:Generated_Source\PSoC5/cyPm.c **** *
1107:Generated_Source\PSoC5/cyPm.c **** *  The following wake up sources can be configured: PICU interrupt, Comparator0,
1108:Generated_Source\PSoC5/cyPm.c **** *  Comparator1, Comparator2, and Comparator3 output.
1109:Generated_Source\PSoC5/cyPm.c **** *
1110:Generated_Source\PSoC5/cyPm.c **** *  Before switching to Hibernate, the current status of the PICU wakeup source
1111:Generated_Source\PSoC5/cyPm.c **** *  bit is saved and then set.
1112:Generated_Source\PSoC5/cyPm.c **** *
1113:Generated_Source\PSoC5/cyPm.c **** *  If using PICU as the wake up source, make sure you have at least one pin
1114:Generated_Source\PSoC5/cyPm.c **** *  configured to generate a PICU interrupt. For pin Px.y, the register
1115:Generated_Source\PSoC5/cyPm.c **** *  "PICU_INTTYPE_PICUx_INTTYPEy" controls  the PICU behavior. In the TRM, this
ARM GAS  C:\Users\kelvi\AppData\Local\Temp\ccGQeHy8.s 			page 21


1116:Generated_Source\PSoC5/cyPm.c **** *  register is "PICU[0..15]_INTTYPE[0..7]." In the Pins component datasheet,
1117:Generated_Source\PSoC5/cyPm.c **** *  this register is referred to as the IRQ option. Once the wakeup occurs, the
1118:Generated_Source\PSoC5/cyPm.c **** *  PICU wakeup source bit is restored and the PSoC returns to the Active state.
1119:Generated_Source\PSoC5/cyPm.c **** *
1120:Generated_Source\PSoC5/cyPm.c **** *  If using a comparator as the wake up source, make sure you call this function
1121:Generated_Source\PSoC5/cyPm.c **** *  with the 'wakeupSource' parameter set to the appropriate comparator. The part
1122:Generated_Source\PSoC5/cyPm.c **** *  is configured for the requested wakeup source by setting the corresponding
1123:Generated_Source\PSoC5/cyPm.c **** *  bits in PM_WAKEUP_CFG1 register.
1124:Generated_Source\PSoC5/cyPm.c **** *
1125:Generated_Source\PSoC5/cyPm.c **** *  Function call CyPmHibernateEx(CY_PM_HIB_SRC_PICU) will act in the same way as
1126:Generated_Source\PSoC5/cyPm.c **** *  CyPmHibernate().
1127:Generated_Source\PSoC5/cyPm.c **** *
1128:Generated_Source\PSoC5/cyPm.c **** *  \param wakeupSource:
1129:Generated_Source\PSoC5/cyPm.c **** *           Parameter Value             Description
1130:Generated_Source\PSoC5/cyPm.c **** *       CY_PM_HIB_SRC_PICU          PICU interrupt is set as the wake up source.
1131:Generated_Source\PSoC5/cyPm.c **** *       CY_PM_HIB_SRC_COMPARATOR0   Comparator 0 is set as the wake up source.
1132:Generated_Source\PSoC5/cyPm.c **** *       CY_PM_HIB_SRC_COMPARATOR1   Comparator 1 is set as the wake up source.
1133:Generated_Source\PSoC5/cyPm.c **** *       CY_PM_HIB_SRC_COMPARATOR2   Comparator 2 is set as the wake up source.
1134:Generated_Source\PSoC5/cyPm.c **** *       CY_PM_HIB_SRC_COMPARATOR3   Comparator 3 is set as the wake up source.
1135:Generated_Source\PSoC5/cyPm.c **** *
1136:Generated_Source\PSoC5/cyPm.c **** * Reentrant:
1137:Generated_Source\PSoC5/cyPm.c **** *  No
1138:Generated_Source\PSoC5/cyPm.c **** *
1139:Generated_Source\PSoC5/cyPm.c **** * \sideeffect
1140:Generated_Source\PSoC5/cyPm.c **** *  Applications must wait 20 us before re-entering hibernate or sleep after
1141:Generated_Source\PSoC5/cyPm.c **** *  waking up from hibernate. The 20 us allows the sleep regulator time to
1142:Generated_Source\PSoC5/cyPm.c **** *  stabilize before the next hibernate / sleep event occurs. The 20 us
1143:Generated_Source\PSoC5/cyPm.c **** *  requirement begins when the device wakes up. There is no hardware check that
1144:Generated_Source\PSoC5/cyPm.c **** *  this requirement is met. The specified delay should be done on ISR entry.
1145:Generated_Source\PSoC5/cyPm.c **** *
1146:Generated_Source\PSoC5/cyPm.c **** *  After the wakeup PICU interrupt occurs, the Pin_ClearInterrupt() (where Pin
1147:Generated_Source\PSoC5/cyPm.c **** *  is instance name of the Pins component) function must be called to clear the
1148:Generated_Source\PSoC5/cyPm.c **** *  latched pin events to allow the proper Hibernate mode entry and to enable
1149:Generated_Source\PSoC5/cyPm.c **** *  detection of future events.
1150:Generated_Source\PSoC5/cyPm.c **** *
1151:Generated_Source\PSoC5/cyPm.c **** *  The 1 kHz ILO clock is expected to be enabled for PSoC 3 and PSoC 5LP to
1152:Generated_Source\PSoC5/cyPm.c **** *  measure Hibernate/Sleep regulator settling time after a reset. The holdoff
1153:Generated_Source\PSoC5/cyPm.c **** *  delay is measured using the rising edges of the 1 kHz ILO.
1154:Generated_Source\PSoC5/cyPm.c **** *
1155:Generated_Source\PSoC5/cyPm.c **** *******************************************************************************/
1156:Generated_Source\PSoC5/cyPm.c **** void CyPmHibernateEx(uint16 wakeupSource) 
1157:Generated_Source\PSoC5/cyPm.c **** {
1158:Generated_Source\PSoC5/cyPm.c ****     uint8 interruptState;
1159:Generated_Source\PSoC5/cyPm.c **** 
1160:Generated_Source\PSoC5/cyPm.c ****     /* Save current global interrupt enable and disable it */
1161:Generated_Source\PSoC5/cyPm.c ****     interruptState = CyEnterCriticalSection();
1162:Generated_Source\PSoC5/cyPm.c **** 
1163:Generated_Source\PSoC5/cyPm.c ****         /***********************************************************************
1164:Generated_Source\PSoC5/cyPm.c ****         * The Hibernate/Sleep regulator has a settling time after a reset.
1165:Generated_Source\PSoC5/cyPm.c ****         * During this time, the system ignores requests to enter the Sleep and
1166:Generated_Source\PSoC5/cyPm.c ****         * Hibernate modes. The holdoff delay is measured using the rising edges of
1167:Generated_Source\PSoC5/cyPm.c ****         * the 1 kHz ILO.
1168:Generated_Source\PSoC5/cyPm.c ****         ***********************************************************************/
1169:Generated_Source\PSoC5/cyPm.c ****         if(0u == (CY_PM_MODE_CSR_REG & CY_PM_MODE_CSR_PWRUP_PULSE_Q))
1170:Generated_Source\PSoC5/cyPm.c ****         {
1171:Generated_Source\PSoC5/cyPm.c ****             /* Disable hold off - no action on restore */
1172:Generated_Source\PSoC5/cyPm.c ****             CY_PM_PWRSYS_SLP_TR_REG &= CY_PM_PWRSYS_SLP_TR_HIBSLP_HOLDOFF_MASK;
ARM GAS  C:\Users\kelvi\AppData\Local\Temp\ccGQeHy8.s 			page 22


1173:Generated_Source\PSoC5/cyPm.c ****         }
1174:Generated_Source\PSoC5/cyPm.c ****         else
1175:Generated_Source\PSoC5/cyPm.c ****         {
1176:Generated_Source\PSoC5/cyPm.c ****             /* Abort, device is not ready for low power mode entry */
1177:Generated_Source\PSoC5/cyPm.c **** 
1178:Generated_Source\PSoC5/cyPm.c ****             /* Restore global interrupt enable state */
1179:Generated_Source\PSoC5/cyPm.c ****             CyExitCriticalSection(interruptState);
1180:Generated_Source\PSoC5/cyPm.c **** 
1181:Generated_Source\PSoC5/cyPm.c ****             return;
1182:Generated_Source\PSoC5/cyPm.c ****         }
1183:Generated_Source\PSoC5/cyPm.c **** 
1184:Generated_Source\PSoC5/cyPm.c ****     CyPmHibSaveSet();
1185:Generated_Source\PSoC5/cyPm.c **** 
1186:Generated_Source\PSoC5/cyPm.c **** 
1187:Generated_Source\PSoC5/cyPm.c ****     /* Save and set new wake up configuration */
1188:Generated_Source\PSoC5/cyPm.c **** 
1189:Generated_Source\PSoC5/cyPm.c ****     /* Save and enable only wakeup on PICU */
1190:Generated_Source\PSoC5/cyPm.c ****     cyPmBackup.wakeupCfg0 = CY_PM_WAKEUP_CFG0_REG;
1191:Generated_Source\PSoC5/cyPm.c ****     CY_PM_WAKEUP_CFG0_REG = ((uint8) (wakeupSource >> 4u) & CY_PM_WAKEUP_PICU);
1192:Generated_Source\PSoC5/cyPm.c **** 
1193:Generated_Source\PSoC5/cyPm.c ****     /* Comparators */
1194:Generated_Source\PSoC5/cyPm.c ****     cyPmBackup.wakeupCfg1 = CY_PM_WAKEUP_CFG1_REG;
1195:Generated_Source\PSoC5/cyPm.c ****     CY_PM_WAKEUP_CFG1_REG = (((uint8) wakeupSource) & CY_PM_WAKEUP_SRC_CMPS_MASK);
1196:Generated_Source\PSoC5/cyPm.c **** 
1197:Generated_Source\PSoC5/cyPm.c ****     cyPmBackup.wakeupCfg2 = CY_PM_WAKEUP_CFG2_REG;
1198:Generated_Source\PSoC5/cyPm.c ****     CY_PM_WAKEUP_CFG2_REG = 0x00u;
1199:Generated_Source\PSoC5/cyPm.c **** 
1200:Generated_Source\PSoC5/cyPm.c **** 
1201:Generated_Source\PSoC5/cyPm.c ****     /* Last moment IMO frequency change */
1202:Generated_Source\PSoC5/cyPm.c ****     if(0u == (CY_PM_FASTCLK_IMO_CR_REG & CY_PM_FASTCLK_IMO_CR_FREQ_MASK))
1203:Generated_Source\PSoC5/cyPm.c ****     {
1204:Generated_Source\PSoC5/cyPm.c ****         /* IMO frequency is 12 MHz */
1205:Generated_Source\PSoC5/cyPm.c ****         cyPmBackup.imoActFreq12Mhz = CY_PM_ENABLED;
1206:Generated_Source\PSoC5/cyPm.c ****     }
1207:Generated_Source\PSoC5/cyPm.c ****     else
1208:Generated_Source\PSoC5/cyPm.c ****     {
1209:Generated_Source\PSoC5/cyPm.c ****         /* IMO frequency is not 12 MHz */
1210:Generated_Source\PSoC5/cyPm.c ****         cyPmBackup.imoActFreq12Mhz = CY_PM_DISABLED;
1211:Generated_Source\PSoC5/cyPm.c **** 
1212:Generated_Source\PSoC5/cyPm.c ****         /* Save IMO frequency */
1213:Generated_Source\PSoC5/cyPm.c ****         cyPmBackup.imoActFreq = CY_PM_FASTCLK_IMO_CR_REG & CY_PM_FASTCLK_IMO_CR_FREQ_MASK;
1214:Generated_Source\PSoC5/cyPm.c **** 
1215:Generated_Source\PSoC5/cyPm.c ****         /* Set IMO frequency to 12 MHz */
1216:Generated_Source\PSoC5/cyPm.c ****         CY_PM_FASTCLK_IMO_CR_REG &= ((uint8) (~CY_PM_FASTCLK_IMO_CR_FREQ_MASK));
1217:Generated_Source\PSoC5/cyPm.c ****     }
1218:Generated_Source\PSoC5/cyPm.c **** 
1219:Generated_Source\PSoC5/cyPm.c **** 
1220:Generated_Source\PSoC5/cyPm.c ****     /* Switch to Hibernate Mode */
1221:Generated_Source\PSoC5/cyPm.c ****     CY_PM_MODE_CSR_REG = (CY_PM_MODE_CSR_REG & ((uint8) (~CY_PM_MODE_CSR_MASK))) | CY_PM_MODE_CSR_H
1222:Generated_Source\PSoC5/cyPm.c **** 
1223:Generated_Source\PSoC5/cyPm.c ****     /* Recommended readback. */
1224:Generated_Source\PSoC5/cyPm.c ****     (void) CY_PM_MODE_CSR_REG;
1225:Generated_Source\PSoC5/cyPm.c **** 
1226:Generated_Source\PSoC5/cyPm.c ****     /* Two recommended NOPs to get into mode. */
1227:Generated_Source\PSoC5/cyPm.c ****     CY_NOP;
1228:Generated_Source\PSoC5/cyPm.c ****     CY_NOP;
1229:Generated_Source\PSoC5/cyPm.c **** 
ARM GAS  C:\Users\kelvi\AppData\Local\Temp\ccGQeHy8.s 			page 23


1230:Generated_Source\PSoC5/cyPm.c ****     /* Execute WFI instruction (for ARM-based devices only) */
1231:Generated_Source\PSoC5/cyPm.c ****     CY_PM_WFI;
1232:Generated_Source\PSoC5/cyPm.c **** 
1233:Generated_Source\PSoC5/cyPm.c **** 
1234:Generated_Source\PSoC5/cyPm.c ****     /* Point of return from Hibernate mode */
1235:Generated_Source\PSoC5/cyPm.c **** 
1236:Generated_Source\PSoC5/cyPm.c **** 
1237:Generated_Source\PSoC5/cyPm.c ****     /* Restore last moment IMO frequency change */
1238:Generated_Source\PSoC5/cyPm.c ****     if(CY_PM_ENABLED != cyPmBackup.imoActFreq12Mhz)
1239:Generated_Source\PSoC5/cyPm.c ****     {
1240:Generated_Source\PSoC5/cyPm.c ****         CY_PM_FASTCLK_IMO_CR_REG  = (CY_PM_FASTCLK_IMO_CR_REG & ((uint8)(~CY_PM_FASTCLK_IMO_CR_FREQ
1241:Generated_Source\PSoC5/cyPm.c ****                                     cyPmBackup.imoActFreq;
1242:Generated_Source\PSoC5/cyPm.c ****     }
1243:Generated_Source\PSoC5/cyPm.c **** 
1244:Generated_Source\PSoC5/cyPm.c **** 
1245:Generated_Source\PSoC5/cyPm.c ****     /* Restore device for proper Hibernate mode exit*/
1246:Generated_Source\PSoC5/cyPm.c ****     CyPmHibRestore();
1247:Generated_Source\PSoC5/cyPm.c **** 
1248:Generated_Source\PSoC5/cyPm.c ****     /* Restore current wake up configuration */
1249:Generated_Source\PSoC5/cyPm.c ****     CY_PM_WAKEUP_CFG0_REG = cyPmBackup.wakeupCfg0;
1250:Generated_Source\PSoC5/cyPm.c ****     CY_PM_WAKEUP_CFG1_REG = cyPmBackup.wakeupCfg1;
1251:Generated_Source\PSoC5/cyPm.c ****     CY_PM_WAKEUP_CFG2_REG = cyPmBackup.wakeupCfg2;
1252:Generated_Source\PSoC5/cyPm.c **** 
1253:Generated_Source\PSoC5/cyPm.c ****     /* Restore global interrupt enable state */
1254:Generated_Source\PSoC5/cyPm.c ****     CyExitCriticalSection(interruptState);
1255:Generated_Source\PSoC5/cyPm.c **** }
1256:Generated_Source\PSoC5/cyPm.c **** 
1257:Generated_Source\PSoC5/cyPm.c **** 
1258:Generated_Source\PSoC5/cyPm.c **** /*******************************************************************************
1259:Generated_Source\PSoC5/cyPm.c **** * Function Name: CyPmReadStatus
1260:Generated_Source\PSoC5/cyPm.c **** ****************************************************************************//**
1261:Generated_Source\PSoC5/cyPm.c **** *
1262:Generated_Source\PSoC5/cyPm.c **** *  Manages the Power Manager Interrupt Status Register.  This register has the
1263:Generated_Source\PSoC5/cyPm.c **** *  interrupt status for the one pulse per second, central timewheel and fast
1264:Generated_Source\PSoC5/cyPm.c **** *  timewheel timers.  This hardware register clears on read.  To allow for only
1265:Generated_Source\PSoC5/cyPm.c **** *  clearing the bits of interest and preserving the other bits, this function
1266:Generated_Source\PSoC5/cyPm.c **** *  uses a shadow register that retains the state.  This function reads the
1267:Generated_Source\PSoC5/cyPm.c **** *  status register and ORs that value with the shadow register.  That is the
1268:Generated_Source\PSoC5/cyPm.c **** *  value that is returned.  Then the bits in the mask that are set are cleared
1269:Generated_Source\PSoC5/cyPm.c **** *  from this value and written back to the shadow register.
1270:Generated_Source\PSoC5/cyPm.c **** *
1271:Generated_Source\PSoC5/cyPm.c **** *  Note You must call this function within 1 ms (1 clock cycle of the ILO)
1272:Generated_Source\PSoC5/cyPm.c **** *  after a CTW event has occurred.
1273:Generated_Source\PSoC5/cyPm.c **** *
1274:Generated_Source\PSoC5/cyPm.c **** *  \param mask: Bits in the shadow register to clear.
1275:Generated_Source\PSoC5/cyPm.c **** *
1276:Generated_Source\PSoC5/cyPm.c **** *       Define                      Source
1277:Generated_Source\PSoC5/cyPm.c **** *  CY_PM_FTW_INT                Fast Timewheel
1278:Generated_Source\PSoC5/cyPm.c **** *  CY_PM_CTW_INT                Central Timewheel
1279:Generated_Source\PSoC5/cyPm.c **** *  CY_PM_ONEPPS_INT             One Pulse Per Second
1280:Generated_Source\PSoC5/cyPm.c **** *
1281:Generated_Source\PSoC5/cyPm.c **** * \return
1282:Generated_Source\PSoC5/cyPm.c **** *  Status.  Same bits values as the mask parameter.
1283:Generated_Source\PSoC5/cyPm.c **** *
1284:Generated_Source\PSoC5/cyPm.c **** *******************************************************************************/
1285:Generated_Source\PSoC5/cyPm.c **** uint8 CyPmReadStatus(uint8 mask) 
1286:Generated_Source\PSoC5/cyPm.c **** {
ARM GAS  C:\Users\kelvi\AppData\Local\Temp\ccGQeHy8.s 			page 24


1287:Generated_Source\PSoC5/cyPm.c ****     static uint8 interruptStatus;
1288:Generated_Source\PSoC5/cyPm.c ****     uint8 interruptState;
1289:Generated_Source\PSoC5/cyPm.c ****     uint8 tmpStatus;
1290:Generated_Source\PSoC5/cyPm.c **** 
1291:Generated_Source\PSoC5/cyPm.c ****     /* Enter critical section */
1292:Generated_Source\PSoC5/cyPm.c ****     interruptState = CyEnterCriticalSection();
1293:Generated_Source\PSoC5/cyPm.c **** 
1294:Generated_Source\PSoC5/cyPm.c ****     /* Save value of register, copy it and clear desired bit */
1295:Generated_Source\PSoC5/cyPm.c ****     interruptStatus |= CY_PM_INT_SR_REG;
1296:Generated_Source\PSoC5/cyPm.c ****     tmpStatus = interruptStatus & (CY_PM_FTW_INT | CY_PM_CTW_INT | CY_PM_ONEPPS_INT);
1297:Generated_Source\PSoC5/cyPm.c ****     interruptStatus &= ((uint8)(~mask));
1298:Generated_Source\PSoC5/cyPm.c **** 
1299:Generated_Source\PSoC5/cyPm.c ****     /* Exit critical section */
1300:Generated_Source\PSoC5/cyPm.c ****     CyExitCriticalSection(interruptState);
1301:Generated_Source\PSoC5/cyPm.c **** 
1302:Generated_Source\PSoC5/cyPm.c ****     return(tmpStatus);
1303:Generated_Source\PSoC5/cyPm.c **** }
1304:Generated_Source\PSoC5/cyPm.c **** 
1305:Generated_Source\PSoC5/cyPm.c **** 
1306:Generated_Source\PSoC5/cyPm.c **** /*******************************************************************************
1307:Generated_Source\PSoC5/cyPm.c **** * Function Name: CyPmHibSaveSet
1308:Generated_Source\PSoC5/cyPm.c **** ****************************************************************************//**
1309:Generated_Source\PSoC5/cyPm.c **** *
1310:Generated_Source\PSoC5/cyPm.c **** *  Prepare device for proper Hibernate low power mode entry:
1311:Generated_Source\PSoC5/cyPm.c **** *  - Disables I2C backup regulator
1312:Generated_Source\PSoC5/cyPm.c **** *  - Saves ILO power down mode state and enable it
1313:Generated_Source\PSoC5/cyPm.c **** *  - Saves state of 1 kHz and 100 kHz ILO and disable them
1314:Generated_Source\PSoC5/cyPm.c **** *  - Disables sleep regulator and shorts vccd to vpwrsleep
1315:Generated_Source\PSoC5/cyPm.c **** *  - Save LVI/HVI configuration and disable them - CyPmHviLviSaveDisable()
1316:Generated_Source\PSoC5/cyPm.c **** *  - CyPmHibSlpSaveSet() function is called
1317:Generated_Source\PSoC5/cyPm.c **** *
1318:Generated_Source\PSoC5/cyPm.c **** * Reentrant:
1319:Generated_Source\PSoC5/cyPm.c **** *  No
1320:Generated_Source\PSoC5/cyPm.c **** *
1321:Generated_Source\PSoC5/cyPm.c **** *******************************************************************************/
1322:Generated_Source\PSoC5/cyPm.c **** static void CyPmHibSaveSet(void) 
1323:Generated_Source\PSoC5/cyPm.c **** {
1324:Generated_Source\PSoC5/cyPm.c ****     /* I2C backup reg must be off when the sleep regulator is unavailable */
1325:Generated_Source\PSoC5/cyPm.c ****     if(0u != (CY_PM_PWRSYS_CR1_REG & CY_PM_PWRSYS_CR1_I2CREG_BACKUP))
1326:Generated_Source\PSoC5/cyPm.c ****     {
1327:Generated_Source\PSoC5/cyPm.c ****         /***********************************************************************
1328:Generated_Source\PSoC5/cyPm.c ****         * If the I2C backup regulator is enabled, all the fixed-function registers
1329:Generated_Source\PSoC5/cyPm.c ****         * store their values while the device is in the low power mode, otherwise their
1330:Generated_Source\PSoC5/cyPm.c ****         * configuration is lost. The I2C API makes a decision to restore or not
1331:Generated_Source\PSoC5/cyPm.c ****         * to restore I2C registers based on this. If this regulator will be
1332:Generated_Source\PSoC5/cyPm.c ****         * disabled and then enabled, I2C API will suppose that the I2C block
1333:Generated_Source\PSoC5/cyPm.c ****         * registers preserved their values, while this is not true. So, the
1334:Generated_Source\PSoC5/cyPm.c ****         * backup regulator is disabled. The I2C sleep APIs is responsible for
1335:Generated_Source\PSoC5/cyPm.c ****         * restoration.
1336:Generated_Source\PSoC5/cyPm.c ****         ***********************************************************************/
1337:Generated_Source\PSoC5/cyPm.c **** 
1338:Generated_Source\PSoC5/cyPm.c ****         /* Disable I2C backup register */
1339:Generated_Source\PSoC5/cyPm.c ****         CY_PM_PWRSYS_CR1_REG &= ((uint8)(~CY_PM_PWRSYS_CR1_I2CREG_BACKUP));
1340:Generated_Source\PSoC5/cyPm.c ****     }
1341:Generated_Source\PSoC5/cyPm.c **** 
1342:Generated_Source\PSoC5/cyPm.c **** 
1343:Generated_Source\PSoC5/cyPm.c ****     /* Save current ILO power mode and ensure low power mode */
ARM GAS  C:\Users\kelvi\AppData\Local\Temp\ccGQeHy8.s 			page 25


1344:Generated_Source\PSoC5/cyPm.c ****     cyPmBackup.iloPowerMode = CyILO_SetPowerMode(CY_PM_POWERDOWN_MODE);
1345:Generated_Source\PSoC5/cyPm.c **** 
1346:Generated_Source\PSoC5/cyPm.c ****     /* Save current 1kHz ILO enable state. Disabled automatically. */
1347:Generated_Source\PSoC5/cyPm.c ****     cyPmBackup.ilo1kEnable = (0u == (CY_PM_SLOWCLK_ILO_CR0_REG & CY_PM_ILO_CR0_EN_1K)) ?
1348:Generated_Source\PSoC5/cyPm.c ****                                 CY_PM_DISABLED : CY_PM_ENABLED;
1349:Generated_Source\PSoC5/cyPm.c **** 
1350:Generated_Source\PSoC5/cyPm.c ****     /* Save current 100kHz ILO enable state. Disabled automatically. */
1351:Generated_Source\PSoC5/cyPm.c ****     cyPmBackup.ilo100kEnable = (0u == (CY_PM_SLOWCLK_ILO_CR0_REG & CY_PM_ILO_CR0_EN_100K)) ?
1352:Generated_Source\PSoC5/cyPm.c ****                                 CY_PM_DISABLED : CY_PM_ENABLED;
1353:Generated_Source\PSoC5/cyPm.c **** 
1354:Generated_Source\PSoC5/cyPm.c **** 
1355:Generated_Source\PSoC5/cyPm.c ****     /* Disable the sleep regulator and shorts vccd to vpwrsleep */
1356:Generated_Source\PSoC5/cyPm.c ****     if(0u == (CY_PM_PWRSYS_SLP_TR_REG & CY_PM_PWRSYS_SLP_TR_BYPASS))
1357:Generated_Source\PSoC5/cyPm.c ****     {
1358:Generated_Source\PSoC5/cyPm.c ****         /* Save current bypass state */
1359:Generated_Source\PSoC5/cyPm.c ****         cyPmBackup.slpTrBypass = CY_PM_DISABLED;
1360:Generated_Source\PSoC5/cyPm.c ****         CY_PM_PWRSYS_SLP_TR_REG |= CY_PM_PWRSYS_SLP_TR_BYPASS;
1361:Generated_Source\PSoC5/cyPm.c ****     }
1362:Generated_Source\PSoC5/cyPm.c ****     else
1363:Generated_Source\PSoC5/cyPm.c ****     {
1364:Generated_Source\PSoC5/cyPm.c ****         cyPmBackup.slpTrBypass = CY_PM_ENABLED;
1365:Generated_Source\PSoC5/cyPm.c ****     }
1366:Generated_Source\PSoC5/cyPm.c **** 
1367:Generated_Source\PSoC5/cyPm.c ****     /* LPCOMPs are always enabled (even when BOTH ext_vccd=1 and ext_vcca=1)*/
1368:Generated_Source\PSoC5/cyPm.c **** 
1369:Generated_Source\PSoC5/cyPm.c **** 
1370:Generated_Source\PSoC5/cyPm.c ****     /***************************************************************************
1371:Generated_Source\PSoC5/cyPm.c ****     * LVI/HVI must be disabled in Hibernate
1372:Generated_Source\PSoC5/cyPm.c ****     ***************************************************************************/
1373:Generated_Source\PSoC5/cyPm.c **** 
1374:Generated_Source\PSoC5/cyPm.c ****     /* Save LVI/HVI configuration and disable them */
1375:Generated_Source\PSoC5/cyPm.c ****     CyPmHviLviSaveDisable();
1376:Generated_Source\PSoC5/cyPm.c **** 
1377:Generated_Source\PSoC5/cyPm.c **** 
1378:Generated_Source\PSoC5/cyPm.c ****     /* Make the same preparations for Hibernate and Sleep modes */
1379:Generated_Source\PSoC5/cyPm.c ****     CyPmHibSlpSaveSet();
1380:Generated_Source\PSoC5/cyPm.c **** 
1381:Generated_Source\PSoC5/cyPm.c **** 
1382:Generated_Source\PSoC5/cyPm.c ****     /***************************************************************************
1383:Generated_Source\PSoC5/cyPm.c ****     * Save and set the power mode wakeup trim registers
1384:Generated_Source\PSoC5/cyPm.c ****     ***************************************************************************/
1385:Generated_Source\PSoC5/cyPm.c ****     cyPmBackup.wakeupTrim0 = CY_PM_PWRSYS_WAKE_TR0_REG;
1386:Generated_Source\PSoC5/cyPm.c ****     cyPmBackup.wakeupTrim1 = CY_PM_PWRSYS_WAKE_TR1_REG;
1387:Generated_Source\PSoC5/cyPm.c **** 
1388:Generated_Source\PSoC5/cyPm.c ****     CY_PM_PWRSYS_WAKE_TR0_REG = CY_PM_PWRSYS_WAKE_TR0;
1389:Generated_Source\PSoC5/cyPm.c ****     CY_PM_PWRSYS_WAKE_TR1_REG = CY_PM_PWRSYS_WAKE_TR1;
1390:Generated_Source\PSoC5/cyPm.c **** }
1391:Generated_Source\PSoC5/cyPm.c **** 
1392:Generated_Source\PSoC5/cyPm.c **** 
1393:Generated_Source\PSoC5/cyPm.c **** /*******************************************************************************
1394:Generated_Source\PSoC5/cyPm.c **** * Function Name: CyPmHibRestore
1395:Generated_Source\PSoC5/cyPm.c **** ****************************************************************************//**
1396:Generated_Source\PSoC5/cyPm.c **** *
1397:Generated_Source\PSoC5/cyPm.c **** *  Restores the device for the proper Hibernate mode exit:
1398:Generated_Source\PSoC5/cyPm.c **** *  - Restores LVI/HVI configuration - calsl CyPmHviLviRestore()
1399:Generated_Source\PSoC5/cyPm.c **** *  - CyPmHibSlpSaveRestore() function is called
1400:Generated_Source\PSoC5/cyPm.c **** *  - Restores ILO power down mode state and enables it
ARM GAS  C:\Users\kelvi\AppData\Local\Temp\ccGQeHy8.s 			page 26


1401:Generated_Source\PSoC5/cyPm.c **** *  - Restores the state of 1 kHz and 100 kHz ILO and disables them
1402:Generated_Source\PSoC5/cyPm.c **** *  - Restores the sleep regulator settings
1403:Generated_Source\PSoC5/cyPm.c **** *
1404:Generated_Source\PSoC5/cyPm.c **** *******************************************************************************/
1405:Generated_Source\PSoC5/cyPm.c **** static void CyPmHibRestore(void) 
1406:Generated_Source\PSoC5/cyPm.c **** {
1407:Generated_Source\PSoC5/cyPm.c ****     /* Restore LVI/HVI configuration */
1408:Generated_Source\PSoC5/cyPm.c ****     CyPmHviLviRestore();
1409:Generated_Source\PSoC5/cyPm.c **** 
1410:Generated_Source\PSoC5/cyPm.c ****     /* Restore the same configuration for Hibernate and Sleep modes */
1411:Generated_Source\PSoC5/cyPm.c ****     CyPmHibSlpRestore();
1412:Generated_Source\PSoC5/cyPm.c **** 
1413:Generated_Source\PSoC5/cyPm.c ****     /* Restore 1kHz ILO enable state */
1414:Generated_Source\PSoC5/cyPm.c ****     if(CY_PM_ENABLED == cyPmBackup.ilo1kEnable)
1415:Generated_Source\PSoC5/cyPm.c ****     {
1416:Generated_Source\PSoC5/cyPm.c ****         /* Enable 1kHz ILO */
1417:Generated_Source\PSoC5/cyPm.c ****         CyILO_Start1K();
1418:Generated_Source\PSoC5/cyPm.c ****     }
1419:Generated_Source\PSoC5/cyPm.c **** 
1420:Generated_Source\PSoC5/cyPm.c ****     /* Restore 100kHz ILO enable state */
1421:Generated_Source\PSoC5/cyPm.c ****     if(CY_PM_ENABLED == cyPmBackup.ilo100kEnable)
1422:Generated_Source\PSoC5/cyPm.c ****     {
1423:Generated_Source\PSoC5/cyPm.c ****         /* Enable 100kHz ILO */
1424:Generated_Source\PSoC5/cyPm.c ****         CyILO_Start100K();
1425:Generated_Source\PSoC5/cyPm.c ****     }
1426:Generated_Source\PSoC5/cyPm.c **** 
1427:Generated_Source\PSoC5/cyPm.c ****     /* Restore ILO power mode */
1428:Generated_Source\PSoC5/cyPm.c ****     (void) CyILO_SetPowerMode(cyPmBackup.iloPowerMode);
1429:Generated_Source\PSoC5/cyPm.c **** 
1430:Generated_Source\PSoC5/cyPm.c **** 
1431:Generated_Source\PSoC5/cyPm.c ****     if(CY_PM_DISABLED == cyPmBackup.slpTrBypass)
1432:Generated_Source\PSoC5/cyPm.c ****     {
1433:Generated_Source\PSoC5/cyPm.c ****         /* Enable the sleep regulator */
1434:Generated_Source\PSoC5/cyPm.c ****         CY_PM_PWRSYS_SLP_TR_REG &= ((uint8)(~CY_PM_PWRSYS_SLP_TR_BYPASS));
1435:Generated_Source\PSoC5/cyPm.c ****     }
1436:Generated_Source\PSoC5/cyPm.c **** 
1437:Generated_Source\PSoC5/cyPm.c **** 
1438:Generated_Source\PSoC5/cyPm.c ****     /***************************************************************************
1439:Generated_Source\PSoC5/cyPm.c ****     * Restore the power mode wakeup trim registers
1440:Generated_Source\PSoC5/cyPm.c ****     ***************************************************************************/
1441:Generated_Source\PSoC5/cyPm.c ****     CY_PM_PWRSYS_WAKE_TR0_REG = cyPmBackup.wakeupTrim0;
1442:Generated_Source\PSoC5/cyPm.c ****     CY_PM_PWRSYS_WAKE_TR1_REG = cyPmBackup.wakeupTrim1;
1443:Generated_Source\PSoC5/cyPm.c **** }
1444:Generated_Source\PSoC5/cyPm.c **** 
1445:Generated_Source\PSoC5/cyPm.c **** 
1446:Generated_Source\PSoC5/cyPm.c **** /*******************************************************************************
1447:Generated_Source\PSoC5/cyPm.c **** * Function Name: CyPmCtwSetInterval
1448:Generated_Source\PSoC5/cyPm.c **** ****************************************************************************//**
1449:Generated_Source\PSoC5/cyPm.c **** *
1450:Generated_Source\PSoC5/cyPm.c **** *  Performs the CTW configuration:
1451:Generated_Source\PSoC5/cyPm.c **** *  - Disables the CTW interrupt
1452:Generated_Source\PSoC5/cyPm.c **** *  - Enables 1 kHz ILO
1453:Generated_Source\PSoC5/cyPm.c **** *  - Sets a new CTW interval
1454:Generated_Source\PSoC5/cyPm.c **** *
1455:Generated_Source\PSoC5/cyPm.c **** *  \param ctwInterval: the CTW interval to be set.
1456:Generated_Source\PSoC5/cyPm.c **** *
1457:Generated_Source\PSoC5/cyPm.c **** * \sideeffect
ARM GAS  C:\Users\kelvi\AppData\Local\Temp\ccGQeHy8.s 			page 27


1458:Generated_Source\PSoC5/cyPm.c **** *  Enables ILO 1 KHz clock and leaves it enabled.
1459:Generated_Source\PSoC5/cyPm.c **** *
1460:Generated_Source\PSoC5/cyPm.c **** *******************************************************************************/
1461:Generated_Source\PSoC5/cyPm.c **** void CyPmCtwSetInterval(uint8 ctwInterval) 
1462:Generated_Source\PSoC5/cyPm.c **** {
1463:Generated_Source\PSoC5/cyPm.c ****     /* Disable CTW interrupt enable */
1464:Generated_Source\PSoC5/cyPm.c ****     CY_PM_TW_CFG2_REG &= ((uint8)(~CY_PM_CTW_IE));
1465:Generated_Source\PSoC5/cyPm.c **** 
1466:Generated_Source\PSoC5/cyPm.c ****     /* Enable 1kHz ILO (required for CTW operation) */
1467:Generated_Source\PSoC5/cyPm.c ****     CyILO_Start1K();
1468:Generated_Source\PSoC5/cyPm.c **** 
1469:Generated_Source\PSoC5/cyPm.c ****     /* Interval could be set only while CTW is disabled */
1470:Generated_Source\PSoC5/cyPm.c ****     if(0u != (CY_PM_TW_CFG2_REG & CY_PM_CTW_EN))
1471:Generated_Source\PSoC5/cyPm.c ****     {
1472:Generated_Source\PSoC5/cyPm.c ****         /* Set CTW interval if needed */
1473:Generated_Source\PSoC5/cyPm.c ****         if(CY_PM_TW_CFG1_REG != ctwInterval)
1474:Generated_Source\PSoC5/cyPm.c ****         {
1475:Generated_Source\PSoC5/cyPm.c ****             /* Disable the CTW, set new CTW interval and enable it again */
1476:Generated_Source\PSoC5/cyPm.c ****             CY_PM_TW_CFG2_REG &= ((uint8)(~CY_PM_CTW_EN));
1477:Generated_Source\PSoC5/cyPm.c ****             CY_PM_TW_CFG1_REG = ctwInterval;
1478:Generated_Source\PSoC5/cyPm.c ****             CY_PM_TW_CFG2_REG |= CY_PM_CTW_EN;
1479:Generated_Source\PSoC5/cyPm.c ****         }   /* Required interval is already set */
1480:Generated_Source\PSoC5/cyPm.c ****     }
1481:Generated_Source\PSoC5/cyPm.c ****     else
1482:Generated_Source\PSoC5/cyPm.c ****     {
1483:Generated_Source\PSoC5/cyPm.c ****         /* Set CTW interval if needed */
1484:Generated_Source\PSoC5/cyPm.c ****         if(CY_PM_TW_CFG1_REG != ctwInterval)
1485:Generated_Source\PSoC5/cyPm.c ****         {
1486:Generated_Source\PSoC5/cyPm.c ****             /* Set new CTW interval. Could be changed if CTW is disabled */
1487:Generated_Source\PSoC5/cyPm.c ****             CY_PM_TW_CFG1_REG = ctwInterval;
1488:Generated_Source\PSoC5/cyPm.c ****         }   /* Required interval is already set */
1489:Generated_Source\PSoC5/cyPm.c **** 
1490:Generated_Source\PSoC5/cyPm.c ****         /* Enable CTW */
1491:Generated_Source\PSoC5/cyPm.c ****         CY_PM_TW_CFG2_REG |= CY_PM_CTW_EN;
1492:Generated_Source\PSoC5/cyPm.c ****     }
1493:Generated_Source\PSoC5/cyPm.c **** }
1494:Generated_Source\PSoC5/cyPm.c **** 
1495:Generated_Source\PSoC5/cyPm.c **** 
1496:Generated_Source\PSoC5/cyPm.c **** /*******************************************************************************
1497:Generated_Source\PSoC5/cyPm.c **** * Function Name: CyPmOppsSet
1498:Generated_Source\PSoC5/cyPm.c **** ****************************************************************************//**
1499:Generated_Source\PSoC5/cyPm.c **** *
1500:Generated_Source\PSoC5/cyPm.c **** *  Performs 1PPS configuration:
1501:Generated_Source\PSoC5/cyPm.c **** *  - Starts 32 KHz XTAL
1502:Generated_Source\PSoC5/cyPm.c **** *  - Disables 1PPS interrupts
1503:Generated_Source\PSoC5/cyPm.c **** *  - Enables 1PPS
1504:Generated_Source\PSoC5/cyPm.c **** *
1505:Generated_Source\PSoC5/cyPm.c **** *******************************************************************************/
1506:Generated_Source\PSoC5/cyPm.c **** void CyPmOppsSet(void) 
1507:Generated_Source\PSoC5/cyPm.c **** {
1508:Generated_Source\PSoC5/cyPm.c ****     /* Enable 32kHz XTAL if needed */
1509:Generated_Source\PSoC5/cyPm.c ****     if(0u == (CY_PM_SLOWCLK_X32_CR_REG & CY_PM_X32_CR_X32EN))
1510:Generated_Source\PSoC5/cyPm.c ****     {
1511:Generated_Source\PSoC5/cyPm.c ****         /* Enable 32kHz XTAL */
1512:Generated_Source\PSoC5/cyPm.c ****         CyXTAL_32KHZ_Start();
1513:Generated_Source\PSoC5/cyPm.c ****     }
1514:Generated_Source\PSoC5/cyPm.c **** 
ARM GAS  C:\Users\kelvi\AppData\Local\Temp\ccGQeHy8.s 			page 28


1515:Generated_Source\PSoC5/cyPm.c ****     /* Disable 1PPS interrupt enable */
1516:Generated_Source\PSoC5/cyPm.c ****     CY_PM_TW_CFG2_REG &= ((uint8)(~CY_PM_1PPS_IE));
1517:Generated_Source\PSoC5/cyPm.c **** 
1518:Generated_Source\PSoC5/cyPm.c ****     /* Enable 1PPS operation */
1519:Generated_Source\PSoC5/cyPm.c ****     CY_PM_TW_CFG2_REG |= CY_PM_1PPS_EN;
1520:Generated_Source\PSoC5/cyPm.c **** }
1521:Generated_Source\PSoC5/cyPm.c **** 
1522:Generated_Source\PSoC5/cyPm.c **** 
1523:Generated_Source\PSoC5/cyPm.c **** /*******************************************************************************
1524:Generated_Source\PSoC5/cyPm.c **** * Function Name: CyPmFtwSetInterval
1525:Generated_Source\PSoC5/cyPm.c **** ****************************************************************************//**
1526:Generated_Source\PSoC5/cyPm.c **** *
1527:Generated_Source\PSoC5/cyPm.c **** *  Performs the FTW configuration:
1528:Generated_Source\PSoC5/cyPm.c **** *  - Disables the FTW interrupt
1529:Generated_Source\PSoC5/cyPm.c **** *  - Enables 100 kHz ILO
1530:Generated_Source\PSoC5/cyPm.c **** *  - Sets a new FTW interval.
1531:Generated_Source\PSoC5/cyPm.c **** *
1532:Generated_Source\PSoC5/cyPm.c **** *  \param ftwInterval The FTW counter interval.
1533:Generated_Source\PSoC5/cyPm.c **** *
1534:Generated_Source\PSoC5/cyPm.c **** * \sideeffect
1535:Generated_Source\PSoC5/cyPm.c **** *  Enables the ILO 100 KHz clock and leaves it enabled.
1536:Generated_Source\PSoC5/cyPm.c **** *
1537:Generated_Source\PSoC5/cyPm.c **** *******************************************************************************/
1538:Generated_Source\PSoC5/cyPm.c **** void CyPmFtwSetInterval(uint8 ftwInterval) 
1539:Generated_Source\PSoC5/cyPm.c **** {
1540:Generated_Source\PSoC5/cyPm.c ****     /* Disable FTW interrupt enable */
1541:Generated_Source\PSoC5/cyPm.c ****     CY_PM_TW_CFG2_REG &= ((uint8)(~CY_PM_FTW_IE));
1542:Generated_Source\PSoC5/cyPm.c **** 
1543:Generated_Source\PSoC5/cyPm.c ****     /* Enable 100kHz ILO */
1544:Generated_Source\PSoC5/cyPm.c ****     CyILO_Start100K();
1545:Generated_Source\PSoC5/cyPm.c **** 
1546:Generated_Source\PSoC5/cyPm.c ****     /* Interval could be set only while FTW is disabled */
1547:Generated_Source\PSoC5/cyPm.c ****     if(0u != (CY_PM_TW_CFG2_REG & CY_PM_FTW_EN))
1548:Generated_Source\PSoC5/cyPm.c ****     {
1549:Generated_Source\PSoC5/cyPm.c ****         /* Disable FTW, set new FTW interval if needed and enable it again */
1550:Generated_Source\PSoC5/cyPm.c ****         if(CY_PM_TW_CFG0_REG != ftwInterval)
1551:Generated_Source\PSoC5/cyPm.c ****         {
1552:Generated_Source\PSoC5/cyPm.c ****             /* Disable CTW, set new CTW interval and enable it again */
1553:Generated_Source\PSoC5/cyPm.c ****             CY_PM_TW_CFG2_REG &= ((uint8)(~CY_PM_FTW_EN));
1554:Generated_Source\PSoC5/cyPm.c ****             CY_PM_TW_CFG0_REG = ftwInterval;
1555:Generated_Source\PSoC5/cyPm.c ****             CY_PM_TW_CFG2_REG |= CY_PM_FTW_EN;
1556:Generated_Source\PSoC5/cyPm.c ****         }   /* Required interval is already set */
1557:Generated_Source\PSoC5/cyPm.c ****     }
1558:Generated_Source\PSoC5/cyPm.c ****     else
1559:Generated_Source\PSoC5/cyPm.c ****     {
1560:Generated_Source\PSoC5/cyPm.c ****         /* Set new FTW counter interval if needed. FTW is disabled. */
1561:Generated_Source\PSoC5/cyPm.c ****         if(CY_PM_TW_CFG0_REG != ftwInterval)
1562:Generated_Source\PSoC5/cyPm.c ****         {
1563:Generated_Source\PSoC5/cyPm.c ****             /* Set new CTW interval. Could be changed if CTW is disabled */
1564:Generated_Source\PSoC5/cyPm.c ****             CY_PM_TW_CFG0_REG = ftwInterval;
1565:Generated_Source\PSoC5/cyPm.c ****         }   /* Required interval is already set */
1566:Generated_Source\PSoC5/cyPm.c **** 
1567:Generated_Source\PSoC5/cyPm.c ****         /* Enable FTW */
1568:Generated_Source\PSoC5/cyPm.c ****         CY_PM_TW_CFG2_REG |= CY_PM_FTW_EN;
1569:Generated_Source\PSoC5/cyPm.c ****     }
1570:Generated_Source\PSoC5/cyPm.c **** }
1571:Generated_Source\PSoC5/cyPm.c **** 
ARM GAS  C:\Users\kelvi\AppData\Local\Temp\ccGQeHy8.s 			page 29


1572:Generated_Source\PSoC5/cyPm.c **** 
1573:Generated_Source\PSoC5/cyPm.c **** /*******************************************************************************
1574:Generated_Source\PSoC5/cyPm.c **** * Function Name: CyPmHibSlpSaveSet
1575:Generated_Source\PSoC5/cyPm.c **** ****************************************************************************//**
1576:Generated_Source\PSoC5/cyPm.c **** *
1577:Generated_Source\PSoC5/cyPm.c **** *  This API is used for preparing the device for the Sleep and Hibernate low
1578:Generated_Source\PSoC5/cyPm.c **** *  power modes entry:
1579:Generated_Source\PSoC5/cyPm.c **** *  - Saves the COMP, VIDAC, DSM, and SAR routing connections (PSoC 5)
1580:Generated_Source\PSoC5/cyPm.c **** *  - Saves the SC/CT routing connections (PSoC 3/5/5LP)
1581:Generated_Source\PSoC5/cyPm.c **** *  - Disables the Serial Wire Viewer (SWV) (PSoC 3)
1582:Generated_Source\PSoC5/cyPm.c **** *  - Saves the boost reference selection and sets it to internal
1583:Generated_Source\PSoC5/cyPm.c **** *
1584:Generated_Source\PSoC5/cyPm.c **** * Reentrant:
1585:Generated_Source\PSoC5/cyPm.c **** *  No
1586:Generated_Source\PSoC5/cyPm.c **** *
1587:Generated_Source\PSoC5/cyPm.c **** *******************************************************************************/
1588:Generated_Source\PSoC5/cyPm.c **** static void CyPmHibSlpSaveSet(void) 
1589:Generated_Source\PSoC5/cyPm.c **** {
  26              		.loc 1 1589 0
  27              		.cfi_startproc
  28              		@ args = 0, pretend = 0, frame = 0
  29              		@ frame_needed = 0, uses_anonymous_args = 0
  30 0000 2DE9F04F 		push	{r4, r5, r6, r7, r8, r9, r10, fp, lr}
  31              		.cfi_def_cfa_offset 36
  32              		.cfi_offset 4, -36
  33              		.cfi_offset 5, -32
  34              		.cfi_offset 6, -28
  35              		.cfi_offset 7, -24
  36              		.cfi_offset 8, -20
  37              		.cfi_offset 9, -16
  38              		.cfi_offset 10, -12
  39              		.cfi_offset 11, -8
  40              		.cfi_offset 14, -4
1590:Generated_Source\PSoC5/cyPm.c ****     /* Save SC/CT routing registers */
1591:Generated_Source\PSoC5/cyPm.c ****     cyPmBackup.scctData[0u]   = CY_GET_REG8(CYREG_SC0_SW0 );
  41              		.loc 1 1591 0
  42 0004 DFF8BCA1 		ldr	r10, .L5+96
  43 0008 9AF80020 		ldrb	r2, [r10]	@ zero_extendqisi2
  44 000c 554B     		ldr	r3, .L5
  45 000e 5A72     		strb	r2, [r3, #9]
1592:Generated_Source\PSoC5/cyPm.c ****     cyPmBackup.scctData[1u]   = CY_GET_REG8(CYREG_SC0_SW2 );
  46              		.loc 1 1592 0
  47 0010 DFF8B491 		ldr	r9, .L5+100
  48 0014 99F80020 		ldrb	r2, [r9]	@ zero_extendqisi2
  49 0018 9A72     		strb	r2, [r3, #10]
1593:Generated_Source\PSoC5/cyPm.c ****     cyPmBackup.scctData[2u]   = CY_GET_REG8(CYREG_SC0_SW3 );
  50              		.loc 1 1593 0
  51 001a 534A     		ldr	r2, .L5+4
  52 001c 1278     		ldrb	r2, [r2]	@ zero_extendqisi2
  53 001e DA72     		strb	r2, [r3, #11]
1594:Generated_Source\PSoC5/cyPm.c ****     cyPmBackup.scctData[3u]   = CY_GET_REG8(CYREG_SC0_SW4 );
  54              		.loc 1 1594 0
  55 0020 524A     		ldr	r2, .L5+8
  56 0022 1278     		ldrb	r2, [r2]	@ zero_extendqisi2
  57 0024 1A73     		strb	r2, [r3, #12]
1595:Generated_Source\PSoC5/cyPm.c ****     cyPmBackup.scctData[4u]   = CY_GET_REG8(CYREG_SC0_SW6 );
  58              		.loc 1 1595 0
ARM GAS  C:\Users\kelvi\AppData\Local\Temp\ccGQeHy8.s 			page 30


  59 0026 524A     		ldr	r2, .L5+12
  60 0028 1278     		ldrb	r2, [r2]	@ zero_extendqisi2
  61 002a 5A73     		strb	r2, [r3, #13]
1596:Generated_Source\PSoC5/cyPm.c ****     cyPmBackup.scctData[5u]   = CY_GET_REG8(CYREG_SC0_SW8 );
  62              		.loc 1 1596 0
  63 002c 514A     		ldr	r2, .L5+16
  64 002e 1278     		ldrb	r2, [r2]	@ zero_extendqisi2
  65 0030 9A73     		strb	r2, [r3, #14]
1597:Generated_Source\PSoC5/cyPm.c ****     cyPmBackup.scctData[6u]   = CY_GET_REG8(CYREG_SC0_SW10);
  66              		.loc 1 1597 0
  67 0032 514A     		ldr	r2, .L5+20
  68 0034 1278     		ldrb	r2, [r2]	@ zero_extendqisi2
  69 0036 DA73     		strb	r2, [r3, #15]
1598:Generated_Source\PSoC5/cyPm.c **** 
1599:Generated_Source\PSoC5/cyPm.c ****     cyPmBackup.scctData[7u]   = CY_GET_REG8(CYREG_SC1_SW0 );
  70              		.loc 1 1599 0
  71 0038 504A     		ldr	r2, .L5+24
  72 003a 1278     		ldrb	r2, [r2]	@ zero_extendqisi2
  73 003c 1A74     		strb	r2, [r3, #16]
1600:Generated_Source\PSoC5/cyPm.c ****     cyPmBackup.scctData[8u]   = CY_GET_REG8(CYREG_SC1_SW2 );
  74              		.loc 1 1600 0
  75 003e 504A     		ldr	r2, .L5+28
  76 0040 1278     		ldrb	r2, [r2]	@ zero_extendqisi2
  77 0042 5A74     		strb	r2, [r3, #17]
1601:Generated_Source\PSoC5/cyPm.c ****     cyPmBackup.scctData[9u]   = CY_GET_REG8(CYREG_SC1_SW3 );
  78              		.loc 1 1601 0
  79 0044 4F4A     		ldr	r2, .L5+32
  80 0046 1278     		ldrb	r2, [r2]	@ zero_extendqisi2
  81 0048 9A74     		strb	r2, [r3, #18]
1602:Generated_Source\PSoC5/cyPm.c ****     cyPmBackup.scctData[10u]  = CY_GET_REG8(CYREG_SC1_SW4 );
  82              		.loc 1 1602 0
  83 004a 4F4A     		ldr	r2, .L5+36
  84 004c 1278     		ldrb	r2, [r2]	@ zero_extendqisi2
  85 004e DA74     		strb	r2, [r3, #19]
1603:Generated_Source\PSoC5/cyPm.c ****     cyPmBackup.scctData[11u]  = CY_GET_REG8(CYREG_SC1_SW6 );
  86              		.loc 1 1603 0
  87 0050 4E4A     		ldr	r2, .L5+40
  88 0052 1278     		ldrb	r2, [r2]	@ zero_extendqisi2
  89 0054 1A75     		strb	r2, [r3, #20]
1604:Generated_Source\PSoC5/cyPm.c ****     cyPmBackup.scctData[12u]  = CY_GET_REG8(CYREG_SC1_SW8 );
  90              		.loc 1 1604 0
  91 0056 4E4A     		ldr	r2, .L5+44
  92 0058 1278     		ldrb	r2, [r2]	@ zero_extendqisi2
  93 005a 5A75     		strb	r2, [r3, #21]
1605:Generated_Source\PSoC5/cyPm.c ****     cyPmBackup.scctData[13u]  = CY_GET_REG8(CYREG_SC1_SW10);
  94              		.loc 1 1605 0
  95 005c 4D4A     		ldr	r2, .L5+48
  96 005e 1278     		ldrb	r2, [r2]	@ zero_extendqisi2
  97 0060 9A75     		strb	r2, [r3, #22]
1606:Generated_Source\PSoC5/cyPm.c **** 
1607:Generated_Source\PSoC5/cyPm.c ****     cyPmBackup.scctData[14u]  = CY_GET_REG8(CYREG_SC2_SW0 );
  98              		.loc 1 1607 0
  99 0062 4D4A     		ldr	r2, .L5+52
 100 0064 1278     		ldrb	r2, [r2]	@ zero_extendqisi2
 101 0066 DA75     		strb	r2, [r3, #23]
1608:Generated_Source\PSoC5/cyPm.c ****     cyPmBackup.scctData[15u]  = CY_GET_REG8(CYREG_SC2_SW2 );
 102              		.loc 1 1608 0
ARM GAS  C:\Users\kelvi\AppData\Local\Temp\ccGQeHy8.s 			page 31


 103 0068 4C4A     		ldr	r2, .L5+56
 104 006a 1278     		ldrb	r2, [r2]	@ zero_extendqisi2
 105 006c 1A76     		strb	r2, [r3, #24]
1609:Generated_Source\PSoC5/cyPm.c ****     cyPmBackup.scctData[16u]  = CY_GET_REG8(CYREG_SC2_SW3 );
 106              		.loc 1 1609 0
 107 006e 4C4A     		ldr	r2, .L5+60
 108 0070 1278     		ldrb	r2, [r2]	@ zero_extendqisi2
 109 0072 5A76     		strb	r2, [r3, #25]
1610:Generated_Source\PSoC5/cyPm.c ****     cyPmBackup.scctData[17u]  = CY_GET_REG8(CYREG_SC2_SW4 );
 110              		.loc 1 1610 0
 111 0074 DFF854B1 		ldr	fp, .L5+104
 112 0078 9BF80020 		ldrb	r2, [fp]	@ zero_extendqisi2
 113 007c 9A76     		strb	r2, [r3, #26]
1611:Generated_Source\PSoC5/cyPm.c ****     cyPmBackup.scctData[18u]  = CY_GET_REG8(CYREG_SC2_SW6 );
 114              		.loc 1 1611 0
 115 007e DFF85081 		ldr	r8, .L5+108
 116 0082 98F80020 		ldrb	r2, [r8]	@ zero_extendqisi2
 117 0086 DA76     		strb	r2, [r3, #27]
1612:Generated_Source\PSoC5/cyPm.c ****     cyPmBackup.scctData[19u]  = CY_GET_REG8(CYREG_SC2_SW8 );
 118              		.loc 1 1612 0
 119 0088 DFF848C1 		ldr	ip, .L5+112
 120 008c 9CF80020 		ldrb	r2, [ip]	@ zero_extendqisi2
 121 0090 1A77     		strb	r2, [r3, #28]
1613:Generated_Source\PSoC5/cyPm.c ****     cyPmBackup.scctData[20u]  = CY_GET_REG8(CYREG_SC2_SW10);
 122              		.loc 1 1613 0
 123 0092 DFF844E1 		ldr	lr, .L5+116
 124 0096 9EF80020 		ldrb	r2, [lr]	@ zero_extendqisi2
 125 009a 5A77     		strb	r2, [r3, #29]
1614:Generated_Source\PSoC5/cyPm.c **** 
1615:Generated_Source\PSoC5/cyPm.c ****     cyPmBackup.scctData[21u]  = CY_GET_REG8(CYREG_SC3_SW0 );
 126              		.loc 1 1615 0
 127 009c 414F     		ldr	r7, .L5+64
 128 009e 3A78     		ldrb	r2, [r7]	@ zero_extendqisi2
 129 00a0 9A77     		strb	r2, [r3, #30]
1616:Generated_Source\PSoC5/cyPm.c ****     cyPmBackup.scctData[22u]  = CY_GET_REG8(CYREG_SC3_SW2 );
 130              		.loc 1 1616 0
 131 00a2 414E     		ldr	r6, .L5+68
 132 00a4 3278     		ldrb	r2, [r6]	@ zero_extendqisi2
 133 00a6 DA77     		strb	r2, [r3, #31]
1617:Generated_Source\PSoC5/cyPm.c ****     cyPmBackup.scctData[23u]  = CY_GET_REG8(CYREG_SC3_SW3 );
 134              		.loc 1 1617 0
 135 00a8 404D     		ldr	r5, .L5+72
 136 00aa 2A78     		ldrb	r2, [r5]	@ zero_extendqisi2
 137 00ac 83F82020 		strb	r2, [r3, #32]
1618:Generated_Source\PSoC5/cyPm.c ****     cyPmBackup.scctData[24u]  = CY_GET_REG8(CYREG_SC3_SW4 );
 138              		.loc 1 1618 0
 139 00b0 3F4C     		ldr	r4, .L5+76
 140 00b2 2278     		ldrb	r2, [r4]	@ zero_extendqisi2
 141 00b4 83F82120 		strb	r2, [r3, #33]
1619:Generated_Source\PSoC5/cyPm.c ****     cyPmBackup.scctData[25u]  = CY_GET_REG8(CYREG_SC3_SW6 );
 142              		.loc 1 1619 0
 143 00b8 3E48     		ldr	r0, .L5+80
 144 00ba 0278     		ldrb	r2, [r0]	@ zero_extendqisi2
 145 00bc 83F82220 		strb	r2, [r3, #34]
1620:Generated_Source\PSoC5/cyPm.c ****     cyPmBackup.scctData[26u]  = CY_GET_REG8(CYREG_SC3_SW8 );
 146              		.loc 1 1620 0
 147 00c0 3D49     		ldr	r1, .L5+84
ARM GAS  C:\Users\kelvi\AppData\Local\Temp\ccGQeHy8.s 			page 32


 148 00c2 0A78     		ldrb	r2, [r1]	@ zero_extendqisi2
 149 00c4 83F82320 		strb	r2, [r3, #35]
1621:Generated_Source\PSoC5/cyPm.c ****     cyPmBackup.scctData[27u]  = CY_GET_REG8(CYREG_SC3_SW10);
 150              		.loc 1 1621 0
 151 00c8 3C4A     		ldr	r2, .L5+88
 152 00ca 1278     		ldrb	r2, [r2]	@ zero_extendqisi2
 153 00cc 83F82420 		strb	r2, [r3, #36]
1622:Generated_Source\PSoC5/cyPm.c **** 
1623:Generated_Source\PSoC5/cyPm.c ****     CY_SET_REG8(CYREG_SC0_SW0 , 0u);
 154              		.loc 1 1623 0
 155 00d0 0023     		movs	r3, #0
 156 00d2 8AF80030 		strb	r3, [r10]
1624:Generated_Source\PSoC5/cyPm.c ****     CY_SET_REG8(CYREG_SC0_SW2 , 0u);
 157              		.loc 1 1624 0
 158 00d6 89F80030 		strb	r3, [r9]
1625:Generated_Source\PSoC5/cyPm.c ****     CY_SET_REG8(CYREG_SC0_SW3 , 0u);
 159              		.loc 1 1625 0
 160 00da 234A     		ldr	r2, .L5+4
 161 00dc 1370     		strb	r3, [r2]
1626:Generated_Source\PSoC5/cyPm.c ****     CY_SET_REG8(CYREG_SC0_SW4 , 0u);
 162              		.loc 1 1626 0
 163 00de 0132     		adds	r2, r2, #1
 164 00e0 1370     		strb	r3, [r2]
1627:Generated_Source\PSoC5/cyPm.c ****     CY_SET_REG8(CYREG_SC0_SW6 , 0u);
 165              		.loc 1 1627 0
 166 00e2 0232     		adds	r2, r2, #2
 167 00e4 1370     		strb	r3, [r2]
1628:Generated_Source\PSoC5/cyPm.c ****     CY_SET_REG8(CYREG_SC0_SW8 , 0u);
 168              		.loc 1 1628 0
 169 00e6 0232     		adds	r2, r2, #2
 170 00e8 1370     		strb	r3, [r2]
1629:Generated_Source\PSoC5/cyPm.c ****     CY_SET_REG8(CYREG_SC0_SW10, 0u);
 171              		.loc 1 1629 0
 172 00ea 0232     		adds	r2, r2, #2
 173 00ec 1370     		strb	r3, [r2]
1630:Generated_Source\PSoC5/cyPm.c **** 
1631:Generated_Source\PSoC5/cyPm.c ****     CY_SET_REG8(CYREG_SC1_SW0 , 0u);
 174              		.loc 1 1631 0
 175 00ee 0632     		adds	r2, r2, #6
 176 00f0 1370     		strb	r3, [r2]
1632:Generated_Source\PSoC5/cyPm.c ****     CY_SET_REG8(CYREG_SC1_SW2 , 0u);
 177              		.loc 1 1632 0
 178 00f2 0232     		adds	r2, r2, #2
 179 00f4 1370     		strb	r3, [r2]
1633:Generated_Source\PSoC5/cyPm.c ****     CY_SET_REG8(CYREG_SC1_SW3 , 0u);
 180              		.loc 1 1633 0
 181 00f6 0132     		adds	r2, r2, #1
 182 00f8 1370     		strb	r3, [r2]
1634:Generated_Source\PSoC5/cyPm.c ****     CY_SET_REG8(CYREG_SC1_SW4 , 0u);
 183              		.loc 1 1634 0
 184 00fa 0132     		adds	r2, r2, #1
 185 00fc 1370     		strb	r3, [r2]
1635:Generated_Source\PSoC5/cyPm.c ****     CY_SET_REG8(CYREG_SC1_SW6 , 0u);
 186              		.loc 1 1635 0
 187 00fe 0232     		adds	r2, r2, #2
 188 0100 1370     		strb	r3, [r2]
1636:Generated_Source\PSoC5/cyPm.c ****     CY_SET_REG8(CYREG_SC1_SW8 , 0u);
ARM GAS  C:\Users\kelvi\AppData\Local\Temp\ccGQeHy8.s 			page 33


 189              		.loc 1 1636 0
 190 0102 0232     		adds	r2, r2, #2
 191 0104 1370     		strb	r3, [r2]
1637:Generated_Source\PSoC5/cyPm.c ****     CY_SET_REG8(CYREG_SC1_SW10, 0u);
 192              		.loc 1 1637 0
 193 0106 0232     		adds	r2, r2, #2
 194 0108 1370     		strb	r3, [r2]
1638:Generated_Source\PSoC5/cyPm.c **** 
1639:Generated_Source\PSoC5/cyPm.c ****     CY_SET_REG8(CYREG_SC2_SW0 , 0u);
 195              		.loc 1 1639 0
 196 010a 0632     		adds	r2, r2, #6
 197 010c 1370     		strb	r3, [r2]
1640:Generated_Source\PSoC5/cyPm.c ****     CY_SET_REG8(CYREG_SC2_SW2 , 0u);
 198              		.loc 1 1640 0
 199 010e 0232     		adds	r2, r2, #2
 200 0110 1370     		strb	r3, [r2]
1641:Generated_Source\PSoC5/cyPm.c ****     CY_SET_REG8(CYREG_SC2_SW3 , 0u);
 201              		.loc 1 1641 0
 202 0112 0132     		adds	r2, r2, #1
 203 0114 1370     		strb	r3, [r2]
1642:Generated_Source\PSoC5/cyPm.c ****     CY_SET_REG8(CYREG_SC2_SW4 , 0u);
 204              		.loc 1 1642 0
 205 0116 8BF80030 		strb	r3, [fp]
1643:Generated_Source\PSoC5/cyPm.c ****     CY_SET_REG8(CYREG_SC2_SW6 , 0u);
 206              		.loc 1 1643 0
 207 011a 88F80030 		strb	r3, [r8]
1644:Generated_Source\PSoC5/cyPm.c ****     CY_SET_REG8(CYREG_SC2_SW8 , 0u);
 208              		.loc 1 1644 0
 209 011e 8CF80030 		strb	r3, [ip]
1645:Generated_Source\PSoC5/cyPm.c ****     CY_SET_REG8(CYREG_SC2_SW10, 0u);
 210              		.loc 1 1645 0
 211 0122 8EF80030 		strb	r3, [lr]
1646:Generated_Source\PSoC5/cyPm.c **** 
1647:Generated_Source\PSoC5/cyPm.c ****     CY_SET_REG8(CYREG_SC3_SW0 , 0u);
 212              		.loc 1 1647 0
 213 0126 3B70     		strb	r3, [r7]
1648:Generated_Source\PSoC5/cyPm.c ****     CY_SET_REG8(CYREG_SC3_SW2 , 0u);
 214              		.loc 1 1648 0
 215 0128 3370     		strb	r3, [r6]
1649:Generated_Source\PSoC5/cyPm.c ****     CY_SET_REG8(CYREG_SC3_SW3 , 0u);
 216              		.loc 1 1649 0
 217 012a 2B70     		strb	r3, [r5]
1650:Generated_Source\PSoC5/cyPm.c ****     CY_SET_REG8(CYREG_SC3_SW4 , 0u);
 218              		.loc 1 1650 0
 219 012c 2370     		strb	r3, [r4]
1651:Generated_Source\PSoC5/cyPm.c ****     CY_SET_REG8(CYREG_SC3_SW6 , 0u);
 220              		.loc 1 1651 0
 221 012e 0370     		strb	r3, [r0]
1652:Generated_Source\PSoC5/cyPm.c ****     CY_SET_REG8(CYREG_SC3_SW8 , 0u);
 222              		.loc 1 1652 0
 223 0130 0B70     		strb	r3, [r1]
1653:Generated_Source\PSoC5/cyPm.c ****     CY_SET_REG8(CYREG_SC3_SW10, 0u);
 224              		.loc 1 1653 0
 225 0132 1732     		adds	r2, r2, #23
 226 0134 1370     		strb	r3, [r2]
1654:Generated_Source\PSoC5/cyPm.c **** 
1655:Generated_Source\PSoC5/cyPm.c **** 
ARM GAS  C:\Users\kelvi\AppData\Local\Temp\ccGQeHy8.s 			page 34


1656:Generated_Source\PSoC5/cyPm.c ****     #if(CY_PSOC3)
1657:Generated_Source\PSoC5/cyPm.c **** 
1658:Generated_Source\PSoC5/cyPm.c ****         /* Serial Wire Viewer (SWV) workaround */
1659:Generated_Source\PSoC5/cyPm.c **** 
1660:Generated_Source\PSoC5/cyPm.c ****         /* Disable SWV before entering low power mode */
1661:Generated_Source\PSoC5/cyPm.c ****         if(0u != (CY_PM_MLOGIC_DBG_REG & CY_PM_MLOGIC_DBG_SWV_CLK_EN))
1662:Generated_Source\PSoC5/cyPm.c ****         {
1663:Generated_Source\PSoC5/cyPm.c ****             /* Save SWV clock enabled state */
1664:Generated_Source\PSoC5/cyPm.c ****             cyPmBackup.swvClkEnabled = CY_PM_ENABLED;
1665:Generated_Source\PSoC5/cyPm.c **** 
1666:Generated_Source\PSoC5/cyPm.c ****             /* Save current ports drive mode settings */
1667:Generated_Source\PSoC5/cyPm.c ****             cyPmBackup.prt1Dm = CY_PM_PRT1_PC3_REG & ((uint8)(~CY_PM_PRT1_PC3_DM_MASK));
1668:Generated_Source\PSoC5/cyPm.c **** 
1669:Generated_Source\PSoC5/cyPm.c ****             /* Set drive mode to strong output */
1670:Generated_Source\PSoC5/cyPm.c ****             CY_PM_PRT1_PC3_REG = (CY_PM_PRT1_PC3_REG & CY_PM_PRT1_PC3_DM_MASK) |
1671:Generated_Source\PSoC5/cyPm.c ****                                 CY_PM_PRT1_PC3_DM_STRONG;
1672:Generated_Source\PSoC5/cyPm.c **** 
1673:Generated_Source\PSoC5/cyPm.c ****             /* Disable SWV clocks */
1674:Generated_Source\PSoC5/cyPm.c ****             CY_PM_MLOGIC_DBG_REG &= ((uint8)(~CY_PM_MLOGIC_DBG_SWV_CLK_EN));
1675:Generated_Source\PSoC5/cyPm.c ****         }
1676:Generated_Source\PSoC5/cyPm.c ****         else
1677:Generated_Source\PSoC5/cyPm.c ****         {
1678:Generated_Source\PSoC5/cyPm.c ****             /* Save SWV clock disabled state */
1679:Generated_Source\PSoC5/cyPm.c ****             cyPmBackup.swvClkEnabled = CY_PM_DISABLED;
1680:Generated_Source\PSoC5/cyPm.c ****         }
1681:Generated_Source\PSoC5/cyPm.c **** 
1682:Generated_Source\PSoC5/cyPm.c ****     #endif  /* (CY_PSOC3) */
1683:Generated_Source\PSoC5/cyPm.c **** 
1684:Generated_Source\PSoC5/cyPm.c **** 
1685:Generated_Source\PSoC5/cyPm.c ****     /***************************************************************************
1686:Generated_Source\PSoC5/cyPm.c ****     * Save boost reference and set it to boost's internal by clearing the bit.
1687:Generated_Source\PSoC5/cyPm.c ****     * External (chip bandgap) reference is not available in Sleep and Hibernate.
1688:Generated_Source\PSoC5/cyPm.c ****     ***************************************************************************/
1689:Generated_Source\PSoC5/cyPm.c ****     if(0u != (CY_PM_BOOST_CR2_REG & CY_PM_BOOST_CR2_EREFSEL_EXT))
 227              		.loc 1 1689 0
 228 0136 224B     		ldr	r3, .L5+92
 229 0138 1B78     		ldrb	r3, [r3]	@ zero_extendqisi2
 230 013a 13F0080F 		tst	r3, #8
 231 013e 0AD0     		beq	.L2
1690:Generated_Source\PSoC5/cyPm.c ****     {
1691:Generated_Source\PSoC5/cyPm.c ****         cyPmBackup.boostRefExt = CY_PM_ENABLED;
 232              		.loc 1 1691 0
 233 0140 0122     		movs	r2, #1
 234 0142 084B     		ldr	r3, .L5
 235 0144 83F82E20 		strb	r2, [r3, #46]
1692:Generated_Source\PSoC5/cyPm.c ****         CY_PM_BOOST_CR2_REG &= ((uint8)(~CY_PM_BOOST_CR2_EREFSEL_EXT));
 236              		.loc 1 1692 0
 237 0148 1D4A     		ldr	r2, .L5+92
 238 014a 1378     		ldrb	r3, [r2]	@ zero_extendqisi2
 239 014c 03F0F703 		and	r3, r3, #247
 240 0150 1370     		strb	r3, [r2]
 241 0152 BDE8F08F 		pop	{r4, r5, r6, r7, r8, r9, r10, fp, pc}
 242              	.L2:
1693:Generated_Source\PSoC5/cyPm.c ****     }
1694:Generated_Source\PSoC5/cyPm.c ****     else
1695:Generated_Source\PSoC5/cyPm.c ****     {
1696:Generated_Source\PSoC5/cyPm.c ****         cyPmBackup.boostRefExt = CY_PM_DISABLED;
ARM GAS  C:\Users\kelvi\AppData\Local\Temp\ccGQeHy8.s 			page 35


 243              		.loc 1 1696 0
 244 0156 0022     		movs	r2, #0
 245 0158 024B     		ldr	r3, .L5
 246 015a 83F82E20 		strb	r2, [r3, #46]
 247 015e BDE8F08F 		pop	{r4, r5, r6, r7, r8, r9, r10, fp, pc}
 248              	.L6:
 249 0162 00BF     		.align	2
 250              	.L5:
 251 0164 00000000 		.word	.LANCHOR0
 252 0168 035A0040 		.word	1073764867
 253 016c 045A0040 		.word	1073764868
 254 0170 065A0040 		.word	1073764870
 255 0174 085A0040 		.word	1073764872
 256 0178 0A5A0040 		.word	1073764874
 257 017c 105A0040 		.word	1073764880
 258 0180 125A0040 		.word	1073764882
 259 0184 135A0040 		.word	1073764883
 260 0188 145A0040 		.word	1073764884
 261 018c 165A0040 		.word	1073764886
 262 0190 185A0040 		.word	1073764888
 263 0194 1A5A0040 		.word	1073764890
 264 0198 205A0040 		.word	1073764896
 265 019c 225A0040 		.word	1073764898
 266 01a0 235A0040 		.word	1073764899
 267 01a4 305A0040 		.word	1073764912
 268 01a8 325A0040 		.word	1073764914
 269 01ac 335A0040 		.word	1073764915
 270 01b0 345A0040 		.word	1073764916
 271 01b4 365A0040 		.word	1073764918
 272 01b8 385A0040 		.word	1073764920
 273 01bc 3A5A0040 		.word	1073764922
 274 01c0 22430040 		.word	1073759010
 275 01c4 005A0040 		.word	1073764864
 276 01c8 025A0040 		.word	1073764866
 277 01cc 245A0040 		.word	1073764900
 278 01d0 265A0040 		.word	1073764902
 279 01d4 285A0040 		.word	1073764904
 280 01d8 2A5A0040 		.word	1073764906
 281              		.cfi_endproc
 282              	.LFE12:
 283              		.size	CyPmHibSlpSaveSet, .-CyPmHibSlpSaveSet
 284              		.section	.text.CyPmHibSlpRestore,"ax",%progbits
 285              		.align	2
 286              		.thumb
 287              		.thumb_func
 288              		.type	CyPmHibSlpRestore, %function
 289              	CyPmHibSlpRestore:
 290              	.LFB13:
1697:Generated_Source\PSoC5/cyPm.c ****     }
1698:Generated_Source\PSoC5/cyPm.c **** }
1699:Generated_Source\PSoC5/cyPm.c **** 
1700:Generated_Source\PSoC5/cyPm.c **** 
1701:Generated_Source\PSoC5/cyPm.c **** /*******************************************************************************
1702:Generated_Source\PSoC5/cyPm.c **** * Function Name: CyPmHibSlpRestore
1703:Generated_Source\PSoC5/cyPm.c **** ****************************************************************************//**
1704:Generated_Source\PSoC5/cyPm.c **** *
1705:Generated_Source\PSoC5/cyPm.c **** *  This API is used for restoring the device configurations after wakeup from
ARM GAS  C:\Users\kelvi\AppData\Local\Temp\ccGQeHy8.s 			page 36


1706:Generated_Source\PSoC5/cyPm.c **** *  the Sleep and Hibernate low power modes:
1707:Generated_Source\PSoC5/cyPm.c **** *  - Restores the SC/CT routing connections
1708:Generated_Source\PSoC5/cyPm.c **** *  - Restores the enable state of the Serial Wire Viewer (SWV) (PSoC 3)
1709:Generated_Source\PSoC5/cyPm.c **** *  - Restores the  boost reference selection
1710:Generated_Source\PSoC5/cyPm.c **** *
1711:Generated_Source\PSoC5/cyPm.c **** *******************************************************************************/
1712:Generated_Source\PSoC5/cyPm.c **** static void CyPmHibSlpRestore(void) 
1713:Generated_Source\PSoC5/cyPm.c **** {
 291              		.loc 1 1713 0
 292              		.cfi_startproc
 293              		@ args = 0, pretend = 0, frame = 0
 294              		@ frame_needed = 0, uses_anonymous_args = 0
 295              		@ link register save eliminated.
1714:Generated_Source\PSoC5/cyPm.c ****     /* Restore SC/CT routing registers */
1715:Generated_Source\PSoC5/cyPm.c ****     CY_SET_REG8(CYREG_SC0_SW0 , cyPmBackup.scctData[0u] );
 296              		.loc 1 1715 0
 297 0000 324B     		ldr	r3, .L9
 298 0002 597A     		ldrb	r1, [r3, #9]	@ zero_extendqisi2
 299 0004 324A     		ldr	r2, .L9+4
 300 0006 1170     		strb	r1, [r2]
1716:Generated_Source\PSoC5/cyPm.c ****     CY_SET_REG8(CYREG_SC0_SW2 , cyPmBackup.scctData[1u] );
 301              		.loc 1 1716 0
 302 0008 997A     		ldrb	r1, [r3, #10]	@ zero_extendqisi2
 303 000a 0232     		adds	r2, r2, #2
 304 000c 1170     		strb	r1, [r2]
1717:Generated_Source\PSoC5/cyPm.c ****     CY_SET_REG8(CYREG_SC0_SW3 , cyPmBackup.scctData[2u] );
 305              		.loc 1 1717 0
 306 000e D97A     		ldrb	r1, [r3, #11]	@ zero_extendqisi2
 307 0010 0132     		adds	r2, r2, #1
 308 0012 1170     		strb	r1, [r2]
1718:Generated_Source\PSoC5/cyPm.c ****     CY_SET_REG8(CYREG_SC0_SW4 , cyPmBackup.scctData[3u] );
 309              		.loc 1 1718 0
 310 0014 197B     		ldrb	r1, [r3, #12]	@ zero_extendqisi2
 311 0016 0132     		adds	r2, r2, #1
 312 0018 1170     		strb	r1, [r2]
1719:Generated_Source\PSoC5/cyPm.c ****     CY_SET_REG8(CYREG_SC0_SW6 , cyPmBackup.scctData[4u] );
 313              		.loc 1 1719 0
 314 001a 597B     		ldrb	r1, [r3, #13]	@ zero_extendqisi2
 315 001c 0232     		adds	r2, r2, #2
 316 001e 1170     		strb	r1, [r2]
1720:Generated_Source\PSoC5/cyPm.c ****     CY_SET_REG8(CYREG_SC0_SW8 , cyPmBackup.scctData[5u] );
 317              		.loc 1 1720 0
 318 0020 997B     		ldrb	r1, [r3, #14]	@ zero_extendqisi2
 319 0022 0232     		adds	r2, r2, #2
 320 0024 1170     		strb	r1, [r2]
1721:Generated_Source\PSoC5/cyPm.c ****     CY_SET_REG8(CYREG_SC0_SW10, cyPmBackup.scctData[6u] );
 321              		.loc 1 1721 0
 322 0026 D97B     		ldrb	r1, [r3, #15]	@ zero_extendqisi2
 323 0028 0232     		adds	r2, r2, #2
 324 002a 1170     		strb	r1, [r2]
1722:Generated_Source\PSoC5/cyPm.c **** 
1723:Generated_Source\PSoC5/cyPm.c ****     CY_SET_REG8(CYREG_SC1_SW0 , cyPmBackup.scctData[7u] );
 325              		.loc 1 1723 0
 326 002c 197C     		ldrb	r1, [r3, #16]	@ zero_extendqisi2
 327 002e 0632     		adds	r2, r2, #6
 328 0030 1170     		strb	r1, [r2]
1724:Generated_Source\PSoC5/cyPm.c ****     CY_SET_REG8(CYREG_SC1_SW2 , cyPmBackup.scctData[8u] );
ARM GAS  C:\Users\kelvi\AppData\Local\Temp\ccGQeHy8.s 			page 37


 329              		.loc 1 1724 0
 330 0032 597C     		ldrb	r1, [r3, #17]	@ zero_extendqisi2
 331 0034 0232     		adds	r2, r2, #2
 332 0036 1170     		strb	r1, [r2]
1725:Generated_Source\PSoC5/cyPm.c ****     CY_SET_REG8(CYREG_SC1_SW3 , cyPmBackup.scctData[9u] );
 333              		.loc 1 1725 0
 334 0038 997C     		ldrb	r1, [r3, #18]	@ zero_extendqisi2
 335 003a 0132     		adds	r2, r2, #1
 336 003c 1170     		strb	r1, [r2]
1726:Generated_Source\PSoC5/cyPm.c ****     CY_SET_REG8(CYREG_SC1_SW4 , cyPmBackup.scctData[10u]);
 337              		.loc 1 1726 0
 338 003e D97C     		ldrb	r1, [r3, #19]	@ zero_extendqisi2
 339 0040 0132     		adds	r2, r2, #1
 340 0042 1170     		strb	r1, [r2]
1727:Generated_Source\PSoC5/cyPm.c ****     CY_SET_REG8(CYREG_SC1_SW6 , cyPmBackup.scctData[11u]);
 341              		.loc 1 1727 0
 342 0044 197D     		ldrb	r1, [r3, #20]	@ zero_extendqisi2
 343 0046 0232     		adds	r2, r2, #2
 344 0048 1170     		strb	r1, [r2]
1728:Generated_Source\PSoC5/cyPm.c ****     CY_SET_REG8(CYREG_SC1_SW8 , cyPmBackup.scctData[12u]);
 345              		.loc 1 1728 0
 346 004a 597D     		ldrb	r1, [r3, #21]	@ zero_extendqisi2
 347 004c 0232     		adds	r2, r2, #2
 348 004e 1170     		strb	r1, [r2]
1729:Generated_Source\PSoC5/cyPm.c ****     CY_SET_REG8(CYREG_SC1_SW10, cyPmBackup.scctData[13u]);
 349              		.loc 1 1729 0
 350 0050 997D     		ldrb	r1, [r3, #22]	@ zero_extendqisi2
 351 0052 0232     		adds	r2, r2, #2
 352 0054 1170     		strb	r1, [r2]
1730:Generated_Source\PSoC5/cyPm.c **** 
1731:Generated_Source\PSoC5/cyPm.c ****     CY_SET_REG8(CYREG_SC2_SW0 , cyPmBackup.scctData[14u]);
 353              		.loc 1 1731 0
 354 0056 D97D     		ldrb	r1, [r3, #23]	@ zero_extendqisi2
 355 0058 0632     		adds	r2, r2, #6
 356 005a 1170     		strb	r1, [r2]
1732:Generated_Source\PSoC5/cyPm.c ****     CY_SET_REG8(CYREG_SC2_SW2 , cyPmBackup.scctData[15u]);
 357              		.loc 1 1732 0
 358 005c 197E     		ldrb	r1, [r3, #24]	@ zero_extendqisi2
 359 005e 0232     		adds	r2, r2, #2
 360 0060 1170     		strb	r1, [r2]
1733:Generated_Source\PSoC5/cyPm.c ****     CY_SET_REG8(CYREG_SC2_SW3 , cyPmBackup.scctData[16u]);
 361              		.loc 1 1733 0
 362 0062 597E     		ldrb	r1, [r3, #25]	@ zero_extendqisi2
 363 0064 0132     		adds	r2, r2, #1
 364 0066 1170     		strb	r1, [r2]
1734:Generated_Source\PSoC5/cyPm.c ****     CY_SET_REG8(CYREG_SC2_SW4 , cyPmBackup.scctData[17u]);
 365              		.loc 1 1734 0
 366 0068 997E     		ldrb	r1, [r3, #26]	@ zero_extendqisi2
 367 006a 0132     		adds	r2, r2, #1
 368 006c 1170     		strb	r1, [r2]
1735:Generated_Source\PSoC5/cyPm.c ****     CY_SET_REG8(CYREG_SC2_SW6 , cyPmBackup.scctData[18u]);
 369              		.loc 1 1735 0
 370 006e D97E     		ldrb	r1, [r3, #27]	@ zero_extendqisi2
 371 0070 0232     		adds	r2, r2, #2
 372 0072 1170     		strb	r1, [r2]
1736:Generated_Source\PSoC5/cyPm.c ****     CY_SET_REG8(CYREG_SC2_SW8 , cyPmBackup.scctData[19u]);
 373              		.loc 1 1736 0
ARM GAS  C:\Users\kelvi\AppData\Local\Temp\ccGQeHy8.s 			page 38


 374 0074 197F     		ldrb	r1, [r3, #28]	@ zero_extendqisi2
 375 0076 0232     		adds	r2, r2, #2
 376 0078 1170     		strb	r1, [r2]
1737:Generated_Source\PSoC5/cyPm.c ****     CY_SET_REG8(CYREG_SC2_SW10, cyPmBackup.scctData[20u]);
 377              		.loc 1 1737 0
 378 007a 597F     		ldrb	r1, [r3, #29]	@ zero_extendqisi2
 379 007c 0232     		adds	r2, r2, #2
 380 007e 1170     		strb	r1, [r2]
1738:Generated_Source\PSoC5/cyPm.c **** 
1739:Generated_Source\PSoC5/cyPm.c ****     CY_SET_REG8(CYREG_SC3_SW0 , cyPmBackup.scctData[21u]);
 381              		.loc 1 1739 0
 382 0080 997F     		ldrb	r1, [r3, #30]	@ zero_extendqisi2
 383 0082 0632     		adds	r2, r2, #6
 384 0084 1170     		strb	r1, [r2]
1740:Generated_Source\PSoC5/cyPm.c ****     CY_SET_REG8(CYREG_SC3_SW2 , cyPmBackup.scctData[22u]);
 385              		.loc 1 1740 0
 386 0086 D97F     		ldrb	r1, [r3, #31]	@ zero_extendqisi2
 387 0088 0232     		adds	r2, r2, #2
 388 008a 1170     		strb	r1, [r2]
1741:Generated_Source\PSoC5/cyPm.c ****     CY_SET_REG8(CYREG_SC3_SW3 , cyPmBackup.scctData[23u]);
 389              		.loc 1 1741 0
 390 008c 93F82010 		ldrb	r1, [r3, #32]	@ zero_extendqisi2
 391 0090 0132     		adds	r2, r2, #1
 392 0092 1170     		strb	r1, [r2]
1742:Generated_Source\PSoC5/cyPm.c ****     CY_SET_REG8(CYREG_SC3_SW4 , cyPmBackup.scctData[24u]);
 393              		.loc 1 1742 0
 394 0094 93F82110 		ldrb	r1, [r3, #33]	@ zero_extendqisi2
 395 0098 0132     		adds	r2, r2, #1
 396 009a 1170     		strb	r1, [r2]
1743:Generated_Source\PSoC5/cyPm.c ****     CY_SET_REG8(CYREG_SC3_SW6 , cyPmBackup.scctData[25u]);
 397              		.loc 1 1743 0
 398 009c 93F82210 		ldrb	r1, [r3, #34]	@ zero_extendqisi2
 399 00a0 0232     		adds	r2, r2, #2
 400 00a2 1170     		strb	r1, [r2]
1744:Generated_Source\PSoC5/cyPm.c ****     CY_SET_REG8(CYREG_SC3_SW8 , cyPmBackup.scctData[26u]);
 401              		.loc 1 1744 0
 402 00a4 93F82310 		ldrb	r1, [r3, #35]	@ zero_extendqisi2
 403 00a8 0232     		adds	r2, r2, #2
 404 00aa 1170     		strb	r1, [r2]
1745:Generated_Source\PSoC5/cyPm.c ****     CY_SET_REG8(CYREG_SC3_SW10, cyPmBackup.scctData[27u]);
 405              		.loc 1 1745 0
 406 00ac 93F82410 		ldrb	r1, [r3, #36]	@ zero_extendqisi2
 407 00b0 0232     		adds	r2, r2, #2
 408 00b2 1170     		strb	r1, [r2]
1746:Generated_Source\PSoC5/cyPm.c **** 
1747:Generated_Source\PSoC5/cyPm.c **** 
1748:Generated_Source\PSoC5/cyPm.c ****     #if(CY_PSOC3)
1749:Generated_Source\PSoC5/cyPm.c **** 
1750:Generated_Source\PSoC5/cyPm.c ****         /* Serial Wire Viewer (SWV) workaround */
1751:Generated_Source\PSoC5/cyPm.c ****         if(CY_PM_ENABLED == cyPmBackup.swvClkEnabled)
1752:Generated_Source\PSoC5/cyPm.c ****         {
1753:Generated_Source\PSoC5/cyPm.c ****             /* Restore ports drive mode */
1754:Generated_Source\PSoC5/cyPm.c ****             CY_PM_PRT1_PC3_REG = (CY_PM_PRT1_PC3_REG & CY_PM_PRT1_PC3_DM_MASK) |
1755:Generated_Source\PSoC5/cyPm.c ****                                     cyPmBackup.prt1Dm;
1756:Generated_Source\PSoC5/cyPm.c **** 
1757:Generated_Source\PSoC5/cyPm.c ****             /* Enable SWV clocks */
1758:Generated_Source\PSoC5/cyPm.c ****             CY_PM_MLOGIC_DBG_REG |= CY_PM_MLOGIC_DBG_SWV_CLK_EN;
ARM GAS  C:\Users\kelvi\AppData\Local\Temp\ccGQeHy8.s 			page 39


1759:Generated_Source\PSoC5/cyPm.c ****         }
1760:Generated_Source\PSoC5/cyPm.c **** 
1761:Generated_Source\PSoC5/cyPm.c ****     #endif /* (CY_PSOC3) */
1762:Generated_Source\PSoC5/cyPm.c **** 
1763:Generated_Source\PSoC5/cyPm.c **** 
1764:Generated_Source\PSoC5/cyPm.c ****     /* Restore boost reference */
1765:Generated_Source\PSoC5/cyPm.c ****     if(CY_PM_ENABLED == cyPmBackup.boostRefExt)
 409              		.loc 1 1765 0
 410 00b4 93F82E30 		ldrb	r3, [r3, #46]	@ zero_extendqisi2
 411 00b8 012B     		cmp	r3, #1
 412 00ba 06D1     		bne	.L7
1766:Generated_Source\PSoC5/cyPm.c ****     {
1767:Generated_Source\PSoC5/cyPm.c ****         CY_PM_BOOST_CR2_REG |= CY_PM_BOOST_CR2_EREFSEL_EXT;
 413              		.loc 1 1767 0
 414 00bc A2F5B852 		sub	r2, r2, #5888
 415 00c0 183A     		subs	r2, r2, #24
 416 00c2 1378     		ldrb	r3, [r2]	@ zero_extendqisi2
 417 00c4 43F00803 		orr	r3, r3, #8
 418 00c8 1370     		strb	r3, [r2]
 419              	.L7:
 420 00ca 7047     		bx	lr
 421              	.L10:
 422              		.align	2
 423              	.L9:
 424 00cc 00000000 		.word	.LANCHOR0
 425 00d0 005A0040 		.word	1073764864
 426              		.cfi_endproc
 427              	.LFE13:
 428              		.size	CyPmHibSlpRestore, .-CyPmHibSlpRestore
 429              		.section	.text.CyPmHviLviSaveDisable,"ax",%progbits
 430              		.align	2
 431              		.thumb
 432              		.thumb_func
 433              		.type	CyPmHviLviSaveDisable, %function
 434              	CyPmHviLviSaveDisable:
 435              	.LFB14:
1768:Generated_Source\PSoC5/cyPm.c ****     }
1769:Generated_Source\PSoC5/cyPm.c **** }
1770:Generated_Source\PSoC5/cyPm.c **** 
1771:Generated_Source\PSoC5/cyPm.c **** 
1772:Generated_Source\PSoC5/cyPm.c **** /*******************************************************************************
1773:Generated_Source\PSoC5/cyPm.c **** * Function Name: CyPmHviLviSaveDisable
1774:Generated_Source\PSoC5/cyPm.c **** ****************************************************************************//**
1775:Generated_Source\PSoC5/cyPm.c **** *
1776:Generated_Source\PSoC5/cyPm.c **** *  Saves analog and digital LVI and HVI configuration and disables them.
1777:Generated_Source\PSoC5/cyPm.c **** *
1778:Generated_Source\PSoC5/cyPm.c **** * Reentrant:
1779:Generated_Source\PSoC5/cyPm.c **** *  No
1780:Generated_Source\PSoC5/cyPm.c **** *
1781:Generated_Source\PSoC5/cyPm.c **** *******************************************************************************/
1782:Generated_Source\PSoC5/cyPm.c **** static void CyPmHviLviSaveDisable(void) 
1783:Generated_Source\PSoC5/cyPm.c **** {
 436              		.loc 1 1783 0
 437              		.cfi_startproc
 438              		@ args = 0, pretend = 0, frame = 0
 439              		@ frame_needed = 0, uses_anonymous_args = 0
 440 0000 08B5     		push	{r3, lr}
ARM GAS  C:\Users\kelvi\AppData\Local\Temp\ccGQeHy8.s 			page 40


 441              		.cfi_def_cfa_offset 8
 442              		.cfi_offset 3, -8
 443              		.cfi_offset 14, -4
1784:Generated_Source\PSoC5/cyPm.c ****     if(0u != (CY_VD_LVI_HVI_CONTROL_REG & CY_VD_LVID_EN))
 444              		.loc 1 1784 0
 445 0002 234B     		ldr	r3, .L19
 446 0004 1B78     		ldrb	r3, [r3]	@ zero_extendqisi2
 447 0006 13F0010F 		tst	r3, #1
 448 000a 12D0     		beq	.L12
1785:Generated_Source\PSoC5/cyPm.c ****     {
1786:Generated_Source\PSoC5/cyPm.c ****         cyPmBackup.lvidEn = CY_PM_ENABLED;
 449              		.loc 1 1786 0
 450 000c 214B     		ldr	r3, .L19+4
 451 000e 0122     		movs	r2, #1
 452 0010 83F82520 		strb	r2, [r3, #37]
1787:Generated_Source\PSoC5/cyPm.c ****         cyPmBackup.lvidTrip = CY_VD_LVI_TRIP_REG & CY_VD_LVI_TRIP_LVID_MASK;
 453              		.loc 1 1787 0
 454 0014 204A     		ldr	r2, .L19+8
 455 0016 1278     		ldrb	r2, [r2]	@ zero_extendqisi2
 456 0018 02F00F02 		and	r2, r2, #15
 457 001c 83F82620 		strb	r2, [r3, #38]
1788:Generated_Source\PSoC5/cyPm.c **** 
1789:Generated_Source\PSoC5/cyPm.c ****         /* Save state of reset device at specified Vddd threshold */
1790:Generated_Source\PSoC5/cyPm.c ****         cyPmBackup.lvidRst = (0u == (CY_VD_PRES_CONTROL_REG & CY_VD_PRESD_EN)) ? \
 458              		.loc 1 1790 0
 459 0020 1E4A     		ldr	r2, .L19+12
 460 0022 1278     		ldrb	r2, [r2]	@ zero_extendqisi2
1791:Generated_Source\PSoC5/cyPm.c ****                              CY_PM_DISABLED : CY_PM_ENABLED;
 461              		.loc 1 1791 0
 462 0024 C2F38012 		ubfx	r2, r2, #6, #1
1790:Generated_Source\PSoC5/cyPm.c ****                              CY_PM_DISABLED : CY_PM_ENABLED;
 463              		.loc 1 1790 0
 464 0028 83F82A20 		strb	r2, [r3, #42]
1792:Generated_Source\PSoC5/cyPm.c **** 
1793:Generated_Source\PSoC5/cyPm.c ****         CyVdLvDigitDisable();
 465              		.loc 1 1793 0
 466 002c FFF7FEFF 		bl	CyVdLvDigitDisable
 467              	.LVL0:
 468 0030 03E0     		b	.L13
 469              	.L12:
1794:Generated_Source\PSoC5/cyPm.c ****     }
1795:Generated_Source\PSoC5/cyPm.c ****     else
1796:Generated_Source\PSoC5/cyPm.c ****     {
1797:Generated_Source\PSoC5/cyPm.c ****         cyPmBackup.lvidEn = CY_PM_DISABLED;
 470              		.loc 1 1797 0
 471 0032 0022     		movs	r2, #0
 472 0034 174B     		ldr	r3, .L19+4
 473 0036 83F82520 		strb	r2, [r3, #37]
 474              	.L13:
1798:Generated_Source\PSoC5/cyPm.c ****     }
1799:Generated_Source\PSoC5/cyPm.c **** 
1800:Generated_Source\PSoC5/cyPm.c ****     if(0u != (CY_VD_LVI_HVI_CONTROL_REG & CY_VD_LVIA_EN))
 475              		.loc 1 1800 0
 476 003a 154B     		ldr	r3, .L19
 477 003c 1B78     		ldrb	r3, [r3]	@ zero_extendqisi2
 478 003e 13F0020F 		tst	r3, #2
 479 0042 10D0     		beq	.L14
ARM GAS  C:\Users\kelvi\AppData\Local\Temp\ccGQeHy8.s 			page 41


1801:Generated_Source\PSoC5/cyPm.c ****     {
1802:Generated_Source\PSoC5/cyPm.c ****         cyPmBackup.lviaEn = CY_PM_ENABLED;
 480              		.loc 1 1802 0
 481 0044 134B     		ldr	r3, .L19+4
 482 0046 0122     		movs	r2, #1
 483 0048 83F82720 		strb	r2, [r3, #39]
1803:Generated_Source\PSoC5/cyPm.c ****         cyPmBackup.lviaTrip = CY_VD_LVI_TRIP_REG >> 4u;
 484              		.loc 1 1803 0
 485 004c 124A     		ldr	r2, .L19+8
 486 004e 1278     		ldrb	r2, [r2]	@ zero_extendqisi2
 487 0050 1209     		lsrs	r2, r2, #4
 488 0052 83F82820 		strb	r2, [r3, #40]
1804:Generated_Source\PSoC5/cyPm.c **** 
1805:Generated_Source\PSoC5/cyPm.c ****         /* Save state of reset device at specified Vdda threshold */
1806:Generated_Source\PSoC5/cyPm.c ****         cyPmBackup.lviaRst = (0u == (CY_VD_PRES_CONTROL_REG & CY_VD_PRESA_EN)) ? \
 489              		.loc 1 1806 0
 490 0056 114A     		ldr	r2, .L19+12
 491 0058 1278     		ldrb	r2, [r2]	@ zero_extendqisi2
1807:Generated_Source\PSoC5/cyPm.c ****                              CY_PM_DISABLED : CY_PM_ENABLED;
 492              		.loc 1 1807 0
 493 005a D209     		lsrs	r2, r2, #7
1806:Generated_Source\PSoC5/cyPm.c ****                              CY_PM_DISABLED : CY_PM_ENABLED;
 494              		.loc 1 1806 0
 495 005c 83F82B20 		strb	r2, [r3, #43]
1808:Generated_Source\PSoC5/cyPm.c **** 
1809:Generated_Source\PSoC5/cyPm.c ****         CyVdLvAnalogDisable();
 496              		.loc 1 1809 0
 497 0060 FFF7FEFF 		bl	CyVdLvAnalogDisable
 498              	.LVL1:
 499 0064 03E0     		b	.L15
 500              	.L14:
1810:Generated_Source\PSoC5/cyPm.c ****     }
1811:Generated_Source\PSoC5/cyPm.c ****     else
1812:Generated_Source\PSoC5/cyPm.c ****     {
1813:Generated_Source\PSoC5/cyPm.c ****         cyPmBackup.lviaEn = CY_PM_DISABLED;
 501              		.loc 1 1813 0
 502 0066 0022     		movs	r2, #0
 503 0068 0A4B     		ldr	r3, .L19+4
 504 006a 83F82720 		strb	r2, [r3, #39]
 505              	.L15:
1814:Generated_Source\PSoC5/cyPm.c ****     }
1815:Generated_Source\PSoC5/cyPm.c **** 
1816:Generated_Source\PSoC5/cyPm.c ****     if(0u != (CY_VD_LVI_HVI_CONTROL_REG & CY_VD_HVIA_EN))
 506              		.loc 1 1816 0
 507 006e 084B     		ldr	r3, .L19
 508 0070 1B78     		ldrb	r3, [r3]	@ zero_extendqisi2
 509 0072 13F0040F 		tst	r3, #4
 510 0076 06D0     		beq	.L16
1817:Generated_Source\PSoC5/cyPm.c ****     {
1818:Generated_Source\PSoC5/cyPm.c ****         cyPmBackup.hviaEn = CY_PM_ENABLED;
 511              		.loc 1 1818 0
 512 0078 0122     		movs	r2, #1
 513 007a 064B     		ldr	r3, .L19+4
 514 007c 83F82920 		strb	r2, [r3, #41]
1819:Generated_Source\PSoC5/cyPm.c ****         CyVdHvAnalogDisable();
 515              		.loc 1 1819 0
 516 0080 FFF7FEFF 		bl	CyVdHvAnalogDisable
ARM GAS  C:\Users\kelvi\AppData\Local\Temp\ccGQeHy8.s 			page 42


 517              	.LVL2:
 518 0084 08BD     		pop	{r3, pc}
 519              	.L16:
1820:Generated_Source\PSoC5/cyPm.c ****     }
1821:Generated_Source\PSoC5/cyPm.c ****     else
1822:Generated_Source\PSoC5/cyPm.c ****     {
1823:Generated_Source\PSoC5/cyPm.c ****         cyPmBackup.hviaEn = CY_PM_DISABLED;
 520              		.loc 1 1823 0
 521 0086 0022     		movs	r2, #0
 522 0088 024B     		ldr	r3, .L19+4
 523 008a 83F82920 		strb	r2, [r3, #41]
 524 008e 08BD     		pop	{r3, pc}
 525              	.L20:
 526              		.align	2
 527              	.L19:
 528 0090 F5460040 		.word	1073759989
 529 0094 00000000 		.word	.LANCHOR0
 530 0098 F4460040 		.word	1073759988
 531 009c F7460040 		.word	1073759991
 532              		.cfi_endproc
 533              	.LFE14:
 534              		.size	CyPmHviLviSaveDisable, .-CyPmHviLviSaveDisable
 535              		.section	.text.CyPmHibSaveSet,"ax",%progbits
 536              		.align	2
 537              		.thumb
 538              		.thumb_func
 539              		.type	CyPmHibSaveSet, %function
 540              	CyPmHibSaveSet:
 541              	.LFB7:
1323:Generated_Source\PSoC5/cyPm.c ****     /* I2C backup reg must be off when the sleep regulator is unavailable */
 542              		.loc 1 1323 0
 543              		.cfi_startproc
 544              		@ args = 0, pretend = 0, frame = 0
 545              		@ frame_needed = 0, uses_anonymous_args = 0
 546 0000 08B5     		push	{r3, lr}
 547              		.cfi_def_cfa_offset 8
 548              		.cfi_offset 3, -8
 549              		.cfi_offset 14, -4
1325:Generated_Source\PSoC5/cyPm.c ****     {
 550              		.loc 1 1325 0
 551 0002 1C4B     		ldr	r3, .L26
 552 0004 1B78     		ldrb	r3, [r3]	@ zero_extendqisi2
 553 0006 13F0040F 		tst	r3, #4
 554 000a 04D0     		beq	.L22
1339:Generated_Source\PSoC5/cyPm.c ****     }
 555              		.loc 1 1339 0
 556 000c 194A     		ldr	r2, .L26
 557 000e 1378     		ldrb	r3, [r2]	@ zero_extendqisi2
 558 0010 03F0FB03 		and	r3, r3, #251
 559 0014 1370     		strb	r3, [r2]
 560              	.L22:
1344:Generated_Source\PSoC5/cyPm.c **** 
 561              		.loc 1 1344 0
 562 0016 0120     		movs	r0, #1
 563 0018 FFF7FEFF 		bl	CyILO_SetPowerMode
 564              	.LVL3:
 565 001c 164B     		ldr	r3, .L26+4
ARM GAS  C:\Users\kelvi\AppData\Local\Temp\ccGQeHy8.s 			page 43


 566 001e 1870     		strb	r0, [r3]
1347:Generated_Source\PSoC5/cyPm.c ****                                 CY_PM_DISABLED : CY_PM_ENABLED;
 567              		.loc 1 1347 0
 568 0020 1649     		ldr	r1, .L26+8
 569 0022 0A78     		ldrb	r2, [r1]	@ zero_extendqisi2
1348:Generated_Source\PSoC5/cyPm.c **** 
 570              		.loc 1 1348 0
 571 0024 C2F34002 		ubfx	r2, r2, #1, #1
1347:Generated_Source\PSoC5/cyPm.c ****                                 CY_PM_DISABLED : CY_PM_ENABLED;
 572              		.loc 1 1347 0
 573 0028 5A70     		strb	r2, [r3, #1]
1351:Generated_Source\PSoC5/cyPm.c ****                                 CY_PM_DISABLED : CY_PM_ENABLED;
 574              		.loc 1 1351 0
 575 002a 0A78     		ldrb	r2, [r1]	@ zero_extendqisi2
1352:Generated_Source\PSoC5/cyPm.c **** 
 576              		.loc 1 1352 0
 577 002c C2F38002 		ubfx	r2, r2, #2, #1
1351:Generated_Source\PSoC5/cyPm.c ****                                 CY_PM_DISABLED : CY_PM_ENABLED;
 578              		.loc 1 1351 0
 579 0030 9A70     		strb	r2, [r3, #2]
1356:Generated_Source\PSoC5/cyPm.c ****     {
 580              		.loc 1 1356 0
 581 0032 134B     		ldr	r3, .L26+12
 582 0034 1B78     		ldrb	r3, [r3]	@ zero_extendqisi2
 583 0036 13F0100F 		tst	r3, #16
 584 003a 08D1     		bne	.L23
1359:Generated_Source\PSoC5/cyPm.c ****         CY_PM_PWRSYS_SLP_TR_REG |= CY_PM_PWRSYS_SLP_TR_BYPASS;
 585              		.loc 1 1359 0
 586 003c 0022     		movs	r2, #0
 587 003e 0E4B     		ldr	r3, .L26+4
 588 0040 DA70     		strb	r2, [r3, #3]
1360:Generated_Source\PSoC5/cyPm.c ****     }
 589              		.loc 1 1360 0
 590 0042 0F4A     		ldr	r2, .L26+12
 591 0044 1378     		ldrb	r3, [r2]	@ zero_extendqisi2
 592 0046 43F01003 		orr	r3, r3, #16
 593 004a 1370     		strb	r3, [r2]
 594 004c 02E0     		b	.L24
 595              	.L23:
1364:Generated_Source\PSoC5/cyPm.c ****     }
 596              		.loc 1 1364 0
 597 004e 0122     		movs	r2, #1
 598 0050 094B     		ldr	r3, .L26+4
 599 0052 DA70     		strb	r2, [r3, #3]
 600              	.L24:
1375:Generated_Source\PSoC5/cyPm.c **** 
 601              		.loc 1 1375 0
 602 0054 FFF7FEFF 		bl	CyPmHviLviSaveDisable
 603              	.LVL4:
1379:Generated_Source\PSoC5/cyPm.c **** 
 604              		.loc 1 1379 0
 605 0058 FFF7FEFF 		bl	CyPmHibSlpSaveSet
 606              	.LVL5:
1385:Generated_Source\PSoC5/cyPm.c ****     cyPmBackup.wakeupTrim1 = CY_PM_PWRSYS_WAKE_TR1_REG;
 607              		.loc 1 1385 0
 608 005c 094A     		ldr	r2, .L26+16
 609 005e 1378     		ldrb	r3, [r2]	@ zero_extendqisi2
ARM GAS  C:\Users\kelvi\AppData\Local\Temp\ccGQeHy8.s 			page 44


 610 0060 0549     		ldr	r1, .L26+4
 611 0062 CB71     		strb	r3, [r1, #7]
1386:Generated_Source\PSoC5/cyPm.c **** 
 612              		.loc 1 1386 0
 613 0064 084B     		ldr	r3, .L26+20
 614 0066 1878     		ldrb	r0, [r3]	@ zero_extendqisi2
 615 0068 0872     		strb	r0, [r1, #8]
1388:Generated_Source\PSoC5/cyPm.c ****     CY_PM_PWRSYS_WAKE_TR1_REG = CY_PM_PWRSYS_WAKE_TR1;
 616              		.loc 1 1388 0
 617 006a FF21     		movs	r1, #255
 618 006c 1170     		strb	r1, [r2]
1389:Generated_Source\PSoC5/cyPm.c **** }
 619              		.loc 1 1389 0
 620 006e B022     		movs	r2, #176
 621 0070 1A70     		strb	r2, [r3]
 622 0072 08BD     		pop	{r3, pc}
 623              	.L27:
 624              		.align	2
 625              	.L26:
 626 0074 31430040 		.word	1073759025
 627 0078 00000000 		.word	.LANCHOR0
 628 007c 00430040 		.word	1073758976
 629 0080 83460040 		.word	1073759875
 630 0084 85460040 		.word	1073759877
 631 0088 86460040 		.word	1073759878
 632              		.cfi_endproc
 633              	.LFE7:
 634              		.size	CyPmHibSaveSet, .-CyPmHibSaveSet
 635              		.section	.text.CyPmHviLviRestore,"ax",%progbits
 636              		.align	2
 637              		.thumb
 638              		.thumb_func
 639              		.type	CyPmHviLviRestore, %function
 640              	CyPmHviLviRestore:
 641              	.LFB15:
1824:Generated_Source\PSoC5/cyPm.c ****     }
1825:Generated_Source\PSoC5/cyPm.c **** }
1826:Generated_Source\PSoC5/cyPm.c **** 
1827:Generated_Source\PSoC5/cyPm.c **** 
1828:Generated_Source\PSoC5/cyPm.c **** /*******************************************************************************
1829:Generated_Source\PSoC5/cyPm.c **** * Function Name: CyPmHviLviRestore
1830:Generated_Source\PSoC5/cyPm.c **** ****************************************************************************//**
1831:Generated_Source\PSoC5/cyPm.c **** *
1832:Generated_Source\PSoC5/cyPm.c **** *  Restores the analog and digital LVI and HVI configuration.
1833:Generated_Source\PSoC5/cyPm.c **** *
1834:Generated_Source\PSoC5/cyPm.c **** * Reentrant:
1835:Generated_Source\PSoC5/cyPm.c **** *  No
1836:Generated_Source\PSoC5/cyPm.c **** *
1837:Generated_Source\PSoC5/cyPm.c **** *******************************************************************************/
1838:Generated_Source\PSoC5/cyPm.c **** static void CyPmHviLviRestore(void) 
1839:Generated_Source\PSoC5/cyPm.c **** {
 642              		.loc 1 1839 0
 643              		.cfi_startproc
 644              		@ args = 0, pretend = 0, frame = 0
 645              		@ frame_needed = 0, uses_anonymous_args = 0
 646 0000 08B5     		push	{r3, lr}
 647              		.cfi_def_cfa_offset 8
ARM GAS  C:\Users\kelvi\AppData\Local\Temp\ccGQeHy8.s 			page 45


 648              		.cfi_offset 3, -8
 649              		.cfi_offset 14, -4
1840:Generated_Source\PSoC5/cyPm.c ****     /* Restore LVI/HVI configuration */
1841:Generated_Source\PSoC5/cyPm.c ****     if(CY_PM_ENABLED == cyPmBackup.lvidEn)
 650              		.loc 1 1841 0
 651 0002 104B     		ldr	r3, .L33
 652 0004 93F82530 		ldrb	r3, [r3, #37]	@ zero_extendqisi2
 653 0008 012B     		cmp	r3, #1
 654 000a 06D1     		bne	.L29
1842:Generated_Source\PSoC5/cyPm.c ****     {
1843:Generated_Source\PSoC5/cyPm.c ****         CyVdLvDigitEnable(cyPmBackup.lvidRst, cyPmBackup.lvidTrip);
 655              		.loc 1 1843 0
 656 000c 0D4B     		ldr	r3, .L33
 657 000e 93F82A00 		ldrb	r0, [r3, #42]	@ zero_extendqisi2
 658 0012 93F82610 		ldrb	r1, [r3, #38]	@ zero_extendqisi2
 659 0016 FFF7FEFF 		bl	CyVdLvDigitEnable
 660              	.LVL6:
 661              	.L29:
1844:Generated_Source\PSoC5/cyPm.c ****     }
1845:Generated_Source\PSoC5/cyPm.c **** 
1846:Generated_Source\PSoC5/cyPm.c ****     if(CY_PM_ENABLED == cyPmBackup.lviaEn)
 662              		.loc 1 1846 0
 663 001a 0A4B     		ldr	r3, .L33
 664 001c 93F82730 		ldrb	r3, [r3, #39]	@ zero_extendqisi2
 665 0020 012B     		cmp	r3, #1
 666 0022 06D1     		bne	.L30
1847:Generated_Source\PSoC5/cyPm.c ****     {
1848:Generated_Source\PSoC5/cyPm.c ****         CyVdLvAnalogEnable(cyPmBackup.lviaRst, cyPmBackup.lviaTrip);
 667              		.loc 1 1848 0
 668 0024 074B     		ldr	r3, .L33
 669 0026 93F82B00 		ldrb	r0, [r3, #43]	@ zero_extendqisi2
 670 002a 93F82810 		ldrb	r1, [r3, #40]	@ zero_extendqisi2
 671 002e FFF7FEFF 		bl	CyVdLvAnalogEnable
 672              	.LVL7:
 673              	.L30:
1849:Generated_Source\PSoC5/cyPm.c ****     }
1850:Generated_Source\PSoC5/cyPm.c **** 
1851:Generated_Source\PSoC5/cyPm.c ****     if(CY_PM_ENABLED == cyPmBackup.hviaEn)
 674              		.loc 1 1851 0
 675 0032 044B     		ldr	r3, .L33
 676 0034 93F82930 		ldrb	r3, [r3, #41]	@ zero_extendqisi2
 677 0038 012B     		cmp	r3, #1
 678 003a 01D1     		bne	.L28
1852:Generated_Source\PSoC5/cyPm.c ****     {
1853:Generated_Source\PSoC5/cyPm.c ****         CyVdHvAnalogEnable();
 679              		.loc 1 1853 0
 680 003c FFF7FEFF 		bl	CyVdHvAnalogEnable
 681              	.LVL8:
 682              	.L28:
 683 0040 08BD     		pop	{r3, pc}
 684              	.L34:
 685 0042 00BF     		.align	2
 686              	.L33:
 687 0044 00000000 		.word	.LANCHOR0
 688              		.cfi_endproc
 689              	.LFE15:
 690              		.size	CyPmHviLviRestore, .-CyPmHviLviRestore
ARM GAS  C:\Users\kelvi\AppData\Local\Temp\ccGQeHy8.s 			page 46


 691              		.section	.text.CyPmHibRestore,"ax",%progbits
 692              		.align	2
 693              		.thumb
 694              		.thumb_func
 695              		.type	CyPmHibRestore, %function
 696              	CyPmHibRestore:
 697              	.LFB8:
1406:Generated_Source\PSoC5/cyPm.c ****     /* Restore LVI/HVI configuration */
 698              		.loc 1 1406 0
 699              		.cfi_startproc
 700              		@ args = 0, pretend = 0, frame = 0
 701              		@ frame_needed = 0, uses_anonymous_args = 0
 702 0000 10B5     		push	{r4, lr}
 703              		.cfi_def_cfa_offset 8
 704              		.cfi_offset 4, -8
 705              		.cfi_offset 14, -4
1408:Generated_Source\PSoC5/cyPm.c **** 
 706              		.loc 1 1408 0
 707 0002 FFF7FEFF 		bl	CyPmHviLviRestore
 708              	.LVL9:
1411:Generated_Source\PSoC5/cyPm.c **** 
 709              		.loc 1 1411 0
 710 0006 FFF7FEFF 		bl	CyPmHibSlpRestore
 711              	.LVL10:
1414:Generated_Source\PSoC5/cyPm.c ****     {
 712              		.loc 1 1414 0
 713 000a 0F4B     		ldr	r3, .L40
 714 000c 5B78     		ldrb	r3, [r3, #1]	@ zero_extendqisi2
 715 000e 012B     		cmp	r3, #1
 716 0010 01D1     		bne	.L36
1417:Generated_Source\PSoC5/cyPm.c ****     }
 717              		.loc 1 1417 0
 718 0012 FFF7FEFF 		bl	CyILO_Start1K
 719              	.LVL11:
 720              	.L36:
1421:Generated_Source\PSoC5/cyPm.c ****     {
 721              		.loc 1 1421 0
 722 0016 0C4B     		ldr	r3, .L40
 723 0018 9B78     		ldrb	r3, [r3, #2]	@ zero_extendqisi2
 724 001a 012B     		cmp	r3, #1
 725 001c 01D1     		bne	.L37
1424:Generated_Source\PSoC5/cyPm.c ****     }
 726              		.loc 1 1424 0
 727 001e FFF7FEFF 		bl	CyILO_Start100K
 728              	.LVL12:
 729              	.L37:
1428:Generated_Source\PSoC5/cyPm.c **** 
 730              		.loc 1 1428 0
 731 0022 094C     		ldr	r4, .L40
 732 0024 2078     		ldrb	r0, [r4]	@ zero_extendqisi2
 733 0026 FFF7FEFF 		bl	CyILO_SetPowerMode
 734              	.LVL13:
1431:Generated_Source\PSoC5/cyPm.c ****     {
 735              		.loc 1 1431 0
 736 002a E378     		ldrb	r3, [r4, #3]	@ zero_extendqisi2
 737 002c 23B9     		cbnz	r3, .L38
1434:Generated_Source\PSoC5/cyPm.c ****     }
ARM GAS  C:\Users\kelvi\AppData\Local\Temp\ccGQeHy8.s 			page 47


 738              		.loc 1 1434 0
 739 002e 074A     		ldr	r2, .L40+4
 740 0030 1378     		ldrb	r3, [r2]	@ zero_extendqisi2
 741 0032 03F0EF03 		and	r3, r3, #239
 742 0036 1370     		strb	r3, [r2]
 743              	.L38:
1441:Generated_Source\PSoC5/cyPm.c ****     CY_PM_PWRSYS_WAKE_TR1_REG = cyPmBackup.wakeupTrim1;
 744              		.loc 1 1441 0
 745 0038 034B     		ldr	r3, .L40
 746 003a D979     		ldrb	r1, [r3, #7]	@ zero_extendqisi2
 747 003c 044A     		ldr	r2, .L40+8
 748 003e 1170     		strb	r1, [r2]
1442:Generated_Source\PSoC5/cyPm.c **** }
 749              		.loc 1 1442 0
 750 0040 1A7A     		ldrb	r2, [r3, #8]	@ zero_extendqisi2
 751 0042 044B     		ldr	r3, .L40+12
 752 0044 1A70     		strb	r2, [r3]
 753 0046 10BD     		pop	{r4, pc}
 754              	.L41:
 755              		.align	2
 756              	.L40:
 757 0048 00000000 		.word	.LANCHOR0
 758 004c 83460040 		.word	1073759875
 759 0050 85460040 		.word	1073759877
 760 0054 86460040 		.word	1073759878
 761              		.cfi_endproc
 762              	.LFE8:
 763              		.size	CyPmHibRestore, .-CyPmHibRestore
 764              		.section	.text.CyPmSaveClocks,"ax",%progbits
 765              		.align	2
 766              		.global	CyPmSaveClocks
 767              		.thumb
 768              		.thumb_func
 769              		.type	CyPmSaveClocks, %function
 770              	CyPmSaveClocks:
 771              	.LFB0:
  74:Generated_Source\PSoC5/cyPm.c ****     /* Digital and analog clocks - save enable state and disable them all */
 772              		.loc 1 74 0
 773              		.cfi_startproc
 774              		@ args = 0, pretend = 0, frame = 0
 775              		@ frame_needed = 0, uses_anonymous_args = 0
 776 0000 10B5     		push	{r4, lr}
 777              		.cfi_def_cfa_offset 8
 778              		.cfi_offset 4, -8
 779              		.cfi_offset 14, -4
  76:Generated_Source\PSoC5/cyPm.c ****     cyPmClockBackup.enClkD = CY_PM_ACT_CFG2_REG;
 780              		.loc 1 76 0
 781 0002 784A     		ldr	r2, .L69
 782 0004 1378     		ldrb	r3, [r2]	@ zero_extendqisi2
 783 0006 784C     		ldr	r4, .L69+4
 784 0008 03F00F03 		and	r3, r3, #15
 785 000c 84F83030 		strb	r3, [r4, #48]
  77:Generated_Source\PSoC5/cyPm.c ****     CY_PM_ACT_CFG1_REG &= ((uint8)(~CY_PM_ACT_EN_CLK_A_MASK));
 786              		.loc 1 77 0
 787 0010 764B     		ldr	r3, .L69+8
 788 0012 1978     		ldrb	r1, [r3]	@ zero_extendqisi2
 789 0014 84F83110 		strb	r1, [r4, #49]
ARM GAS  C:\Users\kelvi\AppData\Local\Temp\ccGQeHy8.s 			page 48


  78:Generated_Source\PSoC5/cyPm.c ****     CY_PM_ACT_CFG2_REG &= ((uint8)(~CY_PM_ACT_EN_CLK_D_MASK));
 790              		.loc 1 78 0
 791 0018 1178     		ldrb	r1, [r2]	@ zero_extendqisi2
 792 001a 01F0F001 		and	r1, r1, #240
 793 001e 1170     		strb	r1, [r2]
  79:Generated_Source\PSoC5/cyPm.c **** 
 794              		.loc 1 79 0
 795 0020 1A78     		ldrb	r2, [r3]	@ zero_extendqisi2
 796 0022 0022     		movs	r2, #0
 797 0024 1A70     		strb	r2, [r3]
  82:Generated_Source\PSoC5/cyPm.c ****     CyFlash_SetWaitCycles(CY_PM_MAX_FLASH_WAIT_CYCLES);
 798              		.loc 1 82 0
 799 0026 03F25E43 		addw	r3, r3, #1118
 800 002a 1B78     		ldrb	r3, [r3]	@ zero_extendqisi2
 801 002c 03F0C003 		and	r3, r3, #192
 802 0030 84F83530 		strb	r3, [r4, #53]
  83:Generated_Source\PSoC5/cyPm.c **** 
 803              		.loc 1 83 0
 804 0034 3720     		movs	r0, #55
 805 0036 FFF7FEFF 		bl	CyFlash_SetWaitCycles
 806              	.LVL14:
  86:Generated_Source\PSoC5/cyPm.c ****     cyPmClockBackup.imoUsbClk = CY_PM_FASTCLK_IMO_CR_REG & CY_PM_FASTCLK_IMO_CR_USB;
 807              		.loc 1 86 0
 808 003a 6D4B     		ldr	r3, .L69+12
 809 003c 1A78     		ldrb	r2, [r3]	@ zero_extendqisi2
 810 003e 02F00702 		and	r2, r2, #7
 811 0042 84F83320 		strb	r2, [r4, #51]
  87:Generated_Source\PSoC5/cyPm.c **** 
 812              		.loc 1 87 0
 813 0046 1A78     		ldrb	r2, [r3]	@ zero_extendqisi2
 814 0048 02F04002 		and	r2, r2, #64
 815 004c 84F83420 		strb	r2, [r4, #52]
  90:Generated_Source\PSoC5/cyPm.c ****     {
 816              		.loc 1 90 0
 817 0050 1B78     		ldrb	r3, [r3]	@ zero_extendqisi2
 818 0052 13F0100F 		tst	r3, #16
 819 0056 03D0     		beq	.L43
  93:Generated_Source\PSoC5/cyPm.c ****     }
 820              		.loc 1 93 0
 821 0058 0122     		movs	r2, #1
 822 005a 84F83920 		strb	r2, [r4, #57]
 823 005e 03E0     		b	.L44
 824              	.L43:
  98:Generated_Source\PSoC5/cyPm.c ****     }
 825              		.loc 1 98 0
 826 0060 0022     		movs	r2, #0
 827 0062 614B     		ldr	r3, .L69+4
 828 0064 83F83920 		strb	r2, [r3, #57]
 829              	.L44:
 102:Generated_Source\PSoC5/cyPm.c **** 
 830              		.loc 1 102 0
 831 0068 624B     		ldr	r3, .L69+16
 832 006a 1B78     		ldrb	r3, [r3]	@ zero_extendqisi2
 833 006c 03F00303 		and	r3, r3, #3
 834 0070 5D4A     		ldr	r2, .L69+4
 835 0072 82F83230 		strb	r3, [r2, #50]
 105:Generated_Source\PSoC5/cyPm.c ****     {
ARM GAS  C:\Users\kelvi\AppData\Local\Temp\ccGQeHy8.s 			page 49


 836              		.loc 1 105 0
 837 0076 012B     		cmp	r3, #1
 838 0078 19D1     		bne	.L45
 107:Generated_Source\PSoC5/cyPm.c ****         {
 839              		.loc 1 107 0
 840 007a 4FF04023 		mov	r3, #1073758208
 841 007e 1B78     		ldrb	r3, [r3]	@ zero_extendqisi2
 842 0080 03F00303 		and	r3, r3, #3
 843 0084 012B     		cmp	r3, #1
 844 0086 07D0     		beq	.L47
 845 0088 13B1     		cbz	r3, .L48
 846 008a 022B     		cmp	r3, #2
 847 008c 08D0     		beq	.L49
 848 008e 0BE0     		b	.L67
 849              	.L48:
 110:Generated_Source\PSoC5/cyPm.c ****             break;
 850              		.loc 1 110 0
 851 0090 0020     		movs	r0, #0
 852 0092 FFF7FEFF 		bl	CyMasterClk_SetSource
 853              	.LVL15:
 111:Generated_Source\PSoC5/cyPm.c **** 
 854              		.loc 1 111 0
 855 0096 0AE0     		b	.L45
 856              	.L47:
 114:Generated_Source\PSoC5/cyPm.c ****             break;
 857              		.loc 1 114 0
 858 0098 0220     		movs	r0, #2
 859 009a FFF7FEFF 		bl	CyMasterClk_SetSource
 860              	.LVL16:
 115:Generated_Source\PSoC5/cyPm.c **** 
 861              		.loc 1 115 0
 862 009e 06E0     		b	.L45
 863              	.L49:
 118:Generated_Source\PSoC5/cyPm.c ****             break;
 864              		.loc 1 118 0
 865 00a0 0320     		movs	r0, #3
 866 00a2 FFF7FEFF 		bl	CyMasterClk_SetSource
 867              	.LVL17:
 119:Generated_Source\PSoC5/cyPm.c **** 
 868              		.loc 1 119 0
 869 00a6 02E0     		b	.L45
 870              	.L67:
 122:Generated_Source\PSoC5/cyPm.c ****             break;
 871              		.loc 1 122 0 discriminator 1
 872 00a8 0020     		movs	r0, #0
 873 00aa FFF7FEFF 		bl	CyHalt
 874              	.LVL18:
 875              	.L45:
 128:Generated_Source\PSoC5/cyPm.c ****     {
 876              		.loc 1 128 0
 877 00ae 524B     		ldr	r3, .L69+20
 878 00b0 1B78     		ldrb	r3, [r3]	@ zero_extendqisi2
 879 00b2 13F0010F 		tst	r3, #1
 880 00b6 06D0     		beq	.L50
 131:Generated_Source\PSoC5/cyPm.c ****         CyPLL_OUT_Stop();
 881              		.loc 1 131 0
 882 00b8 0122     		movs	r2, #1
ARM GAS  C:\Users\kelvi\AppData\Local\Temp\ccGQeHy8.s 			page 50


 883 00ba 4B4B     		ldr	r3, .L69+4
 884 00bc 83F83E20 		strb	r2, [r3, #62]
 132:Generated_Source\PSoC5/cyPm.c ****     }
 885              		.loc 1 132 0
 886 00c0 FFF7FEFF 		bl	CyPLL_OUT_Stop
 887              	.LVL19:
 888 00c4 03E0     		b	.L51
 889              	.L50:
 137:Generated_Source\PSoC5/cyPm.c ****     }
 890              		.loc 1 137 0
 891 00c6 0022     		movs	r2, #0
 892 00c8 474B     		ldr	r3, .L69+4
 893 00ca 83F83E20 		strb	r2, [r3, #62]
 894              	.L51:
 141:Generated_Source\PSoC5/cyPm.c **** 
 895              		.loc 1 141 0
 896 00ce 0420     		movs	r0, #4
 897 00d0 FFF7FEFF 		bl	CyIMO_SetFreq
 898              	.LVL20:
 144:Generated_Source\PSoC5/cyPm.c ****     {
 899              		.loc 1 144 0
 900 00d4 494B     		ldr	r3, .L69+24
 901 00d6 1B78     		ldrb	r3, [r3]	@ zero_extendqisi2
 902 00d8 13F0100F 		tst	r3, #16
 903 00dc 04D0     		beq	.L52
 147:Generated_Source\PSoC5/cyPm.c ****     }
 904              		.loc 1 147 0
 905 00de 0122     		movs	r2, #1
 906 00e0 414B     		ldr	r3, .L69+4
 907 00e2 83F83620 		strb	r2, [r3, #54]
 908 00e6 08E0     		b	.L53
 909              	.L52:
 152:Generated_Source\PSoC5/cyPm.c **** 
 910              		.loc 1 152 0
 911 00e8 0020     		movs	r0, #0
 912 00ea 3F4B     		ldr	r3, .L69+4
 913 00ec 83F83600 		strb	r0, [r3, #54]
 155:Generated_Source\PSoC5/cyPm.c **** 
 914              		.loc 1 155 0
 915 00f0 FFF7FEFF 		bl	CyIMO_Start
 916              	.LVL21:
 158:Generated_Source\PSoC5/cyPm.c ****     }
 917              		.loc 1 158 0
 918 00f4 0620     		movs	r0, #6
 919 00f6 FFF7FEFF 		bl	CyDelayUs
 920              	.LVL22:
 921              	.L53:
 162:Generated_Source\PSoC5/cyPm.c ****     {
 922              		.loc 1 162 0
 923 00fa 3D4B     		ldr	r3, .L69+12
 924 00fc 1B78     		ldrb	r3, [r3]	@ zero_extendqisi2
 925 00fe 13F0200F 		tst	r3, #32
 926 0102 0FD0     		beq	.L54
 166:Generated_Source\PSoC5/cyPm.c **** 
 927              		.loc 1 166 0
 928 0104 4FF04023 		mov	r3, #1073758208
 929 0108 1B78     		ldrb	r3, [r3]	@ zero_extendqisi2
ARM GAS  C:\Users\kelvi\AppData\Local\Temp\ccGQeHy8.s 			page 51


 165:Generated_Source\PSoC5/cyPm.c ****             (0u == (CY_PM_CLKDIST_CR_REG & CY_PM_CLKDIST_IMO2X_SRC)) ? CY_IMO_SOURCE_DSI : CY_IMO_S
 930              		.loc 1 165 0
 931 010a 13F0400F 		tst	r3, #64
 932 010e 01D1     		bne	.L66
 933 0110 0222     		movs	r2, #2
 934 0112 00E0     		b	.L55
 935              	.L66:
 936 0114 0122     		movs	r2, #1
 937              	.L55:
 165:Generated_Source\PSoC5/cyPm.c ****             (0u == (CY_PM_CLKDIST_CR_REG & CY_PM_CLKDIST_IMO2X_SRC)) ? CY_IMO_SOURCE_DSI : CY_IMO_S
 938              		.loc 1 165 0 is_stmt 0 discriminator 4
 939 0116 344B     		ldr	r3, .L69+4
 940 0118 83F83720 		strb	r2, [r3, #55]
 169:Generated_Source\PSoC5/cyPm.c ****     }
 941              		.loc 1 169 0 is_stmt 1 discriminator 4
 942 011c 0020     		movs	r0, #0
 943 011e FFF7FEFF 		bl	CyIMO_SetSource
 944              	.LVL23:
 945 0122 03E0     		b	.L56
 946              	.L54:
 174:Generated_Source\PSoC5/cyPm.c ****     }
 947              		.loc 1 174 0
 948 0124 0022     		movs	r2, #0
 949 0126 304B     		ldr	r3, .L69+4
 950 0128 83F83720 		strb	r2, [r3, #55]
 951              	.L56:
 178:Generated_Source\PSoC5/cyPm.c **** 
 952              		.loc 1 178 0
 953 012c 4FF04023 		mov	r3, #1073758208
 954 0130 1B78     		ldrb	r3, [r3]	@ zero_extendqisi2
 955 0132 03F03003 		and	r3, r3, #48
 956 0136 2C4A     		ldr	r2, .L69+4
 957 0138 82F83830 		strb	r3, [r2, #56]
 181:Generated_Source\PSoC5/cyPm.c ****     {
 958              		.loc 1 181 0
 959 013c 2BB1     		cbz	r3, .L57
 184:Generated_Source\PSoC5/cyPm.c ****                                 CY_PM_CLKDIST_IMO_OUT_IMO;
 960              		.loc 1 184 0
 961 013e 4FF04022 		mov	r2, #1073758208
 962 0142 1378     		ldrb	r3, [r2]	@ zero_extendqisi2
 963 0144 03F0CF03 		and	r3, r3, #207
 964 0148 1370     		strb	r3, [r2]
 965              	.L57:
 189:Generated_Source\PSoC5/cyPm.c ****     {
 966              		.loc 1 189 0
 967 014a 294B     		ldr	r3, .L69+12
 968 014c 1B78     		ldrb	r3, [r3]	@ zero_extendqisi2
 969 014e 13F0100F 		tst	r3, #16
 970 0152 01D0     		beq	.L58
 191:Generated_Source\PSoC5/cyPm.c ****     }
 971              		.loc 1 191 0
 972 0154 FFF7FEFF 		bl	CyIMO_DisableDoubler
 973              	.LVL24:
 974              	.L58:
 195:Generated_Source\PSoC5/cyPm.c ****     if(CY_PM_DIV_BY_ONE != cyPmClockBackup.clkSyncDiv)
 975              		.loc 1 195 0
 976 0158 294B     		ldr	r3, .L69+28
ARM GAS  C:\Users\kelvi\AppData\Local\Temp\ccGQeHy8.s 			page 52


 977 015a 1B78     		ldrb	r3, [r3]	@ zero_extendqisi2
 978 015c DBB2     		uxtb	r3, r3
 979 015e 224A     		ldr	r2, .L69+4
 980 0160 82F83A30 		strb	r3, [r2, #58]
 196:Generated_Source\PSoC5/cyPm.c ****     {
 981              		.loc 1 196 0
 982 0164 13B1     		cbz	r3, .L59
 198:Generated_Source\PSoC5/cyPm.c ****     }    /* No change if master clock divider is 1 */
 983              		.loc 1 198 0
 984 0166 0020     		movs	r0, #0
 985 0168 FFF7FEFF 		bl	CyMasterClk_SetDivider
 986              	.LVL25:
 987              	.L59:
 202:Generated_Source\PSoC5/cyPm.c ****     {
 988              		.loc 1 202 0
 989 016c 1E4B     		ldr	r3, .L69+4
 990 016e 93F83230 		ldrb	r3, [r3, #50]	@ zero_extendqisi2
 991 0172 13B1     		cbz	r3, .L60
 204:Generated_Source\PSoC5/cyPm.c ****     }    /* No change if master clock source is IMO */
 992              		.loc 1 204 0
 993 0174 0020     		movs	r0, #0
 994 0176 FFF7FEFF 		bl	CyMasterClk_SetSource
 995              	.LVL26:
 996              	.L60:
 208:Generated_Source\PSoC5/cyPm.c ****     cyPmClockBackup.clkBusDiv |= CY_PM_CLK_BUS_LSB_DIV_REG;
 997              		.loc 1 208 0
 998 017a 224B     		ldr	r3, .L69+32
 999 017c 1B78     		ldrb	r3, [r3]	@ zero_extendqisi2
 1000 017e 1B02     		lsls	r3, r3, #8
 1001 0180 194A     		ldr	r2, .L69+4
 1002 0182 9387     		strh	r3, [r2, #60]	@ movhi
 209:Generated_Source\PSoC5/cyPm.c ****     if(CY_PM_BUS_CLK_DIV_BY_ONE != cyPmClockBackup.clkBusDiv)
 1003              		.loc 1 209 0
 1004 0184 2049     		ldr	r1, .L69+36
 1005 0186 0978     		ldrb	r1, [r1]	@ zero_extendqisi2
 1006 0188 0B43     		orrs	r3, r3, r1
 1007 018a 9387     		strh	r3, [r2, #60]	@ movhi
 210:Generated_Source\PSoC5/cyPm.c ****     {
 1008              		.loc 1 210 0
 1009 018c 13B1     		cbz	r3, .L61
 212:Generated_Source\PSoC5/cyPm.c ****     }    /* Do nothing if saved and actual values are equal */
 1010              		.loc 1 212 0
 1011 018e 0020     		movs	r0, #0
 1012 0190 FFF7FEFF 		bl	CyBusClk_SetDivider
 1013              	.LVL27:
 1014              	.L61:
 216:Generated_Source\PSoC5/cyPm.c **** 
 1015              		.loc 1 216 0
 1016 0194 164B     		ldr	r3, .L69+12
 1017 0196 1B78     		ldrb	r3, [r3]	@ zero_extendqisi2
 1018 0198 03F00703 		and	r3, r3, #7
 1019 019c 1B4A     		ldr	r2, .L69+40
 1020 019e D05C     		ldrb	r0, [r2, r3]	@ zero_extendqisi2
 1021 01a0 FFF7FEFF 		bl	CyFlash_SetWaitCycles
 1022              	.LVL28:
 219:Generated_Source\PSoC5/cyPm.c ****     {
 1023              		.loc 1 219 0
ARM GAS  C:\Users\kelvi\AppData\Local\Temp\ccGQeHy8.s 			page 53


 1024 01a4 1A4B     		ldr	r3, .L69+44
 1025 01a6 1B78     		ldrb	r3, [r3]	@ zero_extendqisi2
 1026 01a8 13F0010F 		tst	r3, #1
 1027 01ac 06D0     		beq	.L62
 222:Generated_Source\PSoC5/cyPm.c ****         CyXTAL_Stop();
 1028              		.loc 1 222 0
 1029 01ae 0122     		movs	r2, #1
 1030 01b0 0D4B     		ldr	r3, .L69+4
 1031 01b2 83F83F20 		strb	r2, [r3, #63]
 223:Generated_Source\PSoC5/cyPm.c ****     }
 1032              		.loc 1 223 0
 1033 01b6 FFF7FEFF 		bl	CyXTAL_Stop
 1034              	.LVL29:
 1035 01ba 03E0     		b	.L63
 1036              	.L62:
 228:Generated_Source\PSoC5/cyPm.c ****     }
 1037              		.loc 1 228 0
 1038 01bc 0022     		movs	r2, #0
 1039 01be 0A4B     		ldr	r3, .L69+4
 1040 01c0 83F83F20 		strb	r2, [r3, #63]
 1041              	.L63:
 237:Generated_Source\PSoC5/cyPm.c ****     {
 1042              		.loc 1 237 0
 1043 01c4 134B     		ldr	r3, .L69+48
 1044 01c6 1B78     		ldrb	r3, [r3]	@ zero_extendqisi2
 1045 01c8 13F0040F 		tst	r3, #4
 1046 01cc 04D0     		beq	.L64
 239:Generated_Source\PSoC5/cyPm.c ****     }
 1047              		.loc 1 239 0
 1048 01ce 0122     		movs	r2, #1
 1049 01d0 054B     		ldr	r3, .L69+4
 1050 01d2 83F84020 		strb	r2, [r3, #64]
 1051 01d6 10BD     		pop	{r4, pc}
 1052              	.L64:
 243:Generated_Source\PSoC5/cyPm.c ****     }
 1053              		.loc 1 243 0
 1054 01d8 0022     		movs	r2, #0
 1055 01da 034B     		ldr	r3, .L69+4
 1056 01dc 83F84020 		strb	r2, [r3, #64]
 1057 01e0 10BD     		pop	{r4, pc}
 1058              	.L70:
 1059 01e2 00BF     		.align	2
 1060              	.L69:
 1061 01e4 A1430040 		.word	1073759137
 1062 01e8 00000000 		.word	.LANCHOR0
 1063 01ec A2430040 		.word	1073759138
 1064 01f0 00420040 		.word	1073758720
 1065 01f4 05400040 		.word	1073758213
 1066 01f8 20420040 		.word	1073758752
 1067 01fc A0430040 		.word	1073759136
 1068 0200 04400040 		.word	1073758212
 1069 0204 07400040 		.word	1073758215
 1070 0208 06400040 		.word	1073758214
 1071 020c 00000000 		.word	.LANCHOR1
 1072 0210 10420040 		.word	1073758736
 1073 0214 0B400040 		.word	1073758219
 1074              		.cfi_endproc
ARM GAS  C:\Users\kelvi\AppData\Local\Temp\ccGQeHy8.s 			page 54


 1075              	.LFE0:
 1076              		.size	CyPmSaveClocks, .-CyPmSaveClocks
 1077              		.section	.text.CyPmRestoreClocks,"ax",%progbits
 1078              		.align	2
 1079              		.global	CyPmRestoreClocks
 1080              		.thumb
 1081              		.thumb_func
 1082              		.type	CyPmRestoreClocks, %function
 1083              	CyPmRestoreClocks:
 1084              	.LFB1:
 269:Generated_Source\PSoC5/cyPm.c ****     cystatus status = CYRET_TIMEOUT;
 1085              		.loc 1 269 0
 1086              		.cfi_startproc
 1087              		@ args = 0, pretend = 0, frame = 8
 1088              		@ frame_needed = 0, uses_anonymous_args = 0
 1089 0000 10B5     		push	{r4, lr}
 1090              		.cfi_def_cfa_offset 8
 1091              		.cfi_offset 4, -8
 1092              		.cfi_offset 14, -4
 1093 0002 82B0     		sub	sp, sp, #8
 1094              		.cfi_def_cfa_offset 16
 1095              	.LVL30:
 276:Generated_Source\PSoC5/cyPm.c ****         CY_IMO_FREQ_12MHZ, CY_IMO_FREQ_6MHZ,  CY_IMO_FREQ_24MHZ, CY_IMO_FREQ_3MHZ,
 1096              		.loc 1 276 0
 1097 0004 854B     		ldr	r3, .L93
 1098 0006 53F8080F 		ldr	r0, [r3, #8]!	@ unaligned
 1099 000a 0090     		str	r0, [sp]	@ unaligned
 1100 000c 9A88     		ldrh	r2, [r3, #4]	@ unaligned
 1101 000e 9B79     		ldrb	r3, [r3, #6]	@ zero_extendqisi2
 1102 0010 ADF80420 		strh	r2, [sp, #4]	@ unaligned
 1103 0014 8DF80630 		strb	r3, [sp, #6]
 281:Generated_Source\PSoC5/cyPm.c ****     {
 1104              		.loc 1 281 0
 1105 0018 814B     		ldr	r3, .L93+4
 1106 001a 93F84030 		ldrb	r3, [r3, #64]	@ zero_extendqisi2
 1107 001e 012B     		cmp	r3, #1
 1108 0020 10D1     		bne	.L72
 285:Generated_Source\PSoC5/cyPm.c **** 
 1109              		.loc 1 285 0
 1110 0022 804B     		ldr	r3, .L93+8
 1111 0024 1B78     		ldrb	r3, [r3]	@ zero_extendqisi2
 1112 0026 03F00703 		and	r3, r3, #7
 1113 002a 7C4A     		ldr	r2, .L93
 1114 002c D05C     		ldrb	r0, [r2, r3]	@ zero_extendqisi2
 284:Generated_Source\PSoC5/cyPm.c ****                         CY_PM_GET_CPU_FREQ_MHZ);
 1115              		.loc 1 284 0
 1116 002e 00EB8000 		add	r0, r0, r0, lsl #2
 1117 0032 C0EB0010 		rsb	r0, r0, r0, lsl #4
 1118 0036 FFF7FEFF 		bl	CyDelayCycles
 1119              	.LVL31:
 287:Generated_Source\PSoC5/cyPm.c ****     }
 1120              		.loc 1 287 0
 1121 003a 7B4A     		ldr	r2, .L93+12
 1122 003c 1378     		ldrb	r3, [r2]	@ zero_extendqisi2
 1123 003e 43F00403 		orr	r3, r3, #4
 1124 0042 1370     		strb	r3, [r2]
 1125              	.L72:
ARM GAS  C:\Users\kelvi\AppData\Local\Temp\ccGQeHy8.s 			page 55


 291:Generated_Source\PSoC5/cyPm.c ****     {
 1126              		.loc 1 291 0
 1127 0044 764B     		ldr	r3, .L93+4
 1128 0046 93F83F30 		ldrb	r3, [r3, #63]	@ zero_extendqisi2
 1129 004a 012B     		cmp	r3, #1
 1130 004c 1AD1     		bne	.L73
 301:Generated_Source\PSoC5/cyPm.c **** 
 1131              		.loc 1 301 0
 1132 004e 0020     		movs	r0, #0
 1133 0050 FFF7FEFF 		bl	CyXTAL_Start
 1134              	.LVL32:
 304:Generated_Source\PSoC5/cyPm.c **** 
 1135              		.loc 1 304 0
 1136 0054 754B     		ldr	r3, .L93+16
 1137 0056 1B78     		ldrb	r3, [r3]	@ zero_extendqisi2
 1138              	.LVL33:
 307:Generated_Source\PSoC5/cyPm.c ****         {
 1139              		.loc 1 307 0
 1140 0058 0524     		movs	r4, #5
 1141 005a 11E0     		b	.L74
 1142              	.LVL34:
 1143              	.L75:
 310:Generated_Source\PSoC5/cyPm.c **** 
 1144              		.loc 1 310 0
 1145 005c 714B     		ldr	r3, .L93+8
 1146 005e 1B78     		ldrb	r3, [r3]	@ zero_extendqisi2
 1147 0060 03F00703 		and	r3, r3, #7
 1148 0064 6D4A     		ldr	r2, .L93
 1149 0066 D35C     		ldrb	r3, [r2, r3]	@ zero_extendqisi2
 1150 0068 C820     		movs	r0, #200
 1151 006a 00FB03F0 		mul	r0, r0, r3
 1152 006e FFF7FEFF 		bl	CyDelayCycles
 1153              	.LVL35:
 313:Generated_Source\PSoC5/cyPm.c ****             {
 1154              		.loc 1 313 0
 1155 0072 6E4B     		ldr	r3, .L93+16
 1156 0074 1B78     		ldrb	r3, [r3]	@ zero_extendqisi2
 1157 0076 13F0800F 		tst	r3, #128
 1158 007a 03D0     		beq	.L73
 307:Generated_Source\PSoC5/cyPm.c ****         {
 1159              		.loc 1 307 0 discriminator 2
 1160 007c 013C     		subs	r4, r4, #1
 1161              	.LVL36:
 1162 007e A4B2     		uxth	r4, r4
 1163              	.LVL37:
 1164              	.L74:
 307:Generated_Source\PSoC5/cyPm.c ****         {
 1165              		.loc 1 307 0 is_stmt 0 discriminator 1
 1166 0080 002C     		cmp	r4, #0
 1167 0082 EBD1     		bne	.L75
 1168              	.LVL38:
 1169              	.L73:
 338:Generated_Source\PSoC5/cyPm.c **** 
 1170              		.loc 1 338 0 is_stmt 1
