ARM GAS  C:\Users\kelvi\AppData\Local\Temp\ccUnxnng.s 			page 1


   1              		.syntax unified
   2              		.cpu cortex-m3
   3              		.fpu softvfp
   4              		.eabi_attribute 20, 1
   5              		.eabi_attribute 21, 1
   6              		.eabi_attribute 23, 3
   7              		.eabi_attribute 24, 1
   8              		.eabi_attribute 25, 1
   9              		.eabi_attribute 26, 1
  10              		.eabi_attribute 30, 1
  11              		.eabi_attribute 34, 1
  12              		.eabi_attribute 18, 4
  13              		.thumb
  14              		.file	"main.c"
  15              		.text
  16              	.Ltext0:
  17              		.cfi_sections	.debug_frame
  18              		.section	.text.main,"ax",%progbits
  19              		.align	2
  20              		.global	main
  21              		.thumb
  22              		.thumb_func
  23              		.type	main, %function
  24              	main:
  25              	.LFB63:
  26              		.file 1 "main.c"
   1:main.c        **** /* ========================================
   2:main.c        ****  *
   3:main.c        ****  * Copyright YOUR COMPANY, THE YEAR
   4:main.c        ****  * All Rights Reserved
   5:main.c        ****  * UNPUBLISHED, LICENSED SOFTWARE.
   6:main.c        ****  *
   7:main.c        ****  * CONFIDENTIAL AND PROPRIETARY INFORMATION
   8:main.c        ****  * WHICH IS THE PROPERTY OF your company.
   9:main.c        ****  *
  10:main.c        ****  * ========================================
  11:main.c        **** */
  12:main.c        **** #include "project.h"
  13:main.c        **** 
  14:main.c        **** int main(void)
  15:main.c        **** {
  27              		.loc 1 15 0
  28              		.cfi_startproc
  29              		@ args = 0, pretend = 0, frame = 0
  30              		@ frame_needed = 0, uses_anonymous_args = 0
  31 0000 08B5     		push	{r3, lr}
  32              		.cfi_def_cfa_offset 8
  33              		.cfi_offset 3, -8
  34              		.cfi_offset 14, -4
  16:main.c        ****     CyGlobalIntEnable; /* Enable global interrupts. */
  35              		.loc 1 16 0
  36              	@ 16 "main.c" 1
  37 0002 62B6     		CPSIE   i
  38              	@ 0 "" 2
  39              		.thumb
  40              	.L6:
  41              	.LBB2:
ARM GAS  C:\Users\kelvi\AppData\Local\Temp\ccUnxnng.s 			page 2


  17:main.c        **** 
  18:main.c        ****     /* Place your initialization/startup code here (e.g. MyInst_Start()) */
  19:main.c        **** 
  20:main.c        ****     for(;;)//per pin method
  21:main.c        ****     {   
  22:main.c        ****         Pin_Red_Write(0u);
  42              		.loc 1 22 0
  43 0004 0020     		movs	r0, #0
  44 0006 FFF7FEFF 		bl	Pin_Red_Write
  45              	.LVL0:
  23:main.c        ****         Pin_Green_Write(1u);
  46              		.loc 1 23 0
  47 000a 0120     		movs	r0, #1
  48 000c FFF7FEFF 		bl	Pin_Green_Write
  49              	.LVL1:
  24:main.c        ****         Pin_Blue_Write(1u);
  50              		.loc 1 24 0
  51 0010 0120     		movs	r0, #1
  52 0012 FFF7FEFF 		bl	Pin_Blue_Write
  53              	.LVL2:
  25:main.c        ****         
  26:main.c        ****         int i = 0; 
  54              		.loc 1 26 0
  55 0016 0023     		movs	r3, #0
  27:main.c        ****         for (; i < 1000000; i++){}
  56              		.loc 1 27 0
  57 0018 00E0     		b	.L2
  58              	.LVL3:
  59              	.L3:
  60              		.loc 1 27 0 is_stmt 0 discriminator 2
  61 001a 0133     		adds	r3, r3, #1
  62              	.LVL4:
  63              	.L2:
  64              		.loc 1 27 0 discriminator 1
  65 001c 094A     		ldr	r2, .L8
  66 001e 9342     		cmp	r3, r2
  67 0020 FBDD     		ble	.L3
  28:main.c        ****         
  29:main.c        ****         Pin_Red_Write(1u);
  68              		.loc 1 29 0 is_stmt 1
  69 0022 0120     		movs	r0, #1
  70 0024 FFF7FEFF 		bl	Pin_Red_Write
  71              	.LVL5:
  30:main.c        ****         Pin_Green_Write(1u);
  72              		.loc 1 30 0
  73 0028 0120     		movs	r0, #1
  74 002a FFF7FEFF 		bl	Pin_Green_Write
  75              	.LVL6:
  31:main.c        ****         Pin_Blue_Write(1u);
  76              		.loc 1 31 0
  77 002e 0120     		movs	r0, #1
  78 0030 FFF7FEFF 		bl	Pin_Blue_Write
  79              	.LVL7:
  32:main.c        ****         
  33:main.c        ****         for (i = 0; i < 1000000; i++){}
  80              		.loc 1 33 0
  81 0034 0023     		movs	r3, #0
ARM GAS  C:\Users\kelvi\AppData\Local\Temp\ccUnxnng.s 			page 3


  82 0036 00E0     		b	.L4
  83              	.LVL8:
  84              	.L5:
  85              		.loc 1 33 0 is_stmt 0 discriminator 3
  86 0038 0133     		adds	r3, r3, #1
  87              	.LVL9:
  88              	.L4:
  89              		.loc 1 33 0 discriminator 1
  90 003a 024A     		ldr	r2, .L8
  91 003c 9342     		cmp	r3, r2
  92 003e FBDD     		ble	.L5
  93 0040 E0E7     		b	.L6
  94              	.L9:
  95 0042 00BF     		.align	2
  96              	.L8:
  97 0044 3F420F00 		.word	999999
  98              	.LBE2:
  99              		.cfi_endproc
 100              	.LFE63:
 101              		.size	main, .-main
 102              		.text
 103              	.Letext0:
 104              		.file 2 "c:\\program files (x86)\\cypress\\psoc creator\\4.0\\psoc creator\\import\\gnu\\arm\\4.9.
 105              		.file 3 "c:\\program files (x86)\\cypress\\psoc creator\\4.0\\psoc creator\\import\\gnu\\arm\\4.9.
 106              		.file 4 "Generated_Source\\PSoC5/cytypes.h"
 107              		.file 5 "Generated_Source\\PSoC5/Pin_Red.h"
 108              		.file 6 "Generated_Source\\PSoC5/Pin_Green.h"
 109              		.file 7 "Generated_Source\\PSoC5/core_cm3.h"
 110              		.file 8 "Generated_Source\\PSoC5/Pin_Blue.h"
