ARM GAS  C:\Users\kelvi\AppData\Local\Temp\cctyB1KZ.s 			page 1


   1              		.syntax unified
   2              		.cpu cortex-m3
   3              		.fpu softvfp
   4              		.eabi_attribute 20, 1
   5              		.eabi_attribute 21, 1
   6              		.eabi_attribute 23, 3
   7              		.eabi_attribute 24, 1
   8              		.eabi_attribute 25, 1
   9              		.eabi_attribute 26, 1
  10              		.eabi_attribute 30, 1
  11              		.eabi_attribute 34, 1
  12              		.eabi_attribute 18, 4
  13              		.thumb
  14              		.file	"Pin_Red.c"
  15              		.text
  16              	.Ltext0:
  17              		.cfi_sections	.debug_frame
  18              		.section	.text.Pin_Red_Write,"ax",%progbits
  19              		.align	2
  20              		.global	Pin_Red_Write
  21              		.thumb
  22              		.thumb_func
  23              		.type	Pin_Red_Write, %function
  24              	Pin_Red_Write:
  25              	.LFB0:
  26              		.file 1 "Generated_Source\\PSoC5\\Pin_Red.c"
   1:Generated_Source\PSoC5/Pin_Red.c **** /*******************************************************************************
   2:Generated_Source\PSoC5/Pin_Red.c **** * File Name: Pin_Red.c  
   3:Generated_Source\PSoC5/Pin_Red.c **** * Version 2.20
   4:Generated_Source\PSoC5/Pin_Red.c **** *
   5:Generated_Source\PSoC5/Pin_Red.c **** * Description:
   6:Generated_Source\PSoC5/Pin_Red.c **** *  This file contains API to enable firmware control of a Pins component.
   7:Generated_Source\PSoC5/Pin_Red.c **** *
   8:Generated_Source\PSoC5/Pin_Red.c **** * Note:
   9:Generated_Source\PSoC5/Pin_Red.c **** *
  10:Generated_Source\PSoC5/Pin_Red.c **** ********************************************************************************
  11:Generated_Source\PSoC5/Pin_Red.c **** * Copyright 2008-2015, Cypress Semiconductor Corporation.  All rights reserved.
  12:Generated_Source\PSoC5/Pin_Red.c **** * You may use this file only in accordance with the license, terms, conditions, 
  13:Generated_Source\PSoC5/Pin_Red.c **** * disclaimers, and limitations in the end user license agreement accompanying 
  14:Generated_Source\PSoC5/Pin_Red.c **** * the software package with which this file was provided.
  15:Generated_Source\PSoC5/Pin_Red.c **** *******************************************************************************/
  16:Generated_Source\PSoC5/Pin_Red.c **** 
  17:Generated_Source\PSoC5/Pin_Red.c **** #include "cytypes.h"
  18:Generated_Source\PSoC5/Pin_Red.c **** #include "Pin_Red.h"
  19:Generated_Source\PSoC5/Pin_Red.c **** 
  20:Generated_Source\PSoC5/Pin_Red.c **** /* APIs are not generated for P15[7:6] on PSoC 5 */
  21:Generated_Source\PSoC5/Pin_Red.c **** #if !(CY_PSOC5A &&\
  22:Generated_Source\PSoC5/Pin_Red.c **** 	 Pin_Red__PORT == 15 && ((Pin_Red__MASK & 0xC0) != 0))
  23:Generated_Source\PSoC5/Pin_Red.c **** 
  24:Generated_Source\PSoC5/Pin_Red.c **** 
  25:Generated_Source\PSoC5/Pin_Red.c **** /*******************************************************************************
  26:Generated_Source\PSoC5/Pin_Red.c **** * Function Name: Pin_Red_Write
  27:Generated_Source\PSoC5/Pin_Red.c **** ****************************************************************************//**
  28:Generated_Source\PSoC5/Pin_Red.c **** *
  29:Generated_Source\PSoC5/Pin_Red.c **** * \brief Writes the value to the physical port (data output register), masking
  30:Generated_Source\PSoC5/Pin_Red.c **** *  and shifting the bits appropriately. 
  31:Generated_Source\PSoC5/Pin_Red.c **** *
ARM GAS  C:\Users\kelvi\AppData\Local\Temp\cctyB1KZ.s 			page 2


  32:Generated_Source\PSoC5/Pin_Red.c **** * The data output register controls the signal applied to the physical pin in 
  33:Generated_Source\PSoC5/Pin_Red.c **** * conjunction with the drive mode parameter. This function avoids changing 
  34:Generated_Source\PSoC5/Pin_Red.c **** * other bits in the port by using the appropriate method (read-modify-write or
  35:Generated_Source\PSoC5/Pin_Red.c **** * bit banding).
  36:Generated_Source\PSoC5/Pin_Red.c **** *
  37:Generated_Source\PSoC5/Pin_Red.c **** * <b>Note</b> This function should not be used on a hardware digital output pin 
  38:Generated_Source\PSoC5/Pin_Red.c **** * as it is driven by the hardware signal attached to it.
  39:Generated_Source\PSoC5/Pin_Red.c **** *
  40:Generated_Source\PSoC5/Pin_Red.c **** * \param value
  41:Generated_Source\PSoC5/Pin_Red.c **** *  Value to write to the component instance.
  42:Generated_Source\PSoC5/Pin_Red.c **** *
  43:Generated_Source\PSoC5/Pin_Red.c **** * \return 
  44:Generated_Source\PSoC5/Pin_Red.c **** *  None 
  45:Generated_Source\PSoC5/Pin_Red.c **** *
  46:Generated_Source\PSoC5/Pin_Red.c **** * \sideeffect
  47:Generated_Source\PSoC5/Pin_Red.c **** *  If you use read-modify-write operations that are not atomic; the Interrupt 
  48:Generated_Source\PSoC5/Pin_Red.c **** *  Service Routines (ISR) can cause corruption of this function. An ISR that 
  49:Generated_Source\PSoC5/Pin_Red.c **** *  interrupts this function and performs writes to the Pins component data 
  50:Generated_Source\PSoC5/Pin_Red.c **** *  register can cause corrupted port data. To avoid this issue, you should 
  51:Generated_Source\PSoC5/Pin_Red.c **** *  either use the Per-Pin APIs (primary method) or disable interrupts around 
  52:Generated_Source\PSoC5/Pin_Red.c **** *  this function.
  53:Generated_Source\PSoC5/Pin_Red.c **** *
  54:Generated_Source\PSoC5/Pin_Red.c **** * \funcusage
  55:Generated_Source\PSoC5/Pin_Red.c **** *  \snippet Pin_Red_SUT.c usage_Pin_Red_Write
  56:Generated_Source\PSoC5/Pin_Red.c **** *******************************************************************************/
  57:Generated_Source\PSoC5/Pin_Red.c **** void Pin_Red_Write(uint8 value)
  58:Generated_Source\PSoC5/Pin_Red.c **** {
  27              		.loc 1 58 0
  28              		.cfi_startproc
  29              		@ args = 0, pretend = 0, frame = 0
  30              		@ frame_needed = 0, uses_anonymous_args = 0
  31              		@ link register save eliminated.
  32              	.LVL0:
  59:Generated_Source\PSoC5/Pin_Red.c ****     uint8 staticBits = (Pin_Red_DR & (uint8)(~Pin_Red_MASK));
  33              		.loc 1 59 0
  34 0000 044A     		ldr	r2, .L2
  35 0002 1378     		ldrb	r3, [r2]	@ zero_extendqisi2
  36 0004 03F0EF03 		and	r3, r3, #239
  37              	.LVL1:
  60:Generated_Source\PSoC5/Pin_Red.c ****     Pin_Red_DR = staticBits | ((uint8)(value << Pin_Red_SHIFT) & Pin_Red_MASK);
  38              		.loc 1 60 0
  39 0008 0001     		lsls	r0, r0, #4
  40              	.LVL2:
  41 000a 00F01000 		and	r0, r0, #16
  42 000e 1843     		orrs	r0, r0, r3
  43 0010 1070     		strb	r0, [r2]
  44 0012 7047     		bx	lr
  45              	.L3:
  46              		.align	2
  47              	.L2:
  48 0014 10510040 		.word	1073762576
  49              		.cfi_endproc
  50              	.LFE0:
  51              		.size	Pin_Red_Write, .-Pin_Red_Write
  52              		.section	.text.Pin_Red_SetDriveMode,"ax",%progbits
  53              		.align	2
  54              		.global	Pin_Red_SetDriveMode
ARM GAS  C:\Users\kelvi\AppData\Local\Temp\cctyB1KZ.s 			page 3


  55              		.thumb
  56              		.thumb_func
  57              		.type	Pin_Red_SetDriveMode, %function
  58              	Pin_Red_SetDriveMode:
  59              	.LFB1:
  61:Generated_Source\PSoC5/Pin_Red.c **** }
  62:Generated_Source\PSoC5/Pin_Red.c **** 
  63:Generated_Source\PSoC5/Pin_Red.c **** 
  64:Generated_Source\PSoC5/Pin_Red.c **** /*******************************************************************************
  65:Generated_Source\PSoC5/Pin_Red.c **** * Function Name: Pin_Red_SetDriveMode
  66:Generated_Source\PSoC5/Pin_Red.c **** ****************************************************************************//**
  67:Generated_Source\PSoC5/Pin_Red.c **** *
  68:Generated_Source\PSoC5/Pin_Red.c **** * \brief Sets the drive mode for each of the Pins component's pins.
  69:Generated_Source\PSoC5/Pin_Red.c **** * 
  70:Generated_Source\PSoC5/Pin_Red.c **** * <b>Note</b> This affects all pins in the Pins component instance. Use the
  71:Generated_Source\PSoC5/Pin_Red.c **** * Per-Pin APIs if you wish to control individual pin's drive modes.
  72:Generated_Source\PSoC5/Pin_Red.c **** *
  73:Generated_Source\PSoC5/Pin_Red.c **** * \param mode
  74:Generated_Source\PSoC5/Pin_Red.c **** *  Mode for the selected signals. Valid options are documented in 
  75:Generated_Source\PSoC5/Pin_Red.c **** *  \ref driveMode.
  76:Generated_Source\PSoC5/Pin_Red.c **** *
  77:Generated_Source\PSoC5/Pin_Red.c **** * \return
  78:Generated_Source\PSoC5/Pin_Red.c **** *  None
  79:Generated_Source\PSoC5/Pin_Red.c **** *
  80:Generated_Source\PSoC5/Pin_Red.c **** * \sideeffect
  81:Generated_Source\PSoC5/Pin_Red.c **** *  If you use read-modify-write operations that are not atomic, the ISR can
  82:Generated_Source\PSoC5/Pin_Red.c **** *  cause corruption of this function. An ISR that interrupts this function 
  83:Generated_Source\PSoC5/Pin_Red.c **** *  and performs writes to the Pins component Drive Mode registers can cause 
  84:Generated_Source\PSoC5/Pin_Red.c **** *  corrupted port data. To avoid this issue, you should either use the Per-Pin
  85:Generated_Source\PSoC5/Pin_Red.c **** *  APIs (primary method) or disable interrupts around this function.
  86:Generated_Source\PSoC5/Pin_Red.c **** *
  87:Generated_Source\PSoC5/Pin_Red.c **** * \funcusage
  88:Generated_Source\PSoC5/Pin_Red.c **** *  \snippet Pin_Red_SUT.c usage_Pin_Red_SetDriveMode
  89:Generated_Source\PSoC5/Pin_Red.c **** *******************************************************************************/
  90:Generated_Source\PSoC5/Pin_Red.c **** void Pin_Red_SetDriveMode(uint8 mode)
  91:Generated_Source\PSoC5/Pin_Red.c **** {
  60              		.loc 1 91 0
  61              		.cfi_startproc
  62              		@ args = 0, pretend = 0, frame = 0
  63              		@ frame_needed = 0, uses_anonymous_args = 0
  64              		@ link register save eliminated.
  65              	.LVL3:
  92:Generated_Source\PSoC5/Pin_Red.c **** 	CyPins_SetPinDriveMode(Pin_Red_0, mode);
  66              		.loc 1 92 0
  67 0000 044A     		ldr	r2, .L5
  68 0002 1378     		ldrb	r3, [r2]	@ zero_extendqisi2
  69 0004 03F0F103 		and	r3, r3, #241
  70 0008 00F00E00 		and	r0, r0, #14
  71              	.LVL4:
  72 000c 1843     		orrs	r0, r0, r3
  73 000e 1070     		strb	r0, [r2]
  74 0010 7047     		bx	lr
  75              	.L6:
  76 0012 00BF     		.align	2
  77              	.L5:
  78 0014 0C500040 		.word	1073762316
  79              		.cfi_endproc
ARM GAS  C:\Users\kelvi\AppData\Local\Temp\cctyB1KZ.s 			page 4


  80              	.LFE1:
  81              		.size	Pin_Red_SetDriveMode, .-Pin_Red_SetDriveMode
  82              		.section	.text.Pin_Red_Read,"ax",%progbits
  83              		.align	2
  84              		.global	Pin_Red_Read
  85              		.thumb
  86              		.thumb_func
  87              		.type	Pin_Red_Read, %function
  88              	Pin_Red_Read:
  89              	.LFB2:
  93:Generated_Source\PSoC5/Pin_Red.c **** }
  94:Generated_Source\PSoC5/Pin_Red.c **** 
  95:Generated_Source\PSoC5/Pin_Red.c **** 
  96:Generated_Source\PSoC5/Pin_Red.c **** /*******************************************************************************
  97:Generated_Source\PSoC5/Pin_Red.c **** * Function Name: Pin_Red_Read
  98:Generated_Source\PSoC5/Pin_Red.c **** ****************************************************************************//**
  99:Generated_Source\PSoC5/Pin_Red.c **** *
 100:Generated_Source\PSoC5/Pin_Red.c **** * \brief Reads the associated physical port (pin status register) and masks 
 101:Generated_Source\PSoC5/Pin_Red.c **** *  the required bits according to the width and bit position of the component
 102:Generated_Source\PSoC5/Pin_Red.c **** *  instance. 
 103:Generated_Source\PSoC5/Pin_Red.c **** *
 104:Generated_Source\PSoC5/Pin_Red.c **** * The pin's status register returns the current logic level present on the 
 105:Generated_Source\PSoC5/Pin_Red.c **** * physical pin.
 106:Generated_Source\PSoC5/Pin_Red.c **** *
 107:Generated_Source\PSoC5/Pin_Red.c **** * \return 
 108:Generated_Source\PSoC5/Pin_Red.c **** *  The current value for the pins in the component as a right justified number.
 109:Generated_Source\PSoC5/Pin_Red.c **** *
 110:Generated_Source\PSoC5/Pin_Red.c **** * \funcusage
 111:Generated_Source\PSoC5/Pin_Red.c **** *  \snippet Pin_Red_SUT.c usage_Pin_Red_Read  
 112:Generated_Source\PSoC5/Pin_Red.c **** *******************************************************************************/
 113:Generated_Source\PSoC5/Pin_Red.c **** uint8 Pin_Red_Read(void)
 114:Generated_Source\PSoC5/Pin_Red.c **** {
  90              		.loc 1 114 0
  91              		.cfi_startproc
  92              		@ args = 0, pretend = 0, frame = 0
  93              		@ frame_needed = 0, uses_anonymous_args = 0
  94              		@ link register save eliminated.
 115:Generated_Source\PSoC5/Pin_Red.c ****     return (Pin_Red_PS & Pin_Red_MASK) >> Pin_Red_SHIFT;
  95              		.loc 1 115 0
  96 0000 024B     		ldr	r3, .L8
  97 0002 1878     		ldrb	r0, [r3]	@ zero_extendqisi2
 116:Generated_Source\PSoC5/Pin_Red.c **** }
  98              		.loc 1 116 0
  99 0004 C0F30010 		ubfx	r0, r0, #4, #1
 100 0008 7047     		bx	lr
 101              	.L9:
 102 000a 00BF     		.align	2
 103              	.L8:
 104 000c 11510040 		.word	1073762577
 105              		.cfi_endproc
 106              	.LFE2:
 107              		.size	Pin_Red_Read, .-Pin_Red_Read
 108              		.section	.text.Pin_Red_ReadDataReg,"ax",%progbits
 109              		.align	2
 110              		.global	Pin_Red_ReadDataReg
 111              		.thumb
 112              		.thumb_func
ARM GAS  C:\Users\kelvi\AppData\Local\Temp\cctyB1KZ.s 			page 5


 113              		.type	Pin_Red_ReadDataReg, %function
 114              	Pin_Red_ReadDataReg:
 115              	.LFB3:
 117:Generated_Source\PSoC5/Pin_Red.c **** 
 118:Generated_Source\PSoC5/Pin_Red.c **** 
 119:Generated_Source\PSoC5/Pin_Red.c **** /*******************************************************************************
 120:Generated_Source\PSoC5/Pin_Red.c **** * Function Name: Pin_Red_ReadDataReg
 121:Generated_Source\PSoC5/Pin_Red.c **** ****************************************************************************//**
 122:Generated_Source\PSoC5/Pin_Red.c **** *
 123:Generated_Source\PSoC5/Pin_Red.c **** * \brief Reads the associated physical port's data output register and masks 
 124:Generated_Source\PSoC5/Pin_Red.c **** *  the correct bits according to the width and bit position of the component 
 125:Generated_Source\PSoC5/Pin_Red.c **** *  instance. 
 126:Generated_Source\PSoC5/Pin_Red.c **** *
 127:Generated_Source\PSoC5/Pin_Red.c **** * The data output register controls the signal applied to the physical pin in 
 128:Generated_Source\PSoC5/Pin_Red.c **** * conjunction with the drive mode parameter. This is not the same as the 
 129:Generated_Source\PSoC5/Pin_Red.c **** * preferred Pin_Red_Read() API because the 
 130:Generated_Source\PSoC5/Pin_Red.c **** * Pin_Red_ReadDataReg() reads the data register instead of the status 
 131:Generated_Source\PSoC5/Pin_Red.c **** * register. For output pins this is a useful function to determine the value 
 132:Generated_Source\PSoC5/Pin_Red.c **** * just written to the pin.
 133:Generated_Source\PSoC5/Pin_Red.c **** *
 134:Generated_Source\PSoC5/Pin_Red.c **** * \return 
 135:Generated_Source\PSoC5/Pin_Red.c **** *  The current value of the data register masked and shifted into a right 
 136:Generated_Source\PSoC5/Pin_Red.c **** *  justified number for the component instance.
 137:Generated_Source\PSoC5/Pin_Red.c **** *
 138:Generated_Source\PSoC5/Pin_Red.c **** * \funcusage
 139:Generated_Source\PSoC5/Pin_Red.c **** *  \snippet Pin_Red_SUT.c usage_Pin_Red_ReadDataReg 
 140:Generated_Source\PSoC5/Pin_Red.c **** *******************************************************************************/
 141:Generated_Source\PSoC5/Pin_Red.c **** uint8 Pin_Red_ReadDataReg(void)
 142:Generated_Source\PSoC5/Pin_Red.c **** {
 116              		.loc 1 142 0
 117              		.cfi_startproc
 118              		@ args = 0, pretend = 0, frame = 0
 119              		@ frame_needed = 0, uses_anonymous_args = 0
 120              		@ link register save eliminated.
 143:Generated_Source\PSoC5/Pin_Red.c ****     return (Pin_Red_DR & Pin_Red_MASK) >> Pin_Red_SHIFT;
 121              		.loc 1 143 0
 122 0000 024B     		ldr	r3, .L11
 123 0002 1878     		ldrb	r0, [r3]	@ zero_extendqisi2
 144:Generated_Source\PSoC5/Pin_Red.c **** }
 124              		.loc 1 144 0
 125 0004 C0F30010 		ubfx	r0, r0, #4, #1
 126 0008 7047     		bx	lr
 127              	.L12:
 128 000a 00BF     		.align	2
 129              	.L11:
 130 000c 10510040 		.word	1073762576
 131              		.cfi_endproc
 132              	.LFE3:
 133              		.size	Pin_Red_ReadDataReg, .-Pin_Red_ReadDataReg
 134              		.text
 135              	.Letext0:
 136              		.file 2 "Generated_Source\\PSoC5\\cytypes.h"
