ARM GAS  C:\Users\kelvi\AppData\Local\Temp\cchv6dxo.s 			page 1


   1              		.syntax unified
   2              		.cpu cortex-m3
   3              		.fpu softvfp
   4              		.eabi_attribute 20, 1
   5              		.eabi_attribute 21, 1
   6              		.eabi_attribute 23, 3
   7              		.eabi_attribute 24, 1
   8              		.eabi_attribute 25, 1
   9              		.eabi_attribute 26, 1
  10              		.eabi_attribute 30, 1
  11              		.eabi_attribute 34, 1
  12              		.eabi_attribute 18, 4
  13              		.thumb
  14              		.file	"cyfitter_cfg.c"
  15              		.text
  16              	.Ltext0:
  17              		.cfi_sections	.debug_frame
  18              		.section	.text.CyClockStartupError,"ax",%progbits
  19              		.align	2
  20              		.thumb
  21              		.thumb_func
  22              		.type	CyClockStartupError, %function
  23              	CyClockStartupError:
  24              	.LFB3:
  25              		.file 1 "Generated_Source\\PSoC5\\cyfitter_cfg.c"
   1:Generated_Source\PSoC5/cyfitter_cfg.c **** /*******************************************************************************
   2:Generated_Source\PSoC5/cyfitter_cfg.c **** * File Name: cyfitter_cfg.c
   3:Generated_Source\PSoC5/cyfitter_cfg.c **** * 
   4:Generated_Source\PSoC5/cyfitter_cfg.c **** * PSoC Creator  4.0 Update 1
   5:Generated_Source\PSoC5/cyfitter_cfg.c **** *
   6:Generated_Source\PSoC5/cyfitter_cfg.c **** * Description:
   7:Generated_Source\PSoC5/cyfitter_cfg.c **** * This file contains device initialization code.
   8:Generated_Source\PSoC5/cyfitter_cfg.c **** * Except for the user defined sections in CyClockStartupError(), this file should not be modified.
   9:Generated_Source\PSoC5/cyfitter_cfg.c **** * This file is automatically generated by PSoC Creator.
  10:Generated_Source\PSoC5/cyfitter_cfg.c **** *
  11:Generated_Source\PSoC5/cyfitter_cfg.c **** ********************************************************************************
  12:Generated_Source\PSoC5/cyfitter_cfg.c **** * Copyright (c) 2007-2016 Cypress Semiconductor.  All rights reserved.
  13:Generated_Source\PSoC5/cyfitter_cfg.c **** * You may use this file only in accordance with the license, terms, conditions, 
  14:Generated_Source\PSoC5/cyfitter_cfg.c **** * disclaimers, and limitations in the end user license agreement accompanying 
  15:Generated_Source\PSoC5/cyfitter_cfg.c **** * the software package with which this file was provided.
  16:Generated_Source\PSoC5/cyfitter_cfg.c **** ********************************************************************************/
  17:Generated_Source\PSoC5/cyfitter_cfg.c **** 
  18:Generated_Source\PSoC5/cyfitter_cfg.c **** #include <string.h>
  19:Generated_Source\PSoC5/cyfitter_cfg.c **** #include "cytypes.h"
  20:Generated_Source\PSoC5/cyfitter_cfg.c **** #include "cydevice_trm.h"
  21:Generated_Source\PSoC5/cyfitter_cfg.c **** #include "cyfitter.h"
  22:Generated_Source\PSoC5/cyfitter_cfg.c **** #include "CyLib.h"
  23:Generated_Source\PSoC5/cyfitter_cfg.c **** #include "cyfitter_cfg.h"
  24:Generated_Source\PSoC5/cyfitter_cfg.c **** #include "cyapicallbacks.h"
  25:Generated_Source\PSoC5/cyfitter_cfg.c **** 
  26:Generated_Source\PSoC5/cyfitter_cfg.c **** #define CY_NEED_CYCLOCKSTARTUPERROR 1
  27:Generated_Source\PSoC5/cyfitter_cfg.c **** 
  28:Generated_Source\PSoC5/cyfitter_cfg.c **** 
  29:Generated_Source\PSoC5/cyfitter_cfg.c **** #if defined(__GNUC__) || defined(__ARMCC_VERSION)
  30:Generated_Source\PSoC5/cyfitter_cfg.c ****     #define CYPACKED 
  31:Generated_Source\PSoC5/cyfitter_cfg.c ****     #define CYPACKED_ATTR __attribute__ ((packed))
  32:Generated_Source\PSoC5/cyfitter_cfg.c ****     #define CYALIGNED __attribute__ ((aligned))
ARM GAS  C:\Users\kelvi\AppData\Local\Temp\cchv6dxo.s 			page 2


  33:Generated_Source\PSoC5/cyfitter_cfg.c ****     #define CY_CFG_UNUSED __attribute__ ((unused))
  34:Generated_Source\PSoC5/cyfitter_cfg.c ****     #ifndef CY_CFG_SECTION
  35:Generated_Source\PSoC5/cyfitter_cfg.c ****         #define CY_CFG_SECTION __attribute__ ((section(".psocinit")))
  36:Generated_Source\PSoC5/cyfitter_cfg.c ****     #endif
  37:Generated_Source\PSoC5/cyfitter_cfg.c ****     
  38:Generated_Source\PSoC5/cyfitter_cfg.c ****     #if defined(__ARMCC_VERSION)
  39:Generated_Source\PSoC5/cyfitter_cfg.c ****         #define CY_CFG_MEMORY_BARRIER() __memory_changed()
  40:Generated_Source\PSoC5/cyfitter_cfg.c ****     #else
  41:Generated_Source\PSoC5/cyfitter_cfg.c ****         #define CY_CFG_MEMORY_BARRIER() __sync_synchronize()
  42:Generated_Source\PSoC5/cyfitter_cfg.c ****     #endif
  43:Generated_Source\PSoC5/cyfitter_cfg.c ****     
  44:Generated_Source\PSoC5/cyfitter_cfg.c **** #elif defined(__ICCARM__)
  45:Generated_Source\PSoC5/cyfitter_cfg.c ****     #include <intrinsics.h>
  46:Generated_Source\PSoC5/cyfitter_cfg.c **** 
  47:Generated_Source\PSoC5/cyfitter_cfg.c ****     #define CYPACKED __packed
  48:Generated_Source\PSoC5/cyfitter_cfg.c ****     #define CYPACKED_ATTR 
  49:Generated_Source\PSoC5/cyfitter_cfg.c ****     #define CYALIGNED _Pragma("data_alignment=4")
  50:Generated_Source\PSoC5/cyfitter_cfg.c ****     #define CY_CFG_UNUSED _Pragma("diag_suppress=Pe177")
  51:Generated_Source\PSoC5/cyfitter_cfg.c ****     #define CY_CFG_SECTION _Pragma("location=\".psocinit\"")
  52:Generated_Source\PSoC5/cyfitter_cfg.c ****     
  53:Generated_Source\PSoC5/cyfitter_cfg.c ****     #define CY_CFG_MEMORY_BARRIER() __DMB()
  54:Generated_Source\PSoC5/cyfitter_cfg.c ****     
  55:Generated_Source\PSoC5/cyfitter_cfg.c **** #else
  56:Generated_Source\PSoC5/cyfitter_cfg.c ****     #error Unsupported toolchain
  57:Generated_Source\PSoC5/cyfitter_cfg.c **** #endif
  58:Generated_Source\PSoC5/cyfitter_cfg.c **** 
  59:Generated_Source\PSoC5/cyfitter_cfg.c **** 
  60:Generated_Source\PSoC5/cyfitter_cfg.c **** CY_CFG_UNUSED
  61:Generated_Source\PSoC5/cyfitter_cfg.c **** static void CYMEMZERO(void *s, size_t n);
  62:Generated_Source\PSoC5/cyfitter_cfg.c **** CY_CFG_UNUSED
  63:Generated_Source\PSoC5/cyfitter_cfg.c **** static void CYMEMZERO(void *s, size_t n)
  64:Generated_Source\PSoC5/cyfitter_cfg.c **** {
  65:Generated_Source\PSoC5/cyfitter_cfg.c **** 	(void)memset(s, 0, n);
  66:Generated_Source\PSoC5/cyfitter_cfg.c **** }
  67:Generated_Source\PSoC5/cyfitter_cfg.c **** CY_CFG_UNUSED
  68:Generated_Source\PSoC5/cyfitter_cfg.c **** static void CYCONFIGCPY(void *dest, const void *src, size_t n);
  69:Generated_Source\PSoC5/cyfitter_cfg.c **** CY_CFG_UNUSED
  70:Generated_Source\PSoC5/cyfitter_cfg.c **** static void CYCONFIGCPY(void *dest, const void *src, size_t n)
  71:Generated_Source\PSoC5/cyfitter_cfg.c **** {
  72:Generated_Source\PSoC5/cyfitter_cfg.c **** 	(void)memcpy(dest, src, n);
  73:Generated_Source\PSoC5/cyfitter_cfg.c **** }
  74:Generated_Source\PSoC5/cyfitter_cfg.c **** CY_CFG_UNUSED
  75:Generated_Source\PSoC5/cyfitter_cfg.c **** static void CYCONFIGCPYCODE(void *dest, const void *src, size_t n);
  76:Generated_Source\PSoC5/cyfitter_cfg.c **** CY_CFG_UNUSED
  77:Generated_Source\PSoC5/cyfitter_cfg.c **** static void CYCONFIGCPYCODE(void *dest, const void *src, size_t n)
  78:Generated_Source\PSoC5/cyfitter_cfg.c **** {
  79:Generated_Source\PSoC5/cyfitter_cfg.c **** 	(void)memcpy(dest, src, n);
  80:Generated_Source\PSoC5/cyfitter_cfg.c **** }
  81:Generated_Source\PSoC5/cyfitter_cfg.c **** 
  82:Generated_Source\PSoC5/cyfitter_cfg.c **** 
  83:Generated_Source\PSoC5/cyfitter_cfg.c **** 
  84:Generated_Source\PSoC5/cyfitter_cfg.c **** 
  85:Generated_Source\PSoC5/cyfitter_cfg.c **** /* Clock startup error codes                                                   */
  86:Generated_Source\PSoC5/cyfitter_cfg.c **** #define CYCLOCKSTART_NO_ERROR    0u
  87:Generated_Source\PSoC5/cyfitter_cfg.c **** #define CYCLOCKSTART_XTAL_ERROR  1u
  88:Generated_Source\PSoC5/cyfitter_cfg.c **** #define CYCLOCKSTART_32KHZ_ERROR 2u
  89:Generated_Source\PSoC5/cyfitter_cfg.c **** #define CYCLOCKSTART_PLL_ERROR   3u
ARM GAS  C:\Users\kelvi\AppData\Local\Temp\cchv6dxo.s 			page 3


  90:Generated_Source\PSoC5/cyfitter_cfg.c **** 
  91:Generated_Source\PSoC5/cyfitter_cfg.c **** 
  92:Generated_Source\PSoC5/cyfitter_cfg.c **** #ifdef CY_NEED_CYCLOCKSTARTUPERROR
  93:Generated_Source\PSoC5/cyfitter_cfg.c **** /*******************************************************************************
  94:Generated_Source\PSoC5/cyfitter_cfg.c **** * Function Name: CyClockStartupError
  95:Generated_Source\PSoC5/cyfitter_cfg.c **** ********************************************************************************
  96:Generated_Source\PSoC5/cyfitter_cfg.c **** * Summary:
  97:Generated_Source\PSoC5/cyfitter_cfg.c **** *  If an error is encountered during clock configuration (crystal startup error,
  98:Generated_Source\PSoC5/cyfitter_cfg.c **** *  PLL lock error, etc.), the system will end up here.  Unless reimplemented by
  99:Generated_Source\PSoC5/cyfitter_cfg.c **** *  the customer, this function will stop in an infinite loop.
 100:Generated_Source\PSoC5/cyfitter_cfg.c **** *
 101:Generated_Source\PSoC5/cyfitter_cfg.c **** * Parameters:
 102:Generated_Source\PSoC5/cyfitter_cfg.c **** *   void
 103:Generated_Source\PSoC5/cyfitter_cfg.c **** *
 104:Generated_Source\PSoC5/cyfitter_cfg.c **** * Return:
 105:Generated_Source\PSoC5/cyfitter_cfg.c **** *   void
 106:Generated_Source\PSoC5/cyfitter_cfg.c **** *
 107:Generated_Source\PSoC5/cyfitter_cfg.c **** *******************************************************************************/
 108:Generated_Source\PSoC5/cyfitter_cfg.c **** CY_CFG_UNUSED
 109:Generated_Source\PSoC5/cyfitter_cfg.c **** static void CyClockStartupError(uint8 errorCode);
 110:Generated_Source\PSoC5/cyfitter_cfg.c **** CY_CFG_UNUSED
 111:Generated_Source\PSoC5/cyfitter_cfg.c **** static void CyClockStartupError(uint8 errorCode)
 112:Generated_Source\PSoC5/cyfitter_cfg.c **** {
  26              		.loc 1 112 0
  27              		.cfi_startproc
  28              		@ Volatile: function does not return.
  29              		@ args = 0, pretend = 0, frame = 0
  30              		@ frame_needed = 0, uses_anonymous_args = 0
  31              		@ link register save eliminated.
  32              	.LVL0:
  33              	.L2:
 113:Generated_Source\PSoC5/cyfitter_cfg.c ****     /* To remove the compiler warning if errorCode not used.                */
 114:Generated_Source\PSoC5/cyfitter_cfg.c ****     errorCode = errorCode;
 115:Generated_Source\PSoC5/cyfitter_cfg.c **** 
 116:Generated_Source\PSoC5/cyfitter_cfg.c ****     /* If we have a clock startup error (bad MHz crystal, PLL lock, etc.),  */
 117:Generated_Source\PSoC5/cyfitter_cfg.c ****     /* we will end up here to allow the customer to implement something to  */
 118:Generated_Source\PSoC5/cyfitter_cfg.c ****     /* deal with the clock condition.                                       */
 119:Generated_Source\PSoC5/cyfitter_cfg.c **** 
 120:Generated_Source\PSoC5/cyfitter_cfg.c **** #ifdef CY_CFG_CLOCK_STARTUP_ERROR_CALLBACK
 121:Generated_Source\PSoC5/cyfitter_cfg.c **** 	CY_CFG_Clock_Startup_ErrorCallback();
 122:Generated_Source\PSoC5/cyfitter_cfg.c **** #else
 123:Generated_Source\PSoC5/cyfitter_cfg.c **** 	/*  If not using CY_CFG_CLOCK_STARTUP_ERROR_CALLBACK, place your clock startup code here. */
 124:Generated_Source\PSoC5/cyfitter_cfg.c ****     /* `#START CyClockStartupError` */
 125:Generated_Source\PSoC5/cyfitter_cfg.c **** 
 126:Generated_Source\PSoC5/cyfitter_cfg.c **** 
 127:Generated_Source\PSoC5/cyfitter_cfg.c **** 
 128:Generated_Source\PSoC5/cyfitter_cfg.c ****     /* `#END` */
 129:Generated_Source\PSoC5/cyfitter_cfg.c **** 
 130:Generated_Source\PSoC5/cyfitter_cfg.c ****     /* If nothing else, stop here since the clocks have not started         */
 131:Generated_Source\PSoC5/cyfitter_cfg.c ****     /* correctly.                                                           */
 132:Generated_Source\PSoC5/cyfitter_cfg.c ****     while(1) {}
  34              		.loc 1 132 0 discriminator 1
  35 0000 FEE7     		b	.L2
  36              		.cfi_endproc
  37              	.LFE3:
  38              		.size	CyClockStartupError, .-CyClockStartupError
  39 0002 00BF     		.section	.text.cfg_write_bytes32,"ax",%progbits
ARM GAS  C:\Users\kelvi\AppData\Local\Temp\cchv6dxo.s 			page 4


  40              		.align	2
  41              		.thumb
  42              		.thumb_func
  43              		.type	cfg_write_bytes32, %function
  44              	cfg_write_bytes32:
  45              	.LFB4:
 133:Generated_Source\PSoC5/cyfitter_cfg.c **** #endif /* CY_CFG_CLOCK_STARTUP_ERROR_CALLBACK */ 
 134:Generated_Source\PSoC5/cyfitter_cfg.c **** }
 135:Generated_Source\PSoC5/cyfitter_cfg.c **** #endif
 136:Generated_Source\PSoC5/cyfitter_cfg.c **** 
 137:Generated_Source\PSoC5/cyfitter_cfg.c **** #define CY_CFG_BASE_ADDR_COUNT 6u
 138:Generated_Source\PSoC5/cyfitter_cfg.c **** CYPACKED typedef struct
 139:Generated_Source\PSoC5/cyfitter_cfg.c **** {
 140:Generated_Source\PSoC5/cyfitter_cfg.c **** 	uint8 offset;
 141:Generated_Source\PSoC5/cyfitter_cfg.c **** 	uint8 value;
 142:Generated_Source\PSoC5/cyfitter_cfg.c **** } CYPACKED_ATTR cy_cfg_addrvalue_t;
 143:Generated_Source\PSoC5/cyfitter_cfg.c **** 
 144:Generated_Source\PSoC5/cyfitter_cfg.c **** #define cy_cfg_addr_table ((const uint32 CYFAR *)0x48000000u)
 145:Generated_Source\PSoC5/cyfitter_cfg.c **** #define cy_cfg_data_table ((const cy_cfg_addrvalue_t CYFAR *)0x48000018u)
 146:Generated_Source\PSoC5/cyfitter_cfg.c **** 
 147:Generated_Source\PSoC5/cyfitter_cfg.c **** /* IOPINS0_1 Address: CYREG_PRT1_DM0 Size (bytes): 8 */
 148:Generated_Source\PSoC5/cyfitter_cfg.c **** #define BS_IOPINS0_1_VAL ((const uint8 CYFAR *)0x48000044u)
 149:Generated_Source\PSoC5/cyfitter_cfg.c **** 
 150:Generated_Source\PSoC5/cyfitter_cfg.c **** 
 151:Generated_Source\PSoC5/cyfitter_cfg.c **** /*******************************************************************************
 152:Generated_Source\PSoC5/cyfitter_cfg.c **** * Function Name: cfg_write_bytes32
 153:Generated_Source\PSoC5/cyfitter_cfg.c **** ********************************************************************************
 154:Generated_Source\PSoC5/cyfitter_cfg.c **** * Summary:
 155:Generated_Source\PSoC5/cyfitter_cfg.c **** *  This function is used for setting up the chip configuration areas that
 156:Generated_Source\PSoC5/cyfitter_cfg.c **** *  contain relatively sparse data.
 157:Generated_Source\PSoC5/cyfitter_cfg.c **** *
 158:Generated_Source\PSoC5/cyfitter_cfg.c **** * Parameters:
 159:Generated_Source\PSoC5/cyfitter_cfg.c **** *   void
 160:Generated_Source\PSoC5/cyfitter_cfg.c **** *
 161:Generated_Source\PSoC5/cyfitter_cfg.c **** * Return:
 162:Generated_Source\PSoC5/cyfitter_cfg.c **** *   void
 163:Generated_Source\PSoC5/cyfitter_cfg.c **** *
 164:Generated_Source\PSoC5/cyfitter_cfg.c **** *******************************************************************************/
 165:Generated_Source\PSoC5/cyfitter_cfg.c **** static void cfg_write_bytes32(const uint32 addr_table[], const cy_cfg_addrvalue_t data_table[]);
 166:Generated_Source\PSoC5/cyfitter_cfg.c **** static void cfg_write_bytes32(const uint32 addr_table[], const cy_cfg_addrvalue_t data_table[])
 167:Generated_Source\PSoC5/cyfitter_cfg.c **** {
  46              		.loc 1 167 0
  47              		.cfi_startproc
  48              		@ args = 0, pretend = 0, frame = 0
  49              		@ frame_needed = 0, uses_anonymous_args = 0
  50              		@ link register save eliminated.
  51              	.LVL1:
  52 0000 F0B4     		push	{r4, r5, r6, r7}
  53              		.cfi_def_cfa_offset 16
  54              		.cfi_offset 4, -16
  55              		.cfi_offset 5, -12
  56              		.cfi_offset 6, -8
  57              		.cfi_offset 7, -4
  58              	.LVL2:
 168:Generated_Source\PSoC5/cyfitter_cfg.c **** 	/* For 32-bit little-endian architectures */
 169:Generated_Source\PSoC5/cyfitter_cfg.c **** 	uint32 i, j = 0u;
  59              		.loc 1 169 0
ARM GAS  C:\Users\kelvi\AppData\Local\Temp\cchv6dxo.s 			page 5


  60 0002 0022     		movs	r2, #0
 170:Generated_Source\PSoC5/cyfitter_cfg.c **** 	for (i = 0u; i < CY_CFG_BASE_ADDR_COUNT; i++)
  61              		.loc 1 170 0
  62 0004 1746     		mov	r7, r2
  63 0006 11E0     		b	.L4
  64              	.LVL3:
  65              	.L7:
  66              	.LBB2:
 171:Generated_Source\PSoC5/cyfitter_cfg.c **** 	{
 172:Generated_Source\PSoC5/cyfitter_cfg.c **** 		uint32 baseAddr = addr_table[i];
  67              		.loc 1 172 0
  68 0008 50F82760 		ldr	r6, [r0, r7, lsl #2]
  69              	.LVL4:
 173:Generated_Source\PSoC5/cyfitter_cfg.c **** 		uint8 count = (uint8)baseAddr;
  70              		.loc 1 173 0
  71 000c F3B2     		uxtb	r3, r6
  72              	.LVL5:
 174:Generated_Source\PSoC5/cyfitter_cfg.c **** 		baseAddr &= 0xFFFFFF00u;
  73              		.loc 1 174 0
  74 000e 26F0FF06 		bic	r6, r6, #255
  75              	.LVL6:
 175:Generated_Source\PSoC5/cyfitter_cfg.c **** 		while (count != 0u)
  76              		.loc 1 175 0
  77 0012 08E0     		b	.L5
  78              	.L6:
 176:Generated_Source\PSoC5/cyfitter_cfg.c **** 		{
 177:Generated_Source\PSoC5/cyfitter_cfg.c **** 			CY_SET_XTND_REG8((void CYFAR *)(baseAddr + data_table[j].offset), data_table[j].value);
  79              		.loc 1 177 0
  80 0014 01EB4205 		add	r5, r1, r2, lsl #1
  81 0018 11F81240 		ldrb	r4, [r1, r2, lsl #1]	@ zero_extendqisi2
  82 001c 6D78     		ldrb	r5, [r5, #1]	@ zero_extendqisi2
  83 001e A555     		strb	r5, [r4, r6]
 178:Generated_Source\PSoC5/cyfitter_cfg.c **** 			j++;
  84              		.loc 1 178 0
  85 0020 0132     		adds	r2, r2, #1
  86              	.LVL7:
 179:Generated_Source\PSoC5/cyfitter_cfg.c **** 			count--;
  87              		.loc 1 179 0
  88 0022 013B     		subs	r3, r3, #1
  89              	.LVL8:
  90 0024 DBB2     		uxtb	r3, r3
  91              	.LVL9:
  92              	.L5:
 175:Generated_Source\PSoC5/cyfitter_cfg.c **** 		{
  93              		.loc 1 175 0
  94 0026 002B     		cmp	r3, #0
  95 0028 F4D1     		bne	.L6
  96              	.LBE2:
 170:Generated_Source\PSoC5/cyfitter_cfg.c **** 	{
  97              		.loc 1 170 0 discriminator 2
  98 002a 0137     		adds	r7, r7, #1
  99              	.LVL10:
 100              	.L4:
 170:Generated_Source\PSoC5/cyfitter_cfg.c **** 	{
 101              		.loc 1 170 0 is_stmt 0 discriminator 1
 102 002c 052F     		cmp	r7, #5
 103 002e EBD9     		bls	.L7
ARM GAS  C:\Users\kelvi\AppData\Local\Temp\cchv6dxo.s 			page 6


 180:Generated_Source\PSoC5/cyfitter_cfg.c **** 		}
 181:Generated_Source\PSoC5/cyfitter_cfg.c **** 	}
 182:Generated_Source\PSoC5/cyfitter_cfg.c **** }
 104              		.loc 1 182 0 is_stmt 1
 105 0030 F0BC     		pop	{r4, r5, r6, r7}
 106              		.cfi_restore 7
 107              		.cfi_restore 6
 108              		.cfi_restore 5
 109              		.cfi_restore 4
 110              		.cfi_def_cfa_offset 0
 111              	.LVL11:
 112 0032 7047     		bx	lr
 113              		.cfi_endproc
 114              	.LFE4:
 115              		.size	cfg_write_bytes32, .-cfg_write_bytes32
 116              		.section	.text.AnalogSetDefault,"ax",%progbits
 117              		.align	2
 118              		.thumb
 119              		.thumb_func
 120              		.type	AnalogSetDefault, %function
 121              	AnalogSetDefault:
 122              	.LFB6:
 183:Generated_Source\PSoC5/cyfitter_cfg.c **** 
 184:Generated_Source\PSoC5/cyfitter_cfg.c **** /*******************************************************************************
 185:Generated_Source\PSoC5/cyfitter_cfg.c **** * Function Name: ClockSetup
 186:Generated_Source\PSoC5/cyfitter_cfg.c **** ********************************************************************************
 187:Generated_Source\PSoC5/cyfitter_cfg.c **** *
 188:Generated_Source\PSoC5/cyfitter_cfg.c **** * Summary:
 189:Generated_Source\PSoC5/cyfitter_cfg.c **** *  Performs the initialization of all of the clocks in the device based on the
 190:Generated_Source\PSoC5/cyfitter_cfg.c **** *  settings in the Clock tab of the DWR.  This includes enabling the requested
 191:Generated_Source\PSoC5/cyfitter_cfg.c **** *  clocks and setting the necessary dividers to produce the desired frequency. 
 192:Generated_Source\PSoC5/cyfitter_cfg.c **** *
 193:Generated_Source\PSoC5/cyfitter_cfg.c **** * Parameters:
 194:Generated_Source\PSoC5/cyfitter_cfg.c **** *  void
 195:Generated_Source\PSoC5/cyfitter_cfg.c **** *
 196:Generated_Source\PSoC5/cyfitter_cfg.c **** * Return:
 197:Generated_Source\PSoC5/cyfitter_cfg.c **** *  void
 198:Generated_Source\PSoC5/cyfitter_cfg.c **** *
 199:Generated_Source\PSoC5/cyfitter_cfg.c **** *******************************************************************************/
 200:Generated_Source\PSoC5/cyfitter_cfg.c **** static void ClockSetup(void);
 201:Generated_Source\PSoC5/cyfitter_cfg.c **** static void ClockSetup(void)
 202:Generated_Source\PSoC5/cyfitter_cfg.c **** {
 203:Generated_Source\PSoC5/cyfitter_cfg.c **** 	uint32 timeout;
 204:Generated_Source\PSoC5/cyfitter_cfg.c **** 	uint8 pllLock;
 205:Generated_Source\PSoC5/cyfitter_cfg.c **** 
 206:Generated_Source\PSoC5/cyfitter_cfg.c **** 
 207:Generated_Source\PSoC5/cyfitter_cfg.c **** 	/* Configure ILO based on settings from Clock DWR */
 208:Generated_Source\PSoC5/cyfitter_cfg.c **** 	CY_SET_XTND_REG8((void CYFAR *)(CYREG_SLOWCLK_ILO_CR0), 0x02u);
 209:Generated_Source\PSoC5/cyfitter_cfg.c **** 	CY_SET_XTND_REG8((void CYFAR *)(CYREG_CLKDIST_CR), 0x08u);
 210:Generated_Source\PSoC5/cyfitter_cfg.c **** 
 211:Generated_Source\PSoC5/cyfitter_cfg.c **** 	/* Configure IMO based on settings from Clock DWR */
 212:Generated_Source\PSoC5/cyfitter_cfg.c **** 	CY_SET_XTND_REG8((void CYFAR *)(CYREG_FASTCLK_IMO_CR), 0x03u);
 213:Generated_Source\PSoC5/cyfitter_cfg.c **** 	CY_SET_XTND_REG8((void CYFAR *)(CYREG_IMO_TR1), (CY_GET_XTND_REG8((void CYFAR *)CYREG_FLSHID_CUST_
 214:Generated_Source\PSoC5/cyfitter_cfg.c **** 
 215:Generated_Source\PSoC5/cyfitter_cfg.c **** 	/* Configure PLL based on settings from Clock DWR */
 216:Generated_Source\PSoC5/cyfitter_cfg.c **** 	CY_SET_XTND_REG16((void CYFAR *)(CYREG_FASTCLK_PLL_P), 0x0008u);
 217:Generated_Source\PSoC5/cyfitter_cfg.c **** 	CY_SET_XTND_REG16((void CYFAR *)(CYREG_FASTCLK_PLL_CFG0), 0x1251u);
ARM GAS  C:\Users\kelvi\AppData\Local\Temp\cchv6dxo.s 			page 7


 218:Generated_Source\PSoC5/cyfitter_cfg.c **** 	/* Wait up to 250us for the PLL to lock */
 219:Generated_Source\PSoC5/cyfitter_cfg.c **** 	pllLock = 0u;
 220:Generated_Source\PSoC5/cyfitter_cfg.c **** 	for (timeout = 250u / 10u; (timeout > 0u) && (pllLock != 0x03u); timeout--)
 221:Generated_Source\PSoC5/cyfitter_cfg.c **** 	{ 
 222:Generated_Source\PSoC5/cyfitter_cfg.c **** 		pllLock = 0x03u & ((uint8)((uint8)pllLock << 1) | ((CY_GET_XTND_REG8((void CYFAR *)CYREG_FASTCLK_
 223:Generated_Source\PSoC5/cyfitter_cfg.c **** 		CyDelayCycles(10u * 48u); /* Delay 10us based on 48MHz clock */
 224:Generated_Source\PSoC5/cyfitter_cfg.c **** 	}
 225:Generated_Source\PSoC5/cyfitter_cfg.c **** 	/* If we ran out of time the PLL didn't lock so go to the error function */
 226:Generated_Source\PSoC5/cyfitter_cfg.c **** 	if (timeout == 0u)
 227:Generated_Source\PSoC5/cyfitter_cfg.c **** 	{
 228:Generated_Source\PSoC5/cyfitter_cfg.c **** 		CyClockStartupError(CYCLOCKSTART_PLL_ERROR);
 229:Generated_Source\PSoC5/cyfitter_cfg.c **** 	}
 230:Generated_Source\PSoC5/cyfitter_cfg.c **** 
 231:Generated_Source\PSoC5/cyfitter_cfg.c **** 	/* Configure Bus/Master Clock based on settings from Clock DWR */
 232:Generated_Source\PSoC5/cyfitter_cfg.c **** 	CY_SET_XTND_REG16((void CYFAR *)(CYREG_CLKDIST_MSTR0), 0x0100u);
 233:Generated_Source\PSoC5/cyfitter_cfg.c **** 	CY_SET_XTND_REG8((void CYFAR *)(CYREG_CLKDIST_MSTR0), 0x07u);
 234:Generated_Source\PSoC5/cyfitter_cfg.c **** 	CY_SET_XTND_REG8((void CYFAR *)(CYREG_CLKDIST_BCFG0), 0x00u);
 235:Generated_Source\PSoC5/cyfitter_cfg.c **** 	CY_SET_XTND_REG8((void CYFAR *)(CYREG_CLKDIST_BCFG2), 0x48u);
 236:Generated_Source\PSoC5/cyfitter_cfg.c **** 	CY_SET_XTND_REG8((void CYFAR *)(CYREG_CLKDIST_MSTR0), 0x00u);
 237:Generated_Source\PSoC5/cyfitter_cfg.c **** 	CY_SET_XTND_REG8((void CYFAR *)(CYREG_CLKDIST_LD), 0x02u);
 238:Generated_Source\PSoC5/cyfitter_cfg.c **** }
 239:Generated_Source\PSoC5/cyfitter_cfg.c **** 
 240:Generated_Source\PSoC5/cyfitter_cfg.c **** 
 241:Generated_Source\PSoC5/cyfitter_cfg.c **** /* Analog API Functions */
 242:Generated_Source\PSoC5/cyfitter_cfg.c **** 
 243:Generated_Source\PSoC5/cyfitter_cfg.c **** 
 244:Generated_Source\PSoC5/cyfitter_cfg.c **** /*******************************************************************************
 245:Generated_Source\PSoC5/cyfitter_cfg.c **** * Function Name: AnalogSetDefault
 246:Generated_Source\PSoC5/cyfitter_cfg.c **** ********************************************************************************
 247:Generated_Source\PSoC5/cyfitter_cfg.c **** *
 248:Generated_Source\PSoC5/cyfitter_cfg.c **** * Summary:
 249:Generated_Source\PSoC5/cyfitter_cfg.c **** *  Sets up the analog portions of the chip to default values based on chip
 250:Generated_Source\PSoC5/cyfitter_cfg.c **** *  configuration options from the project.
 251:Generated_Source\PSoC5/cyfitter_cfg.c **** *
 252:Generated_Source\PSoC5/cyfitter_cfg.c **** * Parameters:
 253:Generated_Source\PSoC5/cyfitter_cfg.c **** *  void
 254:Generated_Source\PSoC5/cyfitter_cfg.c **** *
 255:Generated_Source\PSoC5/cyfitter_cfg.c **** * Return:
 256:Generated_Source\PSoC5/cyfitter_cfg.c **** *  void
 257:Generated_Source\PSoC5/cyfitter_cfg.c **** *
 258:Generated_Source\PSoC5/cyfitter_cfg.c **** *******************************************************************************/
 259:Generated_Source\PSoC5/cyfitter_cfg.c **** static void AnalogSetDefault(void);
 260:Generated_Source\PSoC5/cyfitter_cfg.c **** static void AnalogSetDefault(void)
 261:Generated_Source\PSoC5/cyfitter_cfg.c **** {
 123              		.loc 1 261 0
 124              		.cfi_startproc
 125              		@ args = 0, pretend = 0, frame = 0
 126              		@ frame_needed = 0, uses_anonymous_args = 0
 127              		@ link register save eliminated.
 262:Generated_Source\PSoC5/cyfitter_cfg.c **** 	uint8 bg_xover_inl_trim = CY_GET_XTND_REG8((void CYFAR *)(CYREG_FLSHID_MFG_CFG_BG_XOVER_INL_TRIM +
 128              		.loc 1 262 0
 129 0000 064B     		ldr	r3, .L10
 130 0002 1B78     		ldrb	r3, [r3]	@ zero_extendqisi2
 131 0004 DBB2     		uxtb	r3, r3
 132              	.LVL12:
 263:Generated_Source\PSoC5/cyfitter_cfg.c **** 	CY_SET_XTND_REG8((void CYFAR *)(CYREG_BG_DFT0), (bg_xover_inl_trim & 0x07u));
 133              		.loc 1 263 0
ARM GAS  C:\Users\kelvi\AppData\Local\Temp\cchv6dxo.s 			page 8


 134 0006 03F00701 		and	r1, r3, #7
 135 000a 054A     		ldr	r2, .L10+4
 136 000c 1170     		strb	r1, [r2]
 264:Generated_Source\PSoC5/cyfitter_cfg.c **** 	CY_SET_XTND_REG8((void CYFAR *)(CYREG_BG_DFT1), ((bg_xover_inl_trim >> 4) & 0x0Fu));
 137              		.loc 1 264 0
 138 000e 1B09     		lsrs	r3, r3, #4
 139              	.LVL13:
 140 0010 0132     		adds	r2, r2, #1
 141 0012 1370     		strb	r3, [r2]
 265:Generated_Source\PSoC5/cyfitter_cfg.c **** 	CY_SET_XTND_REG8((void CYFAR *)CYREG_PUMP_CR0, 0x44u);
 142              		.loc 1 265 0
 143 0014 4422     		movs	r2, #68
 144 0016 034B     		ldr	r3, .L10+8
 145 0018 1A70     		strb	r2, [r3]
 146 001a 7047     		bx	lr
 147              	.L11:
 148              		.align	2
 149              	.L10:
 150 001c CF010049 		.word	1224737231
 151 0020 6E580040 		.word	1073764462
 152 0024 76580040 		.word	1073764470
 153              		.cfi_endproc
 154              	.LFE6:
 155              		.size	AnalogSetDefault, .-AnalogSetDefault
 156              		.section	.text.CYMEMZERO,"ax",%progbits
 157              		.align	2
 158              		.thumb
 159              		.thumb_func
 160              		.type	CYMEMZERO, %function
 161              	CYMEMZERO:
 162              	.LFB0:
  64:Generated_Source\PSoC5/cyfitter_cfg.c **** 	(void)memset(s, 0, n);
 163              		.loc 1 64 0
 164              		.cfi_startproc
 165              		@ args = 0, pretend = 0, frame = 0
 166              		@ frame_needed = 0, uses_anonymous_args = 0
 167              	.LVL14:
 168 0000 08B5     		push	{r3, lr}
 169              		.cfi_def_cfa_offset 8
 170              		.cfi_offset 3, -8
 171              		.cfi_offset 14, -4
 172 0002 0A46     		mov	r2, r1
  65:Generated_Source\PSoC5/cyfitter_cfg.c **** }
 173              		.loc 1 65 0
 174 0004 0021     		movs	r1, #0
 175              	.LVL15:
 176 0006 FFF7FEFF 		bl	memset
 177              	.LVL16:
 178 000a 08BD     		pop	{r3, pc}
 179              		.cfi_endproc
 180              	.LFE0:
 181              		.size	CYMEMZERO, .-CYMEMZERO
 182              		.section	.text.ClockSetup,"ax",%progbits
 183              		.align	2
 184              		.thumb
 185              		.thumb_func
 186              		.type	ClockSetup, %function
ARM GAS  C:\Users\kelvi\AppData\Local\Temp\cchv6dxo.s 			page 9


 187              	ClockSetup:
 188              	.LFB5:
 202:Generated_Source\PSoC5/cyfitter_cfg.c **** 	uint32 timeout;
 189              		.loc 1 202 0
 190              		.cfi_startproc
 191              		@ args = 0, pretend = 0, frame = 0
 192              		@ frame_needed = 0, uses_anonymous_args = 0
 193 0000 38B5     		push	{r3, r4, r5, lr}
 194              		.cfi_def_cfa_offset 16
 195              		.cfi_offset 3, -16
 196              		.cfi_offset 4, -12
 197              		.cfi_offset 5, -8
 198              		.cfi_offset 14, -4
 208:Generated_Source\PSoC5/cyfitter_cfg.c **** 	CY_SET_XTND_REG8((void CYFAR *)(CYREG_CLKDIST_CR), 0x08u);
 199              		.loc 1 208 0
 200 0002 0222     		movs	r2, #2
 201 0004 1E4B     		ldr	r3, .L20
 202 0006 1A70     		strb	r2, [r3]
 209:Generated_Source\PSoC5/cyfitter_cfg.c **** 
 203              		.loc 1 209 0
 204 0008 0822     		movs	r2, #8
 205 000a 4FF04023 		mov	r3, #1073758208
 206 000e 1A70     		strb	r2, [r3]
 212:Generated_Source\PSoC5/cyfitter_cfg.c **** 	CY_SET_XTND_REG8((void CYFAR *)(CYREG_IMO_TR1), (CY_GET_XTND_REG8((void CYFAR *)CYREG_FLSHID_CUST_
 207              		.loc 1 212 0
 208 0010 0321     		movs	r1, #3
 209 0012 03F50073 		add	r3, r3, #512
 210 0016 1970     		strb	r1, [r3]
 213:Generated_Source\PSoC5/cyfitter_cfg.c **** 
 211              		.loc 1 213 0
 212 0018 1A4B     		ldr	r3, .L20+4
 213 001a 1B78     		ldrb	r3, [r3]	@ zero_extendqisi2
 214 001c DBB2     		uxtb	r3, r3
 215 001e 1A49     		ldr	r1, .L20+8
 216 0020 0B70     		strb	r3, [r1]
 216:Generated_Source\PSoC5/cyfitter_cfg.c **** 	CY_SET_XTND_REG16((void CYFAR *)(CYREG_FASTCLK_PLL_CFG0), 0x1251u);
 217              		.loc 1 216 0
 218 0022 1A4B     		ldr	r3, .L20+12
 219 0024 1A80     		strh	r2, [r3]	@ movhi
 217:Generated_Source\PSoC5/cyfitter_cfg.c **** 	/* Wait up to 250us for the PLL to lock */
 220              		.loc 1 217 0
 221 0026 41F25122 		movw	r2, #4689
 222 002a 023B     		subs	r3, r3, #2
 223 002c 1A80     		strh	r2, [r3]	@ movhi
 224              	.LVL17:
 219:Generated_Source\PSoC5/cyfitter_cfg.c **** 	for (timeout = 250u / 10u; (timeout > 0u) && (pllLock != 0x03u); timeout--)
 225              		.loc 1 219 0
 226 002e 0024     		movs	r4, #0
 220:Generated_Source\PSoC5/cyfitter_cfg.c **** 	{ 
 227              		.loc 1 220 0
 228 0030 1925     		movs	r5, #25
 229 0032 0CE0     		b	.L15
 230              	.LVL18:
 231              	.L17:
 222:Generated_Source\PSoC5/cyfitter_cfg.c **** 		CyDelayCycles(10u * 48u); /* Delay 10us based on 48MHz clock */
 232              		.loc 1 222 0 discriminator 4
 233 0034 164B     		ldr	r3, .L20+16
ARM GAS  C:\Users\kelvi\AppData\Local\Temp\cchv6dxo.s 			page 10


 234 0036 1B78     		ldrb	r3, [r3]	@ zero_extendqisi2
 235 0038 03F00103 		and	r3, r3, #1
 236 003c 43EA4404 		orr	r4, r3, r4, lsl #1
 237              	.LVL19:
 238 0040 04F00304 		and	r4, r4, #3
 239              	.LVL20:
 223:Generated_Source\PSoC5/cyfitter_cfg.c **** 	}
 240              		.loc 1 223 0 discriminator 4
 241 0044 4FF4F070 		mov	r0, #480
 242 0048 FFF7FEFF 		bl	CyDelayCycles
 243              	.LVL21:
 220:Generated_Source\PSoC5/cyfitter_cfg.c **** 	{ 
 244              		.loc 1 220 0 discriminator 4
 245 004c 013D     		subs	r5, r5, #1
 246              	.LVL22:
 247              	.L15:
 220:Generated_Source\PSoC5/cyfitter_cfg.c **** 	{ 
 248              		.loc 1 220 0 is_stmt 0 discriminator 1
 249 004e 0DB1     		cbz	r5, .L16
 220:Generated_Source\PSoC5/cyfitter_cfg.c **** 	{ 
 250              		.loc 1 220 0 discriminator 3
 251 0050 032C     		cmp	r4, #3
 252 0052 EFD1     		bne	.L17
 253              	.L16:
 226:Generated_Source\PSoC5/cyfitter_cfg.c **** 	{
 254              		.loc 1 226 0 is_stmt 1
 255 0054 15B9     		cbnz	r5, .L18
 228:Generated_Source\PSoC5/cyfitter_cfg.c **** 	}
 256              		.loc 1 228 0
 257 0056 0320     		movs	r0, #3
 258 0058 FFF7FEFF 		bl	CyClockStartupError
 259              	.LVL23:
 260              	.L18:
 232:Generated_Source\PSoC5/cyfitter_cfg.c **** 	CY_SET_XTND_REG8((void CYFAR *)(CYREG_CLKDIST_MSTR0), 0x07u);
 261              		.loc 1 232 0
 262 005c 0D4B     		ldr	r3, .L20+20
 263 005e 4FF48072 		mov	r2, #256
 264 0062 1A80     		strh	r2, [r3]	@ movhi
 233:Generated_Source\PSoC5/cyfitter_cfg.c **** 	CY_SET_XTND_REG8((void CYFAR *)(CYREG_CLKDIST_BCFG0), 0x00u);
 265              		.loc 1 233 0
 266 0064 0722     		movs	r2, #7
 267 0066 1A70     		strb	r2, [r3]
 234:Generated_Source\PSoC5/cyfitter_cfg.c **** 	CY_SET_XTND_REG8((void CYFAR *)(CYREG_CLKDIST_BCFG2), 0x48u);
 268              		.loc 1 234 0
 269 0068 0022     		movs	r2, #0
 270 006a 0B49     		ldr	r1, .L20+24
 271 006c 0A70     		strb	r2, [r1]
 235:Generated_Source\PSoC5/cyfitter_cfg.c **** 	CY_SET_XTND_REG8((void CYFAR *)(CYREG_CLKDIST_MSTR0), 0x00u);
 272              		.loc 1 235 0
 273 006e 4820     		movs	r0, #72
 274 0070 0231     		adds	r1, r1, #2
 275 0072 0870     		strb	r0, [r1]
 236:Generated_Source\PSoC5/cyfitter_cfg.c **** 	CY_SET_XTND_REG8((void CYFAR *)(CYREG_CLKDIST_LD), 0x02u);
 276              		.loc 1 236 0
 277 0074 1A70     		strb	r2, [r3]
 237:Generated_Source\PSoC5/cyfitter_cfg.c **** }
 278              		.loc 1 237 0
ARM GAS  C:\Users\kelvi\AppData\Local\Temp\cchv6dxo.s 			page 11


 279 0076 0222     		movs	r2, #2
 280 0078 033B     		subs	r3, r3, #3
 281 007a 1A70     		strb	r2, [r3]
 282 007c 38BD     		pop	{r3, r4, r5, pc}
 283              	.LVL24:
 284              	.L21:
 285 007e 00BF     		.align	2
 286              	.L20:
 287 0080 00430040 		.word	1073758976
 288 0084 08010049 		.word	1224737032
 289 0088 A1460040 		.word	1073759905
 290 008c 22420040 		.word	1073758754
 291 0090 25420040 		.word	1073758757
 292 0094 04400040 		.word	1073758212
 293 0098 06400040 		.word	1073758214
 294              		.cfi_endproc
 295              	.LFE5:
 296              		.size	ClockSetup, .-ClockSetup
 297              		.section	.text.CYCONFIGCPY,"ax",%progbits
 298              		.align	2
 299              		.thumb
 300              		.thumb_func
 301              		.type	CYCONFIGCPY, %function
 302              	CYCONFIGCPY:
 303              	.LFB1:
  71:Generated_Source\PSoC5/cyfitter_cfg.c **** 	(void)memcpy(dest, src, n);
 304              		.loc 1 71 0
 305              		.cfi_startproc
 306              		@ args = 0, pretend = 0, frame = 0
 307              		@ frame_needed = 0, uses_anonymous_args = 0
 308              	.LVL25:
 309 0000 08B5     		push	{r3, lr}
 310              		.cfi_def_cfa_offset 8
 311              		.cfi_offset 3, -8
 312              		.cfi_offset 14, -4
  72:Generated_Source\PSoC5/cyfitter_cfg.c **** }
 313              		.loc 1 72 0
 314 0002 FFF7FEFF 		bl	memcpy
 315              	.LVL26:
 316 0006 08BD     		pop	{r3, pc}
 317              		.cfi_endproc
 318              	.LFE1:
 319              		.size	CYCONFIGCPY, .-CYCONFIGCPY
 320              		.section	.text.SetAnalogRoutingPumps,"ax",%progbits
 321              		.align	2
 322              		.global	SetAnalogRoutingPumps
 323              		.thumb
 324              		.thumb_func
 325              		.type	SetAnalogRoutingPumps, %function
 326              	SetAnalogRoutingPumps:
 327              	.LFB7:
 266:Generated_Source\PSoC5/cyfitter_cfg.c **** }
 267:Generated_Source\PSoC5/cyfitter_cfg.c **** 
 268:Generated_Source\PSoC5/cyfitter_cfg.c **** 
 269:Generated_Source\PSoC5/cyfitter_cfg.c **** /*******************************************************************************
 270:Generated_Source\PSoC5/cyfitter_cfg.c **** * Function Name: SetAnalogRoutingPumps
 271:Generated_Source\PSoC5/cyfitter_cfg.c **** ********************************************************************************
ARM GAS  C:\Users\kelvi\AppData\Local\Temp\cchv6dxo.s 			page 12


 272:Generated_Source\PSoC5/cyfitter_cfg.c **** *
 273:Generated_Source\PSoC5/cyfitter_cfg.c **** * Summary:
 274:Generated_Source\PSoC5/cyfitter_cfg.c **** * Enables or disables the analog pumps feeding analog routing switches.
 275:Generated_Source\PSoC5/cyfitter_cfg.c **** * Intended to be called at startup, based on the Vdda system configuration;
 276:Generated_Source\PSoC5/cyfitter_cfg.c **** * may be called during operation when the user informs us that the Vdda voltage
 277:Generated_Source\PSoC5/cyfitter_cfg.c **** * crossed the pump threshold.
 278:Generated_Source\PSoC5/cyfitter_cfg.c **** *
 279:Generated_Source\PSoC5/cyfitter_cfg.c **** * Parameters:
 280:Generated_Source\PSoC5/cyfitter_cfg.c **** *  enabled - 1 to enable the pumps, 0 to disable the pumps
 281:Generated_Source\PSoC5/cyfitter_cfg.c **** *
 282:Generated_Source\PSoC5/cyfitter_cfg.c **** * Return:
 283:Generated_Source\PSoC5/cyfitter_cfg.c **** *  void
 284:Generated_Source\PSoC5/cyfitter_cfg.c **** *
 285:Generated_Source\PSoC5/cyfitter_cfg.c **** *******************************************************************************/
 286:Generated_Source\PSoC5/cyfitter_cfg.c **** void SetAnalogRoutingPumps(uint8 enabled)
 287:Generated_Source\PSoC5/cyfitter_cfg.c **** {
 328              		.loc 1 287 0
 329              		.cfi_startproc
 330              		@ args = 0, pretend = 0, frame = 0
 331              		@ frame_needed = 0, uses_anonymous_args = 0
 332              		@ link register save eliminated.
 333              	.LVL27:
 288:Generated_Source\PSoC5/cyfitter_cfg.c **** 	uint8 regValue = CY_GET_XTND_REG8((void CYFAR *)CYREG_PUMP_CR0);
 334              		.loc 1 288 0
 335 0000 024A     		ldr	r2, .L25
 336 0002 1378     		ldrb	r3, [r2]	@ zero_extendqisi2
 337 0004 DBB2     		uxtb	r3, r3
 338              	.LVL28:
 289:Generated_Source\PSoC5/cyfitter_cfg.c **** 	if (enabled != 0u)
 290:Generated_Source\PSoC5/cyfitter_cfg.c **** 	{
 291:Generated_Source\PSoC5/cyfitter_cfg.c **** 		regValue |= 0x00u;
 292:Generated_Source\PSoC5/cyfitter_cfg.c **** 	}
 293:Generated_Source\PSoC5/cyfitter_cfg.c **** 	else
 294:Generated_Source\PSoC5/cyfitter_cfg.c **** 	{
 295:Generated_Source\PSoC5/cyfitter_cfg.c **** 		regValue &= (uint8)~0x00u;
 296:Generated_Source\PSoC5/cyfitter_cfg.c **** 	}
 297:Generated_Source\PSoC5/cyfitter_cfg.c **** 	CY_SET_XTND_REG8((void CYFAR *)CYREG_PUMP_CR0, regValue);
 339              		.loc 1 297 0
 340 0006 1370     		strb	r3, [r2]
 341 0008 7047     		bx	lr
 342              	.L26:
 343 000a 00BF     		.align	2
 344              	.L25:
 345 000c 76580040 		.word	1073764470
 346              		.cfi_endproc
 347              	.LFE7:
 348              		.size	SetAnalogRoutingPumps, .-SetAnalogRoutingPumps
 349              		.section	.text.cyfitter_cfg,"ax",%progbits
 350              		.align	2
 351              		.global	cyfitter_cfg
 352              		.thumb
 353              		.thumb_func
 354              		.type	cyfitter_cfg, %function
 355              	cyfitter_cfg:
 356              	.LFB8:
 298:Generated_Source\PSoC5/cyfitter_cfg.c **** }
 299:Generated_Source\PSoC5/cyfitter_cfg.c **** 
ARM GAS  C:\Users\kelvi\AppData\Local\Temp\cchv6dxo.s 			page 13


 300:Generated_Source\PSoC5/cyfitter_cfg.c **** #define CY_AMUX_UNUSED CYREG_BOOST_SR
 301:Generated_Source\PSoC5/cyfitter_cfg.c **** 
 302:Generated_Source\PSoC5/cyfitter_cfg.c **** 
 303:Generated_Source\PSoC5/cyfitter_cfg.c **** /*******************************************************************************
 304:Generated_Source\PSoC5/cyfitter_cfg.c **** * Function Name: cyfitter_cfg
 305:Generated_Source\PSoC5/cyfitter_cfg.c **** ********************************************************************************
 306:Generated_Source\PSoC5/cyfitter_cfg.c **** * Summary:
 307:Generated_Source\PSoC5/cyfitter_cfg.c **** *  This function is called by the start-up code for the selected device. It
 308:Generated_Source\PSoC5/cyfitter_cfg.c **** *  performs all of the necessary device configuration based on the design
 309:Generated_Source\PSoC5/cyfitter_cfg.c **** *  settings.  This includes settings from the Design Wide Resources (DWR) such
 310:Generated_Source\PSoC5/cyfitter_cfg.c **** *  as Clocks and Pins as well as any component configuration that is necessary.
 311:Generated_Source\PSoC5/cyfitter_cfg.c **** *
 312:Generated_Source\PSoC5/cyfitter_cfg.c **** * Parameters:  
 313:Generated_Source\PSoC5/cyfitter_cfg.c **** *   void
 314:Generated_Source\PSoC5/cyfitter_cfg.c **** *
 315:Generated_Source\PSoC5/cyfitter_cfg.c **** * Return:
 316:Generated_Source\PSoC5/cyfitter_cfg.c **** *   void
 317:Generated_Source\PSoC5/cyfitter_cfg.c **** *
 318:Generated_Source\PSoC5/cyfitter_cfg.c **** *******************************************************************************/
 319:Generated_Source\PSoC5/cyfitter_cfg.c **** 
 320:Generated_Source\PSoC5/cyfitter_cfg.c **** void cyfitter_cfg(void)
 321:Generated_Source\PSoC5/cyfitter_cfg.c **** {
 357              		.loc 1 321 0
 358              		.cfi_startproc
 359              		@ args = 0, pretend = 0, frame = 0
 360              		@ frame_needed = 0, uses_anonymous_args = 0
 361 0000 38B5     		push	{r3, r4, r5, lr}
 362              		.cfi_def_cfa_offset 16
 363              		.cfi_offset 3, -16
 364              		.cfi_offset 4, -12
 365              		.cfi_offset 5, -8
 366              		.cfi_offset 14, -4
 322:Generated_Source\PSoC5/cyfitter_cfg.c **** #ifdef CYGlobalIntDisable
 323:Generated_Source\PSoC5/cyfitter_cfg.c **** 	/* Disable interrupts by default. Let user enable if/when they want. */
 324:Generated_Source\PSoC5/cyfitter_cfg.c **** 	CYGlobalIntDisable
 367              		.loc 1 324 0
 368              	@ 324 "Generated_Source\PSoC5\cyfitter_cfg.c" 1
 369 0002 72B6     		CPSID   i
 370              	@ 0 "" 2
 325:Generated_Source\PSoC5/cyfitter_cfg.c **** #endif
 326:Generated_Source\PSoC5/cyfitter_cfg.c **** 
 327:Generated_Source\PSoC5/cyfitter_cfg.c **** 	/* Enable/Disable Debug functionality based on settings from System DWR */
 328:Generated_Source\PSoC5/cyfitter_cfg.c **** 	CY_SET_XTND_REG8((void CYFAR *)CYREG_MLOGIC_DEBUG, (CY_GET_XTND_REG8((void CYFAR *)CYREG_MLOGIC_DE
 371              		.loc 1 328 0
 372              		.thumb
 373 0004 264A     		ldr	r2, .L31
 374 0006 1378     		ldrb	r3, [r2]	@ zero_extendqisi2
 375 0008 43F00403 		orr	r3, r3, #4
 376 000c 1370     		strb	r3, [r2]
 377              	.LVL29:
 378              	.LBB3:
 329:Generated_Source\PSoC5/cyfitter_cfg.c **** 
 330:Generated_Source\PSoC5/cyfitter_cfg.c **** 	{
 331:Generated_Source\PSoC5/cyfitter_cfg.c **** 
 332:Generated_Source\PSoC5/cyfitter_cfg.c **** 		CYPACKED typedef struct {
 333:Generated_Source\PSoC5/cyfitter_cfg.c **** 			void CYFAR *address;
 334:Generated_Source\PSoC5/cyfitter_cfg.c **** 			uint16 size;
ARM GAS  C:\Users\kelvi\AppData\Local\Temp\cchv6dxo.s 			page 14


 335:Generated_Source\PSoC5/cyfitter_cfg.c **** 		} CYPACKED_ATTR cfg_memset_t;
 336:Generated_Source\PSoC5/cyfitter_cfg.c **** 
 337:Generated_Source\PSoC5/cyfitter_cfg.c **** 		static const cfg_memset_t CYCODE cfg_memset_list [] = {
 338:Generated_Source\PSoC5/cyfitter_cfg.c **** 			/* address, size */
 339:Generated_Source\PSoC5/cyfitter_cfg.c **** 			{(void CYFAR *)(CYREG_PRT0_DR), 16u},
 340:Generated_Source\PSoC5/cyfitter_cfg.c **** 			{(void CYFAR *)(CYREG_PRT2_DR), 80u},
 341:Generated_Source\PSoC5/cyfitter_cfg.c **** 			{(void CYFAR *)(CYREG_PRT12_DR), 16u},
 342:Generated_Source\PSoC5/cyfitter_cfg.c **** 			{(void CYFAR *)(CYREG_PRT15_DR), 16u},
 343:Generated_Source\PSoC5/cyfitter_cfg.c **** 			{(void CYFAR *)(CYDEV_UCFG_B0_P0_U0_BASE), 4096u},
 344:Generated_Source\PSoC5/cyfitter_cfg.c **** 			{(void CYFAR *)(CYDEV_UCFG_B1_P2_U0_BASE), 2048u},
 345:Generated_Source\PSoC5/cyfitter_cfg.c **** 			{(void CYFAR *)(CYDEV_UCFG_DSI0_BASE), 2560u},
 346:Generated_Source\PSoC5/cyfitter_cfg.c **** 			{(void CYFAR *)(CYDEV_UCFG_DSI12_BASE), 512u},
 347:Generated_Source\PSoC5/cyfitter_cfg.c **** 			{(void CYFAR *)(CYREG_BCTL0_MDCLK_EN), 32u},
 348:Generated_Source\PSoC5/cyfitter_cfg.c **** 		};
 349:Generated_Source\PSoC5/cyfitter_cfg.c **** 
 350:Generated_Source\PSoC5/cyfitter_cfg.c **** 		uint8 CYDATA i;
 351:Generated_Source\PSoC5/cyfitter_cfg.c **** 
 352:Generated_Source\PSoC5/cyfitter_cfg.c **** 		/* Zero out critical memory blocks before beginning configuration */
 353:Generated_Source\PSoC5/cyfitter_cfg.c **** 		for (i = 0u; i < (sizeof(cfg_memset_list)/sizeof(cfg_memset_list[0])); i++)
 379              		.loc 1 353 0
 380 000e 0024     		movs	r4, #0
 381 0010 0CE0     		b	.L28
 382              	.LVL30:
 383              	.L29:
 384              	.LBB4:
 354:Generated_Source\PSoC5/cyfitter_cfg.c **** 		{
 355:Generated_Source\PSoC5/cyfitter_cfg.c **** 			const cfg_memset_t CYCODE * CYDATA ms = &cfg_memset_list[i];
 356:Generated_Source\PSoC5/cyfitter_cfg.c **** 			CYMEMZERO(ms->address, (size_t)(uint32)(ms->size));
 385              		.loc 1 356 0 discriminator 3
 386 0012 2449     		ldr	r1, .L31+4
 387 0014 6300     		lsls	r3, r4, #1
 388 0016 1A19     		adds	r2, r3, r4
 389 0018 5200     		lsls	r2, r2, #1
 390 001a 0A44     		add	r2, r2, r1
 391 001c 2344     		add	r3, r3, r4
 392 001e 5B00     		lsls	r3, r3, #1
 393 0020 C858     		ldr	r0, [r1, r3]	@ unaligned
 394 0022 9188     		ldrh	r1, [r2, #4]
 395 0024 FFF7FEFF 		bl	CYMEMZERO
 396              	.LVL31:
 397              	.LBE4:
 353:Generated_Source\PSoC5/cyfitter_cfg.c **** 		{
 398              		.loc 1 353 0 discriminator 3
 399 0028 0134     		adds	r4, r4, #1
 400              	.LVL32:
 401 002a E4B2     		uxtb	r4, r4
 402              	.LVL33:
 403              	.L28:
 353:Generated_Source\PSoC5/cyfitter_cfg.c **** 		{
 404              		.loc 1 353 0 is_stmt 0 discriminator 1
 405 002c 082C     		cmp	r4, #8
 406 002e F0D9     		bls	.L29
 357:Generated_Source\PSoC5/cyfitter_cfg.c **** 		}
 358:Generated_Source\PSoC5/cyfitter_cfg.c **** 
 359:Generated_Source\PSoC5/cyfitter_cfg.c **** 		cfg_write_bytes32(cy_cfg_addr_table, cy_cfg_data_table);
 407              		.loc 1 359 0 is_stmt 1
 408 0030 4FF09040 		mov	r0, #1207959552
ARM GAS  C:\Users\kelvi\AppData\Local\Temp\cchv6dxo.s 			page 15


 409 0034 1C49     		ldr	r1, .L31+8
 410 0036 FFF7FEFF 		bl	cfg_write_bytes32
 411              	.LVL34:
 360:Generated_Source\PSoC5/cyfitter_cfg.c **** 
 361:Generated_Source\PSoC5/cyfitter_cfg.c **** 		/* Enable digital routing */
 362:Generated_Source\PSoC5/cyfitter_cfg.c **** 		CY_SET_XTND_REG8((void CYFAR *)CYREG_BCTL0_BANK_CTL, CY_GET_XTND_REG8((void CYFAR *)CYREG_BCTL0_B
 412              		.loc 1 362 0
 413 003a 1C4A     		ldr	r2, .L31+12
 414 003c 1378     		ldrb	r3, [r2]	@ zero_extendqisi2
 415 003e 43F00203 		orr	r3, r3, #2
 416 0042 1370     		strb	r3, [r2]
 363:Generated_Source\PSoC5/cyfitter_cfg.c **** 		CY_SET_XTND_REG8((void CYFAR *)CYREG_BCTL1_BANK_CTL, CY_GET_XTND_REG8((void CYFAR *)CYREG_BCTL1_B
 417              		.loc 1 363 0
 418 0044 1032     		adds	r2, r2, #16
 419 0046 1378     		ldrb	r3, [r2]	@ zero_extendqisi2
 420 0048 43F00203 		orr	r3, r3, #2
 421 004c 1370     		strb	r3, [r2]
 364:Generated_Source\PSoC5/cyfitter_cfg.c **** 
 365:Generated_Source\PSoC5/cyfitter_cfg.c **** 		/* Enable UDB array */
 366:Generated_Source\PSoC5/cyfitter_cfg.c **** 		CY_SET_XTND_REG8((void CYFAR *)CYREG_PM_ACT_CFG0, CY_GET_XTND_REG8((void CYFAR *)CYREG_PM_ACT_CFG
 422              		.loc 1 366 0
 423 004e 184C     		ldr	r4, .L31+16
 424              	.LVL35:
 425 0050 2378     		ldrb	r3, [r4]	@ zero_extendqisi2
 426 0052 43F04003 		orr	r3, r3, #64
 427 0056 2370     		strb	r3, [r4]
 367:Generated_Source\PSoC5/cyfitter_cfg.c **** 		CY_SET_XTND_REG8((void CYFAR *)CYREG_PM_AVAIL_CR2, CY_GET_XTND_REG8((void CYFAR *)CYREG_PM_AVAIL_
 428              		.loc 1 367 0
 429 0058 A2F58632 		sub	r2, r2, #68608
 430 005c 513A     		subs	r2, r2, #81
 431 005e 1378     		ldrb	r3, [r2]	@ zero_extendqisi2
 432 0060 43F01003 		orr	r3, r3, #16
 433 0064 1370     		strb	r3, [r2]
 434              	.LBE3:
 368:Generated_Source\PSoC5/cyfitter_cfg.c **** 	}
 369:Generated_Source\PSoC5/cyfitter_cfg.c **** 
 370:Generated_Source\PSoC5/cyfitter_cfg.c **** 
 371:Generated_Source\PSoC5/cyfitter_cfg.c **** 	/* Perform second pass device configuration. These items must be configured in specific order afte
 372:Generated_Source\PSoC5/cyfitter_cfg.c **** 	CYCONFIGCPY((void CYFAR *)(CYREG_PRT1_DM0), (const void CYFAR *)(BS_IOPINS0_1_VAL), 8u);
 435              		.loc 1 372 0
 436 0066 1348     		ldr	r0, .L31+20
 437 0068 1349     		ldr	r1, .L31+24
 438 006a 0822     		movs	r2, #8
 439 006c FFF7FEFF 		bl	CYCONFIGCPY
 440              	.LVL36:
 373:Generated_Source\PSoC5/cyfitter_cfg.c **** 	/* Switch Boost to the precision bandgap reference from its internal reference */
 374:Generated_Source\PSoC5/cyfitter_cfg.c **** 	CY_SET_REG8((void CYXDATA *)CYREG_BOOST_CR2, (CY_GET_REG8((void CYXDATA *)CYREG_BOOST_CR2) | 0x08u
 441              		.loc 1 374 0
 442 0070 124A     		ldr	r2, .L31+28
 443 0072 1378     		ldrb	r3, [r2]	@ zero_extendqisi2
 444 0074 43F00803 		orr	r3, r3, #8
 445 0078 1370     		strb	r3, [r2]
 375:Generated_Source\PSoC5/cyfitter_cfg.c **** 
 376:Generated_Source\PSoC5/cyfitter_cfg.c **** 	/* Set Flash Cycles based on max possible frequency in case a glitch occurs during ClockSetup(). *
 377:Generated_Source\PSoC5/cyfitter_cfg.c **** 	CY_SET_XTND_REG8((void CYFAR *)(CYREG_CACHE_CC_CTL), (((CYDEV_INSTRUCT_CACHE_ENABLED) != 0) ? 0x61
 446              		.loc 1 377 0
 447 007a 114D     		ldr	r5, .L31+32
ARM GAS  C:\Users\kelvi\AppData\Local\Temp\cchv6dxo.s 			page 16


 448 007c 6123     		movs	r3, #97
 449 007e 2B70     		strb	r3, [r5]
 378:Generated_Source\PSoC5/cyfitter_cfg.c **** 	/* Setup clocks based on selections from Clock DWR */
 379:Generated_Source\PSoC5/cyfitter_cfg.c **** 	ClockSetup();
 450              		.loc 1 379 0
 451 0080 FFF7FEFF 		bl	ClockSetup
 452              	.LVL37:
 380:Generated_Source\PSoC5/cyfitter_cfg.c **** 	/* Set Flash Cycles based on newly configured 24.00MHz Bus Clock. */
 381:Generated_Source\PSoC5/cyfitter_cfg.c **** 	CY_SET_XTND_REG8((void CYFAR *)(CYREG_CACHE_CC_CTL), (((CYDEV_INSTRUCT_CACHE_ENABLED) != 0) ? 0x81
 453              		.loc 1 381 0
 454 0084 8123     		movs	r3, #129
 455 0086 2B70     		strb	r3, [r5]
 382:Generated_Source\PSoC5/cyfitter_cfg.c **** 	CY_SET_XTND_REG8((void CYFAR *)(CYREG_PANTHER_WAITPIPE), 0x01u);
 456              		.loc 1 382 0
 457 0088 0122     		movs	r2, #1
 458 008a 0E4B     		ldr	r3, .L31+36
 459 008c 1A70     		strb	r2, [r3]
 383:Generated_Source\PSoC5/cyfitter_cfg.c **** 
 384:Generated_Source\PSoC5/cyfitter_cfg.c **** 	/* Perform basic analog initialization to defaults */
 385:Generated_Source\PSoC5/cyfitter_cfg.c **** 	AnalogSetDefault();
 460              		.loc 1 385 0
 461 008e FFF7FEFF 		bl	AnalogSetDefault
 462              	.LVL38:
 386:Generated_Source\PSoC5/cyfitter_cfg.c **** 
 387:Generated_Source\PSoC5/cyfitter_cfg.c **** 	/* Configure alternate active mode */
 388:Generated_Source\PSoC5/cyfitter_cfg.c **** 	CYCONFIGCPY((void CYFAR *)CYDEV_PM_STBY_BASE, (const void CYFAR *)CYDEV_PM_ACT_BASE, 14u);
 463              		.loc 1 388 0
 464 0092 0D48     		ldr	r0, .L31+40
 465 0094 2146     		mov	r1, r4
 466 0096 0E22     		movs	r2, #14
 467 0098 FFF7FEFF 		bl	CYCONFIGCPY
 468              	.LVL39:
 469 009c 38BD     		pop	{r3, r4, r5, pc}
 470              	.L32:
 471 009e 00BF     		.align	2
 472              	.L31:
 473 00a0 E8460040 		.word	1073759976
 474 00a4 00000000 		.word	.LANCHOR0
 475 00a8 18000048 		.word	1207959576
 476 00ac 03500140 		.word	1073827843
 477 00b0 A0430040 		.word	1073759136
 478 00b4 12510040 		.word	1073762578
 479 00b8 44000048 		.word	1207959620
 480 00bc 22430040 		.word	1073759010
 481 00c0 00480040 		.word	1073760256
 482 00c4 04000840 		.word	1074266116
 483 00c8 B0430040 		.word	1073759152
 484              		.cfi_endproc
 485              	.LFE8:
 486              		.size	cyfitter_cfg, .-cyfitter_cfg
 487              		.section	.rodata
 488              		.align	2
 489              		.set	.LANCHOR0,. + 0
 490              		.type	cfg_memset_list.4880, %object
 491              		.size	cfg_memset_list.4880, 54
 492              	cfg_memset_list.4880:
 493 0000 00510040 		.word	1073762560
ARM GAS  C:\Users\kelvi\AppData\Local\Temp\cchv6dxo.s 			page 17


 494 0004 1000     		.short	16
 495 0006 20510040 		.4byte	1073762592
 496 000a 5000     		.short	80
 497 000c C0510040 		.word	1073762752
 498 0010 1000     		.short	16
 499 0012 F0510040 		.4byte	1073762800
 500 0016 1000     		.short	16
 501 0018 00000140 		.word	1073807360
 502 001c 0010     		.short	4096
 503 001e 00140140 		.4byte	1073812480
 504 0022 0008     		.short	2048
 505 0024 00400140 		.word	1073823744
 506 0028 000A     		.short	2560
 507 002a 004C0140 		.4byte	1073826816
 508 002e 0002     		.short	512
 509 0030 00500140 		.word	1073827840
 510 0034 2000     		.short	32
 511 0036 0000     		.text
 512              	.Letext0:
 513              		.file 2 "c:\\program files (x86)\\cypress\\psoc creator\\4.0\\psoc creator\\import\\gnu\\arm\\4.9.
 514              		.file 3 "Generated_Source\\PSoC5\\cytypes.h"
 515              		.file 4 "Generated_Source\\PSoC5\\CyLib.h"
