ARM GAS  C:\Users\kelvi\AppData\Local\Temp\cckAlc4a.s 			page 1


   1              		.syntax unified
   2              		.cpu cortex-m3
   3              		.fpu softvfp
   4              		.eabi_attribute 20, 1
   5              		.eabi_attribute 21, 1
   6              		.eabi_attribute 23, 3
   7              		.eabi_attribute 24, 1
   8              		.eabi_attribute 25, 1
   9              		.eabi_attribute 26, 1
  10              		.eabi_attribute 30, 1
  11              		.eabi_attribute 34, 1
  12              		.eabi_attribute 18, 4
  13              		.thumb
  14              		.file	"CyFlash.c"
  15              		.text
  16              	.Ltext0:
  17              		.cfi_sections	.debug_frame
  18              		.section	.text.CyFlashGetSpcAlgorithm,"ax",%progbits
  19              		.align	2
  20              		.thumb
  21              		.thumb_func
  22              		.type	CyFlashGetSpcAlgorithm, %function
  23              	CyFlashGetSpcAlgorithm:
  24              	.LFB3:
  25              		.file 1 "Generated_Source\\PSoC5\\CyFlash.c"
   1:Generated_Source\PSoC5/CyFlash.c **** /***************************************************************************//**
   2:Generated_Source\PSoC5/CyFlash.c **** * \file CyFlash.c
   3:Generated_Source\PSoC5/CyFlash.c **** * \version 5.50
   4:Generated_Source\PSoC5/CyFlash.c **** *
   5:Generated_Source\PSoC5/CyFlash.c **** * \brief Provides an API for the FLASH/EEPROM.
   6:Generated_Source\PSoC5/CyFlash.c **** *
   7:Generated_Source\PSoC5/CyFlash.c **** * \note This code is endian agnostic.
   8:Generated_Source\PSoC5/CyFlash.c **** *
   9:Generated_Source\PSoC5/CyFlash.c **** * \note Documentation of the API's in this file is located in the System
  10:Generated_Source\PSoC5/CyFlash.c **** * Reference Guide provided with PSoC Creator.
  11:Generated_Source\PSoC5/CyFlash.c **** *
  12:Generated_Source\PSoC5/CyFlash.c **** ********************************************************************************
  13:Generated_Source\PSoC5/CyFlash.c **** * \copyright
  14:Generated_Source\PSoC5/CyFlash.c **** * Copyright 2008-2016, Cypress Semiconductor Corporation. All rights reserved.
  15:Generated_Source\PSoC5/CyFlash.c **** * You may use this file only in accordance with the license, terms, conditions,
  16:Generated_Source\PSoC5/CyFlash.c **** * disclaimers, and limitations in the end user license agreement accompanying
  17:Generated_Source\PSoC5/CyFlash.c **** * the software package with which this file was provided.
  18:Generated_Source\PSoC5/CyFlash.c **** *******************************************************************************/
  19:Generated_Source\PSoC5/CyFlash.c **** 
  20:Generated_Source\PSoC5/CyFlash.c **** #include "CyFlash.h"
  21:Generated_Source\PSoC5/CyFlash.c **** 
  22:Generated_Source\PSoC5/CyFlash.c **** /*  The number of EEPROM arrays */
  23:Generated_Source\PSoC5/CyFlash.c **** #define CY_FLASH_EEPROM_NUMBER_ARRAYS                 (1u)
  24:Generated_Source\PSoC5/CyFlash.c **** 
  25:Generated_Source\PSoC5/CyFlash.c **** 
  26:Generated_Source\PSoC5/CyFlash.c **** /*******************************************************************************
  27:Generated_Source\PSoC5/CyFlash.c **** * Holds the die temperature, updated by CySetTemp(). Used for flash writing.
  28:Generated_Source\PSoC5/CyFlash.c **** * The first byte is the sign of the temperature (0 = negative, 1 = positive).
  29:Generated_Source\PSoC5/CyFlash.c **** * The second byte is the magnitude.
  30:Generated_Source\PSoC5/CyFlash.c **** *******************************************************************************/
  31:Generated_Source\PSoC5/CyFlash.c **** uint8 dieTemperature[CY_FLASH_DIE_TEMP_DATA_SIZE];
  32:Generated_Source\PSoC5/CyFlash.c **** 
ARM GAS  C:\Users\kelvi\AppData\Local\Temp\cckAlc4a.s 			page 2


  33:Generated_Source\PSoC5/CyFlash.c **** #if(CYDEV_ECC_ENABLE == 0)
  34:Generated_Source\PSoC5/CyFlash.c ****     static uint8 * rowBuffer = 0;
  35:Generated_Source\PSoC5/CyFlash.c **** #endif  /* (CYDEV_ECC_ENABLE == 0) */
  36:Generated_Source\PSoC5/CyFlash.c **** 
  37:Generated_Source\PSoC5/CyFlash.c **** 
  38:Generated_Source\PSoC5/CyFlash.c **** static cystatus CySetTempInt(void);
  39:Generated_Source\PSoC5/CyFlash.c **** static cystatus CyFlashGetSpcAlgorithm(void);
  40:Generated_Source\PSoC5/CyFlash.c **** 
  41:Generated_Source\PSoC5/CyFlash.c **** 
  42:Generated_Source\PSoC5/CyFlash.c **** /*******************************************************************************
  43:Generated_Source\PSoC5/CyFlash.c **** * Function Name: CyFlash_Start
  44:Generated_Source\PSoC5/CyFlash.c **** ****************************************************************************//**
  45:Generated_Source\PSoC5/CyFlash.c **** *
  46:Generated_Source\PSoC5/CyFlash.c **** *  Enable the Flash.
  47:Generated_Source\PSoC5/CyFlash.c **** *
  48:Generated_Source\PSoC5/CyFlash.c **** *******************************************************************************/
  49:Generated_Source\PSoC5/CyFlash.c **** void CyFlash_Start(void) 
  50:Generated_Source\PSoC5/CyFlash.c **** {
  51:Generated_Source\PSoC5/CyFlash.c ****     uint8 interruptState;
  52:Generated_Source\PSoC5/CyFlash.c **** 
  53:Generated_Source\PSoC5/CyFlash.c ****     interruptState = CyEnterCriticalSection();
  54:Generated_Source\PSoC5/CyFlash.c **** 
  55:Generated_Source\PSoC5/CyFlash.c **** 
  56:Generated_Source\PSoC5/CyFlash.c ****     /***************************************************************************
  57:Generated_Source\PSoC5/CyFlash.c ****     * Enable SPC clock. This also internally enables the 36MHz IMO, since this
  58:Generated_Source\PSoC5/CyFlash.c ****     * is required for the SPC to function.
  59:Generated_Source\PSoC5/CyFlash.c ****     ***************************************************************************/
  60:Generated_Source\PSoC5/CyFlash.c ****     CY_FLASH_PM_ACT_CFG0_REG    |= CY_FLASH_PM_ACT_CFG0_EN_CLK_SPC;
  61:Generated_Source\PSoC5/CyFlash.c ****     CY_FLASH_PM_ALTACT_CFG0_REG |= CY_FLASH_PM_ALTACT_CFG0_EN_CLK_SPC;
  62:Generated_Source\PSoC5/CyFlash.c **** 
  63:Generated_Source\PSoC5/CyFlash.c **** 
  64:Generated_Source\PSoC5/CyFlash.c ****     /***************************************************************************
  65:Generated_Source\PSoC5/CyFlash.c ****     * The wake count defines the number of Bus Clock cycles it takes for the
  66:Generated_Source\PSoC5/CyFlash.c ****     * flash or eeprom to wake up from a low power mode independent of the chip
  67:Generated_Source\PSoC5/CyFlash.c ****     * power mode. Wake up time for these blocks is 5 us.
  68:Generated_Source\PSoC5/CyFlash.c ****     * The granularity of this register is 2 Bus Clock cycles, so a value of 0x1E
  69:Generated_Source\PSoC5/CyFlash.c ****     * (30d) defines the wake up time as 60 cycles of the Bus Clock.
  70:Generated_Source\PSoC5/CyFlash.c ****     * This register needs to be written with a value dependent on the Bus Clock
  71:Generated_Source\PSoC5/CyFlash.c ****     * frequency so that the duration of the cycles is equal to or greater than
  72:Generated_Source\PSoC5/CyFlash.c ****     * the 5 us delay required.
  73:Generated_Source\PSoC5/CyFlash.c ****     ***************************************************************************/
  74:Generated_Source\PSoC5/CyFlash.c ****     CY_FLASH_SPC_FM_EE_WAKE_CNT_REG = CY_FLASH_SPC_FM_EE_WAKE_CNT_80MHZ;
  75:Generated_Source\PSoC5/CyFlash.c **** 
  76:Generated_Source\PSoC5/CyFlash.c **** 
  77:Generated_Source\PSoC5/CyFlash.c ****     /***************************************************************************
  78:Generated_Source\PSoC5/CyFlash.c ****     * Enable flash. Active flash macros consume current, but re-enabling a
  79:Generated_Source\PSoC5/CyFlash.c ****     * disabled flash macro takes 5us. If the CPU attempts to fetch out of the
  80:Generated_Source\PSoC5/CyFlash.c ****     * macro during that time, it will be stalled. This bit allows the flash to
  81:Generated_Source\PSoC5/CyFlash.c ****     * be enabled even if the CPU is disabled, which allows a quicker return to
  82:Generated_Source\PSoC5/CyFlash.c ****     * code execution.
  83:Generated_Source\PSoC5/CyFlash.c ****     ***************************************************************************/
  84:Generated_Source\PSoC5/CyFlash.c ****     CY_FLASH_PM_ACT_CFG12_REG    |= CY_FLASH_PM_ACT_CFG12_EN_FM;
  85:Generated_Source\PSoC5/CyFlash.c ****     CY_FLASH_PM_ALTACT_CFG12_REG |= CY_FLASH_PM_ALTACT_CFG12_EN_FM;
  86:Generated_Source\PSoC5/CyFlash.c **** 
  87:Generated_Source\PSoC5/CyFlash.c ****     while(0u == (CY_FLASH_SPC_FM_EE_CR_REG & CY_FLASH_EE_EE_AWAKE))
  88:Generated_Source\PSoC5/CyFlash.c ****     {
  89:Generated_Source\PSoC5/CyFlash.c ****         /* Non-zero status denotes that the EEPROM/Flash is awake & powered. */
ARM GAS  C:\Users\kelvi\AppData\Local\Temp\cckAlc4a.s 			page 3


  90:Generated_Source\PSoC5/CyFlash.c ****     }
  91:Generated_Source\PSoC5/CyFlash.c **** 
  92:Generated_Source\PSoC5/CyFlash.c ****     CyExitCriticalSection(interruptState);
  93:Generated_Source\PSoC5/CyFlash.c **** }
  94:Generated_Source\PSoC5/CyFlash.c **** 
  95:Generated_Source\PSoC5/CyFlash.c **** 
  96:Generated_Source\PSoC5/CyFlash.c **** /*******************************************************************************
  97:Generated_Source\PSoC5/CyFlash.c **** * Function Name: CyFlash_Stop
  98:Generated_Source\PSoC5/CyFlash.c **** ****************************************************************************//**
  99:Generated_Source\PSoC5/CyFlash.c **** *
 100:Generated_Source\PSoC5/CyFlash.c **** *  Disable the Flash.
 101:Generated_Source\PSoC5/CyFlash.c **** *
 102:Generated_Source\PSoC5/CyFlash.c **** * \sideeffect
 103:Generated_Source\PSoC5/CyFlash.c **** *  This setting is ignored as long as the CPU is currently running.  This will
 104:Generated_Source\PSoC5/CyFlash.c **** *  only take effect when the CPU is later disabled.
 105:Generated_Source\PSoC5/CyFlash.c **** *
 106:Generated_Source\PSoC5/CyFlash.c **** *******************************************************************************/
 107:Generated_Source\PSoC5/CyFlash.c **** void CyFlash_Stop(void) 
 108:Generated_Source\PSoC5/CyFlash.c **** {
 109:Generated_Source\PSoC5/CyFlash.c ****     uint8 interruptState;
 110:Generated_Source\PSoC5/CyFlash.c **** 
 111:Generated_Source\PSoC5/CyFlash.c ****     interruptState = CyEnterCriticalSection();
 112:Generated_Source\PSoC5/CyFlash.c **** 
 113:Generated_Source\PSoC5/CyFlash.c ****     CY_FLASH_PM_ACT_CFG12_REG    &= ((uint8)(~CY_FLASH_PM_ACT_CFG12_EN_FM));
 114:Generated_Source\PSoC5/CyFlash.c ****     CY_FLASH_PM_ALTACT_CFG12_REG &= ((uint8)(~CY_FLASH_PM_ALTACT_CFG12_EN_FM));
 115:Generated_Source\PSoC5/CyFlash.c **** 
 116:Generated_Source\PSoC5/CyFlash.c ****     CyExitCriticalSection(interruptState);
 117:Generated_Source\PSoC5/CyFlash.c **** }
 118:Generated_Source\PSoC5/CyFlash.c **** 
 119:Generated_Source\PSoC5/CyFlash.c **** 
 120:Generated_Source\PSoC5/CyFlash.c **** /*******************************************************************************
 121:Generated_Source\PSoC5/CyFlash.c **** * Function Name: CySetTempInt
 122:Generated_Source\PSoC5/CyFlash.c **** ****************************************************************************//**
 123:Generated_Source\PSoC5/CyFlash.c **** *
 124:Generated_Source\PSoC5/CyFlash.c **** *  Sends a command to the SPC to read the die temperature. Sets a global value
 125:Generated_Source\PSoC5/CyFlash.c **** *  used by the Write function. This function must be called once before
 126:Generated_Source\PSoC5/CyFlash.c **** *  executing a series of Flash writing functions.
 127:Generated_Source\PSoC5/CyFlash.c **** *
 128:Generated_Source\PSoC5/CyFlash.c **** * \return
 129:Generated_Source\PSoC5/CyFlash.c **** *  status:
 130:Generated_Source\PSoC5/CyFlash.c **** *   CYRET_SUCCESS - if successful
 131:Generated_Source\PSoC5/CyFlash.c **** *   CYRET_LOCKED  - if Flash writing already in use
 132:Generated_Source\PSoC5/CyFlash.c **** *   CYRET_UNKNOWN - if there was an SPC error
 133:Generated_Source\PSoC5/CyFlash.c **** *
 134:Generated_Source\PSoC5/CyFlash.c **** *******************************************************************************/
 135:Generated_Source\PSoC5/CyFlash.c **** static cystatus CySetTempInt(void) 
 136:Generated_Source\PSoC5/CyFlash.c **** {
 137:Generated_Source\PSoC5/CyFlash.c ****     cystatus status;
 138:Generated_Source\PSoC5/CyFlash.c **** 
 139:Generated_Source\PSoC5/CyFlash.c ****     /* Make sure SPC is powered */
 140:Generated_Source\PSoC5/CyFlash.c ****     CySpcStart();
 141:Generated_Source\PSoC5/CyFlash.c **** 
 142:Generated_Source\PSoC5/CyFlash.c ****     /* Plan for failure. */
 143:Generated_Source\PSoC5/CyFlash.c ****     status = CYRET_UNKNOWN;
 144:Generated_Source\PSoC5/CyFlash.c **** 
 145:Generated_Source\PSoC5/CyFlash.c ****     if(CySpcLock() == CYRET_SUCCESS)
 146:Generated_Source\PSoC5/CyFlash.c ****     {
ARM GAS  C:\Users\kelvi\AppData\Local\Temp\cckAlc4a.s 			page 4


 147:Generated_Source\PSoC5/CyFlash.c ****         /* Write the command. */
 148:Generated_Source\PSoC5/CyFlash.c ****         if(CYRET_STARTED == CySpcGetTemp(CY_TEMP_NUMBER_OF_SAMPLES))
 149:Generated_Source\PSoC5/CyFlash.c ****         {
 150:Generated_Source\PSoC5/CyFlash.c ****             do
 151:Generated_Source\PSoC5/CyFlash.c ****             {
 152:Generated_Source\PSoC5/CyFlash.c ****                 if(CySpcReadData(dieTemperature, CY_FLASH_DIE_TEMP_DATA_SIZE) == CY_FLASH_DIE_TEMP_
 153:Generated_Source\PSoC5/CyFlash.c ****                 {
 154:Generated_Source\PSoC5/CyFlash.c ****                     status = CYRET_SUCCESS;
 155:Generated_Source\PSoC5/CyFlash.c **** 
 156:Generated_Source\PSoC5/CyFlash.c ****                     while(CY_SPC_BUSY)
 157:Generated_Source\PSoC5/CyFlash.c ****                     {
 158:Generated_Source\PSoC5/CyFlash.c ****                         /* Spin until idle. */
 159:Generated_Source\PSoC5/CyFlash.c ****                         CyDelayUs(1u);
 160:Generated_Source\PSoC5/CyFlash.c ****                     }
 161:Generated_Source\PSoC5/CyFlash.c ****                     break;
 162:Generated_Source\PSoC5/CyFlash.c ****                 }
 163:Generated_Source\PSoC5/CyFlash.c **** 
 164:Generated_Source\PSoC5/CyFlash.c ****             } while(CY_SPC_BUSY);
 165:Generated_Source\PSoC5/CyFlash.c ****         }
 166:Generated_Source\PSoC5/CyFlash.c **** 
 167:Generated_Source\PSoC5/CyFlash.c ****         CySpcUnlock();
 168:Generated_Source\PSoC5/CyFlash.c ****     }
 169:Generated_Source\PSoC5/CyFlash.c ****     else
 170:Generated_Source\PSoC5/CyFlash.c ****     {
 171:Generated_Source\PSoC5/CyFlash.c ****         status = CYRET_LOCKED;
 172:Generated_Source\PSoC5/CyFlash.c ****     }
 173:Generated_Source\PSoC5/CyFlash.c **** 
 174:Generated_Source\PSoC5/CyFlash.c ****     return (status);
 175:Generated_Source\PSoC5/CyFlash.c **** }
 176:Generated_Source\PSoC5/CyFlash.c **** 
 177:Generated_Source\PSoC5/CyFlash.c **** 
 178:Generated_Source\PSoC5/CyFlash.c **** /*******************************************************************************
 179:Generated_Source\PSoC5/CyFlash.c **** * Function Name: CyFlashGetSpcAlgorithm
 180:Generated_Source\PSoC5/CyFlash.c **** ****************************************************************************//**
 181:Generated_Source\PSoC5/CyFlash.c **** *
 182:Generated_Source\PSoC5/CyFlash.c **** *  Sends a command to the SPC to download code into RAM.
 183:Generated_Source\PSoC5/CyFlash.c **** *
 184:Generated_Source\PSoC5/CyFlash.c **** * \return
 185:Generated_Source\PSoC5/CyFlash.c **** *  status:
 186:Generated_Source\PSoC5/CyFlash.c **** *   CYRET_SUCCESS - if successful
 187:Generated_Source\PSoC5/CyFlash.c **** *   CYRET_LOCKED  - if Flash writing already in use
 188:Generated_Source\PSoC5/CyFlash.c **** *   CYRET_UNKNOWN - if there was an SPC error
 189:Generated_Source\PSoC5/CyFlash.c **** *
 190:Generated_Source\PSoC5/CyFlash.c **** *******************************************************************************/
 191:Generated_Source\PSoC5/CyFlash.c **** static cystatus CyFlashGetSpcAlgorithm(void) 
 192:Generated_Source\PSoC5/CyFlash.c **** {
  26              		.loc 1 192 0
  27              		.cfi_startproc
  28              		@ args = 0, pretend = 0, frame = 0
  29              		@ frame_needed = 0, uses_anonymous_args = 0
  30 0000 10B5     		push	{r4, lr}
  31              		.cfi_def_cfa_offset 8
  32              		.cfi_offset 4, -8
  33              		.cfi_offset 14, -4
 193:Generated_Source\PSoC5/CyFlash.c ****     cystatus status;
 194:Generated_Source\PSoC5/CyFlash.c **** 
 195:Generated_Source\PSoC5/CyFlash.c ****     /* Make sure SPC is powered */
ARM GAS  C:\Users\kelvi\AppData\Local\Temp\cckAlc4a.s 			page 5


 196:Generated_Source\PSoC5/CyFlash.c ****     CySpcStart();
  34              		.loc 1 196 0
  35 0002 FFF7FEFF 		bl	CySpcStart
  36              	.LVL0:
 197:Generated_Source\PSoC5/CyFlash.c **** 
 198:Generated_Source\PSoC5/CyFlash.c ****     if(CySpcLock() == CYRET_SUCCESS)
  37              		.loc 1 198 0
  38 0006 FFF7FEFF 		bl	CySpcLock
  39              	.LVL1:
  40 000a D0B9     		cbnz	r0, .L6
 199:Generated_Source\PSoC5/CyFlash.c ****     {
 200:Generated_Source\PSoC5/CyFlash.c ****         status = CySpcGetAlgorithm();
  41              		.loc 1 200 0
  42 000c FFF7FEFF 		bl	CySpcGetAlgorithm
  43              	.LVL2:
  44 0010 0446     		mov	r4, r0
  45              	.LVL3:
 201:Generated_Source\PSoC5/CyFlash.c **** 
 202:Generated_Source\PSoC5/CyFlash.c ****         if(CYRET_STARTED == status)
  46              		.loc 1 202 0
  47 0012 0728     		cmp	r0, #7
  48 0014 12D1     		bne	.L4
  49 0016 02E0     		b	.L3
  50              	.LVL4:
  51              	.L5:
 203:Generated_Source\PSoC5/CyFlash.c ****         {
 204:Generated_Source\PSoC5/CyFlash.c ****             while(CY_SPC_BUSY)
 205:Generated_Source\PSoC5/CyFlash.c ****             {
 206:Generated_Source\PSoC5/CyFlash.c ****                 /* Spin until idle. */
 207:Generated_Source\PSoC5/CyFlash.c ****                 CyDelayUs(1u);
  52              		.loc 1 207 0
  53 0018 0120     		movs	r0, #1
  54 001a FFF7FEFF 		bl	CyDelayUs
  55              	.LVL5:
  56              	.L3:
 204:Generated_Source\PSoC5/CyFlash.c ****             {
  57              		.loc 1 204 0
  58 001e 0A4B     		ldr	r3, .L9
  59 0020 1B78     		ldrb	r3, [r3]	@ zero_extendqisi2
  60 0022 13F0020F 		tst	r3, #2
  61 0026 F7D0     		beq	.L5
 208:Generated_Source\PSoC5/CyFlash.c ****             }
 209:Generated_Source\PSoC5/CyFlash.c **** 
 210:Generated_Source\PSoC5/CyFlash.c ****             if(CY_SPC_STATUS_SUCCESS == CY_SPC_READ_STATUS)
  62              		.loc 1 210 0
  63 0028 074B     		ldr	r3, .L9
  64 002a 1B78     		ldrb	r3, [r3]	@ zero_extendqisi2
  65 002c 13F0020F 		tst	r3, #2
  66 0030 04D0     		beq	.L4
  67              		.loc 1 210 0 is_stmt 0 discriminator 1
  68 0032 054B     		ldr	r3, .L9
  69 0034 1B78     		ldrb	r3, [r3]	@ zero_extendqisi2
  70 0036 9B08     		lsrs	r3, r3, #2
  71 0038 00D1     		bne	.L4
 211:Generated_Source\PSoC5/CyFlash.c ****             {
 212:Generated_Source\PSoC5/CyFlash.c ****                 status = CYRET_SUCCESS;
  72              		.loc 1 212 0 is_stmt 1
ARM GAS  C:\Users\kelvi\AppData\Local\Temp\cckAlc4a.s 			page 6


  73 003a 0024     		movs	r4, #0
  74              	.LVL6:
  75              	.L4:
 213:Generated_Source\PSoC5/CyFlash.c ****             }
 214:Generated_Source\PSoC5/CyFlash.c ****         }
 215:Generated_Source\PSoC5/CyFlash.c ****         CySpcUnlock();
  76              		.loc 1 215 0
  77 003c FFF7FEFF 		bl	CySpcUnlock
  78              	.LVL7:
  79 0040 00E0     		b	.L2
  80              	.LVL8:
  81              	.L6:
 216:Generated_Source\PSoC5/CyFlash.c ****     }
 217:Generated_Source\PSoC5/CyFlash.c ****     else
 218:Generated_Source\PSoC5/CyFlash.c ****     {
 219:Generated_Source\PSoC5/CyFlash.c ****         status = CYRET_LOCKED;
  82              		.loc 1 219 0
  83 0042 0424     		movs	r4, #4
  84              	.L2:
  85              	.LVL9:
 220:Generated_Source\PSoC5/CyFlash.c ****     }
 221:Generated_Source\PSoC5/CyFlash.c **** 
 222:Generated_Source\PSoC5/CyFlash.c ****     return (status);
 223:Generated_Source\PSoC5/CyFlash.c **** }
  86              		.loc 1 223 0
  87 0044 2046     		mov	r0, r4
  88 0046 10BD     		pop	{r4, pc}
  89              	.LVL10:
  90              	.L10:
  91              		.align	2
  92              	.L9:
  93 0048 22470040 		.word	1073760034
  94              		.cfi_endproc
  95              	.LFE3:
  96              		.size	CyFlashGetSpcAlgorithm, .-CyFlashGetSpcAlgorithm
  97              		.section	.text.CySetTempInt,"ax",%progbits
  98              		.align	2
  99              		.thumb
 100              		.thumb_func
 101              		.type	CySetTempInt, %function
 102              	CySetTempInt:
 103              	.LFB2:
 136:Generated_Source\PSoC5/CyFlash.c ****     cystatus status;
 104              		.loc 1 136 0
 105              		.cfi_startproc
 106              		@ args = 0, pretend = 0, frame = 0
 107              		@ frame_needed = 0, uses_anonymous_args = 0
 108 0000 10B5     		push	{r4, lr}
 109              		.cfi_def_cfa_offset 8
 110              		.cfi_offset 4, -8
 111              		.cfi_offset 14, -4
 140:Generated_Source\PSoC5/CyFlash.c **** 
 112              		.loc 1 140 0
 113 0002 FFF7FEFF 		bl	CySpcStart
 114              	.LVL11:
 145:Generated_Source\PSoC5/CyFlash.c ****     {
 115              		.loc 1 145 0
ARM GAS  C:\Users\kelvi\AppData\Local\Temp\cckAlc4a.s 			page 7


 116 0006 FFF7FEFF 		bl	CySpcLock
 117              	.LVL12:
 118 000a 10BB     		cbnz	r0, .L18
 148:Generated_Source\PSoC5/CyFlash.c ****         {
 119              		.loc 1 148 0
 120 000c 0120     		movs	r0, #1
 121 000e FFF7FEFF 		bl	CySpcGetTemp
 122              	.LVL13:
 123 0012 0728     		cmp	r0, #7
 124 0014 18D1     		bne	.L19
 125              	.L17:
 152:Generated_Source\PSoC5/CyFlash.c ****                 {
 126              		.loc 1 152 0
 127 0016 1048     		ldr	r0, .L22
 128 0018 0221     		movs	r1, #2
 129 001a FFF7FEFF 		bl	CySpcReadData
 130              	.LVL14:
 131 001e 0228     		cmp	r0, #2
 132 0020 0AD1     		bne	.L20
 133 0022 02E0     		b	.L14
 134              	.L16:
 159:Generated_Source\PSoC5/CyFlash.c ****                     }
 135              		.loc 1 159 0
 136 0024 0120     		movs	r0, #1
 137 0026 FFF7FEFF 		bl	CyDelayUs
 138              	.LVL15:
 139              	.L14:
 156:Generated_Source\PSoC5/CyFlash.c ****                     {
 140              		.loc 1 156 0
 141 002a 0C4B     		ldr	r3, .L22+4
 142 002c 1B78     		ldrb	r3, [r3]	@ zero_extendqisi2
 143 002e 13F0020F 		tst	r3, #2
 144 0032 F7D0     		beq	.L16
 154:Generated_Source\PSoC5/CyFlash.c **** 
 145              		.loc 1 154 0
 146 0034 0024     		movs	r4, #0
 147 0036 09E0     		b	.L13
 148              	.L20:
 164:Generated_Source\PSoC5/CyFlash.c ****         }
 149              		.loc 1 164 0
 150 0038 084B     		ldr	r3, .L22+4
 151 003a 1B78     		ldrb	r3, [r3]	@ zero_extendqisi2
 152 003c 13F0020F 		tst	r3, #2
 153 0040 E9D0     		beq	.L17
 143:Generated_Source\PSoC5/CyFlash.c **** 
 154              		.loc 1 143 0
 155 0042 4FF0FF34 		mov	r4, #-1
 156 0046 01E0     		b	.L13
 157              	.L19:
 158 0048 4FF0FF34 		mov	r4, #-1
 159              	.L13:
 160              	.LVL16:
 167:Generated_Source\PSoC5/CyFlash.c ****     }
 161              		.loc 1 167 0
 162 004c FFF7FEFF 		bl	CySpcUnlock
 163              	.LVL17:
 164 0050 00E0     		b	.L12
ARM GAS  C:\Users\kelvi\AppData\Local\Temp\cckAlc4a.s 			page 8


 165              	.LVL18:
 166              	.L18:
 171:Generated_Source\PSoC5/CyFlash.c ****     }
 167              		.loc 1 171 0
 168 0052 0424     		movs	r4, #4
 169              	.LVL19:
 170              	.L12:
 175:Generated_Source\PSoC5/CyFlash.c **** 
 171              		.loc 1 175 0
 172 0054 2046     		mov	r0, r4
 173 0056 10BD     		pop	{r4, pc}
 174              	.LVL20:
 175              	.L23:
 176              		.align	2
 177              	.L22:
 178 0058 00000000 		.word	dieTemperature
 179 005c 22470040 		.word	1073760034
 180              		.cfi_endproc
 181              	.LFE2:
 182              		.size	CySetTempInt, .-CySetTempInt
 183              		.section	.text.CyFlash_Start,"ax",%progbits
 184              		.align	2
 185              		.global	CyFlash_Start
 186              		.thumb
 187              		.thumb_func
 188              		.type	CyFlash_Start, %function
 189              	CyFlash_Start:
 190              	.LFB0:
  50:Generated_Source\PSoC5/CyFlash.c ****     uint8 interruptState;
 191              		.loc 1 50 0
 192              		.cfi_startproc
 193              		@ args = 0, pretend = 0, frame = 0
 194              		@ frame_needed = 0, uses_anonymous_args = 0
 195 0000 08B5     		push	{r3, lr}
 196              		.cfi_def_cfa_offset 8
 197              		.cfi_offset 3, -8
 198              		.cfi_offset 14, -4
  53:Generated_Source\PSoC5/CyFlash.c **** 
 199              		.loc 1 53 0
 200 0002 FFF7FEFF 		bl	CyEnterCriticalSection
 201              	.LVL21:
  60:Generated_Source\PSoC5/CyFlash.c ****     CY_FLASH_PM_ALTACT_CFG0_REG |= CY_FLASH_PM_ALTACT_CFG0_EN_CLK_SPC;
 202              		.loc 1 60 0
 203 0006 0F4A     		ldr	r2, .L27
 204 0008 1378     		ldrb	r3, [r2]	@ zero_extendqisi2
 205 000a 43F00803 		orr	r3, r3, #8
 206 000e 1370     		strb	r3, [r2]
  61:Generated_Source\PSoC5/CyFlash.c **** 
 207              		.loc 1 61 0
 208 0010 1032     		adds	r2, r2, #16
 209 0012 1378     		ldrb	r3, [r2]	@ zero_extendqisi2
 210 0014 43F00803 		orr	r3, r3, #8
 211 0018 1370     		strb	r3, [r2]
  74:Generated_Source\PSoC5/CyFlash.c **** 
 212              		.loc 1 74 0
 213 001a C822     		movs	r2, #200
 214 001c 0A4B     		ldr	r3, .L27+4
ARM GAS  C:\Users\kelvi\AppData\Local\Temp\cckAlc4a.s 			page 9


 215 001e 1A70     		strb	r2, [r3]
  84:Generated_Source\PSoC5/CyFlash.c ****     CY_FLASH_PM_ALTACT_CFG12_REG |= CY_FLASH_PM_ALTACT_CFG12_EN_FM;
 216              		.loc 1 84 0
 217 0020 0A4A     		ldr	r2, .L27+8
 218 0022 1378     		ldrb	r3, [r2]	@ zero_extendqisi2
 219 0024 43F00F03 		orr	r3, r3, #15
 220 0028 1370     		strb	r3, [r2]
  85:Generated_Source\PSoC5/CyFlash.c **** 
 221              		.loc 1 85 0
 222 002a 1032     		adds	r2, r2, #16
 223 002c 1378     		ldrb	r3, [r2]	@ zero_extendqisi2
 224 002e 43F00F03 		orr	r3, r3, #15
 225 0032 1370     		strb	r3, [r2]
 226              	.L25:
  87:Generated_Source\PSoC5/CyFlash.c ****     {
 227              		.loc 1 87 0 discriminator 1
 228 0034 064B     		ldr	r3, .L27+12
 229 0036 1B78     		ldrb	r3, [r3]	@ zero_extendqisi2
 230 0038 13F0200F 		tst	r3, #32
 231 003c FAD0     		beq	.L25
  92:Generated_Source\PSoC5/CyFlash.c **** }
 232              		.loc 1 92 0
 233 003e FFF7FEFF 		bl	CyExitCriticalSection
 234              	.LVL22:
 235 0042 08BD     		pop	{r3, pc}
 236              	.L28:
 237              		.align	2
 238              	.L27:
 239 0044 A0430040 		.word	1073759136
 240 0048 01470040 		.word	1073760001
 241 004c AC430040 		.word	1073759148
 242 0050 00470040 		.word	1073760000
 243              		.cfi_endproc
 244              	.LFE0:
 245              		.size	CyFlash_Start, .-CyFlash_Start
 246              		.section	.text.CyFlash_Stop,"ax",%progbits
 247              		.align	2
 248              		.global	CyFlash_Stop
 249              		.thumb
 250              		.thumb_func
 251              		.type	CyFlash_Stop, %function
 252              	CyFlash_Stop:
 253              	.LFB1:
 108:Generated_Source\PSoC5/CyFlash.c ****     uint8 interruptState;
 254              		.loc 1 108 0
 255              		.cfi_startproc
 256              		@ args = 0, pretend = 0, frame = 0
 257              		@ frame_needed = 0, uses_anonymous_args = 0
 258 0000 08B5     		push	{r3, lr}
 259              		.cfi_def_cfa_offset 8
 260              		.cfi_offset 3, -8
 261              		.cfi_offset 14, -4
 111:Generated_Source\PSoC5/CyFlash.c **** 
 262              		.loc 1 111 0
 263 0002 FFF7FEFF 		bl	CyEnterCriticalSection
 264              	.LVL23:
 113:Generated_Source\PSoC5/CyFlash.c ****     CY_FLASH_PM_ALTACT_CFG12_REG &= ((uint8)(~CY_FLASH_PM_ALTACT_CFG12_EN_FM));
ARM GAS  C:\Users\kelvi\AppData\Local\Temp\cckAlc4a.s 			page 10


 265              		.loc 1 113 0
 266 0006 064A     		ldr	r2, .L31
 267 0008 1378     		ldrb	r3, [r2]	@ zero_extendqisi2
 268 000a 03F0F003 		and	r3, r3, #240
 269 000e 1370     		strb	r3, [r2]
 114:Generated_Source\PSoC5/CyFlash.c **** 
 270              		.loc 1 114 0
 271 0010 1032     		adds	r2, r2, #16
 272 0012 1378     		ldrb	r3, [r2]	@ zero_extendqisi2
 273 0014 03F0F003 		and	r3, r3, #240
 274 0018 1370     		strb	r3, [r2]
 116:Generated_Source\PSoC5/CyFlash.c **** }
 275              		.loc 1 116 0
 276 001a FFF7FEFF 		bl	CyExitCriticalSection
 277              	.LVL24:
 278 001e 08BD     		pop	{r3, pc}
 279              	.L32:
 280              		.align	2
 281              	.L31:
 282 0020 AC430040 		.word	1073759148
 283              		.cfi_endproc
 284              	.LFE1:
 285              		.size	CyFlash_Stop, .-CyFlash_Stop
 286              		.section	.text.CySetTemp,"ax",%progbits
 287              		.align	2
 288              		.global	CySetTemp
 289              		.thumb
 290              		.thumb_func
 291              		.type	CySetTemp, %function
 292              	CySetTemp:
 293              	.LFB4:
 224:Generated_Source\PSoC5/CyFlash.c **** 
 225:Generated_Source\PSoC5/CyFlash.c **** 
 226:Generated_Source\PSoC5/CyFlash.c **** /*******************************************************************************
 227:Generated_Source\PSoC5/CyFlash.c **** * Function Name: CySetTemp
 228:Generated_Source\PSoC5/CyFlash.c **** ****************************************************************************//**
 229:Generated_Source\PSoC5/CyFlash.c **** *
 230:Generated_Source\PSoC5/CyFlash.c **** *  This is a wraparound for CySetTempInt(). It is used to return the second
 231:Generated_Source\PSoC5/CyFlash.c **** *  successful read of the temperature value.
 232:Generated_Source\PSoC5/CyFlash.c **** *
 233:Generated_Source\PSoC5/CyFlash.c **** * \return
 234:Generated_Source\PSoC5/CyFlash.c **** *  status:
 235:Generated_Source\PSoC5/CyFlash.c **** *   CYRET_SUCCESS if successful.
 236:Generated_Source\PSoC5/CyFlash.c **** *   CYRET_LOCKED  if Flash writing already in use
 237:Generated_Source\PSoC5/CyFlash.c **** *   CYRET_UNKNOWN if there was an SPC error.
 238:Generated_Source\PSoC5/CyFlash.c **** *
 239:Generated_Source\PSoC5/CyFlash.c **** *  uint8 dieTemperature[2]:
 240:Generated_Source\PSoC5/CyFlash.c **** *   Holds the die temperature for the flash writing algorithm. The first byte is
 241:Generated_Source\PSoC5/CyFlash.c **** *   the sign of the temperature (0 = negative, 1 = positive). The second byte is
 242:Generated_Source\PSoC5/CyFlash.c **** *   the magnitude.
 243:Generated_Source\PSoC5/CyFlash.c **** *
 244:Generated_Source\PSoC5/CyFlash.c **** *******************************************************************************/
 245:Generated_Source\PSoC5/CyFlash.c **** cystatus CySetTemp(void) 
 246:Generated_Source\PSoC5/CyFlash.c **** {
 294              		.loc 1 246 0
 295              		.cfi_startproc
 296              		@ args = 0, pretend = 0, frame = 0
ARM GAS  C:\Users\kelvi\AppData\Local\Temp\cckAlc4a.s 			page 11


 297              		@ frame_needed = 0, uses_anonymous_args = 0
 298 0000 08B5     		push	{r3, lr}
 299              		.cfi_def_cfa_offset 8
 300              		.cfi_offset 3, -8
 301              		.cfi_offset 14, -4
 247:Generated_Source\PSoC5/CyFlash.c ****     cystatus status = CyFlashGetSpcAlgorithm();
 302              		.loc 1 247 0
 303 0002 FFF7FEFF 		bl	CyFlashGetSpcAlgorithm
 304              	.LVL25:
 248:Generated_Source\PSoC5/CyFlash.c **** 
 249:Generated_Source\PSoC5/CyFlash.c ****     if(status == CYRET_SUCCESS)
 305              		.loc 1 249 0
 306 0006 0346     		mov	r3, r0
 307 0008 10B9     		cbnz	r0, .L34
 250:Generated_Source\PSoC5/CyFlash.c ****     {
 251:Generated_Source\PSoC5/CyFlash.c ****         status = CySetTempInt();
 308              		.loc 1 251 0
 309 000a FFF7FEFF 		bl	CySetTempInt
 310              	.LVL26:
 311 000e 0346     		mov	r3, r0
 312              	.LVL27:
 313              	.L34:
 252:Generated_Source\PSoC5/CyFlash.c ****     }
 253:Generated_Source\PSoC5/CyFlash.c **** 
 254:Generated_Source\PSoC5/CyFlash.c ****     return (status);
 255:Generated_Source\PSoC5/CyFlash.c **** }
 314              		.loc 1 255 0
 315 0010 1846     		mov	r0, r3
 316 0012 08BD     		pop	{r3, pc}
 317              		.cfi_endproc
 318              	.LFE4:
 319              		.size	CySetTemp, .-CySetTemp
 320              		.section	.text.CySetFlashEEBuffer,"ax",%progbits
 321              		.align	2
 322              		.global	CySetFlashEEBuffer
 323              		.thumb
 324              		.thumb_func
 325              		.type	CySetFlashEEBuffer, %function
 326              	CySetFlashEEBuffer:
 327              	.LFB5:
 256:Generated_Source\PSoC5/CyFlash.c **** 
 257:Generated_Source\PSoC5/CyFlash.c **** 
 258:Generated_Source\PSoC5/CyFlash.c **** /*******************************************************************************
 259:Generated_Source\PSoC5/CyFlash.c **** * Function Name: CySetFlashEEBuffer
 260:Generated_Source\PSoC5/CyFlash.c **** ****************************************************************************//**
 261:Generated_Source\PSoC5/CyFlash.c **** *
 262:Generated_Source\PSoC5/CyFlash.c **** *  Sets the user supplied temporary buffer to store SPC data while performing
 263:Generated_Source\PSoC5/CyFlash.c **** *  Flash and EEPROM commands. This buffer is only necessary when the Flash ECC
 264:Generated_Source\PSoC5/CyFlash.c **** *  is disabled.
 265:Generated_Source\PSoC5/CyFlash.c **** *
 266:Generated_Source\PSoC5/CyFlash.c **** *  \param buffer:
 267:Generated_Source\PSoC5/CyFlash.c **** *   The address of a block of memory to store temporary memory. The size of the
 268:Generated_Source\PSoC5/CyFlash.c **** *   block of memory is CYDEV_FLS_ROW_SIZE + CYDEV_ECC_ROW_SIZE.
 269:Generated_Source\PSoC5/CyFlash.c **** *
 270:Generated_Source\PSoC5/CyFlash.c **** * \return
 271:Generated_Source\PSoC5/CyFlash.c **** *  status:
 272:Generated_Source\PSoC5/CyFlash.c **** *   CYRET_SUCCESS if successful.
ARM GAS  C:\Users\kelvi\AppData\Local\Temp\cckAlc4a.s 			page 12


 273:Generated_Source\PSoC5/CyFlash.c **** *   CYRET_BAD_PARAM if the buffer is NULL
 274:Generated_Source\PSoC5/CyFlash.c **** *
 275:Generated_Source\PSoC5/CyFlash.c **** *******************************************************************************/
 276:Generated_Source\PSoC5/CyFlash.c **** cystatus CySetFlashEEBuffer(uint8 * buffer) 
 277:Generated_Source\PSoC5/CyFlash.c **** {
 328              		.loc 1 277 0
 329              		.cfi_startproc
 330              		@ args = 0, pretend = 0, frame = 0
 331              		@ frame_needed = 0, uses_anonymous_args = 0
 332              	.LVL28:
 333 0000 10B5     		push	{r4, lr}
 334              		.cfi_def_cfa_offset 8
 335              		.cfi_offset 4, -8
 336              		.cfi_offset 14, -4
 337 0002 0446     		mov	r4, r0
 338              	.LVL29:
 278:Generated_Source\PSoC5/CyFlash.c ****     cystatus status = CYRET_SUCCESS;
 279:Generated_Source\PSoC5/CyFlash.c **** 
 280:Generated_Source\PSoC5/CyFlash.c ****     CySpcStart();
 339              		.loc 1 280 0
 340 0004 FFF7FEFF 		bl	CySpcStart
 341              	.LVL30:
 281:Generated_Source\PSoC5/CyFlash.c **** 
 282:Generated_Source\PSoC5/CyFlash.c ****     #if(CYDEV_ECC_ENABLE == 0)
 283:Generated_Source\PSoC5/CyFlash.c **** 
 284:Generated_Source\PSoC5/CyFlash.c ****         if(NULL == buffer)
 342              		.loc 1 284 0
 343 0008 44B1     		cbz	r4, .L38
 285:Generated_Source\PSoC5/CyFlash.c ****         {
 286:Generated_Source\PSoC5/CyFlash.c ****             rowBuffer = rowBuffer;
 287:Generated_Source\PSoC5/CyFlash.c ****             status = CYRET_BAD_PARAM;
 288:Generated_Source\PSoC5/CyFlash.c ****         }
 289:Generated_Source\PSoC5/CyFlash.c ****         else if(CySpcLock() != CYRET_SUCCESS)
 344              		.loc 1 289 0
 345 000a FFF7FEFF 		bl	CySpcLock
 346              	.LVL31:
 347 000e 38B9     		cbnz	r0, .L39
 290:Generated_Source\PSoC5/CyFlash.c ****         {
 291:Generated_Source\PSoC5/CyFlash.c ****             rowBuffer = rowBuffer;
 292:Generated_Source\PSoC5/CyFlash.c ****             status = CYRET_LOCKED;
 293:Generated_Source\PSoC5/CyFlash.c ****         }
 294:Generated_Source\PSoC5/CyFlash.c ****         else
 295:Generated_Source\PSoC5/CyFlash.c ****         {
 296:Generated_Source\PSoC5/CyFlash.c ****             rowBuffer = buffer;
 348              		.loc 1 296 0
 349 0010 044B     		ldr	r3, .L41
 350 0012 1C60     		str	r4, [r3]
 297:Generated_Source\PSoC5/CyFlash.c ****             CySpcUnlock();
 351              		.loc 1 297 0
 352 0014 FFF7FEFF 		bl	CySpcUnlock
 353              	.LVL32:
 278:Generated_Source\PSoC5/CyFlash.c **** 
 354              		.loc 1 278 0
 355 0018 0020     		movs	r0, #0
 356 001a 10BD     		pop	{r4, pc}
 357              	.LVL33:
 358              	.L38:
ARM GAS  C:\Users\kelvi\AppData\Local\Temp\cckAlc4a.s 			page 13


 287:Generated_Source\PSoC5/CyFlash.c ****         }
 359              		.loc 1 287 0
 360 001c 0120     		movs	r0, #1
 361 001e 10BD     		pop	{r4, pc}
 362              	.LVL34:
 363              	.L39:
 292:Generated_Source\PSoC5/CyFlash.c ****         }
 364              		.loc 1 292 0
 365 0020 0420     		movs	r0, #4
 366              	.LVL35:
 298:Generated_Source\PSoC5/CyFlash.c ****         }
 299:Generated_Source\PSoC5/CyFlash.c **** 
 300:Generated_Source\PSoC5/CyFlash.c ****     #else
 301:Generated_Source\PSoC5/CyFlash.c **** 
 302:Generated_Source\PSoC5/CyFlash.c ****         /* To suppress warning */
 303:Generated_Source\PSoC5/CyFlash.c ****         buffer = buffer;
 304:Generated_Source\PSoC5/CyFlash.c **** 
 305:Generated_Source\PSoC5/CyFlash.c ****     #endif  /* (CYDEV_ECC_ENABLE == 0u) */
 306:Generated_Source\PSoC5/CyFlash.c **** 
 307:Generated_Source\PSoC5/CyFlash.c ****     return(status);
 308:Generated_Source\PSoC5/CyFlash.c **** }
 367              		.loc 1 308 0
 368 0022 10BD     		pop	{r4, pc}
 369              	.LVL36:
 370              	.L42:
 371              		.align	2
 372              	.L41:
 373 0024 00000000 		.word	.LANCHOR0
 374              		.cfi_endproc
 375              	.LFE5:
 376              		.size	CySetFlashEEBuffer, .-CySetFlashEEBuffer
 377              		.section	.text.CyWriteRowFull,"ax",%progbits
 378              		.align	2
 379              		.global	CyWriteRowFull
 380              		.thumb
 381              		.thumb_func
 382              		.type	CyWriteRowFull, %function
 383              	CyWriteRowFull:
 384              	.LFB7:
 309:Generated_Source\PSoC5/CyFlash.c **** 
 310:Generated_Source\PSoC5/CyFlash.c **** 
 311:Generated_Source\PSoC5/CyFlash.c **** /*******************************************************************************
 312:Generated_Source\PSoC5/CyFlash.c **** * Function Name: CyWriteRowData
 313:Generated_Source\PSoC5/CyFlash.c **** ****************************************************************************//**
 314:Generated_Source\PSoC5/CyFlash.c **** *
 315:Generated_Source\PSoC5/CyFlash.c **** *  Sends a command to the SPC to load and program a row of data in
 316:Generated_Source\PSoC5/CyFlash.c **** *  Flash or EEPROM.
 317:Generated_Source\PSoC5/CyFlash.c **** *
 318:Generated_Source\PSoC5/CyFlash.c **** *  \param arrayID:    ID of the array to write.
 319:Generated_Source\PSoC5/CyFlash.c **** *   The type of write, Flash or EEPROM, is determined from the array ID.
 320:Generated_Source\PSoC5/CyFlash.c **** *   The arrays in the part are sequential starting at the first ID for the
 321:Generated_Source\PSoC5/CyFlash.c **** *   specific memory type. The array ID for the Flash memory lasts from 0x00 to
 322:Generated_Source\PSoC5/CyFlash.c **** *   0x3F and for the EEPROM memory it lasts from 0x40 to 0x7F.
 323:Generated_Source\PSoC5/CyFlash.c **** *  \param rowAddress: rowAddress of flash row to program.
 324:Generated_Source\PSoC5/CyFlash.c **** *  \param rowData:    Array of bytes to write.
 325:Generated_Source\PSoC5/CyFlash.c **** *
 326:Generated_Source\PSoC5/CyFlash.c **** * \return
ARM GAS  C:\Users\kelvi\AppData\Local\Temp\cckAlc4a.s 			page 14


 327:Generated_Source\PSoC5/CyFlash.c **** *  status:
 328:Generated_Source\PSoC5/CyFlash.c **** *   CYRET_SUCCESS if successful.
 329:Generated_Source\PSoC5/CyFlash.c **** *   CYRET_LOCKED if the SPC is already in use.
 330:Generated_Source\PSoC5/CyFlash.c **** *   CYRET_CANCELED if command not accepted
 331:Generated_Source\PSoC5/CyFlash.c **** *   CYRET_UNKNOWN if there was an SPC error.
 332:Generated_Source\PSoC5/CyFlash.c **** *
 333:Generated_Source\PSoC5/CyFlash.c **** *******************************************************************************/
 334:Generated_Source\PSoC5/CyFlash.c **** cystatus CyWriteRowData(uint8 arrayId, uint16 rowAddress, const uint8 * rowData) 
 335:Generated_Source\PSoC5/CyFlash.c **** {
 336:Generated_Source\PSoC5/CyFlash.c ****     uint16 rowSize;
 337:Generated_Source\PSoC5/CyFlash.c ****     cystatus status;
 338:Generated_Source\PSoC5/CyFlash.c **** 
 339:Generated_Source\PSoC5/CyFlash.c ****     rowSize = (arrayId > CY_SPC_LAST_FLASH_ARRAYID) ? CYDEV_EEPROM_ROW_SIZE : CYDEV_FLS_ROW_SIZE;
 340:Generated_Source\PSoC5/CyFlash.c ****     status = CyWriteRowFull(arrayId, rowAddress, rowData, rowSize);
 341:Generated_Source\PSoC5/CyFlash.c **** 
 342:Generated_Source\PSoC5/CyFlash.c ****     return(status);
 343:Generated_Source\PSoC5/CyFlash.c **** }
 344:Generated_Source\PSoC5/CyFlash.c **** 
 345:Generated_Source\PSoC5/CyFlash.c **** 
 346:Generated_Source\PSoC5/CyFlash.c **** /*******************************************************************
 347:Generated_Source\PSoC5/CyFlash.c **** * If "Enable Error Correcting Code (ECC)" and "Store Configuration
 348:Generated_Source\PSoC5/CyFlash.c **** * Data in ECC" DWR options are disabled, ECC section is available
 349:Generated_Source\PSoC5/CyFlash.c **** * for user data.
 350:Generated_Source\PSoC5/CyFlash.c **** *******************************************************************/
 351:Generated_Source\PSoC5/CyFlash.c **** #if ((CYDEV_ECC_ENABLE == 0u) && (CYDEV_CONFIGURATION_ECC == 0u))
 352:Generated_Source\PSoC5/CyFlash.c **** 
 353:Generated_Source\PSoC5/CyFlash.c ****     /*******************************************************************************
 354:Generated_Source\PSoC5/CyFlash.c ****     * Function Name: CyWriteRowConfig
 355:Generated_Source\PSoC5/CyFlash.c ****     ****************************************************************************//**
 356:Generated_Source\PSoC5/CyFlash.c ****     *
 357:Generated_Source\PSoC5/CyFlash.c ****     *  Sends a command to the SPC to load and program a row of config data in the
 358:Generated_Source\PSoC5/CyFlash.c ****     *  Flash. This function is only valid for Flash array IDs (not for EEPROM).
 359:Generated_Source\PSoC5/CyFlash.c ****     *
 360:Generated_Source\PSoC5/CyFlash.c ****     *  \param arrayId:      ID of the array to write
 361:Generated_Source\PSoC5/CyFlash.c ****     *   The arrays in the part are sequential starting at the first ID for the
 362:Generated_Source\PSoC5/CyFlash.c ****     *   specific memory type. The array ID for the Flash memory lasts
 363:Generated_Source\PSoC5/CyFlash.c ****     *   from 0x00 to 0x3F.
 364:Generated_Source\PSoC5/CyFlash.c ****     *  \param rowAddress:   The address of the sector to erase.
 365:Generated_Source\PSoC5/CyFlash.c ****     *  \param rowECC:       The array of bytes to write.
 366:Generated_Source\PSoC5/CyFlash.c ****     *
 367:Generated_Source\PSoC5/CyFlash.c ****     * \return
 368:Generated_Source\PSoC5/CyFlash.c ****     *  status:
 369:Generated_Source\PSoC5/CyFlash.c ****     *   CYRET_SUCCESS if successful.
 370:Generated_Source\PSoC5/CyFlash.c ****     *   CYRET_LOCKED if the SPC is already in use.
 371:Generated_Source\PSoC5/CyFlash.c ****     *   CYRET_CANCELED if command not accepted
 372:Generated_Source\PSoC5/CyFlash.c ****     *   CYRET_UNKNOWN if there was an SPC error.
 373:Generated_Source\PSoC5/CyFlash.c ****     *
 374:Generated_Source\PSoC5/CyFlash.c ****     *******************************************************************************/
 375:Generated_Source\PSoC5/CyFlash.c ****     cystatus CyWriteRowConfig(uint8 arrayId, uint16 rowAddress, const uint8 * rowECC)\
 376:Generated_Source\PSoC5/CyFlash.c ****     
 377:Generated_Source\PSoC5/CyFlash.c ****     {
 378:Generated_Source\PSoC5/CyFlash.c ****         cystatus status;
 379:Generated_Source\PSoC5/CyFlash.c **** 
 380:Generated_Source\PSoC5/CyFlash.c ****         status = CyWriteRowFull(arrayId, rowAddress, rowECC, CYDEV_ECC_ROW_SIZE);
 381:Generated_Source\PSoC5/CyFlash.c **** 
 382:Generated_Source\PSoC5/CyFlash.c ****         return (status);
 383:Generated_Source\PSoC5/CyFlash.c ****     }
ARM GAS  C:\Users\kelvi\AppData\Local\Temp\cckAlc4a.s 			page 15


 384:Generated_Source\PSoC5/CyFlash.c **** 
 385:Generated_Source\PSoC5/CyFlash.c **** #endif  /* ((CYDEV_ECC_ENABLE == 0u) && (CYDEV_CONFIGURATION_ECC == 0u)) */
 386:Generated_Source\PSoC5/CyFlash.c **** 
 387:Generated_Source\PSoC5/CyFlash.c **** 
 388:Generated_Source\PSoC5/CyFlash.c **** 
 389:Generated_Source\PSoC5/CyFlash.c **** /*******************************************************************************
 390:Generated_Source\PSoC5/CyFlash.c **** * Function Name: CyWriteRowFull
 391:Generated_Source\PSoC5/CyFlash.c **** ****************************************************************************//**
 392:Generated_Source\PSoC5/CyFlash.c **** *  Sends a command to the SPC to load and program a row of data in the Flash.
 393:Generated_Source\PSoC5/CyFlash.c **** *  rowData array is expected to contain Flash and ECC data if needed.
 394:Generated_Source\PSoC5/CyFlash.c **** *
 395:Generated_Source\PSoC5/CyFlash.c **** *  \param arrayId:    FLASH or EEPROM array id.
 396:Generated_Source\PSoC5/CyFlash.c **** *  \param rowData:    Pointer to a row of data to write.
 397:Generated_Source\PSoC5/CyFlash.c **** *  \param rowNumber:  Zero based number of the row.
 398:Generated_Source\PSoC5/CyFlash.c **** *  \param rowSize:    Size of the row.
 399:Generated_Source\PSoC5/CyFlash.c **** *
 400:Generated_Source\PSoC5/CyFlash.c **** * \return
 401:Generated_Source\PSoC5/CyFlash.c **** *  CYRET_SUCCESS if successful.
 402:Generated_Source\PSoC5/CyFlash.c **** *  CYRET_LOCKED if the SPC is already in use.
 403:Generated_Source\PSoC5/CyFlash.c **** *  CYRET_CANCELED if command not accepted
 404:Generated_Source\PSoC5/CyFlash.c **** *  CYRET_UNKNOWN if there was an SPC error.
 405:Generated_Source\PSoC5/CyFlash.c **** *
 406:Generated_Source\PSoC5/CyFlash.c **** *******************************************************************************/
 407:Generated_Source\PSoC5/CyFlash.c **** cystatus CyWriteRowFull(uint8 arrayId, uint16 rowNumber, const uint8* rowData, uint16 rowSize) \
 408:Generated_Source\PSoC5/CyFlash.c ****         
 409:Generated_Source\PSoC5/CyFlash.c **** {
 385              		.loc 1 409 0
 386              		.cfi_startproc
 387              		@ args = 0, pretend = 0, frame = 0
 388              		@ frame_needed = 0, uses_anonymous_args = 0
 389              	.LVL37:
 390 0000 2DE9F041 		push	{r4, r5, r6, r7, r8, lr}
 391              		.cfi_def_cfa_offset 24
 392              		.cfi_offset 4, -24
 393              		.cfi_offset 5, -20
 394              		.cfi_offset 6, -16
 395              		.cfi_offset 7, -12
 396              		.cfi_offset 8, -8
 397              		.cfi_offset 14, -4
 398              	.LVL38:
 410:Generated_Source\PSoC5/CyFlash.c ****     cystatus status = CYRET_SUCCESS;
 411:Generated_Source\PSoC5/CyFlash.c **** 
 412:Generated_Source\PSoC5/CyFlash.c ****     if((arrayId <=  CY_SPC_LAST_FLASH_ARRAYID) && (arrayId > (CY_FLASH_NUMBER_ARRAYS  + CY_SPC_FIRS
 399              		.loc 1 412 0
 400 0004 441F     		subs	r4, r0, #5
 401 0006 E4B2     		uxtb	r4, r4
 402 0008 3A2C     		cmp	r4, #58
 403 000a 01D9     		bls	.L58
 410:Generated_Source\PSoC5/CyFlash.c ****     cystatus status = CYRET_SUCCESS;
 404              		.loc 1 410 0
 405 000c 0025     		movs	r5, #0
 406 000e 00E0     		b	.L44
 407              	.L58:
 413:Generated_Source\PSoC5/CyFlash.c ****     {
 414:Generated_Source\PSoC5/CyFlash.c ****         status = CYRET_BAD_PARAM;
 408              		.loc 1 414 0
 409 0010 0125     		movs	r5, #1
ARM GAS  C:\Users\kelvi\AppData\Local\Temp\cckAlc4a.s 			page 16


 410              	.L44:
 411              	.LVL39:
 415:Generated_Source\PSoC5/CyFlash.c ****     }
 416:Generated_Source\PSoC5/CyFlash.c **** 
 417:Generated_Source\PSoC5/CyFlash.c ****     if(arrayId > CY_SPC_LAST_EE_ARRAYID)
 412              		.loc 1 417 0
 413 0012 10F0800F 		tst	r0, #128
 414 0016 00D0     		beq	.L45
 418:Generated_Source\PSoC5/CyFlash.c ****     {
 419:Generated_Source\PSoC5/CyFlash.c ****         status = CYRET_BAD_PARAM;
 415              		.loc 1 419 0
 416 0018 0125     		movs	r5, #1
 417              	.LVL40:
 418              	.L45:
 420:Generated_Source\PSoC5/CyFlash.c ****     }
 421:Generated_Source\PSoC5/CyFlash.c **** 
 422:Generated_Source\PSoC5/CyFlash.c ****     if((arrayId >= CY_SPC_FIRST_EE_ARRAYID) && (arrayId > (CY_FLASH_EEPROM_NUMBER_ARRAYS + CY_SPC_F
 419              		.loc 1 422 0
 420 001a 4128     		cmp	r0, #65
 421 001c 00D9     		bls	.L46
 423:Generated_Source\PSoC5/CyFlash.c ****     {
 424:Generated_Source\PSoC5/CyFlash.c ****         status = CYRET_BAD_PARAM;
 422              		.loc 1 424 0
 423 001e 0125     		movs	r5, #1
 424              	.LVL41:
 425              	.L46:
 425:Generated_Source\PSoC5/CyFlash.c ****     }
 426:Generated_Source\PSoC5/CyFlash.c **** 
 427:Generated_Source\PSoC5/CyFlash.c ****     if(arrayId <=  CY_SPC_LAST_FLASH_ARRAYID)
 426              		.loc 1 427 0
 427 0020 3F28     		cmp	r0, #63
 428 0022 03D8     		bhi	.L47
 428:Generated_Source\PSoC5/CyFlash.c ****     {
 429:Generated_Source\PSoC5/CyFlash.c ****         /* Flash */
 430:Generated_Source\PSoC5/CyFlash.c ****         if(rowNumber > (CY_FLASH_NUMBER_ROWS/CY_FLASH_NUMBER_ARRAYS))
 429              		.loc 1 430 0
 430 0024 B1F5807F 		cmp	r1, #256
 431 0028 06D8     		bhi	.L61
 432 002a 08E0     		b	.L48
 433              	.L47:
 431:Generated_Source\PSoC5/CyFlash.c ****         {
 432:Generated_Source\PSoC5/CyFlash.c ****             status = CYRET_BAD_PARAM;
 433:Generated_Source\PSoC5/CyFlash.c ****         }
 434:Generated_Source\PSoC5/CyFlash.c ****     }
 435:Generated_Source\PSoC5/CyFlash.c ****     else
 436:Generated_Source\PSoC5/CyFlash.c ****     {
 437:Generated_Source\PSoC5/CyFlash.c ****         /* EEPROM */
 438:Generated_Source\PSoC5/CyFlash.c ****         if(rowNumber > (CY_EEPROM_NUMBER_ROWS/CY_FLASH_EEPROM_NUMBER_ARRAYS))
 434              		.loc 1 438 0
 435 002c 8029     		cmp	r1, #128
 436 002e 00D9     		bls	.L49
 439:Generated_Source\PSoC5/CyFlash.c ****         {
 440:Generated_Source\PSoC5/CyFlash.c ****             status = CYRET_BAD_PARAM;
 437              		.loc 1 440 0
 438 0030 0125     		movs	r5, #1
 439              	.LVL42:
 440              	.L49:
ARM GAS  C:\Users\kelvi\AppData\Local\Temp\cckAlc4a.s 			page 17


 441:Generated_Source\PSoC5/CyFlash.c ****         }
 442:Generated_Source\PSoC5/CyFlash.c **** 
 443:Generated_Source\PSoC5/CyFlash.c ****         if(CY_EEPROM_SIZEOF_ROW != rowSize)
 441              		.loc 1 443 0
 442 0032 102B     		cmp	r3, #16
 443 0034 02D1     		bne	.L63
 444 0036 02E0     		b	.L48
 445              	.L61:
 432:Generated_Source\PSoC5/CyFlash.c ****         }
 446              		.loc 1 432 0
 447 0038 0125     		movs	r5, #1
 448              	.LVL43:
 449 003a 00E0     		b	.L48
 450              	.LVL44:
 451              	.L63:
 444:Generated_Source\PSoC5/CyFlash.c ****         {
 445:Generated_Source\PSoC5/CyFlash.c ****             status = CYRET_BAD_PARAM;
 452              		.loc 1 445 0
 453 003c 0125     		movs	r5, #1
 454              	.LVL45:
 455              	.L48:
 446:Generated_Source\PSoC5/CyFlash.c ****         }
 447:Generated_Source\PSoC5/CyFlash.c ****     }
 448:Generated_Source\PSoC5/CyFlash.c **** 
 449:Generated_Source\PSoC5/CyFlash.c ****     if(rowData == NULL)
 456              		.loc 1 449 0
 457 003e 02B9     		cbnz	r2, .L50
 450:Generated_Source\PSoC5/CyFlash.c ****     {
 451:Generated_Source\PSoC5/CyFlash.c ****         status = CYRET_BAD_PARAM;
 458              		.loc 1 451 0
 459 0040 0125     		movs	r5, #1
 460              	.LVL46:
 461              	.L50:
 452:Generated_Source\PSoC5/CyFlash.c ****     }
 453:Generated_Source\PSoC5/CyFlash.c **** 
 454:Generated_Source\PSoC5/CyFlash.c **** 
 455:Generated_Source\PSoC5/CyFlash.c ****     if(status == CYRET_SUCCESS)
 462              		.loc 1 455 0
 463 0042 002D     		cmp	r5, #0
 464 0044 50D1     		bne	.L51
 465 0046 9846     		mov	r8, r3
 466 0048 1646     		mov	r6, r2
 467 004a 0F46     		mov	r7, r1
 468 004c 0446     		mov	r4, r0
 456:Generated_Source\PSoC5/CyFlash.c ****     {
 457:Generated_Source\PSoC5/CyFlash.c ****         if(CySpcLock() == CYRET_SUCCESS)
 469              		.loc 1 457 0
 470 004e FFF7FEFF 		bl	CySpcLock
 471              	.LVL47:
 472 0052 0028     		cmp	r0, #0
 473 0054 47D1     		bne	.L65
 458:Generated_Source\PSoC5/CyFlash.c ****         {
 459:Generated_Source\PSoC5/CyFlash.c ****             /* Load row data into SPC internal latch */
 460:Generated_Source\PSoC5/CyFlash.c ****             status = CySpcLoadRowFull(arrayId, rowNumber, rowData, rowSize);
 474              		.loc 1 460 0
 475 0056 2046     		mov	r0, r4
 476 0058 3946     		mov	r1, r7
ARM GAS  C:\Users\kelvi\AppData\Local\Temp\cckAlc4a.s 			page 18


 477 005a 3246     		mov	r2, r6
 478 005c 4346     		mov	r3, r8
 479 005e FFF7FEFF 		bl	CySpcLoadRowFull
 480              	.LVL48:
 481 0062 0646     		mov	r6, r0
 482              	.LVL49:
 461:Generated_Source\PSoC5/CyFlash.c **** 
 462:Generated_Source\PSoC5/CyFlash.c ****             if(CYRET_STARTED == status)
 483              		.loc 1 462 0
 484 0064 0728     		cmp	r0, #7
 485 0066 3AD1     		bne	.L53
 486 0068 02E0     		b	.L52
 487              	.LVL50:
 488              	.L54:
 463:Generated_Source\PSoC5/CyFlash.c ****             {
 464:Generated_Source\PSoC5/CyFlash.c ****                 while(CY_SPC_BUSY)
 465:Generated_Source\PSoC5/CyFlash.c ****                 {
 466:Generated_Source\PSoC5/CyFlash.c ****                     /* Wait for SPC to finish and get SPC status */
 467:Generated_Source\PSoC5/CyFlash.c ****                     CyDelayUs(1u);
 489              		.loc 1 467 0
 490 006a 0120     		movs	r0, #1
 491 006c FFF7FEFF 		bl	CyDelayUs
 492              	.LVL51:
 493              	.L52:
 464:Generated_Source\PSoC5/CyFlash.c ****                 {
 494              		.loc 1 464 0
 495 0070 1F4B     		ldr	r3, .L70
 496 0072 1B78     		ldrb	r3, [r3]	@ zero_extendqisi2
 497 0074 13F0020F 		tst	r3, #2
 498 0078 F7D0     		beq	.L54
 468:Generated_Source\PSoC5/CyFlash.c ****                 }
 469:Generated_Source\PSoC5/CyFlash.c **** 
 470:Generated_Source\PSoC5/CyFlash.c ****                 /* Hide SPC status */
 471:Generated_Source\PSoC5/CyFlash.c ****                 if(CY_SPC_STATUS_SUCCESS == CY_SPC_READ_STATUS)
 499              		.loc 1 471 0
 500 007a 1D4B     		ldr	r3, .L70
 501 007c 1B78     		ldrb	r3, [r3]	@ zero_extendqisi2
 502 007e 13F0020F 		tst	r3, #2
 503 0082 06D0     		beq	.L66
 504              		.loc 1 471 0 is_stmt 0 discriminator 1
 505 0084 1A4B     		ldr	r3, .L70
 506 0086 1B78     		ldrb	r3, [r3]	@ zero_extendqisi2
 507 0088 9B08     		lsrs	r3, r3, #2
 508 008a 05D0     		beq	.L67
 472:Generated_Source\PSoC5/CyFlash.c ****                 {
 473:Generated_Source\PSoC5/CyFlash.c ****                     status = CYRET_SUCCESS;
 474:Generated_Source\PSoC5/CyFlash.c ****                 }
 475:Generated_Source\PSoC5/CyFlash.c ****                 else
 476:Generated_Source\PSoC5/CyFlash.c ****                 {
 477:Generated_Source\PSoC5/CyFlash.c ****                     status = CYRET_UNKNOWN;
 509              		.loc 1 477 0 is_stmt 1
 510 008c 4FF0FF36 		mov	r6, #-1
 511              	.LVL52:
 512 0090 03E0     		b	.L55
 513              	.LVL53:
 514              	.L66:
 515 0092 4FF0FF36 		mov	r6, #-1
ARM GAS  C:\Users\kelvi\AppData\Local\Temp\cckAlc4a.s 			page 19


 516              	.LVL54:
 517 0096 00E0     		b	.L55
 518              	.LVL55:
 519              	.L67:
 473:Generated_Source\PSoC5/CyFlash.c ****                 }
 520              		.loc 1 473 0
 521 0098 2E46     		mov	r6, r5
 522              	.LVL56:
 523              	.L55:
 478:Generated_Source\PSoC5/CyFlash.c ****                 }
 479:Generated_Source\PSoC5/CyFlash.c **** 
 480:Generated_Source\PSoC5/CyFlash.c ****                 if(CYRET_SUCCESS == status)
 524              		.loc 1 480 0
 525 009a 06BB     		cbnz	r6, .L53
 481:Generated_Source\PSoC5/CyFlash.c ****                 {
 482:Generated_Source\PSoC5/CyFlash.c ****                     /* Erase and program flash with data from SPC interval latch */
 483:Generated_Source\PSoC5/CyFlash.c ****                     status = CySpcWriteRow(arrayId, rowNumber, dieTemperature[0u], dieTemperature[1
 526              		.loc 1 483 0
 527 009c 154B     		ldr	r3, .L70+4
 528 009e 2046     		mov	r0, r4
 529 00a0 3946     		mov	r1, r7
 530 00a2 1A78     		ldrb	r2, [r3]	@ zero_extendqisi2
 531 00a4 5B78     		ldrb	r3, [r3, #1]	@ zero_extendqisi2
 532 00a6 FFF7FEFF 		bl	CySpcWriteRow
 533              	.LVL57:
 484:Generated_Source\PSoC5/CyFlash.c **** 
 485:Generated_Source\PSoC5/CyFlash.c ****                     if(CYRET_STARTED == status)
 534              		.loc 1 485 0
 535 00aa 0728     		cmp	r0, #7
 536 00ac 04D0     		beq	.L56
 483:Generated_Source\PSoC5/CyFlash.c **** 
 537              		.loc 1 483 0
 538 00ae 0646     		mov	r6, r0
 539 00b0 15E0     		b	.L53
 540              	.LVL58:
 541              	.L57:
 486:Generated_Source\PSoC5/CyFlash.c ****                     {
 487:Generated_Source\PSoC5/CyFlash.c ****                         while(CY_SPC_BUSY)
 488:Generated_Source\PSoC5/CyFlash.c ****                         {
 489:Generated_Source\PSoC5/CyFlash.c ****                             /* Wait for SPC to finish and get SPC status */
 490:Generated_Source\PSoC5/CyFlash.c ****                             CyDelayUs(1u);
 542              		.loc 1 490 0
 543 00b2 0120     		movs	r0, #1
 544 00b4 FFF7FEFF 		bl	CyDelayUs
 545              	.LVL59:
 546              	.L56:
 487:Generated_Source\PSoC5/CyFlash.c ****                         {
 547              		.loc 1 487 0
 548 00b8 0D4B     		ldr	r3, .L70
 549 00ba 1B78     		ldrb	r3, [r3]	@ zero_extendqisi2
 550 00bc 13F0020F 		tst	r3, #2
 551 00c0 F7D0     		beq	.L57
 491:Generated_Source\PSoC5/CyFlash.c ****                         }
 492:Generated_Source\PSoC5/CyFlash.c **** 
 493:Generated_Source\PSoC5/CyFlash.c ****                         /* Hide SPC status */
 494:Generated_Source\PSoC5/CyFlash.c ****                         if(CY_SPC_STATUS_SUCCESS == CY_SPC_READ_STATUS)
 552              		.loc 1 494 0
ARM GAS  C:\Users\kelvi\AppData\Local\Temp\cckAlc4a.s 			page 20


 553 00c2 0B4B     		ldr	r3, .L70
 554 00c4 1B78     		ldrb	r3, [r3]	@ zero_extendqisi2
 555 00c6 13F0020F 		tst	r3, #2
 556 00ca 06D0     		beq	.L68
 557              		.loc 1 494 0 is_stmt 0 discriminator 1
 558 00cc 084B     		ldr	r3, .L70
 559 00ce 1B78     		ldrb	r3, [r3]	@ zero_extendqisi2
 560 00d0 9B08     		lsrs	r3, r3, #2
 561 00d2 04D0     		beq	.L53
 495:Generated_Source\PSoC5/CyFlash.c ****                         {
 496:Generated_Source\PSoC5/CyFlash.c ****                             status = CYRET_SUCCESS;
 497:Generated_Source\PSoC5/CyFlash.c ****                         }
 498:Generated_Source\PSoC5/CyFlash.c ****                         else
 499:Generated_Source\PSoC5/CyFlash.c ****                         {
 500:Generated_Source\PSoC5/CyFlash.c ****                             status = CYRET_UNKNOWN;
 562              		.loc 1 500 0 is_stmt 1
 563 00d4 4FF0FF36 		mov	r6, #-1
 564 00d8 01E0     		b	.L53
 565              	.L68:
 566 00da 4FF0FF36 		mov	r6, #-1
 567              	.L53:
 568              	.LVL60:
 501:Generated_Source\PSoC5/CyFlash.c ****                         }
 502:Generated_Source\PSoC5/CyFlash.c ****                     }
 503:Generated_Source\PSoC5/CyFlash.c ****                 }
 504:Generated_Source\PSoC5/CyFlash.c ****             }
 505:Generated_Source\PSoC5/CyFlash.c ****             CySpcUnlock();
 569              		.loc 1 505 0
 570 00de FFF7FEFF 		bl	CySpcUnlock
 571              	.LVL61:
 572 00e2 3546     		mov	r5, r6
 573 00e4 00E0     		b	.L51
 574              	.LVL62:
 575              	.L65:
 506:Generated_Source\PSoC5/CyFlash.c ****         }   /* if(CySpcLock() == CYRET_SUCCESS) */
 507:Generated_Source\PSoC5/CyFlash.c ****         else
 508:Generated_Source\PSoC5/CyFlash.c ****         {
 509:Generated_Source\PSoC5/CyFlash.c ****             status = CYRET_LOCKED;
 576              		.loc 1 509 0
 577 00e6 0425     		movs	r5, #4
 578              	.LVL63:
 579              	.L51:
 510:Generated_Source\PSoC5/CyFlash.c ****         }
 511:Generated_Source\PSoC5/CyFlash.c ****     }
 512:Generated_Source\PSoC5/CyFlash.c **** 
 513:Generated_Source\PSoC5/CyFlash.c ****     return(status);
 514:Generated_Source\PSoC5/CyFlash.c **** }
 580              		.loc 1 514 0
 581 00e8 2846     		mov	r0, r5
 582 00ea BDE8F081 		pop	{r4, r5, r6, r7, r8, pc}
 583              	.LVL64:
 584              	.L71:
 585 00ee 00BF     		.align	2
 586              	.L70:
 587 00f0 22470040 		.word	1073760034
 588 00f4 00000000 		.word	dieTemperature
 589              		.cfi_endproc
ARM GAS  C:\Users\kelvi\AppData\Local\Temp\cckAlc4a.s 			page 21


 590              	.LFE7:
 591              		.size	CyWriteRowFull, .-CyWriteRowFull
 592              		.section	.text.CyWriteRowData,"ax",%progbits
 593              		.align	2
 594              		.global	CyWriteRowData
 595              		.thumb
 596              		.thumb_func
 597              		.type	CyWriteRowData, %function
 598              	CyWriteRowData:
 599              	.LFB6:
 335:Generated_Source\PSoC5/CyFlash.c ****     uint16 rowSize;
 600              		.loc 1 335 0
 601              		.cfi_startproc
 602              		@ args = 0, pretend = 0, frame = 0
 603              		@ frame_needed = 0, uses_anonymous_args = 0
 604              	.LVL65:
 605 0000 08B5     		push	{r3, lr}
 606              		.cfi_def_cfa_offset 8
 607              		.cfi_offset 3, -8
 608              		.cfi_offset 14, -4
 339:Generated_Source\PSoC5/CyFlash.c ****     status = CyWriteRowFull(arrayId, rowAddress, rowData, rowSize);
 609              		.loc 1 339 0
 610 0002 3F28     		cmp	r0, #63
 611 0004 01D9     		bls	.L74
 612 0006 1023     		movs	r3, #16
 613 0008 01E0     		b	.L73
 614              	.L74:
 615 000a 4FF48073 		mov	r3, #256
 616              	.L73:
 617              	.LVL66:
 340:Generated_Source\PSoC5/CyFlash.c **** 
 618              		.loc 1 340 0 discriminator 4
 619 000e FFF7FEFF 		bl	CyWriteRowFull
 620              	.LVL67:
 343:Generated_Source\PSoC5/CyFlash.c **** 
 621              		.loc 1 343 0 discriminator 4
 622 0012 08BD     		pop	{r3, pc}
 623              		.cfi_endproc
 624              	.LFE6:
 625              		.size	CyWriteRowData, .-CyWriteRowData
 626              		.section	.text.CyFlash_SetWaitCycles,"ax",%progbits
 627              		.align	2
 628              		.global	CyFlash_SetWaitCycles
 629              		.thumb
 630              		.thumb_func
 631              		.type	CyFlash_SetWaitCycles, %function
 632              	CyFlash_SetWaitCycles:
 633              	.LFB8:
 515:Generated_Source\PSoC5/CyFlash.c **** 
 516:Generated_Source\PSoC5/CyFlash.c **** 
 517:Generated_Source\PSoC5/CyFlash.c **** /*******************************************************************************
 518:Generated_Source\PSoC5/CyFlash.c **** * Function Name: CyFlash_SetWaitCycles
 519:Generated_Source\PSoC5/CyFlash.c **** ****************************************************************************//**
 520:Generated_Source\PSoC5/CyFlash.c **** *
 521:Generated_Source\PSoC5/CyFlash.c **** *  Sets the number of clock cycles the cache will wait before it samples data
 522:Generated_Source\PSoC5/CyFlash.c **** *  coming back from the Flash. This function must be called before increasing
 523:Generated_Source\PSoC5/CyFlash.c **** *  the CPU clock frequency. It can optionally be called after lowering the CPU
ARM GAS  C:\Users\kelvi\AppData\Local\Temp\cckAlc4a.s 			page 22


 524:Generated_Source\PSoC5/CyFlash.c **** *  clock frequency in order to improve the CPU performance.
 525:Generated_Source\PSoC5/CyFlash.c **** *
 526:Generated_Source\PSoC5/CyFlash.c **** *  \param uint8 freq:
 527:Generated_Source\PSoC5/CyFlash.c **** *   Frequency of operation in Megahertz.
 528:Generated_Source\PSoC5/CyFlash.c **** *
 529:Generated_Source\PSoC5/CyFlash.c **** *******************************************************************************/
 530:Generated_Source\PSoC5/CyFlash.c **** void CyFlash_SetWaitCycles(uint8 freq) 
 531:Generated_Source\PSoC5/CyFlash.c **** {
 634              		.loc 1 531 0
 635              		.cfi_startproc
 636              		@ args = 0, pretend = 0, frame = 0
 637              		@ frame_needed = 0, uses_anonymous_args = 0
 638              	.LVL68:
 639 0000 38B5     		push	{r3, r4, r5, lr}
 640              		.cfi_def_cfa_offset 16
 641              		.cfi_offset 3, -16
 642              		.cfi_offset 4, -12
 643              		.cfi_offset 5, -8
 644              		.cfi_offset 14, -4
 645 0002 0446     		mov	r4, r0
 532:Generated_Source\PSoC5/CyFlash.c ****     uint8 interruptState;
 533:Generated_Source\PSoC5/CyFlash.c **** 
 534:Generated_Source\PSoC5/CyFlash.c ****     /* Save current global interrupt enable and disable it */
 535:Generated_Source\PSoC5/CyFlash.c ****     interruptState = CyEnterCriticalSection();
 646              		.loc 1 535 0
 647 0004 FFF7FEFF 		bl	CyEnterCriticalSection
 648              	.LVL69:
 649 0008 0546     		mov	r5, r0
 650              	.LVL70:
 536:Generated_Source\PSoC5/CyFlash.c **** 
 537:Generated_Source\PSoC5/CyFlash.c ****     /***************************************************************************
 538:Generated_Source\PSoC5/CyFlash.c ****     * The number of clock cycles the cache will wait before it samples data
 539:Generated_Source\PSoC5/CyFlash.c ****     * coming back from the Flash must be equal or greater to to the CPU frequency
 540:Generated_Source\PSoC5/CyFlash.c ****     * outlined in clock cycles.
 541:Generated_Source\PSoC5/CyFlash.c ****     ***************************************************************************/
 542:Generated_Source\PSoC5/CyFlash.c **** 
 543:Generated_Source\PSoC5/CyFlash.c ****     if (freq < CY_FLASH_CACHE_WS_1_FREQ_MAX)
 651              		.loc 1 543 0
 652 000a 0F2C     		cmp	r4, #15
 653 000c 07D8     		bhi	.L77
 544:Generated_Source\PSoC5/CyFlash.c ****     {
 545:Generated_Source\PSoC5/CyFlash.c ****         CY_FLASH_CONTROL_REG = (CY_FLASH_CONTROL_REG & (uint8)(~CY_FLASH_CACHE_WS_VALUE_MASK)) |
 654              		.loc 1 545 0
 655 000e 1A4A     		ldr	r2, .L84
 656 0010 1378     		ldrb	r3, [r2]	@ zero_extendqisi2
 657 0012 03F01F03 		and	r3, r3, #31
 658 0016 43F04003 		orr	r3, r3, #64
 659 001a 1370     		strb	r3, [r2]
 660 001c 28E0     		b	.L78
 661              	.L77:
 546:Generated_Source\PSoC5/CyFlash.c ****                                     CY_FLASH_CACHE_WS_1_VALUE_MASK;
 547:Generated_Source\PSoC5/CyFlash.c ****     }
 548:Generated_Source\PSoC5/CyFlash.c ****     else if (freq < CY_FLASH_CACHE_WS_2_FREQ_MAX)
 662              		.loc 1 548 0
 663 001e 202C     		cmp	r4, #32
 664 0020 07D8     		bhi	.L79
 549:Generated_Source\PSoC5/CyFlash.c ****     {
ARM GAS  C:\Users\kelvi\AppData\Local\Temp\cckAlc4a.s 			page 23


 550:Generated_Source\PSoC5/CyFlash.c ****         CY_FLASH_CONTROL_REG = (CY_FLASH_CONTROL_REG & (uint8)(~CY_FLASH_CACHE_WS_VALUE_MASK)) |
 665              		.loc 1 550 0
 666 0022 154A     		ldr	r2, .L84
 667 0024 1378     		ldrb	r3, [r2]	@ zero_extendqisi2
 668 0026 03F01F03 		and	r3, r3, #31
 669 002a 43F08003 		orr	r3, r3, #128
 670 002e 1370     		strb	r3, [r2]
 671 0030 1EE0     		b	.L78
 672              	.L79:
 551:Generated_Source\PSoC5/CyFlash.c ****                                     CY_FLASH_CACHE_WS_2_VALUE_MASK;
 552:Generated_Source\PSoC5/CyFlash.c ****     }
 553:Generated_Source\PSoC5/CyFlash.c ****     else if (freq < CY_FLASH_CACHE_WS_3_FREQ_MAX)
 673              		.loc 1 553 0
 674 0032 312C     		cmp	r4, #49
 675 0034 07D8     		bhi	.L80
 554:Generated_Source\PSoC5/CyFlash.c ****     {
 555:Generated_Source\PSoC5/CyFlash.c ****         CY_FLASH_CONTROL_REG = (CY_FLASH_CONTROL_REG & (uint8)(~CY_FLASH_CACHE_WS_VALUE_MASK)) |
 676              		.loc 1 555 0
 677 0036 104A     		ldr	r2, .L84
 678 0038 1378     		ldrb	r3, [r2]	@ zero_extendqisi2
 679 003a 03F01F03 		and	r3, r3, #31
 680 003e 43F0C003 		orr	r3, r3, #192
 681 0042 1370     		strb	r3, [r2]
 682 0044 14E0     		b	.L78
 683              	.L80:
 556:Generated_Source\PSoC5/CyFlash.c ****                                     CY_FLASH_CACHE_WS_3_VALUE_MASK;
 557:Generated_Source\PSoC5/CyFlash.c ****     }
 558:Generated_Source\PSoC5/CyFlash.c **** #if (CY_PSOC5)
 559:Generated_Source\PSoC5/CyFlash.c ****     else if (freq < CY_FLASH_CACHE_WS_4_FREQ_MAX)
 684              		.loc 1 559 0
 685 0046 422C     		cmp	r4, #66
 686 0048 05D8     		bhi	.L81
 560:Generated_Source\PSoC5/CyFlash.c ****     {
 561:Generated_Source\PSoC5/CyFlash.c ****         CY_FLASH_CONTROL_REG = (CY_FLASH_CONTROL_REG & (uint8)(~CY_FLASH_CACHE_WS_VALUE_MASK)) |
 687              		.loc 1 561 0
 688 004a 0B4A     		ldr	r2, .L84
 689 004c 1378     		ldrb	r3, [r2]	@ zero_extendqisi2
 690 004e 03F01F03 		and	r3, r3, #31
 691 0052 1370     		strb	r3, [r2]
 692 0054 0CE0     		b	.L78
 693              	.L81:
 562:Generated_Source\PSoC5/CyFlash.c ****                                     CY_FLASH_CACHE_WS_4_VALUE_MASK;
 563:Generated_Source\PSoC5/CyFlash.c ****     }
 564:Generated_Source\PSoC5/CyFlash.c ****     else if (freq <= CY_FLASH_CACHE_WS_5_FREQ_MAX)
 694              		.loc 1 564 0
 695 0056 532C     		cmp	r4, #83
 696 0058 07D8     		bhi	.L82
 565:Generated_Source\PSoC5/CyFlash.c ****     {
 566:Generated_Source\PSoC5/CyFlash.c ****         CY_FLASH_CONTROL_REG = (CY_FLASH_CONTROL_REG & (uint8)(~CY_FLASH_CACHE_WS_VALUE_MASK)) |
 697              		.loc 1 566 0
 698 005a 074A     		ldr	r2, .L84
 699 005c 1378     		ldrb	r3, [r2]	@ zero_extendqisi2
 700 005e 03F01F03 		and	r3, r3, #31
 701 0062 43F02003 		orr	r3, r3, #32
 702 0066 1370     		strb	r3, [r2]
 703 0068 02E0     		b	.L78
 704              	.L82:
ARM GAS  C:\Users\kelvi\AppData\Local\Temp\cckAlc4a.s 			page 24


 567:Generated_Source\PSoC5/CyFlash.c ****                                     CY_FLASH_CACHE_WS_5_VALUE_MASK;
 568:Generated_Source\PSoC5/CyFlash.c ****     }
 569:Generated_Source\PSoC5/CyFlash.c **** #endif  /* (CY_PSOC5) */
 570:Generated_Source\PSoC5/CyFlash.c ****     else
 571:Generated_Source\PSoC5/CyFlash.c ****     {
 572:Generated_Source\PSoC5/CyFlash.c ****         /* Halt CPU in debug mode if frequency is invalid */
 573:Generated_Source\PSoC5/CyFlash.c ****         CYASSERT(0u != 0u);
 705              		.loc 1 573 0 discriminator 1
 706 006a 0020     		movs	r0, #0
 707 006c FFF7FEFF 		bl	CyHalt
 708              	.LVL71:
 709              	.L78:
 574:Generated_Source\PSoC5/CyFlash.c ****     }
 575:Generated_Source\PSoC5/CyFlash.c **** 
 576:Generated_Source\PSoC5/CyFlash.c ****     /* Restore global interrupt enable state */
 577:Generated_Source\PSoC5/CyFlash.c ****     CyExitCriticalSection(interruptState);
 710              		.loc 1 577 0
 711 0070 2846     		mov	r0, r5
 712 0072 FFF7FEFF 		bl	CyExitCriticalSection
 713              	.LVL72:
 714 0076 38BD     		pop	{r3, r4, r5, pc}
 715              	.LVL73:
 716              	.L85:
 717              		.align	2
 718              	.L84:
 719 0078 00480040 		.word	1073760256
 720              		.cfi_endproc
 721              	.LFE8:
 722              		.size	CyFlash_SetWaitCycles, .-CyFlash_SetWaitCycles
 723              		.section	.text.CyEEPROM_Start,"ax",%progbits
 724              		.align	2
 725              		.global	CyEEPROM_Start
 726              		.thumb
 727              		.thumb_func
 728              		.type	CyEEPROM_Start, %function
 729              	CyEEPROM_Start:
 730              	.LFB9:
 578:Generated_Source\PSoC5/CyFlash.c **** }
 579:Generated_Source\PSoC5/CyFlash.c **** 
 580:Generated_Source\PSoC5/CyFlash.c **** 
 581:Generated_Source\PSoC5/CyFlash.c **** /*******************************************************************************
 582:Generated_Source\PSoC5/CyFlash.c **** * Function Name: CyEEPROM_Start
 583:Generated_Source\PSoC5/CyFlash.c **** ****************************************************************************//**
 584:Generated_Source\PSoC5/CyFlash.c **** *
 585:Generated_Source\PSoC5/CyFlash.c **** *  Enable the EEPROM.
 586:Generated_Source\PSoC5/CyFlash.c **** *
 587:Generated_Source\PSoC5/CyFlash.c **** *******************************************************************************/
 588:Generated_Source\PSoC5/CyFlash.c **** void CyEEPROM_Start(void) 
 589:Generated_Source\PSoC5/CyFlash.c **** {
 731              		.loc 1 589 0
 732              		.cfi_startproc
 733              		@ args = 0, pretend = 0, frame = 0
 734              		@ frame_needed = 0, uses_anonymous_args = 0
 735 0000 08B5     		push	{r3, lr}
 736              		.cfi_def_cfa_offset 8
 737              		.cfi_offset 3, -8
 738              		.cfi_offset 14, -4
ARM GAS  C:\Users\kelvi\AppData\Local\Temp\cckAlc4a.s 			page 25


 590:Generated_Source\PSoC5/CyFlash.c ****     uint8 interruptState;
 591:Generated_Source\PSoC5/CyFlash.c **** 
 592:Generated_Source\PSoC5/CyFlash.c ****     interruptState = CyEnterCriticalSection();
 739              		.loc 1 592 0
 740 0002 FFF7FEFF 		bl	CyEnterCriticalSection
 741              	.LVL74:
 593:Generated_Source\PSoC5/CyFlash.c **** 
 594:Generated_Source\PSoC5/CyFlash.c **** 
 595:Generated_Source\PSoC5/CyFlash.c ****     /***************************************************************************
 596:Generated_Source\PSoC5/CyFlash.c ****     * Enable SPC clock. This also internally enables the 36MHz IMO, since this
 597:Generated_Source\PSoC5/CyFlash.c ****     * is required for the SPC to function.
 598:Generated_Source\PSoC5/CyFlash.c ****     ***************************************************************************/
 599:Generated_Source\PSoC5/CyFlash.c ****     CY_FLASH_PM_ACT_CFG0_REG    |= CY_FLASH_PM_ACT_CFG0_EN_CLK_SPC;
 742              		.loc 1 599 0
 743 0006 0F4A     		ldr	r2, .L89
 744 0008 1378     		ldrb	r3, [r2]	@ zero_extendqisi2
 745 000a 43F00803 		orr	r3, r3, #8
 746 000e 1370     		strb	r3, [r2]
 600:Generated_Source\PSoC5/CyFlash.c ****     CY_FLASH_PM_ALTACT_CFG0_REG |= CY_FLASH_PM_ALTACT_CFG0_EN_CLK_SPC;
 747              		.loc 1 600 0
 748 0010 1032     		adds	r2, r2, #16
 749 0012 1378     		ldrb	r3, [r2]	@ zero_extendqisi2
 750 0014 43F00803 		orr	r3, r3, #8
 751 0018 1370     		strb	r3, [r2]
 601:Generated_Source\PSoC5/CyFlash.c **** 
 602:Generated_Source\PSoC5/CyFlash.c **** 
 603:Generated_Source\PSoC5/CyFlash.c ****     /***************************************************************************
 604:Generated_Source\PSoC5/CyFlash.c ****     * The wake count defines the number of Bus Clock cycles it takes for the
 605:Generated_Source\PSoC5/CyFlash.c ****     * flash or EEPROM to wake up from a low power mode independent of the chip
 606:Generated_Source\PSoC5/CyFlash.c ****     * power mode. Wake up time for these blocks is 5 us.
 607:Generated_Source\PSoC5/CyFlash.c ****     * The granularity of this register is 2 Bus Clock cycles, so a value of 0x1E
 608:Generated_Source\PSoC5/CyFlash.c ****     * (30d) defines the wake up time as 60 cycles of the Bus Clock.
 609:Generated_Source\PSoC5/CyFlash.c ****     * This register needs to be written with a value dependent on the Bus Clock
 610:Generated_Source\PSoC5/CyFlash.c ****     * frequency so that the duration of the cycles is equal to or greater than
 611:Generated_Source\PSoC5/CyFlash.c ****     * the 5 us delay required.
 612:Generated_Source\PSoC5/CyFlash.c ****     ***************************************************************************/
 613:Generated_Source\PSoC5/CyFlash.c ****     CY_FLASH_SPC_FM_EE_WAKE_CNT_REG = CY_FLASH_SPC_FM_EE_WAKE_CNT_80MHZ;
 752              		.loc 1 613 0
 753 001a C822     		movs	r2, #200
 754 001c 0A4B     		ldr	r3, .L89+4
 755 001e 1A70     		strb	r2, [r3]
 614:Generated_Source\PSoC5/CyFlash.c **** 
 615:Generated_Source\PSoC5/CyFlash.c **** 
 616:Generated_Source\PSoC5/CyFlash.c ****     /***************************************************************************
 617:Generated_Source\PSoC5/CyFlash.c ****     * Enable EEPROM. Re-enabling an EEPROM macro takes 5us. During this time,
 618:Generated_Source\PSoC5/CyFlash.c ****     * the EE will not acknowledge a PHUB request.
 619:Generated_Source\PSoC5/CyFlash.c ****     ***************************************************************************/
 620:Generated_Source\PSoC5/CyFlash.c ****     CY_FLASH_PM_ACT_CFG12_REG    |= CY_FLASH_PM_ACT_CFG12_EN_EE;
 756              		.loc 1 620 0
 757 0020 0A4A     		ldr	r2, .L89+8
 758 0022 1378     		ldrb	r3, [r2]	@ zero_extendqisi2
 759 0024 43F01003 		orr	r3, r3, #16
 760 0028 1370     		strb	r3, [r2]
 621:Generated_Source\PSoC5/CyFlash.c ****     CY_FLASH_PM_ALTACT_CFG12_REG |= CY_FLASH_PM_ALTACT_CFG12_EN_EE;
 761              		.loc 1 621 0
 762 002a 1032     		adds	r2, r2, #16
 763 002c 1378     		ldrb	r3, [r2]	@ zero_extendqisi2
ARM GAS  C:\Users\kelvi\AppData\Local\Temp\cckAlc4a.s 			page 26


 764 002e 43F01003 		orr	r3, r3, #16
 765 0032 1370     		strb	r3, [r2]
 766              	.L87:
 622:Generated_Source\PSoC5/CyFlash.c **** 
 623:Generated_Source\PSoC5/CyFlash.c ****     while(0u == (CY_FLASH_SPC_FM_EE_CR_REG & CY_FLASH_EE_EE_AWAKE))
 767              		.loc 1 623 0 discriminator 1
 768 0034 064B     		ldr	r3, .L89+12
 769 0036 1B78     		ldrb	r3, [r3]	@ zero_extendqisi2
 770 0038 13F0200F 		tst	r3, #32
 771 003c FAD0     		beq	.L87
 624:Generated_Source\PSoC5/CyFlash.c ****     {
 625:Generated_Source\PSoC5/CyFlash.c ****         /* Non-zero status denotes that the EEPROM/Flash is awake & powered. */
 626:Generated_Source\PSoC5/CyFlash.c ****     }
 627:Generated_Source\PSoC5/CyFlash.c **** 
 628:Generated_Source\PSoC5/CyFlash.c ****     CyExitCriticalSection(interruptState);
 772              		.loc 1 628 0
 773 003e FFF7FEFF 		bl	CyExitCriticalSection
 774              	.LVL75:
 775 0042 08BD     		pop	{r3, pc}
 776              	.L90:
 777              		.align	2
 778              	.L89:
 779 0044 A0430040 		.word	1073759136
 780 0048 01470040 		.word	1073760001
 781 004c AC430040 		.word	1073759148
 782 0050 00470040 		.word	1073760000
 783              		.cfi_endproc
 784              	.LFE9:
 785              		.size	CyEEPROM_Start, .-CyEEPROM_Start
 786              		.section	.text.CyEEPROM_Stop,"ax",%progbits
 787              		.align	2
 788              		.global	CyEEPROM_Stop
 789              		.thumb
 790              		.thumb_func
 791              		.type	CyEEPROM_Stop, %function
 792              	CyEEPROM_Stop:
 793              	.LFB10:
 629:Generated_Source\PSoC5/CyFlash.c **** }
 630:Generated_Source\PSoC5/CyFlash.c **** 
 631:Generated_Source\PSoC5/CyFlash.c **** 
 632:Generated_Source\PSoC5/CyFlash.c **** /*******************************************************************************
 633:Generated_Source\PSoC5/CyFlash.c **** * Function Name: CyEEPROM_Stop
 634:Generated_Source\PSoC5/CyFlash.c **** ****************************************************************************//**
 635:Generated_Source\PSoC5/CyFlash.c **** *
 636:Generated_Source\PSoC5/CyFlash.c **** *  Disable the EEPROM.
 637:Generated_Source\PSoC5/CyFlash.c **** *
 638:Generated_Source\PSoC5/CyFlash.c **** *******************************************************************************/
 639:Generated_Source\PSoC5/CyFlash.c **** void CyEEPROM_Stop (void) 
 640:Generated_Source\PSoC5/CyFlash.c **** {
 794              		.loc 1 640 0
 795              		.cfi_startproc
 796              		@ args = 0, pretend = 0, frame = 0
 797              		@ frame_needed = 0, uses_anonymous_args = 0
 798 0000 08B5     		push	{r3, lr}
 799              		.cfi_def_cfa_offset 8
 800              		.cfi_offset 3, -8
 801              		.cfi_offset 14, -4
ARM GAS  C:\Users\kelvi\AppData\Local\Temp\cckAlc4a.s 			page 27


 641:Generated_Source\PSoC5/CyFlash.c ****     uint8 interruptState;
 642:Generated_Source\PSoC5/CyFlash.c **** 
 643:Generated_Source\PSoC5/CyFlash.c ****     interruptState = CyEnterCriticalSection();
 802              		.loc 1 643 0
 803 0002 FFF7FEFF 		bl	CyEnterCriticalSection
 804              	.LVL76:
 644:Generated_Source\PSoC5/CyFlash.c **** 
 645:Generated_Source\PSoC5/CyFlash.c ****     CY_FLASH_PM_ACT_CFG12_REG    &= ((uint8)(~CY_FLASH_PM_ACT_CFG12_EN_EE));
 805              		.loc 1 645 0
 806 0006 064A     		ldr	r2, .L93
 807 0008 1378     		ldrb	r3, [r2]	@ zero_extendqisi2
 808 000a 03F0EF03 		and	r3, r3, #239
 809 000e 1370     		strb	r3, [r2]
 646:Generated_Source\PSoC5/CyFlash.c ****     CY_FLASH_PM_ALTACT_CFG12_REG &= ((uint8)(~CY_FLASH_PM_ALTACT_CFG12_EN_EE));
 810              		.loc 1 646 0
 811 0010 1032     		adds	r2, r2, #16
 812 0012 1378     		ldrb	r3, [r2]	@ zero_extendqisi2
 813 0014 03F0EF03 		and	r3, r3, #239
 814 0018 1370     		strb	r3, [r2]
 647:Generated_Source\PSoC5/CyFlash.c **** 
 648:Generated_Source\PSoC5/CyFlash.c ****     CyExitCriticalSection(interruptState);
 815              		.loc 1 648 0
 816 001a FFF7FEFF 		bl	CyExitCriticalSection
 817              	.LVL77:
 818 001e 08BD     		pop	{r3, pc}
 819              	.L94:
 820              		.align	2
 821              	.L93:
 822 0020 AC430040 		.word	1073759148
 823              		.cfi_endproc
 824              	.LFE10:
 825              		.size	CyEEPROM_Stop, .-CyEEPROM_Stop
 826              		.section	.text.CyEEPROM_ReadReserve,"ax",%progbits
 827              		.align	2
 828              		.global	CyEEPROM_ReadReserve
 829              		.thumb
 830              		.thumb_func
 831              		.type	CyEEPROM_ReadReserve, %function
 832              	CyEEPROM_ReadReserve:
 833              	.LFB11:
 649:Generated_Source\PSoC5/CyFlash.c **** }
 650:Generated_Source\PSoC5/CyFlash.c **** 
 651:Generated_Source\PSoC5/CyFlash.c **** 
 652:Generated_Source\PSoC5/CyFlash.c **** /*******************************************************************************
 653:Generated_Source\PSoC5/CyFlash.c **** * Function Name: CyEEPROM_ReadReserve
 654:Generated_Source\PSoC5/CyFlash.c **** ****************************************************************************//**
 655:Generated_Source\PSoC5/CyFlash.c **** *
 656:Generated_Source\PSoC5/CyFlash.c **** *  Request access to the EEPROM for reading and wait until access is available.
 657:Generated_Source\PSoC5/CyFlash.c **** *
 658:Generated_Source\PSoC5/CyFlash.c **** *******************************************************************************/
 659:Generated_Source\PSoC5/CyFlash.c **** void CyEEPROM_ReadReserve(void) 
 660:Generated_Source\PSoC5/CyFlash.c **** {
 834              		.loc 1 660 0
 835              		.cfi_startproc
 836              		@ args = 0, pretend = 0, frame = 0
 837              		@ frame_needed = 0, uses_anonymous_args = 0
 838              		@ link register save eliminated.
ARM GAS  C:\Users\kelvi\AppData\Local\Temp\cckAlc4a.s 			page 28


 661:Generated_Source\PSoC5/CyFlash.c ****     /* Make request for PHUB to have access */
 662:Generated_Source\PSoC5/CyFlash.c ****     CY_FLASH_EE_SCR_REG |= CY_FLASH_EE_SCR_AHB_EE_REQ;
 839              		.loc 1 662 0
 840 0000 054A     		ldr	r2, .L97
 841 0002 1378     		ldrb	r3, [r2]	@ zero_extendqisi2
 842 0004 43F00103 		orr	r3, r3, #1
 843 0008 1370     		strb	r3, [r2]
 844              	.L96:
 663:Generated_Source\PSoC5/CyFlash.c **** 
 664:Generated_Source\PSoC5/CyFlash.c ****     while (0u == (CY_FLASH_EE_SCR_REG & CY_FLASH_EE_SCR_AHB_EE_ACK))
 845              		.loc 1 664 0 discriminator 1
 846 000a 034B     		ldr	r3, .L97
 847 000c 1B78     		ldrb	r3, [r3]	@ zero_extendqisi2
 848 000e 13F0020F 		tst	r3, #2
 849 0012 FAD0     		beq	.L96
 665:Generated_Source\PSoC5/CyFlash.c ****     {
 666:Generated_Source\PSoC5/CyFlash.c ****         /* Wait for acknowledgment from PHUB */
 667:Generated_Source\PSoC5/CyFlash.c ****     }
 668:Generated_Source\PSoC5/CyFlash.c **** }
 850              		.loc 1 668 0
 851 0014 7047     		bx	lr
 852              	.L98:
 853 0016 00BF     		.align	2
 854              	.L97:
 855 0018 02470040 		.word	1073760002
 856              		.cfi_endproc
 857              	.LFE11:
 858              		.size	CyEEPROM_ReadReserve, .-CyEEPROM_ReadReserve
 859              		.section	.text.CyEEPROM_ReadRelease,"ax",%progbits
 860              		.align	2
 861              		.global	CyEEPROM_ReadRelease
 862              		.thumb
 863              		.thumb_func
 864              		.type	CyEEPROM_ReadRelease, %function
 865              	CyEEPROM_ReadRelease:
 866              	.LFB12:
 669:Generated_Source\PSoC5/CyFlash.c **** 
 670:Generated_Source\PSoC5/CyFlash.c **** 
 671:Generated_Source\PSoC5/CyFlash.c **** /*******************************************************************************
 672:Generated_Source\PSoC5/CyFlash.c **** * Function Name: CyEEPROM_ReadRelease
 673:Generated_Source\PSoC5/CyFlash.c **** ****************************************************************************//**
 674:Generated_Source\PSoC5/CyFlash.c **** *
 675:Generated_Source\PSoC5/CyFlash.c **** *  Release the read reservation of the EEPROM.
 676:Generated_Source\PSoC5/CyFlash.c **** *
 677:Generated_Source\PSoC5/CyFlash.c **** *******************************************************************************/
 678:Generated_Source\PSoC5/CyFlash.c **** void CyEEPROM_ReadRelease(void) 
 679:Generated_Source\PSoC5/CyFlash.c **** {
 867              		.loc 1 679 0
 868              		.cfi_startproc
 869              		@ args = 0, pretend = 0, frame = 0
 870              		@ frame_needed = 0, uses_anonymous_args = 0
 871              		@ link register save eliminated.
 680:Generated_Source\PSoC5/CyFlash.c ****     CY_FLASH_EE_SCR_REG &= (uint8)(~CY_FLASH_EE_SCR_AHB_EE_REQ);
 872              		.loc 1 680 0
 873 0000 024A     		ldr	r2, .L100
 874 0002 1378     		ldrb	r3, [r2]	@ zero_extendqisi2
 875 0004 03F0FE03 		and	r3, r3, #254
ARM GAS  C:\Users\kelvi\AppData\Local\Temp\cckAlc4a.s 			page 29


 876 0008 1370     		strb	r3, [r2]
 877 000a 7047     		bx	lr
 878              	.L101:
 879              		.align	2
 880              	.L100:
 881 000c 02470040 		.word	1073760002
 882              		.cfi_endproc
 883              	.LFE12:
 884              		.size	CyEEPROM_ReadRelease, .-CyEEPROM_ReadRelease
 885              		.comm	dieTemperature,2,4
 886              		.bss
 887              		.align	2
 888              		.set	.LANCHOR0,. + 0
 889              		.type	rowBuffer, %object
 890              		.size	rowBuffer, 4
 891              	rowBuffer:
 892 0000 00000000 		.space	4
 893              		.text
 894              	.Letext0:
 895              		.file 2 "Generated_Source\\PSoC5\\cytypes.h"
 896              		.file 3 "Generated_Source\\PSoC5\\CySpc.h"
 897              		.file 4 "Generated_Source\\PSoC5\\CyLib.h"
