ARM GAS  C:\Users\kelvi\AppData\Local\Temp\ccmkFj2H.s 			page 1


   1              		.syntax unified
   2              		.cpu cortex-m3
   3              		.fpu softvfp
   4              		.eabi_attribute 20, 1
   5              		.eabi_attribute 21, 1
   6              		.eabi_attribute 23, 3
   7              		.eabi_attribute 24, 1
   8              		.eabi_attribute 25, 1
   9              		.eabi_attribute 26, 1
  10              		.eabi_attribute 30, 1
  11              		.eabi_attribute 34, 1
  12              		.eabi_attribute 18, 4
  13              		.thumb
  14              		.file	"CySpc.c"
  15              		.text
  16              	.Ltext0:
  17              		.cfi_sections	.debug_frame
  18              		.section	.text.CySpcStart,"ax",%progbits
  19              		.align	2
  20              		.global	CySpcStart
  21              		.thumb
  22              		.thumb_func
  23              		.type	CySpcStart, %function
  24              	CySpcStart:
  25              	.LFB0:
  26              		.file 1 "Generated_Source\\PSoC5\\CySpc.c"
   1:Generated_Source\PSoC5/CySpc.c **** /***************************************************************************//**
   2:Generated_Source\PSoC5/CySpc.c **** * \file CySpc.c
   3:Generated_Source\PSoC5/CySpc.c **** * \version 5.50
   4:Generated_Source\PSoC5/CySpc.c **** *
   5:Generated_Source\PSoC5/CySpc.c **** * \brief Provides an API for the System Performance Component.
   6:Generated_Source\PSoC5/CySpc.c **** * The SPC functions are not meant to be called directly by the user
   7:Generated_Source\PSoC5/CySpc.c **** * application.
   8:Generated_Source\PSoC5/CySpc.c **** *
   9:Generated_Source\PSoC5/CySpc.c **** ********************************************************************************
  10:Generated_Source\PSoC5/CySpc.c **** * \copyright
  11:Generated_Source\PSoC5/CySpc.c **** * Copyright 2008-2016, Cypress Semiconductor Corporation.  All rights reserved.
  12:Generated_Source\PSoC5/CySpc.c **** * You may use this file only in accordance with the license, terms, conditions,
  13:Generated_Source\PSoC5/CySpc.c **** * disclaimers, and limitations in the end user license agreement accompanying
  14:Generated_Source\PSoC5/CySpc.c **** * the software package with which this file was provided.
  15:Generated_Source\PSoC5/CySpc.c **** *******************************************************************************/
  16:Generated_Source\PSoC5/CySpc.c **** 
  17:Generated_Source\PSoC5/CySpc.c **** #include "CySpc.h"
  18:Generated_Source\PSoC5/CySpc.c **** 
  19:Generated_Source\PSoC5/CySpc.c **** #define CY_SPC_KEY_ONE                      (0xB6u)
  20:Generated_Source\PSoC5/CySpc.c **** #define CY_SPC_KEY_TWO(x)                   ((uint8) (((uint16) 0xD3u) + ((uint16) (x))))
  21:Generated_Source\PSoC5/CySpc.c **** 
  22:Generated_Source\PSoC5/CySpc.c **** /* Command Codes */
  23:Generated_Source\PSoC5/CySpc.c **** #define CY_SPC_CMD_LD_BYTE                  (0x00u)
  24:Generated_Source\PSoC5/CySpc.c **** #define CY_SPC_CMD_LD_MULTI_BYTE            (0x01u)
  25:Generated_Source\PSoC5/CySpc.c **** #define CY_SPC_CMD_LD_ROW                   (0x02u)
  26:Generated_Source\PSoC5/CySpc.c **** #define CY_SPC_CMD_RD_BYTE                  (0x03u)
  27:Generated_Source\PSoC5/CySpc.c **** #define CY_SPC_CMD_RD_MULTI_BYTE            (0x04u)
  28:Generated_Source\PSoC5/CySpc.c **** #define CY_SPC_CMD_WR_ROW                   (0x05u)
  29:Generated_Source\PSoC5/CySpc.c **** #define CY_SPC_CMD_WR_USER_NVL              (0x06u)
  30:Generated_Source\PSoC5/CySpc.c **** #define CY_SPC_CMD_PRG_ROW                  (0x07u)
  31:Generated_Source\PSoC5/CySpc.c **** #define CY_SPC_CMD_ER_SECTOR                (0x08u)
ARM GAS  C:\Users\kelvi\AppData\Local\Temp\ccmkFj2H.s 			page 2


  32:Generated_Source\PSoC5/CySpc.c **** #define CY_SPC_CMD_ER_ALL                   (0x09u)
  33:Generated_Source\PSoC5/CySpc.c **** #define CY_SPC_CMD_RD_HIDDEN                (0x0Au)
  34:Generated_Source\PSoC5/CySpc.c **** #define CY_SPC_CMD_PRG_PROTECT              (0x0Bu)
  35:Generated_Source\PSoC5/CySpc.c **** #define CY_SPC_CMD_CHECKSUM                 (0x0Cu)
  36:Generated_Source\PSoC5/CySpc.c **** #define CY_SPC_CMD_DWNLD_ALGORITHM          (0x0Du)
  37:Generated_Source\PSoC5/CySpc.c **** #define CY_SPC_CMD_GET_TEMP                 (0x0Eu)
  38:Generated_Source\PSoC5/CySpc.c **** #define CY_SPC_CMD_GET_ADC                  (0x0Fu)
  39:Generated_Source\PSoC5/CySpc.c **** #define CY_SPC_CMD_RD_NVL_VOLATILE          (0x10u)
  40:Generated_Source\PSoC5/CySpc.c **** #define CY_SPC_CMD_SETUP_TS                 (0x11u)
  41:Generated_Source\PSoC5/CySpc.c **** #define CY_SPC_CMD_DISABLE_TS               (0x12u)
  42:Generated_Source\PSoC5/CySpc.c **** #define CY_SPC_CMD_ER_ROW                   (0x13u)
  43:Generated_Source\PSoC5/CySpc.c **** 
  44:Generated_Source\PSoC5/CySpc.c **** /* Enable bit in Active and Alternate Active mode templates */
  45:Generated_Source\PSoC5/CySpc.c **** #define PM_SPC_PM_EN                        (0x08u)
  46:Generated_Source\PSoC5/CySpc.c **** 
  47:Generated_Source\PSoC5/CySpc.c **** /* Gate calls to the SPC. */
  48:Generated_Source\PSoC5/CySpc.c **** uint8 SpcLockState = CY_SPC_UNLOCKED;
  49:Generated_Source\PSoC5/CySpc.c **** 
  50:Generated_Source\PSoC5/CySpc.c **** 
  51:Generated_Source\PSoC5/CySpc.c **** #if(CY_PSOC5)
  52:Generated_Source\PSoC5/CySpc.c **** 
  53:Generated_Source\PSoC5/CySpc.c ****     /***************************************************************************
  54:Generated_Source\PSoC5/CySpc.c ****     * The wait-state pipeline must be enabled prior to accessing the SPC
  55:Generated_Source\PSoC5/CySpc.c ****     * register interface regardless of CPU frequency. The CySpcLock() saves
  56:Generated_Source\PSoC5/CySpc.c ****     * current wait-state pipeline state and enables it. The CySpcUnlock()
  57:Generated_Source\PSoC5/CySpc.c ****     * function, which must be called after SPC transaction, restores original
  58:Generated_Source\PSoC5/CySpc.c ****     * state.
  59:Generated_Source\PSoC5/CySpc.c ****     ***************************************************************************/
  60:Generated_Source\PSoC5/CySpc.c ****     static uint32 spcWaitPipeBypass = 0u;
  61:Generated_Source\PSoC5/CySpc.c **** 
  62:Generated_Source\PSoC5/CySpc.c **** #endif  /* (CY_PSOC5) */
  63:Generated_Source\PSoC5/CySpc.c **** 
  64:Generated_Source\PSoC5/CySpc.c **** 
  65:Generated_Source\PSoC5/CySpc.c **** /*******************************************************************************
  66:Generated_Source\PSoC5/CySpc.c **** * Function Name: CySpcStart
  67:Generated_Source\PSoC5/CySpc.c **** ****************************************************************************//**
  68:Generated_Source\PSoC5/CySpc.c **** *  Starts the SPC.
  69:Generated_Source\PSoC5/CySpc.c **** *
  70:Generated_Source\PSoC5/CySpc.c **** *******************************************************************************/
  71:Generated_Source\PSoC5/CySpc.c **** void CySpcStart(void) 
  72:Generated_Source\PSoC5/CySpc.c **** {
  27              		.loc 1 72 0
  28              		.cfi_startproc
  29              		@ args = 0, pretend = 0, frame = 0
  30              		@ frame_needed = 0, uses_anonymous_args = 0
  31 0000 08B5     		push	{r3, lr}
  32              		.cfi_def_cfa_offset 8
  33              		.cfi_offset 3, -8
  34              		.cfi_offset 14, -4
  73:Generated_Source\PSoC5/CySpc.c ****     /* Save current global interrupt enable and disable it */
  74:Generated_Source\PSoC5/CySpc.c ****     uint8 interruptState = CyEnterCriticalSection();
  35              		.loc 1 74 0
  36 0002 FFF7FEFF 		bl	CyEnterCriticalSection
  37              	.LVL0:
  75:Generated_Source\PSoC5/CySpc.c **** 
  76:Generated_Source\PSoC5/CySpc.c ****     CY_SPC_PM_ACT_REG  |= PM_SPC_PM_EN;
  38              		.loc 1 76 0
ARM GAS  C:\Users\kelvi\AppData\Local\Temp\ccmkFj2H.s 			page 3


  39 0006 064A     		ldr	r2, .L3
  40 0008 1378     		ldrb	r3, [r2]	@ zero_extendqisi2
  41 000a 43F00803 		orr	r3, r3, #8
  42 000e 1370     		strb	r3, [r2]
  77:Generated_Source\PSoC5/CySpc.c ****     CY_SPC_PM_STBY_REG |= PM_SPC_PM_EN;
  43              		.loc 1 77 0
  44 0010 1032     		adds	r2, r2, #16
  45 0012 1378     		ldrb	r3, [r2]	@ zero_extendqisi2
  46 0014 43F00803 		orr	r3, r3, #8
  47 0018 1370     		strb	r3, [r2]
  78:Generated_Source\PSoC5/CySpc.c **** 
  79:Generated_Source\PSoC5/CySpc.c ****     /* Restore global interrupt enable state */
  80:Generated_Source\PSoC5/CySpc.c ****     CyExitCriticalSection(interruptState);
  48              		.loc 1 80 0
  49 001a FFF7FEFF 		bl	CyExitCriticalSection
  50              	.LVL1:
  51 001e 08BD     		pop	{r3, pc}
  52              	.L4:
  53              		.align	2
  54              	.L3:
  55 0020 A0430040 		.word	1073759136
  56              		.cfi_endproc
  57              	.LFE0:
  58              		.size	CySpcStart, .-CySpcStart
  59              		.section	.text.CySpcStop,"ax",%progbits
  60              		.align	2
  61              		.global	CySpcStop
  62              		.thumb
  63              		.thumb_func
  64              		.type	CySpcStop, %function
  65              	CySpcStop:
  66              	.LFB1:
  81:Generated_Source\PSoC5/CySpc.c **** }
  82:Generated_Source\PSoC5/CySpc.c **** 
  83:Generated_Source\PSoC5/CySpc.c **** 
  84:Generated_Source\PSoC5/CySpc.c **** /*******************************************************************************
  85:Generated_Source\PSoC5/CySpc.c **** * Function Name: CySpcStop
  86:Generated_Source\PSoC5/CySpc.c **** ****************************************************************************//**
  87:Generated_Source\PSoC5/CySpc.c **** *  Stops the SPC.
  88:Generated_Source\PSoC5/CySpc.c **** *
  89:Generated_Source\PSoC5/CySpc.c **** *******************************************************************************/
  90:Generated_Source\PSoC5/CySpc.c **** void CySpcStop(void) 
  91:Generated_Source\PSoC5/CySpc.c **** {
  67              		.loc 1 91 0
  68              		.cfi_startproc
  69              		@ args = 0, pretend = 0, frame = 0
  70              		@ frame_needed = 0, uses_anonymous_args = 0
  71 0000 08B5     		push	{r3, lr}
  72              		.cfi_def_cfa_offset 8
  73              		.cfi_offset 3, -8
  74              		.cfi_offset 14, -4
  92:Generated_Source\PSoC5/CySpc.c ****     /* Save current global interrupt enable and disable it */
  93:Generated_Source\PSoC5/CySpc.c ****     uint8 interruptState = CyEnterCriticalSection();
  75              		.loc 1 93 0
  76 0002 FFF7FEFF 		bl	CyEnterCriticalSection
  77              	.LVL2:
  94:Generated_Source\PSoC5/CySpc.c **** 
ARM GAS  C:\Users\kelvi\AppData\Local\Temp\ccmkFj2H.s 			page 4


  95:Generated_Source\PSoC5/CySpc.c ****     CY_SPC_PM_ACT_REG  &= ((uint8)(~PM_SPC_PM_EN));
  78              		.loc 1 95 0
  79 0006 064A     		ldr	r2, .L7
  80 0008 1378     		ldrb	r3, [r2]	@ zero_extendqisi2
  81 000a 03F0F703 		and	r3, r3, #247
  82 000e 1370     		strb	r3, [r2]
  96:Generated_Source\PSoC5/CySpc.c ****     CY_SPC_PM_STBY_REG &= ((uint8)(~PM_SPC_PM_EN));
  83              		.loc 1 96 0
  84 0010 1032     		adds	r2, r2, #16
  85 0012 1378     		ldrb	r3, [r2]	@ zero_extendqisi2
  86 0014 03F0F703 		and	r3, r3, #247
  87 0018 1370     		strb	r3, [r2]
  97:Generated_Source\PSoC5/CySpc.c **** 
  98:Generated_Source\PSoC5/CySpc.c ****     /* Restore global interrupt enable state */
  99:Generated_Source\PSoC5/CySpc.c ****     CyExitCriticalSection(interruptState);
  88              		.loc 1 99 0
  89 001a FFF7FEFF 		bl	CyExitCriticalSection
  90              	.LVL3:
  91 001e 08BD     		pop	{r3, pc}
  92              	.L8:
  93              		.align	2
  94              	.L7:
  95 0020 A0430040 		.word	1073759136
  96              		.cfi_endproc
  97              	.LFE1:
  98              		.size	CySpcStop, .-CySpcStop
  99              		.section	.text.CySpcReadData,"ax",%progbits
 100              		.align	2
 101              		.global	CySpcReadData
 102              		.thumb
 103              		.thumb_func
 104              		.type	CySpcReadData, %function
 105              	CySpcReadData:
 106              	.LFB2:
 100:Generated_Source\PSoC5/CySpc.c **** }
 101:Generated_Source\PSoC5/CySpc.c **** 
 102:Generated_Source\PSoC5/CySpc.c **** 
 103:Generated_Source\PSoC5/CySpc.c **** /*******************************************************************************
 104:Generated_Source\PSoC5/CySpc.c **** * Function Name: CySpcReadData
 105:Generated_Source\PSoC5/CySpc.c **** ****************************************************************************//**
 106:Generated_Source\PSoC5/CySpc.c **** *  Reads data from the SPC.
 107:Generated_Source\PSoC5/CySpc.c **** *
 108:Generated_Source\PSoC5/CySpc.c **** *  \param uint8 buffer:
 109:Generated_Source\PSoC5/CySpc.c **** *   Address to store data read.
 110:Generated_Source\PSoC5/CySpc.c **** *
 111:Generated_Source\PSoC5/CySpc.c **** *  \param uint8 size:
 112:Generated_Source\PSoC5/CySpc.c **** *   Number of bytes to read from the SPC.
 113:Generated_Source\PSoC5/CySpc.c **** *
 114:Generated_Source\PSoC5/CySpc.c **** * \return
 115:Generated_Source\PSoC5/CySpc.c **** *  uint8:
 116:Generated_Source\PSoC5/CySpc.c **** *   The number of bytes read from the SPC.
 117:Generated_Source\PSoC5/CySpc.c **** *
 118:Generated_Source\PSoC5/CySpc.c **** *******************************************************************************/
 119:Generated_Source\PSoC5/CySpc.c **** uint8 CySpcReadData(uint8 buffer[], uint8 size) 
 120:Generated_Source\PSoC5/CySpc.c **** {
 107              		.loc 1 120 0
 108              		.cfi_startproc
ARM GAS  C:\Users\kelvi\AppData\Local\Temp\ccmkFj2H.s 			page 5


 109              		@ args = 0, pretend = 0, frame = 0
 110              		@ frame_needed = 0, uses_anonymous_args = 0
 111              	.LVL4:
 112 0000 70B5     		push	{r4, r5, r6, lr}
 113              		.cfi_def_cfa_offset 16
 114              		.cfi_offset 4, -16
 115              		.cfi_offset 5, -12
 116              		.cfi_offset 6, -8
 117              		.cfi_offset 14, -4
 118 0002 0646     		mov	r6, r0
 119 0004 0D46     		mov	r5, r1
 120              	.LVL5:
 121:Generated_Source\PSoC5/CySpc.c ****     uint8 i;
 122:Generated_Source\PSoC5/CySpc.c **** 
 123:Generated_Source\PSoC5/CySpc.c ****     for(i = 0u; i < size; i++)
 121              		.loc 1 123 0
 122 0006 0024     		movs	r4, #0
 123 0008 0CE0     		b	.L10
 124              	.LVL6:
 125              	.L11:
 124:Generated_Source\PSoC5/CySpc.c ****     {
 125:Generated_Source\PSoC5/CySpc.c ****         while(!CY_SPC_DATA_READY)
 126:Generated_Source\PSoC5/CySpc.c ****         {
 127:Generated_Source\PSoC5/CySpc.c ****             CyDelayUs(1u);
 126              		.loc 1 127 0
 127 000a 0120     		movs	r0, #1
 128 000c FFF7FEFF 		bl	CyDelayUs
 129              	.LVL7:
 130              	.L12:
 125:Generated_Source\PSoC5/CySpc.c ****         {
 131              		.loc 1 125 0
 132 0010 064B     		ldr	r3, .L14
 133 0012 1B78     		ldrb	r3, [r3]	@ zero_extendqisi2
 134 0014 13F0010F 		tst	r3, #1
 135 0018 F7D0     		beq	.L11
 128:Generated_Source\PSoC5/CySpc.c ****         }
 129:Generated_Source\PSoC5/CySpc.c ****         buffer[i] = CY_SPC_CPU_DATA_REG;
 136              		.loc 1 129 0 discriminator 2
 137 001a 054B     		ldr	r3, .L14+4
 138 001c 1B78     		ldrb	r3, [r3]	@ zero_extendqisi2
 139 001e 3355     		strb	r3, [r6, r4]
 123:Generated_Source\PSoC5/CySpc.c ****     {
 140              		.loc 1 123 0 discriminator 2
 141 0020 0134     		adds	r4, r4, #1
 142              	.LVL8:
 143 0022 E4B2     		uxtb	r4, r4
 144              	.LVL9:
 145              	.L10:
 123:Generated_Source\PSoC5/CySpc.c ****     {
 146              		.loc 1 123 0 is_stmt 0 discriminator 1
 147 0024 AC42     		cmp	r4, r5
 148 0026 F3D3     		bcc	.L12
 130:Generated_Source\PSoC5/CySpc.c ****     }
 131:Generated_Source\PSoC5/CySpc.c **** 
 132:Generated_Source\PSoC5/CySpc.c ****     return(i);
 133:Generated_Source\PSoC5/CySpc.c **** }
 149              		.loc 1 133 0 is_stmt 1
ARM GAS  C:\Users\kelvi\AppData\Local\Temp\ccmkFj2H.s 			page 6


 150 0028 2046     		mov	r0, r4
 151 002a 70BD     		pop	{r4, r5, r6, pc}
 152              	.LVL10:
 153              	.L15:
 154              		.align	2
 155              	.L14:
 156 002c 22470040 		.word	1073760034
 157 0030 20470040 		.word	1073760032
 158              		.cfi_endproc
 159              	.LFE2:
 160              		.size	CySpcReadData, .-CySpcReadData
 161              		.section	.text.CySpcLoadMultiByte,"ax",%progbits
 162              		.align	2
 163              		.global	CySpcLoadMultiByte
 164              		.thumb
 165              		.thumb_func
 166              		.type	CySpcLoadMultiByte, %function
 167              	CySpcLoadMultiByte:
 168              	.LFB3:
 134:Generated_Source\PSoC5/CySpc.c **** 
 135:Generated_Source\PSoC5/CySpc.c **** 
 136:Generated_Source\PSoC5/CySpc.c **** /*******************************************************************************
 137:Generated_Source\PSoC5/CySpc.c **** * Function Name: CySpcLoadMultiByte
 138:Generated_Source\PSoC5/CySpc.c **** ****************************************************************************//**
 139:Generated_Source\PSoC5/CySpc.c **** *  Loads 1 to 32 bytes of data into the row latch of a Flash/EEPROM array.
 140:Generated_Source\PSoC5/CySpc.c **** *
 141:Generated_Source\PSoC5/CySpc.c **** *  \param uint8 array:
 142:Generated_Source\PSoC5/CySpc.c **** *   Id of the array.
 143:Generated_Source\PSoC5/CySpc.c **** *
 144:Generated_Source\PSoC5/CySpc.c **** *  \param uint16 address:
 145:Generated_Source\PSoC5/CySpc.c **** *   Flash/eeprom addrress
 146:Generated_Source\PSoC5/CySpc.c **** *
 147:Generated_Source\PSoC5/CySpc.c **** *  \param uint8* buffer:
 148:Generated_Source\PSoC5/CySpc.c **** *   Data to load to the row latch
 149:Generated_Source\PSoC5/CySpc.c **** *
 150:Generated_Source\PSoC5/CySpc.c **** *  \param uint16 number:
 151:Generated_Source\PSoC5/CySpc.c **** *   Number bytes to load.
 152:Generated_Source\PSoC5/CySpc.c **** *
 153:Generated_Source\PSoC5/CySpc.c **** * \return
 154:Generated_Source\PSoC5/CySpc.c **** *  CYRET_STARTED
 155:Generated_Source\PSoC5/CySpc.c **** *  CYRET_CANCELED
 156:Generated_Source\PSoC5/CySpc.c **** *  CYRET_LOCKED
 157:Generated_Source\PSoC5/CySpc.c **** *  CYRET_BAD_PARAM
 158:Generated_Source\PSoC5/CySpc.c **** *
 159:Generated_Source\PSoC5/CySpc.c **** *******************************************************************************/
 160:Generated_Source\PSoC5/CySpc.c **** cystatus CySpcLoadMultiByte(uint8 array, uint16 address, const uint8 buffer[], uint8 size)\
 161:Generated_Source\PSoC5/CySpc.c **** 
 162:Generated_Source\PSoC5/CySpc.c **** {
 169              		.loc 1 162 0
 170              		.cfi_startproc
 171              		@ args = 0, pretend = 0, frame = 0
 172              		@ frame_needed = 0, uses_anonymous_args = 0
 173              		@ link register save eliminated.
 174              	.LVL11:
 175 0000 30B4     		push	{r4, r5}
 176              		.cfi_def_cfa_offset 8
 177              		.cfi_offset 4, -8
ARM GAS  C:\Users\kelvi\AppData\Local\Temp\ccmkFj2H.s 			page 7


 178              		.cfi_offset 5, -4
 179              	.LVL12:
 163:Generated_Source\PSoC5/CySpc.c ****     cystatus status = CYRET_STARTED;
 164:Generated_Source\PSoC5/CySpc.c ****     uint8 i;
 165:Generated_Source\PSoC5/CySpc.c **** 
 166:Generated_Source\PSoC5/CySpc.c ****     /***************************************************************************
 167:Generated_Source\PSoC5/CySpc.c ****     * Check if number is correct for array. Number must be less than
 168:Generated_Source\PSoC5/CySpc.c ****     * 32 for Flash or less than 16 for EEPROM.
 169:Generated_Source\PSoC5/CySpc.c ****     ***************************************************************************/
 170:Generated_Source\PSoC5/CySpc.c ****     if(((array < CY_SPC_LAST_FLASH_ARRAYID) && (size < 32u)) ||
 180              		.loc 1 170 0
 181 0002 3E28     		cmp	r0, #62
 182 0004 01D8     		bhi	.L17
 183              		.loc 1 170 0 is_stmt 0 discriminator 1
 184 0006 1F2B     		cmp	r3, #31
 185 0008 03D9     		bls	.L18
 186              	.L17:
 187              		.loc 1 170 0 discriminator 3
 188 000a 3F28     		cmp	r0, #63
 189 000c 27D9     		bls	.L22
 171:Generated_Source\PSoC5/CySpc.c ****        ((array > CY_SPC_LAST_FLASH_ARRAYID) && (size < 16u)))
 190              		.loc 1 171 0 is_stmt 1
 191 000e 0F2B     		cmp	r3, #15
 192 0010 27D8     		bhi	.L23
 193              	.L18:
 172:Generated_Source\PSoC5/CySpc.c ****     {
 173:Generated_Source\PSoC5/CySpc.c ****         if(CY_SPC_IDLE)
 194              		.loc 1 173 0
 195 0012 174C     		ldr	r4, .L27
 196 0014 2478     		ldrb	r4, [r4]	@ zero_extendqisi2
 197 0016 14F0020F 		tst	r4, #2
 198 001a 24D0     		beq	.L24
 174:Generated_Source\PSoC5/CySpc.c ****         {
 175:Generated_Source\PSoC5/CySpc.c ****             CY_SPC_CPU_DATA_REG = CY_SPC_KEY_ONE;
 199              		.loc 1 175 0
 200 001c 154C     		ldr	r4, .L27+4
 201 001e B625     		movs	r5, #182
 202 0020 2570     		strb	r5, [r4]
 176:Generated_Source\PSoC5/CySpc.c ****             CY_SPC_CPU_DATA_REG = CY_SPC_KEY_TWO(CY_SPC_CMD_LD_MULTI_BYTE);
 203              		.loc 1 176 0
 204 0022 D425     		movs	r5, #212
 205 0024 2570     		strb	r5, [r4]
 177:Generated_Source\PSoC5/CySpc.c ****             CY_SPC_CPU_DATA_REG = CY_SPC_CMD_LD_MULTI_BYTE;
 206              		.loc 1 177 0
 207 0026 0125     		movs	r5, #1
 208 0028 2570     		strb	r5, [r4]
 178:Generated_Source\PSoC5/CySpc.c **** 
 179:Generated_Source\PSoC5/CySpc.c ****             if(CY_SPC_BUSY)
 209              		.loc 1 179 0
 210 002a 0234     		adds	r4, r4, #2
 211 002c 2478     		ldrb	r4, [r4]	@ zero_extendqisi2
 212 002e 14F0020F 		tst	r4, #2
 213 0032 1AD1     		bne	.L25
 180:Generated_Source\PSoC5/CySpc.c ****             {
 181:Generated_Source\PSoC5/CySpc.c ****                 CY_SPC_CPU_DATA_REG = array;
 214              		.loc 1 181 0
 215 0034 0F4C     		ldr	r4, .L27+4
ARM GAS  C:\Users\kelvi\AppData\Local\Temp\ccmkFj2H.s 			page 8


 216 0036 2070     		strb	r0, [r4]
 182:Generated_Source\PSoC5/CySpc.c ****                 CY_SPC_CPU_DATA_REG = 1u & HI8(address);
 217              		.loc 1 182 0
 218 0038 C1F30020 		ubfx	r0, r1, #8, #1
 219              	.LVL13:
 220 003c 2070     		strb	r0, [r4]
 221              	.LVL14:
 183:Generated_Source\PSoC5/CySpc.c ****                 CY_SPC_CPU_DATA_REG = LO8(address);
 222              		.loc 1 183 0
 223 003e C9B2     		uxtb	r1, r1
 224              	.LVL15:
 225 0040 2170     		strb	r1, [r4]
 184:Generated_Source\PSoC5/CySpc.c ****                 CY_SPC_CPU_DATA_REG = ((uint8)(size - 1u));
 226              		.loc 1 184 0
 227 0042 591E     		subs	r1, r3, #1
 228 0044 C9B2     		uxtb	r1, r1
 229 0046 2170     		strb	r1, [r4]
 230              	.LVL16:
 185:Generated_Source\PSoC5/CySpc.c **** 
 186:Generated_Source\PSoC5/CySpc.c ****                 for(i = 0u; i < size; i++)
 231              		.loc 1 186 0
 232 0048 0021     		movs	r1, #0
 233 004a 04E0     		b	.L20
 234              	.LVL17:
 235              	.L21:
 187:Generated_Source\PSoC5/CySpc.c ****                 {
 188:Generated_Source\PSoC5/CySpc.c ****                     CY_SPC_CPU_DATA_REG = buffer[i];
 236              		.loc 1 188 0 discriminator 3
 237 004c 545C     		ldrb	r4, [r2, r1]	@ zero_extendqisi2
 238 004e 0948     		ldr	r0, .L27+4
 239 0050 0470     		strb	r4, [r0]
 186:Generated_Source\PSoC5/CySpc.c ****                 {
 240              		.loc 1 186 0 discriminator 3
 241 0052 0131     		adds	r1, r1, #1
 242              	.LVL18:
 243 0054 C9B2     		uxtb	r1, r1
 244              	.LVL19:
 245              	.L20:
 186:Generated_Source\PSoC5/CySpc.c ****                 {
 246              		.loc 1 186 0 is_stmt 0 discriminator 1
 247 0056 9942     		cmp	r1, r3
 248 0058 F8D3     		bcc	.L21
 163:Generated_Source\PSoC5/CySpc.c ****     uint8 i;
 249              		.loc 1 163 0 is_stmt 1
 250 005a 0720     		movs	r0, #7
 251 005c 06E0     		b	.L19
 252              	.LVL20:
 253              	.L22:
 189:Generated_Source\PSoC5/CySpc.c ****                 }
 190:Generated_Source\PSoC5/CySpc.c ****             }
 191:Generated_Source\PSoC5/CySpc.c ****             else
 192:Generated_Source\PSoC5/CySpc.c ****             {
 193:Generated_Source\PSoC5/CySpc.c ****                 status = CYRET_CANCELED;
 194:Generated_Source\PSoC5/CySpc.c ****             }
 195:Generated_Source\PSoC5/CySpc.c ****         }
 196:Generated_Source\PSoC5/CySpc.c ****         else
 197:Generated_Source\PSoC5/CySpc.c ****         {
ARM GAS  C:\Users\kelvi\AppData\Local\Temp\ccmkFj2H.s 			page 9


 198:Generated_Source\PSoC5/CySpc.c ****             status = CYRET_LOCKED;
 199:Generated_Source\PSoC5/CySpc.c ****         }
 200:Generated_Source\PSoC5/CySpc.c ****     }
 201:Generated_Source\PSoC5/CySpc.c ****     else
 202:Generated_Source\PSoC5/CySpc.c ****     {
 203:Generated_Source\PSoC5/CySpc.c ****         status = CYRET_BAD_PARAM;
 254              		.loc 1 203 0
 255 005e 0120     		movs	r0, #1
 256              	.LVL21:
 257 0060 04E0     		b	.L19
 258              	.LVL22:
 259              	.L23:
 260 0062 0120     		movs	r0, #1
 261              	.LVL23:
 262 0064 02E0     		b	.L19
 263              	.LVL24:
 264              	.L24:
 198:Generated_Source\PSoC5/CySpc.c ****         }
 265              		.loc 1 198 0
 266 0066 0420     		movs	r0, #4
 267              	.LVL25:
 268 0068 00E0     		b	.L19
 269              	.LVL26:
 270              	.L25:
 193:Generated_Source\PSoC5/CySpc.c ****             }
 271              		.loc 1 193 0
 272 006a 0920     		movs	r0, #9
 273              	.LVL27:
 274              	.L19:
 204:Generated_Source\PSoC5/CySpc.c ****     }
 205:Generated_Source\PSoC5/CySpc.c **** 
 206:Generated_Source\PSoC5/CySpc.c ****     return(status);
 207:Generated_Source\PSoC5/CySpc.c **** }
 275              		.loc 1 207 0
 276 006c 30BC     		pop	{r4, r5}
 277              		.cfi_restore 5
 278              		.cfi_restore 4
 279              		.cfi_def_cfa_offset 0
 280 006e 7047     		bx	lr
 281              	.L28:
 282              		.align	2
 283              	.L27:
 284 0070 22470040 		.word	1073760034
 285 0074 20470040 		.word	1073760032
 286              		.cfi_endproc
 287              	.LFE3:
 288              		.size	CySpcLoadMultiByte, .-CySpcLoadMultiByte
 289              		.section	.text.CySpcLoadRow,"ax",%progbits
 290              		.align	2
 291              		.global	CySpcLoadRow
 292              		.thumb
 293              		.thumb_func
 294              		.type	CySpcLoadRow, %function
 295              	CySpcLoadRow:
 296              	.LFB4:
 208:Generated_Source\PSoC5/CySpc.c **** 
 209:Generated_Source\PSoC5/CySpc.c **** 
ARM GAS  C:\Users\kelvi\AppData\Local\Temp\ccmkFj2H.s 			page 10


 210:Generated_Source\PSoC5/CySpc.c **** /*******************************************************************************
 211:Generated_Source\PSoC5/CySpc.c **** * Function Name: CySpcLoadRow
 212:Generated_Source\PSoC5/CySpc.c **** ****************************************************************************//**
 213:Generated_Source\PSoC5/CySpc.c **** *  Loads a row of data into the row latch of a Flash/EEPROM array.
 214:Generated_Source\PSoC5/CySpc.c **** *
 215:Generated_Source\PSoC5/CySpc.c **** *  The buffer pointer should point to the data that should be written to the
 216:Generated_Source\PSoC5/CySpc.c **** *  flash row directly (no data in ECC/flash will be preserved). It is Flash API
 217:Generated_Source\PSoC5/CySpc.c **** *  responsibility to prepare data: the preserved data are copied from flash into
 218:Generated_Source\PSoC5/CySpc.c **** *  array with the modified data.
 219:Generated_Source\PSoC5/CySpc.c **** *
 220:Generated_Source\PSoC5/CySpc.c **** *  \param uint8 array:
 221:Generated_Source\PSoC5/CySpc.c **** *   Id of the array.
 222:Generated_Source\PSoC5/CySpc.c **** *
 223:Generated_Source\PSoC5/CySpc.c **** *  \param uint8* buffer:
 224:Generated_Source\PSoC5/CySpc.c **** *   Data to be loaded to the row latch
 225:Generated_Source\PSoC5/CySpc.c **** *
 226:Generated_Source\PSoC5/CySpc.c **** *  \param uint8 size:
 227:Generated_Source\PSoC5/CySpc.c **** *   The number of data bytes that the SPC expects to be written. Depends on the
 228:Generated_Source\PSoC5/CySpc.c **** *   type of the array and, if the array is Flash, whether ECC is being enabled
 229:Generated_Source\PSoC5/CySpc.c **** *   or not. There are following values: flash row latch size with ECC enabled,
 230:Generated_Source\PSoC5/CySpc.c **** *   flash row latch size with ECC disabled and EEPROM row latch size.
 231:Generated_Source\PSoC5/CySpc.c **** *
 232:Generated_Source\PSoC5/CySpc.c **** * \return
 233:Generated_Source\PSoC5/CySpc.c **** *  CYRET_STARTED
 234:Generated_Source\PSoC5/CySpc.c **** *  CYRET_CANCELED
 235:Generated_Source\PSoC5/CySpc.c **** *  CYRET_LOCKED
 236:Generated_Source\PSoC5/CySpc.c **** *
 237:Generated_Source\PSoC5/CySpc.c **** *******************************************************************************/
 238:Generated_Source\PSoC5/CySpc.c **** cystatus CySpcLoadRow(uint8 array, const uint8 buffer[], uint16 size)
 239:Generated_Source\PSoC5/CySpc.c **** {
 297              		.loc 1 239 0
 298              		.cfi_startproc
 299              		@ args = 0, pretend = 0, frame = 0
 300              		@ frame_needed = 0, uses_anonymous_args = 0
 301              		@ link register save eliminated.
 302              	.LVL28:
 240:Generated_Source\PSoC5/CySpc.c ****     cystatus status = CYRET_STARTED;
 241:Generated_Source\PSoC5/CySpc.c ****     uint16 i;
 242:Generated_Source\PSoC5/CySpc.c **** 
 243:Generated_Source\PSoC5/CySpc.c ****     /* Make sure the SPC is ready to accept command */
 244:Generated_Source\PSoC5/CySpc.c ****     if(CY_SPC_IDLE)
 303              		.loc 1 244 0
 304 0000 124B     		ldr	r3, .L36
 305 0002 1B78     		ldrb	r3, [r3]	@ zero_extendqisi2
 306 0004 13F0020F 		tst	r3, #2
 307 0008 19D0     		beq	.L33
 239:Generated_Source\PSoC5/CySpc.c ****     cystatus status = CYRET_STARTED;
 308              		.loc 1 239 0
 309 000a 10B4     		push	{r4}
 310              		.cfi_def_cfa_offset 4
 311              		.cfi_offset 4, -4
 245:Generated_Source\PSoC5/CySpc.c ****     {
 246:Generated_Source\PSoC5/CySpc.c ****         CY_SPC_CPU_DATA_REG = CY_SPC_KEY_ONE;
 312              		.loc 1 246 0
 313 000c 104B     		ldr	r3, .L36+4
 314 000e B624     		movs	r4, #182
 315 0010 1C70     		strb	r4, [r3]
ARM GAS  C:\Users\kelvi\AppData\Local\Temp\ccmkFj2H.s 			page 11


 247:Generated_Source\PSoC5/CySpc.c ****         CY_SPC_CPU_DATA_REG = CY_SPC_KEY_TWO(CY_SPC_CMD_LD_ROW);
 316              		.loc 1 247 0
 317 0012 D524     		movs	r4, #213
 318 0014 1C70     		strb	r4, [r3]
 248:Generated_Source\PSoC5/CySpc.c ****         CY_SPC_CPU_DATA_REG = CY_SPC_CMD_LD_ROW;
 319              		.loc 1 248 0
 320 0016 0224     		movs	r4, #2
 321 0018 1C70     		strb	r4, [r3]
 249:Generated_Source\PSoC5/CySpc.c **** 
 250:Generated_Source\PSoC5/CySpc.c ****         /* Make sure the command was accepted */
 251:Generated_Source\PSoC5/CySpc.c ****         if(CY_SPC_BUSY)
 322              		.loc 1 251 0
 323 001a 0233     		adds	r3, r3, #2
 324 001c 1B78     		ldrb	r3, [r3]	@ zero_extendqisi2
 325 001e 13F0020F 		tst	r3, #2
 326 0022 0ED1     		bne	.L34
 252:Generated_Source\PSoC5/CySpc.c ****         {
 253:Generated_Source\PSoC5/CySpc.c ****             CY_SPC_CPU_DATA_REG = array;
 327              		.loc 1 253 0
 328 0024 0A4B     		ldr	r3, .L36+4
 329 0026 1870     		strb	r0, [r3]
 330              	.LVL29:
 254:Generated_Source\PSoC5/CySpc.c **** 
 255:Generated_Source\PSoC5/CySpc.c ****             for(i = 0u; i < size; i++)
 331              		.loc 1 255 0
 332 0028 0023     		movs	r3, #0
 333 002a 04E0     		b	.L31
 334              	.LVL30:
 335              	.L32:
 256:Generated_Source\PSoC5/CySpc.c ****             {
 257:Generated_Source\PSoC5/CySpc.c ****                 CY_SPC_CPU_DATA_REG = buffer[i];
 336              		.loc 1 257 0 discriminator 3
 337 002c CC5C     		ldrb	r4, [r1, r3]	@ zero_extendqisi2
 338 002e 0848     		ldr	r0, .L36+4
 339 0030 0470     		strb	r4, [r0]
 255:Generated_Source\PSoC5/CySpc.c ****             {
 340              		.loc 1 255 0 discriminator 3
 341 0032 0133     		adds	r3, r3, #1
 342              	.LVL31:
 343 0034 9BB2     		uxth	r3, r3
 344              	.LVL32:
 345              	.L31:
 255:Generated_Source\PSoC5/CySpc.c ****             {
 346              		.loc 1 255 0 is_stmt 0 discriminator 1
 347 0036 9342     		cmp	r3, r2
 348 0038 F8D3     		bcc	.L32
 240:Generated_Source\PSoC5/CySpc.c ****     uint16 i;
 349              		.loc 1 240 0 is_stmt 1
 350 003a 0720     		movs	r0, #7
 351 003c 02E0     		b	.L30
 352              	.LVL33:
 353              	.L33:
 354              		.cfi_def_cfa_offset 0
 355              		.cfi_restore 4
 258:Generated_Source\PSoC5/CySpc.c ****             }
 259:Generated_Source\PSoC5/CySpc.c ****         }
 260:Generated_Source\PSoC5/CySpc.c ****         else
ARM GAS  C:\Users\kelvi\AppData\Local\Temp\ccmkFj2H.s 			page 12


 261:Generated_Source\PSoC5/CySpc.c ****         {
 262:Generated_Source\PSoC5/CySpc.c ****             status = CYRET_CANCELED;
 263:Generated_Source\PSoC5/CySpc.c ****         }
 264:Generated_Source\PSoC5/CySpc.c ****     }
 265:Generated_Source\PSoC5/CySpc.c ****     else
 266:Generated_Source\PSoC5/CySpc.c ****     {
 267:Generated_Source\PSoC5/CySpc.c ****         status = CYRET_LOCKED;
 356              		.loc 1 267 0
 357 003e 0420     		movs	r0, #4
 358              	.LVL34:
 268:Generated_Source\PSoC5/CySpc.c ****     }
 269:Generated_Source\PSoC5/CySpc.c **** 
 270:Generated_Source\PSoC5/CySpc.c ****     return(status);
 271:Generated_Source\PSoC5/CySpc.c **** }
 359              		.loc 1 271 0
 360 0040 7047     		bx	lr
 361              	.LVL35:
 362              	.L34:
 363              		.cfi_def_cfa_offset 4
 364              		.cfi_offset 4, -4
 262:Generated_Source\PSoC5/CySpc.c ****         }
 365              		.loc 1 262 0
 366 0042 0920     		movs	r0, #9
 367              	.LVL36:
 368              	.L30:
 369              		.loc 1 271 0
 370 0044 5DF8044B 		ldr	r4, [sp], #4
 371              		.cfi_restore 4
 372              		.cfi_def_cfa_offset 0
 373 0048 7047     		bx	lr
 374              	.L37:
 375 004a 00BF     		.align	2
 376              	.L36:
 377 004c 22470040 		.word	1073760034
 378 0050 20470040 		.word	1073760032
 379              		.cfi_endproc
 380              	.LFE4:
 381              		.size	CySpcLoadRow, .-CySpcLoadRow
 382              		.section	.text.CySpcLoadRowFull,"ax",%progbits
 383              		.align	2
 384              		.global	CySpcLoadRowFull
 385              		.thumb
 386              		.thumb_func
 387              		.type	CySpcLoadRowFull, %function
 388              	CySpcLoadRowFull:
 389              	.LFB5:
 272:Generated_Source\PSoC5/CySpc.c **** 
 273:Generated_Source\PSoC5/CySpc.c **** 
 274:Generated_Source\PSoC5/CySpc.c **** /*******************************************************************************
 275:Generated_Source\PSoC5/CySpc.c **** * Function Name: CySpcLoadRowFull
 276:Generated_Source\PSoC5/CySpc.c **** ****************************************************************************//**
 277:Generated_Source\PSoC5/CySpc.c **** *  Loads a row of data into the row latch of a Flash/EEPROM array.
 278:Generated_Source\PSoC5/CySpc.c **** *
 279:Generated_Source\PSoC5/CySpc.c **** *  The only data that are going to be changed should be passed. The function
 280:Generated_Source\PSoC5/CySpc.c **** *  will handle unmodified data preservation based on DWR settings and input
 281:Generated_Source\PSoC5/CySpc.c **** *  parameters.
 282:Generated_Source\PSoC5/CySpc.c **** *
ARM GAS  C:\Users\kelvi\AppData\Local\Temp\ccmkFj2H.s 			page 13


 283:Generated_Source\PSoC5/CySpc.c **** *  \param uint8 array:
 284:Generated_Source\PSoC5/CySpc.c **** *   Id of the array.
 285:Generated_Source\PSoC5/CySpc.c **** *
 286:Generated_Source\PSoC5/CySpc.c **** *  \param uint16 row:
 287:Generated_Source\PSoC5/CySpc.c **** *   Flash row number to be loaded.
 288:Generated_Source\PSoC5/CySpc.c **** *
 289:Generated_Source\PSoC5/CySpc.c **** *  \param uint8* buffer:
 290:Generated_Source\PSoC5/CySpc.c **** *   Data to be loaded to the row latch
 291:Generated_Source\PSoC5/CySpc.c **** *
 292:Generated_Source\PSoC5/CySpc.c **** *  \param uint8 size:
 293:Generated_Source\PSoC5/CySpc.c **** *   The number of data bytes that the SPC expects to be written. Depends on the
 294:Generated_Source\PSoC5/CySpc.c **** *   type of the array and, if the array is Flash, whether ECC is being enabled
 295:Generated_Source\PSoC5/CySpc.c **** *   or not. There are following values: flash row latch size with ECC enabled,
 296:Generated_Source\PSoC5/CySpc.c **** *   flash row latch size with ECC disabled and EEPROM row latch size.
 297:Generated_Source\PSoC5/CySpc.c **** *
 298:Generated_Source\PSoC5/CySpc.c **** * \return
 299:Generated_Source\PSoC5/CySpc.c **** *  CYRET_STARTED
 300:Generated_Source\PSoC5/CySpc.c **** *  CYRET_CANCELED
 301:Generated_Source\PSoC5/CySpc.c **** *  CYRET_LOCKED
 302:Generated_Source\PSoC5/CySpc.c **** *
 303:Generated_Source\PSoC5/CySpc.c **** *******************************************************************************/
 304:Generated_Source\PSoC5/CySpc.c **** cystatus CySpcLoadRowFull(uint8 array, uint16 row, const uint8 buffer[], uint16 size)\
 305:Generated_Source\PSoC5/CySpc.c **** 
 306:Generated_Source\PSoC5/CySpc.c **** {
 390              		.loc 1 306 0
 391              		.cfi_startproc
 392              		@ args = 0, pretend = 0, frame = 0
 393              		@ frame_needed = 0, uses_anonymous_args = 0
 394              		@ link register save eliminated.
 395              	.LVL37:
 396 0000 70B4     		push	{r4, r5, r6}
 397              		.cfi_def_cfa_offset 12
 398              		.cfi_offset 4, -12
 399              		.cfi_offset 5, -8
 400              		.cfi_offset 6, -4
 401              	.LVL38:
 307:Generated_Source\PSoC5/CySpc.c ****     cystatus status = CYRET_STARTED;
 308:Generated_Source\PSoC5/CySpc.c ****     uint16 i;
 309:Generated_Source\PSoC5/CySpc.c **** 
 310:Generated_Source\PSoC5/CySpc.c ****     #if (CYDEV_ECC_ENABLE == 0)
 311:Generated_Source\PSoC5/CySpc.c ****         uint32 offset;
 312:Generated_Source\PSoC5/CySpc.c ****     #endif /* (CYDEV_ECC_ENABLE == 0) */
 313:Generated_Source\PSoC5/CySpc.c **** 
 314:Generated_Source\PSoC5/CySpc.c ****     /* Make sure the SPC is ready to accept command */
 315:Generated_Source\PSoC5/CySpc.c ****     if(CY_SPC_IDLE)
 402              		.loc 1 315 0
 403 0002 1D4C     		ldr	r4, .L49
 404 0004 2478     		ldrb	r4, [r4]	@ zero_extendqisi2
 405 0006 14F0020F 		tst	r4, #2
 406 000a 2CD0     		beq	.L44
 316:Generated_Source\PSoC5/CySpc.c ****     {
 317:Generated_Source\PSoC5/CySpc.c ****         CY_SPC_CPU_DATA_REG = CY_SPC_KEY_ONE;
 407              		.loc 1 317 0
 408 000c 1B4C     		ldr	r4, .L49+4
 409 000e B625     		movs	r5, #182
 410 0010 2570     		strb	r5, [r4]
 318:Generated_Source\PSoC5/CySpc.c ****         CY_SPC_CPU_DATA_REG = CY_SPC_KEY_TWO(CY_SPC_CMD_LD_ROW);
ARM GAS  C:\Users\kelvi\AppData\Local\Temp\ccmkFj2H.s 			page 14


 411              		.loc 1 318 0
 412 0012 D525     		movs	r5, #213
 413 0014 2570     		strb	r5, [r4]
 319:Generated_Source\PSoC5/CySpc.c ****         CY_SPC_CPU_DATA_REG = CY_SPC_CMD_LD_ROW;
 414              		.loc 1 319 0
 415 0016 0225     		movs	r5, #2
 416 0018 2570     		strb	r5, [r4]
 320:Generated_Source\PSoC5/CySpc.c **** 
 321:Generated_Source\PSoC5/CySpc.c ****         /* Make sure the command was accepted */
 322:Generated_Source\PSoC5/CySpc.c ****         if(CY_SPC_BUSY)
 417              		.loc 1 322 0
 418 001a 0234     		adds	r4, r4, #2
 419 001c 2478     		ldrb	r4, [r4]	@ zero_extendqisi2
 420 001e 14F0020F 		tst	r4, #2
 421 0022 22D1     		bne	.L45
 323:Generated_Source\PSoC5/CySpc.c ****         {
 324:Generated_Source\PSoC5/CySpc.c ****             CY_SPC_CPU_DATA_REG = array;
 422              		.loc 1 324 0
 423 0024 154C     		ldr	r4, .L49+4
 424 0026 2070     		strb	r0, [r4]
 425              	.LVL39:
 325:Generated_Source\PSoC5/CySpc.c **** 
 326:Generated_Source\PSoC5/CySpc.c ****             /*******************************************************************
 327:Generated_Source\PSoC5/CySpc.c ****             * If "Enable Error Correcting Code (ECC)" and "Store Configuration
 328:Generated_Source\PSoC5/CySpc.c ****             * Data in ECC" DWR options are disabled, ECC section is available
 329:Generated_Source\PSoC5/CySpc.c ****             * for user data.
 330:Generated_Source\PSoC5/CySpc.c ****             *******************************************************************/
 331:Generated_Source\PSoC5/CySpc.c ****             #if ((CYDEV_ECC_ENABLE == 0u) && (CYDEV_CONFIGURATION_ECC == 0u))
 332:Generated_Source\PSoC5/CySpc.c **** 
 333:Generated_Source\PSoC5/CySpc.c ****                 /*******************************************************************
 334:Generated_Source\PSoC5/CySpc.c ****                 * If size parameter equals size of the ECC row and selected array
 335:Generated_Source\PSoC5/CySpc.c ****                 * identification corresponds to the flash array (but not to EEPROM
 336:Generated_Source\PSoC5/CySpc.c ****                 * array) then data are going to be written to the ECC section.
 337:Generated_Source\PSoC5/CySpc.c ****                 * In this case flash data must be preserved. The flash data copied
 338:Generated_Source\PSoC5/CySpc.c ****                 * from flash data section to the SPC data register.
 339:Generated_Source\PSoC5/CySpc.c ****                 *******************************************************************/
 340:Generated_Source\PSoC5/CySpc.c ****                 if ((size == CYDEV_ECC_ROW_SIZE) && (array <= CY_SPC_LAST_FLASH_ARRAYID))
 341:Generated_Source\PSoC5/CySpc.c ****                 {
 342:Generated_Source\PSoC5/CySpc.c ****                     offset = CYDEV_FLS_BASE +
 343:Generated_Source\PSoC5/CySpc.c ****                              ((uint32) array * CYDEV_FLS_SECTOR_SIZE) +
 344:Generated_Source\PSoC5/CySpc.c ****                              ((uint32)   row * CYDEV_FLS_ROW_SIZE   );
 345:Generated_Source\PSoC5/CySpc.c **** 
 346:Generated_Source\PSoC5/CySpc.c ****                     for (i = 0u; i < CYDEV_FLS_ROW_SIZE; i++)
 347:Generated_Source\PSoC5/CySpc.c ****                     {
 348:Generated_Source\PSoC5/CySpc.c ****                         CY_SPC_CPU_DATA_REG = CY_GET_XTND_REG8((void CYFAR *)(offset + i));
 349:Generated_Source\PSoC5/CySpc.c ****                     }
 350:Generated_Source\PSoC5/CySpc.c ****                 }
 351:Generated_Source\PSoC5/CySpc.c **** 
 352:Generated_Source\PSoC5/CySpc.c ****             #endif /* ((CYDEV_ECC_ENABLE == 0u) && (CYDEV_CONFIGURATION_ECC == 0u)) */
 353:Generated_Source\PSoC5/CySpc.c **** 
 354:Generated_Source\PSoC5/CySpc.c **** 
 355:Generated_Source\PSoC5/CySpc.c ****             for(i = 0u; i < size; i++)
 426              		.loc 1 355 0
 427 0028 0024     		movs	r4, #0
 428 002a 04E0     		b	.L40
 429              	.LVL40:
 430              	.L41:
ARM GAS  C:\Users\kelvi\AppData\Local\Temp\ccmkFj2H.s 			page 15


 356:Generated_Source\PSoC5/CySpc.c ****             {
 357:Generated_Source\PSoC5/CySpc.c ****                 CY_SPC_CPU_DATA_REG = buffer[i];
 431              		.loc 1 357 0 discriminator 3
 432 002c 165D     		ldrb	r6, [r2, r4]	@ zero_extendqisi2
 433 002e 134D     		ldr	r5, .L49+4
 434 0030 2E70     		strb	r6, [r5]
 355:Generated_Source\PSoC5/CySpc.c ****             {
 435              		.loc 1 355 0 discriminator 3
 436 0032 0134     		adds	r4, r4, #1
 437              	.LVL41:
 438 0034 A4B2     		uxth	r4, r4
 439              	.LVL42:
 440              	.L40:
 355:Generated_Source\PSoC5/CySpc.c ****             {
 441              		.loc 1 355 0 is_stmt 0 discriminator 1
 442 0036 9C42     		cmp	r4, r3
 443 0038 F8D3     		bcc	.L41
 358:Generated_Source\PSoC5/CySpc.c ****             }
 359:Generated_Source\PSoC5/CySpc.c **** 
 360:Generated_Source\PSoC5/CySpc.c **** 
 361:Generated_Source\PSoC5/CySpc.c ****             /*******************************************************************
 362:Generated_Source\PSoC5/CySpc.c ****             * If "Enable Error Correcting Code (ECC)" DWR option is disabled,
 363:Generated_Source\PSoC5/CySpc.c ****             * ECC section can be used for storing device configuration data
 364:Generated_Source\PSoC5/CySpc.c ****             * ("Store Configuration Data in ECC" DWR option is enabled) or for
 365:Generated_Source\PSoC5/CySpc.c ****             * storing user data in the ECC section ("Store Configuration Data in
 366:Generated_Source\PSoC5/CySpc.c ****             * ECC" DWR option is enabled). In both cases, the data in the ECC
 367:Generated_Source\PSoC5/CySpc.c ****             * section must be preserved if flash data is written.
 368:Generated_Source\PSoC5/CySpc.c ****             *******************************************************************/
 369:Generated_Source\PSoC5/CySpc.c ****             #if (CYDEV_ECC_ENABLE == 0)
 370:Generated_Source\PSoC5/CySpc.c **** 
 371:Generated_Source\PSoC5/CySpc.c **** 
 372:Generated_Source\PSoC5/CySpc.c ****                 /*******************************************************************
 373:Generated_Source\PSoC5/CySpc.c ****                 * If size parameter equals size of the flash row and selected array
 374:Generated_Source\PSoC5/CySpc.c ****                 * identification corresponds to the flash array (but not to EEPROM
 375:Generated_Source\PSoC5/CySpc.c ****                 * array) then data are going to be written to the flash data
 376:Generated_Source\PSoC5/CySpc.c ****                 * section. In this case, ECC section data must be preserved.
 377:Generated_Source\PSoC5/CySpc.c ****                 * The ECC section data copied from ECC section to the SPC data
 378:Generated_Source\PSoC5/CySpc.c ****                 * register.
 379:Generated_Source\PSoC5/CySpc.c ****                 *******************************************************************/
 380:Generated_Source\PSoC5/CySpc.c ****                 if ((size == CYDEV_FLS_ROW_SIZE) && (array <= CY_SPC_LAST_FLASH_ARRAYID))
 444              		.loc 1 380 0 is_stmt 1
 445 003a B3F5807F 		cmp	r3, #256
 446 003e 16D1     		bne	.L46
 447              		.loc 1 380 0 is_stmt 0 discriminator 1
 448 0040 3F28     		cmp	r0, #63
 449 0042 16D8     		bhi	.L47
 381:Generated_Source\PSoC5/CySpc.c ****                 {
 382:Generated_Source\PSoC5/CySpc.c ****                     offset = CYDEV_ECC_BASE +
 383:Generated_Source\PSoC5/CySpc.c ****                             ((uint32) array * CYDEV_ECC_SECTOR_SIZE) +
 450              		.loc 1 383 0 is_stmt 1
 451 0044 00F51030 		add	r0, r0, #147456
 452              	.LVL43:
 453 0048 01EB0021 		add	r1, r1, r0, lsl #8
 454              	.LVL44:
 382:Generated_Source\PSoC5/CySpc.c ****                             ((uint32) array * CYDEV_ECC_SECTOR_SIZE) +
 455              		.loc 1 382 0
 456 004c 4801     		lsls	r0, r1, #5
ARM GAS  C:\Users\kelvi\AppData\Local\Temp\ccmkFj2H.s 			page 16


 457              	.LVL45:
 384:Generated_Source\PSoC5/CySpc.c ****                             ((uint32) row   * CYDEV_ECC_ROW_SIZE   );
 385:Generated_Source\PSoC5/CySpc.c **** 
 386:Generated_Source\PSoC5/CySpc.c ****                     for (i = 0u; i < CYDEV_ECC_ROW_SIZE; i++)
 458              		.loc 1 386 0
 459 004e 0023     		movs	r3, #0
 460              	.LVL46:
 461 0050 05E0     		b	.L42
 462              	.LVL47:
 463              	.L43:
 387:Generated_Source\PSoC5/CySpc.c ****                     {
 388:Generated_Source\PSoC5/CySpc.c ****                         CY_SPC_CPU_DATA_REG = CY_GET_XTND_REG8((void CYFAR *)(offset + i));
 464              		.loc 1 388 0 discriminator 3
 465 0052 1A5C     		ldrb	r2, [r3, r0]	@ zero_extendqisi2
 466 0054 D2B2     		uxtb	r2, r2
 467 0056 0949     		ldr	r1, .L49+4
 468 0058 0A70     		strb	r2, [r1]
 386:Generated_Source\PSoC5/CySpc.c ****                     {
 469              		.loc 1 386 0 discriminator 3
 470 005a 0133     		adds	r3, r3, #1
 471              	.LVL48:
 472 005c 9BB2     		uxth	r3, r3
 473              	.LVL49:
 474              	.L42:
 386:Generated_Source\PSoC5/CySpc.c ****                     {
 475              		.loc 1 386 0 is_stmt 0 discriminator 1
 476 005e 1F2B     		cmp	r3, #31
 477 0060 F7D9     		bls	.L43
 307:Generated_Source\PSoC5/CySpc.c ****     uint16 i;
 478              		.loc 1 307 0 is_stmt 1
 479 0062 0720     		movs	r0, #7
 480              	.LVL50:
 481 0064 06E0     		b	.L39
 482              	.LVL51:
 483              	.L44:
 389:Generated_Source\PSoC5/CySpc.c ****                     }
 390:Generated_Source\PSoC5/CySpc.c ****                 }
 391:Generated_Source\PSoC5/CySpc.c **** 
 392:Generated_Source\PSoC5/CySpc.c ****             #else
 393:Generated_Source\PSoC5/CySpc.c **** 
 394:Generated_Source\PSoC5/CySpc.c ****                 if(0u != row)
 395:Generated_Source\PSoC5/CySpc.c ****                 {
 396:Generated_Source\PSoC5/CySpc.c ****                     /* To remove unreferenced local variable warning */
 397:Generated_Source\PSoC5/CySpc.c ****                 }
 398:Generated_Source\PSoC5/CySpc.c **** 
 399:Generated_Source\PSoC5/CySpc.c ****             #endif /* (CYDEV_ECC_ENABLE == 0) */
 400:Generated_Source\PSoC5/CySpc.c ****         }
 401:Generated_Source\PSoC5/CySpc.c ****         else
 402:Generated_Source\PSoC5/CySpc.c ****         {
 403:Generated_Source\PSoC5/CySpc.c ****             status = CYRET_CANCELED;
 404:Generated_Source\PSoC5/CySpc.c ****         }
 405:Generated_Source\PSoC5/CySpc.c ****     }
 406:Generated_Source\PSoC5/CySpc.c ****     else
 407:Generated_Source\PSoC5/CySpc.c ****     {
 408:Generated_Source\PSoC5/CySpc.c ****         status = CYRET_LOCKED;
 484              		.loc 1 408 0
 485 0066 0420     		movs	r0, #4
ARM GAS  C:\Users\kelvi\AppData\Local\Temp\ccmkFj2H.s 			page 17


 486              	.LVL52:
 487 0068 04E0     		b	.L39
 488              	.LVL53:
 489              	.L45:
 403:Generated_Source\PSoC5/CySpc.c ****         }
 490              		.loc 1 403 0
 491 006a 0920     		movs	r0, #9
 492              	.LVL54:
 493 006c 02E0     		b	.L39
 494              	.LVL55:
 495              	.L46:
 307:Generated_Source\PSoC5/CySpc.c ****     uint16 i;
 496              		.loc 1 307 0
 497 006e 0720     		movs	r0, #7
 498              	.LVL56:
 499 0070 00E0     		b	.L39
 500              	.LVL57:
 501              	.L47:
 502 0072 0720     		movs	r0, #7
 503              	.LVL58:
 504              	.L39:
 409:Generated_Source\PSoC5/CySpc.c ****     }
 410:Generated_Source\PSoC5/CySpc.c **** 
 411:Generated_Source\PSoC5/CySpc.c ****     return(status);
 412:Generated_Source\PSoC5/CySpc.c **** }
 505              		.loc 1 412 0
 506 0074 70BC     		pop	{r4, r5, r6}
 507              		.cfi_restore 6
 508              		.cfi_restore 5
 509              		.cfi_restore 4
 510              		.cfi_def_cfa_offset 0
 511 0076 7047     		bx	lr
 512              	.L50:
 513              		.align	2
 514              	.L49:
 515 0078 22470040 		.word	1073760034
 516 007c 20470040 		.word	1073760032
 517              		.cfi_endproc
 518              	.LFE5:
 519              		.size	CySpcLoadRowFull, .-CySpcLoadRowFull
 520              		.section	.text.CySpcWriteRow,"ax",%progbits
 521              		.align	2
 522              		.global	CySpcWriteRow
 523              		.thumb
 524              		.thumb_func
 525              		.type	CySpcWriteRow, %function
 526              	CySpcWriteRow:
 527              	.LFB6:
 413:Generated_Source\PSoC5/CySpc.c **** 
 414:Generated_Source\PSoC5/CySpc.c **** 
 415:Generated_Source\PSoC5/CySpc.c **** /*******************************************************************************
 416:Generated_Source\PSoC5/CySpc.c **** * Function Name: CySpcWriteRow
 417:Generated_Source\PSoC5/CySpc.c **** ****************************************************************************//**
 418:Generated_Source\PSoC5/CySpc.c **** *  Erases then programs a row in Flash/EEPROM with data in row latch.
 419:Generated_Source\PSoC5/CySpc.c **** *
 420:Generated_Source\PSoC5/CySpc.c **** *  \param uint8 array:
 421:Generated_Source\PSoC5/CySpc.c **** *   Id of the array.
ARM GAS  C:\Users\kelvi\AppData\Local\Temp\ccmkFj2H.s 			page 18


 422:Generated_Source\PSoC5/CySpc.c **** *
 423:Generated_Source\PSoC5/CySpc.c **** *  \param uint16 address:
 424:Generated_Source\PSoC5/CySpc.c **** *   flash/eeprom addrress
 425:Generated_Source\PSoC5/CySpc.c **** *
 426:Generated_Source\PSoC5/CySpc.c **** *  \param uint8 tempPolarity:
 427:Generated_Source\PSoC5/CySpc.c **** *   temperature polarity.
 428:Generated_Source\PSoC5/CySpc.c **** *   \param 1: the Temp Magnitude is interpreted as a positive value
 429:Generated_Source\PSoC5/CySpc.c **** *   \param 0: the Temp Magnitude is interpreted as a negative value
 430:Generated_Source\PSoC5/CySpc.c **** *
 431:Generated_Source\PSoC5/CySpc.c **** *  \param uint8 tempMagnitude:
 432:Generated_Source\PSoC5/CySpc.c **** *   temperature magnitude.
 433:Generated_Source\PSoC5/CySpc.c **** *
 434:Generated_Source\PSoC5/CySpc.c **** * \return
 435:Generated_Source\PSoC5/CySpc.c **** *  CYRET_STARTED
 436:Generated_Source\PSoC5/CySpc.c **** *  CYRET_CANCELED
 437:Generated_Source\PSoC5/CySpc.c **** *  CYRET_LOCKED
 438:Generated_Source\PSoC5/CySpc.c **** *
 439:Generated_Source\PSoC5/CySpc.c **** *******************************************************************************/
 440:Generated_Source\PSoC5/CySpc.c **** cystatus CySpcWriteRow(uint8 array, uint16 address, uint8 tempPolarity, uint8 tempMagnitude)\
 441:Generated_Source\PSoC5/CySpc.c **** 
 442:Generated_Source\PSoC5/CySpc.c **** {
 528              		.loc 1 442 0
 529              		.cfi_startproc
 530              		@ args = 0, pretend = 0, frame = 0
 531              		@ frame_needed = 0, uses_anonymous_args = 0
 532              		@ link register save eliminated.
 533              	.LVL59:
 534 0000 30B4     		push	{r4, r5}
 535              		.cfi_def_cfa_offset 8
 536              		.cfi_offset 4, -8
 537              		.cfi_offset 5, -4
 538              	.LVL60:
 443:Generated_Source\PSoC5/CySpc.c ****     cystatus status = CYRET_STARTED;
 444:Generated_Source\PSoC5/CySpc.c **** 
 445:Generated_Source\PSoC5/CySpc.c ****     /* Make sure the SPC is ready to accept command */
 446:Generated_Source\PSoC5/CySpc.c ****     if(CY_SPC_IDLE)
 539              		.loc 1 446 0
 540 0002 104C     		ldr	r4, .L56
 541 0004 2478     		ldrb	r4, [r4]	@ zero_extendqisi2
 542 0006 14F0020F 		tst	r4, #2
 543 000a 15D0     		beq	.L53
 447:Generated_Source\PSoC5/CySpc.c ****     {
 448:Generated_Source\PSoC5/CySpc.c ****         CY_SPC_CPU_DATA_REG = CY_SPC_KEY_ONE;
 544              		.loc 1 448 0
 545 000c 0E4C     		ldr	r4, .L56+4
 546 000e B625     		movs	r5, #182
 547 0010 2570     		strb	r5, [r4]
 449:Generated_Source\PSoC5/CySpc.c ****         CY_SPC_CPU_DATA_REG = CY_SPC_KEY_TWO(CY_SPC_CMD_WR_ROW);
 548              		.loc 1 449 0
 549 0012 D825     		movs	r5, #216
 550 0014 2570     		strb	r5, [r4]
 450:Generated_Source\PSoC5/CySpc.c ****         CY_SPC_CPU_DATA_REG = CY_SPC_CMD_WR_ROW;
 551              		.loc 1 450 0
 552 0016 0525     		movs	r5, #5
 553 0018 2570     		strb	r5, [r4]
 451:Generated_Source\PSoC5/CySpc.c **** 
 452:Generated_Source\PSoC5/CySpc.c ****         /* Make sure the command was accepted */
ARM GAS  C:\Users\kelvi\AppData\Local\Temp\ccmkFj2H.s 			page 19


 453:Generated_Source\PSoC5/CySpc.c ****         if(CY_SPC_BUSY)
 554              		.loc 1 453 0
 555 001a 0234     		adds	r4, r4, #2
 556 001c 2478     		ldrb	r4, [r4]	@ zero_extendqisi2
 557 001e 14F0020F 		tst	r4, #2
 558 0022 0BD1     		bne	.L54
 454:Generated_Source\PSoC5/CySpc.c ****         {
 455:Generated_Source\PSoC5/CySpc.c ****             CY_SPC_CPU_DATA_REG = array;
 559              		.loc 1 455 0
 560 0024 084C     		ldr	r4, .L56+4
 561 0026 2070     		strb	r0, [r4]
 456:Generated_Source\PSoC5/CySpc.c ****             CY_SPC_CPU_DATA_REG = HI8(address);
 562              		.loc 1 456 0
 563 0028 080A     		lsrs	r0, r1, #8
 564              	.LVL61:
 565 002a 2070     		strb	r0, [r4]
 566              	.LVL62:
 457:Generated_Source\PSoC5/CySpc.c ****             CY_SPC_CPU_DATA_REG = LO8(address);
 567              		.loc 1 457 0
 568 002c C9B2     		uxtb	r1, r1
 569              	.LVL63:
 570 002e 2170     		strb	r1, [r4]
 458:Generated_Source\PSoC5/CySpc.c ****             CY_SPC_CPU_DATA_REG = tempPolarity;
 571              		.loc 1 458 0
 572 0030 2270     		strb	r2, [r4]
 459:Generated_Source\PSoC5/CySpc.c ****             CY_SPC_CPU_DATA_REG = tempMagnitude;
 573              		.loc 1 459 0
 574 0032 2370     		strb	r3, [r4]
 443:Generated_Source\PSoC5/CySpc.c **** 
 575              		.loc 1 443 0
 576 0034 0720     		movs	r0, #7
 577 0036 02E0     		b	.L52
 578              	.LVL64:
 579              	.L53:
 460:Generated_Source\PSoC5/CySpc.c ****         }
 461:Generated_Source\PSoC5/CySpc.c ****         else
 462:Generated_Source\PSoC5/CySpc.c ****         {
 463:Generated_Source\PSoC5/CySpc.c ****             status = CYRET_CANCELED;
 464:Generated_Source\PSoC5/CySpc.c ****         }
 465:Generated_Source\PSoC5/CySpc.c ****     }
 466:Generated_Source\PSoC5/CySpc.c ****     else
 467:Generated_Source\PSoC5/CySpc.c ****     {
 468:Generated_Source\PSoC5/CySpc.c ****         status = CYRET_LOCKED;
 580              		.loc 1 468 0
 581 0038 0420     		movs	r0, #4
 582              	.LVL65:
 583 003a 00E0     		b	.L52
 584              	.LVL66:
 585              	.L54:
 463:Generated_Source\PSoC5/CySpc.c ****         }
 586              		.loc 1 463 0
 587 003c 0920     		movs	r0, #9
 588              	.LVL67:
 589              	.L52:
 469:Generated_Source\PSoC5/CySpc.c ****     }
 470:Generated_Source\PSoC5/CySpc.c **** 
 471:Generated_Source\PSoC5/CySpc.c ****     return(status);
ARM GAS  C:\Users\kelvi\AppData\Local\Temp\ccmkFj2H.s 			page 20


 472:Generated_Source\PSoC5/CySpc.c **** }
 590              		.loc 1 472 0
 591 003e 30BC     		pop	{r4, r5}
 592              		.cfi_restore 5
 593              		.cfi_restore 4
 594              		.cfi_def_cfa_offset 0
 595 0040 7047     		bx	lr
 596              	.L57:
 597 0042 00BF     		.align	2
 598              	.L56:
 599 0044 22470040 		.word	1073760034
 600 0048 20470040 		.word	1073760032
 601              		.cfi_endproc
 602              	.LFE6:
 603              		.size	CySpcWriteRow, .-CySpcWriteRow
 604              		.section	.text.CySpcEraseSector,"ax",%progbits
 605              		.align	2
 606              		.global	CySpcEraseSector
 607              		.thumb
 608              		.thumb_func
 609              		.type	CySpcEraseSector, %function
 610              	CySpcEraseSector:
 611              	.LFB7:
 473:Generated_Source\PSoC5/CySpc.c **** 
 474:Generated_Source\PSoC5/CySpc.c **** 
 475:Generated_Source\PSoC5/CySpc.c **** /*******************************************************************************
 476:Generated_Source\PSoC5/CySpc.c **** * Function Name: CySpcEraseSector
 477:Generated_Source\PSoC5/CySpc.c **** ****************************************************************************//**
 478:Generated_Source\PSoC5/CySpc.c **** *  Erases all data in the addressed sector (block of 64 rows).
 479:Generated_Source\PSoC5/CySpc.c **** *
 480:Generated_Source\PSoC5/CySpc.c **** *  \param uint8 array:
 481:Generated_Source\PSoC5/CySpc.c **** *   Id of the array.
 482:Generated_Source\PSoC5/CySpc.c **** *
 483:Generated_Source\PSoC5/CySpc.c **** *  \param uint8 sectorNumber:
 484:Generated_Source\PSoC5/CySpc.c **** *   Zero based sector number within Flash/EEPROM array
 485:Generated_Source\PSoC5/CySpc.c **** *
 486:Generated_Source\PSoC5/CySpc.c **** * \return
 487:Generated_Source\PSoC5/CySpc.c **** *  CYRET_STARTED
 488:Generated_Source\PSoC5/CySpc.c **** *  CYRET_CANCELED
 489:Generated_Source\PSoC5/CySpc.c **** *  CYRET_LOCKED
 490:Generated_Source\PSoC5/CySpc.c **** *
 491:Generated_Source\PSoC5/CySpc.c **** *******************************************************************************/
 492:Generated_Source\PSoC5/CySpc.c **** cystatus CySpcEraseSector(uint8 array, uint8 sectorNumber)
 493:Generated_Source\PSoC5/CySpc.c **** {
 612              		.loc 1 493 0
 613              		.cfi_startproc
 614              		@ args = 0, pretend = 0, frame = 0
 615              		@ frame_needed = 0, uses_anonymous_args = 0
 616              		@ link register save eliminated.
 617              	.LVL68:
 494:Generated_Source\PSoC5/CySpc.c ****     cystatus status = CYRET_STARTED;
 495:Generated_Source\PSoC5/CySpc.c **** 
 496:Generated_Source\PSoC5/CySpc.c ****     /* Make sure the SPC is ready to accept command */
 497:Generated_Source\PSoC5/CySpc.c ****     if(CY_SPC_IDLE)
 618              		.loc 1 497 0
 619 0000 0C4B     		ldr	r3, .L62
 620 0002 1B78     		ldrb	r3, [r3]	@ zero_extendqisi2
ARM GAS  C:\Users\kelvi\AppData\Local\Temp\ccmkFj2H.s 			page 21


 621 0004 13F0020F 		tst	r3, #2
 622 0008 10D0     		beq	.L60
 498:Generated_Source\PSoC5/CySpc.c ****     {
 499:Generated_Source\PSoC5/CySpc.c ****         CY_SPC_CPU_DATA_REG = CY_SPC_KEY_ONE;
 623              		.loc 1 499 0
 624 000a 0B4B     		ldr	r3, .L62+4
 625 000c B622     		movs	r2, #182
 626 000e 1A70     		strb	r2, [r3]
 500:Generated_Source\PSoC5/CySpc.c ****         CY_SPC_CPU_DATA_REG = CY_SPC_KEY_TWO(CY_SPC_CMD_ER_SECTOR);
 627              		.loc 1 500 0
 628 0010 DB22     		movs	r2, #219
 629 0012 1A70     		strb	r2, [r3]
 501:Generated_Source\PSoC5/CySpc.c ****         CY_SPC_CPU_DATA_REG = CY_SPC_CMD_ER_SECTOR;
 630              		.loc 1 501 0
 631 0014 0822     		movs	r2, #8
 632 0016 1A70     		strb	r2, [r3]
 502:Generated_Source\PSoC5/CySpc.c **** 
 503:Generated_Source\PSoC5/CySpc.c ****         /* Make sure the command was accepted */
 504:Generated_Source\PSoC5/CySpc.c ****         if(CY_SPC_BUSY)
 633              		.loc 1 504 0
 634 0018 0233     		adds	r3, r3, #2
 635 001a 1B78     		ldrb	r3, [r3]	@ zero_extendqisi2
 636 001c 13F0020F 		tst	r3, #2
 637 0020 06D1     		bne	.L61
 505:Generated_Source\PSoC5/CySpc.c ****         {
 506:Generated_Source\PSoC5/CySpc.c ****             CY_SPC_CPU_DATA_REG = array;
 638              		.loc 1 506 0
 639 0022 054B     		ldr	r3, .L62+4
 640 0024 1870     		strb	r0, [r3]
 507:Generated_Source\PSoC5/CySpc.c ****             CY_SPC_CPU_DATA_REG = sectorNumber;
 641              		.loc 1 507 0
 642 0026 1970     		strb	r1, [r3]
 494:Generated_Source\PSoC5/CySpc.c **** 
 643              		.loc 1 494 0
 644 0028 0720     		movs	r0, #7
 645              	.LVL69:
 646 002a 7047     		bx	lr
 647              	.LVL70:
 648              	.L60:
 508:Generated_Source\PSoC5/CySpc.c ****         }
 509:Generated_Source\PSoC5/CySpc.c ****         else
 510:Generated_Source\PSoC5/CySpc.c ****         {
 511:Generated_Source\PSoC5/CySpc.c ****             status = CYRET_CANCELED;
 512:Generated_Source\PSoC5/CySpc.c ****         }
 513:Generated_Source\PSoC5/CySpc.c ****     }
 514:Generated_Source\PSoC5/CySpc.c ****     else
 515:Generated_Source\PSoC5/CySpc.c ****     {
 516:Generated_Source\PSoC5/CySpc.c ****         status = CYRET_LOCKED;
 649              		.loc 1 516 0
 650 002c 0420     		movs	r0, #4
 651              	.LVL71:
 652 002e 7047     		bx	lr
 653              	.LVL72:
 654              	.L61:
 511:Generated_Source\PSoC5/CySpc.c ****         }
 655              		.loc 1 511 0
 656 0030 0920     		movs	r0, #9
ARM GAS  C:\Users\kelvi\AppData\Local\Temp\ccmkFj2H.s 			page 22


 657              	.LVL73:
 517:Generated_Source\PSoC5/CySpc.c ****     }
 518:Generated_Source\PSoC5/CySpc.c **** 
 519:Generated_Source\PSoC5/CySpc.c ****     return(status);
 520:Generated_Source\PSoC5/CySpc.c **** }
 658              		.loc 1 520 0
 659 0032 7047     		bx	lr
 660              	.L63:
 661              		.align	2
 662              	.L62:
 663 0034 22470040 		.word	1073760034
 664 0038 20470040 		.word	1073760032
 665              		.cfi_endproc
 666              	.LFE7:
 667              		.size	CySpcEraseSector, .-CySpcEraseSector
 668              		.section	.text.CySpcGetTemp,"ax",%progbits
 669              		.align	2
 670              		.global	CySpcGetTemp
 671              		.thumb
 672              		.thumb_func
 673              		.type	CySpcGetTemp, %function
 674              	CySpcGetTemp:
 675              	.LFB8:
 521:Generated_Source\PSoC5/CySpc.c **** 
 522:Generated_Source\PSoC5/CySpc.c **** 
 523:Generated_Source\PSoC5/CySpc.c **** /*******************************************************************************
 524:Generated_Source\PSoC5/CySpc.c **** * Function Name: CySpcGetTemp
 525:Generated_Source\PSoC5/CySpc.c **** ****************************************************************************//**
 526:Generated_Source\PSoC5/CySpc.c **** *  Returns the internal die temperature
 527:Generated_Source\PSoC5/CySpc.c **** *
 528:Generated_Source\PSoC5/CySpc.c **** *  \param uint8 numSamples:
 529:Generated_Source\PSoC5/CySpc.c **** *   Number of samples. Valid values are 1-5, resulting in 2 - 32 samples
 530:Generated_Source\PSoC5/CySpc.c **** *   respectively.
 531:Generated_Source\PSoC5/CySpc.c **** *
 532:Generated_Source\PSoC5/CySpc.c **** * \param uint16 timerPeriod:
 533:Generated_Source\PSoC5/CySpc.c **** *   Number of ADC ACLK cycles. A valid 14 bit value is accepted, higher 2 bits
 534:Generated_Source\PSoC5/CySpc.c **** *   of 16 bit values are ignored.
 535:Generated_Source\PSoC5/CySpc.c **** *
 536:Generated_Source\PSoC5/CySpc.c **** * \param uint8 clkDivSelect:
 537:Generated_Source\PSoC5/CySpc.c **** *   ADC ACLK clock divide value. Valid values are 2 - 225.
 538:Generated_Source\PSoC5/CySpc.c **** *
 539:Generated_Source\PSoC5/CySpc.c **** * \return
 540:Generated_Source\PSoC5/CySpc.c **** *  CYRET_STARTED
 541:Generated_Source\PSoC5/CySpc.c **** *  CYRET_CANCELED
 542:Generated_Source\PSoC5/CySpc.c **** *  CYRET_LOCKED
 543:Generated_Source\PSoC5/CySpc.c **** *
 544:Generated_Source\PSoC5/CySpc.c **** *******************************************************************************/
 545:Generated_Source\PSoC5/CySpc.c **** cystatus CySpcGetTemp(uint8 numSamples)
 546:Generated_Source\PSoC5/CySpc.c **** {
 676              		.loc 1 546 0
 677              		.cfi_startproc
 678              		@ args = 0, pretend = 0, frame = 0
 679              		@ frame_needed = 0, uses_anonymous_args = 0
 680              		@ link register save eliminated.
 681              	.LVL74:
 547:Generated_Source\PSoC5/CySpc.c ****     cystatus status = CYRET_STARTED;
 548:Generated_Source\PSoC5/CySpc.c **** 
ARM GAS  C:\Users\kelvi\AppData\Local\Temp\ccmkFj2H.s 			page 23


 549:Generated_Source\PSoC5/CySpc.c ****     /* Make sure the SPC is ready to accept command */
 550:Generated_Source\PSoC5/CySpc.c ****     if(CY_SPC_IDLE)
 682              		.loc 1 550 0
 683 0000 0C4B     		ldr	r3, .L68
 684 0002 1B78     		ldrb	r3, [r3]	@ zero_extendqisi2
 685 0004 13F0020F 		tst	r3, #2
 686 0008 0FD0     		beq	.L66
 551:Generated_Source\PSoC5/CySpc.c ****     {
 552:Generated_Source\PSoC5/CySpc.c ****         CY_SPC_CPU_DATA_REG = CY_SPC_KEY_ONE;
 687              		.loc 1 552 0
 688 000a 0B4B     		ldr	r3, .L68+4
 689 000c B622     		movs	r2, #182
 690 000e 1A70     		strb	r2, [r3]
 553:Generated_Source\PSoC5/CySpc.c ****         CY_SPC_CPU_DATA_REG = CY_SPC_KEY_TWO(CY_SPC_CMD_GET_TEMP);
 691              		.loc 1 553 0
 692 0010 E122     		movs	r2, #225
 693 0012 1A70     		strb	r2, [r3]
 554:Generated_Source\PSoC5/CySpc.c ****         CY_SPC_CPU_DATA_REG = CY_SPC_CMD_GET_TEMP;
 694              		.loc 1 554 0
 695 0014 0E22     		movs	r2, #14
 696 0016 1A70     		strb	r2, [r3]
 555:Generated_Source\PSoC5/CySpc.c **** 
 556:Generated_Source\PSoC5/CySpc.c ****         /* Make sure the command was accepted */
 557:Generated_Source\PSoC5/CySpc.c ****         if(CY_SPC_BUSY)
 697              		.loc 1 557 0
 698 0018 0233     		adds	r3, r3, #2
 699 001a 1B78     		ldrb	r3, [r3]	@ zero_extendqisi2
 700 001c 13F0020F 		tst	r3, #2
 701 0020 05D1     		bne	.L67
 558:Generated_Source\PSoC5/CySpc.c ****         {
 559:Generated_Source\PSoC5/CySpc.c ****             CY_SPC_CPU_DATA_REG = numSamples;
 702              		.loc 1 559 0
 703 0022 054B     		ldr	r3, .L68+4
 704 0024 1870     		strb	r0, [r3]
 547:Generated_Source\PSoC5/CySpc.c **** 
 705              		.loc 1 547 0
 706 0026 0720     		movs	r0, #7
 707              	.LVL75:
 708 0028 7047     		bx	lr
 709              	.LVL76:
 710              	.L66:
 560:Generated_Source\PSoC5/CySpc.c ****         }
 561:Generated_Source\PSoC5/CySpc.c ****         else
 562:Generated_Source\PSoC5/CySpc.c ****         {
 563:Generated_Source\PSoC5/CySpc.c ****             status = CYRET_CANCELED;
 564:Generated_Source\PSoC5/CySpc.c ****         }
 565:Generated_Source\PSoC5/CySpc.c ****     }
 566:Generated_Source\PSoC5/CySpc.c ****     else
 567:Generated_Source\PSoC5/CySpc.c ****     {
 568:Generated_Source\PSoC5/CySpc.c ****         status = CYRET_LOCKED;
 711              		.loc 1 568 0
 712 002a 0420     		movs	r0, #4
 713              	.LVL77:
 714 002c 7047     		bx	lr
 715              	.LVL78:
 716              	.L67:
 563:Generated_Source\PSoC5/CySpc.c ****         }
ARM GAS  C:\Users\kelvi\AppData\Local\Temp\ccmkFj2H.s 			page 24


 717              		.loc 1 563 0
 718 002e 0920     		movs	r0, #9
 719              	.LVL79:
 569:Generated_Source\PSoC5/CySpc.c ****     }
 570:Generated_Source\PSoC5/CySpc.c **** 
 571:Generated_Source\PSoC5/CySpc.c ****     return(status);
 572:Generated_Source\PSoC5/CySpc.c **** }
 720              		.loc 1 572 0
 721 0030 7047     		bx	lr
 722              	.L69:
 723 0032 00BF     		.align	2
 724              	.L68:
 725 0034 22470040 		.word	1073760034
 726 0038 20470040 		.word	1073760032
 727              		.cfi_endproc
 728              	.LFE8:
 729              		.size	CySpcGetTemp, .-CySpcGetTemp
 730              		.section	.text.CySpcLock,"ax",%progbits
 731              		.align	2
 732              		.global	CySpcLock
 733              		.thumb
 734              		.thumb_func
 735              		.type	CySpcLock, %function
 736              	CySpcLock:
 737              	.LFB9:
 573:Generated_Source\PSoC5/CySpc.c **** 
 574:Generated_Source\PSoC5/CySpc.c **** 
 575:Generated_Source\PSoC5/CySpc.c **** /*******************************************************************************
 576:Generated_Source\PSoC5/CySpc.c **** * Function Name: CySpcLock
 577:Generated_Source\PSoC5/CySpc.c **** ****************************************************************************//**
 578:Generated_Source\PSoC5/CySpc.c **** *  Locks the SPC so it can not be used by someone else:
 579:Generated_Source\PSoC5/CySpc.c **** *   - Saves wait-pipeline enable state and enable pipeline (PSoC5)
 580:Generated_Source\PSoC5/CySpc.c **** *
 581:Generated_Source\PSoC5/CySpc.c **** * \return
 582:Generated_Source\PSoC5/CySpc.c **** *  CYRET_SUCCESS - if the resource was free.
 583:Generated_Source\PSoC5/CySpc.c **** *  CYRET_LOCKED  - if the SPC is in use.
 584:Generated_Source\PSoC5/CySpc.c **** *
 585:Generated_Source\PSoC5/CySpc.c **** *******************************************************************************/
 586:Generated_Source\PSoC5/CySpc.c **** cystatus CySpcLock(void)
 587:Generated_Source\PSoC5/CySpc.c **** {
 738              		.loc 1 587 0
 739              		.cfi_startproc
 740              		@ args = 0, pretend = 0, frame = 0
 741              		@ frame_needed = 0, uses_anonymous_args = 0
 742 0000 10B5     		push	{r4, lr}
 743              		.cfi_def_cfa_offset 8
 744              		.cfi_offset 4, -8
 745              		.cfi_offset 14, -4
 746              	.LVL80:
 588:Generated_Source\PSoC5/CySpc.c ****     cystatus status = CYRET_LOCKED;
 589:Generated_Source\PSoC5/CySpc.c ****     uint8 interruptState;
 590:Generated_Source\PSoC5/CySpc.c **** 
 591:Generated_Source\PSoC5/CySpc.c ****     /* Enter critical section */
 592:Generated_Source\PSoC5/CySpc.c ****     interruptState = CyEnterCriticalSection();
 747              		.loc 1 592 0
 748 0002 FFF7FEFF 		bl	CyEnterCriticalSection
 749              	.LVL81:
ARM GAS  C:\Users\kelvi\AppData\Local\Temp\ccmkFj2H.s 			page 25


 593:Generated_Source\PSoC5/CySpc.c **** 
 594:Generated_Source\PSoC5/CySpc.c ****     if(CY_SPC_UNLOCKED == SpcLockState)
 750              		.loc 1 594 0
 751 0006 0F4B     		ldr	r3, .L75
 752 0008 1B78     		ldrb	r3, [r3]	@ zero_extendqisi2
 753 000a A3B9     		cbnz	r3, .L72
 595:Generated_Source\PSoC5/CySpc.c ****     {
 596:Generated_Source\PSoC5/CySpc.c ****         SpcLockState = CY_SPC_LOCKED;
 754              		.loc 1 596 0
 755 000c 0122     		movs	r2, #1
 756 000e 0D4B     		ldr	r3, .L75
 757 0010 1A70     		strb	r2, [r3]
 758              	.LVL82:
 597:Generated_Source\PSoC5/CySpc.c ****         status = CYRET_SUCCESS;
 598:Generated_Source\PSoC5/CySpc.c **** 
 599:Generated_Source\PSoC5/CySpc.c ****         #if(CY_PSOC5)
 600:Generated_Source\PSoC5/CySpc.c **** 
 601:Generated_Source\PSoC5/CySpc.c ****             if(0u != (CY_SPC_CPU_WAITPIPE_REG & CY_SPC_CPU_WAITPIPE_BYPASS))
 759              		.loc 1 601 0
 760 0012 0D4B     		ldr	r3, .L75+4
 761 0014 1B68     		ldr	r3, [r3]
 762 0016 13F0010F 		tst	r3, #1
 763 001a 0ED0     		beq	.L73
 602:Generated_Source\PSoC5/CySpc.c ****             {
 603:Generated_Source\PSoC5/CySpc.c ****                 /* Enable pipeline registers */
 604:Generated_Source\PSoC5/CySpc.c ****                 CY_SPC_CPU_WAITPIPE_REG &= ((uint32)(~CY_SPC_CPU_WAITPIPE_BYPASS));
 764              		.loc 1 604 0
 765 001c 0A4A     		ldr	r2, .L75+4
 766 001e 1368     		ldr	r3, [r2]
 767 0020 23F00103 		bic	r3, r3, #1
 768 0024 1360     		str	r3, [r2]
 605:Generated_Source\PSoC5/CySpc.c **** 
 606:Generated_Source\PSoC5/CySpc.c ****                 /* At least 2 NOP instructions are recommended */
 607:Generated_Source\PSoC5/CySpc.c ****                 CY_NOP;
 769              		.loc 1 607 0
 770              	@ 607 "Generated_Source\PSoC5\CySpc.c" 1
 771 0026 00BF     		NOP
 772              	
 773              	@ 0 "" 2
 608:Generated_Source\PSoC5/CySpc.c ****                 CY_NOP;
 774              		.loc 1 608 0
 775              	@ 608 "Generated_Source\PSoC5\CySpc.c" 1
 776 0028 00BF     		NOP
 777              	
 778              	@ 0 "" 2
 609:Generated_Source\PSoC5/CySpc.c ****                 CY_NOP;
 779              		.loc 1 609 0
 780              	@ 609 "Generated_Source\PSoC5\CySpc.c" 1
 781 002a 00BF     		NOP
 782              	
 783              	@ 0 "" 2
 610:Generated_Source\PSoC5/CySpc.c **** 
 611:Generated_Source\PSoC5/CySpc.c ****                 spcWaitPipeBypass = CY_SPC_CPU_WAITPIPE_BYPASS;
 784              		.loc 1 611 0
 785              		.thumb
 786 002c 0122     		movs	r2, #1
 787 002e 054B     		ldr	r3, .L75
ARM GAS  C:\Users\kelvi\AppData\Local\Temp\ccmkFj2H.s 			page 26


 788 0030 5A60     		str	r2, [r3, #4]
 597:Generated_Source\PSoC5/CySpc.c **** 
 789              		.loc 1 597 0
 790 0032 0024     		movs	r4, #0
 791 0034 02E0     		b	.L71
 792              	.LVL83:
 793              	.L72:
 588:Generated_Source\PSoC5/CySpc.c ****     uint8 interruptState;
 794              		.loc 1 588 0
 795 0036 0424     		movs	r4, #4
 796 0038 00E0     		b	.L71
 797              	.LVL84:
 798              	.L73:
 597:Generated_Source\PSoC5/CySpc.c **** 
 799              		.loc 1 597 0
 800 003a 0024     		movs	r4, #0
 801              	.LVL85:
 802              	.L71:
 612:Generated_Source\PSoC5/CySpc.c ****             }
 613:Generated_Source\PSoC5/CySpc.c **** 
 614:Generated_Source\PSoC5/CySpc.c ****         #endif  /* (CY_PSOC5) */
 615:Generated_Source\PSoC5/CySpc.c ****     }
 616:Generated_Source\PSoC5/CySpc.c **** 
 617:Generated_Source\PSoC5/CySpc.c ****     /* Exit critical section */
 618:Generated_Source\PSoC5/CySpc.c ****     CyExitCriticalSection(interruptState);
 803              		.loc 1 618 0
 804 003c FFF7FEFF 		bl	CyExitCriticalSection
 805              	.LVL86:
 619:Generated_Source\PSoC5/CySpc.c **** 
 620:Generated_Source\PSoC5/CySpc.c ****     return(status);
 621:Generated_Source\PSoC5/CySpc.c **** }
 806              		.loc 1 621 0
 807 0040 2046     		mov	r0, r4
 808 0042 10BD     		pop	{r4, pc}
 809              	.LVL87:
 810              	.L76:
 811              		.align	2
 812              	.L75:
 813 0044 00000000 		.word	.LANCHOR0
 814 0048 04000840 		.word	1074266116
 815              		.cfi_endproc
 816              	.LFE9:
 817              		.size	CySpcLock, .-CySpcLock
 818              		.section	.text.CySpcUnlock,"ax",%progbits
 819              		.align	2
 820              		.global	CySpcUnlock
 821              		.thumb
 822              		.thumb_func
 823              		.type	CySpcUnlock, %function
 824              	CySpcUnlock:
 825              	.LFB10:
 622:Generated_Source\PSoC5/CySpc.c **** 
 623:Generated_Source\PSoC5/CySpc.c **** 
 624:Generated_Source\PSoC5/CySpc.c **** /*******************************************************************************
 625:Generated_Source\PSoC5/CySpc.c **** * Function Name: CySpcUnlock
 626:Generated_Source\PSoC5/CySpc.c **** ****************************************************************************//**
 627:Generated_Source\PSoC5/CySpc.c **** *  Unlocks the SPC so it can be used by someone else:
ARM GAS  C:\Users\kelvi\AppData\Local\Temp\ccmkFj2H.s 			page 27


 628:Generated_Source\PSoC5/CySpc.c **** *   - Restores wait-pipeline enable state (PSoC5)
 629:Generated_Source\PSoC5/CySpc.c **** *
 630:Generated_Source\PSoC5/CySpc.c **** *******************************************************************************/
 631:Generated_Source\PSoC5/CySpc.c **** void CySpcUnlock(void)
 632:Generated_Source\PSoC5/CySpc.c **** {
 826              		.loc 1 632 0
 827              		.cfi_startproc
 828              		@ args = 0, pretend = 0, frame = 0
 829              		@ frame_needed = 0, uses_anonymous_args = 0
 830 0000 08B5     		push	{r3, lr}
 831              		.cfi_def_cfa_offset 8
 832              		.cfi_offset 3, -8
 833              		.cfi_offset 14, -4
 633:Generated_Source\PSoC5/CySpc.c ****     uint8 interruptState;
 634:Generated_Source\PSoC5/CySpc.c **** 
 635:Generated_Source\PSoC5/CySpc.c ****     /* Enter critical section */
 636:Generated_Source\PSoC5/CySpc.c ****     interruptState = CyEnterCriticalSection();
 834              		.loc 1 636 0
 835 0002 FFF7FEFF 		bl	CyEnterCriticalSection
 836              	.LVL88:
 637:Generated_Source\PSoC5/CySpc.c **** 
 638:Generated_Source\PSoC5/CySpc.c ****     /* Release the SPC object */
 639:Generated_Source\PSoC5/CySpc.c ****     SpcLockState = CY_SPC_UNLOCKED;
 837              		.loc 1 639 0
 838 0006 0A4B     		ldr	r3, .L80
 839 0008 0022     		movs	r2, #0
 840 000a 1A70     		strb	r2, [r3]
 640:Generated_Source\PSoC5/CySpc.c **** 
 641:Generated_Source\PSoC5/CySpc.c ****     #if(CY_PSOC5)
 642:Generated_Source\PSoC5/CySpc.c **** 
 643:Generated_Source\PSoC5/CySpc.c ****         if(CY_SPC_CPU_WAITPIPE_BYPASS == spcWaitPipeBypass)
 841              		.loc 1 643 0
 842 000c 5B68     		ldr	r3, [r3, #4]
 843 000e 012B     		cmp	r3, #1
 844 0010 0AD1     		bne	.L78
 644:Generated_Source\PSoC5/CySpc.c ****         {
 645:Generated_Source\PSoC5/CySpc.c ****             /* Force to bypass pipeline registers */
 646:Generated_Source\PSoC5/CySpc.c ****             CY_SPC_CPU_WAITPIPE_REG |= CY_SPC_CPU_WAITPIPE_BYPASS;
 845              		.loc 1 646 0
 846 0012 084A     		ldr	r2, .L80+4
 847 0014 1368     		ldr	r3, [r2]
 848 0016 43F00103 		orr	r3, r3, #1
 849 001a 1360     		str	r3, [r2]
 647:Generated_Source\PSoC5/CySpc.c **** 
 648:Generated_Source\PSoC5/CySpc.c ****             /* At least 2 NOP instructions are recommended */
 649:Generated_Source\PSoC5/CySpc.c ****             CY_NOP;
 850              		.loc 1 649 0
 851              	@ 649 "Generated_Source\PSoC5\CySpc.c" 1
 852 001c 00BF     		NOP
 853              	
 854              	@ 0 "" 2
 650:Generated_Source\PSoC5/CySpc.c ****             CY_NOP;
 855              		.loc 1 650 0
 856              	@ 650 "Generated_Source\PSoC5\CySpc.c" 1
 857 001e 00BF     		NOP
 858              	
 859              	@ 0 "" 2
ARM GAS  C:\Users\kelvi\AppData\Local\Temp\ccmkFj2H.s 			page 28


 651:Generated_Source\PSoC5/CySpc.c ****             CY_NOP;
 860              		.loc 1 651 0
 861              	@ 651 "Generated_Source\PSoC5\CySpc.c" 1
 862 0020 00BF     		NOP
 863              	
 864              	@ 0 "" 2
 652:Generated_Source\PSoC5/CySpc.c **** 
 653:Generated_Source\PSoC5/CySpc.c ****             spcWaitPipeBypass = 0u;
 865              		.loc 1 653 0
 866              		.thumb
 867 0022 0022     		movs	r2, #0
 868 0024 024B     		ldr	r3, .L80
 869 0026 5A60     		str	r2, [r3, #4]
 870              	.L78:
 654:Generated_Source\PSoC5/CySpc.c ****         }
 655:Generated_Source\PSoC5/CySpc.c **** 
 656:Generated_Source\PSoC5/CySpc.c ****     #endif  /* (CY_PSOC5) */
 657:Generated_Source\PSoC5/CySpc.c **** 
 658:Generated_Source\PSoC5/CySpc.c ****     /* Exit critical section */
 659:Generated_Source\PSoC5/CySpc.c ****     CyExitCriticalSection(interruptState);
 871              		.loc 1 659 0
 872 0028 FFF7FEFF 		bl	CyExitCriticalSection
 873              	.LVL89:
 874 002c 08BD     		pop	{r3, pc}
 875              	.L81:
 876 002e 00BF     		.align	2
 877              	.L80:
 878 0030 00000000 		.word	.LANCHOR0
 879 0034 04000840 		.word	1074266116
 880              		.cfi_endproc
 881              	.LFE10:
 882              		.size	CySpcUnlock, .-CySpcUnlock
 883              		.section	.text.CySpcGetAlgorithm,"ax",%progbits
 884              		.align	2
 885              		.global	CySpcGetAlgorithm
 886              		.thumb
 887              		.thumb_func
 888              		.type	CySpcGetAlgorithm, %function
 889              	CySpcGetAlgorithm:
 890              	.LFB11:
 660:Generated_Source\PSoC5/CySpc.c **** }
 661:Generated_Source\PSoC5/CySpc.c **** 
 662:Generated_Source\PSoC5/CySpc.c **** 
 663:Generated_Source\PSoC5/CySpc.c **** /*******************************************************************************
 664:Generated_Source\PSoC5/CySpc.c **** * Function Name: CySpcGetAlgorithm
 665:Generated_Source\PSoC5/CySpc.c **** ****************************************************************************//**
 666:Generated_Source\PSoC5/CySpc.c **** *  Downloads SPC algorithm from SPC SROM into SRAM.
 667:Generated_Source\PSoC5/CySpc.c **** *
 668:Generated_Source\PSoC5/CySpc.c **** * \return
 669:Generated_Source\PSoC5/CySpc.c **** *  CYRET_STARTED
 670:Generated_Source\PSoC5/CySpc.c **** *  CYRET_LOCKED
 671:Generated_Source\PSoC5/CySpc.c **** *
 672:Generated_Source\PSoC5/CySpc.c **** *******************************************************************************/
 673:Generated_Source\PSoC5/CySpc.c **** cystatus CySpcGetAlgorithm(void)
 674:Generated_Source\PSoC5/CySpc.c **** {
 891              		.loc 1 674 0
 892              		.cfi_startproc
ARM GAS  C:\Users\kelvi\AppData\Local\Temp\ccmkFj2H.s 			page 29


 893              		@ args = 0, pretend = 0, frame = 0
 894              		@ frame_needed = 0, uses_anonymous_args = 0
 895              		@ link register save eliminated.
 896              	.LVL90:
 675:Generated_Source\PSoC5/CySpc.c ****     cystatus status = CYRET_STARTED;
 676:Generated_Source\PSoC5/CySpc.c **** 
 677:Generated_Source\PSoC5/CySpc.c ****     /* Make sure the SPC is ready to accept command */
 678:Generated_Source\PSoC5/CySpc.c ****     if(CY_SPC_IDLE)
 897              		.loc 1 678 0
 898 0000 074B     		ldr	r3, .L85
 899 0002 1B78     		ldrb	r3, [r3]	@ zero_extendqisi2
 900 0004 13F0020F 		tst	r3, #2
 901 0008 08D0     		beq	.L84
 679:Generated_Source\PSoC5/CySpc.c ****     {
 680:Generated_Source\PSoC5/CySpc.c ****         CY_SPC_CPU_DATA_REG = CY_SPC_KEY_ONE;
 902              		.loc 1 680 0
 903 000a 064B     		ldr	r3, .L85+4
 904 000c B622     		movs	r2, #182
 905 000e 1A70     		strb	r2, [r3]
 681:Generated_Source\PSoC5/CySpc.c ****         CY_SPC_CPU_DATA_REG = CY_SPC_KEY_TWO(CY_SPC_CMD_DWNLD_ALGORITHM);
 906              		.loc 1 681 0
 907 0010 E022     		movs	r2, #224
 908 0012 1A70     		strb	r2, [r3]
 682:Generated_Source\PSoC5/CySpc.c ****         CY_SPC_CPU_DATA_REG = CY_SPC_CMD_DWNLD_ALGORITHM;
 909              		.loc 1 682 0
 910 0014 0D22     		movs	r2, #13
 911 0016 1A70     		strb	r2, [r3]
 675:Generated_Source\PSoC5/CySpc.c **** 
 912              		.loc 1 675 0
 913 0018 0720     		movs	r0, #7
 914 001a 7047     		bx	lr
 915              	.L84:
 683:Generated_Source\PSoC5/CySpc.c ****     }
 684:Generated_Source\PSoC5/CySpc.c ****     else
 685:Generated_Source\PSoC5/CySpc.c ****     {
 686:Generated_Source\PSoC5/CySpc.c ****         status = CYRET_LOCKED;
 916              		.loc 1 686 0
 917 001c 0420     		movs	r0, #4
 918              	.LVL91:
 687:Generated_Source\PSoC5/CySpc.c ****     }
 688:Generated_Source\PSoC5/CySpc.c **** 
 689:Generated_Source\PSoC5/CySpc.c ****     return(status);
 690:Generated_Source\PSoC5/CySpc.c **** }
 919              		.loc 1 690 0
 920 001e 7047     		bx	lr
 921              	.L86:
 922              		.align	2
 923              	.L85:
 924 0020 22470040 		.word	1073760034
 925 0024 20470040 		.word	1073760032
 926              		.cfi_endproc
 927              	.LFE11:
 928              		.size	CySpcGetAlgorithm, .-CySpcGetAlgorithm
 929              		.global	SpcLockState
 930              		.bss
 931              		.align	2
 932              		.set	.LANCHOR0,. + 0
ARM GAS  C:\Users\kelvi\AppData\Local\Temp\ccmkFj2H.s 			page 30


 933              		.type	SpcLockState, %object
 934              		.size	SpcLockState, 1
 935              	SpcLockState:
 936 0000 00       		.space	1
 937 0001 000000   		.space	3
 938              		.type	spcWaitPipeBypass, %object
 939              		.size	spcWaitPipeBypass, 4
 940              	spcWaitPipeBypass:
 941 0004 00000000 		.space	4
 942              		.text
 943              	.Letext0:
 944              		.file 2 "Generated_Source\\PSoC5\\cytypes.h"
 945              		.file 3 "Generated_Source\\PSoC5\\CyLib.h"
