ARM GAS  C:\Users\kelvi\AppData\Local\Temp\ccdThfSN.s 			page 1


   1              		.syntax unified
   2              		.cpu cortex-m3
   3              		.fpu softvfp
   4              		.eabi_attribute 20, 1
   5              		.eabi_attribute 21, 1
   6              		.eabi_attribute 23, 3
   7              		.eabi_attribute 24, 1
   8              		.eabi_attribute 25, 1
   9              		.eabi_attribute 26, 1
  10              		.eabi_attribute 30, 1
  11              		.eabi_attribute 34, 1
  12              		.eabi_attribute 18, 4
  13              		.thumb
  14              		.file	"main.c"
  15              		.text
  16              	.Ltext0:
  17              		.cfi_sections	.debug_frame
  18              		.section	.text.main,"ax",%progbits
  19              		.align	2
  20              		.global	main
  21              		.thumb
  22              		.thumb_func
  23              		.type	main, %function
  24              	main:
  25              	.LFB63:
  26              		.file 1 "main.c"
   1:main.c        **** /* ========================================
   2:main.c        ****  *
   3:main.c        ****  * Copyright YOUR COMPANY, THE YEAR
   4:main.c        ****  * All Rights Reserved
   5:main.c        ****  * UNPUBLISHED, LICENSED SOFTWARE.
   6:main.c        ****  *
   7:main.c        ****  * CONFIDENTIAL AND PROPRIETARY INFORMATION
   8:main.c        ****  * WHICH IS THE PROPERTY OF your company.
   9:main.c        ****  *
  10:main.c        ****  * ========================================
  11:main.c        **** */
  12:main.c        **** #include "project.h"
  13:main.c        **** 
  14:main.c        **** int main(void)
  15:main.c        **** {
  27              		.loc 1 15 0
  28              		.cfi_startproc
  29              		@ args = 0, pretend = 0, frame = 0
  30              		@ frame_needed = 0, uses_anonymous_args = 0
  31 0000 10B5     		push	{r4, lr}
  32              		.cfi_def_cfa_offset 8
  33              		.cfi_offset 4, -8
  34              		.cfi_offset 14, -4
  16:main.c        ****    
  17:main.c        **** 
  18:main.c        ****     /* Place your initialization/startup code here (e.g. MyInst_Start()) */
  19:main.c        ****     myPWM_Start();
  35              		.loc 1 19 0
  36 0002 FFF7FEFF 		bl	myPWM_Start
  37              	.LVL0:
  20:main.c        ****     myPWM_Enable();
ARM GAS  C:\Users\kelvi\AppData\Local\Temp\ccdThfSN.s 			page 2


  38              		.loc 1 20 0
  39 0006 FFF7FEFF 		bl	myPWM_Enable
  40              	.LVL1:
  21:main.c        ****    
  22:main.c        ****     
  23:main.c        ****     myADC_Start();
  41              		.loc 1 23 0
  42 000a FFF7FEFF 		bl	myADC_Start
  43              	.LVL2:
  24:main.c        ****     
  25:main.c        ****     myTimer_Start();
  44              		.loc 1 25 0
  45 000e FFF7FEFF 		bl	myTimer_Start
  46              	.LVL3:
  26:main.c        ****     myTimer_Enable();
  47              		.loc 1 26 0
  48 0012 FFF7FEFF 		bl	myTimer_Enable
  49              	.LVL4:
  27:main.c        ****     
  28:main.c        ****     myCounter_Start();
  50              		.loc 1 28 0
  51 0016 FFF7FEFF 		bl	myCounter_Start
  52              	.LVL5:
  29:main.c        ****     myCounter_Enable();
  53              		.loc 1 29 0
  54 001a FFF7FEFF 		bl	myCounter_Enable
  55              	.LVL6:
  30:main.c        ****     
  31:main.c        ****     myInterrupt_Start();
  56              		.loc 1 31 0
  57 001e FFF7FEFF 		bl	myInterrupt_Start
  58              	.LVL7:
  32:main.c        ****     myInterrupt_Enable();
  59              		.loc 1 32 0
  60 0022 FFF7FEFF 		bl	myInterrupt_Enable
  61              	.LVL8:
  33:main.c        ****     
  34:main.c        ****     myVDAC_Start();
  62              		.loc 1 34 0
  63 0026 FFF7FEFF 		bl	myVDAC_Start
  64              	.LVL9:
  35:main.c        ****     myVDAC_Enable();
  65              		.loc 1 35 0
  66 002a FFF7FEFF 		bl	myVDAC_Enable
  67              	.LVL10:
  36:main.c        ****     
  37:main.c        ****     CyGlobalIntEnable; /* Enable global interrupts. */
  68              		.loc 1 37 0
  69              	@ 37 "main.c" 1
  70 002e 62B6     		CPSIE   i
  71              	@ 0 "" 2
  72              		.thumb
  73              	.L2:
  74              	.LBB2:
  38:main.c        ****     
  39:main.c        ****     for(;;)
  40:main.c        ****     {
ARM GAS  C:\Users\kelvi\AppData\Local\Temp\ccdThfSN.s 			page 3


  41:main.c        ****         uint16_t varAdc = myADC_Read32() / 65;
  75              		.loc 1 41 0 discriminator 1
  76 0030 FFF7FEFF 		bl	myADC_Read32
  77              	.LVL11:
  78 0034 064C     		ldr	r4, .L4
  79 0036 84FB0034 		smull	r3, r4, r4, r0
  80 003a C017     		asrs	r0, r0, #31
  81 003c C0EB6414 		rsb	r4, r0, r4, asr #5
  82 0040 A4B2     		uxth	r4, r4
  83              	.LVL12:
  42:main.c        ****         /* Place your application code here. */
  43:main.c        ****         myPWM_WritePeriod( varAdc);
  84              		.loc 1 43 0 discriminator 1
  85 0042 2046     		mov	r0, r4
  86 0044 FFF7FEFF 		bl	myPWM_WritePeriod
  87              	.LVL13:
  44:main.c        ****         myPWM_WriteCompare( varAdc / 2);
  88              		.loc 1 44 0 discriminator 1
  89 0048 6008     		lsrs	r0, r4, #1
  90 004a FFF7FEFF 		bl	myPWM_WriteCompare
  91              	.LVL14:
  92              	.LBE2:
  45:main.c        ****         
  46:main.c        ****     }
  93              		.loc 1 46 0 discriminator 1
  94 004e EFE7     		b	.L2
  95              	.L5:
  96              		.align	2
  97              	.L4:
  98 0050 7FE0077E 		.word	2114445439
  99              		.cfi_endproc
 100              	.LFE63:
 101              		.size	main, .-main
 102              		.text
 103              	.Letext0:
 104              		.file 2 "c:\\program files (x86)\\cypress\\psoc creator\\4.0\\psoc creator\\import\\gnu\\arm\\4.9.
 105              		.file 3 "c:\\program files (x86)\\cypress\\psoc creator\\4.0\\psoc creator\\import\\gnu\\arm\\4.9.
 106              		.file 4 "Generated_Source\\PSoC5/cytypes.h"
 107              		.file 5 "Generated_Source\\PSoC5/myPWM.h"
 108              		.file 6 "Generated_Source\\PSoC5/myADC.h"
 109              		.file 7 "Generated_Source\\PSoC5/myTimer.h"
 110              		.file 8 "Generated_Source\\PSoC5/myCounter.h"
 111              		.file 9 "Generated_Source\\PSoC5/myInterrupt.h"
 112              		.file 10 "Generated_Source\\PSoC5/myVDAC.h"
 113              		.file 11 "Generated_Source\\PSoC5/core_cm3.h"
