ARM GAS  C:\Users\kelvi\AppData\Local\Temp\ccgWx9pP.s 			page 1


   1              		.syntax unified
   2              		.cpu cortex-m3
   3              		.fpu softvfp
   4              		.eabi_attribute 20, 1
   5              		.eabi_attribute 21, 1
   6              		.eabi_attribute 23, 3
   7              		.eabi_attribute 24, 1
   8              		.eabi_attribute 25, 1
   9              		.eabi_attribute 26, 1
  10              		.eabi_attribute 30, 1
  11              		.eabi_attribute 34, 1
  12              		.eabi_attribute 18, 4
  13              		.thumb
  14              		.file	"myVDAC_PM.c"
  15              		.text
  16              	.Ltext0:
  17              		.cfi_sections	.debug_frame
  18              		.section	.text.myVDAC_SaveConfig,"ax",%progbits
  19              		.align	2
  20              		.global	myVDAC_SaveConfig
  21              		.thumb
  22              		.thumb_func
  23              		.type	myVDAC_SaveConfig, %function
  24              	myVDAC_SaveConfig:
  25              	.LFB0:
  26              		.file 1 "Generated_Source\\PSoC5\\myVDAC_PM.c"
   1:Generated_Source\PSoC5/myVDAC_PM.c **** /*******************************************************************************
   2:Generated_Source\PSoC5/myVDAC_PM.c **** * File Name: myVDAC_PM.c  
   3:Generated_Source\PSoC5/myVDAC_PM.c **** * Version 1.90
   4:Generated_Source\PSoC5/myVDAC_PM.c **** *
   5:Generated_Source\PSoC5/myVDAC_PM.c **** * Description:
   6:Generated_Source\PSoC5/myVDAC_PM.c **** *  This file provides the power management source code to API for the
   7:Generated_Source\PSoC5/myVDAC_PM.c **** *  VDAC8.  
   8:Generated_Source\PSoC5/myVDAC_PM.c **** *
   9:Generated_Source\PSoC5/myVDAC_PM.c **** * Note:
  10:Generated_Source\PSoC5/myVDAC_PM.c **** *  None
  11:Generated_Source\PSoC5/myVDAC_PM.c **** *
  12:Generated_Source\PSoC5/myVDAC_PM.c **** ********************************************************************************
  13:Generated_Source\PSoC5/myVDAC_PM.c **** * Copyright 2008-2012, Cypress Semiconductor Corporation.  All rights reserved.
  14:Generated_Source\PSoC5/myVDAC_PM.c **** * You may use this file only in accordance with the license, terms, conditions, 
  15:Generated_Source\PSoC5/myVDAC_PM.c **** * disclaimers, and limitations in the end user license agreement accompanying 
  16:Generated_Source\PSoC5/myVDAC_PM.c **** * the software package with which this file was provided.
  17:Generated_Source\PSoC5/myVDAC_PM.c **** *******************************************************************************/
  18:Generated_Source\PSoC5/myVDAC_PM.c **** 
  19:Generated_Source\PSoC5/myVDAC_PM.c **** #include "myVDAC.h"
  20:Generated_Source\PSoC5/myVDAC_PM.c **** 
  21:Generated_Source\PSoC5/myVDAC_PM.c **** static myVDAC_backupStruct myVDAC_backup;
  22:Generated_Source\PSoC5/myVDAC_PM.c **** 
  23:Generated_Source\PSoC5/myVDAC_PM.c **** 
  24:Generated_Source\PSoC5/myVDAC_PM.c **** /*******************************************************************************
  25:Generated_Source\PSoC5/myVDAC_PM.c **** * Function Name: myVDAC_SaveConfig
  26:Generated_Source\PSoC5/myVDAC_PM.c **** ********************************************************************************
  27:Generated_Source\PSoC5/myVDAC_PM.c **** * Summary:
  28:Generated_Source\PSoC5/myVDAC_PM.c **** *  Save the current user configuration
  29:Generated_Source\PSoC5/myVDAC_PM.c **** *
  30:Generated_Source\PSoC5/myVDAC_PM.c **** * Parameters:  
  31:Generated_Source\PSoC5/myVDAC_PM.c **** *  void  
ARM GAS  C:\Users\kelvi\AppData\Local\Temp\ccgWx9pP.s 			page 2


  32:Generated_Source\PSoC5/myVDAC_PM.c **** *
  33:Generated_Source\PSoC5/myVDAC_PM.c **** * Return: 
  34:Generated_Source\PSoC5/myVDAC_PM.c **** *  void
  35:Generated_Source\PSoC5/myVDAC_PM.c **** *
  36:Generated_Source\PSoC5/myVDAC_PM.c **** *******************************************************************************/
  37:Generated_Source\PSoC5/myVDAC_PM.c **** void myVDAC_SaveConfig(void) 
  38:Generated_Source\PSoC5/myVDAC_PM.c **** {
  27              		.loc 1 38 0
  28              		.cfi_startproc
  29              		@ args = 0, pretend = 0, frame = 0
  30              		@ frame_needed = 0, uses_anonymous_args = 0
  31              		@ link register save eliminated.
  39:Generated_Source\PSoC5/myVDAC_PM.c ****     if (!((myVDAC_CR1 & myVDAC_SRC_MASK) == myVDAC_SRC_UDB))
  32              		.loc 1 39 0
  33 0000 044B     		ldr	r3, .L3
  34 0002 1B78     		ldrb	r3, [r3]	@ zero_extendqisi2
  35 0004 13F0200F 		tst	r3, #32
  36 0008 03D1     		bne	.L1
  40:Generated_Source\PSoC5/myVDAC_PM.c ****     {
  41:Generated_Source\PSoC5/myVDAC_PM.c ****         myVDAC_backup.data_value = myVDAC_Data;
  37              		.loc 1 41 0
  38 000a 034B     		ldr	r3, .L3+4
  39 000c 1A78     		ldrb	r2, [r3]	@ zero_extendqisi2
  40 000e 034B     		ldr	r3, .L3+8
  41 0010 5A70     		strb	r2, [r3, #1]
  42              	.L1:
  43 0012 7047     		bx	lr
  44              	.L4:
  45              		.align	2
  46              	.L3:
  47 0014 21580040 		.word	1073764385
  48 0018 805B0040 		.word	1073765248
  49 001c 00000000 		.word	.LANCHOR0
  50              		.cfi_endproc
  51              	.LFE0:
  52              		.size	myVDAC_SaveConfig, .-myVDAC_SaveConfig
  53              		.section	.text.myVDAC_RestoreConfig,"ax",%progbits
  54              		.align	2
  55              		.global	myVDAC_RestoreConfig
  56              		.thumb
  57              		.thumb_func
  58              		.type	myVDAC_RestoreConfig, %function
  59              	myVDAC_RestoreConfig:
  60              	.LFB1:
  42:Generated_Source\PSoC5/myVDAC_PM.c ****     }
  43:Generated_Source\PSoC5/myVDAC_PM.c **** }
  44:Generated_Source\PSoC5/myVDAC_PM.c **** 
  45:Generated_Source\PSoC5/myVDAC_PM.c **** 
  46:Generated_Source\PSoC5/myVDAC_PM.c **** /*******************************************************************************
  47:Generated_Source\PSoC5/myVDAC_PM.c **** * Function Name: myVDAC_RestoreConfig
  48:Generated_Source\PSoC5/myVDAC_PM.c **** ********************************************************************************
  49:Generated_Source\PSoC5/myVDAC_PM.c **** *
  50:Generated_Source\PSoC5/myVDAC_PM.c **** * Summary:
  51:Generated_Source\PSoC5/myVDAC_PM.c **** *  Restores the current user configuration.
  52:Generated_Source\PSoC5/myVDAC_PM.c **** *
  53:Generated_Source\PSoC5/myVDAC_PM.c **** * Parameters:  
  54:Generated_Source\PSoC5/myVDAC_PM.c **** *  void
ARM GAS  C:\Users\kelvi\AppData\Local\Temp\ccgWx9pP.s 			page 3


  55:Generated_Source\PSoC5/myVDAC_PM.c **** *
  56:Generated_Source\PSoC5/myVDAC_PM.c **** * Return: 
  57:Generated_Source\PSoC5/myVDAC_PM.c **** *  void
  58:Generated_Source\PSoC5/myVDAC_PM.c **** *
  59:Generated_Source\PSoC5/myVDAC_PM.c **** *******************************************************************************/
  60:Generated_Source\PSoC5/myVDAC_PM.c **** void myVDAC_RestoreConfig(void) 
  61:Generated_Source\PSoC5/myVDAC_PM.c **** {
  61              		.loc 1 61 0
  62              		.cfi_startproc
  63              		@ args = 0, pretend = 0, frame = 0
  64              		@ frame_needed = 0, uses_anonymous_args = 0
  65              		@ link register save eliminated.
  62:Generated_Source\PSoC5/myVDAC_PM.c ****     if (!((myVDAC_CR1 & myVDAC_SRC_MASK) == myVDAC_SRC_UDB))
  66              		.loc 1 62 0
  67 0000 0E4B     		ldr	r3, .L8
  68 0002 1B78     		ldrb	r3, [r3]	@ zero_extendqisi2
  69 0004 13F0200F 		tst	r3, #32
  70 0008 16D1     		bne	.L5
  63:Generated_Source\PSoC5/myVDAC_PM.c ****     {
  64:Generated_Source\PSoC5/myVDAC_PM.c ****         if((myVDAC_Strobe & myVDAC_STRB_MASK) == myVDAC_STRB_EN)
  71              		.loc 1 64 0
  72 000a 0D4B     		ldr	r3, .L8+4
  73 000c 1B78     		ldrb	r3, [r3]	@ zero_extendqisi2
  74 000e 13F0080F 		tst	r3, #8
  75 0012 0DD0     		beq	.L7
  65:Generated_Source\PSoC5/myVDAC_PM.c ****         {
  66:Generated_Source\PSoC5/myVDAC_PM.c ****             myVDAC_Strobe &= (uint8)(~myVDAC_STRB_MASK);
  76              		.loc 1 66 0
  77 0014 0A4B     		ldr	r3, .L8+4
  78 0016 1A78     		ldrb	r2, [r3]	@ zero_extendqisi2
  79 0018 02F0F702 		and	r2, r2, #247
  80 001c 1A70     		strb	r2, [r3]
  67:Generated_Source\PSoC5/myVDAC_PM.c ****             myVDAC_Data = myVDAC_backup.data_value;
  81              		.loc 1 67 0
  82 001e 094A     		ldr	r2, .L8+8
  83 0020 5178     		ldrb	r1, [r2, #1]	@ zero_extendqisi2
  84 0022 094A     		ldr	r2, .L8+12
  85 0024 1170     		strb	r1, [r2]
  68:Generated_Source\PSoC5/myVDAC_PM.c ****             myVDAC_Strobe |= myVDAC_STRB_EN;
  86              		.loc 1 68 0
  87 0026 1A78     		ldrb	r2, [r3]	@ zero_extendqisi2
  88 0028 42F00802 		orr	r2, r2, #8
  89 002c 1A70     		strb	r2, [r3]
  90 002e 7047     		bx	lr
  91              	.L7:
  69:Generated_Source\PSoC5/myVDAC_PM.c ****         }
  70:Generated_Source\PSoC5/myVDAC_PM.c ****         else
  71:Generated_Source\PSoC5/myVDAC_PM.c ****         {
  72:Generated_Source\PSoC5/myVDAC_PM.c ****             myVDAC_Data = myVDAC_backup.data_value;
  92              		.loc 1 72 0
  93 0030 044B     		ldr	r3, .L8+8
  94 0032 5A78     		ldrb	r2, [r3, #1]	@ zero_extendqisi2
  95 0034 044B     		ldr	r3, .L8+12
  96 0036 1A70     		strb	r2, [r3]
  97              	.L5:
  98 0038 7047     		bx	lr
  99              	.L9:
ARM GAS  C:\Users\kelvi\AppData\Local\Temp\ccgWx9pP.s 			page 4


 100 003a 00BF     		.align	2
 101              	.L8:
 102 003c 21580040 		.word	1073764385
 103 0040 875A0040 		.word	1073764999
 104 0044 00000000 		.word	.LANCHOR0
 105 0048 805B0040 		.word	1073765248
 106              		.cfi_endproc
 107              	.LFE1:
 108              		.size	myVDAC_RestoreConfig, .-myVDAC_RestoreConfig
 109              		.section	.text.myVDAC_Sleep,"ax",%progbits
 110              		.align	2
 111              		.global	myVDAC_Sleep
 112              		.thumb
 113              		.thumb_func
 114              		.type	myVDAC_Sleep, %function
 115              	myVDAC_Sleep:
 116              	.LFB2:
  73:Generated_Source\PSoC5/myVDAC_PM.c ****         }
  74:Generated_Source\PSoC5/myVDAC_PM.c ****     }
  75:Generated_Source\PSoC5/myVDAC_PM.c **** }
  76:Generated_Source\PSoC5/myVDAC_PM.c **** 
  77:Generated_Source\PSoC5/myVDAC_PM.c **** 
  78:Generated_Source\PSoC5/myVDAC_PM.c **** /*******************************************************************************
  79:Generated_Source\PSoC5/myVDAC_PM.c **** * Function Name: myVDAC_Sleep
  80:Generated_Source\PSoC5/myVDAC_PM.c **** ********************************************************************************
  81:Generated_Source\PSoC5/myVDAC_PM.c **** * Summary:
  82:Generated_Source\PSoC5/myVDAC_PM.c **** *  Stop and Save the user configuration
  83:Generated_Source\PSoC5/myVDAC_PM.c **** *
  84:Generated_Source\PSoC5/myVDAC_PM.c **** * Parameters:  
  85:Generated_Source\PSoC5/myVDAC_PM.c **** *  void:  
  86:Generated_Source\PSoC5/myVDAC_PM.c **** *
  87:Generated_Source\PSoC5/myVDAC_PM.c **** * Return: 
  88:Generated_Source\PSoC5/myVDAC_PM.c **** *  void
  89:Generated_Source\PSoC5/myVDAC_PM.c **** *
  90:Generated_Source\PSoC5/myVDAC_PM.c **** * Global variables:
  91:Generated_Source\PSoC5/myVDAC_PM.c **** *  myVDAC_backup.enableState:  Is modified depending on the enable 
  92:Generated_Source\PSoC5/myVDAC_PM.c **** *  state  of the block before entering sleep mode.
  93:Generated_Source\PSoC5/myVDAC_PM.c **** *
  94:Generated_Source\PSoC5/myVDAC_PM.c **** *******************************************************************************/
  95:Generated_Source\PSoC5/myVDAC_PM.c **** void myVDAC_Sleep(void) 
  96:Generated_Source\PSoC5/myVDAC_PM.c **** {
 117              		.loc 1 96 0
 118              		.cfi_startproc
 119              		@ args = 0, pretend = 0, frame = 0
 120              		@ frame_needed = 0, uses_anonymous_args = 0
 121 0000 08B5     		push	{r3, lr}
 122              		.cfi_def_cfa_offset 8
 123              		.cfi_offset 3, -8
 124              		.cfi_offset 14, -4
  97:Generated_Source\PSoC5/myVDAC_PM.c ****     /* Save VDAC8's enable state */    
  98:Generated_Source\PSoC5/myVDAC_PM.c ****     if(myVDAC_ACT_PWR_EN == (myVDAC_PWRMGR & myVDAC_ACT_PWR_EN))
 125              		.loc 1 98 0
 126 0002 084B     		ldr	r3, .L14
 127 0004 1B78     		ldrb	r3, [r3]	@ zero_extendqisi2
 128 0006 13F0010F 		tst	r3, #1
 129 000a 03D0     		beq	.L11
  99:Generated_Source\PSoC5/myVDAC_PM.c ****     {
ARM GAS  C:\Users\kelvi\AppData\Local\Temp\ccgWx9pP.s 			page 5


 100:Generated_Source\PSoC5/myVDAC_PM.c ****         /* VDAC8 is enabled */
 101:Generated_Source\PSoC5/myVDAC_PM.c ****         myVDAC_backup.enableState = 1u;
 130              		.loc 1 101 0
 131 000c 0122     		movs	r2, #1
 132 000e 064B     		ldr	r3, .L14+4
 133 0010 1A70     		strb	r2, [r3]
 134 0012 02E0     		b	.L12
 135              	.L11:
 102:Generated_Source\PSoC5/myVDAC_PM.c ****     }
 103:Generated_Source\PSoC5/myVDAC_PM.c ****     else
 104:Generated_Source\PSoC5/myVDAC_PM.c ****     {
 105:Generated_Source\PSoC5/myVDAC_PM.c ****         /* VDAC8 is disabled */
 106:Generated_Source\PSoC5/myVDAC_PM.c ****         myVDAC_backup.enableState = 0u;
 136              		.loc 1 106 0
 137 0014 0022     		movs	r2, #0
 138 0016 044B     		ldr	r3, .L14+4
 139 0018 1A70     		strb	r2, [r3]
 140              	.L12:
 107:Generated_Source\PSoC5/myVDAC_PM.c ****     }
 108:Generated_Source\PSoC5/myVDAC_PM.c ****     
 109:Generated_Source\PSoC5/myVDAC_PM.c ****     myVDAC_Stop();
 141              		.loc 1 109 0
 142 001a FFF7FEFF 		bl	myVDAC_Stop
 143              	.LVL0:
 110:Generated_Source\PSoC5/myVDAC_PM.c ****     myVDAC_SaveConfig();
 144              		.loc 1 110 0
 145 001e FFF7FEFF 		bl	myVDAC_SaveConfig
 146              	.LVL1:
 147 0022 08BD     		pop	{r3, pc}
 148              	.L15:
 149              		.align	2
 150              	.L14:
 151 0024 A8430040 		.word	1073759144
 152 0028 00000000 		.word	.LANCHOR0
 153              		.cfi_endproc
 154              	.LFE2:
 155              		.size	myVDAC_Sleep, .-myVDAC_Sleep
 156              		.section	.text.myVDAC_Wakeup,"ax",%progbits
 157              		.align	2
 158              		.global	myVDAC_Wakeup
 159              		.thumb
 160              		.thumb_func
 161              		.type	myVDAC_Wakeup, %function
 162              	myVDAC_Wakeup:
 163              	.LFB3:
 111:Generated_Source\PSoC5/myVDAC_PM.c **** }
 112:Generated_Source\PSoC5/myVDAC_PM.c **** 
 113:Generated_Source\PSoC5/myVDAC_PM.c **** 
 114:Generated_Source\PSoC5/myVDAC_PM.c **** /*******************************************************************************
 115:Generated_Source\PSoC5/myVDAC_PM.c **** * Function Name: myVDAC_Wakeup
 116:Generated_Source\PSoC5/myVDAC_PM.c **** ********************************************************************************
 117:Generated_Source\PSoC5/myVDAC_PM.c **** *
 118:Generated_Source\PSoC5/myVDAC_PM.c **** * Summary:
 119:Generated_Source\PSoC5/myVDAC_PM.c **** *  Restores and enables the user configuration
 120:Generated_Source\PSoC5/myVDAC_PM.c **** *  
 121:Generated_Source\PSoC5/myVDAC_PM.c **** * Parameters:  
 122:Generated_Source\PSoC5/myVDAC_PM.c **** *  void
ARM GAS  C:\Users\kelvi\AppData\Local\Temp\ccgWx9pP.s 			page 6


 123:Generated_Source\PSoC5/myVDAC_PM.c **** *
 124:Generated_Source\PSoC5/myVDAC_PM.c **** * Return: 
 125:Generated_Source\PSoC5/myVDAC_PM.c **** *  void
 126:Generated_Source\PSoC5/myVDAC_PM.c **** *
 127:Generated_Source\PSoC5/myVDAC_PM.c **** * Global variables:
 128:Generated_Source\PSoC5/myVDAC_PM.c **** *  myVDAC_backup.enableState:  Is used to restore the enable state of 
 129:Generated_Source\PSoC5/myVDAC_PM.c **** *  block on wakeup from sleep mode.
 130:Generated_Source\PSoC5/myVDAC_PM.c **** *
 131:Generated_Source\PSoC5/myVDAC_PM.c **** *******************************************************************************/
 132:Generated_Source\PSoC5/myVDAC_PM.c **** void myVDAC_Wakeup(void) 
 133:Generated_Source\PSoC5/myVDAC_PM.c **** {
 164              		.loc 1 133 0
 165              		.cfi_startproc
 166              		@ args = 0, pretend = 0, frame = 0
 167              		@ frame_needed = 0, uses_anonymous_args = 0
 168 0000 08B5     		push	{r3, lr}
 169              		.cfi_def_cfa_offset 8
 170              		.cfi_offset 3, -8
 171              		.cfi_offset 14, -4
 134:Generated_Source\PSoC5/myVDAC_PM.c ****     myVDAC_RestoreConfig();
 172              		.loc 1 134 0
 173 0002 FFF7FEFF 		bl	myVDAC_RestoreConfig
 174              	.LVL2:
 135:Generated_Source\PSoC5/myVDAC_PM.c ****     
 136:Generated_Source\PSoC5/myVDAC_PM.c ****     if(myVDAC_backup.enableState == 1u)
 175              		.loc 1 136 0
 176 0006 054B     		ldr	r3, .L19
 177 0008 1B78     		ldrb	r3, [r3]	@ zero_extendqisi2
 178 000a 012B     		cmp	r3, #1
 179 000c 05D1     		bne	.L16
 137:Generated_Source\PSoC5/myVDAC_PM.c ****     {
 138:Generated_Source\PSoC5/myVDAC_PM.c ****         /* Enable VDAC8's operation */
 139:Generated_Source\PSoC5/myVDAC_PM.c ****         myVDAC_Enable();
 180              		.loc 1 139 0
 181 000e FFF7FEFF 		bl	myVDAC_Enable
 182              	.LVL3:
 140:Generated_Source\PSoC5/myVDAC_PM.c **** 
 141:Generated_Source\PSoC5/myVDAC_PM.c ****         /* Restore the data register */
 142:Generated_Source\PSoC5/myVDAC_PM.c ****         myVDAC_SetValue(myVDAC_Data);
 183              		.loc 1 142 0
 184 0012 034B     		ldr	r3, .L19+4
 185 0014 1878     		ldrb	r0, [r3]	@ zero_extendqisi2
 186 0016 FFF7FEFF 		bl	myVDAC_SetValue
 187              	.LVL4:
 188              	.L16:
 189 001a 08BD     		pop	{r3, pc}
 190              	.L20:
 191              		.align	2
 192              	.L19:
 193 001c 00000000 		.word	.LANCHOR0
 194 0020 805B0040 		.word	1073765248
 195              		.cfi_endproc
 196              	.LFE3:
 197              		.size	myVDAC_Wakeup, .-myVDAC_Wakeup
 198              		.bss
 199              		.align	2
 200              		.set	.LANCHOR0,. + 0
ARM GAS  C:\Users\kelvi\AppData\Local\Temp\ccgWx9pP.s 			page 7


 201              		.type	myVDAC_backup, %object
 202              		.size	myVDAC_backup, 2
 203              	myVDAC_backup:
 204 0000 0000     		.space	2
 205 0002 0000     		.text
 206              	.Letext0:
 207              		.file 2 "Generated_Source\\PSoC5\\cytypes.h"
 208              		.file 3 "Generated_Source\\PSoC5\\myVDAC.h"
