ARM GAS  C:\Users\kelvi\AppData\Local\Temp\cckgGyJy.s 			page 1


   1              		.syntax unified
   2              		.cpu cortex-m3
   3              		.fpu softvfp
   4              		.eabi_attribute 20, 1
   5              		.eabi_attribute 21, 1
   6              		.eabi_attribute 23, 3
   7              		.eabi_attribute 24, 1
   8              		.eabi_attribute 25, 1
   9              		.eabi_attribute 26, 1
  10              		.eabi_attribute 30, 1
  11              		.eabi_attribute 34, 1
  12              		.eabi_attribute 18, 4
  13              		.thumb
  14              		.file	"myVDAC.c"
  15              		.text
  16              	.Ltext0:
  17              		.cfi_sections	.debug_frame
  18              		.section	.text.myVDAC_Enable,"ax",%progbits
  19              		.align	2
  20              		.global	myVDAC_Enable
  21              		.thumb
  22              		.thumb_func
  23              		.type	myVDAC_Enable, %function
  24              	myVDAC_Enable:
  25              	.LFB1:
  26              		.file 1 "Generated_Source\\PSoC5\\myVDAC.c"
   1:Generated_Source\PSoC5/myVDAC.c **** /*******************************************************************************
   2:Generated_Source\PSoC5/myVDAC.c **** * File Name: myVDAC.c  
   3:Generated_Source\PSoC5/myVDAC.c **** * Version 1.90
   4:Generated_Source\PSoC5/myVDAC.c **** *
   5:Generated_Source\PSoC5/myVDAC.c **** * Description:
   6:Generated_Source\PSoC5/myVDAC.c **** *  This file provides the source code to the API for the 8-bit Voltage DAC 
   7:Generated_Source\PSoC5/myVDAC.c **** *  (VDAC8) User Module.
   8:Generated_Source\PSoC5/myVDAC.c **** *
   9:Generated_Source\PSoC5/myVDAC.c **** * Note:
  10:Generated_Source\PSoC5/myVDAC.c **** *  Any unusual or non-standard behavior should be noted here. Other-
  11:Generated_Source\PSoC5/myVDAC.c **** *  wise, this section should remain blank.
  12:Generated_Source\PSoC5/myVDAC.c **** *
  13:Generated_Source\PSoC5/myVDAC.c **** ********************************************************************************
  14:Generated_Source\PSoC5/myVDAC.c **** * Copyright 2008-2012, Cypress Semiconductor Corporation.  All rights reserved.
  15:Generated_Source\PSoC5/myVDAC.c **** * You may use this file only in accordance with the license, terms, conditions, 
  16:Generated_Source\PSoC5/myVDAC.c **** * disclaimers, and limitations in the end user license agreement accompanying 
  17:Generated_Source\PSoC5/myVDAC.c **** * the software package with which this file was provided.
  18:Generated_Source\PSoC5/myVDAC.c **** *******************************************************************************/
  19:Generated_Source\PSoC5/myVDAC.c **** 
  20:Generated_Source\PSoC5/myVDAC.c **** #include "cytypes.h"
  21:Generated_Source\PSoC5/myVDAC.c **** #include "myVDAC.h"
  22:Generated_Source\PSoC5/myVDAC.c **** 
  23:Generated_Source\PSoC5/myVDAC.c **** #if (CY_PSOC5A)
  24:Generated_Source\PSoC5/myVDAC.c **** #include <CyLib.h>
  25:Generated_Source\PSoC5/myVDAC.c **** #endif /* CY_PSOC5A */
  26:Generated_Source\PSoC5/myVDAC.c **** 
  27:Generated_Source\PSoC5/myVDAC.c **** uint8 myVDAC_initVar = 0u;
  28:Generated_Source\PSoC5/myVDAC.c **** 
  29:Generated_Source\PSoC5/myVDAC.c **** #if (CY_PSOC5A)
  30:Generated_Source\PSoC5/myVDAC.c ****     static uint8 myVDAC_restoreVal = 0u;
  31:Generated_Source\PSoC5/myVDAC.c **** #endif /* CY_PSOC5A */
ARM GAS  C:\Users\kelvi\AppData\Local\Temp\cckgGyJy.s 			page 2


  32:Generated_Source\PSoC5/myVDAC.c **** 
  33:Generated_Source\PSoC5/myVDAC.c **** #if (CY_PSOC5A)
  34:Generated_Source\PSoC5/myVDAC.c ****     static myVDAC_backupStruct myVDAC_backup;
  35:Generated_Source\PSoC5/myVDAC.c **** #endif /* CY_PSOC5A */
  36:Generated_Source\PSoC5/myVDAC.c **** 
  37:Generated_Source\PSoC5/myVDAC.c **** 
  38:Generated_Source\PSoC5/myVDAC.c **** /*******************************************************************************
  39:Generated_Source\PSoC5/myVDAC.c **** * Function Name: myVDAC_Init
  40:Generated_Source\PSoC5/myVDAC.c **** ********************************************************************************
  41:Generated_Source\PSoC5/myVDAC.c **** * Summary:
  42:Generated_Source\PSoC5/myVDAC.c **** *  Initialize to the schematic state.
  43:Generated_Source\PSoC5/myVDAC.c **** * 
  44:Generated_Source\PSoC5/myVDAC.c **** * Parameters:
  45:Generated_Source\PSoC5/myVDAC.c **** *  void:
  46:Generated_Source\PSoC5/myVDAC.c **** *
  47:Generated_Source\PSoC5/myVDAC.c **** * Return:
  48:Generated_Source\PSoC5/myVDAC.c **** *  void
  49:Generated_Source\PSoC5/myVDAC.c **** *
  50:Generated_Source\PSoC5/myVDAC.c **** * Theory:
  51:Generated_Source\PSoC5/myVDAC.c **** *
  52:Generated_Source\PSoC5/myVDAC.c **** * Side Effects:
  53:Generated_Source\PSoC5/myVDAC.c **** *
  54:Generated_Source\PSoC5/myVDAC.c **** *******************************************************************************/
  55:Generated_Source\PSoC5/myVDAC.c **** void myVDAC_Init(void) 
  56:Generated_Source\PSoC5/myVDAC.c **** {
  57:Generated_Source\PSoC5/myVDAC.c ****     myVDAC_CR0 = (myVDAC_MODE_V );
  58:Generated_Source\PSoC5/myVDAC.c **** 
  59:Generated_Source\PSoC5/myVDAC.c ****     /* Set default data source */
  60:Generated_Source\PSoC5/myVDAC.c ****     #if(myVDAC_DEFAULT_DATA_SRC != 0 )
  61:Generated_Source\PSoC5/myVDAC.c ****         myVDAC_CR1 = (myVDAC_DEFAULT_CNTL | myVDAC_DACBUS_ENABLE) ;
  62:Generated_Source\PSoC5/myVDAC.c ****     #else
  63:Generated_Source\PSoC5/myVDAC.c ****         myVDAC_CR1 = (myVDAC_DEFAULT_CNTL | myVDAC_DACBUS_DISABLE) ;
  64:Generated_Source\PSoC5/myVDAC.c ****     #endif /* (myVDAC_DEFAULT_DATA_SRC != 0 ) */
  65:Generated_Source\PSoC5/myVDAC.c **** 
  66:Generated_Source\PSoC5/myVDAC.c ****     /* Set default strobe mode */
  67:Generated_Source\PSoC5/myVDAC.c ****     #if(myVDAC_DEFAULT_STRB != 0)
  68:Generated_Source\PSoC5/myVDAC.c ****         myVDAC_Strobe |= myVDAC_STRB_EN ;
  69:Generated_Source\PSoC5/myVDAC.c ****     #endif/* (myVDAC_DEFAULT_STRB != 0) */
  70:Generated_Source\PSoC5/myVDAC.c **** 
  71:Generated_Source\PSoC5/myVDAC.c ****     /* Set default range */
  72:Generated_Source\PSoC5/myVDAC.c ****     myVDAC_SetRange(myVDAC_DEFAULT_RANGE); 
  73:Generated_Source\PSoC5/myVDAC.c **** 
  74:Generated_Source\PSoC5/myVDAC.c ****     /* Set default speed */
  75:Generated_Source\PSoC5/myVDAC.c ****     myVDAC_SetSpeed(myVDAC_DEFAULT_SPEED);
  76:Generated_Source\PSoC5/myVDAC.c **** }
  77:Generated_Source\PSoC5/myVDAC.c **** 
  78:Generated_Source\PSoC5/myVDAC.c **** 
  79:Generated_Source\PSoC5/myVDAC.c **** /*******************************************************************************
  80:Generated_Source\PSoC5/myVDAC.c **** * Function Name: myVDAC_Enable
  81:Generated_Source\PSoC5/myVDAC.c **** ********************************************************************************
  82:Generated_Source\PSoC5/myVDAC.c **** * Summary:
  83:Generated_Source\PSoC5/myVDAC.c **** *  Enable the VDAC8
  84:Generated_Source\PSoC5/myVDAC.c **** * 
  85:Generated_Source\PSoC5/myVDAC.c **** * Parameters:
  86:Generated_Source\PSoC5/myVDAC.c **** *  void
  87:Generated_Source\PSoC5/myVDAC.c **** *
  88:Generated_Source\PSoC5/myVDAC.c **** * Return:
ARM GAS  C:\Users\kelvi\AppData\Local\Temp\cckgGyJy.s 			page 3


  89:Generated_Source\PSoC5/myVDAC.c **** *  void
  90:Generated_Source\PSoC5/myVDAC.c **** *
  91:Generated_Source\PSoC5/myVDAC.c **** * Theory:
  92:Generated_Source\PSoC5/myVDAC.c **** *
  93:Generated_Source\PSoC5/myVDAC.c **** * Side Effects:
  94:Generated_Source\PSoC5/myVDAC.c **** *
  95:Generated_Source\PSoC5/myVDAC.c **** *******************************************************************************/
  96:Generated_Source\PSoC5/myVDAC.c **** void myVDAC_Enable(void) 
  97:Generated_Source\PSoC5/myVDAC.c **** {
  27              		.loc 1 97 0
  28              		.cfi_startproc
  29              		@ args = 0, pretend = 0, frame = 0
  30              		@ frame_needed = 0, uses_anonymous_args = 0
  31              		@ link register save eliminated.
  98:Generated_Source\PSoC5/myVDAC.c ****     myVDAC_PWRMGR |= myVDAC_ACT_PWR_EN;
  32              		.loc 1 98 0
  33 0000 054A     		ldr	r2, .L2
  34 0002 1378     		ldrb	r3, [r2]	@ zero_extendqisi2
  35 0004 43F00103 		orr	r3, r3, #1
  36 0008 1370     		strb	r3, [r2]
  99:Generated_Source\PSoC5/myVDAC.c ****     myVDAC_STBY_PWRMGR |= myVDAC_STBY_PWR_EN;
  37              		.loc 1 99 0
  38 000a 1032     		adds	r2, r2, #16
  39 000c 1378     		ldrb	r3, [r2]	@ zero_extendqisi2
  40 000e 43F00103 		orr	r3, r3, #1
  41 0012 1370     		strb	r3, [r2]
  42 0014 7047     		bx	lr
  43              	.L3:
  44 0016 00BF     		.align	2
  45              	.L2:
  46 0018 A8430040 		.word	1073759144
  47              		.cfi_endproc
  48              	.LFE1:
  49              		.size	myVDAC_Enable, .-myVDAC_Enable
  50              		.section	.text.myVDAC_Stop,"ax",%progbits
  51              		.align	2
  52              		.global	myVDAC_Stop
  53              		.thumb
  54              		.thumb_func
  55              		.type	myVDAC_Stop, %function
  56              	myVDAC_Stop:
  57              	.LFB3:
 100:Generated_Source\PSoC5/myVDAC.c **** 
 101:Generated_Source\PSoC5/myVDAC.c ****     /*This is to restore the value of register CR0 ,
 102:Generated_Source\PSoC5/myVDAC.c ****     which is modified  in Stop API , this prevents misbehaviour of VDAC */
 103:Generated_Source\PSoC5/myVDAC.c ****     #if (CY_PSOC5A)
 104:Generated_Source\PSoC5/myVDAC.c ****         if(myVDAC_restoreVal == 1u) 
 105:Generated_Source\PSoC5/myVDAC.c ****         {
 106:Generated_Source\PSoC5/myVDAC.c ****              myVDAC_CR0 = myVDAC_backup.data_value;
 107:Generated_Source\PSoC5/myVDAC.c ****              myVDAC_restoreVal = 0u;
 108:Generated_Source\PSoC5/myVDAC.c ****         }
 109:Generated_Source\PSoC5/myVDAC.c ****     #endif /* CY_PSOC5A */
 110:Generated_Source\PSoC5/myVDAC.c **** }
 111:Generated_Source\PSoC5/myVDAC.c **** 
 112:Generated_Source\PSoC5/myVDAC.c **** 
 113:Generated_Source\PSoC5/myVDAC.c **** /*******************************************************************************
 114:Generated_Source\PSoC5/myVDAC.c **** * Function Name: myVDAC_Start
ARM GAS  C:\Users\kelvi\AppData\Local\Temp\cckgGyJy.s 			page 4


 115:Generated_Source\PSoC5/myVDAC.c **** ********************************************************************************
 116:Generated_Source\PSoC5/myVDAC.c **** *
 117:Generated_Source\PSoC5/myVDAC.c **** * Summary:
 118:Generated_Source\PSoC5/myVDAC.c **** *  The start function initializes the voltage DAC with the default values, 
 119:Generated_Source\PSoC5/myVDAC.c **** *  and sets the power to the given level.  A power level of 0, is the same as
 120:Generated_Source\PSoC5/myVDAC.c **** *  executing the stop function.
 121:Generated_Source\PSoC5/myVDAC.c **** *
 122:Generated_Source\PSoC5/myVDAC.c **** * Parameters:
 123:Generated_Source\PSoC5/myVDAC.c **** *  Power: Sets power level between off (0) and (3) high power
 124:Generated_Source\PSoC5/myVDAC.c **** *
 125:Generated_Source\PSoC5/myVDAC.c **** * Return:
 126:Generated_Source\PSoC5/myVDAC.c **** *  void 
 127:Generated_Source\PSoC5/myVDAC.c **** *
 128:Generated_Source\PSoC5/myVDAC.c **** * Global variables:
 129:Generated_Source\PSoC5/myVDAC.c **** *  myVDAC_initVar: Is modified when this function is called for the 
 130:Generated_Source\PSoC5/myVDAC.c **** *  first time. Is used to ensure that initialization happens only once.
 131:Generated_Source\PSoC5/myVDAC.c **** *
 132:Generated_Source\PSoC5/myVDAC.c **** *******************************************************************************/
 133:Generated_Source\PSoC5/myVDAC.c **** void myVDAC_Start(void)  
 134:Generated_Source\PSoC5/myVDAC.c **** {
 135:Generated_Source\PSoC5/myVDAC.c ****     /* Hardware initiazation only needs to occure the first time */
 136:Generated_Source\PSoC5/myVDAC.c ****     if(myVDAC_initVar == 0u)
 137:Generated_Source\PSoC5/myVDAC.c ****     { 
 138:Generated_Source\PSoC5/myVDAC.c ****         myVDAC_Init();
 139:Generated_Source\PSoC5/myVDAC.c ****         myVDAC_initVar = 1u;
 140:Generated_Source\PSoC5/myVDAC.c ****     }
 141:Generated_Source\PSoC5/myVDAC.c **** 
 142:Generated_Source\PSoC5/myVDAC.c ****     /* Enable power to DAC */
 143:Generated_Source\PSoC5/myVDAC.c ****     myVDAC_Enable();
 144:Generated_Source\PSoC5/myVDAC.c **** 
 145:Generated_Source\PSoC5/myVDAC.c ****     /* Set default value */
 146:Generated_Source\PSoC5/myVDAC.c ****     myVDAC_SetValue(myVDAC_DEFAULT_DATA); 
 147:Generated_Source\PSoC5/myVDAC.c **** }
 148:Generated_Source\PSoC5/myVDAC.c **** 
 149:Generated_Source\PSoC5/myVDAC.c **** 
 150:Generated_Source\PSoC5/myVDAC.c **** /*******************************************************************************
 151:Generated_Source\PSoC5/myVDAC.c **** * Function Name: myVDAC_Stop
 152:Generated_Source\PSoC5/myVDAC.c **** ********************************************************************************
 153:Generated_Source\PSoC5/myVDAC.c **** *
 154:Generated_Source\PSoC5/myVDAC.c **** * Summary:
 155:Generated_Source\PSoC5/myVDAC.c **** *  Powers down DAC to lowest power state.
 156:Generated_Source\PSoC5/myVDAC.c **** *
 157:Generated_Source\PSoC5/myVDAC.c **** * Parameters:
 158:Generated_Source\PSoC5/myVDAC.c **** *  void
 159:Generated_Source\PSoC5/myVDAC.c **** *
 160:Generated_Source\PSoC5/myVDAC.c **** * Return:
 161:Generated_Source\PSoC5/myVDAC.c **** *  void
 162:Generated_Source\PSoC5/myVDAC.c **** *
 163:Generated_Source\PSoC5/myVDAC.c **** * Theory:
 164:Generated_Source\PSoC5/myVDAC.c **** *
 165:Generated_Source\PSoC5/myVDAC.c **** * Side Effects:
 166:Generated_Source\PSoC5/myVDAC.c **** *
 167:Generated_Source\PSoC5/myVDAC.c **** *******************************************************************************/
 168:Generated_Source\PSoC5/myVDAC.c **** void myVDAC_Stop(void) 
 169:Generated_Source\PSoC5/myVDAC.c **** {
  58              		.loc 1 169 0
  59              		.cfi_startproc
ARM GAS  C:\Users\kelvi\AppData\Local\Temp\cckgGyJy.s 			page 5


  60              		@ args = 0, pretend = 0, frame = 0
  61              		@ frame_needed = 0, uses_anonymous_args = 0
  62              		@ link register save eliminated.
 170:Generated_Source\PSoC5/myVDAC.c ****     /* Disble power to DAC */
 171:Generated_Source\PSoC5/myVDAC.c ****     myVDAC_PWRMGR &= (uint8)(~myVDAC_ACT_PWR_EN);
  63              		.loc 1 171 0
  64 0000 054A     		ldr	r2, .L5
  65 0002 1378     		ldrb	r3, [r2]	@ zero_extendqisi2
  66 0004 03F0FE03 		and	r3, r3, #254
  67 0008 1370     		strb	r3, [r2]
 172:Generated_Source\PSoC5/myVDAC.c ****     myVDAC_STBY_PWRMGR &= (uint8)(~myVDAC_STBY_PWR_EN);
  68              		.loc 1 172 0
  69 000a 1032     		adds	r2, r2, #16
  70 000c 1378     		ldrb	r3, [r2]	@ zero_extendqisi2
  71 000e 03F0FE03 		and	r3, r3, #254
  72 0012 1370     		strb	r3, [r2]
  73 0014 7047     		bx	lr
  74              	.L6:
  75 0016 00BF     		.align	2
  76              	.L5:
  77 0018 A8430040 		.word	1073759144
  78              		.cfi_endproc
  79              	.LFE3:
  80              		.size	myVDAC_Stop, .-myVDAC_Stop
  81              		.section	.text.myVDAC_SetSpeed,"ax",%progbits
  82              		.align	2
  83              		.global	myVDAC_SetSpeed
  84              		.thumb
  85              		.thumb_func
  86              		.type	myVDAC_SetSpeed, %function
  87              	myVDAC_SetSpeed:
  88              	.LFB4:
 173:Generated_Source\PSoC5/myVDAC.c **** 
 174:Generated_Source\PSoC5/myVDAC.c ****     /* This is a work around for PSoC5A  ,
 175:Generated_Source\PSoC5/myVDAC.c ****     this sets VDAC to current mode with output off */
 176:Generated_Source\PSoC5/myVDAC.c ****     #if (CY_PSOC5A)
 177:Generated_Source\PSoC5/myVDAC.c ****         myVDAC_backup.data_value = myVDAC_CR0;
 178:Generated_Source\PSoC5/myVDAC.c ****         myVDAC_CR0 = myVDAC_CUR_MODE_OUT_OFF;
 179:Generated_Source\PSoC5/myVDAC.c ****         myVDAC_restoreVal = 1u;
 180:Generated_Source\PSoC5/myVDAC.c ****     #endif /* CY_PSOC5A */
 181:Generated_Source\PSoC5/myVDAC.c **** }
 182:Generated_Source\PSoC5/myVDAC.c **** 
 183:Generated_Source\PSoC5/myVDAC.c **** 
 184:Generated_Source\PSoC5/myVDAC.c **** /*******************************************************************************
 185:Generated_Source\PSoC5/myVDAC.c **** * Function Name: myVDAC_SetSpeed
 186:Generated_Source\PSoC5/myVDAC.c **** ********************************************************************************
 187:Generated_Source\PSoC5/myVDAC.c **** *
 188:Generated_Source\PSoC5/myVDAC.c **** * Summary:
 189:Generated_Source\PSoC5/myVDAC.c **** *  Set DAC speed
 190:Generated_Source\PSoC5/myVDAC.c **** *
 191:Generated_Source\PSoC5/myVDAC.c **** * Parameters:
 192:Generated_Source\PSoC5/myVDAC.c **** *  power: Sets speed value
 193:Generated_Source\PSoC5/myVDAC.c **** *
 194:Generated_Source\PSoC5/myVDAC.c **** * Return:
 195:Generated_Source\PSoC5/myVDAC.c **** *  void
 196:Generated_Source\PSoC5/myVDAC.c **** *
 197:Generated_Source\PSoC5/myVDAC.c **** * Theory:
ARM GAS  C:\Users\kelvi\AppData\Local\Temp\cckgGyJy.s 			page 6


 198:Generated_Source\PSoC5/myVDAC.c **** *
 199:Generated_Source\PSoC5/myVDAC.c **** * Side Effects:
 200:Generated_Source\PSoC5/myVDAC.c **** *
 201:Generated_Source\PSoC5/myVDAC.c **** *******************************************************************************/
 202:Generated_Source\PSoC5/myVDAC.c **** void myVDAC_SetSpeed(uint8 speed) 
 203:Generated_Source\PSoC5/myVDAC.c **** {
  89              		.loc 1 203 0
  90              		.cfi_startproc
  91              		@ args = 0, pretend = 0, frame = 0
  92              		@ frame_needed = 0, uses_anonymous_args = 0
  93              		@ link register save eliminated.
  94              	.LVL0:
 204:Generated_Source\PSoC5/myVDAC.c ****     /* Clear power mask then write in new value */
 205:Generated_Source\PSoC5/myVDAC.c ****     myVDAC_CR0 &= (uint8)(~myVDAC_HS_MASK);
  95              		.loc 1 205 0
  96 0000 054B     		ldr	r3, .L8
  97 0002 1A78     		ldrb	r2, [r3]	@ zero_extendqisi2
  98 0004 02F0FD02 		and	r2, r2, #253
  99 0008 1A70     		strb	r2, [r3]
 206:Generated_Source\PSoC5/myVDAC.c ****     myVDAC_CR0 |=  (speed & myVDAC_HS_MASK);
 100              		.loc 1 206 0
 101 000a 1A78     		ldrb	r2, [r3]	@ zero_extendqisi2
 102 000c 00F00200 		and	r0, r0, #2
 103              	.LVL1:
 104 0010 1043     		orrs	r0, r0, r2
 105 0012 1870     		strb	r0, [r3]
 106 0014 7047     		bx	lr
 107              	.L9:
 108 0016 00BF     		.align	2
 109              	.L8:
 110 0018 20580040 		.word	1073764384
 111              		.cfi_endproc
 112              	.LFE4:
 113              		.size	myVDAC_SetSpeed, .-myVDAC_SetSpeed
 114              		.section	.text.myVDAC_SetValue,"ax",%progbits
 115              		.align	2
 116              		.global	myVDAC_SetValue
 117              		.thumb
 118              		.thumb_func
 119              		.type	myVDAC_SetValue, %function
 120              	myVDAC_SetValue:
 121              	.LFB6:
 207:Generated_Source\PSoC5/myVDAC.c **** }
 208:Generated_Source\PSoC5/myVDAC.c **** 
 209:Generated_Source\PSoC5/myVDAC.c **** 
 210:Generated_Source\PSoC5/myVDAC.c **** /*******************************************************************************
 211:Generated_Source\PSoC5/myVDAC.c **** * Function Name: myVDAC_SetRange
 212:Generated_Source\PSoC5/myVDAC.c **** ********************************************************************************
 213:Generated_Source\PSoC5/myVDAC.c **** *
 214:Generated_Source\PSoC5/myVDAC.c **** * Summary:
 215:Generated_Source\PSoC5/myVDAC.c **** *  Set one of three current ranges.
 216:Generated_Source\PSoC5/myVDAC.c **** *
 217:Generated_Source\PSoC5/myVDAC.c **** * Parameters:
 218:Generated_Source\PSoC5/myVDAC.c **** *  Range: Sets one of Three valid ranges.
 219:Generated_Source\PSoC5/myVDAC.c **** *
 220:Generated_Source\PSoC5/myVDAC.c **** * Return:
 221:Generated_Source\PSoC5/myVDAC.c **** *  void 
ARM GAS  C:\Users\kelvi\AppData\Local\Temp\cckgGyJy.s 			page 7


 222:Generated_Source\PSoC5/myVDAC.c **** *
 223:Generated_Source\PSoC5/myVDAC.c **** * Theory:
 224:Generated_Source\PSoC5/myVDAC.c **** *
 225:Generated_Source\PSoC5/myVDAC.c **** * Side Effects:
 226:Generated_Source\PSoC5/myVDAC.c **** *
 227:Generated_Source\PSoC5/myVDAC.c **** *******************************************************************************/
 228:Generated_Source\PSoC5/myVDAC.c **** void myVDAC_SetRange(uint8 range) 
 229:Generated_Source\PSoC5/myVDAC.c **** {
 230:Generated_Source\PSoC5/myVDAC.c ****     myVDAC_CR0 &= (uint8)(~myVDAC_RANGE_MASK);      /* Clear existing mode */
 231:Generated_Source\PSoC5/myVDAC.c ****     myVDAC_CR0 |= (range & myVDAC_RANGE_MASK);      /*  Set Range  */
 232:Generated_Source\PSoC5/myVDAC.c ****     myVDAC_DacTrim();
 233:Generated_Source\PSoC5/myVDAC.c **** }
 234:Generated_Source\PSoC5/myVDAC.c **** 
 235:Generated_Source\PSoC5/myVDAC.c **** 
 236:Generated_Source\PSoC5/myVDAC.c **** /*******************************************************************************
 237:Generated_Source\PSoC5/myVDAC.c **** * Function Name: myVDAC_SetValue
 238:Generated_Source\PSoC5/myVDAC.c **** ********************************************************************************
 239:Generated_Source\PSoC5/myVDAC.c **** *
 240:Generated_Source\PSoC5/myVDAC.c **** * Summary:
 241:Generated_Source\PSoC5/myVDAC.c **** *  Set 8-bit DAC value
 242:Generated_Source\PSoC5/myVDAC.c **** *
 243:Generated_Source\PSoC5/myVDAC.c **** * Parameters:  
 244:Generated_Source\PSoC5/myVDAC.c **** *  value:  Sets DAC value between 0 and 255.
 245:Generated_Source\PSoC5/myVDAC.c **** *
 246:Generated_Source\PSoC5/myVDAC.c **** * Return: 
 247:Generated_Source\PSoC5/myVDAC.c **** *  void 
 248:Generated_Source\PSoC5/myVDAC.c **** *
 249:Generated_Source\PSoC5/myVDAC.c **** * Theory: 
 250:Generated_Source\PSoC5/myVDAC.c **** *
 251:Generated_Source\PSoC5/myVDAC.c **** * Side Effects:
 252:Generated_Source\PSoC5/myVDAC.c **** *
 253:Generated_Source\PSoC5/myVDAC.c **** *******************************************************************************/
 254:Generated_Source\PSoC5/myVDAC.c **** void myVDAC_SetValue(uint8 value) 
 255:Generated_Source\PSoC5/myVDAC.c **** {
 122              		.loc 1 255 0
 123              		.cfi_startproc
 124              		@ args = 0, pretend = 0, frame = 0
 125              		@ frame_needed = 0, uses_anonymous_args = 0
 126              		@ link register save eliminated.
 127              	.LVL2:
 256:Generated_Source\PSoC5/myVDAC.c ****     #if (CY_PSOC5A)
 257:Generated_Source\PSoC5/myVDAC.c ****         uint8 myVDAC_intrStatus = CyEnterCriticalSection();
 258:Generated_Source\PSoC5/myVDAC.c ****     #endif /* CY_PSOC5A */
 259:Generated_Source\PSoC5/myVDAC.c **** 
 260:Generated_Source\PSoC5/myVDAC.c ****     myVDAC_Data = value;                /*  Set Value  */
 128              		.loc 1 260 0
 129 0000 014B     		ldr	r3, .L11
 130 0002 1870     		strb	r0, [r3]
 131 0004 7047     		bx	lr
 132              	.L12:
 133 0006 00BF     		.align	2
 134              	.L11:
 135 0008 805B0040 		.word	1073765248
 136              		.cfi_endproc
 137              	.LFE6:
 138              		.size	myVDAC_SetValue, .-myVDAC_SetValue
 139              		.section	.text.myVDAC_DacTrim,"ax",%progbits
ARM GAS  C:\Users\kelvi\AppData\Local\Temp\cckgGyJy.s 			page 8


 140              		.align	2
 141              		.global	myVDAC_DacTrim
 142              		.thumb
 143              		.thumb_func
 144              		.type	myVDAC_DacTrim, %function
 145              	myVDAC_DacTrim:
 146              	.LFB7:
 261:Generated_Source\PSoC5/myVDAC.c **** 
 262:Generated_Source\PSoC5/myVDAC.c ****     /* PSOC5A requires a double write */
 263:Generated_Source\PSoC5/myVDAC.c ****     /* Exit Critical Section */
 264:Generated_Source\PSoC5/myVDAC.c ****     #if (CY_PSOC5A)
 265:Generated_Source\PSoC5/myVDAC.c ****         myVDAC_Data = value;
 266:Generated_Source\PSoC5/myVDAC.c ****         CyExitCriticalSection(myVDAC_intrStatus);
 267:Generated_Source\PSoC5/myVDAC.c ****     #endif /* CY_PSOC5A */
 268:Generated_Source\PSoC5/myVDAC.c **** }
 269:Generated_Source\PSoC5/myVDAC.c **** 
 270:Generated_Source\PSoC5/myVDAC.c **** 
 271:Generated_Source\PSoC5/myVDAC.c **** /*******************************************************************************
 272:Generated_Source\PSoC5/myVDAC.c **** * Function Name: myVDAC_DacTrim
 273:Generated_Source\PSoC5/myVDAC.c **** ********************************************************************************
 274:Generated_Source\PSoC5/myVDAC.c **** *
 275:Generated_Source\PSoC5/myVDAC.c **** * Summary:
 276:Generated_Source\PSoC5/myVDAC.c **** *  Set the trim value for the given range.
 277:Generated_Source\PSoC5/myVDAC.c **** *
 278:Generated_Source\PSoC5/myVDAC.c **** * Parameters:
 279:Generated_Source\PSoC5/myVDAC.c **** *  range:  1V or 4V range.  See constants.
 280:Generated_Source\PSoC5/myVDAC.c **** *
 281:Generated_Source\PSoC5/myVDAC.c **** * Return:
 282:Generated_Source\PSoC5/myVDAC.c **** *  void
 283:Generated_Source\PSoC5/myVDAC.c **** *
 284:Generated_Source\PSoC5/myVDAC.c **** * Theory: 
 285:Generated_Source\PSoC5/myVDAC.c **** *
 286:Generated_Source\PSoC5/myVDAC.c **** * Side Effects:
 287:Generated_Source\PSoC5/myVDAC.c **** *
 288:Generated_Source\PSoC5/myVDAC.c **** *******************************************************************************/
 289:Generated_Source\PSoC5/myVDAC.c **** void myVDAC_DacTrim(void) 
 290:Generated_Source\PSoC5/myVDAC.c **** {
 147              		.loc 1 290 0
 148              		.cfi_startproc
 149              		@ args = 0, pretend = 0, frame = 0
 150              		@ frame_needed = 0, uses_anonymous_args = 0
 151              		@ link register save eliminated.
 291:Generated_Source\PSoC5/myVDAC.c ****     uint8 mode;
 292:Generated_Source\PSoC5/myVDAC.c **** 
 293:Generated_Source\PSoC5/myVDAC.c ****     mode = (uint8)((myVDAC_CR0 & myVDAC_RANGE_MASK) >> 2) + myVDAC_TRIM_M7_1V_RNG_OFFSET;
 152              		.loc 1 293 0
 153 0000 064B     		ldr	r3, .L14
 154 0002 1B78     		ldrb	r3, [r3]	@ zero_extendqisi2
 155 0004 C3F38103 		ubfx	r3, r3, #2, #2
 156              	.LVL3:
 294:Generated_Source\PSoC5/myVDAC.c ****     myVDAC_TR = CY_GET_XTND_REG8((uint8 *)(myVDAC_DAC_TRIM_BASE + mode));
 157              		.loc 1 294 0
 158 0008 03F19243 		add	r3, r3, #1224736768
 159              	.LVL4:
 160 000c 0633     		adds	r3, r3, #6
 161              	.LVL5:
 162 000e 93F82031 		ldrb	r3, [r3, #288]	@ zero_extendqisi2
ARM GAS  C:\Users\kelvi\AppData\Local\Temp\cckgGyJy.s 			page 9


 163              	.LVL6:
 164 0012 DBB2     		uxtb	r3, r3
 165 0014 024A     		ldr	r2, .L14+4
 166 0016 1370     		strb	r3, [r2]
 167 0018 7047     		bx	lr
 168              	.L15:
 169 001a 00BF     		.align	2
 170              	.L14:
 171 001c 20580040 		.word	1073764384
 172 0020 08460040 		.word	1073759752
 173              		.cfi_endproc
 174              	.LFE7:
 175              		.size	myVDAC_DacTrim, .-myVDAC_DacTrim
 176              		.section	.text.myVDAC_SetRange,"ax",%progbits
 177              		.align	2
 178              		.global	myVDAC_SetRange
 179              		.thumb
 180              		.thumb_func
 181              		.type	myVDAC_SetRange, %function
 182              	myVDAC_SetRange:
 183              	.LFB5:
 229:Generated_Source\PSoC5/myVDAC.c ****     myVDAC_CR0 &= (uint8)(~myVDAC_RANGE_MASK);      /* Clear existing mode */
 184              		.loc 1 229 0
 185              		.cfi_startproc
 186              		@ args = 0, pretend = 0, frame = 0
 187              		@ frame_needed = 0, uses_anonymous_args = 0
 188              	.LVL7:
 189 0000 08B5     		push	{r3, lr}
 190              		.cfi_def_cfa_offset 8
 191              		.cfi_offset 3, -8
 192              		.cfi_offset 14, -4
 230:Generated_Source\PSoC5/myVDAC.c ****     myVDAC_CR0 |= (range & myVDAC_RANGE_MASK);      /*  Set Range  */
 193              		.loc 1 230 0
 194 0002 064B     		ldr	r3, .L18
 195 0004 1A78     		ldrb	r2, [r3]	@ zero_extendqisi2
 196 0006 02F0F302 		and	r2, r2, #243
 197 000a 1A70     		strb	r2, [r3]
 231:Generated_Source\PSoC5/myVDAC.c ****     myVDAC_DacTrim();
 198              		.loc 1 231 0
 199 000c 1A78     		ldrb	r2, [r3]	@ zero_extendqisi2
 200 000e 00F00C00 		and	r0, r0, #12
 201              	.LVL8:
 202 0012 1043     		orrs	r0, r0, r2
 203 0014 1870     		strb	r0, [r3]
 232:Generated_Source\PSoC5/myVDAC.c **** }
 204              		.loc 1 232 0
 205 0016 FFF7FEFF 		bl	myVDAC_DacTrim
 206              	.LVL9:
 207 001a 08BD     		pop	{r3, pc}
 208              	.L19:
 209              		.align	2
 210              	.L18:
 211 001c 20580040 		.word	1073764384
 212              		.cfi_endproc
 213              	.LFE5:
 214              		.size	myVDAC_SetRange, .-myVDAC_SetRange
 215              		.section	.text.myVDAC_Init,"ax",%progbits
ARM GAS  C:\Users\kelvi\AppData\Local\Temp\cckgGyJy.s 			page 10


 216              		.align	2
 217              		.global	myVDAC_Init
 218              		.thumb
 219              		.thumb_func
 220              		.type	myVDAC_Init, %function
 221              	myVDAC_Init:
 222              	.LFB0:
  56:Generated_Source\PSoC5/myVDAC.c ****     myVDAC_CR0 = (myVDAC_MODE_V );
 223              		.loc 1 56 0
 224              		.cfi_startproc
 225              		@ args = 0, pretend = 0, frame = 0
 226              		@ frame_needed = 0, uses_anonymous_args = 0
 227 0000 10B5     		push	{r4, lr}
 228              		.cfi_def_cfa_offset 8
 229              		.cfi_offset 4, -8
 230              		.cfi_offset 14, -4
  57:Generated_Source\PSoC5/myVDAC.c **** 
 231              		.loc 1 57 0
 232 0002 0024     		movs	r4, #0
 233 0004 054B     		ldr	r3, .L22
 234 0006 1C70     		strb	r4, [r3]
  63:Generated_Source\PSoC5/myVDAC.c ****     #endif /* (myVDAC_DEFAULT_DATA_SRC != 0 ) */
 235              		.loc 1 63 0
 236 0008 0133     		adds	r3, r3, #1
 237 000a 1C70     		strb	r4, [r3]
  72:Generated_Source\PSoC5/myVDAC.c **** 
 238              		.loc 1 72 0
 239 000c 0420     		movs	r0, #4
 240 000e FFF7FEFF 		bl	myVDAC_SetRange
 241              	.LVL10:
  75:Generated_Source\PSoC5/myVDAC.c **** }
 242              		.loc 1 75 0
 243 0012 2046     		mov	r0, r4
 244 0014 FFF7FEFF 		bl	myVDAC_SetSpeed
 245              	.LVL11:
 246 0018 10BD     		pop	{r4, pc}
 247              	.L23:
 248 001a 00BF     		.align	2
 249              	.L22:
 250 001c 20580040 		.word	1073764384
 251              		.cfi_endproc
 252              	.LFE0:
 253              		.size	myVDAC_Init, .-myVDAC_Init
 254              		.section	.text.myVDAC_Start,"ax",%progbits
 255              		.align	2
 256              		.global	myVDAC_Start
 257              		.thumb
 258              		.thumb_func
 259              		.type	myVDAC_Start, %function
 260              	myVDAC_Start:
 261              	.LFB2:
 134:Generated_Source\PSoC5/myVDAC.c ****     /* Hardware initiazation only needs to occure the first time */
 262              		.loc 1 134 0
 263              		.cfi_startproc
 264              		@ args = 0, pretend = 0, frame = 0
 265              		@ frame_needed = 0, uses_anonymous_args = 0
 266 0000 08B5     		push	{r3, lr}
ARM GAS  C:\Users\kelvi\AppData\Local\Temp\cckgGyJy.s 			page 11


 267              		.cfi_def_cfa_offset 8
 268              		.cfi_offset 3, -8
 269              		.cfi_offset 14, -4
 136:Generated_Source\PSoC5/myVDAC.c ****     { 
 270              		.loc 1 136 0
 271 0002 074B     		ldr	r3, .L27
 272 0004 1B78     		ldrb	r3, [r3]	@ zero_extendqisi2
 273 0006 23B9     		cbnz	r3, .L25
 138:Generated_Source\PSoC5/myVDAC.c ****         myVDAC_initVar = 1u;
 274              		.loc 1 138 0
 275 0008 FFF7FEFF 		bl	myVDAC_Init
 276              	.LVL12:
 139:Generated_Source\PSoC5/myVDAC.c ****     }
 277              		.loc 1 139 0
 278 000c 0122     		movs	r2, #1
 279 000e 044B     		ldr	r3, .L27
 280 0010 1A70     		strb	r2, [r3]
 281              	.L25:
 143:Generated_Source\PSoC5/myVDAC.c **** 
 282              		.loc 1 143 0
 283 0012 FFF7FEFF 		bl	myVDAC_Enable
 284              	.LVL13:
 146:Generated_Source\PSoC5/myVDAC.c **** }
 285              		.loc 1 146 0
 286 0016 6420     		movs	r0, #100
 287 0018 FFF7FEFF 		bl	myVDAC_SetValue
 288              	.LVL14:
 289 001c 08BD     		pop	{r3, pc}
 290              	.L28:
 291 001e 00BF     		.align	2
 292              	.L27:
 293 0020 00000000 		.word	.LANCHOR0
 294              		.cfi_endproc
 295              	.LFE2:
 296              		.size	myVDAC_Start, .-myVDAC_Start
 297              		.global	myVDAC_initVar
 298              		.bss
 299              		.set	.LANCHOR0,. + 0
 300              		.type	myVDAC_initVar, %object
 301              		.size	myVDAC_initVar, 1
 302              	myVDAC_initVar:
 303 0000 00       		.space	1
 304              		.text
 305              	.Letext0:
 306              		.file 2 "Generated_Source\\PSoC5\\cytypes.h"
