:400000000080002011000000D9000000D900000008B5044B1A6803F53F5302331A6000F063F800BFFA46004010B5054C237833B9044B13B10448AFF300800123237010BD6A
:400040008881FF1F00000000E0120000084B10B51BB108480849AFF300800848036803B910BD074B002BFBD0BDE81040184700BF00000000E01200008C81FF1F0881FF1F5D
:400080000000000010B500F049FA00F0E3F900F069FD01F015F800F0C9FF00F0B9FF00F04BFF01F09BF801F08DF801F06BF801F015F862B600F0C8FD064C84FB0034C01799
:4000C000C0EB6414A4B2204600F0D2F9600800F0D5F9EFE77FE0077E08B501F0C1F803680C2B00D1FEE7FEE708B5104E104D16E029686B68AC68002204E051F8040B43F863
:40010000040B0432A242F8D1E868002203E0002143F8041B04328242F9D11035013E002EE6D101F0A3F8FFF7ADFFFEE7010000004813000008B5124A124B1A60124A13689A
:4001400043F40073136000230AE0032B03D80F4A52F8231000E00E490E4A42F8231001332F2BF2D90C4B1A780C4B1A70094A0C4B1A6000F0F5F800220A4B1A6008BD00BFE1
:400180000004FA050CED00E014ED00E000000000D90000000080FF1FBC7600400481FF1F08ED00E00081FF1FFEE700BFF0B40022174611E050F82760F3B226F0FF0608E053
:4001C00001EB420511F812406D78A5550132013BDBB2002BF4D101371B2FEBD9F0BC70470D4B1B78DBB203F007010C4A11701B09013213700123A2F26272137004211F3254
:40020000117002F6571213701022054B1A704422A3F28A231A707047CF0100496E580040005B004008B50A46002101F050F808BD08B501F041F808BD38B500242F4B1C80AB
:40024000502202331A70012202331A801C2202331A702B482B490422FFF7EAFF02222A4B1A7008224FF040231A70032103F500731970264B1B78DBB225490B70254B1A805D
:4002800041F25122023B1A8019250CE0224B1B7803F0010343EA440404F003044FF4F07000F0CEFF013D0DB1032CEFD115B90320FFF77AFF194B4FF480721A8007221A709F
:4002C000002217490A704820023108701A700222033B1A7004220A331A70124A137843F003031370013A137843F001031370013A137843F08003137038BD00BF80400040B6
:40030000004100400C0300480043004008010049A146004022420040254200400440004006400040A2430040012807D8044B53F820201844017A13780B431370704700BFE4
:40034000E4120000012808D8044B53F820201844017A137823EA010313707047E412000038B572B62B4A137843F00403137000240AE0294963001A1952000A44D068118AA6
:40038000FFF750FF0134E4B2072CF2D94FF090402249FFF70BFF0A22214B1A70214A137843F0020313701032137843F0020313701D4C237843F040032370A2F58632513A73
:4003C000137843F010031370184819490822FFF72FFF184818490822FFF72AFF174818490822FFF725FF174A137843F008031370154D61232B70FFF71FFF81232B700122E7
:40040000124B1A70FFF7ECFE114821460E22FFF70FFF38BDE8460040E4120000700000488358004003500140A043004002510040F402004812510040FC02004822510040B1
:4004400004030048224300400048004004000840B0430040024A137843F080031370704775650040014B1880704700BF086A0040014B1880704700BF886A0040014B188024
:40048000704700BF486A0040014B1870704700BF85650040014B1878704700BF65650040014B188880B27047A86A004008B501E0FFF7F6FFFFF7EEFF10F0100FF8D108BDC4
:4004C00010B5144A137803F0C00343F0090313701F32137843F0010313700F4C237843F0010323700220FFF7BDFF0220FFF7C0FF0120FFF7C3FF0020FFF7C6FF00F0A8FE8B
:40050000237843F01003237000F0A6FEFFF7CEFF10BD00BF756500409565004008B5054B1B7823B9FFF7CCFF0122024B1A70FFF791FF08BDA481FF1F38B59DF81040651EF6
:40054000EDB2032D4AD80138092826D8DFE800F00525250525250D15251D0F2B02D9214800781BE02048007818E00F2B02D91F48007813E01E48007810E00F2B02D91D4871
:4005800000780BE01C48007808E00F2B02D91B48007803E01A48007800E0002040B201EB401101FB02F2D20B91B20D2B0BD8C3F10E0192B20A4191B2124A02EB8402013375
:4005C00002F8023C05E00F4B03EB84030F2203F8022C013C0B4B23F8241038BD002000F073FC38BD180100491C010049190100491D0100491A0100491E0100491B010049A7
:400600001F010049A881FF1FF8B5074600F020FE06460D4D2B7843F003032B700B4C237843F0030323700A4B1F70032000F04EFC2B7803F0FC032B70237803F0FC03237096
:40064000304600F009FEF8BDF8460040F946004092580040F8B504460022C04B1A7401285BD13822BE4B1A70042202331A70062201331A70002501331D7001331D703F226A
:4006800001331A7002331D7001331D7001331D7001260A331E70502203F527631A700A23B04A13702C21013211700132157044210332117048210132117001321670023240
:4006C000157001321570013213704322A64B1A705220FFF799FF5822A44B1A7001331D70052205331A70022201331A7001331D7001331D70284600F0D3FA43F233329C4B7A
:400700001A602D20314600F0EFFABA20314600F06FFB1D20974900F0E3FB022C5DD138228F4B1A70042202331A70062201331A70002501331D7001331D703F2201331A7061
:4007400002331D7001331D7001331D7001260A331E70502203F527631A70272201331A702C2201331A7001331D70552203331A705A2201331A70052701331F7002331E70CE
:40078000112201331A70192201331A70972201331A704420FFF738FF5822744B1A7001331D7005331F70022201331A7001331D7001331D70284600F073FA4FF47A426C4B17
:4007C0001A600820314600F08FFA2520314600F00FFB1D20684900F083FB032C5DD138225F4B1A70042202331A70062201331A70002501331D7001331D703F2201331A70D9
:4008000002331D7001331D7001331D7001260A331E70502203F527631A70272201331A702C2201331A7001331D70552203331A705A2201331A70052701331F7002331E700D
:40084000112201331A70192201331A70972201331A704420FFF7D8FE5822444B1A7001331D7005331F70022201331A7001331D7001331D70284600F013FA4FF47A423C4B77
:400880001A600820314600F02FFA2520314600F0AFFA1D20394900F023FB042C5DD138222F4B1A70042202331A70062201331A70002401331C7001331C703F2201331A709A
:4008C00002331C7001331C7001331C7001250A331D70502203F527631A70272201331A702C2201331A7001331C70552203331A705A2201331A70052601331E7002331D7056
:40090000112201331A70192201331A70972201331A704420FFF778FE5822144B1A7001331C7005331E70022201331A7001331C7001331C70204600F0B3F94FF47A420C4BE3
:400940001A600820294600F0CFF92520294600F04FFA1D200A4900F0C3FAF8BDA881FF1F004E0040855800409158004094580040C481FF1F710C0000750C0000790C0000A2
:400980007D0C00002DE9F04182B0394D4FF0010885F80080374E00247474102000F092F9102000F013FA1D20072100F0ADFA0427314B1F7001331C7007331C702F4A137845
:4009C00043F0180313702E4B1C7003F2F5231C7001331C700A22A3F209331A7001331C7002331C705B2205331A705E2201331A7004331C701422A3F68C231A70CDF8008033
:400A0000022048F6F0514FF400421023FFF794FD02230093204649F2DA014FF400421023FFF78AFD03230093204649F2DA014FF400421023FFF780FD0097204649F2DA01FA
:400A40004FF400421023FFF777FD2B7806EB830313F8022C0B4B1A702B78013B36F82320094B1A802878FFF7F5FD02B0BDE8F0810C81FF1FA881FF1F96580040075B0040D1
:400A8000935800400E4E00400C4E004070B500F0DFFB06462A4B1B782A4B1A7842F001021A701A7842F010021A7010331A7842F001021A701A7842F010021A70224D2B7866
:400AC00043F002032B70214C237843F0020323701F4A137843F003031370032000F0F6F92B7803F0FD032B70237803F0FD032370184A137843F0060313707A22164B1A7019
:400B0000164A137843F0010313701032137843F0010313700F3A137843F0010313701032137843F0010313704FF000530C4A1360A2F5C0721360304600F08EFB70BD00BF02
:400B40000C81FF1FAA430040F8460040F9460040915800407758004082580040A143004080E200E008B5084B9B7C4BB9064BDB7C13F0FF0F01D1FFF705FF0122024B9A74BA
:400B8000FFF784FF08BD00BFA881FF1F024A137843F0010313707047004E0040024A137803F0FE0313707047004E0040094B1B7C13F0FF0F03D0074B5B7CDBB203E0064BCF
:400BC0001B7803F00103012B01D00028EED01846704700BFA881FF1F014E0040154B1B7803F00303012B07D8134B1888023B1B889BB243EA004013E0022B0AD10E4B18885B
:400C0000023B1B7843EA00430C4A107843EA002006E00B4B188883B2074A108843EA0040084B1B7C13F0FF0F02D00022054B5A74704700BF144E0040124E0040114E00407E
:400C4000104E0040A881FF1F10B5084A137843F004031370FFF79AFF0020FFF7A7FFFFF7BDFF0446FFF79AFF204610BD014E0040704700BF704700BF704700BF704700BFC0
:400C800010B5002404E02046FFF75CFB0134E4B2012CF8D9FF22014B1A7010BD0D81FF1F10B50446FFF7ECFF2046FFF73DFB014B1C7010BD0D81FF1F014B188880B27047D1
:400CC00080400040034B1A7800F0F80010431870704700BF82400040024B187800F00700704700BF8240004070B505460E46FFF7F3FF0446FFF7E0FF854256D02B4B1B78CC
:400D000003F0010294B900B185B938B9284B1D80284A137803F0BF03137070BD254A137843F040031370224B1D8070BD22B3002321490B7001240F310C7004310B700C3941
:400D40000B7803F07F030B701A4B1B7813F0080F00D08DB9194B18800721013B1970164B1B7813F0010FFAD110490B7803F0FE030B700021104B19700C4B1B7813F0010FD0
:400D80000DD00E4B1D800EB1032200E001220A4B1A70094B1B7813F0010FFAD170BD044B1D8002490B7813430B7070BDA243004080400040824000400140004002400040C6
:400DC000014B188880B2704700410040034B1A7800F0F80010431870704700BF02410040024B187800F00700704700BF0241004070B505460E46FFF7F3FF0446FFF7E0FF69
:400E0000854256D02B4B1B7803F0010294B900B185B938B9284B1D80284A137803F0BF03137070BD254A137843F040031370224B1D8070BD22B3002321490B7001241331B7
:400E40000C7004390B7008390B7803F07F030B701A4B1B7813F0080F00D08DB9194B18800721013B1970164B1B7813F0010FFAD110490B7803F0FE030B700021104B197057
:400E80000C4B1B7813F0010F0DD00E4B1D800EB1032200E001220A4B1A70094B1B7813F0010FFAD170BD044B1D8002490B7813430B7070BDA14300400041004002410040CA
:400EC000014000400240004001BE704708B5034B1B7A03FB00F000F0B3F908BD1081FF1F70B504460E46074B1D681F2802D90020FFF7EAFF04F01F04103455F8240045F817
:400F0000246070BD08ED00E038B504460D46072902D90020FFF7D8FF1F2C02D90020FFF7D3FF04F01F0000F1604000F564406D01EDB2057038BD00BF024A137843F080039B
:400F40001370704776650040014B1870704700BF87650040014B1878704700BF67650040014B1880704700BF0C6A0040024B1B78024B188880B27047066500408C6A0040A1
:400F8000014B188880B270478C6A0040014B1880704700BF4C6A0040014B1880704700BF6C6A004008B501E0FFF7EAFFFFF7D2FF10F0400FF8D108BD08B5134A137803F0AD
:400FC000F80343F001031370137803F0FC031370FFF7E8FF4FF6FF70FFF7D8FF0020FFF7BFFF0020FFF7B0FFFFF7B4FF8020FFF7D3FF00F02DF9054A137843F0100313707B
:4010000000F02AF908BD00BF766500409765004008B5054B1B7823B9FFF7CEFF0122024B1A70FFF789FF08BDBC81FF1F024A137843F080031370704777640040014B187035
:40104000704700BF87640040014B1878704700BF67640040014B1880704700BF4C680040014B188880B270478C680040014B1880704700BF0C68004008B501E0FFF7F0FF8A
:40108000FFF7E2FF10F0080FF8D108BD08B54CF24F30FFF7DFFF4CF24F30FFF7E7FF00F0D7F8064A137843F01003137000F0D4F8FFF7E2FF0120FFF7C1FF08BD9764004000
:4010C00008B5054B1B7823B9FFF7E0FF0122024B1A70FFF7ABFF08BDBD81FF1F054A137843F0010313701032137843F001031370704700BFA8430040054B1A7802F0FD0255
:401100001A701A7800F0020010431870704700BF20580040014B1870704700BF805B0040064B1B78C3F3810303F19243063393F82031DBB2024A1370704700BF20580040AD
:401140000846004008B5064B1A7802F0F3021A701A7800F00C0010431870FFF7E1FF08BD2058004010B50024054B1C7001331C700420FFF7E7FF2046FFF7BEFF10BD00BFEA
:401180002058004008B5074B1B7823B9FFF7EAFF0122044B1A70FFF7A1FF6420FFF7BAFF08BD00BFBE81FF1F014B1B681864704708ED00E04001C0B2014B1870704700BFA0
:4011C00000E400E00122014B1A60704700E100E00122014B1A60704780E100E008B5FFF7F7FF0448FFF7E0FF0720FFF7E3FFFFF7E9FF08BD051200000122014B1A607047C6
:4012000080E200E000B583B0FFF7B0FEC0F30B10094BA3FB0030C0098DF807009DF807008008FFF777FFFFF7E7FF0020FFF71EFF03B05DF804FB00BFC55A7C0A0000000091
:401240000230800803D000BF01380046FCD17047EFF3108072B6704780F31088704700BF014B1868704700BF8081FF1F0E4B70B51E460E4C0025E41AA410A54204D056F8D0
:40128000253098470135F8E700F04CF8084B094C1E46E41AA4100025A54204D056F8253098470135F8E770BD3013000030130000301300003813000010B5431E0A449142F4
:4012C00004D011F8014B03F8014FF8E710BD03460244934202D003F8011BFAE77047000000000000035B00402443004040000000305100404000C05100401000F051004081
:40130000100000000140001000140140000800400140000A004C0140000200500140200043000000F8B500BFF8BC08BC9E4670474D00000035010000F8B500BFF8BC08BCFB
:401340009E46704729000000581300000881FF1F80000000400000000000000001FF00000000E02EC05D00001800000000366E0100000000000000000000000000000000EF
:4013800000000000000000000000000000000000201300000000000000000000000000000000000000000000000000000000000000000000000000000000000000000000FA
:4013C000000000000000000000000000000000002081FF1F00000000000000000000000000000000000000000000000000000000000000000000000000000000000000002E
:4014000000000000000000000000000000000000000000000000000000000000000000000000000000000000000000000000000000000000000000000000000000000000AC
:40144000000000000000000000000000000000000000000000000000000000000000000000000000000000000000000000000000000000000000000000000000000000006C
:40148000000000000000000000000000000000000000000000000000000000000000000000000000000000000000000000000000000000000000000000000000000000002C
:4014C00000000000000000000000000000000000000000000000000000000000000000000000000000000000000000000000000000000000000000000000000000000000EC
:020000040003F7
:0200000480007A
:4000000001520040016400400265004002030140010501403506014016070140010D0140401401401B1501404E1601402617014001190140011B0140024001400141014044
:400040000142014003430140024401400245014002460140014701400248014001490140044C0140024D014006500140015101400804870D850D8767A520B120A520382020
:400080003E10401449FF4AFF4BFF4F01501858045A045D095F016040624064406540668068806A806C806E808F019301B701BF40C054C5ECC720C823C9FFCAFFCBFFCD8351
:4000C000CE03CF01D018D280D401D604D904DA04DB04DD99DF01E040E240E440E540E680E880EA80EC80EE801D20224031023B4041024502478049054B40510259055A80E7
:40010000638073C08340A520CC01CE08D091D208D60BD801EC804030410249FF4AFF4BFF4DA04F0450185A045D015F01604062C06440654066C068C06AC06CC06EC0830269
:4001400087018A0494029701A604AA03B002B101B201B404B502BE10C030C102C5D0C620C701C81AC9FFCAFFCBFFCDAFCE0FCF04D018D280D405D804D904DA04DB04DC11BB
:40018000DD11DF01E040E2C0E440E540E6C0E8C0EAC0ECC0EEC007040E2016281E68274437043C023E0841204304452047044F01552056285E485F0174019F40C040C22016
:4001C000C460CC40CEC0D066D6D0EC1002011F0122012801330136013E404014410249FF4AFF4BFF4DA04F0150185280580459045A045B045C905D995F016040628064404A
:400200006540668068406A506BA86C406D206E506FA88203840490029B01A604B001B402B501B604BE50C015C102C525C6C0C70EC81FC9FFCAFFCBFFCDAFCE07CF01D018BE
:40024000D407D804D904DA04DB04DC99DD99DF01E040E280E440E540E680E840EA50EBA8EC40ED20EE50EFA80004024007400A4010201680172019401A441D80200427209B
:400280003020374041A045A04640482049024B805254534059505A046214768081128340A120C01CC208C454CC14D0BCD208D60ED806E401E401EC103310CC109F109F10E1
:4002C00083109F10E2207D01DE01B101EC014508D001A5082510C820B51057088308A508D402B508EC0801010B01100211011A021B0100030000000000000100000F0F0067
:40030000040000000000000000000400BB001801000000000000000000000000000000000000000000000000000000000000000000000000000000000000000000000000E1
:40034000000000000000000000000000000000000000000000000000000000000000000000000000000000000000000000000000000000000000000000000000000000007D
:40038000000000000000000000000000000000000000000000000000000000000000000000000000000000000000000000000000000000000000000000000000000000003D
:4003C00000000000000000000000000000000000000000000000000000000000000000000000000000000000000000000000000000000000000000000000000000000000FD
:4004000000000000000000000000000000000000000000000000000000000000000000000000000000000000000000000000000000000000000000000000000000000000BC
:0200000490006A
:0400000000004005B7
:0200000490105A
:04000000BC90ACAF55
:0200000490303A
:020000009DE978
:0200000490402A
:4000000000000000000000000000000000000000000000000000000000000000000000000000000000000000000000000000000000000000000000000000000000000000C0
:400040000000000000000000000000000000000000000000000000000000000000000000000000000000000000000000000000000000000000000000000000000000000080
:400080000000000000000000000000000000000000000000000000000000000000000000000000000000000000000000000000000000000000000000000000000000000040
:4000C0000000000000000000000000000000000000000000000000000000000000000000000000000000000000000000000000000000000000000000000000000000000000
:0200000490501A
:0C00000000012E16106900012E1DAE52EA
:00000001FF